:100000000C94D70B0C94FF0B0C94FF0B0C94FF0B70
:100010000C946F250C94D6240C94FF0B0C94FF0BBE
:100020000C94FF0B0C94FF0B0C94FF0B0C94EF2221
:100030000C94FF0B0C94FF0B0C94FF0B0C94FF0B18
:100040000C9401210C94FF0B0C9490220C946A22C6
:100050000C94FF0B0C94FF0B0C94FF0B0C94FF0BF8
:100060000C944B210C94FF0B560000000000240060
:1000700027002A0000000000250028002B000000B7
:1000800000002300260029000404040404040404DE
:100090000202020202020303030303030102040833
:1000A00010204080010204081020010204081020E2
:1000B0000000000800020100000304070000000027
:1000C00000000000BF0002020304030504060A004A
:1000D000FE07FE07000142029207B32005006207F7
:1000E0002107394367A80022079B52275901230D96
:1000F0003D42AF4C69A86AA8322500240B3D423727
:10010000AF7AA7B42300250B3D422FAAEEAA2513F0
:1001100000260C3D422FA7987295645401270519BB
:1001200053672808BB42379575012908BB422797BA
:1001300055092A0A2D4627A76AA876002B0A2D46BC
:1001400037A3386446112C079B3E4F95002D060DB2
:100150004E67082E079B3E2FAD042F0B3D421F65B7
:1001600094BB514600300A3D4237A7DA4E75043140
:100170000C3D4237CB94514619C521320C3D426F9C
:10018000E58CA2CC190D01330C3D42676894B3860F
:100190003A2D00340C3D423FCB54A6A1334A0035E2
:1001A0000B3D42E746C9CC48A705360B3D4257E612
:1001B0008C92A9D302370C3D4267689433CA35CA82
:1001C00000380B3D426F659D56D66901390C3D42A2
:1001D0006F65A95446394A003A0ABB3E2FAD0CD38D
:1001E0004A003B09BB3E2FAD0C55093C0ABC423FBF
:1001F000B6514619053D081D4A676838043E0BBCD8
:100200004227A38C328A6D003F0A3D426FE536CA11
:100210007404400B3D426F65B99295E102410B3D7C
:100220004237A75A8F917500420C3D4267C42AA6F7
:1002300059C5A100430C3D426F658D32CA28A70500
:10024000440D3D4267C42AA698628A4301450C3D8D
:1002500042E746198D94514643460D3D42E7461903
:100260008D9451461901470C3D426F658D328A3B92
:100270002D0048093D4227DB63643B4908BB4267C8
:10028000C5AE014A0C3D4277679451466594004BD8
:100290000B3D4227CB54EA14AB1C4C0E3D4227A326
:1002A0008C32CA28A38C86004D0A3D4227EBB592BA
:1002B000B6034E0A3D4227EBA992DC3A4F093D4274
:1002C0006F65EFB400500D3D4267A4AC87CA28A308
:1002D0008C00510A453E6F65AF6AC300520B3D4228
:1002E00067A4AC872AAB1C530B3D426F650D37D416
:1002F0006901540E3D4267C88C32CA28A38C220083
:1003000055083D4227FB4E0B560B3D4227DBA94CBF
:1003100031E508570A3D4227BB924A7700580A3D0B
:100320004227EB5457B50E590C3D4227EB546794C6
:100330005146115A0A3D42676894BBD1105B08BB15
:100340004267C4CE015C0D3D4227A30C33CC30C3C1
:100350008C025D08BB4267768E005E071D5237A790
:100360003A5F060D3E67086006125B2706610A2D9C
:10037000426FC334741A01620C3D4227A38C92A9C8
:10038000A75200630A2D426F658D725A00640B3DBF
:10039000421F6594CC2D950A650A2D426FE53132D6
:1003A0005C00660C3D42575679C48C32CA00670C1B
:1003B0003D3A6F689D46463A2D00680B3D4227A3A3
:1003C0008C92A9ED006908BB422F23D91A6A0BCC85
:1003D0003A3F635D4B9914006B0C3D4227A38CB2EE
:1003E0004CB3CA016C07BB4247F61A6D0A2D42474F
:1003F000B5545249076E082D422799DA0E6F092D20
:10040000426F653B2D00700C3D3A27997A2A955131
:100410004600710B3D3ACFDC52A98C320A720B2D8B
:100420004227991A65941100730A2D426F65B8E14D
:100430005000740D3D422FA33C624619C5A80075BB
:10044000082D42273B950A760A2D4227EB54A61C1D
:100450000177092D42275B49750178092D4227A7AD
:10046000BAAA03790B3D3A279B4A65A4D3027A08BE
:100470002D4267E8F6107B0BBC42576594348A190D
:10048000097C063943E7087D0CBC4247A39891CA12
:100490002849007E091D522FAA241300A0050062DE
:1004A00007A1073943270D01A20C3D3E370F155315
:1004B0004C79C408A30B3D4257567967149502A4A2
:1004C0000A2D4227A799E2CA01A50D453E27EB5404
:1004D000C72133CA2802A6063943670DA70B453E3C
:1004E0006F65343B374A0BA8068B5E2705A90C3D88
:1004F000426F6595A64A3A2D00AA0AB4466F44A5F4
:100500006A3402AB0B2E42B78A29E6986300AC0727
:10051000944A67E400AD068C4E6704AE0B3D426F13
:10052000E591E6D46901AF060D5E6708B0069B52FF
:10053000AF0BB10B354237A33864467108B208AC33
:100540004E4FC5E608B30AAC4E67A3A4D14800B429
:1005500006125B4F01B50A353E27DB53A98C00B666
:100560000E3D426F8C34525231C5145300B7050909
:100570004F27B806123B4F01B907AB4E2FC96ABAD5
:100580000AB4464F4599341C01BB0C2E4227E6980D
:10059000638A294600BC104E3E2F230D33CC68667B
:1005A000A4531C1906BD104E3E2F230D33CC686595
:1005B00054C38C321ABE0E4D3E47C39C619459A65B
:1005C00034320ABF0A3D4237D319E5D602C00C4582
:1005D000422FC3BCB21E23EB00C10B4542BF5E5984
:1005E0008F917500C20C454237A7B8B21E23EB00AD
:1005F000C30C45422F2AB9B21E23EB00C40B45425F
:10060000AFA656D663641DC50C454237A7B8B21EC7
:1006100023EB00C60B3E4277A4B239466C0EC70DE1
:100620004D3A6F658D32CA28A75D03C80E45422F2B
:100630008F8D321A29A38C8600C90E45423F8D8DBD
:10064000321A29A38C8600CA0E4542378E8D321A83
:1006500029A38C8600CB0E4542AF1A1B6534524647
:10066000190D01CC09C34227A7155B03CD09C3426D
:1006700037A5155B03CE09C342AF1A29B606CF09C9
:10068000C34227E5155B03D00D3D4267C42A8E5453
:10069000A6381400D10B454237754F95E4D601D2E8
:1006A0000B45422FC3BCB23B2D00D30A4542BF5E6F
:1006B000D99D1600D40B454237A7B8B23B2D00D5C3
:1006C0000A454237355776A705D60A4542AFA656A2
:1006D00076A705D7092D4227A7BAAA03D80B3D4212
:1006E0006FC52BCD991600D90A45422FC3DA3B2D91
:1006F00000DA094542BFCCDE6901DB0B454237A772
:100700008CB33B2D00DC0A4542AFC6D93B2D00DD42
:100710000C4542BFCC3AD519651401DE0E3D422787
:10072000A391F2501965941100DF0B3D426F65995A
:10073000CA2A2B05E00C45422FC34C6E98864E23E7
:10074000E10B4542BF26374C43A711E20C45423727
:10075000A74C6D98864E23E30C454237B5A90DD3BF
:10076000D06904E40B3D42AFA6364C43A711E50C1B
:10077000454237A79C374C43A711E60B2E426F64C6
:10078000548D998700E70B3D3A6F658D72DA35001D
:10079000E80C45422FC34CAE3C46860BE90B454264
:1007A000BF26571E23C305EA0C454237A74CAD3C74
:1007B00046860BEB0B3D42AFA6561E23C305EC0944
:1007C000C3422767245B03ED08C342AF86B235EE10
:1007D00008C342AF2D5B03EF08BB422765D91AF06F
:1007E0000B3D424743B9B29D1600F10A454237B569
:1007F0007132B51DF20B45422FC34CAE6CA705F309
:100800000A4542BF2657B6D302F40B454237A74CE0
:10081000AD6CA705F50B454237B5A995EDB400F6CB
:100820000A3D42AFA656B6D302F7092D46375343C9
:100830005311F80A2D426FC895E65000F90B454256
:100840002FC34C65A75201FA0A4542BFA6B253A96D
:1008500000FB0B454237A78CB353A900FC0A3D426D
:10086000AFC6D9A95400FD0C4D3ABFCCA65219E928
:10087000B400FE0D453A27A391B23D54461901FF3D
:100880000D4D3AAFC6D9542A239D1600000000042E
:10089000FFFF0000BF00020203030304040507007A
:1008A000FF06FF0600010A0216062F200500BD0103
:1008B0002106B1B1192922075BB7495600230A2D39
:1008C000B1AB86AA86AA0024092DB15BF54E690159
:1008D000250834B1C9B1770026092CB18B295631CE
:1008E00005270599B719280772B153CD0029087259
:1008F000B189A952002A076BB149D56A2B0A2DB1DB
:10090000CD280E9951042C075BAF5325002D060C02
:10091000B519012E0652B119012F0724B38F6D00AE
:10092000300873B1AB5C1500310773B14BB235328F
:100930000934B15331C77204330A34B11939692407
:100940009302340A34B18DAA1A312700350A34B122
:10095000197A23991400360A34B153794599140051
:10096000370A34B11939E6982300380A34B15331C3
:10097000A9289302390A34B15351A69D14003A07AD
:100980006AB11971043B0833AFB3912A013C076B7C
:10099000B14D75013D081CB319198D003E076BB1AF
:1009A000C955093F0973B16BA60C1300400934B156
:1009B0005351DD4801410934B153518E2903420A94
:1009C00034B15971A4284702430934B153519749AE
:1009D00001440934B159D1391200450934B1197AA9
:1009E000E53C02460834B1197AE51A470934B15397
:1009F00051A79906480834B189724C33490773B13D
:100A000059B1354A0834B16FCBA4004B0A34B189CF
:100A10002A4999CA004C0734B1C9DD234D0934B1C4
:100A200089E38866004E0834B1896BA9334F0934D5
:100A3000B153D1991400500A34B159518E943300F6
:100A4000510A3CAF53D15C49A300520934B159510A
:100A50008ED40C530A34B1533165542605540773B0
:100A6000B159B10B550834B1899E4901560934B1C9
:100A700089CE241500570934B189E6386200580A36
:100A800034B1893249156500590873B14956590185
:100A90005A0934B11939B647005B0773B119B13936
:100AA0005C0924B3C928A38C025D0773B199CD11E9
:100AB0005E0553B96B5F060CB11901600652B98926
:100AC00001610824B11B51A902620A34B1C97945F8
:100AD000391200630623B19B59640834B1AF4694C0
:100AE00069650824B153696405660934B1ADCA99D2
:100AF000230067092CAF1B31A98C06680834B1C9E3
:100B0000794533690873B1CB4856036A097BAFCD89
:100B1000B05415006B0934B1C95592A90C6C077318
:100B2000B1915D036D0824B1496948196E0724B17C
:100B300059D10C6F0824B15351260570092CAF59B7
:100B4000518E940171082CAF1B51A61D720824B15F
:100B500059516700730824B11B1A0D05740934B18B
:100B6000CB71E68C04750724B189661A760763B1E8
:100B7000495605770724B189721C780824B1894940
:100B8000AA1879092CAF89329525007A0824B11961
:100B9000B11C017B0873B14D49D6017C05B1B13957
:100BA0007D0973B1C951C514017E0714B94B2A01DF
:100BB000A00500BD01A106B1B14923A20934AF8D42
:100BC00023356702A3082CB155715602A40A2DB132
:100BD000C969A6B87200A50973B149AA5A3101A61C
:100BE00006A9B15102A7087BAF9BAA920BA8064B9E
:100BF000BB4901A90B3DAF5B59A5A9924E0BAA06B3
:100C00001BB75B49AB071DB38BB201AC0614B3191C
:100C100039AD054BB519AE0B3DAF5B79A439755AAB
:100C200000AF060CBB1901B0065BB7EB02B10B3588
:100C3000B1CD280E99511C02B20662B55106B30619
:100C400062B51969B40652B95300B5082CAF89E6EC
:100C50004819B60834B11B6AF503B70652B5190135
:100C6000B80652AF5300B90763B54B320DBA061B35
:100C7000B7EB02BB081DB389A54C00BC093CAFC94A
:100C8000CDA87600BD093CAFC92D1DB300BE0A3CFE
:100C9000AF913AAAA87600BF0973B1CB30C5540111
:100CA000C00934B153518E2903C10934B153518E57
:100CB0002903C20934B153518E2903C30934B153F6
:100CC000518E2903C40A34B18949C5316500C5096B
:100CD00034B1932A8E2903C60934B11BA91AAA2557
:100CE000C70A3CAF535197494600C80934B1197A35
:100CF000E53C02C90934B1197AE53C02CA0934B1AC
:100D0000197AE53C02CB0934B1197AE53C02CC07EB
:100D100073B159B135CD0773B159B135CE0773B140
:100D200059B135CF0773B159B135D00934B199698B
:100D3000758D04D10834B14973A933D20934B15344
:100D4000D1991400D30934B153D1991400D4093482
:100D5000B153D1991400D50934B153D1991400D6A7
:100D60000A34B1894945332900D70824B18949AAF1
:100D700018D80934B11BE9484702D90834B1899E13
:100D80004901DA0834B1899E4901DB0834B1899EF2
:100D90004901DC0A34B1891945332900DD0873B1F2
:100DA00049565901DE0A34B1C92B8E943300DF094C
:100DB00034B15351955602E00A34B1CB288EA85471
:100DC00001E10934B1AD4754AA00E20934B1ADD212
:100DD000884A15E30A34B14B2A8EA85401E4093439
:100DE000B1ABE1884A15E50934B1937244A50AE62E
:100DF0000824B11B69C501E7086BAF9B592500E8C2
:100E00000A34B1CB28AA34B202E90934B1AD551A7B
:100E10005901EA0A34B18B29AA34B202EB0A34B17F
:100E20004919AB34B202EC0873B1C9495603ED0756
:100E300073B12B6535EE0773B1AB6635EF0873B14F
:100E400049595603F00A34B1CBC88A322900F10956
:100E500034B14B2AAD6806F20A34B1CB28AA2893E4
:100E600002F30934B1AD55944901F40A34B1D358B1
:100E700045991400F50A34B14B2AAA289302F60AC0
:100E800034B1ABA18A322900F7092CB1D37064A820
:100E900000F80924B11B69A49100F90934B1CBA869
:100EA00034D300FA0734B16D9A69FB0834B1D330FA
:100EB0009A69FC0934B1AB5134D300FD093CAF6DE4
:100EC000CA549600FE0A34AFC92BCA913200FF0AF9
:100ED0003CAFAB5194A92C0100000004FFFF0000BF
:100EE000E00002020304030404060B00FE07FE08F0
:100EF000FF013D028908AE200500A203210739A3A6
:100F000033540022079BB693AC00230A2DAA570D39
:100F1000550D5501240C4D9E9B57A5F24EAADA1192
:100F2000250C3DA237543253542AC904260B3DA246
:100F300027ABBA4A32AA00270519B7332808CB9E37
:100F40009BCAEE022908CB9E93CBAE122A092DAA8A
:100F50005B55AB19012B0A2DA69B511C32A3082C03
:100F600007A29A3392022D058BAE332E0612A333BD
:100F7000022F10559A8F32CA19E58C724639A38C0C
:100F800000300B3DA2B7B25C69EAB400310C3DA25F
:100F90001B37CA28A38CE210320A3DA2B77246B9A9
:100FA0003D04330C3DA2B7724651439D1600340AEE
:100FB0003DA29F652AD3D079350C3DA273A39161E0
:100FC000463A2D00360B3DA2B7321A29DB690137AC
:100FD0000C3DA23334CA28D728A308380B3DA2B74A
:100FE000B24E2BEBB400390B3DA2B7B29D46466919
:100FF000013A072AA333E2083B08BA9A33E2480AC7
:101000003C0ABCA21FDB28A38C023D081DAA333476
:101010001C023E0BBCA293514619C536003F0B3D46
:10102000A2B77246B9A62300400C3DA2B7B21A2956
:10103000A991E108410B3DA29B534CF51859074279
:101040000C3DA23352D643653D1400430C3DA2B77C
:10105000B246196594D30244093DA23352F61E0AE2
:10106000450C3DA273A38C46CA28A321460D3DA280
:1010700073A38C46CA28A38C00470B3DA2B7B24687
:1010800071EBB40048093DA293ED31B21D490D3D0D
:10109000A2336446196594511C024A0C3DA28F325A
:1010A000CA2823ADD3024B0B3DA293652A758A55FE
:1010B0000E4C0D3DA29351461965945146434D0A7D
:1010C0003DA293D74A2A693B4E0A3DA293A74A7292
:1010D000DB014F093DA2B7B2775A00500D3DA23354
:1010E00052D6436594514600510A459EB7B257B552
:1010F0006100520A3DA23352D643653B530B3DA2D9
:10110000B7B2861BEAB400540D3DA233644619659C
:101110009451461155083DA2937DA705560B3DA25B
:1011200093ED54A69C510457093DA2935D49A53BFC
:10113000580A3DA29375AAAB5A07590B3DA293EDED
:1011400054679451045A0A3DA23334CADD68085BDF
:10115000074A9FB3FA125C11D59A93518619659884
:10116000518619659851005D07CA9EA3FA1A5E0759
:101170001DB29B531D5F050E9A73600692BA13034E
:1011800061092DA237B4A95400620C3DA2935146C7
:1011900023657B2800630A2DA2B7B246198E00642E
:1011A0000B3DA28F324A43DB6904650A2DA2B7F2D8
:1011B00018198E006609BCA2ABE2CC4D00670B3D4E
:1011C0009A37B49D46466901680B3DA29351462368
:1011D0006577006908BBA297916C0D6A094B9A9BD1
:1011E00091EC5C006B0C3DA29351463195B3CA0162
:1011F0006C07BBA2237B0D6D0B2DA23352A5924A27
:10120000AA006E082DA2934C6D076F092DA2B7B2EC
:101210009D1600700C3D9A3352B687CA2823007180
:101220000B3D9A37B49D46461905720A2DA2934C80
:101230008D32CA08730A2DA23734DC702800740975
:10124000BCA297E3CC351275082DA2939D4A057672
:101250000A2DA293752A538E00770B2DA293924AE2
:101260002AA92E0078092DA293535DD501790B3D53
:101270009A93DD69649416007A082DA233747B0872
:101280007B0ADB9A9B622BC776007C06499FF300A2
:101290007D0ADB9A93633BC556047E0615AEE702D2
:1012A0007F0500A203800500A203810500A203823E
:1012B000071A9E97140083105D9A2F33CA28EF8C6B
:1012C00032CA28A3A80184071C9ED7520985060D9F
:1012D000A2930A8608ABAA9756AC008708ABAA97D8
:1012E000565A09880693BAD700890E46A237564B3C
:1012F0006BA492EA9912008A0C4DA257E79535DC4F
:1013000050A7058B0722A2A762008C0C3DA2375480
:101310004C31A932E5118D0500A2038E0500A20310
:101320008F0500A203900500A20391071AB3A7122C
:101330000092071AB397140093079CB297540B942A
:10134000079CB2D7520995082DA6777C2D009605EB
:101350008BAE3397050EAE73980615BAE70299095E
:101360001EB23352B5D2009A0C45A257677268B8C4
:10137000E150009B0722A21393029C092DA2D7A53E
:1013800046CA499D0500A2039E0500A2039F0D4D7C
:10139000A257E36CA73AA38C2200A00500A203A1E8
:1013A00007B9A3938600A20C3D9E9B57A562CA2352
:1013B0004600A30D45A227AB8C664619E5A100A403
:1013C0000A2DA293D34C71E500A50C3DA293533591
:1013D000641C32A308A607499F33D208A70D559E67
:1013E000B7728A2AF69229A705A8068BBA9302A992
:1013F0000C3DA2B361543AA99C2600AA0AB4AE37A8
:10140000A24C1B8D00AB0825A217658A0DAC081DE8
:10141000A63334CA28AD060DAE3304AE0B35A6B3E1
:1014200061922A4DA500AF058BBA33B008A4B2A7CC
:10143000A24C0AB10B35A29B511C32A33804B2074F
:10144000A3B6A3531AB308ABB2A3935C00B40713BB
:10145000BB371200B50D3D9A13534C31C5B434CA95
:1014600008B60E45A2375452495523A698620AB7CA
:101470000612AB3302B8079B9AB34602B907A3B66C
:1014800023AB01BA0AB4AEA7A24C1A8E00BB092541
:10149000A2135B512600BC114EA2A3618679A48CD5
:1014A000322A934A1B2600BD0F4EA2A3618679A45F
:1014B0008C329A596734BE104EA2A37146B24A2AA2
:1014C000A332A9B46102BF0A3DA29BE936CA6901F1
:1014D000C00E4DA297614639C5548F917500C10C5D
:1014E0004DA25FA39C62AAC7C83AC20C4DA29B53EF
:1014F0002673AAC7C83AC30B4DA2E7AE62AAC7C8F3
:101500003AC40D4DA2579339C5548F917500C50C3F
:101510004DA29B53AE6A3D46D601C60C3DA2375440
:101520004C71A432C534C70D4D9AB7B246196594B3
:10153000D3AE01C80F4DA297611C1B6534524619EA
:101540000D01C90E4DA25F8E8D321A29A38C860023
:10155000CA0F4DA29B531A1B65345246190D01CB7D
:101560000E4DA257E3B15146236594D110CC0F4DD7
:10157000A297611C32A38C32CA280E01CD0E4DA257
:101580005F0E9951461965148700CE0E4DA29B53EC
:10159000C643669451467108CF0E4DA257E32133DE
:1015A000CA28A38CE210D00C3DA237AB3852996206
:1015B0005A00D10B4DA2E7CA5325B9ED00D20B4D0D
:1015C000A297615ED93B2D00D30A4DA25FAFEC9D7F
:1015D0001600D40B4DA29B53A65676A705D50A4DEF
:1015E000A2E75CD93B2D00D60A4DA257532B7BA70F
:1015F00005D7092DA693535DD501D80B3DA2B7B2EF
:101600005C69EAB400D90A4DA29761ED3B2D00DA7E
:10161000094DA25F66DF6901DB0B4DA29B53C6D962
:101620003B2D00DC0A4DA257E3EC3B2D00DD0C4DB9
:10163000A25F663BD519651401DE0D3DA293D1482A
:10164000590F95514600DF0D4D9E2BA39629A66C90
:10165000A98C00E00B45A29B61A68636950AE10A9B
:1016600045A25F93439B4A05E20B45A29B53A68686
:1016700036950AE30A45A2E7A68636950AE40A3DAE
:10168000A25753439B4A05E50B45A29B53CE439B70
:101690004A05E60A2DA2B72A35521E01E70C3D9AEB
:1016A000B7B246198E983300E80C45A297612657C9
:1016B0001E23C311E90B45A25F932B8F91E108EA2A
:1016C0000C45A29B53A6561E23C311EB0B3DA257FC
:1016D000532B8F91E108EC09C3A2933392AD01ED36
:1016E00009C3A29B3292AD01EE08C3A2D796AD0109
:1016F000EF08BBA293B26C0DF00B45A2A7358C434B
:10170000DB6901F10A45A2E7C6C9D47600F20B45B0
:10171000A297612657B6D302F30A45A25F932BDB4B
:101720006901F40B45A29B53A656B6D302F50A45B0
:10173000A2E7A656B6D302F60A3DA257532BDB69A1
:1017400001F7092DA69BA9A1A908F80A2DA2B7E2C5
:101750004A332D00F90B45A29761A6B253A900FAAE
:101760000A45A25F53D9A95400FB0B45A29B53C65F
:10177000D9A95400FC093DA257E3EC542AFD0C55AD
:101780009A5F53D99D46466901FE0E4D9A93514684
:1017900023657BA88C3202FF0C4D9A57E3EC4E2355
:1017A000A3B40000000004FFFF00000093251124F3
:1017B0001FBECFEFD8E0DEBFCDBF12E0A0E0B1E0AA
:1017C000E2E2F9E602C005900D92A632B107D9F720
:1017D00025E0A6E2B2E001C01D92A73CB207E1F706
:1017E0001BE0C7EDDBE004C02197FE010E947830CA
:1017F000C63DD107C9F70E9483270C948F340C94FF
:101800000000662329F06A3019F0862F90E00895D1
:101810008FEF9FEF0895AF92BF92CF92DF92EF923A
:10182000FF920F93CF93DF93EC01DA017901942FAC
:101830009770E1E0F0E09F01092E01C0220F0A94A9
:10184000EAF7522F6E018AE8C80ED11CF60180819A
:1018500040E0823018F4422F813049F15D01F8EF09
:10186000AF22E8ADF9AD28813981D90150968C912C
:101870008A9D90018B9D300D1124620F731FDF0133
:10188000A60FB71F01111AC0EA0EFB1E8C91842B04
:1018900085278D93AE15BF05C9F7DF91CF910F91C5
:1018A000FF90EF90DF90CF90BF90AF90089550E001
:1018B000D5CF440F550FE114F10479F33C91342B4B
:1018C00035273C939F5F9770E1E0EE1AF108911184
:1018D000F0CF2CAD3DADA20FB31FF6018081823059
:1018E00028F4813009F051E041E0E5CF51E0E3CF49
:1018F00080E0089590E080E00895809325050895A4
:101900001092E0031092E1031092E2031092E303BD
:101910001092E4031092E5031092E6031092E7039D
:101920001092E8031092EB031092EE031092EF0373
:101930001092F0031092F1031092F6031092F70345
:101940001092F8031092F9031092F2031092F3032D
:101950001092F4031092F5031092140410921304E1
:10196000209110043091110480E0909112048917A5
:1019700060F494E0899FF0011124E20FF31F1082BC
:101980001182128213828F5FF0CF08959B01DC01D8
:101990001896ED91FC9141E067E10994833081F064
:1019A00028F4813099F08230A9F008958730A9F0A9
:1019B0008830C9F08430B1F4809180008F7D03C0FD
:1019C000809180008F7780938000089584B58F7711
:1019D00084BD089584B58F7DFBCF8091B0008F7753
:1019E0008093B00008958091B0008F7DF9CFCF93A0
:1019F000DF93282F30E0F901E055FF4F8491F90182
:101A0000E456FF4FD491F901E857FF4FC491CC231E
:101A1000A1F081110E94CE0CEC2FF0E0EE0FFF1F21
:101A2000E258FF4FA591B491EC91ED2381E090E055
:101A300009F480E0DF91CF91089580E090E0FACF43
:101A40001F93CF93DF93282F30E0F901E055FF4F2C
:101A50008491F901E456FF4FD491F901E857FF4F03
:101A6000C491CC23A9F0162F81110E94CE0CEC2F2B
:101A7000F0E0EE0FFF1FEC58FF4FA591B4918FB728
:101A8000F894EC91111108C0D095DE23DC938FBF40
:101A9000DF91CF911F910895DE2BF8CFCF93DF9385
:101AA00090E0FC01E456FF4F249188579F4FFC01C2
:101AB00084918823C9F090E0880F991FFC01E659B2
:101AC000FF4FA591B491FC01EC58FF4FC591D49103
:101AD00061110DC09FB7F8948C91209582238C934F
:101AE0008881282328839FBFDF91CF91089562309A
:101AF00051F49FB7F8943C91822F809583238C9367
:101B0000E8812E2BEFCF8FB7F894EC912E2B2C93EE
:101B10008FBFEACF3FB7F8948091230390912403BD
:101B2000A0912503B091260326B5A89B05C02F3FA1
:101B300019F00196A11DB11D3FBFBA2FA92F982FF3
:101B40008827BC01CD01620F711D811D911D42E0EE
:101B5000660F771F881F991F4A95D1F708952FB7F1
:101B6000F89460911F03709120038091210390915C
:101B700022032FBF0895AF92BF92CF92DF92EF92D0
:101B8000FF920F931F93CF93DF936C017B018B0127
:101B9000040F151FEB015E01AE18BF08C017D10777
:101BA00059F06991D601ED91FC910190F081E02D01
:101BB000C6010995892B79F7C501DF91CF911F9156
:101BC0000F91FF90EF90DF90CF90BF90AF9008956E
:101BD0002091BD02260F3327331F21323105ECF44B
:101BE0002091E302FC0190E080E0243069F082E083
:101BF0000895A091BD022191AC0145565D4FA40FFF
:101C0000B52FB11D2C930196861798F38091BD02D4
:101C1000680F6093BD0280E0089581E008951092FE
:101C2000E30281E08093E5021092E40261E082E148
:101C30000E94200D61E083E10E94200DE9EBF0E0BD
:101C400080818E7F808380818D7F808388E48093F4
:101C5000B80085E48093BC000895CF93DF9391E0B2
:101C600090939A028823B9F0C091B800D091BA003D
:101C70008091BC008A7B8093BC0060E082E10E947E
:101C8000200D60E083E10E94200D0E940F0ED09392
:101C9000BA00C093B800DF91CF91089508950895D8
:101CA0000895E091920280919102E81730F4F0E0FB
:101CB000EF58FD4F808190E008958FEF9FEF0895DA
:101CC00090919202809191022FEF3FEF981748F484
:101CD000E92FF0E0EF58FD4F208130E09F5F9093B7
:101CE0009202C90108958091910290919202891BFC
:101CF000990B0895CF92DF92EF92FF920F931F936B
:101D0000CF93DF937C01CB018A01209170022223C3
:101D100089F0EB016B01C40ED51ECC15DD0569F011
:101D20006991D701ED91FC910190F081E02DC701FF
:101D30000995F3CF642F0E94E80DC801DF91CF9180
:101D40001F910F91FF90EF90DF90CF900895CF9368
:101D5000DF931F92CDB7DEB76983209170022223F3
:101D6000F9F020919302203258F021E030E0FC019C
:101D70003383228390E080E00F90DF91CF9108952C
:101D800080919402E82FF0E0E05BFD4F9981908311
:101D90008F5F809394028093930281E090E0ECCF78
:101DA00061E0CE0101960E94E80DF7CFFC01538D52
:101DB000448D252F30E0842F90E0821B930B541725
:101DC00010F0CF96089501970895FC01918D828DB2
:101DD000981761F0A28DAE0FBF2FB11D5D968C914B
:101DE000928D9F5F9F73928F90E008958FEF9FEF8A
:101DF0000895FC01918D828D981731F0828DE80F46
:101E0000F11D858D90E008958FEF9FEF0895FC01FF
:101E1000918D228D892F90E0805C9F4F821B9109CC
:101E20008F739927089583E393E00E94070F21E0C1
:101E3000892B09F420E0822F089580E090E0892B1F
:101E400029F00E94130F81110C9400000895FC01E9
:101E5000A48DA80FB92FB11DA35ABF4F2C91848D0B
:101E600090E001968F739927848FA689B7892C9368
:101E7000A089B1898C91837080648C93938D848DBB
:101E8000981306C00288F389E02D80818F7D8083BE
:101E90000895EF92FF920F931F93CF93DF93EC017E
:101EA00081E0888F9B8D8C8D98131AC0E889F98901
:101EB000808185FF15C09FB7F894EE89FF89608304
:101EC000E889F98980818370806480839FBF81E085
:101ED00090E0DF91CF911F910F91FF90EF900895C7
:101EE000F62E0B8D10E00F5F1F4F0F731127E02EA2
:101EF0008C8D8E110CC00FB607FCFACFE889F989DA
:101F0000808185FFF5CFCE010E94270FF1CFEB8DA9
:101F1000EC0FFD2FF11DE35AFF4FF0829FB7F894AD
:101F20000B8FEA89FB8980818062CFCFCF93DF93CB
:101F3000EC01888D8823B9F0AA89BB89E889F989E1
:101F40008C9185FD03C0808186FD0DC00FB607FC16
:101F5000F7CF8C9185FFF2CF808185FFEDCFCE0149
:101F60000E94270FE9CFDF91CF910895DC011A96E7
:101F7000ED91FC9130E020E00994DC011696ED91A2
:101F8000FC9130E020E040E069E10994DC01169624
:101F9000ED91FC9130E020E040E068E109949A0185
:101FA000DC011696ED91FC91462F67E10994EF92C2
:101FB000FF920F931F93CF93DF931F92CDB7DEB79E
:101FC0007C018B01D8016C91673129F150F46531A6
:101FD000A0F40F90DF91CF911F910F91FF90EF90A0
:101FE00008956A3118F16E3FA1F7F80141814983E4
:101FF00069E2C7010E94B60F0BC0F8014181498315
:10200000D7011696ED91FC9130E020E0C7010995CB
:102010000E5F1F4FD7CFF80181818983AE014F5FDB
:102020005F4F61E0C7010E94CF0FF2CF0F5F1F4FDC
:10203000D7011696ED91FC9130E020E040E0C70119
:102040000995C0CF462FDC011696ED91FC9130E04A
:1020500020E066E10994462FDC011696ED91FC9193
:1020600030E020E065E10994EF92FF920F931F9317
:10207000CF93DF93EC01042F79016D3009F446C052
:1020800050F46B30C9F1693009F49FC06A3009F42B
:1020900065C080E046C06E3009F452C06F3099F7D9
:1020A0000E94C60FF7011381110F110F110F6C89D8
:1020B000160F60E4CE010E942B10612F62956F70A5
:1020C0006061CE010E942B10612F6F70CE010E94C3
:1020D0002210F7016481606BCE010E942210F7018B
:1020E000408151816281660F660F660FCE010E94AA
:1020F000CF0F0150A1F72EC06EE271E0442311F022
:1021000069E271E0CE010E94D70F0AC0411110C0F0
:1021100062E271E00E94D70FE881F98182898C8B9D
:1021200081E0DF91CF911F910F91FF90EF90089583
:102130006BE171E00E94D70FE881F9818389EFCFCD
:102140000E94C60F61E8CE010E942B10602FCE01C5
:102150000E942210CE010E94BD0FE2CFEA85FB85CE
:1021600030E020E040E068E2CE010995EE81FF8199
:1021700030E020E040E064E1CE01099541E06BE40D
:10218000CE010E94B60FE881F981448169E2CE0157
:102190000E94B60F40E06BE4CE010E94B60FE881CA
:1021A000F981448169E2CE010E94B60F41E06BE4FF
:1021B000CE010E94B60FE881F981458169E2CE0126
:1021C0000E94B60F63E371E09DCF88E691E09983AA
:1021D00088831C8AA5CFDC011896ED91FC9130E034
:1021E00020E040E069E10994DC011896ED91FC9152
:1021F00030E020E040E068E10994CF93DF931F9244
:10220000CDB7DEB76983BE016F5F7F4F0E94C60CFA
:102210000F90DF91CF910895EF92FF921F93CF938C
:10222000DF93EC01162F7A010E94F41060E4CE01D6
:102230000E94FD10E885F9859701412F67E1CE01E5
:102240000995CE01DF91CF911F91FF90EF900C94F3
:10225000EB10EF92FF921F93CF93DF93EC01142FBB
:102260007901663181F138F4643109F44BC065318C
:1022700079F080E022C06831C9F150F16931C9F7C5
:1022800080914F02882391F1CE010E94EB102EC065
:1022900080914F02882319F0CE010E94EB10CE01ED
:1022A0000E94F41060E0CE010E94FD10612FCE016B
:1022B0000E94FD1081E080934F02DF91CF911F912A
:1022C000FF90EF900895642F0E94FD1081E0F5CFFC
:1022D00080914F02882319F0CE010E94EB10A701D4
:1022E000193138F4612FCE010E940C1110924F0267
:1022F000EDCF68E1CE010E940C11185188E1E80E83
:10230000F11CEDCF8E898F3F11F488E78E8BE88525
:10231000F9859701412F64E1CE01DF91CF911F91A3
:10232000FF90EF9009940F93FC01E85BFF4F019041
:10233000F081E02DDF01A41BB50BAD01FC01EA5BD0
:10234000FF4F0190F081E02DDF01A61BB70BBD010F
:10235000011113C041505109621B730BFC01E05C79
:10236000FF4F0190F081E02D4E1B5F0BDC01D496F6
:10237000ED91FC9109950F910895013079F7615025
:102380007109421B530BEACFCF93DF93FC01A0816D
:10239000B18182AD90E09C0143E0220F331F4A954A
:1023A000E1F737AF26AF50962C91509748E0249F25
:1023B0009001112435AF24AF23AD30E0B90153E0D3
:1023C000660F771F5A95E1F7EF01C05CDF4F798305
:1023D000688351964C915197E901C80FD91F50E07D
:1023E0004C175D0718F4CA01821B930BEF01CE5BFB
:1023F000DF4F79836883229623E0880F991F2A95FF
:10240000E1F7860F971F99838883229654968D91C2
:102410009C91559799838883E85BFF4F56968D91E1
:102420009C9191838083DF91CF9108950F931F93A7
:10243000FC01E25BFF4F0190F081E02DDC01A05B2D
:10244000BF4F0D90BC91A02D4A175B0740F4E017D9
:10245000F10748F00417150730F080E019C0E017C5
:10246000F107C0F3FACFFC01E65BFF4F40815181D9
:10247000845B9F4FFC01808191816817790758F434
:1024800081E04217530720F081E02617370728F72D
:102490001F910F91089542175307B0F3DECF2F928B
:1024A0003F924F925F926F927F928F929F92AF92E4
:1024B000BF92CF92DF92EF92FF920F931F93CF9331
:1024C000DF93CDB7DEB728970FB6F894DEBF0FBE07
:1024D000CDBF98878F83865B9F4F9A838983FC014A
:1024E00011821082EF81F885EA5BFF4F20803180F6
:1024F0002F813885245B3F4F3C832B83F901318248
:102500002082EF80F884FEE4EF0EF11CF7011182C7
:102510001082EF81F885E85BFF4F40805180EF81AA
:10252000F885EC5BFF4F208131814216530630F075
:10253000C201821B930BF70191838083EF81F885A1
:10254000EE5BFF4F20813181421A530A2F8138857B
:10255000205B3F4F3E832D83F90151824082EF8102
:10256000F885E85AFF4F60807180EF81F885EC5A5A
:10257000FF4FA080B180EF81F885EA5AFF4FC080FD
:10258000D180EF81F885EE5AFF4F808091808301E2
:102590009501A601B4018F8198850E9416122F81A2
:1025A00038852C573F4F38872F8381111BC0F90185
:1025B000108228960FB6F894DEBF0FBECDBFDF9114
:1025C000CF911F910F91FF90EF90DF90CF90BF9030
:1025D000AF909F908F907F906F905F904F903F90C3
:1025E0002F90089581E0EF81F88580838114910414
:1025F00021F0E981FA8191828082A214B30420F44F
:10260000EB81FC81B182A082F701808191818C15E0
:102610009D0510F4D182C0826414750450F6ED81DA
:10262000FE8171826082C5CF0F93CF93DF93E02F3D
:10263000DC01AC57BF4FFC91FF2309F460C02115AA
:10264000310509F45CC02230310538F0023009F060
:102650004AC06F5F7F4F621B730B0E2F0170E0FD4E
:1026600052C0FC01E25BFF4F0190F081E02D4E175C
:102670005F0708F444C0FC01E05BFF4F0190F0816C
:10268000E02D4E175F07D8F5FC01E45BFF4F01908A
:10269000F081E02DDC01A65BBF4F0D90BC91A02D19
:1026A000260F371F2617370738F56E177F0718F5DF
:1026B0009F0121503109A217B30708F56A177B075C
:1026C00008F4BD012E173F0708F4F901E61BF70BCC
:1026D000EC01AEA9BFA914960D90BC91A02D9F014D
:1026E000FD0109950CC0033009F0B7CF4F5F5F4F74
:1026F000421B530BB2CFBD016E177F07E0F2DF9193
:10270000CF910F910895FC01E65BFF4F0190F0819E
:10271000E02D6E177F0798F3FC01E45BFF4F0190FB
:10272000F081E02D6E177F0750F7FC01E05BFF4F53
:102730000190F081E02DDC01A25BBF4F0D90BC91B8
:10274000A02D240F351F24173507A8F44E175F0757
:1027500088F49F0121503109A217B30780F64A1768
:102760005B0708F4AD012E173F0708F4F901E41BDD
:10277000F50BAECFAD014E175F0708F6EDCFAF9268
:10278000BF92CF92DF92EF92FF920F931F93CF935E
:10279000DF936C01EB015A017B01E20EF31E9C01F9
:1027A000240F351F8701AB01BC018BE994E00E9427
:1027B0001612882361F000E09501AE01B6018BE9A5
:1027C00094E00E9414132196EC16FD06A1F7DF9108
:1027D000CF911F910F91FF90EF90DF90CF90BF901E
:1027E000AF9008950F932091E9043091EA046217A5
:1027F0007307F0F02091EB043091EC04621773073B
:10280000B8F42091E5043091E6048217930780F034
:102810002091E7043091E8048217930748F4AB0154
:10282000BC0100E021E030E08BE994E00E94141349
:102830000F910895213069F038F0223079F0840F3B
:10284000911D47FD9A950895860F911D67FD9A95F4
:102850000895841B910947FD93950895861B91095E
:1028600067FD93950895213069F038F0223079F0B2
:10287000861B910967FD93950895840F911D47FD6F
:102880009A950895860F911D67FD9A950895841B6A
:10289000910947FD939508953F924F925F926F92F1
:1028A0007F928F929F92AF92BF92CF92DF92EF92E0
:1028B000FF920F931F93CF93DF937C01162F442E2B
:1028C000EC01C25ADF4F5E806F806C018AE8C80E4F
:1028D000D11C78847518312E711608F4372C8C8031
:1028E0009D800E85202F462D652D8A819B810E941B
:1028F0001A145C01202F462D652DC4010E9433144B
:10290000AC01442079F08C85F6018083232D30E0E2
:10291000B501C7010E941413171548F017196394E5
:10292000512CD7CF8B858111F7CF8D85EDCF150D2C
:102930001E836F82DF91CF911F910F91FF90EF90D7
:10294000DF90CF90BF90AF909F908F907F906F90CF
:102950005F904F903F900895DC011A964C911A9722
:10296000ED91FC911197249130E0042E02C0359531
:1029700027950A94E2F7842F860F883068F0319605
:102980001196FC93EE93E49198E0941B01C0EE0F36
:102990009A95EAF72E2B88501A968C938FEF9FEF1B
:1029A00001C0880F6A95EAF7809582230895FC019B
:1029B000E60FF11D849190E0982F88273196E491DD
:1029C0008E0F911D0895CF93DF932091F5043091E0
:1029D000F6042817390709F490C0EC019093F60427
:1029E0008093F504FC018491809308053196E4916D
:1029F000E0930905FE013296E491E0930A05FE0199
:102A00003396E491E0930B05FE013496E491E09354
:102A10000C05FE013596E491E0930D05FE01369616
:102A2000E491E0930E05FE013796E491E0930F05E3
:102A3000FE013896E491E0931005FE013996E49189
:102A4000E0931105FE013A96E491E0931205FE0130
:102A50003B96E491E0931305FE013C96E491E093EC
:102A60001405FE013D96E491E0931505FE013E96A6
:102A7000E491E0931605FE013F96E491E09317057B
:102A8000FE017096E491E093180561E1CE010E9489
:102A9000D71490931A058093190563E1CE010E9423
:102AA000D71490931C0580931B0565E1CE010E940D
:102AB000D71490931E0580931D058091F504909185
:102AC000F604892BD1F08091150580932105409162
:102AD00016054093220590912005992371F09130BD
:102AE00079F490911705891714F49093210580913A
:102AF0001805841714F480932205DF91CF9108956F
:102B00003091120520911405082E000C990B622FAC
:102B1000022E000C770B630F711D37FD7A95861717
:102B200097071CF4320F30932105241734F72093B4
:102B30002205E3CF4F925F926F927F928F929F9286
:102B4000AF92BF92CF92DF92EF92FF920F931F93BB
:102B5000CF93DF93EC016B018A017901FC01E45909
:102B6000FF4F8081813009F44BC008F43EC08230B1
:102B700009F451C0833009F459C0FE01E05AFF4FF7
:102B8000D182C082329611830083389780819181EF
:102B900047962FEFE216F10411F008F0F2C0E1E6DB
:102BA000EE16F10408F44DC0FE01E058FF4F2081FD
:102BB0003181820F931F9C012F5F3F4FF901449198
:102BC000411148C090E080E0DF91CF911F910F91BB
:102BD000FF90EF90DF90CF90BF90AF909F908F903D
:102BE0007F906F905F904F900895FE01E45AFF4FE1
:102BF0000190F081E02DCE010995080F191FBDCF7E
:102C0000FE01E45AFF4F0190F081E02DCE010995BD
:102C1000C81AD90AB2CFFE01E45AFF4F0190F081E1
:102C2000E02DCE010995081B190BA7CFFE01E45A30
:102C3000FF4F0190F081E02DCE010995C80ED91EFD
:102C40009CCFF1E4EF16F10408F4B5CFFE01E25891
:102C5000FF4FADCFFC0144914E151F0409F08CC00D
:102C60000296009709F4AECF7E01FEE5EF0EF11C4F
:102C7000F70191838083128673966081C7010E9459
:102C8000AC14F701808774966081C7010E94AC1470
:102C9000982EF70181875E01FAE8AF0EB11CF501AD
:102CA0009081F701948781E0911180E0F701858799
:102CB000FE01ED58FF4FC0806C2DC7010E94AC147F
:102CC000582EFE01EC58FF4FD0806D2DC7010E9499
:102CD000AC14482EFE01EB58FF4F1081612FC70145
:102CE0000E94AC149FEF910F01E010E0980101C029
:102CF000220F9A95EAF7882E821AF701608416143B
:102D00000CF0ADC0CA94C80101C0880FCA94EAF79C
:102D1000581A7684490CDA94A80101C0440FDA9459
:102D2000EAF7F42FF4194F2E272D4F2F652DF701B9
:102D3000828193810E941A146C01F701938382832C
:102D4000272D442D652D848195810E943314F70130
:102D500095838483F1E07F1609F485C07F1608F41B
:102D60003FC022E0721609F48DC0E3E07E1609F43C
:102D70009DC0BC0196013EC0F9012491820F911DB6
:102D80001ACFFE01EE57FF4F00811181080F191F66
:102D9000680160E0C6010E94D714080F191F62E0A5
:102DA000C6010E94D714F4E0CF0ED11C8E159F05EA
:102DB00080F3F801849190E0982F88273196E49170
:102DC0008E2B009709F4FECEE816F90619F4C80117
:102DD000039647CFF8013296E4910E0F111DE9CF0B
:102DE0009601260D311D67FC3A95BC01690D711DD8
:102DF00097FC7A958B01AC01B601CE010E941612A8
:102E0000882369F1F701168217828E0101591F4F3D
:102E10006E01F0E7CF0ED11CF8016081C7010E945E
:102E2000AC14682EF6016081C7010E94AC14782EA4
:102E300040E0662DCE010E944C1441E0672DCE018A
:102E40000E944C1461E0C7010E94AC148111F0CFC4
:102E5000F7018781891504F38485F5018083882D26
:102E6000880C990BB1CE0919110997FC139596019D
:102E70002F5F3F4FBC01660D711D67FC7A95C00E38
:102E8000D11EB8CFA8014619510967FC5395960188
:102E90002F5F3F4F0919110997FC1395BC016F5F14
:102EA0007F4F800F911FC40ED51EA4CF9601290D10
:102EB000311D97FC3A950619110967FC1395BC0161
:102EC0006F5F7F4F800F911F95CFCF92DF92EF9270
:102ED000FF920F931F93CF93DF93EC018B0110921E
:102EE000B30486EBC82E81E0D82EF12CE12CF6013C
:102EF00061916F01E0919D04F0919E048BE994E053
:102F000009958F3F980719F18E3F2FEF920779F3BC
:102F10009C01A801BE018BE994E00E949A152091C2
:102F20000705213059F038F0223059F0233061F094
:102F3000E80EF91EDCCFC80FD91FFACF080F191FF2
:102F4000F7CFC81BD90BF4CF081B190BF1CFC70162
:102F5000DF91CF911F910F91FF90EF90DF90CF9075
:102F60000895CF93DF93EC016BAFEEA9FFA9019019
:102F7000F081E02D0995EEA9FFA90280F381E02DF3
:102F8000CE01DF91CF910994AF92BF92CF92DF92A1
:102F9000EF92FF920F931F93CF93DF9300D000D057
:102FA0001F92CDB7DEB78C01DC01DA96AC90DA97D0
:102FB000DB96EC90DB97ED91FC91B188FE2CD12C47
:102FC000C12CD801ED91FC9111978089D8962D9153
:102FD0003C911C82FD828B83B8E08B9FC001112441
:102FE0008C9DA0018D9D500D9C9D500D1124240F92
:102FF000351F3A832983D8011496ED91FC919E01E7
:103000002F5F3F4F41E06FE0C8010995F3948F2D8A
:103010008E198A1528F4BFEFCB1ADB0AFB1488F24D
:103020000F900F900F900F900F90DF91CF911F9105
:103030000F91FF90EF90DF90CF90BF90AF900895E9
:10304000CF92DF92EF92FF920F931F93CF93DF9374
:10305000EC01962F683109F44BC0B901993130F475
:103060009431C9F0973189F080E006C0993109F4B4
:1030700061C09032C9F781E0DF91CF911F910F912C
:10308000FF90EF90DF90CF90089550E087E293E0BB
:103090000E947A0EF0CF8C859D85AE85BF85892BE9
:1030A0008A2B8B2B71F4E881F981A585B0E020EAA9
:1030B00036E841E050E00E94AD2D6C877D878E8719
:1030C0009F87109292021092910210929402109295
:1030D00093020E940F0E8EE49EE09093BC028093B8
:1030E000BB028FE49EE09093C0028093BF02C3CFE7
:1030F0002C853D854E855F8560E074E284EF90E02D
:103100000E94C02D2051310941095109569547951A
:10311000379527952093B8008E8990E095958795EF
:1031200091E09093700280934E021092940210925C
:103130009302A1CFD0919302D13208F093C0C091F5
:103140004E020E948A0D6B017C018091E302811185
:1031500064C082E08093E30281E08093E5028FEF18
:103160008093E20210920703D0930603A0E5B2E039
:10317000E6EEF2E080E0D8137CC010920803809164
:103180000803CC0FC82BC09308038091E402813060
:1031900009F073C01092E4020E948A0D6B017C0159
:1031A000809108038093BB008091960290919702D2
:1031B000A0919802B0919902892B8A2B8B2B99F0C0
:1031C0000E948A0D00919602109197022091980218
:1031D000309199026C197D098E099F09061717070E
:1031E00028073907D8F18091BC0083FDD9CF85EC41
:1031F0008093BC000E948A0D6B017C018091E302E8
:103200008230E9F18091E2028F3F61F18091E20228
:10321000803241F18091E20225C080919602909126
:103220009702A0919802B0919902892B8A2B8B2B3F
:1032300009F48BCF0E948A0D00919602109197029B
:1032400020919802309199026C197D098E099F098D
:10325000061717072807390708F077CF80919502DE
:103260000E942D0E109294021092930210927002FE
:1032700002CF9D9191938F5F7ECF85EEB9CF8091E4
:10328000960290919702A0919802B0919902892B91
:103290008A2B8B2B09F4B2CF0E948A0D00919602E3
:1032A0001091970220919802309199026C197D0932
:1032B0008E099F09061717072807390708F09ECFC0
:1032C000CDCF8F929F92AF92BF92CF92DF92EF922B
:1032D000FF92CF93DF937C01C62F6C32B0F46A3239
:1032E000E8F5683249F1693209F444C080E0C0343D
:1032F000B0F1CF73F701EC0FF11D868D8F3F71F1A7
:10330000C03108F06DC0642F14C06D3209F456C08E
:1033100068F384EB860F823048F7CF73CE0DDF2D34
:10332000D11D8E8D411158C061E00E944E0D60E0AC
:103330008E8D0E94200D12C02EE1E20EF11CD0E015
:10334000F70181917F018F3F31F061E0D03108F0CA
:1033500062E00E944E0DDF5FD63191F781E0DF9190
:10336000CF91FF90EF90DF90CF90BF90AF909F9064
:103370008F900895C42ED12CF12CE12C0E948A0D3F
:103380004B015C01C114D104E104F10439F30E9442
:103390008A0D681979098A099B09683E734081057D
:1033A000910580F3F1E0CF1AD108E108F10828EE89
:1033B000820E23E0921EA11CB11CE4CF85E090E0B8
:1033C000433010F082E090E0880F991F880F991F1A
:1033D00005970197F1F7C2CF62E00E944E0DBECF74
:1033E0000E94F70C21E0892B09F420E0F701218FDE
:1033F000B5CFCF92DF92EF92FF920E94042F20E090
:1034000034E244E759E40E94632E9B01AC0160E082
:1034100070E080E89FE30E94632E6B017C01AC01A9
:103420009B0160E074E284E79BE40E94632E0E94AB
:10343000D52E6F3F2FEF72078105910508F47CC0F0
:1034400020E030E040E051E4C701B6010E94BB2F0C
:103450009B01AC0160E074E284E79BE40E94632E70
:103460000E94D52E6F3F2FEF72078105910508F45A
:1034700065C020E030E040E852E4C701B6010E9498
:10348000BB2F9B01AC0160E074E284E79BE40E94E7
:10349000632E0E94D52E6F3F2FEF72078105910595
:1034A00008F44EC020E030E040E853E4C701B60124
:1034B0000E94BB2F9B01AC0160E074E284E79BE4B7
:1034C0000E94632E0E94D52E6F3F2FEF7207810559
:1034D0009105C0F120E030E040E854E4C701B601B6
:1034E0000E94BB2F9B01AC0160E074E284E79BE487
:1034F0000E94632E0E94D52E6F3F2FEF7207810529
:103500009105A8F425E0F8941092810061507109AA
:103510007093890060938800809181008860809317
:10352000810080918100282B209381007894FF9066
:10353000EF90DF90CF90089521E0E5CF22E0E3CF38
:1035400023E0E1CF24E0DFCF68EF83E393E00C9446
:10355000490F6CEF83E393E00C94490F6AEF83E328
:1035600093E00C94490FCF92DF92EF92FF920F936A
:103570001F93CF93DF93EC0188810E94F70C8C019D
:103580000E94AF0DCA80DB80EC80FD80AB01BC01E6
:103590004C195D096E097F090115110561F48981D6
:1035A000813031F491E04B3051056105710508F42B
:1035B00090E080E00EC001301105D1F789818111C2
:1035C000F7CF81E04B3051056105710508F480E0CB
:1035D00090E01F821E829923B1F081E090E09F83EA
:1035E0008E830E94AF0D6B017C01CA82DB82EC826C
:1035F000FD820983DF91CF911F910F91FF90EF9092
:10360000DF90CF900895882381F30E94AF0D2EEEB6
:10361000C20E22E0D21EE11CF11C6C157D058E0548
:103620009F0550F482E090E09F838E83E885F985C2
:103630003097B9F20995D5CF83E090E09F838E83D0
:10364000EA85FB85F5CF0F931F93CF938C01C62F8F
:1036500062E08C2F0E944E0DF801C0838C2F0E94D7
:10366000F70CF8018183CF911F910F910895CF92AC
:10367000DF92EF92FF92CF93DF93EC0189819A81E1
:103680009C838B8388818E3008F08E508770806495
:1036900080937C0080917A00806480937A0080918E
:1036A0007A0086FDFCCFA0917800B0917900CF80A0
:1036B000D8840D2C000CEE08FF0829853A85032ECE
:1036C000000C440B550B2C193D094E095F090E9453
:1036D000B82D2FEF33E040E050E00E948E2DDA014C
:1036E000C9018C0D9D1DAE1DBF1D092E000CAA0B1E
:1036F000BB0B4D815E81052E000C660B770B841B86
:10370000950BA60BB70B81152EEF92072FEFA20793
:10371000B207DCF0813022E09207A105B10524F068
:1037200080E092E0A0E0B0E09A8389832B85222399
:1037300029F09195819591099A838983DF91CF91A1
:10374000FF90EF90DF90CF90089580E09EEFECCF58
:10375000CF92DF92EF92FF920F931F93CF93DF935D
:103760006C01EB017B01E40EF51E10E000E0CE15CC
:10377000DF0561F06991D601ED91FC910190F08136
:10378000E02DC6010995080F191FF1CFC801DF917F
:10379000CF911F910F91FF90EF90DF90CF90089500
:1037A000CF92DF92EF92FF920F931F93CF93DF930D
:1037B000EC016C0124E0C20ED11CFC01E057FF4F6C
:1037C0000190F081E02DC60109958E3FEFEF9E0735
:1037D000D8F48E010C561F4FF801408151817E01B3
:1037E000F2E9EF0EF11CF701608171819C01C601C5
:1037F0000E949A15C059DF4F28812130C1F078F01E
:103800002230B9F02330E9F081E090E0DF91CF91F0
:103810001F910F91FF90EF90DF90CF900895F701E7
:1038200020813181820F931F91838083EDCFF80136
:10383000F7CFF70120813181281B390B3183208399
:10384000E3CFF801F7CF089590E080E00895CF939B
:1038500020911B0330911C032130310579F54091F3
:103860001A03EBEAF5E0433010F0E7EBF5E09C01DA
:1038700053E0220F331F5A95E1F7842F63E00E9433
:103880003D30913069F0923091F087819085280F1A
:10389000391F3087278381E080930401CF910895F9
:1038A00085819681280F391F36832583F4CF818542
:1038B0009285280F391F32872187EDCF24E0880FAA
:1038C000991F2A95E1F72091090330910A032130CD
:1038D000310581F1C0F02230310509F440C02330B8
:1038E000310509F453C0C1E0C09313030E94AF0D2A
:1038F00060930F037093100380931103909312034E
:10390000C0930401CBCF2091180330911903820F8B
:10391000931F813022E0920714F080E092E081153D
:103920002EEF920714F480E09EEF9093190380939A
:103930001803D9CF2091020130910301820F931F08
:10394000813024E0920714F080E094E097FF02C0F9
:1039500090E080E09093030180930201C4CF209116
:10396000160330911703820F931F813022E09207D4
:1039700014F080E092E081152EEF920714F480E0BD
:103980009EEF9093170380931603ADCF2091000113
:1039900030910101820F931F813024E0920714F0CF
:1039A00080E094E097FF02C090E080E090930101F6
:1039B0008093000198CF80919F050E94F70C892B7E
:1039C000E9F080911B0390911C030197C1F4809151
:1039D0001A039BEA899F912D11249695292F220F76
:1039E000290F90E0019663E070E00E944930922F29
:1039F000980F90931A0381E08093040108958091B9
:103A0000090390910A03009739F481E090E09093C4
:103A10000A0380930903EFCF8130910529F41092B6
:103A20000A0310920903E7CF8230910519F483E06D
:103A300090E0EDCF0397F9F682E090E0E8CF809137
:103A400093050E94F70C892B81F080911B039091C4
:103A50001C03019769F480911A03833038F48D5F59
:103A600080931A0381E08093040108958350F8CF76
:103A70008091090390910A03009739F482E090E065
:103A800090930A0380930903EDCF8130910519F4D7
:103A900083E090E0F5CF8230910529F410920A037B
:103AA00010920903DFCF0397E9F681E090E0E8CFB9
:103AB0001F93CF93DF93EC01162F8D81613041F47A
:103AC00061E00E94200D1E83DF91CF911F91089528
:103AD00060E00E94200D1E82F7CFFC0101900020C3
:103AE000E9F73197AF01481B590BBC0187E994E016
:103AF0000C94A81B8F929F92AF92BF920F931F932B
:103B0000CF93DF93CDB7DEB7A1970FB6F894DEBFA2
:103B10000FBECDBF19A2423008F44AE08E010F5DFE
:103B20001F4F842E912CB12CA12CA50194010E9431
:103B3000C02DE62FB901CA01EA30F4F4E05DD801E6
:103B4000EE938D01232B242B252B79F790E080E039
:103B5000109719F0CD010E946D1DA1960FB6F89433
:103B6000DEBF0FBECDBFDF91CF911F910F91BF90F0
:103B7000AF909F908F900895E95CE1CF0F931F93D2
:103B8000CF93DF938C01EB010E94782D8883C801CD
:103B900001960E94782D8983CE01DF91CF911F91EC
:103BA0000F91089585ED8093BC00809196029091CD
:103BB0009702A0919802B09199020796A11DB11D9C
:103BC00023E0B695A795979587952A95D1F72091EB
:103BD000BC0024FD03C01092E302089540919602B8
:103BE000509197026091980270919902452B462B53
:103BF000472B69F30097A105B10541F02AE22A9508
:103C0000F1F700C00197A109B109E1CF80919502B8
:103C10000C942D0EFC01A081B18150962C9182ADA7
:103C200038E0839FC0011124289FA001299F500DD7
:103C3000112470E060E080AD91AD0C94A3311F932E
:103C4000CF93DF93EC010E94C4171BAD8AAD180F10
:103C5000E881F9818189181768F0EC81FD8130E0F5
:103C600020E040E060E1CE01099580E0DF91CF9156
:103C70001F910895FE01E557FF4F8081882319F0B9
:103C8000CE010E940A1E612FCE010E94B11781E071
:103C9000EDCFCF93DF93EC01FC01E557FF4F80811F
:103CA000882319F0CE010E940A1E60E0CE01DF9148
:103CB000CF910C94B117FF920F931F93CF93DF9383
:103CC000EC018B01FB01F0800E94782DF81621F0A9
:103CD0006F2DCE010E94802DF801F1802196CE013A
:103CE0000E94782DF81621F06F2DCE010E94802DB4
:103CF000C801DF91CF911F910F91FF900895CF934D
:103D0000DF9300D0CDB7DEB790E080E00E94782D41
:103D10008B3A29F06BEA90E080E00E94802D809140
:103D2000B2059091B3059A838983BE016F5F7F4F7F
:103D300081E090E00E945B1E8091B4059091B505F2
:103D40009A838983BE016F5F7F4F83E090E00E947A
:103D50005B1E8091B0059091B1059A838983BE0165
:103D60006F5F7F4F85E090E00E945B1E8091BE05F3
:103D70009091BF059A838983BE016F5F7F4F87E073
:103D800090E00E945B1E8091C0059091C1059A83CE
:103D90008983BE016F5F7F4F89E090E00E945B1EC8
:103DA0008091BC059091BD059A838983BE016F5FA8
:103DB0007F4F8BE090E00E945B1E68E173E08DE036
:103DC00090E00E945B1E62E071E08FE090E00E9454
:103DD0005B1E66E173E081E190E00E945B1E60E0A3
:103DE00071E083E190E00E945B1E0F900F90DF91E5
:103DF000CF9108952F923F924F925F926F927F9250
:103E00008F929F92AF92BF92CF92DF92EF92FF92EA
:103E10000F931F93CF93DF9300D000D0CDB7DEB7C1
:103E20005C016B015A8349839A0145E0220F331FDD
:103E30004A95E1F73C832B8381E00E947D0CF501DC
:103E400021803280EB80FC80FAE0EF0EF11C1092B2
:103E50002A0510922905F0922C05E0922B05C60147
:103E60000E946D1D37FC04C08DE192E00E946D1D23
:103E70002101032C000C660877084AE0C301B20157
:103E800077FE0DC06DE287E994E00E94D01B6627A3
:103E90007727CB0164197509860997094AE00E94C2
:103EA0007A1D8CE590E090932A0580932905F09285
:103EB0002C05E0922B05F50161817281072E000C23
:103EC000880B990B0E94062F20E030E040E05BE376
:103ED0000E94BB2F20E030E040EA50E40E94BB2F5C
:103EE00020E030E0A9010E94B62F87FD04C08DE1DB
:103EF00092E00E946D1DF50161817281072E000C18
:103F0000880B990B0E94062F20E030E040E05BE335
:103F10000E94BB2F20E030E040EA50E40E94BB2F1B
:103F20006B017C014B015C01AC019B010E942830BC
:103F3000882309F46BC088EB91E00E946D1D08E6B0
:103F400010E0F8016491662341F087E994E00E9453
:103F5000D01B0F5F1F4F892BA1F7EB80FC80FCE08B
:103F6000EF0EF11C0B811C810A5E1F4F24E730E02D
:103F7000A70160E170E08BE994E00E9416128823AB
:103F800079F100E024E630E0A70160E170E08BE920
:103F900094E00E94141301E028E030E0CB80DC8044
:103FA0008DE0C80ED11CA60160E170E08BE994E0C1
:103FB0000E94141328E030E0A60163E770E08BE96B
:103FC00094E00E94141300E024E630E04B815C8111
:103FD0004B5E5F4F60E170E08BE994E00E94141348
:103FE000121413040CF48AC0AA27BB27A219B30920
:103FF00022E330E00E945D306115E6E67E07810530
:1040000091050CF4D6C0E2E3F0E0DBC026013701F5
:10401000E89477F82FEF3FEF4FE75FE7C301B20176
:104020000E94283081110DC02FEF3FEF4FE75FE76F
:10403000C301B2010E945E2E18161CF48CEB91E0B5
:104040007CCF2FEF3FEF4FE75FE4C701B6010E943F
:10405000B62F18161CF480EC91E06FCF2FEF3FEFD6
:104060004FE75FECC701B6010E945E2E87FDF3CFDC
:1040700020E030E0A901C701B6010E945E2E87FF53
:104080000BC06DE287E994E00E94D01B4601570106
:10409000B7FAB094B7F8B0942DEC3CEC4CE45DE387
:1040A000C501B4010E94F22D4B015C010E94D52E86
:1040B0006B017C010E94042F9B01AC01C501B4017E
:1040C0000E94F12D4B015C014AE0C701B6010E943C
:1040D0007A1D6EE287E994E00E94D01B20E030E078
:1040E00040E251E4C501B4010E94BB2F0E94D52ECD
:1040F00090E080E04AE00E947A1D21CF22E330E088
:10410000D1010E945D3050E040E06130EEEF7E076B
:10411000EFEF8E079E077CF042E350E06115F6E674
:104120007F07810591053CF420E032E040E050E05B
:104130000E948E2DA9012AE030E0B70182E490E0D0
:104140000E94BF1380911A039BEA899F912D11242D
:10415000969529813A8192171306E1F521E03CE01A
:1041600030939E0420939D046B817C81605E7F4F21
:10417000292F220F920F891B32E3839FC001112444
:104180000E960F900F900F900F90DF91CF911F918F
:104190000F91FF90EF90DF90CF90BF90AF909F90E6
:1041A0008F907F906F905F904F903F902F900C94E6
:1041B000651729E095958795779567952A95D1F7A5
:1041C000FB012AE030E0AF01B70182E490E08E1BF2
:1041D0009F0BB6CF0F900F900F900F90DF91CF9164
:1041E0001F910F91FF90EF90DF90CF90BF90AF9015
:1041F0009F908F907F906F905F904F903F902F9007
:1042000008951F920F920FB60F9211242F933F9390
:104210008F939F93AF93BF9380911F03909120033F
:10422000A0912103B091220330911E0323E0230FBC
:104230002D3758F50196A11DB11D20931E038093C3
:104240001F0390932003A0932103B0932203809136
:10425000230390912403A0912503B0912603019696
:10426000A11DB11D8093230390932403A0932503E4
:10427000B0932603BF91AF919F918F913F912F9162
:104280000F900FBE0F901F90189526E8230F0296EF
:10429000A11DB11DD2CF1F920F920FB60F92112404
:1042A0002F933F934F935F936F937F938F939F933E
:1042B000AF93BF93EF93FF938091B900887F8036CF
:1042C00009F44AC0F0F5883209F4A7C018F5803126
:1042D00009F49BC0B8F4882309F4F9C0883009F4C4
:1042E00094C0FF91EF91BF91AF919F918F917F917A
:1042F0006F915F914F913F912F910F900FBE0F9053
:104300001F901895883109F488C0803251F7809346
:10431000E20214C0803409F49DC040F48033B9F344
:104320008833F9F68093E20285ECB0C0803509F459
:1043300085C0883509F496C0883499F60E94D21D4C
:10434000D0CF883909F48CC038F5883729F050F47B
:10435000883611F0803729F683E08093E3021092CB
:10436000E10257C0883809F47BC0803919F08038E1
:1043700009F0B7CF8091E102803208F071C0E0917E
:10438000E10281E08E0F8093E1028091BB00F0E0BA
:10439000EF53FD4F80833DC0803B39F0E0F4803A1D
:1043A00009F479C0883A09F09CCF84E08093E30255
:1043B0001092BE021092BD02E091BB02F091BC02CD
:1043C00009958091BD0281110FC081E08093BD02EB
:1043D00010929B0209C0803C09F4A6CF883C09F4E6
:1043E000A3CF883B09F07DCFE091BE0281E08E0F24
:1043F0008093BE02F0E0E556FD4F80818093BB00C4
:104400009091BE028091BD0229C0809108038093E3
:10441000BB0085EC8093BC0064CF90910703809132
:104420000603981758F5E091070381E08E0F8093FB
:104430000703F0E0EA51FD4F8081E9CFE0910703E7
:1044400081E08E0F809307038091BB00F0E0EA517A
:10445000FD4F808390910703809106039817C8F25F
:1044600085E8D8CFE091070381E08E0F80930703A2
:104470008091BB00F0E0EA51FD4F80838091E5021E
:1044800081115CCF81E08093E40284EA8093BC00D8
:104490001092E30226CF85EC8093BC001092E302D9
:1044A0008091E102803230F4E091E102F0E0EF53DC
:1044B000FD4F10826091E10270E0E091BF02F09147
:1044C000C00281EC92E009951092E1020ACF1092AD
:1044D000E20234CF1F920F920FB60F9211242F9346
:1044E0003F934F935F936F937F938F939F93AF937C
:1044F000BF93EF93FF9383E393E00E94270FFF9115
:10450000EF91BF91AF919F918F917F916F915F914B
:104510004F913F912F910F900FBE0F901F901895C4
:104520001F920F920FB60F9211242F933F934F9328
:104530005F936F937F938F939F93AF93BF93EF930B
:10454000FF93CF93DF931F92CDB7DEB781E08983CE
:10455000E091D003F091D103309761F0A091430333
:10456000B09144036C91A0914903B0914A038C919E
:104570000995898389818823E1F0E0914303F091D3
:1045800044038081E0914903F0914A0382FD25C0F4
:10459000908180914C038F5F8F7320914D03821720
:1045A00041F0E0914C03F0E0ED5CFC4F958F80937F
:1045B0004C030F90DF91CF91FF91EF91BF91AF919D
:1045C0009F918F917F916F915F914F913F912F912B
:1045D0000F900FBE0F901F9018958081EACF1F9209
:1045E0000F920FB60F9211248F929F92AF92BF92AB
:1045F000CF92DF92EF92FF920F931F932F933F93EF
:104600004F935F936F937F938F939F93AF93BF93DA
:10461000EF93FF930E94AF0D60934A0270934B0299
:1046200080934C0290934D028091D2039091D303DA
:10463000029709F072C1C090E903D090EA0380911B
:10464000E8038C151D0411F41092E8038091E8032F
:10465000811106C180910E0490910F04019709F019
:10466000ECC04091E4035091E5036091E603709142
:10467000E7038091F6039091F703A091F803B091BE
:10468000F903481759076A077B0780F08091F60302
:104690009091F703A091F803B091F9030196A11D41
:1046A000B11D84179507A607B70720F52091F603DB
:1046B0003091F7034091F8035091F9032093E403FC
:1046C0003093E5034093E6035093E703F12CE12C8C
:1046D000C701B6010E942D306093E0037093E1039F
:1046E0008093E2039093E303A70196010E94C02DFB
:1046F0006093E803C090FA03D090FB03E090FC03C2
:10470000F090FD030E948A0D0091F2031091F303D3
:104710002091F4033091F503601771078207930726
:1047200008F416C1601B710B820B930B609302049B
:104730007093030480930404909305040091F6039E
:104740001091F7032091F8033091F9038090E4036E
:104750009090E503A090E603B090E70308151905D3
:104760002A053B0508F4FDC044E0660F771F881F4B
:10477000991F4A95D1F7672F782F892F9927C61A45
:10478000D70AE80AF90AA091DE03B091DF03A70176
:1047900096010E94B82D0E94042F9B01AC0160EC91
:1047A00071EE84E69CE40E94632E6B017C0120E0A4
:1047B00030E040E85FE30E945E2E87FDF0C020E01D
:1047C00030E048EC53E4C701B6010E94B62F18163A
:1047D00034F4C12CD12C98ECE92E93E4F92EA701E6
:1047E00096016091060470910704809108049091ED
:1047F00009040E945E2E882301F1C0920604D09223
:104800000704E0920804F09209046091DC037091BF
:10481000DD0390E080E00E94042F9B01AC0160EC7E
:1048200071EE84E69CE40E94632EA70196010E942B
:10483000632E0E94D52E0E94F9198091E403909175
:10484000E503A091E603B091E7030196A11DB11D18
:104850008093E4039093E503A093E603B093E7030A
:104860008091E8038F5F8093E803E091D603F09195
:10487000D703309781F12091EB038091EC03909165
:10488000ED032817190611F41092EB038091EB0346
:1048900081111CC06091EE037091EF038091F003D1
:1048A0009091F10309958091EE039091EF03A0910F
:1048B000F003B091F1030196A11DB11D8093EE03A9
:1048C0009093EF03A093F003B093F1038091EB0377
:1048D0008F5F8093EB03E091D403F091D503309781
:1048E000E1F06091E0037091E1038091E203909127
:1048F000E30309958091E0039091E103A091E20325
:10490000B091E3030196A11DB11D8093E003909344
:10491000E103A093E203B093E303FF91EF91BF9112
:10492000AF919F918F917F916F915F914F913F9147
:104930002F911F910F91FF90EF90DF90CF90BF903C
:10494000AF909F908F900F900FBE0F901F90189573
:104950000095109520953095600F711F821F931F51
:10496000E5CE6C157D058E059F0508F00CCFA701DF
:104970009601261B370B480B590BDA01C90124E0BD
:10498000880F991FAA1FBB1F2A95D1F7892F9A2F2D
:10499000AB2FBB27C80ED91EEA1EFB1EF4CEC12CBE
:1049A000D12C80E8E82E8FE3F82E19CF1F920F92BA
:1049B0000FB60F9211240F931F932F933F934F9392
:1049C0005F936F937F938F939F93AF93BF93CF9397
:1049D000DF93EF93FF93C0911504D09116042097B5
:1049E00009F45BC08C850E94F70C182F8E850E94FD
:1049F000F70C880F991F812B9A89891709F44DC0EC
:104A0000EA890B891C892D893E8994E0E902F0012D
:104A10001124482F082E000C550BE42BF52BE55FD5
:104A2000FE4F9081492F990F550B660B770B400F66
:104A3000511F621F731F4B8B5C8B6D8B7E8B8A8B20
:104A4000288939892230310531F123303105D1F1FE
:104A50002130310511F5833001F58B899C89AD89B1
:104A6000BE8932E0B595A795979587953A95D1F788
:104A70008F8B988FA98FBA8F8F8D98A1A9A1BAA17A
:104A80008BA39CA3ADA3BEA30E94AF0D6F8F78A391
:104A900089A39AA302C0882301F3FF91EF91DF91CC
:104AA000CF91BF91AF919F918F917F916F915F91C6
:104AB0004F913F912F911F910F910F900FBE0F902B
:104AC0001F901895882311F0833039F78B899C89C2
:104AD000AD89BE89B595A79597958795C9CF1F9242
:104AE0000F920FB60F9211242F933F934F935F9322
:104AF0006F937F938F939F93AF93BF93EF93FF93A6
:104B00000E94D624FF91EF91BF91AF919F918F9119
:104B10007F916F915F914F913F912F910F900FBEB9
:104B20000F901F901895CF93DF9310922A03109245
:104B3000290388EE93E0A0E0B0E080932B039093EC
:104B40002C03A0932D03B0932E0324E831E030937F
:104B50002803209327031092360310923503809385
:104B6000370390933803A0933903B0933A0386E94F
:104B700091E0909334038093330385EC90E090931D
:104B8000400380933F0384EC90E090934203809332
:104B9000410380EC90E0909344038093430381ECC5
:104BA00090E0909346038093450382EC90E09093CD
:104BB00048038093470386EC90E090934A038093E8
:104BC000490310924C0310924D0310924E03109221
:104BD0004F031092D1031092D00380E690E090939F
:104BE000DD038093DC03C8E1D0E0D093DF03C09302
:104BF000DE03109211041092100480E090E0A0EF08
:104C0000B2E48093060490930704A0930804B09341
:104C1000090410920A0410920B0410920C041092D2
:104C20000D041092FE031092FF03109200041092E4
:104C300001041092020410920304109204041092D2
:104C400005041092D3031092D20310920F04109215
:104C50000E040E94800C1092D5031092D40310927F
:104C6000D7031092D6031092D9031092D803109252
:104C7000DB031092DA032091DC033091DD036091B5
:104C8000DE037091DF03C9010E9449307093EA038B
:104C90006093E903C901BE010E9449307093ED039E
:104CA0006093EC0310929A041092990481E09CE0C6
:104CB000909328058093270510922A0510922905C4
:104CC00010922C0510922B051092B30488EA91E003
:104CD000909398048093970410929C0410929B04E4
:104CE0001092B0041092A7041092A8041092A90484
:104CF0001092AA048FEF8093B1048093B504E9EB7E
:104D0000F4E08FEC94E0DFEFD1938E179F07E1F78B
:104D100084E390E19093A00480939F0489E291E161
:104D20009093A2048093A10480E298E19093A4045C
:104D30008093A30481E699E19093A6048093A5044F
:104D400030E020E040E069E08BE994E00E9434101C
:104D50001092F6041092F5048BE09CE09093D0043E
:104D60008093CF0487E194E09093D4048093D3049C
:104D7000C1E0C093D5041092D6041092040510929D
:104D8000240510922005C0932505C093260580EBCD
:104D900091E09093D2048093D1048BE994E00E9437
:104DA000C4111092EE041092ED041092F2041092CD
:104DB000F1048FEF9FEF9093F0048093EF049093B2
:104DC000F4048093F304E091D104F091D2040280C2
:104DD000F381E02D8BE994E009958AE79CE09093BC
:104DE000F8048093F7041092070583E18093C404CC
:104DF00082E18093C504D093C60410922E051092D0
:104E00002D0510926B0581E190E090936D058093E4
:104E10006C0584E090E090936F0580936E0581E0CF
:104E200090E0909371058093700562E081E10E94AB
:104E30004E0D62E084E00E944E0D80916C050E9450
:104E4000F70CD82F80916E050E94F70C880F991FE0
:104E50008D2B809372051092730510927405109239
:104E600075051092760510927705109278051092CC
:104E7000790510927A0510927B0510927C051092AC
:104E80007D0510927E05C093880510928E051092C4
:104E90008D056EE087E895E00E94231B80E695E093
:104EA0009093160480931504C093940510929A056C
:104EB00010929905C093A0051092A6051092A50521
:104EC0001092B1051092B0052AEC3DEF3093B30576
:104ED0002093B20580E092E09093B5058093B405ED
:104EE0001092B6051092BD051092BC053093BF0517
:104EF0002093BE059093C1058093C0051092C20512
:104F0000DF91CF910895CF93DF93CDB7DEB7A09710
:104F10000FB6F894DEBF0FBECDBF789484B5826023
:104F200084BD84B5816084BD85B5826085BD85B54D
:104F3000816085BD80916E00816080936E001092CB
:104F40008100809181008260809381008091810046
:104F500081608093810080918000816080938000D7
:104F60008091B10084608093B1008091B000816035
:104F70008093B00080917A00846080937A00809161
:104F80007A00826080937A0080917A0081608093B9
:104F90007A0080917A00806880937A001092C10034
:104FA000E0914303F091440382E08083E0913F036A
:104FB000F09140031082E0914103F09142038FE3AE
:104FC000808310924B03E0914703F091480386E001
:104FD0008083E0914503F091460380818061808366
:104FE000E0914503F0914603808188608083E091E1
:104FF0004503F0914603808180688083E0914503FA
:10500000F091460380818F7D808380911004909180
:105010001104892B59F481E08093120484E090E01C
:105020000E947E309093110480931004F8941092A3
:10503000800010928100109285001092840081EC13
:1050400092EA909389008093880080918100886023
:1050500080938100809181008260809381008091A3
:105060006F00826080936F007894C0900604D090A7
:105070000704E0900804F090090480910E049091D8
:105080000F040197B1F120E030E040E85FE3C70191
:10509000B6010E945E2E87FD2CC020E030E048EC77
:1050A00053E4C701B6010E94B62F181614F1F89404
:1050B000C0920604D0920704E0920804F09209041A
:1050C00078946091DC037091DD0390E080E00E94B1
:1050D000042F9B01AC0160EC71EE84E69CE40E941D
:1050E000632EA70196010E94632E0E94D52E0E9476
:1050F000F91910920F0410920E04F89480E690E0D3
:105100009093DD038093DC036091DE037091DF03F5
:105110000E9449307093EA036093E90384E090E0D1
:105120009093ED038093EC03789480910E0490911A
:105130000F04019741F1F89480E090E0A0EFB2E411
:105140008093060490930704A0930804B093090485
:1051500078946091DC037091DD0390E080E00E9420
:10516000042F9B01AC0160EC71EE84E69CE40E948C
:10517000632E20E030E040EF52E40E94632E0E9454
:10518000D52E0E94F9198EEA9AE19093D903809363
:10519000D80389EA9AE19093DB038093DA0384EAE7
:1051A0009AE19093D7038093D6030E94800C0E94CB
:1051B000AF0D60930A0470930B0480930C049093DA
:1051C0000D04E091D803F091D903309709F00995C7
:1051D00080910E0490910F04892B09F0DAC182E0CE
:1051E00090E09093D3038093D2036CE083E995E041
:1051F0000E94231B65E08FE995E00E94231B60E07D
:1052000085E10E944E0D85E18093AB0560E084E16D
:105210000E944E0D84E18093B705809168008660FE
:105220008093680080916D00806180936D00809113
:105230006C00886080936C0061E087E00E944E0DF6
:1052400087E08093340515E01093330561E088E032
:105250000E944E0D88E080933B0510933A0561E073
:105260008AE00E944E0D8AE080934205109341052A
:1052700061E086E00E944E0D86E080934905109320
:10528000480561E089E00E944E0D89E08093500559
:1052900010934F0561E08BE00E944E0D8BE08093F0
:1052A00057051093560561E083E00E944E0D83E0A0
:1052B00080935E0510935D05E0919F04F091A0043A
:1052C00030E020E040E06AE08BE994E009958BE96A
:1052D00094E00E94491E8BE994E00E941F1E8111F8
:1052E000FACF60E08BE994E00E94B117E0919F044F
:1052F000F091A00430E020E040E06BE08BE994E026
:10530000099590E080E00E94782D8B3A09F068C002
:105310001A821982BE016F5F7F4F81E090E00E9488
:10532000BE1D89819A819093B3058093B205BE0119
:105330006F5F7F4F83E090E00E94BE1D89819A815C
:105340009093B5058093B405BE016F5F7F4F85E0F4
:1053500090E00E94BE1D89819A819093B10580934F
:10536000B005BE016F5F7F4F87E090E00E94BE1DD9
:1053700089819A819093BF058093BE05BE016F5FBE
:105380007F4F89E090E00E94BE1D89819A819093B1
:10539000C1058093C005BE016F5F7F4F8BE090E039
:1053A0000E94BE1D89819A819093BD058093BC05A2
:1053B00068E173E08DE090E00E94BE1D62E071E064
:1053C0008FE090E00E94BE1D66E173E081E190E015
:1053D0000E94BE1D60E071E083E190E00E94BE1D6E
:1053E00080917A00887F80937A0080917A0084602F
:1053F00080937A008FE19DE19093A8058093A705A3
:105400008BED9CE190939C0580939B0587E29CE14A
:105410009093650580936405D12CC12CCE01019633
:105420007C0183E995E00E94B31A8FE995E00E9420
:10543000B31A409177055091780560917905709184
:105440007A05E0916805F091690510E000E0E41745
:10545000F50709F441C080917F0590918005A091E6
:105460008105B091820500918305109184052091FA
:10547000850530918605801B910BA20BB30B9A0119
:105480002E1B3F0B309367052093660550936905EB
:105490004093680580319105A105B10508F07CC0F5
:1054A000C901880F991F280F391F30936705209372
:1054B000660580916B05882359F08091660590916F
:1054C000670591958195910990936705809366058D
:1054D0000091660510916705809187050E94F70C81
:1054E0005C0187E895E00E94B31AAB2809F05CC024
:1054F000012B09F460C081E080936A05E0916205A8
:10550000F0916305309729F08091660590916705C9
:10551000099580918D0590918E05029729F48091CF
:105520006A05811110926A058BEA95E00E94371B8B
:1055300087EB95E00E94371B0FE215E096E0C91655
:10554000D1040CF04CC0F80186818823E1F00E9460
:10555000AF0DF80180809180A280B380AB01BC01C7
:10556000481959096A097B09848190E0B0E0A0E0FC
:10557000481759076A077B0730F060E085810E9471
:10558000200DF8011682FFEFCF1ADF0A095F1F4FC7
:10559000D5CF81E090E025CE8097A105B10508F038
:1055A00088CF220F331F81CF012B29F0E0916405B2
:1055B000F0916505A7CF80918D0590918E0502979A
:1055C00009F0B2CF80916A058111A9CFE091600501
:1055D000F0916105309709F4A2CF09959ACF809197
:1055E0009F050E94F70C892B09F406C280E0809386
:1055F0001D0380911B0390911C03892B09F080C02F
:105600002091AC053091AD0580910201909103018C
:105610004091180350911903BC0197FF02C06F5FBE
:105620007F4F75956795FA01E61BF70B2E173F071D
:1056300054F097FD019695958795840F951F11E07D
:10564000821793070CF410E02091B8053091B9054A
:105650008091000190910101409116035091170330
:10566000BC0197FF02C06F5F7F4F75956795FA0188
:10567000E61BF70B2E173F0754F097FD0196959503
:105680008795840F951F821793070CF028C2A12CD1
:1056900000E0B12C112309F429C200E08091150328
:1056A000B82EA12C81110AC08091140391E08927A2
:1056B00080931403A12CBB24B39481E08093150341
:1056C000612F8FE295E00E94581D602F86E395E0E0
:1056D0000E94581D6A2D8DE395E00E94581D6B2D88
:1056E00084E495E00E94581D612F60278BE495E0CB
:1056F0000E94581D6091140382E595E00E94581D98
:10570000809113038823B9F00E94AF0D00910F031D
:10571000109110032091110330911203601B710B43
:10572000820B930B693873418105910520F00E942B
:105730007F1E1092130380911B0390911C0301970D
:1057400001F50E94AF0D00910B0310910C03209105
:105750000D0330910E03601B710B820B930B6E31A6
:1057600071058105910568F081E0809304010E9434
:10577000AF0D60930B0370930C0380930D03909314
:105780000E0380910401882309F429C110920401B9
:105790008BE994E00E94491E52EE252E51E0352EF1
:1057A00060E2562E7FEC672E71E0772EE4EFAE2E8E
:1057B000E1E0BE2EF7E08F2EF2E09F2E80911B03DA
:1057C00090911C03892B09F070C180910201909186
:1057D00003019C01220F331F280F391F2038310588
:1057E0000CF42EC186E0359527958A95E1F76091F6
:1057F000180370911903CB01880F991F880F991F07
:10580000681B790B77FF02C0615C7F4F16E07595CE
:1058100067951A95E1F7665E7F4FC90137FD0196DE
:1058200095958795681B790B4CE250E084E190E0F8
:105830000E94BF1380910001909101019C01220FF1
:10584000331F280F391F203831050CF4FCC0F6E057
:1058500035952795FA95E1F7609116037091170336
:10586000CB01880F991F880F991F681B790B77FF51
:1058700002C0615C7F4F56E0759567955A95E1F7D8
:10588000665E7F4FC90137FD019695958795681B28
:10589000790B4CE250E08AE490E00E94BF1381E073
:1058A0000E947D0C84E998E00E94E31410922A057E
:1058B0001092290587E090E090932C0580932B05AA
:1058C00084EC91E00E946D1DE6E0F0E0F0932A0583
:1058D000E09329058DE190E090932C0580932B05B2
:1058E00088EC91E00E946D1D10922A051092290506
:1058F000E3E3F0E0F0932C05E0932B058BEC91E0D3
:105900000E946D1D82E00E947D0C04E110E062E0C7
:1059100070E0C8010E94F2136AE170E0C8010E94C1
:10592000F21362E370E0C8010E94F2130C5F1F4F94
:105930000038110561F710E000E0B80185E490E05F
:105940000E94F2130C5F1F4F04331105B1F781E081
:105950000E947D0C80E00E947D0C2CE030E040E84D
:1059600050E064E370E090E080E00E94BF1381E0CB
:105970000E947D0C00E020E830E044E350E070E05D
:1059800060E08BE994E00E94141384EC90E00E94A4
:10599000E31482E090E090932A05809329058EE33A
:1059A00090E090932C0580932B05809109039091B2
:1059B0000A038130910509F45DC008F447C08230C4
:1059C000910509F460C0039709F466C0C7010E94FD
:1059D0006D1D8BE994E00E941F1E8111EFCE80E0C7
:1059E00090E0892B09F41DCD0E94130F882309F440
:1059F00018CD0E94000015CD00911B0310911C03CF
:105A0000809193050E94F70C892B09F0EFCD8091CE
:105A10001D038111ECCD012B61F481E090E09093A6
:105A20001C0380931B0310921A0381E080930401EE
:105A3000DECD0E947F1E10921C0310921B03F5CF37
:105A400021E030E0D4CE21E030E006CF8091190390
:105A50008F93809118038F937F926F921F925F9222
:105A6000FF92EF920E94AA310FB6F894DEBF0FBEEC
:105A7000CDBFACCF809103018F93809102018F93B2
:105A80003F922F92EBCF809117038F938091160353
:105A90008F93BF92AF92E2CF809101018F9380915B
:105AA00000018F939F928F92D9CF1092040581E0CD
:105AB0000E947D0C80EE9EE00E94E31450E040E0E6
:105AC00069E172E08BEA95E00E94FA1E41E050E045
:105AD0006FE172E087EB95E00E94FA1E7ACF01E059
