:100000000C94D70B0C94FF0B0C94FF0B0C94FF0B70
:100010000C94A7260C940E260C94FF0B0C94FF0B4B
:100020000C94FF0B0C94FF0B0C94FF0B0C942724E7
:100030000C94FF0B0C94FF0B0C94FF0B0C94FF0B18
:100040000C9439220C94FF0B0C94C8230C94A2231B
:100050000C94FF0B0C94FF0B0C94FF0B0C94FF0BF8
:100060000C9483220C94FF0B560000000000240027
:1000700027002A0000000000250028002B000000B7
:1000800000002300260029000404040404040404DE
:100090000202020202020303030303030102040833
:1000A00010204080010204081020010204081020E2
:1000B0000000000800020100000304070000000027
:1000C00000000000BF0002020304030504060A004A
:1000D000FE07FE07000142029207B32005006207F7
:1000E0002107394367A80022079B52275901230D96
:1000F0003D42AF4C69A86AA8322500240B3D423727
:10010000AF7AA7B42300250B3D422FAAEEAA2513F0
:1001100000260C3D422FA7987295645401270519BB
:1001200053672808BB42379575012908BB422797BA
:1001300055092A0A2D4627A76AA876002B0A2D46BC
:1001400037A3386446112C079B3E4F95002D060DB2
:100150004E67082E079B3E2FAD042F0B3D421F65B7
:1001600094BB514600300A3D4237A7DA4E75043140
:100170000C3D4237CB94514619C521320C3D426F9C
:10018000E58CA2CC190D01330C3D42676894B3860F
:100190003A2D00340C3D423FCB54A6A1334A0035E2
:1001A0000B3D42E746C9CC48A705360B3D4257E612
:1001B0008C92A9D302370C3D4267689433CA35CA82
:1001C00000380B3D426F659D56D66901390C3D42A2
:1001D0006F65A95446394A003A0ABB3E2FAD0CD38D
:1001E0004A003B09BB3E2FAD0C55093C0ABC423FBF
:1001F000B6514619053D081D4A676838043E0BBCD8
:100200004227A38C328A6D003F0A3D426FE536CA11
:100210007404400B3D426F65B99295E102410B3D7C
:100220004237A75A8F917500420C3D4267C42AA6F7
:1002300059C5A100430C3D426F658D32CA28A70500
:10024000440D3D4267C42AA698628A4301450C3D8D
:1002500042E746198D94514643460D3D42E7461903
:100260008D9451461901470C3D426F658D328A3B92
:100270002D0048093D4227DB63643B4908BB4267C8
:10028000C5AE014A0C3D4277679451466594004BD8
:100290000B3D4227CB54EA14AB1C4C0E3D4227A326
:1002A0008C32CA28A38C86004D0A3D4227EBB592BA
:1002B000B6034E0A3D4227EBA992DC3A4F093D4274
:1002C0006F65EFB400500D3D4267A4AC87CA28A308
:1002D0008C00510A453E6F65AF6AC300520B3D4228
:1002E00067A4AC872AAB1C530B3D426F650D37D416
:1002F0006901540E3D4267C88C32CA28A38C220083
:1003000055083D4227FB4E0B560B3D4227DBA94CBF
:1003100031E508570A3D4227BB924A7700580A3D0B
:100320004227EB5457B50E590C3D4227EB546794C6
:100330005146115A0A3D42676894BBD1105B08BB15
:100340004267C4CE015C0D3D4227A30C33CC30C3C1
:100350008C025D08BB4267768E005E071D5237A790
:100360003A5F060D3E67086006125B2706610A2D9C
:10037000426FC334741A01620C3D4227A38C92A9C8
:10038000A75200630A2D426F658D725A00640B3DBF
:10039000421F6594CC2D950A650A2D426FE53132D6
:1003A0005C00660C3D42575679C48C32CA00670C1B
:1003B0003D3A6F689D46463A2D00680B3D4227A3A3
:1003C0008C92A9ED006908BB422F23D91A6A0BCC85
:1003D0003A3F635D4B9914006B0C3D4227A38CB2EE
:1003E0004CB3CA016C07BB4247F61A6D0A2D42474F
:1003F000B5545249076E082D422799DA0E6F092D20
:10040000426F653B2D00700C3D3A27997A2A955131
:100410004600710B3D3ACFDC52A98C320A720B2D8B
:100420004227991A65941100730A2D426F65B8E14D
:100430005000740D3D422FA33C624619C5A80075BB
:10044000082D42273B950A760A2D4227EB54A61C1D
:100450000177092D42275B49750178092D4227A7AD
:10046000BAAA03790B3D3A279B4A65A4D3027A08BE
:100470002D4267E8F6107B0BBC42576594348A190D
:10048000097C063943E7087D0CBC4247A39891CA12
:100490002849007E091D522FAA241300A0050062DE
:1004A00007A1073943270D01A20C3D3E370F155315
:1004B0004C79C408A30B3D4257567967149502A4A2
:1004C0000A2D4227A799E2CA01A50D453E27EB5404
:1004D000C72133CA2802A6063943670DA70B453E3C
:1004E0006F65343B374A0BA8068B5E2705A90C3D88
:1004F000426F6595A64A3A2D00AA0AB4466F44A5F4
:100500006A3402AB0B2E42B78A29E6986300AC0727
:10051000944A67E400AD068C4E6704AE0B3D426F13
:10052000E591E6D46901AF060D5E6708B0069B52FF
:10053000AF0BB10B354237A33864467108B208AC33
:100540004E4FC5E608B30AAC4E67A3A4D14800B429
:1005500006125B4F01B50A353E27DB53A98C00B666
:100560000E3D426F8C34525231C5145300B7050909
:100570004F27B806123B4F01B907AB4E2FC96ABAD5
:100580000AB4464F4599341C01BB0C2E4227E6980D
:10059000638A294600BC104E3E2F230D33CC68667B
:1005A000A4531C1906BD104E3E2F230D33CC686595
:1005B00054C38C321ABE0E4D3E47C39C619459A65B
:1005C00034320ABF0A3D4237D319E5D602C00C4582
:1005D000422FC3BCB21E23EB00C10B4542BF5E5984
:1005E0008F917500C20C454237A7B8B21E23EB00AD
:1005F000C30C45422F2AB9B21E23EB00C40B45425F
:10060000AFA656D663641DC50C454237A7B8B21EC7
:1006100023EB00C60B3E4277A4B239466C0EC70DE1
:100620004D3A6F658D32CA28A75D03C80E45422F2B
:100630008F8D321A29A38C8600C90E45423F8D8DBD
:10064000321A29A38C8600CA0E4542378E8D321A83
:1006500029A38C8600CB0E4542AF1A1B6534524647
:10066000190D01CC09C34227A7155B03CD09C3426D
:1006700037A5155B03CE09C342AF1A29B606CF09C9
:10068000C34227E5155B03D00D3D4267C42A8E5453
:10069000A6381400D10B454237754F95E4D601D2E8
:1006A0000B45422FC3BCB23B2D00D30A4542BF5E6F
:1006B000D99D1600D40B454237A7B8B23B2D00D5C3
:1006C0000A454237355776A705D60A4542AFA656A2
:1006D00076A705D7092D4227A7BAAA03D80B3D4212
:1006E0006FC52BCD991600D90A45422FC3DA3B2D91
:1006F00000DA094542BFCCDE6901DB0B454237A772
:100700008CB33B2D00DC0A4542AFC6D93B2D00DD42
:100710000C4542BFCC3AD519651401DE0E3D422787
:10072000A391F2501965941100DF0B3D426F65995A
:10073000CA2A2B05E00C45422FC34C6E98864E23E7
:10074000E10B4542BF26374C43A711E20C45423727
:10075000A74C6D98864E23E30C454237B5A90DD3BF
:10076000D06904E40B3D42AFA6364C43A711E50C1B
:10077000454237A79C374C43A711E60B2E426F64C6
:10078000548D998700E70B3D3A6F658D72DA35001D
:10079000E80C45422FC34CAE3C46860BE90B454264
:1007A000BF26571E23C305EA0C454237A74CAD3C74
:1007B00046860BEB0B3D42AFA6561E23C305EC0944
:1007C000C3422767245B03ED08C342AF86B235EE10
:1007D00008C342AF2D5B03EF08BB422765D91AF06F
:1007E0000B3D424743B9B29D1600F10A454237B569
:1007F0007132B51DF20B45422FC34CAE6CA705F309
:100800000A4542BF2657B6D302F40B454237A74CE0
:10081000AD6CA705F50B454237B5A995EDB400F6CB
:100820000A3D42AFA656B6D302F7092D46375343C9
:100830005311F80A2D426FC895E65000F90B454256
:100840002FC34C65A75201FA0A4542BFA6B253A96D
:1008500000FB0B454237A78CB353A900FC0A3D426D
:10086000AFC6D9A95400FD0C4D3ABFCCA65219E928
:10087000B400FE0D453A27A391B23D54461901FF3D
:100880000D4D3AAFC6D9542A239D1600000000042E
:10089000FFFF0000BF00020203030304040507007A
:1008A000FF06FF0600010A0216062F200500BD0103
:1008B0002106B1B1192922075BB7495600230A2D39
:1008C000B1AB86AA86AA0024092DB15BF54E690159
:1008D000250834B1C9B1770026092CB18B295631CE
:1008E00005270599B719280772B153CD0029087259
:1008F000B189A952002A076BB149D56A2B0A2DB1DB
:10090000CD280E9951042C075BAF5325002D060C02
:10091000B519012E0652B119012F0724B38F6D00AE
:10092000300873B1AB5C1500310773B14BB235328F
:100930000934B15331C77204330A34B11939692407
:100940009302340A34B18DAA1A312700350A34B122
:10095000197A23991400360A34B153794599140051
:10096000370A34B11939E6982300380A34B15331C3
:10097000A9289302390A34B15351A69D14003A07AD
:100980006AB11971043B0833AFB3912A013C076B7C
:10099000B14D75013D081CB319198D003E076BB1AF
:1009A000C955093F0973B16BA60C1300400934B156
:1009B0005351DD4801410934B153518E2903420A94
:1009C00034B15971A4284702430934B153519749AE
:1009D00001440934B159D1391200450934B1197AA9
:1009E000E53C02460834B1197AE51A470934B15397
:1009F00051A79906480834B189724C33490773B13D
:100A000059B1354A0834B16FCBA4004B0A34B189CF
:100A10002A4999CA004C0734B1C9DD234D0934B1C4
:100A200089E38866004E0834B1896BA9334F0934D5
:100A3000B153D1991400500A34B159518E943300F6
:100A4000510A3CAF53D15C49A300520934B159510A
:100A50008ED40C530A34B1533165542605540773B0
:100A6000B159B10B550834B1899E4901560934B1C9
:100A700089CE241500570934B189E6386200580A36
:100A800034B1893249156500590873B14956590185
:100A90005A0934B11939B647005B0773B119B13936
:100AA0005C0924B3C928A38C025D0773B199CD11E9
:100AB0005E0553B96B5F060CB11901600652B98926
:100AC00001610824B11B51A902620A34B1C97945F8
:100AD000391200630623B19B59640834B1AF4694C0
:100AE00069650824B153696405660934B1ADCA99D2
:100AF000230067092CAF1B31A98C06680834B1C9E3
:100B0000794533690873B1CB4856036A097BAFCD89
:100B1000B05415006B0934B1C95592A90C6C077318
:100B2000B1915D036D0824B1496948196E0724B17C
:100B300059D10C6F0824B15351260570092CAF59B7
:100B4000518E940171082CAF1B51A61D720824B15F
:100B500059516700730824B11B1A0D05740934B18B
:100B6000CB71E68C04750724B189661A760763B1E8
:100B7000495605770724B189721C780824B1894940
:100B8000AA1879092CAF89329525007A0824B11961
:100B9000B11C017B0873B14D49D6017C05B1B13957
:100BA0007D0973B1C951C514017E0714B94B2A01DF
:100BB000A00500BD01A106B1B14923A20934AF8D42
:100BC00023356702A3082CB155715602A40A2DB132
:100BD000C969A6B87200A50973B149AA5A3101A61C
:100BE00006A9B15102A7087BAF9BAA920BA8064B9E
:100BF000BB4901A90B3DAF5B59A5A9924E0BAA06B3
:100C00001BB75B49AB071DB38BB201AC0614B3191C
:100C100039AD054BB519AE0B3DAF5B79A439755AAB
:100C200000AF060CBB1901B0065BB7EB02B10B3588
:100C3000B1CD280E99511C02B20662B55106B30619
:100C400062B51969B40652B95300B5082CAF89E6EC
:100C50004819B60834B11B6AF503B70652B5190135
:100C6000B80652AF5300B90763B54B320DBA061B35
:100C7000B7EB02BB081DB389A54C00BC093CAFC94A
:100C8000CDA87600BD093CAFC92D1DB300BE0A3CFE
:100C9000AF913AAAA87600BF0973B1CB30C5540111
:100CA000C00934B153518E2903C10934B153518E57
:100CB0002903C20934B153518E2903C30934B153F6
:100CC000518E2903C40A34B18949C5316500C5096B
:100CD00034B1932A8E2903C60934B11BA91AAA2557
:100CE000C70A3CAF535197494600C80934B1197A35
:100CF000E53C02C90934B1197AE53C02CA0934B1AC
:100D0000197AE53C02CB0934B1197AE53C02CC07EB
:100D100073B159B135CD0773B159B135CE0773B140
:100D200059B135CF0773B159B135D00934B199698B
:100D3000758D04D10834B14973A933D20934B15344
:100D4000D1991400D30934B153D1991400D4093482
:100D5000B153D1991400D50934B153D1991400D6A7
:100D60000A34B1894945332900D70824B18949AAF1
:100D700018D80934B11BE9484702D90834B1899E13
:100D80004901DA0834B1899E4901DB0834B1899EF2
:100D90004901DC0A34B1891945332900DD0873B1F2
:100DA00049565901DE0A34B1C92B8E943300DF094C
:100DB00034B15351955602E00A34B1CB288EA85471
:100DC00001E10934B1AD4754AA00E20934B1ADD212
:100DD000884A15E30A34B14B2A8EA85401E4093439
:100DE000B1ABE1884A15E50934B1937244A50AE62E
:100DF0000824B11B69C501E7086BAF9B592500E8C2
:100E00000A34B1CB28AA34B202E90934B1AD551A7B
:100E10005901EA0A34B18B29AA34B202EB0A34B17F
:100E20004919AB34B202EC0873B1C9495603ED0756
:100E300073B12B6535EE0773B1AB6635EF0873B14F
:100E400049595603F00A34B1CBC88A322900F10956
:100E500034B14B2AAD6806F20A34B1CB28AA2893E4
:100E600002F30934B1AD55944901F40A34B1D358B1
:100E700045991400F50A34B14B2AAA289302F60AC0
:100E800034B1ABA18A322900F7092CB1D37064A820
:100E900000F80924B11B69A49100F90934B1CBA869
:100EA00034D300FA0734B16D9A69FB0834B1D330FA
:100EB0009A69FC0934B1AB5134D300FD093CAF6DE4
:100EC000CA549600FE0A34AFC92BCA913200FF0AF9
:100ED0003CAFAB5194A92C0100000004FFFF0000BF
:100EE000E00002020304030404060B00FE07FE08F0
:100EF000FF013D028908AE200500A203210739A3A6
:100F000033540022079BB693AC00230A2DAA570D39
:100F1000550D5501240C4D9E9B57A5F24EAADA1192
:100F2000250C3DA237543253542AC904260B3DA246
:100F300027ABBA4A32AA00270519B7332808CB9E37
:100F40009BCAEE022908CB9E93CBAE122A092DAA8A
:100F50005B55AB19012B0A2DA69B511C32A3082C03
:100F600007A29A3392022D058BAE332E0612A333BD
:100F7000022F10559A8F32CA19E58C724639A38C0C
:100F800000300B3DA2B7B25C69EAB400310C3DA25F
:100F90001B37CA28A38CE210320A3DA2B77246B9A9
:100FA0003D04330C3DA2B7724651439D1600340AEE
:100FB0003DA29F652AD3D079350C3DA273A39161E0
:100FC000463A2D00360B3DA2B7321A29DB690137AC
:100FD0000C3DA23334CA28D728A308380B3DA2B74A
:100FE000B24E2BEBB400390B3DA2B7B29D46466919
:100FF000013A072AA333E2083B08BA9A33E2480AC7
:101000003C0ABCA21FDB28A38C023D081DAA333476
:101010001C023E0BBCA293514619C536003F0B3D46
:10102000A2B77246B9A62300400C3DA2B7B21A2956
:10103000A991E108410B3DA29B534CF51859074279
:101040000C3DA23352D643653D1400430C3DA2B77C
:10105000B246196594D30244093DA23352F61E0AE2
:10106000450C3DA273A38C46CA28A321460D3DA280
:1010700073A38C46CA28A38C00470B3DA2B7B24687
:1010800071EBB40048093DA293ED31B21D490D3D0D
:10109000A2336446196594511C024A0C3DA28F325A
:1010A000CA2823ADD3024B0B3DA293652A758A55FE
:1010B0000E4C0D3DA29351461965945146434D0A7D
:1010C0003DA293D74A2A693B4E0A3DA293A74A7292
:1010D000DB014F093DA2B7B2775A00500D3DA23354
:1010E00052D6436594514600510A459EB7B257B552
:1010F0006100520A3DA23352D643653B530B3DA2D9
:10110000B7B2861BEAB400540D3DA233644619659C
:101110009451461155083DA2937DA705560B3DA25B
:1011200093ED54A69C510457093DA2935D49A53BFC
:10113000580A3DA29375AAAB5A07590B3DA293EDED
:1011400054679451045A0A3DA23334CADD68085BDF
:10115000074A9FB3FA125C11D59A93518619659884
:10116000518619659851005D07CA9EA3FA1A5E0759
:101170001DB29B531D5F050E9A73600692BA13034E
:1011800061092DA237B4A95400620C3DA2935146C7
:1011900023657B2800630A2DA2B7B246198E00642E
:1011A0000B3DA28F324A43DB6904650A2DA2B7F2D8
:1011B00018198E006609BCA2ABE2CC4D00670B3D4E
:1011C0009A37B49D46466901680B3DA29351462368
:1011D0006577006908BBA297916C0D6A094B9A9BD1
:1011E00091EC5C006B0C3DA29351463195B3CA0162
:1011F0006C07BBA2237B0D6D0B2DA23352A5924A27
:10120000AA006E082DA2934C6D076F092DA2B7B2EC
:101210009D1600700C3D9A3352B687CA2823007180
:101220000B3D9A37B49D46461905720A2DA2934C80
:101230008D32CA08730A2DA23734DC702800740975
:10124000BCA297E3CC351275082DA2939D4A057672
:101250000A2DA293752A538E00770B2DA293924AE2
:101260002AA92E0078092DA293535DD501790B3D53
:101270009A93DD69649416007A082DA233747B0872
:101280007B0ADB9A9B622BC776007C06499FF300A2
:101290007D0ADB9A93633BC556047E0615AEE702D2
:1012A0007F0500A203800500A203810500A203823E
:1012B000071A9E97140083105D9A2F33CA28EF8C6B
:1012C00032CA28A3A80184071C9ED7520985060D9F
:1012D000A2930A8608ABAA9756AC008708ABAA97D8
:1012E000565A09880693BAD700890E46A237564B3C
:1012F0006BA492EA9912008A0C4DA257E79535DC4F
:1013000050A7058B0722A2A762008C0C3DA2375480
:101310004C31A932E5118D0500A2038E0500A20310
:101320008F0500A203900500A20391071AB3A7122C
:101330000092071AB397140093079CB297540B942A
:10134000079CB2D7520995082DA6777C2D009605EB
:101350008BAE3397050EAE73980615BAE70299095E
:101360001EB23352B5D2009A0C45A257677268B8C4
:10137000E150009B0722A21393029C092DA2D7A53E
:1013800046CA499D0500A2039E0500A2039F0D4D7C
:10139000A257E36CA73AA38C2200A00500A203A1E8
:1013A00007B9A3938600A20C3D9E9B57A562CA2352
:1013B0004600A30D45A227AB8C664619E5A100A403
:1013C0000A2DA293D34C71E500A50C3DA293533591
:1013D000641C32A308A607499F33D208A70D559E67
:1013E000B7728A2AF69229A705A8068BBA9302A992
:1013F0000C3DA2B361543AA99C2600AA0AB4AE37A8
:10140000A24C1B8D00AB0825A217658A0DAC081DE8
:10141000A63334CA28AD060DAE3304AE0B35A6B3E1
:1014200061922A4DA500AF058BBA33B008A4B2A7CC
:10143000A24C0AB10B35A29B511C32A33804B2074F
:10144000A3B6A3531AB308ABB2A3935C00B40713BB
:10145000BB371200B50D3D9A13534C31C5B434CA95
:1014600008B60E45A2375452495523A698620AB7CA
:101470000612AB3302B8079B9AB34602B907A3B66C
:1014800023AB01BA0AB4AEA7A24C1A8E00BB092541
:10149000A2135B512600BC114EA2A3618679A48CD5
:1014A000322A934A1B2600BD0F4EA2A3618679A45F
:1014B0008C329A596734BE104EA2A37146B24A2AA2
:1014C000A332A9B46102BF0A3DA29BE936CA6901F1
:1014D000C00E4DA297614639C5548F917500C10C5D
:1014E0004DA25FA39C62AAC7C83AC20C4DA29B53EF
:1014F0002673AAC7C83AC30B4DA2E7AE62AAC7C8F3
:101500003AC40D4DA2579339C5548F917500C50C3F
:101510004DA29B53AE6A3D46D601C60C3DA2375440
:101520004C71A432C534C70D4D9AB7B246196594B3
:10153000D3AE01C80F4DA297611C1B6534524619EA
:101540000D01C90E4DA25F8E8D321A29A38C860023
:10155000CA0F4DA29B531A1B65345246190D01CB7D
:101560000E4DA257E3B15146236594D110CC0F4DD7
:10157000A297611C32A38C32CA280E01CD0E4DA257
:101580005F0E9951461965148700CE0E4DA29B53EC
:10159000C643669451467108CF0E4DA257E32133DE
:1015A000CA28A38CE210D00C3DA237AB3852996206
:1015B0005A00D10B4DA2E7CA5325B9ED00D20B4D0D
:1015C000A297615ED93B2D00D30A4DA25FAFEC9D7F
:1015D0001600D40B4DA29B53A65676A705D50A4DEF
:1015E000A2E75CD93B2D00D60A4DA257532B7BA70F
:1015F00005D7092DA693535DD501D80B3DA2B7B2EF
:101600005C69EAB400D90A4DA29761ED3B2D00DA7E
:10161000094DA25F66DF6901DB0B4DA29B53C6D962
:101620003B2D00DC0A4DA257E3EC3B2D00DD0C4DB9
:10163000A25F663BD519651401DE0D3DA293D1482A
:10164000590F95514600DF0D4D9E2BA39629A66C90
:10165000A98C00E00B45A29B61A68636950AE10A9B
:1016600045A25F93439B4A05E20B45A29B53A68686
:1016700036950AE30A45A2E7A68636950AE40A3DAE
:10168000A25753439B4A05E50B45A29B53CE439B70
:101690004A05E60A2DA2B72A35521E01E70C3D9AEB
:1016A000B7B246198E983300E80C45A297612657C9
:1016B0001E23C311E90B45A25F932B8F91E108EA2A
:1016C0000C45A29B53A6561E23C311EB0B3DA257FC
:1016D000532B8F91E108EC09C3A2933392AD01ED36
:1016E00009C3A29B3292AD01EE08C3A2D796AD0109
:1016F000EF08BBA293B26C0DF00B45A2A7358C434B
:10170000DB6901F10A45A2E7C6C9D47600F20B45B0
:10171000A297612657B6D302F30A45A25F932BDB4B
:101720006901F40B45A29B53A656B6D302F50A45B0
:10173000A2E7A656B6D302F60A3DA257532BDB69A1
:1017400001F7092DA69BA9A1A908F80A2DA2B7E2C5
:101750004A332D00F90B45A29761A6B253A900FAAE
:101760000A45A25F53D9A95400FB0B45A29B53C65F
:10177000D9A95400FC093DA257E3EC542AFD0C55AD
:101780009A5F53D99D46466901FE0E4D9A93514684
:1017900023657BA88C3202FF0C4D9A57E3EC4E2355
:1017A000A3B40000000004FFFF000000CB261124BA
:1017B0001FBECFEFD8E0DEBFCDBF12E0A0E0B1E0AA
:1017C000E2EEFEE602C005900D92AA36B107D9F707
:1017D00026E0AAE6B2E001C01D92A331B207E1F70C
:1017E0001BE0C7EDDBE004C02197FE010E945833E7
:1017F000C63DD107C9F70E94BB280C946F370C94E3
:101800000000662329F06A3019F0862F90E00895D1
:101810008FEF9FEF0895AF92BF92CF92DF92EF923A
:10182000FF920F93CF93DF93EC01DA017901942FAC
:101830009770E1E0F0E09F01092E01C0220F0A94A9
:10184000EAF7522F6E018AE8C80ED11CF60180819A
:1018500040E0823018F4422F813049F15D01F8EF09
:10186000AF22E8ADF9AD28813981D90150968C912C
:101870008A9D90018B9D300D1124620F731FDF0133
:10188000A60FB71F01111AC0EA0EFB1E8C91842B04
:1018900085278D93AE15BF05C9F7DF91CF910F91C5
:1018A000FF90EF90DF90CF90BF90AF90089550E001
:1018B000D5CF440F550FE114F10479F33C91342B4B
:1018C00035273C939F5F9770E1E0EE1AF108911184
:1018D000F0CF2CAD3DADA20FB31FF6018081823059
:1018E00028F4813009F051E041E0E5CF51E0E3CF49
:1018F00080E0089590E080E0089580936F0508955A
:1019000010922A0410922B0410922C0410922D0491
:1019100010922E0410922F04109230041092310471
:101920001092320410923504109238041092390447
:1019300010923A0410923B04109240041092410419
:10194000109242041092430410923C0410923D0401
:1019500010923E0410923F0410925E0410925D04B7
:1019600020915A0430915B0480E090915C048917C7
:1019700060F494E0899FF0011124E20FF31F1082BC
:101980001182128213828F5FF0CF08959B01DC01D8
:101990001896ED91FC9141E067E10994833081F064
:1019A00028F4813099F08230A9F008958730A9F0A9
:1019B0008830C9F08430B1F4809180008F7D03C0FD
:1019C000809180008F7780938000089584B58F7711
:1019D00084BD089584B58F7DFBCF8091B0008F7753
:1019E0008093B00008958091B0008F7DF9CFCF93A0
:1019F000DF93282F30E0F901E055FF4F8491F90182
:101A0000E456FF4FD491F901E857FF4FC491CC231E
:101A1000A1F081110E94CE0CEC2FF0E0EE0FFF1F21
:101A2000E258FF4FA591B491EC91ED2381E090E055
:101A300009F480E0DF91CF91089580E090E0FACF43
:101A40001F93CF93DF93282F30E0F901E055FF4F2C
:101A50008491F901E456FF4FD491F901E857FF4F03
:101A6000C491CC23A9F0162F81110E94CE0CEC2F2B
:101A7000F0E0EE0FFF1FEC58FF4FA591B4918FB728
:101A8000F894EC91111108C0D095DE23DC938FBF40
:101A9000DF91CF911F910895DE2BF8CFCF93DF9385
:101AA00090E0FC01E456FF4F249188579F4FFC01C2
:101AB00084918823C9F090E0880F991FFC01E659B2
:101AC000FF4FA591B491FC01EC58FF4FC591D49103
:101AD00061110DC09FB7F8948C91209582238C934F
:101AE0008881282328839FBFDF91CF91089562309A
:101AF00051F49FB7F8943C91822F809583238C9367
:101B0000E8812E2BEFCF8FB7F894EC912E2B2C93EE
:101B10008FBFEACF3FB7F89480916D0390916E0329
:101B2000A0916F03B091700326B5A89B05C02F3F0D
:101B300019F00196A11DB11D3FBFBA2FA92F982FF3
:101B40008827BC01CD01620F711D811D911D42E0EE
:101B5000660F771F881F991F4A95D1F708952FB7F1
:101B6000F8946091690370916A0380916B0390917E
:101B70006C032FBF0895CF939C01809166039091D1
:101B800067038130910509F068C0809151039091FD
:101B9000520340915003411118C01216130694F4D9
:101BA00021E030E0820F931F039663E070E00E9413
:101BB0002933909352038093510381E08093000175
:101BC000CF9108952FEF3FEFEDCF81309105E1F0F8
:101BD00080F0029769F181E080935D030E94AF0D70
:101BE0006093590370935A0380935B0390935C0353
:101BF000E4CF809153038111D7C090E080E01216AA
:101C000013060CF4D8C0DDC0809106019091070145
:101C1000280F391F2131310514F020E130E037FF62
:101C200002C030E020E03093070120930601D3CFBB
:101C300040910501842F90E001961216130624F0BE
:101C400090E080E0442329F01816190614F481E08E
:101C500090E0817080930501BECF029749F5809195
:101C60008E02E3E0F6E0833010F4E7EFF5E093E076
:101C7000220F331F9A95E1F763E00E941D339130E4
:101C800049F0923071F087819085280F391F308795
:101C9000278393CF85819681280F391F368325832B
:101CA0008CCF81859285280F391F3287218785CF78
:101CB00084E0220F331F8A95E1F780914E039091C3
:101CC0004F038130910579F1B8F08230910509F424
:101CD0003FC0039709F453C0C1E0C0935D030E9465
:101CE000AF0D6093590370935A0380935B039093F5
:101CF0005C03C093000164CF8091640390916503FD
:101D0000280F391F213082E0380714F020E032E03C
:101D100021158EEF380714F420E03EEF3093650371
:101D200020936403D9CF80910A0190910B01280F71
:101D3000391F213084E0380714F020E034E037FF09
:101D400002C030E020E030930B0120930A01C4CFA1
:101D50008091620390916303280F391F213082E044
:101D6000380714F020E032E021158EEF380714F424
:101D700020E03EEF3093630320936203ADCF809168
:101D8000080190910901280F391F213084E038079C
:101D900014F020E034E037FF02C030E020E0309360
:101DA00009012093080198CF90E080E012161306F5
:101DB0001CF481E090E001961816190614F481E0F5
:101DC00090E08170809353038093B70504CFAF9266
:101DD000BF92CF92DF92EF92FF920F931F93CF9318
:101DE000DF936C017B018B01040F151FEB015E017A
:101DF000AE18BF08C017D10759F06991D601ED910F
:101E0000FC910190F081E02DC6010995892B79F7AD
:101E1000C501DF91CF911F910F91FF90EF90DF905F
:101E2000CF90BF90AF90089520910203260F3327E3
:101E3000331F21323105ECF420912803FC0190E09E
:101E400080E0243069F082E00895A091020321919E
:101E5000AC0140525D4FA40FB52FB11D2C930196DC
:101E6000861798F380910203680F6093020380E065
:101E7000089581E008951092280381E080932A0359
:101E80001092290361E082E10E94200D61E083E16C
:101E90000E94200DE9EBF0E080818E7F80838081BD
:101EA0008D7F808388E48093B80085E48093BC00B4
:101EB0000895CF93DF9391E09093DF028823B9F0E8
:101EC000C091B800D091BA008091BC008A7B809309
:101ED000BC0060E082E10E94200D60E083E10E948E
:101EE000200D0E943B0FD093BA00C093B800DF9141
:101EF000CF910895089508950895E091D7028091B3
:101F0000D602E81730F4F0E0EA54FD4F808190E00B
:101F100008958FEF9FEF08959091D7028091D60298
:101F20002FEF3FEF981748F4E92FF0E0EA54FD4F08
:101F3000208130E09F5F9093D702C901089580917E
:101F4000D6029091D702891B990B0895CF92DF9208
:101F5000EF92FF920F931F93CF93DF937C01CB01FE
:101F60008A012091B502222389F0EB016B01C40E96
:101F7000D51ECC15DD0569F06991D701ED91FC9175
:101F80000190F081E02DC7010995F3CF642F0E94E5
:101F9000140FC801DF91CF911F910F91FF90EF9027
:101FA000DF90CF900895CF93DF931F92CDB7DEB728
:101FB00069832091B5022223F9F02091D8022032C2
:101FC00058F021E030E0FC013383228390E080E090
:101FD0000F90DF91CF9108958091D902E82FF0E022
:101FE000EB56FD4F998190838F5F8093D902809348
:101FF000D80281E090E0ECCF61E0CE0101960E9432
:10200000140FF7CFFC01538D448D252F30E0842F22
:1020100090E0821B930B541710F0CF960895019710
:102020000895FC01918D828D981761F0A28DAE0FFD
:10203000BF2FB11D5D968C91928D9F5F9F73928F84
:1020400090E008958FEF9FEF0895FC01918D828DB0
:10205000981731F0828DE80FF11D858D90E008957D
:102060008FEF9FEF0895FC01918D228D892F90E0D5
:10207000805C9F4F821B91098F73992708958DE78C
:1020800093E00E94331021E0892B09F420E0822F95
:10209000089580E090E0892B29F00E943F10811183
:1020A0000C9400000895FC01A48DA80FB92FB11D58
:1020B000A35ABF4F2C91848D90E001968F7399277E
:1020C000848FA689B7892C93A089B1898C9183705C
:1020D00080648C93938D848D981306C00288F38955
:1020E000E02D80818F7D80830895EF92FF920F9382
:1020F0001F93CF93DF93EC0181E0888F9B8D8C8DB4
:1021000098131AC0E889F989808185FF15C09FB7A7
:10211000F894EE89FF896083E889F989808183706A
:10212000806480839FBF81E090E0DF91CF911F9119
:102130000F91FF90EF900895F62E0B8D10E00F5F3A
:102140001F4F0F731127E02E8C8D8E110CC00FB610
:1021500007FCFACFE889F989808185FFF5CFCE01A8
:102160000E945310F1CFEB8DEC0FFD2FF11DE35AC0
:10217000FF4FF0829FB7F8940B8FEA89FB8980812B
:102180008062CFCFCF93DF93EC01888D8823B9F0A5
:10219000AA89BB89E889F9898C9185FD03C0808172
:1021A00086FD0DC00FB607FCF7CF8C9185FFF2CFEF
:1021B000808185FFEDCFCE010E945310E9CFDF91E2
:1021C000CF910895DC011A96ED91FC9130E020E06A
:1021D0000994DC011696ED91FC9130E020E040E09E
:1021E00069E10994DC011696ED91FC9130E020E064
:1021F00040E068E109949A01DC011696ED91FC91AA
:10220000462F67E10994EF92FF920F931F93CF93AC
:10221000DF931F92CDB7DEB77C018B01D8016C91A3
:10222000673129F150F46531A0F40F90DF91CF911F
:102230001F910F91FF90EF9008956A3118F16E3F52
:10224000A1F7F8014181498369E2C7010E94E210C8
:102250000BC0F80141814983D7011696ED91FC919D
:1022600030E020E0C70109950E5F1F4FD7CFF8017E
:1022700081818983AE014F5F5F4F61E0C7010E949A
:10228000FB10F2CF0F5F1F4FD7011696ED91FC9117
:1022900030E020E040E0C7010995C0CF462FDC01C7
:1022A0001696ED91FC9130E020E066E10994462F0E
:1022B000DC011696ED91FC9130E020E065E1099497
:1022C000EF92FF920F931F93CF93DF93EC01042FB4
:1022D00079016D3009F446C050F46B30C9F16930B2
:1022E00009F49FC06A3009F465C080E046C06E30D2
:1022F00009F452C06F3099F70E94F210F701138170
:10230000110F110F110F6C89160F60E4CE010E949E
:102310005711612F62956F706061CE010E94571155
:10232000612F6F70CE010E944E11F7016481606BC6
:10233000CE010E944E11F701408151816281660FEA
:10234000660F660FCE010E94FB100150A1F72EC050
:1023500065E371E0442311F060E371E0CE010E9477
:1023600003110AC0411110C069E271E00E9403111B
:10237000E881F98182898C8B81E0DF91CF911F9177
:102380000F91FF90EF90089562E271E00E940311B7
:10239000E881F9818389EFCF0E94F21061E8CE01D4
:1023A0000E945711602FCE010E944E11CE010E9453
:1023B000E910E2CFEA85FB8530E020E040E068E20A
:1023C000CE010995EE81FF8130E020E040E064E13C
:1023D000CE01099541E06BE4CE010E94E210E88154
:1023E000F981448169E2CE010E94E21040E06BE491
:1023F000CE010E94E210E881F981448169E2CE01B8
:102400000E94E21041E06BE4CE010E94E210E881FC
:10241000F981458169E2CE010E94E2106AE371E030
:102420009DCF8FE691E0998388831C8AA5CFDC013C
:102430001896ED91FC9130E020E040E069E10994CC
:10244000DC011896ED91FC9130E020E040E068E17D
:102450000994CF93DF931F92CDB7DEB76983BE0196
:102460006F5F7F4F0E94C60C0F90DF91CF91089550
:10247000EF92FF921F93CF93DF93EC01162F7A0117
:102480000E94201260E4CE010E942912E885F9859D
:102490009701412F67E1CE010995CE01DF91CF91E0
:1024A0001F91FF90EF900C941712EF92FF921F93E1
:1024B000CF93DF93EC01142F7901663181F138F469
:1024C000643109F44BC0653179F080E022C0683195
:1024D000C9F150F16931C9F780919402882391F1D3
:1024E000CE010E9417122EC080919402882319F009
:1024F000CE010E941712CE010E94201260E0CE0190
:102500000E942912612FCE010E94291281E080933E
:102510009402DF91CF911F91FF90EF900895642F67
:102520000E94291281E0F5CF80919402882319F04E
:10253000CE010E941712A701193138F4612FCE0184
:102540000E94381210929402EDCF68E1CE010E94F1
:102550003812185188E1E80EF11CEDCF8E898F3FBB
:1025600011F488E78E8BE885F9859701412F64E1A6
:10257000CE01DF91CF911F91FF90EF9009940F93BF
:10258000FC01E85BFF4F0190F081E02DDF01A41B0F
:10259000B50BAD01FC01EA5BFF4F0190F081E02D2E
:1025A000DF01A61BB70BBD01011113C0415051093A
:1025B000621B730BFC01E05CFF4F0190F081E02D8A
:1025C0004E1B5F0BDC01D496ED91FC9109950F91A8
:1025D0000895013079F761507109421B530BEACF1E
:1025E000CF93DF93FC01A081B18182AD90E09C018B
:1025F00043E0220F331F4A95E1F737AF26AF5096DD
:102600002C91509748E0249F9001112435AF24AFBE
:1026100023AD30E0B90153E0660F771F5A95E1F71B
:10262000EF01C05CDF4F7983688351964C915197DD
:10263000E901C80FD91F50E04C175D0718F4CA0113
:10264000821B930BEF01CE5BDF4F79836883229669
:1026500023E0880F991F2A95E1F7860F971F99832A
:102660008883229654968D919C915597998388835F
:10267000E85BFF4F56968D919C9191838083DF910B
:10268000CF9108950F931F93FC01E25BFF4F0190E0
:10269000F081E02DDC01A05BBF4F0D90BC91A02D1F
:1026A0004A175B0740F4E017F10748F004171507D5
:1026B00030F080E019C0E017F107C0F3FACFFC0159
:1026C000E65BFF4F40815181845B9F4FFC0180811D
:1026D00091816817790758F481E04217530720F079
:1026E00081E02617370728F71F910F9108954217A9
:1026F0005307B0F3DECF2F923F924F925F926F92CB
:102700007F928F929F92AF92BF92CF92DF92EF9281
:10271000FF920F931F93CF93DF93CDB7DEB7289728
:102720000FB6F894DEBF0FBECDBF98878F83865B50
:102730009F4F9A838983FC0111821082EF81F88573
:10274000EA5BFF4F208031802F813885245B3F4F2B
:102750003C832B83F90131822082EF80F884FEE4F0
:10276000EF0EF11CF70111821082EF81F885E85B12
:10277000FF4F40805180EF81F885EC5BFF4F208157
:1027800031814216530630F0C201821B930BF701D0
:1027900091838083EF81F885EE5BFF4F208131814B
:1027A000421A530A2F813885205B3F4F3E832D8389
:1027B000F90151824082EF81F885E85AFF4F60802D
:1027C0007180EF81F885EC5AFF4FA080B180EF81D6
:1027D000F885EA5AFF4FC080D180EF81F885EE5A24
:1027E000FF4F8080918083019501A601B4018F8104
:1027F00098850E9442132F8138852C573F4F388788
:102800002F8381111BC0F901108228960FB6F8940E
:10281000DEBF0FBECDBFDF91CF911F910F91FF9013
:10282000EF90DF90CF90BF90AF909F908F907F9070
:102830006F905F904F903F902F90089581E0EF81CF
:10284000F88580838114910421F0E981FA819182D5
:102850008082A214B30420F4EB81FC81B182A082B7
:10286000F701808191818C159D0510F4D182C08281
:102870006414750450F6ED81FE8171826082C5CFCB
:102880000F93CF93DF93E02FDC01AC57BF4FFC9148
:10289000FF2309F460C02115310509F45CC0223022
:1028A000310538F0023009F04AC06F5F7F4F621B7C
:1028B000730B0E2F0170E0FD52C0FC01E25BFF4F75
:1028C0000190F081E02D4E175F0708F444C0FC0131
:1028D000E05BFF4F0190F081E02D4E175F07D8F5C8
:1028E000FC01E45BFF4F0190F081E02DDC01A65B71
:1028F000BF4F0D90BC91A02D260F371F261737070D
:1029000038F56E177F0718F59F0121503109A2177E
:10291000B30708F56A177B0708F4BD012E173F07B8
:1029200008F4F901E61BF70BEC01AEA9BFA9149658
:102930000D90BC91A02D9F01FD0109950CC00330A5
:1029400009F0B7CF4F5F5F4F421B530BB2CFBD01B2
:102950006E177F07E0F2DF91CF910F910895FC0190
:10296000E65BFF4F0190F081E02D6E177F0798F333
:10297000FC01E45BFF4F0190F081E02D6E177F07B3
:1029800050F7FC01E05BFF4F0190F081E02DDC018E
:10299000A25BBF4F0D90BC91A02D240F351F2417B3
:1029A0003507A8F44E175F0788F49F0121503109BD
:1029B000A217B30780F64A175B0708F4AD012E177C
:1029C0003F0708F4F901E41BF50BAECFAD014E173C
:1029D0005F0708F6EDCFAF92BF92CF92DF92EF92F2
:1029E000FF920F931F93CF93DF936C01EB015A017A
:1029F0007B01E20EF31E9C01240F351F8701AB0102
:102A0000BC0185EE94E00E944213811114C0DF9155
:102A1000CF911F910F91FF90EF90DF90CF90BF90DB
:102A2000AF90089500E09501AE01B60185EE94E007
:102A30000E9440142196EC16FD06A1F7E8CF8F9274
:102A40009F92AF92BF92CF92DF92EF92FF920F933D
:102A50001F93CF93DF936C01EB014A0179015C0175
:102A6000A40EB51E8B01020F131F9501AB01BC0113
:102A700085EE94E00E944213882371F100E09401F6
:102A8000AE01B60185EE94E00E94401481E0E816A4
:102A9000F10411F182E0E81AF1082196E114F10441
:102AA00099F001E09701AE01B60185EE94E00E9435
:102AB0004014B501615071099701AE0185EE94E0B3
:102AC0000E944014CE0DDF1D00E09401AE01B6015E
:102AD00085EE94E00E944014DF91CF911F910F91F9
:102AE000FF90EF90DF90CF90BF90AF909F908F902E
:102AF00008950F93209133053091340562177307C1
:102B0000F0F0209135053091360562177307B8F45F
:102B100020912F05309130058217930780F0209186
:102B20003105309132058217930748F4AB01BC019F
:102B300000E021E030E085EE94E00E9440140F9127
:102B40000895213069F038F0223079F0840F911D1A
:102B500047FD9A950895860F911D67FD9A950895F2
:102B6000841B910947FD93950895861B910967FD84
:102B700093950895213069F038F0223079F0861B62
:102B8000910967FD93950895840F911D47FD9A95CE
:102B90000895860F911D67FD9A950895841B9109EC
:102BA00047FD939508953F924F925F926F927F9267
:102BB0008F929F92AF92BF92CF92DF92EF92FF924D
:102BC0000F931F93CF93DF937C01162F442EEC01BC
:102BD000C25ADF4F5E806F806C018AE8C80ED11C3C
:102BE00078847518312E711608F4372C8C809D80EE
:102BF0000E85202F462D652D8A819B810E94A1156F
:102C00005C01202F462D652DC4010E94BA15AC0130
:102C1000442079F08C85F6018083232D30E0B501C6
:102C2000C7010E944014171548F017196394512CDE
:102C3000D7CF8B858111F7CF8D85EDCF150D1E83F5
:102C40006F82DF91CF911F910F91FF90EF90DF90F6
:102C5000CF90BF90AF909F908F907F906F905F903C
:102C60004F903F900895DC011A964C911A97ED9180
:102C7000FC911197249130E0042E02C035952795E0
:102C80000A94E2F7842F860F883068F03196119607
:102C9000FC93EE93E49198E0941B01C0EE0F9A959B
:102CA000EAF72E2B88501A968C938FEF9FEF01C076
:102CB000880F6A95EAF7809582230895FC01E60F54
:102CC000F11D849190E0982F88273196E4918E0F22
:102CD000911D0895CF93DF9320913F0530914005DA
:102CE0002817390709F490C0EC01909340058093B0
:102CF0003F05FC018491809352053196E491E09365
:102D00005305FE013296E491E0935405FE0133969B
:102D1000E491E0935505FE013496E491E093560565
:102D2000FE013596E491E0935705FE013696E49155
:102D3000E0935805FE013796E491E0935905FE01B2
:102D40003896E491E0935A05FE013996E491E093B8
:102D50005B05FE013A96E491E0935C05FE013B962B
:102D6000E491E0935D05FE013C96E491E0935E05FD
:102D7000FE013D96E491E0935F05FE013E96E491ED
:102D8000E0936005FE013F96E491E0936105FE014A
:102D90007096E491E093620561E1CE010E945E16B7
:102DA000909364058093630563E1CE010E945E16F3
:102DB000909366058093650565E1CE010E945E16DD
:102DC000909368058093670580913F059091400539
:102DD000892BD1F080915F0580936B054091600550
:102DE00040936C0590916A05992371F0913079F4C4
:102DF00090916105891714F490936B058091620599
:102E0000841714F480936C05DF91CF91089530916D
:102E10005C0520915E05082E000C990B622F022E96
:102E2000000C770B630F711D37FD7A958617970796
:102E30001CF4320F30936B05241734F720936C0584
:102E4000E3CF4F925F926F927F928F929F92AF9259
:102E5000BF92CF92DF92EF92FF920F931F93CF9387
:102E6000DF93EC016B018A017901FC01E459FF4F0A
:102E70008081813009F44BC008F43EC0823009F4EF
:102E800051C0833009F459C0FE01E05AFF4FD1828E
:102E9000C082329611830083389780819181479652
:102EA0002FEFE216F10411F008F0F2C0E1E6EE16A1
:102EB000F10408F44DC0FE01E058FF4F208131813C
:102EC000820F931F9C012F5F3F4FF90144914111E5
:102ED00048C090E080E0DF91CF911F910F91FF906B
:102EE000EF90DF90CF90BF90AF909F908F907F90AA
:102EF0006F905F904F900895FE01E45AFF4F01904C
:102F0000F081E02DCE010995080F191FBDCFFE01FC
:102F1000E45AFF4F0190F081E02DCE010995C81AC7
:102F2000D90AB2CFFE01E45AFF4F0190F081E02DA3
:102F3000CE010995081B190BA7CFFE01E45AFF4FDC
:102F40000190F081E02DCE010995C80ED91E9CCFCD
:102F5000F1E4EF16F10408F4B5CFFE01E258FF4F9B
:102F6000ADCFFC0144914E151F0409F08CC00296B0
:102F7000009709F4AECF7E01FEE5EF0EF11CF701DC
:102F800091838083128673966081C7010E943316F5
:102F9000F701808774966081C7010E943316982ECE
:102FA000F70181875E01FAE8AF0EB11CF50190814F
:102FB000F701948781E0911180E0F7018587FE0198
:102FC000ED58FF4FC0806C2DC7010E943316582E5C
:102FD000FE01EC58FF4FD0806D2DC7010E943316C3
:102FE000482EFE01EB58FF4F1081612FC7010E9450
:102FF00033169FEF910F01E010E0980101C0220FFE
:103000009A95EAF7882E821AF701608416140CF05C
:10301000ADC0CA94C80101C0880FCA94EAF7581A13
:103020007684490CDA94A80101C0440FDA94EAF7D7
:10303000F42FF4194F2E272D4F2F652DF701828184
:1030400093810E94A1156C01F70193838283272D40
:10305000442D652D848195810E94BA15F7019583D1
:103060008483F1E07F1609F485C07F1608F43FC021
:1030700022E0721609F48DC0E3E07E1609F49DC0CB
:10308000BC0196013EC0F9012491820F911D1ACF17
:10309000FE01EE57FF4F00811181080F191F6801D3
:1030A00060E0C6010E945E16080F191F62E0C601AB
:1030B0000E945E16F4E0CF0ED11C8E159F0580F3A2
:1030C000F801849190E0982F88273196E4918E2B17
:1030D000009709F4FECEE816F90619F4C801039624
:1030E00047CFF8013296E4910E0F111DE9CF9601FA
:1030F000260D311D67FC3A95BC01690D711D97FCC9
:103100007A958B01AC01B601CE010E94421388234F
:1031100069F1F701168217828E0101591F4F6E0166
:10312000F0E7CF0ED11CF8016081C7010E94331671
:10313000682EF6016081C7010E943316782E40E0A8
:10314000662DCE010E94D31541E0672DCE010E946D
:10315000D31561E0C7010E9433168111F0CFF7014A
:103160008781891504F38485F5018083882D880C77
:10317000990BB1CE0919110997FC139596012F5F90
:103180003F4FBC01660D711D67FC7A95C00ED11EC4
:10319000B8CFA8014619510967FC539596012F5FD6
:1031A0003F4F0919110997FC1395BC016F5F7F4FC1
:1031B000800F911FC40ED51EA4CF9601290D311D7D
:1031C00097FC3A950619110967FC1395BC016F5FCE
:1031D0007F4F800F911F95CFCF92DF92EF92FF929A
:1031E0000F931F93CF93DF93EC018B011092FD049B
:1031F0008DEBC82E81E0D82EF12CE12CF6016191E7
:103200006F01E091E704F091E80485EE94E0099500
:103210008F3F980719F18E3F2FEF920779F39C01AA
:10322000A801BE0185EE94E00E942117209151056E
:10323000213059F038F0223059F0233061F0E80E97
:10324000F91EDCCFC80FD91FFACF080F191FF7CF0F
:10325000C81BD90BF4CF081B190BF1CFC701DF91A5
:10326000CF911F910F91FF90EF90DF90CF90089535
:10327000CF93DF93EC016BAFEEA9FFA90190F08132
:10328000E02D0995EEA9FFA90280F381E02DCE0182
:10329000DF91CF910994AF92BF92CF92DF92EF92DC
:1032A000FF920F931F93CF93DF9300D000D01F9214
:1032B000CDB7DEB78C01DC01DA96AC90DA97DB96FD
:1032C000EC90DB97ED91FC91B188FE2CD12CC12CB8
:1032D000D801ED91FC9111978089D8962D913C9160
:1032E0001C82FD828B83B8E08B9FC00111248C9DD2
:1032F000A0018D9D500D9C9D500D1124240F351F54
:103300003A832983D8011496ED91FC919E012F5F99
:103310003F4F41E06FE0C8010995F3948F2D8E195E
:103320008A1528F4BFEFCB1ADB0AFB1488F20F9042
:103330000F900F900F900F90DF91CF911F910F91F1
:10334000FF90EF90DF90CF90BF90AF900895CF9215
:10335000DF92EF92FF920F931F93CF93DF93EC01D5
:10336000962F683109F44BC0B901993130F494318A
:10337000C9F0973189F080E006C0993109F461C045
:103380009032C9F781E0DF91CF911F910F91FF90AB
:10339000EF90DF90CF90089550E081E793E00E9496
:1033A000A60FF0CF8C859D85AE85BF85892B8A2B96
:1033B0008B2B71F4E881F981A585B0E020EA36E82D
:1033C00041E050E00E948D306C877D878E879F871B
:1033D0001092D7021092D6021092D9021092D802FF
:1033E0000E943B0F8AE79FE09093010380930003C4
:1033F0008BE79FE09093050380930403C3CF2C8554
:103400003D854E855F8560E074E284EF90E00E9428
:10341000A0302051310941095109569547953795FA
:1034200027952093B8008E8990E09595879591E037
:103430009093B502809393021092D9021092D80211
:10344000A1CFD091D802D13208F093C0C09193029D
:103450000E948A0D6B017C0180912803811164C058
:1034600082E08093280381E080932A038FEF80938A
:10347000270310924C03D0934B03A5E9B2E0EBE293
:10348000F3E080E0D8137CC010924D0380914D038F
:10349000CC0FC82BC0934D0380912903813009F0D4
:1034A00073C0109229030E948A0D6B017C018091E8
:1034B0004D038093BB008091DB029091DC02A091D0
:1034C000DD02B091DE02892B8A2B8B2B99F00E94B2
:1034D0008A0D0091DB021091DC022091DD02309117
:1034E000DE026C197D098E099F0906171707280748
:1034F0003907D8F18091BC0083FDD9CF85EC80934A
:10350000BC000E948A0D6B017C01809128038230EF
:10351000E9F1809127038F3F61F180912703803289
:1035200041F18091270325C08091DB029091DC025C
:10353000A091DD02B091DE02892B8A2B8B2B09F43E
:103540008BCF0E948A0D0091DB021091DC0220914A
:10355000DD023091DE026C197D098E099F09061784
:1035600017072807390708F077CF8091DA020E9401
:10357000590F1092D9021092D8021092B50202CFC0
:103580009D9191938F5F7ECF85EEB9CF8091DB02C5
:103590009091DC02A091DD02B091DE02892B8A2B92
:1035A0008B2B09F4B2CF0E948A0D0091DB0210919F
:1035B000DC022091DD023091DE026C197D098E095A
:1035C0009F09061717072807390708F09ECFCDCFA8
:1035D0008F929F92AF92BF92CF92DF92EF92FF9223
:1035E000CF93DF937C01C62F6C32B0F46A32E8F5DA
:1035F000683249F1693209F444C080E0C034B0F166
:10360000CF73F701EC0FF11D868D8F3F71F1C03143
:1036100008F06DC0642F14C06D3209F456C068F311
:1036200084EB860F823048F7CF73CE0DDF2DD11D8E
:103630008E8D411158C061E00E944E0D60E08E8D6C
:103640000E94200D12C02EE1E20EF11CD0E0F70125
:1036500081917F018F3F31F061E0D03108F062E06D
:103660000E944E0DDF5FD63191F781E0DF91CF915F
:10367000FF90EF90DF90CF90BF90AF909F908F9092
:103680000895C42ED12CF12CE12C0E948A0D4B01FF
:103690005C01C114D104E104F10439F30E948A0DE4
:1036A000681979098A099B09683E7340810591056B
:1036B00080F3F1E0CF1AD108E108F10828EE820E7C
:1036C00023E0921EA11CB11CE4CF85E090E04330C2
:1036D00010F082E090E0880F991F880F991F0597DE
:1036E0000197F1F7C2CF62E00E944E0DBECF0E945B
:1036F000F70C21E0892B09F420E0F701218FB5CFE9
:10370000CF92DF92EF92FF920E94E43120E034E208
:1037100044E759E40E9443319B01AC0160E070E052
:1037200080E89FE30E9443316B017C01AC019B0167
:1037300060E074E284E79BE40E9443310E94B5316B
:103740006F3F2FEF72078105910508F47CC020E0E0
:1037500030E040E051E4C701B6010E949B329B017A
:10376000AC0160E074E284E79BE40E9443310E9474
:10377000B5316F3F2FEF72078105910508F465C0E1
:1037800020E030E040E852E4C701B6010E949B32DD
:103790009B01AC0160E074E284E79BE40E9443314A
:1037A0000E94B5316F3F2FEF72078105910508F434
:1037B0004EC020E030E040E853E4C701B6010E946B
:1037C0009B329B01AC0160E074E284E79BE40E94C1
:1037D00043310E94B5316F3F2FEF7207810591058C
:1037E000C0F120E030E040E854E4C701B6010E9497
:1037F0009B329B01AC0160E074E284E79BE40E9491
:1038000043310E94B5316F3F2FEF7207810591055B
:10381000A8F425E0F894109281006150710970932A
:103820008900609388008091810088608093810086
:1038300080918100282B209381007894FF90EF9055
:10384000DF90CF90089521E0E5CF22E0E3CF23E0A1
:10385000E1CF24E0DFCF68EF8DE793E00C947510A3
:103860006CEF8DE793E00C9475106AEF8DE793E0B1
:103870000C947510CF92DF92EF92FF920F931F93EB
:10388000CF93DF93EC0188810E94F70C8C010E949A
:10389000AF0DCA80DB80EC80FD80AB01BC014C1910
:1038A0005D096E097F090115110561F48981813077
:1038B00031F491E04B3051056105710508F490E059
:1038C00080E00EC001301105D1F789818111F7CF59
:1038D00081E04B3051056105710508F480E090E00E
:1038E0001F821E829923B1F081E090E09F838E8336
:1038F0000E94AF0D6B017C01CA82DB82EC82FD82EB
:103900000983DF91CF911F910F91FF90EF90DF908E
:10391000CF900895882381F30E94AF0D2EEEC20E42
:1039200022E0D21EE11CF11C6C157D058E059F0561
:1039300050F482E090E09F838E83E885F98530978C
:10394000B9F20995D5CF83E090E09F838E83EA8515
:10395000FB85F5CF0F931F93CF938C01C62F62E0A9
:103960008C2F0E944E0DF801C0838C2F0E94F70C03
:10397000F8018183CF911F910F910895CF92DF922B
:10398000EF92FF92CF93DF93EC0189819A819C8320
:103990008B8388818E3008F08E508770806480938E
:1039A0007C0080917A00806480937A0080917A0014
:1039B00086FDFCCFA0917800B0917900CF80D884AB
:1039C0000D2C000CEE08FF0829853A85032E000C0B
:1039D000440B550B2C193D094E095F090E94983084
:1039E0002FEF33E040E050E00E946E30DA01C90171
:1039F0008C0D9D1DAE1DBF1D092E000CAA0BBB0B0F
:103A00004D815E81052E000C660B770B841B950B98
:103A1000A60BB70B81152EEF92072FEFA207B20767
:103A2000DCF0813022E09207A105B10524F080E0AE
:103A300092E0A0E0B0E09A8389832B85222329F0CD
:103A40009195819591099A838983DF91CF91FF9018
:103A5000EF90DF90CF90089580E09EEFECCFCF9273
:103A6000DF92EF92FF920F931F93CF93DF936C013E
:103A7000EB017B01E40EF51E10E000E0CE15DF0542
:103A800061F06991D601ED91FC910190F081E02DFA
:103A9000C6010995080F191FF1CFC801DF91CF9119
:103AA0001F910F91FF90EF90DF90CF900895CF92EC
:103AB000DF92EF92FF920F931F93CF93DF93EC016E
:103AC0006C0124E0C20ED11CFC01E057FF4F0190B5
:103AD000F081E02DC60109958E3FEFEF9E07D8F4E7
:103AE0008E010C561F4FF801408151817E01F2E991
:103AF000EF0EF11CF701608171819C01C6010E94EB
:103B00002117C059DF4F28812130C1F078F02230D1
:103B1000B9F02330E9F081E090E0DF91CF911F917F
:103B20000F91FF90EF90DF90CF900895F7012081E3
:103B30003181820F931F91838083EDCFF801F7CFFE
:103B4000F70120813181281B390B31832083E3CF9A
:103B5000F801F7CF089590E080E008958091EB059B
:103B60000E94F70C892B01F1809166039091670305
:103B700081309105C9F00297C1F480918E029BEAD1
:103B8000899F912D11249695292F220F290F90E0BE
:103B9000019663E070E00E942933922F980F909372
:103BA0008E0281E080930001089580914E039091F0
:103BB0004F03009739F481E090E090934F03809396
:103BC0004E03EFCF8130910529F410924F031092EC
:103BD0004E03E7CF8230910519F483E090E0EDCFFA
:103BE0000397F9F682E090E0E8CF8091DF050E942C
:103BF000F70C892B99F080916603909167038130CF
:103C0000910561F0029769F480918E02833038F457
:103C10008D5F80938E0281E0809300010895835030
:103C2000F8CF80914E0390914F03009739F482E0D2
:103C300090E090934F0380934E03EDCF8130910538
:103C400019F483E090E0F5CF8230910529F41092C9
:103C50004F0310924E03DFCF0397E9F681E090E027
:103C6000E8CF8091660390916703019741F48091BA
:103C7000500391E0892780935003909300010895A9
:103C80001F93CF93DF93EC01162F8D81613041F4A8
:103C900061E00E94200D1E83DF91CF911F91089556
:103CA00060E00E94200D1E82F7CFFC0101900020F1
:103CB000E9F73197AF01481B590BBC0181EE94E045
:103CC0000C942F1D8F929F92AF92BF920F931F93D0
:103CD000CF93DF93CDB7DEB7A1970FB6F894DEBFD1
:103CE0000FBECDBF19A2423008F44AE08E010F5D2D
:103CF0001F4F842E912CB12CA12CA50194010E9460
:103D0000A030E62FB901CA01EA30F4F4E05DD80131
:103D1000EE938D01232B242B252B79F790E080E067
:103D2000109719F0CD010E94551EA1960FB6F89478
:103D3000DEBF0FBECDBFDF91CF911F910F91BF901E
:103D4000AF909F908F900895E95CE1CF0C94551E41
:103D5000CF92DF92EF92FF92CF93DF936C01990F96
:103D6000EE08FF08F7FE19C06DE281EE94E00E94B4
:103D7000571DEC0166277727CB016C197D098E0949
:103D80009F094AE00E94621E8C0F9D1FDF91CF9118
:103D9000FF90EF90DF90CF9008954AE0C701B60101
:103DA000DF91CF91FF90EF90DF90CF900C94621E47
:103DB0002F923F924F925F926F927F928F929F923B
:103DC000AF92BF92CF92DF92EF92FF920F931F9329
:103DD000CF93DF935C016B018A011A0155E0220C3D
:103DE000331C5A95E1F781E00E947D0CF501C181F9
:103DF000D2817101FAE0EF0EF11C1092740510925D
:103E00007305F0927605E0927505C6010E94A61E24
:103E1000D7FD04C087E392E00E94A61ECE010E9457
:103E2000A81E8CE590E09093740580937305F09242
:103E30007605E0927505F50161817281072E000C0F
:103E4000880B990B0E94E63120E030E040E05BE314
:103E50000E949B3220E030E040EA50E40E949B3216
:103E600020E030E0A9010E94963287FD04C087E37C
:103E700092E00E94A61EF50161817281072E000C5E
:103E8000880B990B0E94E63120E030E040E05BE3D4
:103E90000E949B3220E030E040EA50E40E949B32D6
:103EA0006B017C014B015C01AC019B010E9408335A
:103EB000882309F474C08FEB91E00E94551E48E6F8
:103EC000E42E40E0F42EF7016491662349F081EE80
:103ED00094E00E94571DFFEFEF1AFF0A892B99F714
:103EE00071012CE0E20EF11C2AE030E044E650E0E3
:103EF000B70180E190E00E941F151C161D060CF012
:103F0000C6C022E330E0DE010E943D3342E350E0D0
:103F10006115E6E67E07810591054CF4AB01BC0115
:103F200039E075956795579547953A95D1F72AE009
:103F300030E0B70182E490E00E94EB1480918E02A1
:103F40009BEA899F912D112496959017110609F0EF
:103F5000C0C021E03CE03093E8042093E704B101C5
:103F6000605E7F4F292F220F920F891B22E3829FD1
:103F7000C00111240E96DF91CF911F910F91FF90F8
:103F8000EF90DF90CF90BF90AF909F908F907F90F9
:103F90006F905F904F903F902F900C94EC182601FB
:103FA0003701E89477F82FEF3FEF4FE75FE7C30162
:103FB000B2010E94083381110DC02FEF3FEF4FE790
:103FC0005FE7C301B2010E943E3118161CF483EC76
:103FD00091E073CF2FEF3FEF4FE75FE4C701B601EA
:103FE0000E94963218161CF487EC91E066CF2FEFF2
:103FF0003FEF4FE75FECC701B6010E943E3187FDFE
:10400000F3CF20E030E0A901C701B6010E943E31A4
:1040100087FF0BC06DE281EE94E00E94571D4601C0
:104020005701B7FAB094B7F8B0942DEC3CEC4CE4DF
:104030005DE3C501B4010E94D2304B015C010E94D6
:10404000B5316B017C010E94E4319B01AC01C501DB
:10405000B4010E94D1304B015C014AE0C701B601B6
:104060000E94621E6EE281EE94E00E94571D20E0E5
:1040700030E040E251E4C501B4010E949B320E944D
:10408000B53190E080E04AE00E94621E18CFAA2776
:10409000BB27AC1BBD0B22E330E00E943D33611512
:1040A000F6E67F07810591058CF429E095958795C3
:1040B000779567952A95D1F7FB012AE030E0AF01AB
:1040C000B70182E490E08E1B9F0B36CFE2E3F0E075
:1040D000F4CFDF91CF911F910F91FF90EF90DF9080
:1040E000CF90BF90AF909F908F907F906F905F9098
:1040F0004F903F902F900895CF93DF93EB010E9454
:1041000058308883CE01DF91CF9108950F931F938C
:10411000CF93DF938C01EB010E9458308883C80154
:1041200001960E9458308983CE01DF91CF911F9173
:104130000F91089585ED8093BC008091DB029091F2
:10414000DC02A091DD02B091DE020796A11DB11D37
:1041500023E0B695A795979587952A95D1F7209155
:10416000BC0024FD03C01092280308954091DB0297
:104170005091DC026091DD027091DE02452B462BEE
:10418000472B69F30097A105B10541F02AE22A9572
:10419000F1F700C00197A109B109E1CF8091DA02DE
:1041A0000C94590FFC01A081B18150962C9182ADE5
:1041B00038E0839FC0011124289FA001299F500D42
:1041C000112470E060E080AD91AD0C9483341F93B6
:1041D000CF93DF93EC010E944B191BAD8AAD180FF2
:1041E000E881F9818189181768F0EC81FD8130E060
:1041F00020E040E060E1CE01099580E0DF91CF91C1
:104200001F910895FE01E557FF4F8081882319F023
:10421000CE010E94D220612FCE010E94381981E088
:10422000EDCFCF93DF93EC01FC01E557FF4F808189
:10423000882319F0CE010E94D22060E0CE01DF91E8
:10424000CF910C943819FF920F931F93CF93DF9364
:10425000EC01F62E08811981C8010E945830F81629
:1042600021F06F2DC8010E946030CE01DF91CF9107
:104270001F910F91FF900895EF92FF920F931F935C
:10428000CF93DF9300D0CDB7DEB78C017B019A834B
:104290008983FB016081CE0101960E9423210F5F7B
:1042A0001F4F1A830983F7016181CE0101960E9495
:1042B0002321C7010F900F90DF91CF911F910F9194
:1042C000FF90EF900895CF93DF9300D000D0CDB74B
:1042D000DEB71A8219826BEACE0101960E94232171
:1042E0008091FE059091FF059C838B83BE016D5FDD
:1042F0007F4F81E090E00E943C21809100069091E8
:1043000001069C838B83BE016D5F7F4F83E090E04D
:104310000E943C218091FC059091FD059C838B833C
:10432000BE016D5F7F4F85E090E00E943C2180914F
:104330000A0690910B069C838B83BE016D5F7F4FB5
:1043400087E090E00E943C2180910C0690910D0640
:104350009C838B83BE016D5F7F4F89E090E00E945C
:104360003C2180910806909109069C838B83BE01B5
:104370006D5F7F4F8BE090E00E943C2164E673E02C
:104380008DE090E00E943C216AE071E08FE090E0D7
:104390000E943C2162E673E081E190E00E943C21B2
:1043A00068E071E083E190E00E943C2185E190E0CB
:1043B0009A83898360915303CE0101960E94232141
:1043C00066E071E087E190E00E943C2189E190E0A5
:1043D0009A83898360910501CE0101960E94232171
:1043E0000F900F900F900F90DF91CF910895CF9382
:1043F000DF9318161906A4F18FEF9FEF2091660343
:1044000030916703820F931F63E070E00E942933AD
:10441000EC0197FD23962130310529F510925003C8
:104420000E946321809153038093B705D093670363
:10443000C0936603229771F410928E02CEE7D5E006
:1044400060E088810E94200D1982279685E0C83A95
:10445000D807B1F781E080930001DF91CF910895F3
:1044600081E090E0CBCF2230310501F70E9463213B
:10447000DDCF1F920F920FB60F9211242F933F930F
:104480008F939F93AF93BF938091690390916A0339
:10449000A0916B03B0916C033091680323E0230F6C
:1044A0002D3758F50196A11DB11D20936803809307
:1044B000690390936A03A0936B03B0936C0380919C
:1044C0006D0390916E03A0916F03B09170030196FC
:1044D000A11DB11D80936D0390936E03A0936F0394
:1044E000B0937003BF91AF919F918F913F912F91A6
:1044F0000F900FBE0F901F90189526E8230F02967D
:10450000A11DB11DD2CF1F920F920FB60F92112491
:104510002F933F934F935F936F937F938F939F93CB
:10452000AF93BF93EF93FF938091B900887F80365C
:1045300009F44AC0F0F5883209F4A7C018F58031B3
:1045400009F49BC0B8F4882309F4F9C0883009F451
:1045500094C0FF91EF91BF91AF919F918F917F9107
:104560006F915F914F913F912F910F900FBE0F90E0
:104570001F901895883109F488C0803251F78093D4
:10458000270314C0803409F49DC040F48033B9F38C
:104590008833F9F68093270385ECB0C0803509F4A1
:1045A00085C0883509F496C0883499F60E949A200F
:1045B000D0CF883909F48CC038F5883729F050F409
:1045C000883611F0803729F683E080932803109213
:1045D000260357C0883809F47BC0803919F0803829
:1045E00009F0B7CF80912603803208F071C0E091C6
:1045F000260381E08E0F809326038091BB00F0E0BC
:10460000EA5FFC4F80833DC0803B39F0E0F4803AA4
:1046100009F479C0883A09F09CCF84E0809328039C
:104620001092030310920203E0910003F091010342
:1046300009958091020381110FC081E080930203EC
:104640001092E00209C0803C09F4A6CF883C09F42E
:10465000A3CF883B09F07DCFE091030381E08E0F6B
:1046600080930303F0E0E052FD4F80818093BB0014
:10467000909103038091020329C080914D038093A0
:10468000BB0085EC8093BC0064CF90914C0380917B
:104690004B03981758F5E0914C0381E08E0F8093FF
:1046A0004C03F0E0E55DFC4F8081E9CFE0914C03E5
:1046B00081E08E0F80934C038091BB00F0E0E55DBC
:1046C000FC4F808390914C0380914B039817C8F264
:1046D00085E8D8CFE0914C0381E08E0F80934C03A6
:1046E0008091BB00F0E0E55DFC4F808380912A0360
:1046F00081115CCF81E08093290384EA8093BC0020
:104700001092280326CF85EC8093BC0010922803DA
:1047100080912603803230F4E0912603F0E0EA5FD6
:10472000FC4F10826091260370E0E0910403F09149
:10473000050386E093E00995109226030ACF1092B4
:10474000270334CF1F920F920FB60F9211242F938D
:104750003F934F935F936F937F938F939F93AF9309
:10476000BF93EF93FF938DE793E00E945310FF9167
:10477000EF91BF91AF919F918F917F916F915F91D9
:104780004F913F912F910F900FBE0F901F90189552
:104790001F920F920FB60F9211242F933F934F93B6
:1047A0005F936F937F938F939F93AF93BF93EF9399
:1047B000FF93CF93DF931F92CDB7DEB781E089835C
:1047C000E0911A04F0911B04309761F0A0918D03E1
:1047D000B0918E036C91A0919303B09194038C914E
:1047E0000995898389818823E1F0E0918D03F09117
:1047F0008E038081E0919303F091940382FD25C0A4
:104800009081809196038F5F8F7320919703821719
:1048100041F0E0919603F0E0E358FC4F958F8093D0
:1048200096030F90DF91CF91FF91EF91BF91AF91E0
:104830009F918F917F916F915F914F913F912F91B8
:104840000F900FBE0F901F9018958081EACF1F9296
:104850000F920FB60F9211248F929F92AF92BF9238
:10486000CF92DF92EF92FF920F931F932F933F937C
:104870004F935F936F937F938F939F93AF93BF9368
:10488000EF93FF930E94AF0D60938F02709390029D
:10489000809391029093920280911C0490911D0448
:1048A000029709F072C1C0903304D0903404809113
:1048B00032048C151D0411F41092320480913204DC
:1048C000811106C18091580490915904019709F013
:1048D000ECC040912E0450912F04609130047091EF
:1048E00031048091400490914104A0914204B09120
:1048F0004304481759076A077B0780F080914004FA
:1049000090914104A0914204B09143040196A11DED
:10491000B11D84179507A607B70720F5209140041D
:1049200030914104409142045091430420932E045D
:1049300030932F044093300450933104F12CE12C38
:10494000C701B6010E940D3360932A0470932B04B3
:1049500080932C0490932D04A70196010E94A0300F
:1049600060933204C0904404D0904504E090460423
:10497000F09047040E948A0D00913C0410913D0480
:1049800020913E0430913F0460177107820793071E
:1049900008F416C1601B710B820B930B60934C04DF
:1049A00070934D0480934E0490934F040091400403
:1049B00010914104209142043091430480902E04D0
:1049C00090902F04A0903004B09031040815190580
:1049D0002A053B0508F4FDC044E0660F771F881FD9
:1049E000991F4A95D1F7672F782F892F9927C61AD3
:1049F000D70AE80AF90AA0912804B0912904A7016E
:104A000096010E9498300E94E4319B01AC0160EC59
:104A100071EE84E69CE40E9443316B017C0120E04E
:104A200030E040E85FE30E943E3187FDF0C020E0C7
:104A300030E048EC53E4C701B6010E9496321816E4
:104A400034F4C12CD12C98ECE92E93E4F92EA70173
:104A5000960160915004709151048091520490919C
:104A600053040E943E31882301F1C0925004D09239
:104A70005104E0925204F092530460912604709124
:104A8000270490E080E00E94E4319B01AC0160ECDF
:104A900071EE84E69CE40E944331A70196010E94D6
:104AA00043310E94B5310E94801B80912E04909169
:104AB0002F04A0913004B09131040196A11DB11DC5
:104AC00080932E0490932F04A0933004B09331046C
:104AD000809132048F5F80933204E0912004F09142
:104AE0002104309781F12091350480913604909112
:104AF00037042817190611F41092350480913504F3
:104B000081111CC0609138047091390480913A047D
:104B100090913B0409958091380490913904A091BB
:104B20003A04B0913B040196A11DB11D8093380455
:104B300090933904A0933A04B0933B0480913504D8
:104B40008F5F80933504E0911E04F0911F0430972D
:104B5000E1F060912A0470912B0480912C049091D3
:104B60002D04099580912A0490912B04A0912C0486
:104B7000B0912D040196A11DB11D80932A0490933C
:104B80002B04A0932C04B0932D04FF91EF91BF91BF
:104B9000AF919F918F917F916F915F914F913F91D5
:104BA0002F911F910F91FF90EF90DF90CF90BF90CA
:104BB000AF909F908F900F900FBE0F901F90189501
:104BC0000095109520953095600F711F821F931FDF
:104BD000E5CE6C157D058E059F0508F00CCFA7016D
:104BE0009601261B370B480B590BDA01C90124E04B
:104BF000880F991FAA1FBB1F2A95D1F7892F9A2FBB
:104C0000AB2FBB27C80ED91EEA1EFB1EF4CEC12C4B
:104C1000D12C80E8E82E8FE3F82E19CF1F920F9247
:104C20000FB60F9211240F931F932F933F934F931F
:104C30005F936F937F938F939F93AF93BF93CF9324
:104C4000DF93EF93FF93C0915F04D09160042097AE
:104C500009F45BC08E850E94F70C182F88890E948A
:104C6000F70C880F991F812B9C89891709F44DC077
:104C7000EC890D891E892F89388D94E0E902F001B5
:104C80001124482F082E000C550BE42BF52BEE5E5B
:104C9000FE4F9081492F990F550B660B770B400FF4
:104CA000511F621F731F4D8B5E8B6F8B788F8C8BA8
:104CB0002A893B892230310531F123303105D1F188
:104CC0002130310511F5833001F58D899E89AF8939
:104CD000B88D32E0B595A795979587953A95D1F718
:104CE000898F9A8FAB8FBC8F89A19AA1ABA1BCA1F0
:104CF0008DA39EA3AFA3B8A70E94AF0D69A37AA30B
:104D00008BA39CA302C0882301F3FF91EF91DF9155
:104D1000CF91BF91AF919F918F917F916F915F9153
:104D20004F913F912F911F910F910F900FBE0F90B8
:104D30001F901895882311F0833039F78D899E894B
:104D4000AF89B88DB595A79597958795C9CF1F92CF
:104D50000F920FB60F9211242F933F934F935F93AF
:104D60006F937F938F939F93AF93BF93EF93FF9333
:104D70000E940E26FF91EF91BF91AF919F918F916D
:104D80007F916F915F914F913F912F910F900FBE47
:104D90000F901F901895CF93DF9310927403109289
:104DA000730388EE93E0A0E0B0E0809375039093E6
:104DB0007603A0937703B09378032BE831E0309328
:104DC0007203209371031092800310927F038093EB
:104DD000810390938203A0938303B09384038DE9AE
:104DE00091E090937E0380937D0385EC90E0909317
:104DF0008A038093890384EC90E090938C038093E2
:104E00008B0380EC90E090938E0380938D0381EC74
:104E100090E09093900380938F0382EC90E09093C6
:104E200092038093910386EC90E090939403809397
:104E30009303109296031092970310929803109286
:104E4000990310921B0410921A0480E690E090934C
:104E5000270480932604C8E1D0E0D0932904C093AE
:104E6000280410925B0410925A0480E090E0A0EFB6
:104E7000B2E48093500490935104A0935204B093F1
:104E80005304109254041092550410925604109238
:104E90005704109248041092490410924A04109248
:104EA0004B0410924C0410924D0410924E04109238
:104EB0004F0410921D0410921C0410925904109279
:104EC00058040E94800C10921F0410921E0410922D
:104ED00021041092200410922304109222041092B4
:104EE0002504109224042091260430912704609117
:104EF000280470912904C9010E9429337093340455
:104F000060933304C901BE010E94293370933704B2
:104F1000609336041092E4041092E30481E09CE074
:104F20009093720580937105109274051092730529
:104F300010927605109275051092FD048FEA91E0AB
:104F40009093E2048093E1041092E6041092E50449
:104F50001092FA041092F1041092F2041092F304E9
:104F60001092F4048FEF8093FB048093FF04E3E03E
:104F7000F5E089E195E0DFEFD1938E179F07E1F728
:104F800080E691E19093EA048093E90485E592E15B
:104F90009093EC048093EB0487EA99E19093EE04FC
:104FA0008093ED0488EE9AE19093F0048093EF04EF
:104FB00030E020E040E069E085EE94E00E9460117E
:104FC0001092400510923F058BE09CE090931A05EB
:104FD0008093190581E694E090931E0580931D054A
:104FE000C1E0C0931F051092200510924E0510924B
:104FF0006E0510926A05C0936F05C093700587EB2C
:1050000091E090931C0580931B0585EE94E00E942F
:10501000F012109238051092370510923C0510924C
:105020003B058FEF9FEF90933A058093390590935E
:105030003E0580933D05E0911B05F0911C05028023
:10504000F381E02D85EE94E009958AE79CE090934A
:105050004205809341051092510583E180930E052E
:1050600082E180930F05D09310051092780510927D
:1050700077051092B70581E190E09093B905809390
:10508000B80584E090E09093BB058093BA0581E079
:1050900090E09093BD058093BC0562E081E10E94A1
:1050A0004E0D62E084E00E944E0D8091B8050E9492
:1050B000F70CD82F8091BA050E94F70C880F991F22
:1050C0008D2B8093BE051092BF051092C0051092E3
:1050D000C1051092C2051092C3051092C40510922A
:1050E000C5051092C6051092C7051092C80510920A
:1050F000C9051092CA05C093D4051092DA05109222
:10510000D9056EE083ED95E00E94AA1C8AEA95E03D
:105110009093600480935F04C093E0051092E605CD
:105120001092E505C093EC051092F2051092F1057E
:105130001092FD051092FC052AEC3DEF3093FF051F
:105140002093FE0580E092E0909301068093000694
:1051500010920206109209061092080630930B0670
:1051600020930A0690930D0680930C0610920E066B
:10517000DF91CF910895CF93DF93CDB7DEB7A0979E
:105180000FB6F894DEBF0FBECDBF789484B58260B1
:1051900084BD84B5816084BD85B5826085BD85B5DB
:1051A000816085BD80916E00816080936E00109259
:1051B00081008091810082608093810080918100D4
:1051C0008160809381008091800081608093800065
:1051D0008091B10084608093B1008091B0008160C3
:1051E0008093B00080917A00846080937A008091EF
:1051F0007A00826080937A0080917A008160809347
:105200007A0080917A00806880937A001092C100C1
:10521000E0918D03F0918E0382E08083E091890319
:10522000F0918A031082E0918B03F0918C038FE35D
:10523000808310929503E0919103F091920386E0B0
:105240008083E0918F03F09190038081806180835F
:10525000E0918F03F0919003808188608083E091DA
:105260008F03F0919003808180688083E0918F03A9
:10527000F091900380818F7D808380915A0490917A
:105280005B04892B59F481E080935C0484E090E016
:105290000E945E3390935B0480935A04F8941092BA
:1052A000800010928100109285001092840081ECA1
:1052B00092EA9093890080938800809181008860B1
:1052C0008093810080918100826080938100809131
:1052D0006F00826080936F007894C0905004D090EB
:1052E0005104E0905204F09053048091580490913E
:1052F00059040197B1F120E030E040E85FE3C701D5
:10530000B6010E943E3187FD2CC020E030E048EC21
:1053100053E4C701B6010E949632181614F1F894AE
:10532000C0925004D0925104E0925204F09253047F
:105330007894609126047091270490E080E00E94A8
:10534000E4319B01AC0160EC71EE84E69CE40E94C8
:105350004331A70196010E9443310E94B5310E945A
:10536000801B1092590410925804F89480E690E043
:105370009093270480932604609128047091290457
:105380000E942933709334046093330484E090E0E6
:1053900090933704809336047894809158049091C8
:1053A0005904019741F1F89480E090E0A0EFB2E455
:1053B0008093500490935104A0935204B0935304EB
:1053C0007894609126047091270490E080E00E9418
:1053D000E4319B01AC0160EC71EE84E69CE40E9438
:1053E000433120E030E040EF52E40E9443310E941C
:1053F000B5310E94801B85E39CE190932304809348
:10540000220480E39CE190932504809324048BE2A2
:105410009CE190932104809320040E94800C0E94C0
:10542000AF0D609354047093550480935604909389
:105430005704E0912204F0912304309709F0099574
:105440008091580490915904892B09F00FC282E091
:1054500090E090931D0480931C046CE08FED95E028
:105460000E94AA1C65E08BEE95E00E94AA1C60E0F9
:1054700085E10E944E0D85E18093F70560E084E1AF
:105480000E944E0D84E1809303068091680086603F
:105490008093680080916D00806180936D008091A1
:1054A0006C00886080936C0061E087E00E944E0D84
:1054B00087E080937E0515E010937D0561E088E02C
:1054C0000E944E0D88E0809385051093840561E06D
:1054D0008AE00E944E0D8AE080938C0510938B0524
:1054E00061E086E00E944E0D86E080939305109364
:1054F000920561E089E00E944E0D89E080939A0553
:105500001093990561E08BE00E944E0D8BE0809333
:10551000A1051093A00561E083E00E944E0D83E099
:105520008093A8051093A705E091E904F091EA049F
:1055300030E020E040E06AE085EE94E0099585EEF9
:1055400094E00E94112185EE94E00E94E7208111F1
:10555000FACF60E085EE94E00E943819E091E9040A
:10556000F091EA0430E020E040E06BE085EE94E06A
:10557000099590E080E00E9458308B3A09F08AC08B
:105580001A821982BE016F5F7F4F81E090E00E9416
:10559000862089819A819093FF058093FE05BE0144
:1055A0006F5F7F4F83E090E00E94862089819A811F
:1055B0009093010680930006BE016F5F7F4F85E0E8
:1055C00090E00E94862089819A819093FD058093C6
:1055D000FC05BE016F5F7F4F87E090E00E94862050
:1055E00089819A8190930B0680930A06BE016F5FB2
:1055F0007F4F89E090E00E94862089819A81909374
:105600000D0680930C06BE016F5F7F4F8BE090E02C
:105610000E94862089819A819093090680930806CA
:1056200064E673E08DE090E00E9486206AE071E01D
:105630008FE090E00E94862062E673E081E190E0D6
:105640000E94862068E071E083E190E00E9486205D
:1056500063E573E085E190E00E947C2066E071E004
:1056600087E190E00E94862065E071E089E190E0AA
:105670000E947C208091060190910701419730F0B3
:1056800084E090E09093070180930601809153039A
:105690008093B70580917A00887F80937A0080910B
:1056A0007A00846080937A0085EF9DE19093F40501
:1056B0008093F3058EEA9DE19093E8058093E705DA
:1056C00081E39EE19093AB058093AA058BEB9DE06F
:1056D0009093B1058093B00587EF91E29093AF0569
:1056E0008093AE05912C812C9E012F5F3F4F690165
:1056F0007AE0A72EB12CE0E56E2E712C8FED95E0AF
:105700000E943A1C8BEE95E00E943A1C4091C30522
:105710005091C4056091C5057091C605E091B4052E
:10572000F091B50510E000E0E417F50709F441C079
:105730008091CB059091CC05A091CD05B091CE057F
:105740000091CF051091D0052091D1053091D2055F
:10575000801B910BA20BB30B9A012E1B3F0B3093B6
:10576000B3052093B2055093B5054093B40580313D
:105770009105A105B10508F07CC0C901880F991FEA
:10578000280F391F3093B3052093B2058091B705D8
:10579000882359F08091B2059091B3059195819538
:1057A00091099093B3058093B2050091B2051091D1
:1057B000B3058091D3050E94F70C7C0183ED95E041
:1057C0000E943A1CEF2809F05CC0012B09F460C06C
:1057D00081E08093B605E091AE05F091AF0530977A
:1057E00029F08091B2059091B30509958091D90572
:1057F0009091DA05029709F45CC087EF95E00E946A
:10580000BE1C83E096E00E94BE1C09E715E036E06E
:10581000831691040CF065C0D80116968C918823EC
:10582000F9F00E94AF0DF80120813181428153814E
:105830001B012C01221A330A440A550AB201A101A4
:10584000848190E0B0E0A0E0481759076A077B0721
:1058500038F060E085810E94200DD80116961C92D8
:10586000BFEF8B1A9B0A095F1F4FD1CF81E090E0F9
:10587000F0CD8097A105B10508F088CF220F331F26
:1058800081CF012B29F0E091B005F091B105A7CFB0
:105890008091D9059091DA058230910591F480913B
:1058A000B605811106C0E091AA05F091AB053097CD
:1058B000B1F48091B605882309F49FCF1092B60504
:1058C0009CCF039709F099CF8091B605811195CFB0
:1058D000E091AC05F091AD05309709F48ECF0995B4
:1058E00085CF0091F8051091F905E0900406F0903D
:1058F00005068091660390916703892B09F0ACC07F
:10590000E0910A01F0910B0180916403909165038D
:105910009F01F7FF02C02F5F3F4F359527951C0170
:10592000221A330A9101F7FD3196F595E795E80FB4
:10593000F91F8091080190910901609162037091B3
:105940006303AC0197FF02C04F5F5F4F55954795CA
:105950002B01441A550AA20197FD0196959587954A
:10596000680F791F509061038091060190910701A3
:10597000552049F0281B390BE80FF91F02171307B0
:105980004CF4512C0CC0280F391F021713073CF0A0
:10599000E81BF90B55245394E017F10794F3209179
:1059A0006003222399F0481B590BE416F506C4F056
:1059B000860F971F8E159F059CF044244394552015
:1059C000A9F0252C452C352C80E020C0480F591F0C
:1059D000E416F5062CF0681B790B6E157F056CF745
:1059E000212C412C312C552079F3412C80915F03DF
:1059F000382E212C81110AC080915E0391E0892705
:105A000080935E03212C3324339481E080935F03E1
:105A1000652D89E795E00E94401E642D80E895E0A1
:105A20000E94401E622D87E895E00E94401E632D73
:105A30008EE895E00E94401E642D652585E995E07D
:105A40000E94401E60915E038CE995E00E94401E1A
:105A5000509261034092600380915D038823B9F006
:105A60000E94AF0D2091590330915A0340915B037E
:105A700050915C03621B730B840B950B6938734167
:105A80008105910520F00E94632110925D038091B1
:105A9000660390916703009709F0C7C180910501E3
:105AA000882309F18091030190910401A801481B0A
:105AB000590BCA0157FF03C09195819591090D9724
:105AC0007CF48091010190910201D701A81BB90BD0
:105AD000CD01B7FF03C09195819591090D971CF0F9
