:100000000C94D70B0C94FF0B0C94FF0B0C94FF0B70
:100010000C9483250C94EA240C94FF0B0C94FF0B96
:100020000C94FF0B0C94FF0B0C94FF0B0C9403230C
:100030000C94FF0B0C94FF0B0C94FF0B0C94FF0B18
:100040000C9415210C94FF0B0C94A4220C947E228A
:100050000C94FF0B0C94FF0B0C94FF0B0C94FF0BF8
:100060000C945F210C94FF0B56000000000024004C
:1000700027002A0000000000250028002B000000B7
:1000800000002300260029000404040404040404DE
:100090000202020202020303030303030102040833
:1000A00010204080010204081020010204081020E2
:1000B0000000000800020100000304070000000027
:1000C00000000000BF0002020304030504060A004A
:1000D000FE07FE07000142029207B32005006207F7
:1000E0002107394367A80022079B52275901230D96
:1000F0003D42AF4C69A86AA8322500240B3D423727
:10010000AF7AA7B42300250B3D422FAAEEAA2513F0
:1001100000260C3D422FA7987295645401270519BB
:1001200053672808BB42379575012908BB422797BA
:1001300055092A0A2D4627A76AA876002B0A2D46BC
:1001400037A3386446112C079B3E4F95002D060DB2
:100150004E67082E079B3E2FAD042F0B3D421F65B7
:1001600094BB514600300A3D4237A7DA4E75043140
:100170000C3D4237CB94514619C521320C3D426F9C
:10018000E58CA2CC190D01330C3D42676894B3860F
:100190003A2D00340C3D423FCB54A6A1334A0035E2
:1001A0000B3D42E746C9CC48A705360B3D4257E612
:1001B0008C92A9D302370C3D4267689433CA35CA82
:1001C00000380B3D426F659D56D66901390C3D42A2
:1001D0006F65A95446394A003A0ABB3E2FAD0CD38D
:1001E0004A003B09BB3E2FAD0C55093C0ABC423FBF
:1001F000B6514619053D081D4A676838043E0BBCD8
:100200004227A38C328A6D003F0A3D426FE536CA11
:100210007404400B3D426F65B99295E102410B3D7C
:100220004237A75A8F917500420C3D4267C42AA6F7
:1002300059C5A100430C3D426F658D32CA28A70500
:10024000440D3D4267C42AA698628A4301450C3D8D
:1002500042E746198D94514643460D3D42E7461903
:100260008D9451461901470C3D426F658D328A3B92
:100270002D0048093D4227DB63643B4908BB4267C8
:10028000C5AE014A0C3D4277679451466594004BD8
:100290000B3D4227CB54EA14AB1C4C0E3D4227A326
:1002A0008C32CA28A38C86004D0A3D4227EBB592BA
:1002B000B6034E0A3D4227EBA992DC3A4F093D4274
:1002C0006F65EFB400500D3D4267A4AC87CA28A308
:1002D0008C00510A453E6F65AF6AC300520B3D4228
:1002E00067A4AC872AAB1C530B3D426F650D37D416
:1002F0006901540E3D4267C88C32CA28A38C220083
:1003000055083D4227FB4E0B560B3D4227DBA94CBF
:1003100031E508570A3D4227BB924A7700580A3D0B
:100320004227EB5457B50E590C3D4227EB546794C6
:100330005146115A0A3D42676894BBD1105B08BB15
:100340004267C4CE015C0D3D4227A30C33CC30C3C1
:100350008C025D08BB4267768E005E071D5237A790
:100360003A5F060D3E67086006125B2706610A2D9C
:10037000426FC334741A01620C3D4227A38C92A9C8
:10038000A75200630A2D426F658D725A00640B3DBF
:10039000421F6594CC2D950A650A2D426FE53132D6
:1003A0005C00660C3D42575679C48C32CA00670C1B
:1003B0003D3A6F689D46463A2D00680B3D4227A3A3
:1003C0008C92A9ED006908BB422F23D91A6A0BCC85
:1003D0003A3F635D4B9914006B0C3D4227A38CB2EE
:1003E0004CB3CA016C07BB4247F61A6D0A2D42474F
:1003F000B5545249076E082D422799DA0E6F092D20
:10040000426F653B2D00700C3D3A27997A2A955131
:100410004600710B3D3ACFDC52A98C320A720B2D8B
:100420004227991A65941100730A2D426F65B8E14D
:100430005000740D3D422FA33C624619C5A80075BB
:10044000082D42273B950A760A2D4227EB54A61C1D
:100450000177092D42275B49750178092D4227A7AD
:10046000BAAA03790B3D3A279B4A65A4D3027A08BE
:100470002D4267E8F6107B0BBC42576594348A190D
:10048000097C063943E7087D0CBC4247A39891CA12
:100490002849007E091D522FAA241300A0050062DE
:1004A00007A1073943270D01A20C3D3E370F155315
:1004B0004C79C408A30B3D4257567967149502A4A2
:1004C0000A2D4227A799E2CA01A50D453E27EB5404
:1004D000C72133CA2802A6063943670DA70B453E3C
:1004E0006F65343B374A0BA8068B5E2705A90C3D88
:1004F000426F6595A64A3A2D00AA0AB4466F44A5F4
:100500006A3402AB0B2E42B78A29E6986300AC0727
:10051000944A67E400AD068C4E6704AE0B3D426F13
:10052000E591E6D46901AF060D5E6708B0069B52FF
:10053000AF0BB10B354237A33864467108B208AC33
:100540004E4FC5E608B30AAC4E67A3A4D14800B429
:1005500006125B4F01B50A353E27DB53A98C00B666
:100560000E3D426F8C34525231C5145300B7050909
:100570004F27B806123B4F01B907AB4E2FC96ABAD5
:100580000AB4464F4599341C01BB0C2E4227E6980D
:10059000638A294600BC104E3E2F230D33CC68667B
:1005A000A4531C1906BD104E3E2F230D33CC686595
:1005B00054C38C321ABE0E4D3E47C39C619459A65B
:1005C00034320ABF0A3D4237D319E5D602C00C4582
:1005D000422FC3BCB21E23EB00C10B4542BF5E5984
:1005E0008F917500C20C454237A7B8B21E23EB00AD
:1005F000C30C45422F2AB9B21E23EB00C40B45425F
:10060000AFA656D663641DC50C454237A7B8B21EC7
:1006100023EB00C60B3E4277A4B239466C0EC70DE1
:100620004D3A6F658D32CA28A75D03C80E45422F2B
:100630008F8D321A29A38C8600C90E45423F8D8DBD
:10064000321A29A38C8600CA0E4542378E8D321A83
:1006500029A38C8600CB0E4542AF1A1B6534524647
:10066000190D01CC09C34227A7155B03CD09C3426D
:1006700037A5155B03CE09C342AF1A29B606CF09C9
:10068000C34227E5155B03D00D3D4267C42A8E5453
:10069000A6381400D10B454237754F95E4D601D2E8
:1006A0000B45422FC3BCB23B2D00D30A4542BF5E6F
:1006B000D99D1600D40B454237A7B8B23B2D00D5C3
:1006C0000A454237355776A705D60A4542AFA656A2
:1006D00076A705D7092D4227A7BAAA03D80B3D4212
:1006E0006FC52BCD991600D90A45422FC3DA3B2D91
:1006F00000DA094542BFCCDE6901DB0B454237A772
:100700008CB33B2D00DC0A4542AFC6D93B2D00DD42
:100710000C4542BFCC3AD519651401DE0E3D422787
:10072000A391F2501965941100DF0B3D426F65995A
:10073000CA2A2B05E00C45422FC34C6E98864E23E7
:10074000E10B4542BF26374C43A711E20C45423727
:10075000A74C6D98864E23E30C454237B5A90DD3BF
:10076000D06904E40B3D42AFA6364C43A711E50C1B
:10077000454237A79C374C43A711E60B2E426F64C6
:10078000548D998700E70B3D3A6F658D72DA35001D
:10079000E80C45422FC34CAE3C46860BE90B454264
:1007A000BF26571E23C305EA0C454237A74CAD3C74
:1007B00046860BEB0B3D42AFA6561E23C305EC0944
:1007C000C3422767245B03ED08C342AF86B235EE10
:1007D00008C342AF2D5B03EF08BB422765D91AF06F
:1007E0000B3D424743B9B29D1600F10A454237B569
:1007F0007132B51DF20B45422FC34CAE6CA705F309
:100800000A4542BF2657B6D302F40B454237A74CE0
:10081000AD6CA705F50B454237B5A995EDB400F6CB
:100820000A3D42AFA656B6D302F7092D46375343C9
:100830005311F80A2D426FC895E65000F90B454256
:100840002FC34C65A75201FA0A4542BFA6B253A96D
:1008500000FB0B454237A78CB353A900FC0A3D426D
:10086000AFC6D9A95400FD0C4D3ABFCCA65219E928
:10087000B400FE0D453A27A391B23D54461901FF3D
:100880000D4D3AAFC6D9542A239D1600000000042E
:10089000FFFF0000BF00020203030304040507007A
:1008A000FF06FF0600010A0216062F200500BD0103
:1008B0002106B1B1192922075BB7495600230A2D39
:1008C000B1AB86AA86AA0024092DB15BF54E690159
:1008D000250834B1C9B1770026092CB18B295631CE
:1008E00005270599B719280772B153CD0029087259
:1008F000B189A952002A076BB149D56A2B0A2DB1DB
:10090000CD280E9951042C075BAF5325002D060C02
:10091000B519012E0652B119012F0724B38F6D00AE
:10092000300873B1AB5C1500310773B14BB235328F
:100930000934B15331C77204330A34B11939692407
:100940009302340A34B18DAA1A312700350A34B122
:10095000197A23991400360A34B153794599140051
:10096000370A34B11939E6982300380A34B15331C3
:10097000A9289302390A34B15351A69D14003A07AD
:100980006AB11971043B0833AFB3912A013C076B7C
:10099000B14D75013D081CB319198D003E076BB1AF
:1009A000C955093F0973B16BA60C1300400934B156
:1009B0005351DD4801410934B153518E2903420A94
:1009C00034B15971A4284702430934B153519749AE
:1009D00001440934B159D1391200450934B1197AA9
:1009E000E53C02460834B1197AE51A470934B15397
:1009F00051A79906480834B189724C33490773B13D
:100A000059B1354A0834B16FCBA4004B0A34B189CF
:100A10002A4999CA004C0734B1C9DD234D0934B1C4
:100A200089E38866004E0834B1896BA9334F0934D5
:100A3000B153D1991400500A34B159518E943300F6
:100A4000510A3CAF53D15C49A300520934B159510A
:100A50008ED40C530A34B1533165542605540773B0
:100A6000B159B10B550834B1899E4901560934B1C9
:100A700089CE241500570934B189E6386200580A36
:100A800034B1893249156500590873B14956590185
:100A90005A0934B11939B647005B0773B119B13936
:100AA0005C0924B3C928A38C025D0773B199CD11E9
:100AB0005E0553B96B5F060CB11901600652B98926
:100AC00001610824B11B51A902620A34B1C97945F8
:100AD000391200630623B19B59640834B1AF4694C0
:100AE00069650824B153696405660934B1ADCA99D2
:100AF000230067092CAF1B31A98C06680834B1C9E3
:100B0000794533690873B1CB4856036A097BAFCD89
:100B1000B05415006B0934B1C95592A90C6C077318
:100B2000B1915D036D0824B1496948196E0724B17C
:100B300059D10C6F0824B15351260570092CAF59B7
:100B4000518E940171082CAF1B51A61D720824B15F
:100B500059516700730824B11B1A0D05740934B18B
:100B6000CB71E68C04750724B189661A760763B1E8
:100B7000495605770724B189721C780824B1894940
:100B8000AA1879092CAF89329525007A0824B11961
:100B9000B11C017B0873B14D49D6017C05B1B13957
:100BA0007D0973B1C951C514017E0714B94B2A01DF
:100BB000A00500BD01A106B1B14923A20934AF8D42
:100BC00023356702A3082CB155715602A40A2DB132
:100BD000C969A6B87200A50973B149AA5A3101A61C
:100BE00006A9B15102A7087BAF9BAA920BA8064B9E
:100BF000BB4901A90B3DAF5B59A5A9924E0BAA06B3
:100C00001BB75B49AB071DB38BB201AC0614B3191C
:100C100039AD054BB519AE0B3DAF5B79A439755AAB
:100C200000AF060CBB1901B0065BB7EB02B10B3588
:100C3000B1CD280E99511C02B20662B55106B30619
:100C400062B51969B40652B95300B5082CAF89E6EC
:100C50004819B60834B11B6AF503B70652B5190135
:100C6000B80652AF5300B90763B54B320DBA061B35
:100C7000B7EB02BB081DB389A54C00BC093CAFC94A
:100C8000CDA87600BD093CAFC92D1DB300BE0A3CFE
:100C9000AF913AAAA87600BF0973B1CB30C5540111
:100CA000C00934B153518E2903C10934B153518E57
:100CB0002903C20934B153518E2903C30934B153F6
:100CC000518E2903C40A34B18949C5316500C5096B
:100CD00034B1932A8E2903C60934B11BA91AAA2557
:100CE000C70A3CAF535197494600C80934B1197A35
:100CF000E53C02C90934B1197AE53C02CA0934B1AC
:100D0000197AE53C02CB0934B1197AE53C02CC07EB
:100D100073B159B135CD0773B159B135CE0773B140
:100D200059B135CF0773B159B135D00934B199698B
:100D3000758D04D10834B14973A933D20934B15344
:100D4000D1991400D30934B153D1991400D4093482
:100D5000B153D1991400D50934B153D1991400D6A7
:100D60000A34B1894945332900D70824B18949AAF1
:100D700018D80934B11BE9484702D90834B1899E13
:100D80004901DA0834B1899E4901DB0834B1899EF2
:100D90004901DC0A34B1891945332900DD0873B1F2
:100DA00049565901DE0A34B1C92B8E943300DF094C
:100DB00034B15351955602E00A34B1CB288EA85471
:100DC00001E10934B1AD4754AA00E20934B1ADD212
:100DD000884A15E30A34B14B2A8EA85401E4093439
:100DE000B1ABE1884A15E50934B1937244A50AE62E
:100DF0000824B11B69C501E7086BAF9B592500E8C2
:100E00000A34B1CB28AA34B202E90934B1AD551A7B
:100E10005901EA0A34B18B29AA34B202EB0A34B17F
:100E20004919AB34B202EC0873B1C9495603ED0756
:100E300073B12B6535EE0773B1AB6635EF0873B14F
:100E400049595603F00A34B1CBC88A322900F10956
:100E500034B14B2AAD6806F20A34B1CB28AA2893E4
:100E600002F30934B1AD55944901F40A34B1D358B1
:100E700045991400F50A34B14B2AAA289302F60AC0
:100E800034B1ABA18A322900F7092CB1D37064A820
:100E900000F80924B11B69A49100F90934B1CBA869
:100EA00034D300FA0734B16D9A69FB0834B1D330FA
:100EB0009A69FC0934B1AB5134D300FD093CAF6DE4
:100EC000CA549600FE0A34AFC92BCA913200FF0AF9
:100ED0003CAFAB5194A92C0100000004FFFF0000BF
:100EE000E00002020304030404060B00FE07FE08F0
:100EF000FF013D028908AE200500A203210739A3A6
:100F000033540022079BB693AC00230A2DAA570D39
:100F1000550D5501240C4D9E9B57A5F24EAADA1192
:100F2000250C3DA237543253542AC904260B3DA246
:100F300027ABBA4A32AA00270519B7332808CB9E37
:100F40009BCAEE022908CB9E93CBAE122A092DAA8A
:100F50005B55AB19012B0A2DA69B511C32A3082C03
:100F600007A29A3392022D058BAE332E0612A333BD
:100F7000022F10559A8F32CA19E58C724639A38C0C
:100F800000300B3DA2B7B25C69EAB400310C3DA25F
:100F90001B37CA28A38CE210320A3DA2B77246B9A9
:100FA0003D04330C3DA2B7724651439D1600340AEE
:100FB0003DA29F652AD3D079350C3DA273A39161E0
:100FC000463A2D00360B3DA2B7321A29DB690137AC
:100FD0000C3DA23334CA28D728A308380B3DA2B74A
:100FE000B24E2BEBB400390B3DA2B7B29D46466919
:100FF000013A072AA333E2083B08BA9A33E2480AC7
:101000003C0ABCA21FDB28A38C023D081DAA333476
:101010001C023E0BBCA293514619C536003F0B3D46
:10102000A2B77246B9A62300400C3DA2B7B21A2956
:10103000A991E108410B3DA29B534CF51859074279
:101040000C3DA23352D643653D1400430C3DA2B77C
:10105000B246196594D30244093DA23352F61E0AE2
:10106000450C3DA273A38C46CA28A321460D3DA280
:1010700073A38C46CA28A38C00470B3DA2B7B24687
:1010800071EBB40048093DA293ED31B21D490D3D0D
:10109000A2336446196594511C024A0C3DA28F325A
:1010A000CA2823ADD3024B0B3DA293652A758A55FE
:1010B0000E4C0D3DA29351461965945146434D0A7D
:1010C0003DA293D74A2A693B4E0A3DA293A74A7292
:1010D000DB014F093DA2B7B2775A00500D3DA23354
:1010E00052D6436594514600510A459EB7B257B552
:1010F0006100520A3DA23352D643653B530B3DA2D9
:10110000B7B2861BEAB400540D3DA233644619659C
:101110009451461155083DA2937DA705560B3DA25B
:1011200093ED54A69C510457093DA2935D49A53BFC
:10113000580A3DA29375AAAB5A07590B3DA293EDED
:1011400054679451045A0A3DA23334CADD68085BDF
:10115000074A9FB3FA125C11D59A93518619659884
:10116000518619659851005D07CA9EA3FA1A5E0759
:101170001DB29B531D5F050E9A73600692BA13034E
:1011800061092DA237B4A95400620C3DA2935146C7
:1011900023657B2800630A2DA2B7B246198E00642E
:1011A0000B3DA28F324A43DB6904650A2DA2B7F2D8
:1011B00018198E006609BCA2ABE2CC4D00670B3D4E
:1011C0009A37B49D46466901680B3DA29351462368
:1011D0006577006908BBA297916C0D6A094B9A9BD1
:1011E00091EC5C006B0C3DA29351463195B3CA0162
:1011F0006C07BBA2237B0D6D0B2DA23352A5924A27
:10120000AA006E082DA2934C6D076F092DA2B7B2EC
:101210009D1600700C3D9A3352B687CA2823007180
:101220000B3D9A37B49D46461905720A2DA2934C80
:101230008D32CA08730A2DA23734DC702800740975
:10124000BCA297E3CC351275082DA2939D4A057672
:101250000A2DA293752A538E00770B2DA293924AE2
:101260002AA92E0078092DA293535DD501790B3D53
:101270009A93DD69649416007A082DA233747B0872
:101280007B0ADB9A9B622BC776007C06499FF300A2
:101290007D0ADB9A93633BC556047E0615AEE702D2
:1012A0007F0500A203800500A203810500A203823E
:1012B000071A9E97140083105D9A2F33CA28EF8C6B
:1012C00032CA28A3A80184071C9ED7520985060D9F
:1012D000A2930A8608ABAA9756AC008708ABAA97D8
:1012E000565A09880693BAD700890E46A237564B3C
:1012F0006BA492EA9912008A0C4DA257E79535DC4F
:1013000050A7058B0722A2A762008C0C3DA2375480
:101310004C31A932E5118D0500A2038E0500A20310
:101320008F0500A203900500A20391071AB3A7122C
:101330000092071AB397140093079CB297540B942A
:10134000079CB2D7520995082DA6777C2D009605EB
:101350008BAE3397050EAE73980615BAE70299095E
:101360001EB23352B5D2009A0C45A257677268B8C4
:10137000E150009B0722A21393029C092DA2D7A53E
:1013800046CA499D0500A2039E0500A2039F0D4D7C
:10139000A257E36CA73AA38C2200A00500A203A1E8
:1013A00007B9A3938600A20C3D9E9B57A562CA2352
:1013B0004600A30D45A227AB8C664619E5A100A403
:1013C0000A2DA293D34C71E500A50C3DA293533591
:1013D000641C32A308A607499F33D208A70D559E67
:1013E000B7728A2AF69229A705A8068BBA9302A992
:1013F0000C3DA2B361543AA99C2600AA0AB4AE37A8
:10140000A24C1B8D00AB0825A217658A0DAC081DE8
:10141000A63334CA28AD060DAE3304AE0B35A6B3E1
:1014200061922A4DA500AF058BBA33B008A4B2A7CC
:10143000A24C0AB10B35A29B511C32A33804B2074F
:10144000A3B6A3531AB308ABB2A3935C00B40713BB
:10145000BB371200B50D3D9A13534C31C5B434CA95
:1014600008B60E45A2375452495523A698620AB7CA
:101470000612AB3302B8079B9AB34602B907A3B66C
:1014800023AB01BA0AB4AEA7A24C1A8E00BB092541
:10149000A2135B512600BC114EA2A3618679A48CD5
:1014A000322A934A1B2600BD0F4EA2A3618679A45F
:1014B0008C329A596734BE104EA2A37146B24A2AA2
:1014C000A332A9B46102BF0A3DA29BE936CA6901F1
:1014D000C00E4DA297614639C5548F917500C10C5D
:1014E0004DA25FA39C62AAC7C83AC20C4DA29B53EF
:1014F0002673AAC7C83AC30B4DA2E7AE62AAC7C8F3
:101500003AC40D4DA2579339C5548F917500C50C3F
:101510004DA29B53AE6A3D46D601C60C3DA2375440
:101520004C71A432C534C70D4D9AB7B246196594B3
:10153000D3AE01C80F4DA297611C1B6534524619EA
:101540000D01C90E4DA25F8E8D321A29A38C860023
:10155000CA0F4DA29B531A1B65345246190D01CB7D
:101560000E4DA257E3B15146236594D110CC0F4DD7
:10157000A297611C32A38C32CA280E01CD0E4DA257
:101580005F0E9951461965148700CE0E4DA29B53EC
:10159000C643669451467108CF0E4DA257E32133DE
:1015A000CA28A38CE210D00C3DA237AB3852996206
:1015B0005A00D10B4DA2E7CA5325B9ED00D20B4D0D
:1015C000A297615ED93B2D00D30A4DA25FAFEC9D7F
:1015D0001600D40B4DA29B53A65676A705D50A4DEF
:1015E000A2E75CD93B2D00D60A4DA257532B7BA70F
:1015F00005D7092DA693535DD501D80B3DA2B7B2EF
:101600005C69EAB400D90A4DA29761ED3B2D00DA7E
:10161000094DA25F66DF6901DB0B4DA29B53C6D962
:101620003B2D00DC0A4DA257E3EC3B2D00DD0C4DB9
:10163000A25F663BD519651401DE0D3DA293D1482A
:10164000590F95514600DF0D4D9E2BA39629A66C90
:10165000A98C00E00B45A29B61A68636950AE10A9B
:1016600045A25F93439B4A05E20B45A29B53A68686
:1016700036950AE30A45A2E7A68636950AE40A3DAE
:10168000A25753439B4A05E50B45A29B53CE439B70
:101690004A05E60A2DA2B72A35521E01E70C3D9AEB
:1016A000B7B246198E983300E80C45A297612657C9
:1016B0001E23C311E90B45A25F932B8F91E108EA2A
:1016C0000C45A29B53A6561E23C311EB0B3DA257FC
:1016D000532B8F91E108EC09C3A2933392AD01ED36
:1016E00009C3A29B3292AD01EE08C3A2D796AD0109
:1016F000EF08BBA293B26C0DF00B45A2A7358C434B
:10170000DB6901F10A45A2E7C6C9D47600F20B45B0
:10171000A297612657B6D302F30A45A25F932BDB4B
:101720006901F40B45A29B53A656B6D302F50A45B0
:10173000A2E7A656B6D302F60A3DA257532BDB69A1
:1017400001F7092DA69BA9A1A908F80A2DA2B7E2C5
:101750004A332D00F90B45A29761A6B253A900FAAE
:101760000A45A25F53D9A95400FB0B45A29B53C65F
:10177000D9A95400FC093DA257E3EC542AFD0C55AD
:101780009A5F53D99D46466901FE0E4D9A93514684
:1017900023657BA88C3202FF0C4D9A57E3EC4E2355
:1017A000A3B40000000004FFFF000000A7251124DF
:1017B0001FBECFEFD8E0DEBFCDBF12E0A0E0B1E0AA
:1017C000E2E6FBE602C005900D92AA32B107D9F716
:1017D00025E0AAE2B2E001C01D92AE3CB207E1F7FB
:1017E0001BE0C7EDDBE004C02197FE010E949831A9
:1017F000C63DD107C9F70E9497270C94AF350C94CA
:101800000000662329F06A3019F0862F90E00895D1
:101810008FEF9FEF0895AF92BF92CF92DF92EF923A
:10182000FF920F93CF93DF93EC01DA017901942FAC
:101830009770E1E0F0E09F01092E01C0220F0A94A9
:10184000EAF7522F6E018AE8C80ED11CF60180819A
:1018500040E0823018F4422F813049F15D01F8EF09
:10186000AF22E8ADF9AD28813981D90150968C912C
:101870008A9D90018B9D300D1124620F731FDF0133
:10188000A60FB71F01111AC0EA0EFB1E8C91842B04
:1018900085278D93AE15BF05C9F7DF91CF910F91C5
:1018A000FF90EF90DF90CF90BF90AF90089550E001
:1018B000D5CF440F550FE114F10479F33C91342B4B
:1018C00035273C939F5F9770E1E0EE1AF108911184
:1018D000F0CF2CAD3DADA20FB31FF6018081823059
:1018E00028F4813009F051E041E0E5CF51E0E3CF49
:1018F00080E0089590E080E0089580932C0508959D
:101900001092E7031092E8031092E9031092EA03A1
:101910001092EB031092EC031092ED031092EE0381
:101920001092EF031092F2031092F5031092F60357
:101930001092F7031092F8031092FD031092FE0329
:101940001092FF03109200041092F9031092FA0310
:101950001092FB031092FC0310921B0410921A04C5
:10196000209117043091180480E090911904891790
:1019700060F494E0899FF0011124E20FF31F1082BC
:101980001182128213828F5FF0CF08959B01DC01D8
:101990001896ED91FC9141E067E10994833081F064
:1019A00028F4813099F08230A9F008958730A9F0A9
:1019B0008830C9F08430B1F4809180008F7D03C0FD
:1019C000809180008F7780938000089584B58F7711
:1019D00084BD089584B58F7DFBCF8091B0008F7753
:1019E0008093B00008958091B0008F7DF9CFCF93A0
:1019F000DF93282F30E0F901E055FF4F8491F90182
:101A0000E456FF4FD491F901E857FF4FC491CC231E
:101A1000A1F081110E94CE0CEC2FF0E0EE0FFF1F21
:101A2000E258FF4FA591B491EC91ED2381E090E055
:101A300009F480E0DF91CF91089580E090E0FACF43
:101A40001F93CF93DF93282F30E0F901E055FF4F2C
:101A50008491F901E456FF4FD491F901E857FF4F03
:101A6000C491CC23A9F0162F81110E94CE0CEC2F2B
:101A7000F0E0EE0FFF1FEC58FF4FA591B4918FB728
:101A8000F894EC91111108C0D095DE23DC938FBF40
:101A9000DF91CF911F910895DE2BF8CFCF93DF9385
:101AA00090E0FC01E456FF4F249188579F4FFC01C2
:101AB00084918823C9F090E0880F991FFC01E659B2
:101AC000FF4FA591B491FC01EC58FF4FC591D49103
:101AD00061110DC09FB7F8948C91209582238C934F
:101AE0008881282328839FBFDF91CF91089562309A
:101AF00051F49FB7F8943C91822F809583238C9367
:101B0000E8812E2BEFCF8FB7F894EC912E2B2C93EE
:101B10008FBFEACF3FB7F89480912A0390912B03AF
:101B2000A0912C03B0912D0326B5A89B05C02F3F93
:101B300019F00196A11DB11D3FBFBA2FA92F982FF3
:101B40008827BC01CD01620F711D811D911D42E0EE
:101B5000660F771F881F991F4A95D1F708952FB7F1
:101B6000F894609126037091270380912803909147
:101B700029032FBF0895AF92BF92CF92DF92EF92C9
:101B8000FF920F931F93CF93DF936C017B018B0127
:101B9000040F151FEB015E01AE18BF08C017D10777
:101BA00059F06991D601ED91FC910190F081E02D01
:101BB000C6010995892B79F7C501DF91CF911F9156
:101BC0000F91FF90EF90DF90CF90BF90AF9008956E
:101BD0002091C102260F3327331F21323105ECF447
:101BE0002091E702FC0190E080E0243069F082E07F
:101BF0000895A091C1022191AC0141565D4FA40FFF
:101C0000B52FB11D2C930196861798F38091C102D0
:101C1000680F6093C10280E0089581E008951092FA
:101C2000E70281E08093E9021092E80261E082E13C
:101C30000E94200D61E083E10E94200DE9EBF0E0BD
:101C400080818E7F808380818D7F808388E48093F4
:101C5000B80085E48093BC000895CF93DF9391E0B2
:101C600090939E028823B9F0C091B800D091BA0039
:101C70008091BC008A7B8093BC0060E082E10E947E
:101C8000200D60E083E10E94200D0E940F0ED09392
:101C9000BA00C093B800DF91CF91089508950895D8
:101CA0000895E091960280919502E81730F4F0E0F3
:101CB000EB58FD4F808190E008958FEF9FEF0895DE
:101CC00090919602809195022FEF3FEF981748F47C
:101CD000E92FF0E0EB58FD4F208130E09F5F9093BB
:101CE0009602C90108958091950290919602891BF0
:101CF000990B0895CF92DF92EF92FF920F931F936B
:101D0000CF93DF937C01CB018A01209174022223BF
:101D100089F0EB016B01C40ED51ECC15DD0569F011
:101D20006991D701ED91FC910190F081E02DC701FF
:101D30000995F3CF642F0E94E80DC801DF91CF9180
:101D40001F910F91FF90EF90DF90CF900895CF9368
:101D5000DF931F92CDB7DEB76983209174022223EF
:101D6000F9F020919702203258F021E030E0FC0198
:101D70003383228390E080E00F90DF91CF9108952C
:101D800080919802E82FF0E0EC5AFD4F9981908302
:101D90008F5F809398028093970281E090E0ECCF70
:101DA00061E0CE0101960E94E80DF7CFFC01538D52
:101DB000448D252F30E0842F90E0821B930B541725
:101DC00010F0CF96089501970895FC01918D828DB2
:101DD000981761F0A28DAE0FBF2FB11D5D968C914B
:101DE000928D9F5F9F73928F90E008958FEF9FEF8A
:101DF0000895FC01918D828D981731F0828DE80F46
:101E0000F11D858D90E008958FEF9FEF0895FC01FF
:101E1000918D228D892F90E0805C9F4F821B9109CC
:101E20008F73992708958AE393E00E94070F21E0BA
:101E3000892B09F420E0822F089580E090E0892B1F
:101E400029F00E94130F81110C9400000895FC01E9
:101E5000A48DA80FB92FB11DA35ABF4F2C91848D0B
:101E600090E001968F739927848FA689B7892C9368
:101E7000A089B1898C91837080648C93938D848DBB
:101E8000981306C00288F389E02D80818F7D8083BE
:101E90000895EF92FF920F931F93CF93DF93EC017E
:101EA00081E0888F9B8D8C8D98131AC0E889F98901
:101EB000808185FF15C09FB7F894EE89FF89608304
:101EC000E889F98980818370806480839FBF81E085
:101ED00090E0DF91CF911F910F91FF90EF900895C7
:101EE000F62E0B8D10E00F5F1F4F0F731127E02EA2
:101EF0008C8D8E110CC00FB607FCFACFE889F989DA
:101F0000808185FFF5CFCE010E94270FF1CFEB8DA9
:101F1000EC0FFD2FF11DE35AFF4FF0829FB7F894AD
:101F20000B8FEA89FB8980818062CFCFCF93DF93CB
:101F3000EC01888D8823B9F0AA89BB89E889F989E1
:101F40008C9185FD03C0808186FD0DC00FB607FC16
:101F5000F7CF8C9185FFF2CF808185FFEDCFCE0149
:101F60000E94270FE9CFDF91CF910895DC011A96E7
:101F7000ED91FC9130E020E00994DC011696ED91A2
:101F8000FC9130E020E040E069E10994DC01169624
:101F9000ED91FC9130E020E040E068E109949A0185
:101FA000DC011696ED91FC91462F67E10994EF92C2
:101FB000FF920F931F93CF93DF931F92CDB7DEB79E
:101FC0007C018B01D8016C91673129F150F46531A6
:101FD000A0F40F90DF91CF911F910F91FF90EF90A0
:101FE00008956A3118F16E3FA1F7F80141814983E4
:101FF00069E2C7010E94B60F0BC0F8014181498315
:10200000D7011696ED91FC9130E020E0C7010995CB
:102010000E5F1F4FD7CFF80181818983AE014F5FDB
:102020005F4F61E0C7010E94CF0FF2CF0F5F1F4FDC
:10203000D7011696ED91FC9130E020E040E0C70119
:102040000995C0CF462FDC011696ED91FC9130E04A
:1020500020E066E10994462FDC011696ED91FC9193
:1020600030E020E065E10994EF92FF920F931F9317
:10207000CF93DF93EC01042F79016D3009F446C052
:1020800050F46B30C9F1693009F49FC06A3009F42B
:1020900065C080E046C06E3009F452C06F3099F7D9
:1020A0000E94C60FF7011381110F110F110F6C89D8
:1020B000160F60E4CE010E942B10612F62956F70A5
:1020C0006061CE010E942B10612F6F70CE010E94C3
:1020D0002210F7016481606BCE010E942210F7018B
:1020E000408151816281660F660F660FCE010E94AA
:1020F000CF0F0150A1F72EC062E371E0442311F02D
:102100006DE271E0CE010E94D70F0AC0411110C0EC
:1021100066E271E00E94D70FE881F98182898C8B99
:1021200081E0DF91CF911F910F91FF90EF90089583
:102130006FE171E00E94D70FE881F9818389EFCFC9
:102140000E94C60F61E8CE010E942B10602FCE01C5
:102150000E942210CE010E94BD0FE2CFEA85FB85CE
:1021600030E020E040E068E2CE010995EE81FF8199
:1021700030E020E040E064E1CE01099541E06BE40D
:10218000CE010E94B60FE881F981448169E2CE0157
:102190000E94B60F40E06BE4CE010E94B60FE881CA
:1021A000F981448169E2CE010E94B60F41E06BE4FF
:1021B000CE010E94B60FE881F981458169E2CE0126
:1021C0000E94B60F67E371E09DCF8CE691E09983A2
:1021D00088831C8AA5CFDC011896ED91FC9130E034
:1021E00020E040E069E10994DC011896ED91FC9152
:1021F00030E020E040E068E10994CF93DF931F9244
:10220000CDB7DEB76983BE016F5F7F4F0E94C60CFA
:102210000F90DF91CF910895EF92FF921F93CF938C
:10222000DF93EC01162F7A010E94F41060E4CE01D6
:102230000E94FD10E885F9859701412F67E1CE01E5
:102240000995CE01DF91CF911F91FF90EF900C94F3
:10225000EB10EF92FF921F93CF93DF93EC01142FBB
:102260007901663181F138F4643109F44BC065318C
:1022700079F080E022C06831C9F150F16931C9F7C5
:1022800080915302882391F1CE010E94EB102EC061
:1022900080915302882319F0CE010E94EB10CE01E9
:1022A0000E94F41060E0CE010E94FD10612FCE016B
:1022B0000E94FD1081E080935302DF91CF911F9126
:1022C000FF90EF900895642F0E94FD1081E0F5CFFC
:1022D00080915302882319F0CE010E94EB10A701D0
:1022E000193138F4612FCE010E940C111092530263
:1022F000EDCF68E1CE010E940C11185188E1E80E83
:10230000F11CEDCF8E898F3F11F488E78E8BE88525
:10231000F9859701412F64E1CE01DF91CF911F91A3
:10232000FF90EF9009940F93FC01E85BFF4F019041
:10233000F081E02DDF01A41BB50BAD01FC01EA5BD0
:10234000FF4F0190F081E02DDF01A61BB70BBD010F
:10235000011113C041505109621B730BFC01E05C79
:10236000FF4F0190F081E02D4E1B5F0BDC01D496F6
:10237000ED91FC9109950F910895013079F7615025
:102380007109421B530BEACFCF93DF93FC01A0816D
:10239000B18182AD90E09C0143E0220F331F4A954A
:1023A000E1F737AF26AF50962C91509748E0249F25
:1023B0009001112435AF24AF23AD30E0B90153E0D3
:1023C000660F771F5A95E1F7EF01C05CDF4F798305
:1023D000688351964C915197E901C80FD91F50E07D
:1023E0004C175D0718F4CA01821B930BEF01CE5BFB
:1023F000DF4F79836883229623E0880F991F2A95FF
:10240000E1F7860F971F99838883229654968D91C2
:102410009C91559799838883E85BFF4F56968D91E1
:102420009C9191838083DF91CF9108950F931F93A7
:10243000FC01E25BFF4F0190F081E02DDC01A05B2D
:10244000BF4F0D90BC91A02D4A175B0740F4E017D9
:10245000F10748F00417150730F080E019C0E017C5
:10246000F107C0F3FACFFC01E65BFF4F40815181D9
:10247000845B9F4FFC01808191816817790758F434
:1024800081E04217530720F081E02617370728F72D
:102490001F910F91089542175307B0F3DECF2F928B
:1024A0003F924F925F926F927F928F929F92AF92E4
:1024B000BF92CF92DF92EF92FF920F931F93CF9331
:1024C000DF93CDB7DEB728970FB6F894DEBF0FBE07
:1024D000CDBF98878F83865B9F4F9A838983FC014A
:1024E00011821082EF81F885EA5BFF4F20803180F6
:1024F0002F813885245B3F4F3C832B83F901318248
:102500002082EF80F884FEE4EF0EF11CF7011182C7
:102510001082EF81F885E85BFF4F40805180EF81AA
:10252000F885EC5BFF4F208131814216530630F075
:10253000C201821B930BF70191838083EF81F885A1
:10254000EE5BFF4F20813181421A530A2F8138857B
:10255000205B3F4F3E832D83F90151824082EF8102
:10256000F885E85AFF4F60807180EF81F885EC5A5A
:10257000FF4FA080B180EF81F885EA5AFF4FC080FD
:10258000D180EF81F885EE5AFF4F808091808301E2
:102590009501A601B4018F8198850E9416122F81A2
:1025A00038852C573F4F38872F8381111BC0F90185
:1025B000108228960FB6F894DEBF0FBECDBFDF9114
:1025C000CF911F910F91FF90EF90DF90CF90BF9030
:1025D000AF909F908F907F906F905F904F903F90C3
:1025E0002F90089581E0EF81F88580838114910414
:1025F00021F0E981FA8191828082A214B30420F44F
:10260000EB81FC81B182A082F701808191818C15E0
:102610009D0510F4D182C0826414750450F6ED81DA
:10262000FE8171826082C5CF0F93CF93DF93E02F3D
:10263000DC01AC57BF4FFC91FF2309F460C02115AA
:10264000310509F45CC02230310538F0023009F060
:102650004AC06F5F7F4F621B730B0E2F0170E0FD4E
:1026600052C0FC01E25BFF4F0190F081E02D4E175C
:102670005F0708F444C0FC01E05BFF4F0190F0816C
:10268000E02D4E175F07D8F5FC01E45BFF4F01908A
:10269000F081E02DDC01A65BBF4F0D90BC91A02D19
:1026A000260F371F2617370738F56E177F0718F5DF
:1026B0009F0121503109A217B30708F56A177B075C
:1026C00008F4BD012E173F0708F4F901E61BF70BCC
:1026D000EC01AEA9BFA914960D90BC91A02D9F014D
:1026E000FD0109950CC0033009F0B7CF4F5F5F4F74
:1026F000421B530BB2CFBD016E177F07E0F2DF9193
:10270000CF910F910895FC01E65BFF4F0190F0819E
:10271000E02D6E177F0798F3FC01E45BFF4F0190FB
:10272000F081E02D6E177F0750F7FC01E05BFF4F53
:102730000190F081E02DDC01A25BBF4F0D90BC91B8
:10274000A02D240F351F24173507A8F44E175F0757
:1027500088F49F0121503109A217B30780F64A1768
:102760005B0708F4AD012E173F0708F4F901E41BDD
:10277000F50BAECFAD014E175F0708F6EDCFAF9268
:10278000BF92CF92DF92EF92FF920F931F93CF935E
:10279000DF936C01EB015A017B01E20EF31E9C01F9
:1027A000240F351F8701AB01BC0182EA94E00E942F
:1027B0001612811114C0DF91CF911F910F91FF90DC
:1027C000EF90DF90CF90BF90AF90089500E095011B
:1027D000AE01B60182EA94E00E9414132196EC1631
:1027E000FD06A1F7E8CF8F929F92AF92BF92CF9252
:1027F000DF92EF92FF920F931F93CF93DF936C01C1
:10280000EB014A0179015C01A40EB51E8B01020F98
:10281000131F9501AB01BC0182EA94E00E941612DD
:10282000882371F100E09401AE01B60182EA94E0E0
:102830000E94141381E0E816F10411F182E0E81A15
:10284000F1082196E114F10499F001E09701AE013D
:10285000B60182EA94E00E941413B5016150710937
:102860009701AE0182EA94E00E941413CE0DDF1DA1
:1028700000E09401AE01B60182EA94E00E941413D4
:10288000DF91CF911F910F91FF90EF90DF90CF904C
:10289000BF90AF909F908F9008950F932091F00478
:1028A0003091F10462177307F0F02091F204309137
:1028B000F30462177307B8F42091EC043091ED042F
:1028C0008217930780F02091EE043091EF04821775
:1028D000930748F4AB01BC0100E021E030E082EA5C
:1028E00094E00E9414130F910895213069F038F09C
:1028F000223079F0840F911D47FD9A950895860F37
:10290000911D67FD9A950895841B910947FD939544
:102910000895861B910967FD93950895213069F00C
:1029200038F0223079F0861B910967FD9395089560
:10293000840F911D47FD9A950895860F911D67FD9F
:102940009A950895841B910947FD939508953F92A8
:102950004F925F926F927F928F929F92AF92BF92AF
:10296000CF92DF92EF92FF920F931F93CF93DF935B
:102970007C01162F442EEC01C25ADF4F5E806F801F
:102980006C018AE8C80ED11C78847518312E711636
:1029900008F4372C8C809D800E85202F462D652DC8
:1029A0008A819B810E9475145C01202F462D652D24
:1029B000C4010E948E14AC01442079F08C85F6018C
:1029C0008083232D30E0B501C7010E941413171531
:1029D00048F017196394512CD7CF8B858111F7CF0D
:1029E0008D85EDCF150D1E836F82DF91CF911F91E5
:1029F0000F91FF90EF90DF90CF90BF90AF909F909E
:102A00008F907F906F905F904F903F900895DC0182
:102A10001A964C911A97ED91FC911197249130E000
:102A2000042E02C0359527950A94E2F7842F860F6D
:102A3000883068F031961196FC93EE93E49198E01B
:102A4000941B01C0EE0F9A95EAF72E2B88501A9628
:102A50008C938FEF9FEF01C0880F6A95EAF78095FE
:102A600082230895FC01E60FF11D849190E0982FD8
:102A700088273196E4918E0F911D0895CF93DF93AF
:102A80002091FC043091FD042817390709F490C007
:102A9000EC019093FD048093FC04FC0184918093ED
:102AA0000F053196E491E0931005FE013296E49112
:102AB000E0931105FE013396E491E0931205FE01C7
:102AC0003496E491E0931305FE013596E491E0938A
:102AD0001405FE013696E491E0931505FE01379644
:102AE000E491E0931605FE013896E491E093170512
:102AF000FE013996E491E0931805FE013A96E491BF
:102B0000E0931905FE013B96E491E0931A05FE015E
:102B10003C96E491E0931B05FE013D96E491E09321
:102B20001C05FE013E96E491E0931D05FE013F96D3
:102B3000E491E0931E05FE017096E491E0931F0579
:102B400061E1CE010E94321590932105809320050A
:102B500063E1CE010E9432159093230580932205F4
:102B600065E1CE010E9432159093250580932405DE
:102B70008091FC049091FD04892BD1F080911C057B
:102B80008093280540911D054093290590912705C4
:102B9000992371F0913079F490911E05891714F4FE
:102BA0009093280580911F05841714F480932905BC
:102BB000DF91CF9108953091190520911B05082EC2
:102BC000000C990B622F022E000C770B630F711D06
:102BD00037FD7A95861797071CF4320F3093280536
:102BE000241734F720932905E3CF4F925F926F9219
:102BF0007F928F929F92AF92BF92CF92DF92EF928D
:102C0000FF920F931F93CF93DF93EC016B018A0127
:102C10007901FC01E459FF4F8081813009F44BC0F8
:102C200008F43EC0823009F451C0833009F459C021
:102C3000FE01E05AFF4FD182C08232961183008399
:102C400038978081918147962FEFE216F10411F0B9
:102C500008F0F2C0E1E6EE16F10408F44DC0FE0102
:102C6000E058FF4F20813181820F931F9C012F5F1D
:102C70003F4FF9014491411148C090E080E0DF915D
:102C8000CF911F910F91FF90EF90DF90CF90BF9069
:102C9000AF909F908F907F906F905F904F9008952E
:102CA000FE01E45AFF4F0190F081E02DCE0109951D
:102CB000080F191FBDCFFE01E45AFF4F0190F081AC
:102CC000E02DCE010995C81AD90AB2CFFE01E45A07
:102CD000FF4F0190F081E02DCE010995081B190BE3
:102CE000A7CFFE01E45AFF4F0190F081E02DCE0105
:102CF0000995C80ED91E9CCFF1E4EF16F10408F433
:102D0000B5CFFE01E258FF4FADCFFC0144914E1507
:102D10001F0409F08CC00296009709F4AECF7E0123
:102D2000FEE5EF0EF11CF701918380831286739606
:102D30006081C7010E940715F70180877496608142
:102D4000C7010E940715982EF70181875E01FAE8F6
:102D5000AF0EB11CF5019081F701948781E09111CC
:102D600080E0F7018587FE01ED58FF4FC0806C2D94
:102D7000C7010E940715582EFE01EC58FF4FD08066
:102D80006D2DC7010E940715482EFE01EB58FF4F1D
:102D90001081612FC7010E9407159FEF910F01E07D
:102DA00010E0980101C0220F9A95EAF7882E821A46
:102DB000F701608416140CF0ADC0CA94C80101C0BC
:102DC000880FCA94EAF7581A7684490CDA94A80155
:102DD00001C0440FDA94EAF7F42FF4194F2E272D8F
:102DE0004F2F652DF701828193810E9475146C012C
:102DF000F70193838283272D442D652D848195814E
:102E00000E948E14F70195838483F1E07F1609F404
:102E100085C07F1608F43FC022E0721609F48DC009
:102E2000E3E07E1609F49DC0BC0196013EC0F901A5
:102E30002491820F911D1ACFFE01EE57FF4F0081A2
:102E40001181080F191F680160E0C6010E94321548
:102E5000080F191F62E0C6010E943215F4E0CF0E80
:102E6000D11C8E159F0580F3F801849190E0982F76
:102E700088273196E4918E2B009709F4FECEE81650
:102E8000F90619F4C801039647CFF8013296E49188
:102E90000E0F111DE9CF9601260D311D67FC3A95E5
:102EA000BC01690D711D97FC7A958B01AC01B601CF
:102EB000CE010E941612882369F1F701168217824B
:102EC0008E0101591F4F6E01F0E7CF0ED11CF801A2
:102ED0006081C7010E940715682EF6016081C70155
:102EE0000E940715782E40E0662DCE010E94A7149F
:102EF00041E0672DCE010E94A71461E0C7010E9446
:102F000007158111F0CFF7018781891504F38485B6
:102F1000F5018083882D880C990BB1CE0919110910
:102F200097FC139596012F5F3F4FBC01660D711DF5
:102F300067FC7A95C00ED11EB8CFA8014619510979
:102F400067FC539596012F5F3F4F0919110997FCB4
:102F50001395BC016F5F7F4F800F911FC40ED51E6C
:102F6000A4CF9601290D311D97FC3A950619110938
:102F700067FC1395BC016F5F7F4F800F911F95CF4A
:102F8000CF92DF92EF92FF920F931F93CF93DF9335
:102F9000EC018B011092BA048AEBC82E81E0D82E86
:102FA000F12CE12CF60161916F01E091A404F09104
:102FB000A50482EA94E009958F3F980719F18E3FA6
:102FC0002FEF920779F39C01A801BE0182EA94E0F9
:102FD0000E94F51520910E05213059F038F022306D
:102FE00059F0233061F0E80EF91EDCCFC80FD91F6D
:102FF000FACF080F191FF7CFC81BD90BF4CF081B46
:10300000190BF1CFC701DF91CF911F910F91FF9065
:10301000EF90DF90CF900895CF93DF93EC016BAFEB
:10302000EEA9FFA90190F081E02D0995EEA9FFA975
:103030000280F381E02DCE01DF91CF910994AF9210
:10304000BF92CF92DF92EF92FF920F931F93CF9395
:10305000DF9300D000D01F92CDB7DEB78C01DC012A
:10306000DA96AC90DA97DB96EC90DB97ED91FC91D9
:10307000B188FE2CD12CC12CD801ED91FC91119777
:103080008089D8962D913C911C82FD828B83B8E07B
:103090008B9FC00111248C9DA0018D9D500D9C9D86
:1030A000500D1124240F351F3A832983D80114961B
:1030B000ED91FC919E012F5F3F4F41E06FE0C80111
:1030C0000995F3948F2D8E198A1528F4BFEFCB1A2A
:1030D000DB0AFB1488F20F900F900F900F900F9067
:1030E000DF91CF911F910F91FF90EF90DF90CF90E4
:1030F000BF90AF900895CF92DF92EF92FF920F931F
:103100001F93CF93DF93EC01962F683109F44BC0E6
:10311000B901993130F49431C9F0973189F080E0E8
:1031200006C0993109F461C09032C9F781E0DF919E
:10313000CF911F910F91FF90EF90DF90CF90089566
:1031400050E08EE293E00E947A0EF0CF8C859D8550
:10315000AE85BF85892B8A2B8B2B71F4E881F98191
:10316000A585B0E020EA36E841E050E00E94CD2E8F
:103170006C877D878E879F871092960210929502AA
:1031800010929802109297020E940F0E8EE49EE019
:103190009093C0028093BF028FE49EE09093C4029C
:1031A0008093C302C3CF2C853D854E855F8560E04B
:1031B00074E284EF90E00E94E02E20513109410931
:1031C000510956954795379527952093B8008E89D4
:1031D00090E09595879591E09093740280935202C8
:1031E0001092980210929702A1CFD0919702D132FB
:1031F00008F093C0C09152020E948A0D6B017C01BD
:103200008091E702811164C082E08093E70281E04F
:103210008093E9028FEF8093E60210920B03D09324
:103220000A03A4E5B2E0EAEEF2E080E0D8137CC045
:1032300010920C0380910C03CC0FC82BC0930C038D
:103240008091E802813009F073C01092E8020E9478
:103250008A0D6B017C0180910C038093BB008091EF
:103260009A0290919B02A0919C02B0919D02892BA1
:103270008A2B8B2B99F00E948A0D00919A02109153
:103280009B0220919C0230919D026C197D098E0950
:103290009F090617170728073907D8F18091BC0046
:1032A00083FDD9CF85EC8093BC000E948A0D6B0111
:1032B0007C018091E7028230E9F18091E6028F3F44
:1032C00061F18091E602803241F18091E60225C0F1
:1032D00080919A0290919B02A0919C02B0919D02D4
:1032E000892B8A2B8B2B09F48BCF0E948A0D00919E
:1032F0009A0210919B0220919C0230919D026C19C0
:103300007D098E099F09061717072807390708F056
:1033100077CF809199020E942D0E10929802109200
:1033200097021092740202CF9D9191938F5F7ECF8E
:1033300085EEB9CF80919A0290919B02A0919C0258
:10334000B0919D02892B8A2B8B2B09F4B2CF0E945E
:103350008A0D00919A0210919B0220919C0230915B
:103360009D026C197D098E099F090617170728070A
:10337000390708F09ECFCDCF8F929F92AF92BF9228
:10338000CF92DF92EF92FF92CF93DF937C01C62F13
:103390006C32B0F46A32E8F5683249F1693209F406
:1033A00044C080E0C034B0F1CF73F701EC0FF11DE1
:1033B000868D8F3F71F1C03108F06DC0642F14C04D
:1033C0006D3209F456C068F384EB860F823048F7FB
:1033D000CF73CE0DDF2DD11D8E8D411158C061E010
:1033E0000E944E0D60E08E8D0E94200D12C02EE1D5
:1033F000E20EF11CD0E0F70181917F018F3F31F0A7
:1034000061E0D03108F062E00E944E0DDF5FD631FE
:1034100091F781E0DF91CF91FF90EF90DF90CF9017
:10342000BF90AF909F908F900895C42ED12CF12C17
:10343000E12C0E948A0D4B015C01C114D104E1040E
:10344000F10439F30E948A0D681979098A099B09E8
:10345000683E73408105910580F3F1E0CF1AD108F1
:10346000E108F10828EE820E23E0921EA11CB11C97
:10347000E4CF85E090E0433010F082E090E0880FE8
:10348000991F880F991F05970197F1F7C2CF62E046
:103490000E944E0DBECF0E94F70C21E0892B09F44B
:1034A00020E0F701218FB5CFCF92DF92EF92FF920C
:1034B0000E94243020E034E244E759E40E94832F44
:1034C0009B01AC0160E070E080E89FE30E94832FE5
:1034D0006B017C01AC019B0160E074E284E79BE43A
:1034E0000E94832F0E94F52F6F3F2FEF72078105F7
:1034F000910508F47CC020E030E040E051E4C701D1
:10350000B6010E94DB309B01AC0160E074E284E70D
:103510009BE40E94832F0E94F52F6F3F2FEF7207CD
:103520008105910508F465C020E030E040E852E4F0
:10353000C701B6010E94DB309B01AC0160E074E280
:1035400084E79BE40E94832F0E94F52F6F3F2FEFAB
:1035500072078105910508F44EC020E030E040E894
:1035600053E4C701B6010E94DB309B01AC0160E06F
:1035700074E284E79BE40E94832F0E94F52F6F3F43
:103580002FEF720781059105C0F120E030E040E89F
:1035900054E4C701B6010E94DB309B01AC0160E03E
:1035A00074E284E79BE40E94832F0E94F52F6F3F13
:1035B0002FEF720781059105A8F425E0F894109289
:1035C0008100615071097093890060938800809137
:1035D000810088608093810080918100282B209356
:1035E00081007894FF90EF90DF90CF90089521E0D4
:1035F000E5CF22E0E3CF23E0E1CF24E0DFCF68EFA7
:103600008AE393E00C94490F6CEF8AE393E00C9407
:10361000490F6AEF8AE393E00C94490FCF92DF924F
:10362000EF92FF920F931F93CF93DF93EC0188816A
:103630000E94F70C8C010E94AF0DCA80DB80EC80E9
:10364000FD80AB01BC014C195D096E097F090115B4
:10365000110561F48981813031F491E04B305105DD
:103660006105710508F490E080E00EC0013011059D
:10367000D1F789818111F7CF81E04B305105610588
:10368000710508F480E090E01F821E829923B1F05A
:1036900081E090E09F838E830E94AF0D6B017C01DF
:1036A000CA82DB82EC82FD820983DF91CF911F9178
:1036B0000F91FF90EF90DF90CF900895882381F3D2
:1036C0000E94AF0D2EEEC20E22E0D21EE11CF11CB4
:1036D0006C157D058E059F0550F482E090E09F8378
:1036E0008E83E885F9853097B9F20995D5CF83E0C7
:1036F00090E09F838E83EA85FB85F5CF0F931F9320
:10370000CF938C01C62F62E08C2F0E944E0DF801E2
:10371000C0838C2F0E94F70CF8018183CF911F91F9
:103720000F910895CF92DF92EF92FF92CF93DF93A4
:10373000EC0189819A819C838B8388818E3008F08B
:103740008E508770806480937C0080917A008064C2
:1037500080937A0080917A0086FDFCCFA09178005A
:10376000B0917900CF80D8840D2C000CEE08FF08B2
:1037700029853A85032E000C440B550B2C193D0965
:103780004E095F090E94D82E2FEF33E040E050E051
:103790000E94AE2EDA01C9018C0D9D1DAE1DBF1D0C
:1037A000092E000CAA0BBB0B4D815E81052E000C6F
:1037B000660B770B841B950BA60BB70B81152EEFB1
:1037C00092072FEFA207B207DCF0813022E09207C8
:1037D000A105B10524F080E092E0A0E0B0E09A837A
:1037E00089832B85222329F09195819591099A83CC
:1037F0008983DF91CF91FF90EF90DF90CF90089574
:1038000080E09EEFECCFCF92DF92EF92FF920F938A
:103810001F93CF93DF936C01EB017B01E40EF51E48
:1038200010E000E0CE15DF0561F06991D601ED9161
:10383000FC910190F081E02DC6010995080F191F38
:10384000F1CFC801DF91CF911F910F91FF90EF90C1
:10385000DF90CF900895CF92DF92EF92FF920F9377
:103860001F93CF93DF93EC016C0124E0C20ED11CB7
:10387000FC01E057FF4F0190F081E02DC601099552
:103880008E3FEFEF9E07D8F48E010C561F4FF801C4
:10389000408151817E01F2E9EF0EF11CF701608158
:1038A00071819C01C6010E94F515C059DF4F288126
:1038B0002130C1F078F02230B9F02330E9F081E016
:1038C00090E0DF91CF911F910F91FF90EF90DF90EB
:1038D000CF900895F70120813181820F931F91834A
:1038E0008083EDCFF801F7CFF70120813181281BCC
:1038F000390B31832083E3CFF801F7CF089590E0AF
:1039000080E00895CF93209122033091230321304A
:10391000310579F540912103E2EBF5E0433010F0F9
:10392000EEEBF5E09C0153E0220F331F5A95E1F7CF
:10393000842F63E00E945D31913069F0923091F004
:1039400087819085280F391F3087278381E08093F6
:103950000801CF91089585819681280F391F3683FC
:103960002583F4CF81859285280F391F32872187DF
:10397000EDCF24E0880F991F2A95E1F720910D03E0
:1039800030910E032130310581F1C0F02230310534
:1039900009F440C02330310509F453C0C1E0C0939D
:1039A00018030E94AF0D6093140370931503809366
:1039B000160390931703C0930801CBCF20911F03E8
:1039C00030912003820F931F813022E0920714F080
:1039D00080E092E081152EEF920714F480E09EEFD4
:1039E0009093200380931F03D9CF2091060130913B
:1039F0000701820F931F813024E0920714F080E0CA
:103A000094E097FF02C090E080E0909307018093DC
:103A10000601C4CF20911D0330911E03820F931F16
:103A2000813022E0920714F080E092E081152EEFC1
:103A3000920714F480E09EEF90931E0380931D0381
:103A4000ADCF2091040130910501820F931F813089
:103A500024E0920714F080E094E097FF02C090E029
:103A600080E0909305018093040198CF8091A60592
:103A70000E94F70C892BE9F0809122039091230397
:103A80000197C1F4809121039BEA899F912D112414
:103A90009695292F220F290F90E0019663E070E0A0
:103AA0000E946931922F980F9093210381E08093B7
:103AB0000801089580910D0390910E03009739F449
:103AC00081E090E090930E0380930D03EFCF81305F
:103AD000910529F410920E0310920D03E7CF823066
:103AE000910519F483E090E0EDCF0397F9F682E0B9
:103AF00090E0E8CF80919A050E94F70C892B81F025
:103B00008091220390912303019769F4809121030E
:103B1000833038F48D5F8093210381E08093080126
:103B200008958350F8CF80910D0390910E03009774
:103B300039F482E090E090930E0380930D03EDCF73
:103B40008130910519F483E090E0F5CF8230910542
:103B500029F410920E0310920D03DFCF0397E9F6BC
:103B600081E090E0E8CF1F93CF93DF93EC01162F15
:103B70008D81613041F461E00E94200D1E83DF9150
:103B8000CF911F91089560E00E94200D1E82F7CF13
:103B9000FC0101900020E9F73197AF01481B590B58
:103BA000BC018EE994E00C94031C8F929F92AF921B
:103BB000BF920F931F93CF93DF93CDB7DEB7A1973B
:103BC0000FB6F894DEBF0FBECDBF19A2423008F485
:103BD0004AE08E010F5D1F4F842E912CB12CA12C39
:103BE000A50194010E94E02EE62FB901CA01EA3036
:103BF000F4F4E05DD801EE938D01232B242B252BCB
:103C000079F790E080E0109719F0CD010E94C81D6F
:103C1000A1960FB6F894DEBF0FBECDBFDF91CF9156
:103C20001F910F91BF90AF909F908F900895E95C86
:103C3000E1CF0F931F93CF93DF938C01EB010E9491
:103C4000982E8883C80101960E94982E8983CE0100
:103C5000DF91CF911F910F91089585ED8093BC0066
:103C600080919A0290919B02A0919C02B0919D023A
:103C70000796A11DB11D23E0B695A7959795879549
:103C80002A95D1F72091BC0024FD03C01092E702D1
:103C9000089540919A0250919B0260919C0270910C
:103CA0009D02452B462B472B69F30097A105B105D3
:103CB00041F02AE22A95F1F700C00197A109B10964
:103CC000E1CF809199020C942D0EFC01A081B1816D
:103CD00050962C9182AD38E0839FC0011124289F1B
:103CE000A001299F500D112470E060E080AD91ADDE
:103CF0000C94C3321F93CF93DF93EC010E941F18E3
:103D00001BAD8AAD180FE881F9818189181768F019
:103D1000EC81FD8130E020E040E060E1CE010995DA
:103D200080E0DF91CF911F910895FE01E557FF4F8D
:103D30008081882319F0CE010E94651E612FCE017B
:103D40000E940C1881E0EDCFCF93DF93EC01FC01D2
:103D5000E557FF4F8081882319F0CE010E94651E30
:103D600060E0CE01DF91CF910C940C18FF920F937D
:103D70001F93CF93DF93EC018B01FB01F0800E9436
:103D8000982EF81621F06F2DCE010E94A02EF8017A
:103D9000F1802196CE010E94982EF81621F06F2D09
:103DA000CE010E94A02EC801DF91CF911F910F91EB
:103DB000FF900895CF93DF9300D0CDB7DEB790E0AA
:103DC00080E00E94982E8B3A29F06BEA90E080E028
:103DD0000E94A02E8091B9059091BA059A8389839B
:103DE000BE016F5F7F4F81E090E00E94B61E809120
:103DF000BB059091BC059A838983BE016F5F7F4F9D
:103E000083E090E00E94B61E8091B7059091B805BE
:103E10009A838983BE016F5F7F4F85E090E00E94A7
:103E2000B61E8091C5059091C6059A838983BE010F
:103E30006F5F7F4F87E090E00E94B61E8091C705BC
:103E40009091C8059A838983BE016F5F7F4F89E097
:103E500090E00E94B61E8091C3059091C4059A839C
:103E60008983BE016F5F7F4F8BE090E00E94B61E9A
:103E70006FE173E08DE090E00E94B61E66E071E0B5
:103E80008FE090E00E94B61E6DE173E081E190E06A
:103E90000E94B61E64E071E083E190E00E94B61ECD
:103EA0000F900F90DF91CF9108952F923F924F92F4
:103EB0005F926F927F928F929F92AF92BF92CF92BA
:103EC000DF92EF92FF920F931F93CF93DF935C01EA
:103ED0006B018A011A0145E0220C331C4A95E1F777
:103EE00081E00E947D0CF501C181D2817101FAE06F
:103EF000EF0EF11C1092310510923005F09233054F
:103F0000E0923205C6010E94C81DD7FD04C081E2BF
:103F100092E00E94C81D2E010D2E000C6608770845
:103F20004AE0C301B20177FE0DC06DE28EE994E074
:103F30000E942B1C66277727CB0164197509860917
:103F400097094AE00E94D51D8CE590E090933105D9
:103F500080933005F0923305E0923205F5016181DE
:103F60007281072E000C880B990B0E94263020E0EE
:103F700030E040E05BE30E94DB3020E030E040EAEC
:103F800050E40E94DB3020E030E0A9010E94D630EE
:103F900087FD04C081E292E00E94C81DF5016181A5
:103FA0007281072E000C880B990B0E94263020E0AE
:103FB00030E040E05BE30E94DB3020E030E040EAAC
:103FC00050E40E94DB306B017C014B015C01AC01D1
:103FD0009B010E944831882309F47BC08CEB91E05F
:103FE0000E94C81D38E6E32E30E0F32EF7016491FD
:103FF000662349F08EE994E00E942B1CFFEFEF1A34
:10400000FF0A892B99F771012CE0E20EF11C2AE0DE
:1040100030E044E650E0B70180E190E00E94F31305
:104020001C161D060CF0CDC022E330E0DE010E941C
:104030007D3150E040E06130EEEF7E07EFEF8E071C
:104040009E077CF042E350E06115F6E67F078105AC
:1040500091053CF420E032E040E050E00E94AE2EBA
:10406000A9012AE030E0B70182E490E00E94BF138A
:10407000809121039BEA899F912D11249695901799
:10408000110609F0BFC021E03CE03093A504209365
:10409000A404B101605E7F4F292F220F920F891B6C
:1040A000E2E38E9FC00111240E96DF91CF911F9104
:1040B0000F91FF90EF90DF90CF90BF90AF909F90C7
:1040C0008F907F906F905F904F903F902F900C94C7
:1040D000C01726013701E89477F82FEF3FEF4FE73D
:1040E0005FE7C301B2010E94483181110DC02FEF7B
:1040F0003FEF4FE75FE7C301B2010E947E2F181622
:104100001CF480EC91E06CCF2FEF3FEF4FE75FE4C2
:10411000C701B6010E94D63018161CF484EC91E059
:104120005FCF2FEF3FEF4FE75FECC701B6010E9473
:104130007E2F87FDF3CF20E030E0A901C701B60153
:104140000E947E2F87FF0BC06DE28EE994E00E94F3
:104150002B1C46015701B7FAB094B7F8B0942DEC78
:104160003CEC4CE45DE3C501B4010E94122F4B010D
:104170005C010E94F52F6B017C010E9424309B01A1
:10418000AC01C501B4010E94112F4B015C014AE052
:10419000C701B6010E94D51D6EE28EE994E00E942F
:1041A0002B1C20E030E040E251E4C501B4010E9444
:1041B000DB300E94F52F90E080E04AE00E94D51DA0
:1041C00011CFAA27BB27AC1BBD0B22E330E00E9416
:1041D0007D31E2E3F0E0611526E672078105910585
:1041E00044F429E095958795779567952A95D1F7B9
:1041F000FB012AE030E0AF01B70182E490E08E1BC2
:104200009F0B34CFDF91CF911F910F91FF90EF90D3
:10421000DF90CF90BF90AF909F908F907F906F90E6
:104220005F904F903F902F9008951F920F920FB67E
:104230000F9211242F933F938F939F93AF93BF932C
:104240008091260390912703A0912803B091290320
:104250003091250323E0230F2D3758F50196A11D3A
:10426000B11D209325038093260390932703A093E9
:104270002803B093290380912A0390912B03A091E6
:104280002C03B0912D030196A11DB11D80932A032B
:1042900090932B03A0932C03B0932D03BF91AF9168
:1042A0009F918F913F912F910F900FBE0F901F9074
:1042B000189526E8230F0296A11DB11DD2CF1F929B
:1042C0000F920FB60F9211242F933F934F935F934A
:1042D0006F937F938F939F93AF93BF93EF93FF93CE
:1042E0008091B900887F803609F44AC0F0F58832A1
:1042F00009F4A7C018F5803109F49BC0B8F48823ED
:1043000009F4F9C0883009F494C0FF91EF91BF918E
:10431000AF919F918F917F916F915F914F913F915D
:104320002F910F900FBE0F901F901895883109F4B0
:1043300088C0803251F78093E60214C0803409F4BB
:104340009DC040F48033B9F38833F9F68093E602D8
:1043500085ECB0C0803509F485C0883509F496C075
:10436000883499F60E942D1ED0CF883909F48CC06C
:1043700038F5883729F050F4883611F0803729F65F
:1043800083E08093E7021092E50257C0883809F471
:104390007BC0803919F0803809F0B7CF8091E502F1
:1043A000803208F071C0E091E50281E08E0F8093C9
:1043B000E5028091BB00F0E0EB53FD4F80833DC0F0
:1043C000803B39F0E0F4803A09F479C0883A09F08A
:1043D0009CCF84E08093E7021092C2021092C10247
:1043E000E091BF02F091C00209958091C102811154
:1043F0000FC081E08093C10210929F0209C0803CEF
:1044000009F4A6CF883C09F4A3CF883B09F07DCFFF
:10441000E091C20281E08E0F8093C202F0E0E1568B
:10442000FD4F80818093BB009091C2028091C102B8
:1044300029C080910C038093BB0085EC8093BC0065
:1044400064CF90910B0380910A03981758F5E0917F
:104450000B0381E08E0F80930B03F0E0E651FD4FDC
:104460008081E9CFE0910B0381E08E0F80930B03F5
:104470008091BB00F0E0E651FD4F808390910B03EB
:1044800080910A039817C8F285E8D8CFE0910B0312
:1044900081E08E0F80930B038091BB00F0E0E6512A
:1044A000FD4F80838091E90281115CCF81E0809390
:1044B000E80284EA8093BC001092E70226CF85ECE4
:1044C0008093BC001092E7028091E502803230F4C4
:1044D000E091E502F0E0EB53FD4F10826091E502C0
:1044E00070E0E091C302F091C40285EC92E009957E
:1044F0001092E5020ACF1092E60234CF1F920F927B
:104500000FB60F9211242F933F934F935F936F93A6
:104510007F938F939F93AF93BF93EF93FF938AE320
:1045200093E00E94270FFF91EF91BF91AF919F9170
:104530008F917F916F915F914F913F912F910F904C
:104540000FBE0F901F9018951F920F920FB60F92EB
:1045500011242F933F934F935F936F937F938F9388
:104560009F93AF93BF93EF93FF93CF93DF931F92EC
:10457000CDB7DEB781E08983E091D703F091D8030E
:10458000309761F0A0914A03B0914B036C91A091D8
:104590005003B09151038C910995898389818823B7
:1045A000E1F0E0914A03F0914B038081E0915003E8
:1045B000F091510382FD25C09081809153038F5F5C
:1045C0008F7320915403821741F0E0915303F0E080
:1045D000E65CFC4F958F809353030F90DF91CF9152
:1045E000FF91EF91BF91AF919F918F917F916F91CB
:1045F0005F914F913F912F910F900FBE0F901F90A1
:1046000018958081EACF1F920F920FB60F92112456
:104610008F929F92AF92BF92CF92DF92EF92FF92D2
:104620000F931F932F933F934F935F936F937F93BA
:104630008F939F93AF93BF93EF93FF930E94AF0D20
:1046400060934E0270934F028093500290935102F8
:104650008091D9039091DA03029709F072C1C0905A
:10466000F003D090F1038091EF038C151D0411F439
:104670001092EF038091EF03811106C18091150420
:1046800090911604019709F0ECC04091EB03509112
:10469000EC036091ED037091EE038091FD03909126
:1046A000FE03A091FF03B0910004481759076A0761
:1046B0007B0780F08091FD039091FE03A091FF03A2
:1046C000B09100040196A11DB11D84179507A6079E
:1046D000B70720F52091FD033091FE034091FF03C1
:1046E000509100042093EB033093EC034093ED03CF
:1046F0005093EE03F12CE12CC701B6010E944D311D
:104700006093E7037093E8038093E9039093EA03CF
:10471000A70196010E94E02E6093EF03C090010470
:10472000D0900204E0900304F09004040E948A0DEB
:104730000091F9031091FA032091FB033091FC03DF
:10474000601771078207930708F416C1601B710B8D
:10475000820B930B6093090470930A0480930B04FB
:1047600090930C040091FD031091FE032091FF0330
:10477000309100048090EB039090EC03A090ED0347
:10478000B090EE03081519052A053B0508F4FDC095
:1047900044E0660F771F881F991F4A95D1F7672F4E
:1047A000782F892F9927C61AD70AE80AF90AA09103
:1047B000E503B091E603A70196010E94D82E0E945E
:1047C00024309B01AC0160EC71EE84E69CE40E9415
:1047D000832F6B017C0120E030E040E85FE30E9422
:1047E0007E2F87FDF0C020E030E048EC53E4C701A5
:1047F000B6010E94D630181634F4C12CD12C98EC96
:10480000E92E93E4F92EA701960160910D047091B1
:104810000E0480910F04909110040E947E2F882333
:1048200001F1C0920D04D0920E04E0920F04F092B8
:1048300010046091E3037091E40390E080E00E9433
:1048400024309B01AC0160EC71EE84E69CE40E9494
:10485000832FA70196010E94832F0E94F52F0E94AB
:10486000541A8091EB039091EC03A091ED03B09169
:10487000EE030196A11DB11D8093EB039093EC0311
:10488000A093ED03B093EE038091EF038F5F8093CD
:10489000EF03E091DD03F091DE03309781F1209189
:1048A000F2038091F3039091F4032817190611F491
:1048B0001092F2038091F20381111CC06091F50304
:1048C0007091F6038091F7039091F8030995809118
:1048D000F5039091F603A091F703B091F8030196C8
:1048E000A11DB11D8093F5039093F603A093F703E8
:1048F000B093F8038091F2038F5F8093F203E0910D
:10490000DB03F091DC033097E1F06091E7037091F5
:10491000E8038091E9039091EA0309958091E70308
:104920009091E803A091E903B091EA030196A11DDB
:10493000B11D8093E7039093E803A093E903B0933C
:10494000EA03FF91EF91BF91AF919F918F917F917A
:104950006F915F914F913F912F911F910F91FF9018
:10496000EF90DF90CF90BF90AF909F908F900F907F
:104970000FBE0F901F9018950095109520953095BB
:10498000600F711F821F931FE5CE6C157D058E058C
:104990009F0508F00CCFA7019601261B370B480B8B
:1049A000590BDA01C90124E0880F991FAA1FBB1F08
:1049B0002A95D1F7892F9A2FAB2FBB27C80ED91E66
:1049C000EA1EFB1EF4CEC12CD12C80E8E82E8FE32A
:1049D000F82E19CF1F920F920FB60F9211240F933A
:1049E0001F932F933F934F935F936F937F938F9377
:1049F0009F93AF93BF93CF93DF93EF93FF93C091B8
:104A00001C04D0911D04209709F45BC08C850E9482
:104A1000F70C182F8E850E94F70C880F991F812B99
:104A20009A89891709F44DC0EA890B891C892D8957
:104A30003E8994E0E902F0011124482F082E000C71
:104A4000550BE42BF52BE15FFE4F9081492F990F19
:104A5000550B660B770B400F511F621F731F4B8B5B
:104A60005C8B6D8B7E8B8A8B28893989223031054E
:104A700031F123303105D1F12130310511F5833089
:104A800001F58B899C89AD89BE8932E0B595A795E2
:104A9000979587953A95D1F78F8B988FA98FBA8F75
:104AA0008F8D98A1A9A1BAA18BA39CA3ADA3BEA3EE
:104AB0000E94AF0D6F8F78A389A39AA302C08823A9
:104AC00001F3FF91EF91DF91CF91BF91AF919F9152
:104AD0008F917F916F915F914F913F912F911F9196
:104AE0000F910F900FBE0F901F901895882311F013
:104AF000833039F78B899C89AD89BE89B595A79597
:104B000097958795C9CF1F920F920FB60F921124D8
:104B10002F933F934F935F936F937F938F939F93C5
:104B2000AF93BF93EF93FF930E94EA24FF91EF911D
:104B3000BF91AF919F918F917F916F915F914F91B5
:104B40003F912F910F900FBE0F901F901895CF930C
:104B5000DF93109231031092300388EE93E0A0E0CF
:104B6000B0E08093320390933303A0933403B09367
:104B7000350328E831E030932F0320932E03109261
:104B80003D0310923C0380933E0390933F03A09318
:104B90004003B09341038AE991E090933B038093F3
:104BA0003A0385EC90E0909347038093460384ECAE
:104BB00090E0909349038093480380EC90E09093B9
:104BC0004B0380934A0381EC90E090934D038093D4
:104BD0004C0382EC90E090934F0380934E0386EC5D
:104BE00090E09093510380935003109253031092DE
:104BF000540310925503109256031092D80310924A
:104C0000D70380E690E09093E4038093E303C8E148
:104C1000D0E0D093E603C093E503109218041092FD
:104C2000170480E090E0A0EFB2E480930D0490932D
:104C30000E04A0930F04B09310041092110410926C
:104C4000120410921304109214041092050410928E
:104C5000060410920704109208041092090410929E
:104C60000A0410920B0410920C041092DA031092B2
:104C7000D90310921604109215040E94800C109211
:104C8000DC031092DB031092DE031092DD0310921E
:104C9000E0031092DF031092E2031092E1032091EF
:104CA000E3033091E4036091E5037091E603C901E9
:104CB0000E9469317093F1036093F003C901BE0152
:104CC0000E9469317093F4036093F3031092A1047E
:104CD0001092A00481E09CE090932F0580932E0514
:104CE0001092310510923005109233051092320562
:104CF0001092BA048CEA91E090939F0480939E04F2
:104D00001092A3041092A2041092B7041092AE0461
:104D10001092AF041092B0041092B1048FEF809300
:104D2000B8048093BC04E0ECF4E086ED94E0DFEF9F
:104D3000D1938E179F07E1F784E390E19093A70446
:104D40008093A60489E291E19093A9048093A8043A
:104D50008BE798E19093AB048093AA048CEB99E1E4
:104D60009093AD048093AC0430E020E040E069E033
:104D700082EA94E00E9434101092FD041092FC0428
:104D80008BE09CE09093D7048093D6048EE194E06E
:104D90009093DB048093DA04C1E0C093DC041092AA
:104DA000DD0410920B0510922B0510922705C0937D
:104DB0002C05C0932D0584EB91E09093D90480934A
:104DC000D80482EA94E00E94C4111092F504109273
:104DD000F4041092F9041092F8048FEF9FEF90936F
:104DE000F7048093F6049093FB048093FA04E09117
:104DF000D804F091D9040280F381E02D82EA94E096
:104E000009958AE79CE09093FF048093FE0410923A
:104E10000E0583E18093CB0482E18093CC04D09390
:104E2000CD0410923505109234051092720581E17F
:104E300090E0909374058093730584E090E09093E4
:104E400076058093750581E090E0909378058093D6
:104E5000770562E081E10E944E0D62E084E00E94ED
:104E60004E0D809173050E94F70CD82F8091750527
:104E70000E94F70C880F991F8D2B80937905109253
:104E80007A0510927B0510927C0510927D05109298
:104E90007E0510927F051092800510928105109278
:104EA0008205109283051092840510928505C093A7
:104EB0008F0510929505109294056EE08EE895E0AE
:104EC0000E947E1B87E695E090931D0480931C044E
:104ED000C0939B051092A1051092A005C093A70551
:104EE0001092AD051092AC051092B8051092B7055E
:104EF0002AEC3DEF3093BA052093B90580E092E0AB
:104F00009093BC058093BB051092BD051092C4051B
:104F10001092C3053093C6052093C5059093C8052C
:104F20008093C7051092C905DF91CF910895CF9363
:104F3000DF93CDB7DEB7A0970FB6F894DEBF0FBEF4
:104F4000CDBF789484B5826084BD84B5816084BD12
:104F500085B5826085BD85B5816085BD80916E0017
:104F6000816080936E001092810080918100826048
:104F70008093810080918100816080938100809185
:104F800080008160809380008091B1008460809374
:104F9000B1008091B00081608093B00080917A0070
:104FA000846080937A0080917A00826080937A0096
:104FB00080917A00816080937A0080917A00806885
:104FC00080937A001092C100E0914A03F0914B0364
:104FD00082E08083E0914603F09147031082E091E4
:104FE0004803F09149038FE3808310925203E091CC
:104FF0004E03F0914F0386E08083E0914C03F091E3
:105000004D03808180618083E0914C03F0914D03DA
:10501000808188608083E0914C03F0914D03808112
:1050200080688083E0914C03F0914D0380818F7DF7
:1050300080838091170490911804892B59F481E0A2
:105040008093190484E090E00E949E3190931804AC
:1050500080931704F89410928000109281001092AF
:1050600085001092840081EC92EA909389008093ED
:105070008800809181008860809381008091810008
:1050800082608093810080916F00826080936F00C6
:105090007894C0900D04D0900E04E0900F04F0902E
:1050A000100480911504909116040197B1F120E04D
:1050B00030E040E85FE3C701B6010E947E2F87FD24
:1050C0002CC020E030E048EC53E4C701B6010E9458
:1050D000D630181614F1F894C0920D04D0920E0434
:1050E000E0920F04F092100478946091E3037091C1
:1050F000E40390E080E00E9424309B01AC0160EC6E
:1051000071EE84E69CE40E94832FA70196010E9421
:10511000832F0E94F52F0E94541A109216041092A9
:105120001504F89480E690E09093E4038093E30301
:105130006091E5037091E6030E9469317093F10379
:105140006093F00384E090E09093F4038093F30382
:1051500078948091150490911604019741F1F89488
:1051600080E090E0A0EFB2E480930D0490930E04F1
:10517000A0930F04B093100478946091E3037091AE
:10518000E40390E080E00E9424309B01AC0160ECDD
:1051900071EE84E69CE40E94832F20E030E040EF33
:1051A00052E40E94832F0E94F52F0E94541A89E036
:1051B0009BE19093E0038093DF0384E09BE1909375
:1051C000E2038093E1038FEF9AE19093DE038093F3
:1051D000DD030E94800C0E94AF0D60931104709358
:1051E00012048093130490931404E091DF03F09170
:1051F000E003309709F00995809115049091160409
:10520000892B09F0E2C182E090E09093DA03809369
:10521000D9036CE08AE995E00E947E1B65E086EA8E
:1052200095E00E947E1B60E085E10E944E0D85E1C5
:105230008093B20560E084E10E944E0D84E180938A
:10524000BE058091680086608093680080916D0043
:10525000806180936D0080916C00886080936C0009
:1052600061E087E00E944E0D87E080933B0515E0EA
:1052700010933A0561E088E00E944E0D88E080932B
:1052800042051093410561E08AE00E944E0D8AE0DC
:10529000809349051093480561E086E00E944E0D19
:1052A00086E08093500510934F0561E089E00E94ED
:1052B0004E0D89E0809357051093560561E08BE011
:1052C0000E944E0D8BE080935E0510935D0561E0BA
:1052D00083E00E944E0D83E0809365051093640582
:1052E000E091A604F091A70430E020E040E06AE0FD
:1052F00082EA94E0099582EA94E00E94A41E82EA80
:1053000094E00E947A1E8111FACF60E082EA94E074
:105310000E940C18E091A604F091A70430E020E070
:1053200040E06BE082EA94E0099590E080E00E9422
:10533000982E8B3A09F068C01A821982BE016F5FFD
:105340007F4F81E090E00E94191E89819A8190939D
:10535000BA058093B905BE016F5F7F4F83E090E08F
:105360000E94191E89819A819093BC058093BB0588
:10537000BE016F5F7F4F85E090E00E94191E89811A
:105380009A819093B8058093B705BE016F5F7F4FF8
:1053900087E090E00E94191E89819A819093C6054A
:1053A0008093C505BE016F5F7F4F89E090E00E944A
:1053B000191E89819A819093C8058093C705BE0103
:1053C0006F5F7F4F8BE090E00E94191E89819A8168
:1053D0009093C4058093C3056FE173E08DE090E086
:1053E0000E94191E66E071E08FE090E00E94191E95
:1053F0006DE173E081E190E00E94191E64E071E0CC
:1054000083E190E00E94191E80917A00887F80934A
:105410007A0080917A00846080937A008AE79DE127
:105420009093AF058093AE0586E39DE19093A3052D
:105430008093A20582E89CE190936C0580936B05B4
:10544000B12CA12C9E012F5F3F4F6901A7E04A2E8E
:10545000512C8AE995E00E940E1B86EA95E00E9495
:105460000E1B40917E0550917F05609180057091E3
:105470008105E0916F05F091700510E000E0E41700
:10548000F50709F441C08091860590918705A091A8
:105490008805B091890500918A0510918B052091AE
:1054A0008C0530918D05801B910BA20BB30B9A01DB
:1054B0002E1B3F0B30936E0520936D0550937005A6
:1054C00040936F0580319105A105B10508F080C0BA
:1054D000C901880F991F280F391F30936E0520933B
:1054E0006D0580917205882359F080916D0590912A
:1054F0006E0591958195910990936E0580936D0548
:1055000000916D0510916E0580918E050E94F70C3B
:105510007C018EE895E00E940E1BEF2809F060C028
:10552000012B09F464C081E080937105E091690565
:10553000F0916A05309729F080916D0590916E0584
:1055400009958091940590919505029729F4809191
:10555000710581111092710582EB95E00E94921BFA
:105560008EEB95E00E94921B06E315E036E0A31651
:10557000B1040CF050C0D80116968C918823F9F034
:105580000E94AF0DF80120813181428153813B019E
:105590004C01621A730A840A950AB401A30184813A
:1055A00090E0B0E0A0E0481759076A077B0738F0A1
:1055B00060E085810E94200DD80116961C92BFEFF5
:1055C000AB1ABB0A095F1F4FD1CF81E090E01DCE1F
:1055D0008097A105B10508F084CF220F331F7DCF3E
:1055E000012B29F0E0916B05F0916C05A3CF809120
:1055F000940590919505029709F0AECF80917105C1
:105600008111A5CFE0916705F0916805309709F405
:105610009ECF099596CF8091A6050E94F70C892B05
:1056200009F459C080E0809324030091B3051091E0
:10563000B405E090BF05F090C005809122039091E1
:105640002303892B09F0E7C020910601309107015F
:1056500080911F0390912003A90137FF02C04F5F83
:105660005F4F55954795BC01641B750B37FF02C012
:105670002F5F3F4F35952795280F391F80910401E3
:1056800090910501E0911D03F0911E03AC0197FF7D
:1056900002C04F5F5F4F559547954F01841A950A99
:1056A000A40197FD0196959587958E0F9F1F909069
:1056B0001C03992009F445C06450710906171707A7
:1056C00044F02C5F3F4F99249394201731070CF03E
:1056D00045C0912C43C00091220310912303809177
:1056E0009A050E94F70C892B09F09CCF8091240326
:1056F000811199CF012BF1F4E1E0F0E0F093230365
:10570000E0932203109221030BE315E060E0D8013F
:105710008C910E94200DF8011182095F1F4F75E6E0
:10572000672E75E0772E6016710681F781E0809311
:10573000080179CF0E94DA1E1092230310922203EF
:10574000F5CF6D5F7F4F6017710744F42350310927
:1057500099249394021713070CF0BBCF20911B03DD
:10576000222391F044505109E416F506B4F0049652
:105770008E159F0594F0882483949920B1F0292CEC
:10578000392C892C80E021C04D5F5F4F4E155F059D
:1057900024F40397E816F90674F3911005C0212C40
:1057A000312C80E0812C11C0812C80911A03382E7D
:1057B000212C81110AC08091190391E089278093DF
:1057C0001903212C3324339481E080931A03692D2B
:1057D00086E395E00E94B31D682D8DE395E00E945D
:1057E000B31D622D84E495E00E94B31D632D8BE40C
:1057F00095E00E94B31D682D692582E595E00E9421
:10580000B31D6091190389E595E00E94B31D909244
:105810001C0380921B03809118038823B9F00E9417
:10582000AF0D209114033091150340911603509150
:105830001703621B730B840B950B69387341810549
:10584000910520F00E94DA1E109218038091220325
:1058500090912303009709F0D1C1809102019091AA
:105860000301D801A81BB90BCD01B7FF03C0919567
:10587000819591090D977CF480910001909101012F
:10588000F701E81BF90BCF01F7FF03C09195819554
:1058900091090D971CF081E0809308018091080127
:1058A000882359F18091130381112CC00E94AF0D00
:1058B00020910F0330911003409111035091120376
:1058C000621B730B840B950B6E317105810591057D
:1058D00008F487C11092080181E0809313030E94AD
:1058E000AF0D60930F037093100380931103909397
:1058F000120382EA94E00E94A41E8091130388237D
:1059000009F46FC18091220390912303892B09F040
:10591000F5C11093030100930201F0920101E0929E
:10592000000180910601909107019C01220F331F15
:10593000280F391F203831050CF484C1A6E03595B5
:105940002795AA95E1F760911F0370912003CB0181
:10595000880F991F880F991F681B790B77FF02C06A
:10596000615C7F4FE6E075956795EA95E1F7665EC5
:105970007F4FC90137FD019695958795681B790B77
:105980004CE250E084E190E00E94F313C801880FDC
:10599000991F880F991FB801681B790B613C29EF8B
:1059A00072070CF452C1603436E073070CF050C13A
:1059B00077FF02C0615C7F4F86E0759567958A9599
:1059C000E1F7665E7F4F17FD46C12AE130E0261BF6
:1059D000370B46E150E08FE190E00E94BF138091C9
:1059E0000401909105019C01220F331F280F391FDC
:1059F000203831050CF437C1A6E035952795AA95D6
:105A0000E1F760911D0370911E03CB01880F991F70
:105A1000880F991F681B790B77FF02C0615C7F4F6D
:105A2000E6E075956795EA95E1F7665E7F4FC901F7
:105A300037FD019695958795681B790B4CE250E0F0
:105A40008AE490E00E94F313C701880F991F880F22
:105A5000991FB701681B790B613C89EF78070CF43B
:105A600005C1603496E079070CF003C177FF02C0EE
:105A7000615C7F4F36E0759567953A95E1F7665E14
:105A80007F4FF7FCF9C02AE130E0261B370B46E1D7
:105A900050E085E590E00E94BF1381E00E947D0CFC
:105AA00084E998E00E943E1510923105109230056D
:105AB000509233054092320588EC91E00E94C81D57
:105AC000A6E0B0E0B0933105A0933005EDE1F0E041
:105AD000F0933305E09332058CEC91E00E94C81DF1
