:100000000C940A040C945F230C9438230C9432044F
:100010000C94AA270C9411270C9432040C943204EB
:100020000C9432040C9432040C9432040C942A255F
:100030000C9432040C9432040C9432040C94320468
:100040000C94EE220C9432040C94CB240C94A52432
:100050000C9432040C9432040C9432040C94320448
:100060000C9486230C9432044C4F4144494E472E45
:100070002E2E2E0000300018000C0009000680040F
:100080002004C00360030003A0024002E0018001DD
:100090002001C000600030002000180010000C009B
:1000A000080006000400455241534500524553459F
:1000B00054004C4F4144005341564500524F544167
:1000C0005445204449535000454E434F4445522027
:1000D0004449520050554C5345204F555400534FFE
:1000E00055524345005253540052554E0054454D0D
:1000F000504F004241434B20544F204D41494E0048
:100100007800464143544F525920524553455400BC
:1001100044454C004241434B20544F204D41494EF1
:10012000007800524553455420414C4C00525354E2
:10013000004C4F41442046524F4D20534C4F5400E9
:100140005341564520544F20534C4F540042414395
:100150004B20544F204D41494E007800524F54419E
:100160005445440044454641554C5400444953507D
:100170000052455645525345440044454641554C6E
:1001800054004449520031205050514E2050554C9B
:1001900053450034205050514E2050554C5345008B
:1001A0003234205050514E2050554C53450050553C
:1001B0004C5345204F4646004F5554004D49444945
:1001C0000031205050514E0032205050514E0034DA
:1001D000205050514E003234205050514E00434C6C
:1001E0004F434B00494E540045585400435632206B
:1001F00054524947004356312054524947004E4F0C
:100200004E45005253540043563220474154450056
:100210004356312047415445004E4F4E45005255FC
:100220004E0042504D0045585400800040002000D0
:10023000180010000C000B000A000900080007005D
:10024000060005000400030002000100FEFFFDFFA0
:10025000FCFFFAFFF8FFF4FFF0FFE8FF43563220FF
:100260004D4F4400435631204D4F44004555434CBB
:1002700049442048495453004555434C4944205370
:1002800054455053004D4F44004555434C4944207C
:1002900048495453004555434C4944205354455014
:1002A0005300434C4F434B204D4F44004E4F4E455F
:1002B0000043563200435631004D554C5449504C82
:1002C00059007800444956494445002F0034000243
:1002D0000203030203040505000005000500009168
:1002E000000001982004805C2509AD745452B95275
:1002F000492806AADC54192907AA5C624A0A2B0776
:100300009BE5D24A002C059154042D058B66062EE0
:10031000058954022F06A4EC631B3008ACEC54345E
:1003200093023107EBEC92AC063209AC6C364A2AE8
:100330008F003309AC6C364A1A8D043408AC6CA2B9
:100340001CBA003509AC6C86DE6824003609ACECBA
:10035000545E3129003708AC6C468E75043809AC00
:10036000EC544C2A26053909ACEC544C3B29003A94
:1003700006995552004108ACEC541C53064209AC96
:100380006C561C298E044309ACEC54D4312900442A
:1003900008AC6C563447024508AC6C861E7A04469D
:1003A00008AC6C865E39034709ACEC544E33290027
:1003B0004808AC6CA21C53064906A95486004A089A
:1003C000ACEC6B9914004B09AC6CA24A3295014C11
:1003D00007AC6C727B044D09AD74F25A49EB004EC8
:1003E00009AD74F25449EE004F08ACEC543493025A
:1003F0005009AC6C561C2967005108ACEC54B4622F
:100400000A5208AC6C561CA9195309ACEC46461AA2
:100410008D045407AB64566C015508AC6CA23329AB
:10042000005609AD74B24E65CA11570AAD74B24A8E
:100430002AA92E005809AC6CA24C2ACA00590AAD50
:100440007472AA33CA28025A07AB64662A07700876
:10045000ADF456B6D3027107ADF48EAF057208AB9A
:1004600064A21A2A027406AD74FE237709ADF4560D
:10047000A5464E0B78069B64520700000004FFFF60
:100480000000000000003C007C00FC00FC03FC0FAE
:10049000FC0FFC03FC007C003C000000000000009E
:1004A0000000380E380E380E380E380E380E380E62
:1004B000380E380E380E380E000000000000240000
:1004C00027002A0000000000250028002B00000063
:1004D000000023002600290004040404040404048A
:1004E00002020202020203030303030301020408DF
:1004F000102040800102040810200102040810208E
:1005000000000008000201000003040700000000D2
:10051000000000001D00040404050301061018007B
:100520000017000000013F000002E125270F3B9665
:10053000B1A5464C34428C1812939029426A085156
:100540009A8C225286C8881164C4181A61ACC4B847
:1005500021002F0CBABABDC948D167E3C601301FCC
:100560007CFB1D434A54103A665787D0883022C41A
:10057000841844A78CD9EC1009258ACC0031147A50
:10058000BDA561A40A993933628C9071F3FF2845A7
:1005900006321B7CFB1D536854103A666CE40C89D0
:1005A00099C1C65439822367F9E08101331C7CFB71
:1005B0001D536854103A666CE44072B4B392E42C54
:1005C0008D1D22A10695190034207CFB2D218386E8
:1005D0008C213284CC904123088D183562D4885107
:1005E000C6ECEC018B95F301351A7CFB0D155B8C89
:1005F0009C2F082959316AE8C8591A3B44420D2AF0
:100600003300361B7D1B9E5369560C3B67745E9806
:1006100059C282D439BB3B45624DAA330037137CA3
:10062000FB85150F52CE87E4E870CA8123E71D00D1
:1006300038207CFB1D536854103A66D9211244C8F7
:10064000203A8586080942C7ECEC100935A8CC0091
:10065000391A7CFB1D536854103A666787482C5141
:100660009372BE1844420D2A330041167D1BA672B8
:10067000A7D250326AC8A811E3ECDD83EFEC770310
:1006800042247D1B86446A968C22316CC4B011C30F
:10069000460C1B318AC4924D46911876CE9E3D0879
:1006A000C162090043177D1B9E5369961042667410
:1006B000FE4F898D2044628D222400441B7D1B86C1
:1006C000446A968C1A326CC4B011E3EC7F766CC429
:1006D00028124BD4240245127CFB850F52CE4B448A
:1006E000188D9C5F3E78600046107CFB850F52CED3
:1006F0009769B21939FF1200490773DB843F484CF0
:100700000D7BDB8581F3FF3F7CF060004E247D1B79
:100710000681E6CC1D3B860A55A24426C69818637E
:10072000648891216646981961282BCCAE33370036
:100730004F167D1B9E5369968C1A31CEFEBF1B311E
:100740006AC89A54670052318E3B06456B980C2359
:10075000316EC4B811E3468C1B316EC43012A388CD
:100760003051946AC8B031A3C6109AD598514486C6
:1007700091183762DCC10153228E3B9E63899690AB
:1007800022316EC4B81163C7529A2C5BB283C78EF4
:1007900035680E151126ABD000540D7D1B860F5207
:1007A0000D9DFFFF150055117CFB8561F6FF9F8DA8
:1007B0001834440D2A330056167FF98591F6FFCB85
:1007C00011E38690224315097227CB0E0358297E28
:1007D0003B8681068F91183684101922A4860C431B
:1007E00067D024519206CD211B328A0819424486D3
:1007F0008D2076D0C2017814CABA8541868E904089
:10080000638A941924530CB2680000000004FFFFAF
:100810000000CE2711241FBECFEFD8E0DEBFCDBF32
:1008200011E0A0E0B1E0ECE5FEE602C005900D921B
:10083000A83EB107D9F726E0A8EEB1E001C01D92AD
:10084000A833B207E1F714E0CAE0D4E004C021976E
:10085000FE010E941035C930D107C9F70E94CC298A
:100860000C942C370C940000662329F06A3019F0A0
:10087000862F90E008958FEF9FEF0895AF92BF927B
:10088000CF92DF92EF92FF920F93CF93DF93EC0121
:10089000DA017901942F9770E1E0F0E09F01092ED1
:1008A00001C0220F0A94EAF7522F6E018AE8C80E9F
:1008B000D11CF601808140E0823018F4422F813053
:1008C00049F15D01F8EFAF22E8ADF9AD288139813A
:1008D000D90150968C918A9D90018B9D300D1124E9
:1008E000620F731FDF01A60FB71F01111AC0EA0EB6
:1008F000FB1E8C91842B85278D93AE15BF05C9F700
:10090000DF91CF910F91FF90EF90DF90CF90BF904C
:10091000AF90089550E0D5CF440F550FE114F10486
:1009200079F33C91342B35273C939F5F9770E1E03E
:10093000EE1AF1089111F0CF2CAD3DADA20FB31F0F
:10094000F6018081823028F4813009F051E041E0E5
:10095000E5CF51E0E3CF80E0089590E080E0089596
:100960001092DB031092DC031092DD031092DE0381
:100970001092DF031092E0031092E1031092E20361
:100980001092E3031092E6031092E9031092EA0337
:100990001092EB031092EC031092F1031092F20309
:1009A0001092F3031092F4031092ED031092EE03F1
:1009B0001092EF031092F00310920F0410920E04A5
:1009C00020910B0430910C0480E090910D04891764
:1009D00060F494E0899FF0011124E20FF31F10826C
:1009E0001182128213828F5FF0CF08951092CE038E
:1009F0001092CD0310920504109206041092070481
:100A0000109208040E94B004E091D503F091D6033F
:100A1000309709F009940895BC01F894EDECF3E0E7
:100A20009587848722853385C9010E94FC34708FA5
:100A3000678BC90168E170E00E94FC34738F628F9C
:100A40007894089508958093200508959B01DC0112
:100A50001896ED91FC9141E067E10994833081F0B3
:100A600028F4813099F08230A9F008958730A9F0F8
:100A70008830C9F08430B1F4809180008F7D03C04C
:100A8000809180008F7780938000089584B58F7760
:100A900084BD089584B58F7DFBCF8091B0008F77A2
:100AA0008093B00008958091B0008F7DF9CFCF93EF
:100AB000DF93282F30E0F901E050FB4F8491F901DA
:100AC000E451FB4FD491F901E852FB4FC491CC2380
:100AD000A1F081110E942E05EC2FF0E0EE0FFF1F18
:100AE000E253FB4FA591B491EC91ED2381E090E0AE
:100AF00009F480E0DF91CF91089580E090E0FACF93
:100B00001F93CF93DF93282F30E0F901E050FB4F84
:100B10008491F901E451FB4FD491F901E852FB4F64
:100B2000C491CC23A9F0162F81110E942E05EC2F21
:100B3000F0E0EE0FFF1FEC53FB4FA591B4918FB780
:100B4000F894EC91111108C0D095DE23DC938FBF8F
:100B5000DF91CF911F910895DE2BF8CFCF93DF93D4
:100B600090E0FC01E451FB4F249188529B4FFC0123
:100B700084918823C9F090E0880F991FFC01E65406
:100B8000FB4FA591B491FC01EC53FB4FC591D4915F
:100B900061110DC09FB7F8948C91209582238C939E
:100BA0008881282328839FBFDF91CF9108956230E9
:100BB00051F49FB7F8943C91822F809583238C93B6
:100BC000E8812E2BEFCF8FB7F894EC912E2B2C933E
:100BD0008FBFEACF3FB7F8948091D2029091D302B1
:100BE000A091D402B091D50226B5A89B05C02F3F95
:100BF00019F00196A11DB11D3FBFBA2FA92F982F43
:100C00008827BC01CD01620F711D811D911D42E03D
:100C1000660F771F881F991F4A95D1F708958F9205
:100C20009F92AF92BF92CF92DF92EF92FF926B01B1
:100C30007C010E94EA054B015C01C114D104E1046E
:100C4000F104B9F00E94EA05681979098A099B093B
:100C5000683E73408105910580F321E0C21AD108F6
:100C6000E108F10888EE880E83E0981EA11CB11CF3
:100C7000E4CFFF90EF90DF90CF90BF90AF909F9028
:100C80008F9008952FB7F8946091CE027091CF02A3
:100C90008091D0029091D1022FBF08950E94B0049C
:100CA0000E94420660930504709306048093070433
:100CB00090930804E091D303F091D403309709F0A6
:100CC00009958091090490910A04892B39F482E0F6
:100CD00090E09093CE038093CD03089581E090E05F
:100CE000F8CF0F931F93CF93DF93EC010091CD03C7
:100CF0001091CE030E94F604809128059091290559
:100D0000059749F48FB7F89422E235E03093CC038D
:100D10002093CB038FBFD0932905C0932805C23001
:100D2000D105B9F170F4209731F1C130D10541F10D
:100D3000012B09F447C0DF91CF911F910F910C94C3
:100D40004E06C430D105B9F168F1259789F781E0E5
:100D500090E090930A048093090488E190E00E9457
:100D60000C058FB7F8942AE73DE13093CC0320932C
:100D7000CB038FBFDDCF10920A0410920904D8CFA5
:100D8000D0930A04C093090488E190E00E940C0506
:100D9000CFCF81E090E090930A048093090484E02F
:100DA00090E0F4CF81E090E090930A0480930904EE
:100DB00082E090E0EBCF81E090E090930A04809392
:100DC0000904E4CFDF91CF911F910F910895089509
:100DD0000895AF92BF92CF92DF92EF92FF920F935E
:100DE0001F93CF93DF936C017B018B01040F151FC1
:100DF000EB015E01AE18BF08C017D10759F0699129
:100E0000D601ED91FC910190F081E02DC60109958C
:100E1000892B79F7C501DF91CF911F910F91FF9039
:100E2000EF90DF90CF90BF90AF90089520917F0218
:100E3000260F3327331F21323105ECF42091A50210
:100E4000FC0190E080E0243069F082E00895A091F8
:100E50007F022191AC01435A5D4FA40FB52FB11D04
:100E60002C930196861798F380917F02680F609308
:100E70007F0280E0089581E008951092A50281E04C
:100E80008093A7021092A60261E082E10E94800591
:100E900061E083E10E948005E9EBF0E080818E7FD4
:100EA000808380818D7F808388E48093B80085E48F
:100EB0008093BC000895CF93DF9391E090935C0200
:100EC0008823B9F0C091B800D091BA008091BC00DD
:100ED0008A7B8093BC0060E082E10E94800560E034
:100EE00083E10E9480050E943D07D093BA00C09321
:100EF000B800DF91CF910895089508950895E09185
:100F0000540280915302E81730F4F0E0ED5CFD4F9D
:100F1000808190E008958FEF9FEF089590915402A3
:100F2000809153022FEF3FEF981748F4E92FF0E03C
:100F3000ED5CFD4F208130E09F5F90935402C9012A
:100F400008958091530290915402891B990B089542
:100F5000CF92DF92EF92FF920F931F93CF93DF9385
:100F60007C01CB018A0120913202222389F0EB011E
:100F70006B01C40ED51ECC15DD0569F06991D70152
:100F8000ED91FC910190F081E02DC7010995F3CF1F
:100F9000642F0E941607C801DF91CF911F910F9116
:100FA000FF90EF90DF90CF900895CF93DF931F9243
:100FB000CDB7DEB76983209132022223F9F0209168
:100FC0005502203258F021E030E0FC0133832283C7
:100FD00090E080E00F90DF91CF91089580915602CC
:100FE000E82FF0E0EE5EFD4F998190838F5F809354
:100FF00056028093550281E090E0ECCF61E0CE0193
:1010000001960E941607F7CFFC01538D448D252FC2
:1010100030E0842F90E0821B930B541710F0CF9692
:10102000089501970895FC01918D828D981761F0C4
:10103000A28DAE0FBF2FB11D5D968C91928D9F5FDB
:101040009F73928F90E008958FEF9FEF0895FC01BA
:10105000918D828D981731F0828DE80FF11D858D6D
:1010600090E008958FEF9FEF0895FC01918D228D00
:10107000892F90E0805C9F4F821B91098F73992785
:1010800008958EE293E00E94350821E0892B09F44F
:1010900020E0822F089580E090E0892B29F00E94C3
:1010A000410881110C9400000895FC01A48DA80F43
:1010B000B92FB11DA35ABF4F2C91848D90E001969A
:1010C0008F739927848FA689B7892C93A089B189BA
:1010D0008C91837080648C93938D848D981306C05B
:1010E0000288F389E02D80818F7D80830895EF92BF
:1010F000FF920F931F93CF93DF93EC0181E0888FD2
:101100009B8D8C8D98131AC0E889F989808185FFA1
:1011100015C09FB7F894EE89FF896083E889F98943
:1011200080818370806480839FBF81E090E0DF9145
:10113000CF911F910F91FF90EF900895F62E0B8D98
:1011400010E00F5F1F4F0F731127E02E8C8D8E1153
:101150000CC00FB607FCFACFE889F989808185FFBA
:10116000F5CFCE010E945508F1CFEB8DEC0FFD2F8E
:10117000F11DE35AFF4FF0829FB7F8940B8FEA8975
:10118000FB8980818062CFCFCF93DF93EC01888D84
:101190008823B9F0AA89BB89E889F9898C9185FDF2
:1011A00003C0808186FD0DC00FB607FCF7CF8C9180
:1011B00085FFF2CF808185FFEDCFCE010E945508DB
:1011C000E9CFDF91CF910895DC011A96ED91FC9162
:1011D00030E020E00994DC011696ED91FC9130E0BE
:1011E00020E040E069E10994DC011696ED91FC9164
:1011F00030E020E040E068E109949A01DC011696B5
:10120000ED91FC91462F67E10994EF92FF920F93C5
:101210001F93CF93DF931F92CDB7DEB77C018B0175
:10122000D8016C91673129F150F46531A0F40F9029
:10123000DF91CF911F910F91FF90EF9008956A3148
:1012400018F16E3FA1F7F8014181498369E2C701B6
:101250000E94E4080BC0F80141814983D70116962A
:10126000ED91FC9130E020E0C70109950E5F1F4F22
:10127000D7CFF80181818983AE014F5F5F4F61E075
:10128000C7010E94FD08F2CF0F5F1F4FD7011696CE
:10129000ED91FC9130E020E040E0C7010995C0CF1E
:1012A000462FDC011696ED91FC9130E020E066E1DE
:1012B0000994462FDC011696ED91FC9130E020E078
:1012C00065E10994EF92FF920F931F93CF93DF9301
:1012D000EC01042F79016D3009F446C050F46B30F5
:1012E000C9F1693009F49FC06A3009F465C080E033
:1012F00046C06E3009F452C06F3099F70E94F4086E
:10130000F7011381110F110F110F6C89160F60E493
:10131000CE010E945909612F62956F706061CE0104
:101320000E945909612F6F70CE010E945009F70188
:101330006481606BCE010E945009F70140815181A8
:101340006281660F660F660FCE010E94FD08015094
:10135000A1F72EC06DE271E0442311F068E271E064
:10136000CE010E9405090AC0411110C061E271E07E
:101370000E940509E881F98182898C8B81E0DF91E7
:10138000CF911F910F91FF90EF9008956AE171E066
:101390000E940509E881F9818389EFCF0E94F40852
:1013A00061E8CE010E945909602FCE010E945009C8
:1013B000CE010E94EB08E2CFEA85FB8530E020E019
:1013C00040E068E2CE010995EE81FF8130E020E047
:1013D00040E064E1CE01099541E06BE4CE010E945A
:1013E000E408E881F981448169E2CE010E94E408C1
:1013F00040E06BE4CE010E94E408E881F981448179
:1014000069E2CE010E94E40841E06BE4CE010E9453
:10141000E408E881F981458169E2CE010E94E4088F
:1014200062E371E09DCF87E691E0998388831C8A0F
:10143000A5CFDC011896ED91FC9130E020E040E072
:1014400069E10994DC011896ED91FC9130E020E00F
:1014500040E068E10994CF93DF931F92CDB7DEB7E8
:101460006983BE016F5F7F4F0E9426050F90DF9159
:10147000CF910895EF92FF921F93CF93DF93EC01EA
:10148000162F7A010E94220A60E4CE010E942B0AE4
:10149000E885F9859701412F67E1CE010995CE01D5
:1014A000DF91CF911F91FF90EF900C94190AEF926A
:1014B000FF921F93CF93DF93EC01142F79016631D4
:1014C00081F138F4643109F44BC0653179F080E082
:1014D00022C06831C9F150F16931C9F78091110218
:1014E000882391F1CE010E94190A2EC08091110229
:1014F000882319F0CE010E94190ACE010E94220A07
:1015000060E0CE010E942B0A612FCE010E942B0ABF
:1015100081E080931102DF91CF911F91FF90EF90B6
:101520000895642F0E942B0A81E0F5CF809111026B
:10153000882319F0CE010E94190AA701193138F445
:10154000612FCE010E943A0A10921102EDCF68E19C
:10155000CE010E943A0A185188E1E80EF11CEDCF45
:101560008E898F3F11F488E78E8BE885F985970186
:10157000412F64E1CE01DF91CF911F91FF90EF9059
:1015800009940F93FC01E85BFF4F0190F081E02D7F
:10159000DF01A41BB50BAD01FC01EA5BFF4F01901D
:1015A000F081E02DDF01A61BB70BBD01011113C0B7
:1015B00041505109621B730BFC01E05CFF4F01902D
:1015C000F081E02D4E1B5F0BDC01D496ED91FC9178
:1015D00009950F910895013079F761507109421B07
:1015E000530BEACFCF93DF93FC01A081B18182AD91
:1015F00090E09C0143E0220F331F4A95E1F737AF9B
:1016000026AF50962C91509748E0249F90011124CA
:1016100035AF24AF23AD30E0B90153E0660F771F3B
:101620005A95E1F7EF01C05CDF4F798368835196EB
:101630004C915197E901C80FD91F50E04C175D0735
:1016400018F4CA01821B930BEF01CE5BDF4F798345
:101650006883229623E0880F991F2A95E1F7860F69
:10166000971F99838883229654968D919C915597C4
:1016700099838883E85BFF4F56968D919C91918367
:101680008083DF91CF9108950F931F93FC01E25B5C
:10169000FF4F0190F081E02DDC01A05BBF4F0D906A
:1016A000BC91A02D4A175B0740F4E017F10748F002
:1016B0000417150730F080E019C0E017F107C0F3F8
:1016C000FACFFC01E65BFF4F40815181845B9F4F65
:1016D000FC01808191816817790758F481E04217F5
:1016E000530720F081E02617370728F71F910F9145
:1016F000089542175307B0F3DECF2F923F924F92D7
:101700005F926F927F928F929F92AF92BF92CF9291
:10171000DF92EF92FF920F931F93CF93DF93CDB79A
:10172000DEB728970FB6F894DEBF0FBECDBF9887FF
:101730008F83865B9F4F9A838983FC01118210827D
:10174000EF81F885EA5BFF4F208031802F8138855B
:10175000245B3F4F3C832B83F90131822082EF8051
:10176000F884FEE4EF0EF11CF70111821082EF8184
:10177000F885E85BFF4F40805180EF81F885EC5B96
:10178000FF4F208131814216530630F0C201821B87
:10179000930BF70191838083EF81F885EE5BFF4F18
:1017A00020813181421A530A2F813885205B3F4FB7
:1017B0003E832D83F90151824082EF81F885E85AFA
:1017C000FF4F60807180EF81F885EC5AFF4FA08059
:1017D000B180EF81F885EA5AFF4FC080D180EF8158
:1017E000F885EE5AFF4F8080918083019501A60114
:1017F000B4018F8198850E94440B2F8138852C5726
:101800003F4F38872F8381111BC0F9011082289622
:101810000FB6F894DEBF0FBECDBFDF91CF911F9101
:101820000F91FF90EF90DF90CF90BF90AF909F907F
:101830008F907F906F905F904F903F902F90089582
:1018400081E0EF81F88580838114910421F0E981A2
:10185000FA8191828082A214B30420F4EB81FC818E
:10186000B182A082F701808191818C159D0510F4D1
:10187000D182C0826414750450F6ED81FE817182BC
:101880006082C5CF0F93CF93DF93E02FDC01AC577D
:10189000BF4FFC91FF2309F460C02115310509F405
:1018A0005CC02230310538F0023009F04AC06F5F69
:1018B0007F4F621B730B0E2F0170E0FD52C0FC01C5
:1018C000E25BFF4F0190F081E02D4E175F0708F4B7
:1018D00044C0FC01E05BFF4F0190F081E02D4E170A
:1018E0005F07D8F5FC01E45BFF4F0190F081E02D2C
:1018F000DC01A65BBF4F0D90BC91A02D260F371FBA
:101900002617370738F56E177F0718F59F01215006
:101910003109A217B30708F56A177B0708F4BD0160
:101920002E173F0708F4F901E61BF70BEC01AEA9EF
:10193000BFA914960D90BC91A02D9F01FD010995A2
:101940000CC0033009F0B7CF4F5F5F4F421B530B02
:10195000B2CFBD016E177F07E0F2DF91CF910F91FB
:101960000895FC01E65BFF4F0190F081E02D6E17BA
:101970007F0798F3FC01E45BFF4F0190F081E02DBD
:101980006E177F0750F7FC01E05BFF4F0190F0817D
:10199000E02DDC01A25BBF4F0D90BC91A02D240F68
:1019A000351F24173507A8F44E175F0788F49F01E9
:1019B00021503109A217B30780F64A175B0708F4D4
:1019C000AD012E173F0708F4F901E41BF50BAECF6C
:1019D000AD014E175F0708F6EDCF0F932091E40499
:1019E0003091E50462177307F0F02091E60430911E
:1019F000E70462177307B8F42091E0043091E10422
:101A00008217930780F02091E2043091E30482175B
:101A1000930748F4AB01BC0100E021E030E086E927
:101A200094E00E94420C0F9108955F926F927F9212
:101A30008F929F92AF92BF92CF92DF92EF92FF92DE
:101A40000F931F93CF93DF93EC017B018A016C010D
:101A5000C41AD50A4817590718F06A01C81AD90AD2
:101A60002E153F0560F44701821A930AC814D90461
:101A700048F10C171D0708F459C0512C18C0490132
:101A80008E189F08C814D90408F05EC09C2D8D2DB7
:101A90006401892E982E902F812F8901292F382FAC
:101AA0009C2F8D2FE701E92EF82E552453943601F3
:101AB00076946794E216F30608F442C0AA24AA9426
:101AC000BA2C21C09C2D8D2D6401892E982E9E2D1F
:101AD0008F2D7801092F182F9C2F8D2FE901292F89
:101AE000382FE3CFB701CE01552011F0BE01C70159
:101AF0000E94ED0C6818790877FE04C0EA0CFB1C04
:101B00006C0C7D1C21960C171D0760F7DF91CF919F
:101B10001F910F91FF90EF90DF90CF90BF90AF900B
:101B20009F908F907F906F905F900895360176948C
:101B30006794902F812F8E01C92FD82F7901512CB6
:101B4000AA24A394B12CDFCF0C171D0708F095CF62
:101B5000360176946794902F812F8E01C92FD82F4C
:101B60007901512CABCFAF92BF92CF92DF92EF921F
:101B7000FF920F931F93CF93DF936C01EB015A01F8
:101B80007B01E20EF31E9C01240F351F8701AB0180
:101B9000BC0186E994E00E94440B882361F000E0D8
:101BA0009501AE01B60186E994E00E94420C2196AF
:101BB000EC16FD06A1F7DF91CF911F910F91FF90D9
:101BC000EF90DF90CF90BF90AF900895213069F0F3
:101BD00038F0223079F0840F911D47FD9A950895D1
:101BE000860F911D67FD9A950895841B910947FD05
:101BF00093950895861B910967FD9395089521306B
:101C000069F038F0223079F0861B910967FD9395D1
:101C10000895840F911D47FD9A950895860F911D93
:101C200067FD9A950895841B910947FD9395089542
:101C30003F924F925F926F927F928F929F92AF925C
:101C4000BF92CF92DF92EF92FF920F931F93CF93A9
:101C5000DF937C01162F442EEC01C25ADF4F5E80C9
:101C60006F806C018AE8C80ED11C78847518312EFB
:101C7000711608F4372C8C809D800E85202F462D00
:101C8000652D8A819B810E94E60D5C01202F462DE7
:101C9000652DC4010E94FF0DAC01442079F08C85B4
:101CA000F6018083232D30E0B501C7010E94420C6C
:101CB000171548F017196394512CD7CF8B858111D4
:101CC000F7CF8D85EDCF150D1E836F82DF91CF91FC
:101CD0001F910F91FF90EF90DF90CF90BF90AF904A
:101CE0009F908F907F906F905F904F903F9008955E
:101CF000DC011A964C911A97ED91FC911197249161
:101D000030E0042E02C0359527950A94E2F7842F1F
:101D1000860F883068F031961196FC93EE93E4912B
:101D200098E0941B01C0EE0F9A95EAF72E2B88508D
:101D30001A968C938FEF9FEF01C0880F6A95EAF790
:101D40008095822308950F931F93CF93DF938C0187
:101D5000EC01C25ADF4F798368831A86FC01EF5881
:101D6000FF4F6081CE010E94780E8887F801EE58FF
:101D7000FF4F6081CE010E94780E8987F801E657F7
:101D8000FF4F90819C8781E0911180E08D87DF91EA
:101D9000CF911F910F910895CF93C62F0E94780E77
:101DA000C15021E030E001C0220FCA95EAF7821B42
:101DB000CF910895FC01E60FF11D849190E0982FDA
:101DC00088273196E4918E0F911D0895CF93DF936C
:101DD0002091F0043091F1042817390709F490C0DC
:101DE000EC019093F1048093F004FC0184918093C2
:101DF00003053196E491E0930405FE013296E491E7
:101E0000E0930505FE013396E491E0930605FE019B
:101E10003496E491E0930705FE013596E491E09352
:101E20000805FE013696E491E0930905FE01379618
:101E3000E491E0930A05FE013896E491E0930B05E6
:101E4000FE013996E491E0930C05FE013A96E49187
:101E5000E0930D05FE013B96E491E0930E05FE0133
:101E60003C96E491E0930F05FE013D96E491E093EA
:101E70001005FE013E96E491E0931105FE013F96A8
:101E8000E491E0931205FE017096E491E09313054E
:101E900061E1CE010E94DA0E90931505809314053E
:101EA00063E1CE010E94DA0E909317058093160528
:101EB00065E1CE010E94DA0E909319058093180512
:101EC0008091F0049091F104892BD1F0809110055C
:101ED00080931C054091110540931D0590911B05B1
:101EE000992371F0913079F490911205891714F4C7
:101EF00090931C0580911305841714F480931D059D
:101F0000DF91CF91089530910D0520910F05082E96
:101F1000000C990B622F022E000C770B630F711DC2
:101F200037FD7A95861797071CF4320F30931C05FE
:101F3000241734F720931D05E3CFEF92FF920F9300
:101F40001F93CF93DF93FC01E65AFF4F208131812D
:101F5000295E3F4F6F3F710509F048F56136710505
:101F6000D8F080589F4FFC0180819181280F391F44
:101F7000C9010196FC014491442309F447C0F901C9
:101F800044914617170671F40196DF91CF911F9186
:101F90000F91FF90EF9008956134710548F38258D6
:101FA0009F4FE1CFFC018491280F311DE1CF8B01C0
:101FB000FC01EE57FF4FC081D181C20FD31F7E01BC
:101FC00060E0C7010E94DA0EC80FD91F62E0C701A6
:101FD0000E94DA0EF4E0EF0EF11C8017910780F3F7
:101FE000FE01849190E0982F88273196E4918E2B02
:101FF000009761F00817190719F4CE010396C5CFB1
:10200000FE013296E491CE0FD11DEACF90E080E040
:10201000BCCFCF92DF92FF920F931F93CF93DF93AA
:102020001092FC041092AE046C0180ECF82E10E0CB
:1020300000E0D0E0C0E0F60161916F01E09198040A
:10204000F091990486E994E009958F3F980789F10A
:102050008E3F2FEF920779F3BC0186E994E00E944E
:102060009D0F009721F1BC0186E994E00E94A30E28
:102070006091090584EF94E00E94CC0E80931E05C8
:1020800060910A0584EF94E00E94CC0E60910B05EC
:1020900084EF94E00E94CC0E082F880F110B80EC87
:1020A000F81202C0F0901E05C00FD11FC4CF80E00F
:1020B000F3CF2091FC04222399F080911E05022E7B
:1020C000000C330B280F311D87FD3A95C20FD31F2B
:1020D000C01BD10B1F1424F4CF0DD11DF7FCDA95D2
:1020E000CE01DF91CF911F910F91FF90DF90CF90A4
:1020F00008958F929F92AF92BF92CF92DF92EF920C
:10210000FF920F931F93CF93DF93EC017B018A0122
:102110006901FC01E459FF4F8081813009F46FC0EF
:1021200008F462C0823009F475C0833009F47DC0C0
:10213000FE01E05AFF4FF182E08232961183008364
:10214000B601CE010E949D0F009709F4FFC07E01E9
:102150002EE5E20EF11CBC01CE010E94A30EFE0191
:10216000E959FF4FB0803C966081C7010E94CC0EB8
:10217000882EFE01EC58FF4F6081C7010E94CC0EF3
:10218000082FFE01EB58FF4F6081C7010E94CC0E63
:10219000A82EF701908419140CF090C016850B0D31
:1021A0000195212F402F682D828193810E94E60D99
:1021B0006C01F70193838283212F402F682D848146
:1021C00095810E94FF0DAC01F70195838483113046
:1021D00009F484C0A8F1123009F491C0133009F455
:1021E000A4C08C01960136C0FE01E45AFF4F019055
:1021F000F081E02DCE010995080F191F99CFFE013E
:10220000E45AFF4F0190F081E02DCE010995E81AC4
:10221000F90A8ECFFE01E45AFF4F0190F081E02DC4
:10222000CE010995081B190B83CFFE01E45AFF4F1D
:102230000190F081E02DCE010995E80EF91E78CFCE
:102240009601290D311D97FC3A958C010B0D111D3E
:10225000B7FC1A95B601CE010E94440B882371F198
:10226000F701168217828E0101591F4F6E01F0E7A8
:10227000CF0ED11CF8016081C7010E94780E882E14
:10228000F6016081C7010E94780E982E40E0682D0B
:10229000CE010E94180E41E0692DCE010E94180E59
:1022A00061E0C7010E94780E8111F0CFF7018781AC
:1022B0008B1504F3C657DF4F848588838A2DAA0CBB
:1022C000990BDF91CF911F910F91FF90EF90DF90CD
:1022D000CF90BF90AF909F908F90089581E090E055
:1022E0008B199109B7FC939596012F5F3F4F8A0197
:1022F000090D111D97FC1A95C80ED91EABCF81E0B0
:1023000090E0BC016919710997FC739596012F5FE4
:102310003F4F8B199109B7FC93958A010F5F1F4FAF
:10232000480F591FC60ED71E95CF96012B0D311D94
:10233000B7FC3A9581E090E08919910997FC939553
:102340008A010F5F1F4F480F591F84CF90E080E034
:10235000B8CFCF92DF92EF92FF920F931F93CF935C
:10236000DF93EC018B011092AE047A01D12CC12CC9
:10237000F70161917F01E0919804F091990486E959
:1023800094E009958F3F980719F18E3F2FEF920740
:1023900079F39C01A801BE0186E994E00E947910BE
:1023A00020910205213059F038F0223059F02330C5
:1023B00061F0C80ED91EDCCFC80FD91FFACF080FA5
:1023C000191FF7CFC81BD90BF4CF081B190BF1CF7E
:1023D000C601DF91CF911F910F91FF90EF90DF9099
:1023E000CF900895CF93DF93EC016BAFEEA9FFA9D7
:1023F0000190F081E02D0995EEA9FFA90280F381FB
:10240000E02DCE01DF91CF910994AF92BF92CF9290
:10241000DF92EF92FF920F931F93CF93DF9300D041
:1024200000D01F92CDB7DEB78C01DC01DA96AC90FC
:10243000DA97DB96EC90DB97ED91FC91B188FE2C5E
:10244000D12CC12CD801ED91FC9111978089D8969F
:102450002D913C911C82FD828B83B8E08B9FC00143
:1024600011248C9DA0018D9D500D9C9D500D11241B
:10247000240F351F3A832983D8011496ED91FC91DE
:102480009E012F5F3F4F41E06FE0C8010995F39433
:102490008F2D8E198A1528F4BFEFCB1ADB0AFB1497
:1024A00088F20F900F900F900F900F90DF91CF91C7
:1024B0001F910F91FF90EF90DF90CF90BF90AF9062
:1024C0000895CF92DF92EF92FF920F931F93CF93D5
:1024D000DF93EC01962F683109F44BC0B9019931B3
:1024E00030F49431C9F0973189F080E006C0993119
:1024F00009F461C09032C9F781E0DF91CF911F915B
:102500000F91FF90EF90DF90CF90089550E082E21E
:1025100093E00E94A807F0CF8C859D85AE85BF858E
:10252000892B8A2B8B2B71F4E881F981A585B0E08A
:1025300020EA36E841E050E00E94C4336C877D8792
:102540008E879F8710925402109253021092560267
:10255000109255020E943D078CE797E090937E020F
:1025600080937D028DE797E09093820280938102B1
:10257000C3CF2C853D854E855F8560E074E284EF96
:1025800090E00E940E3420513109410951095695BD
:102590004795379527952093B8008E8990E09595BB
:1025A000879591E090933202809310021092560228
:1025B00010925502A1CFD0915502D13208F093C0AC
:1025C000C09110020E94EA056B017C018091A50276
:1025D000811164C082E08093A50281E08093A7020C
:1025E0008FEF8093A4021092C902D093C802A2E197
:1025F000B2E0E8EAF2E080E0D8137CC01092CA02B0
:102600008091CA02CC0FC82BC093CA028091A60247
:10261000813009F073C01092A6020E94EA056B0196
:102620007C018091CA028093BB00809158029091F6
:102630005902A0915A02B0915B02892B8A2B8B2BF5
:1026400099F00E94EA0500915802109159022091D8
:102650005A0230915B026C197D098E099F09061799
:10266000170728073907D8F18091BC0083FDD9CF1F
:1026700085EC8093BC000E94EA056B017C0180918F
:10268000A5028230E9F18091A4028F3F61F180912F
:10269000A402803241F18091A40225C080915802A9
:1026A00090915902A0915A02B0915B02892B8A2B1A
:1026B0008B2B09F48BCF0E94EA05009158021091F0
:1026C000590220915A0230915B026C197D098E09E2
:1026D0009F09061717072807390708F077CF809159
:1026E00057020E945B0710925602109255021092F8
:1026F000320202CF9D9191938F5F7ECF85EEB9CF4D
:102700008091580290915902A0915A02B0915B02B7
:10271000892B8A2B8B2B09F4B2CF0E94EA050091FA
:1027200058021091590220915A0230915B026C19A3
:102730007D098E099F09061717072807390708F032
:102740009ECFCDCF0F931F93CF93DF938C01C62FD6
:10275000642FCC32E8F4CA3208F041C0C83271F1BB
:10276000C93209F442C080E0C034D0F1CF73F8011F
:10277000EC0FF11D868D8F3F91F1C031E0F00E948A
:10278000570521E0892B09F420E0F801218F27C0AB
:10279000CD3289F140F384EB8C0F823020F7CF7378
:1027A000C00FD12FD11D8E8D411133C061E00E9429
:1027B000AE0560E08E8D0E94800511C0025E1F4F45
:1027C000D0E0F80181918F018F3F31F061E0D0318D
:1027D00008F062E00E94AE05DF5FD63191F781E03C
:1027E000DF91CF911F910F91089570E090E080E00C
:1027F0000E940F06F4CF85E090E0433010F082E0B5
:1028000090E0880F991F880F991F05970197F1F79E
:10281000E6CF62E00E94AE05E2CFCF92DF92EF9268
:10282000FF920E94703220E034E244E759E40E94B3
:102830003F349B01AC0160E070E080E89FE30E94C0
:102840003F346B017C01AC019B0160E074E284E7E2
:102850009BE40E943F340E94B8346F3F2FEF720711
:102860008105910508F47CC020E030E040E051E4AF
:10287000C701B6010E94D1329B01AC0160E074E255
:1028800084E79BE40E943F340E94B8346F3F2FEFEF
:1028900072078105910508F465C020E030E040E84A
:1028A00052E4C701B6010E94D1329B01AC0160E045
:1028B00074E284E79BE40E943F340E94B8346F3F87
:1028C0002FEF72078105910508F44EC020E030E03B
:1028D00040E853E4C701B6010E94D1329B01AC012C
:1028E00060E074E284E79BE40E943F340E94B834C5
:1028F0006F3F2FEF720781059105C0F120E030E0B6
:1029000040E854E4C701B6010E94D1329B01AC01FA
:1029100060E074E284E79BE40E943F340E94B83494
:102920006F3F2FEF720781059105A8F425E0F89419
:102930001092810061507109709389006093880042
:102940008091810088608093810080918100282B94
:10295000209381007894FF90EF90DF90CF900895BE
:1029600021E0E5CF22E0E3CF23E0E1CF24E0DFCF99
:10297000CF92DF92EF92FF922091090430910A04E6
:1029800021303105D1F16B017C0120E030E040E8DD
:102990005FE30E946B3287FD30C020E030E048ECFE
:1029A00053E4C701B6010E94E734181634F1F894D5
:1029B000C0920104D0920204E0920304F092040455
:1029C00078946091D7037091D80390E080E00E94E2
:1029D00070329B01AC0160EC71EE84E69CE40E94D5
:1029E0003F34A70196010E943F340E94B834FF9003
:1029F000EF90DF90CF900C940D14FF90EF90DF904C
:102A0000CF90089568EF8EE293E00C947708CF9210
:102A1000DF92EF92FF920F931F93CF93DF93EC011E
:102A200088810E9457058C010E944206CA80DB8083
:102A3000EC80FD80AB01BC014C195D096E097F097A
:102A40000115110561F48981813031F491E04B3039
:102A500051056105710508F490E080E00EC0013079
:102A60001105D1F789818111F7CF81E04B305105F4
:102A70006105710508F480E090E01F821E829923B1
:102A8000B1F081E090E09F838E830E9442066B014B
:102A90007C01CA82DB82EC82FD820983DF91CF91C7
:102AA0001F910F91FF90EF90DF90CF9008958823B2
:102AB00081F30E9442062EEEC20E22E0D21EE11CDD
:102AC000F11C6C157D058E059F0550F482E090E0A9
:102AD0009F838E83E885F9853097B9F20995D5CF24
:102AE00083E090E09F838E83EA85FB85F5CF0F938B
:102AF0001F93CF938C01C62F62E08C2F0E94AE05EE
:102B0000F801C0838C2F0E945705F8018183CF9173
:102B10001F910F910895CF92DF92EF92FF92CF9382
:102B2000DF93EC0189819A819C838B8388818E302D
:102B300008F08E508770806480937C0080917A00CA
:102B4000806480937A0080917A0086FDFCCFA0910A
:102B50007800B0917900CF80D8840D2C000CEE085D
:102B6000FF0829853A85032E000C440B550B2C19C0
:102B70003D094E095F090E94CF332FEF33E040E05B
:102B800050E00E94A533DA01C9018C0D9D1DAE1DD8
:102B9000BF1D092E000CAA0BBB0B4D815E81052EBB
:102BA000000C660B770B841B950BA60BB70B8115DE
:102BB0002EEF92072FEFA207B207DCF0813022E060
:102BC0009207A105B10524F080E092E0A0E0B0E01A
:102BD0009A8389832B85222329F0919581959109E8
:102BE0009A838983DF91CF91FF90EF90DF90CF9010
:102BF000089580E09EEFECCFCF92DF92EF92FF92AC
:102C00000F931F93CF93DF936C01EB017B01E40ED5
:102C1000F51E10E000E0CE15DF0561F06991D601E8
:102C2000ED91FC910190F081E02DC6010995080F0E
:102C3000191FF1CFC801DF91CF911F910F91FF9024
:102C4000EF90DF90CF900895CF92DF92EF92FF92B6
:102C50000F931F93CF93DF93EC016C0124E0C20E1E
:102C6000D11CFC01E057FF4F0190F081E02DC6011F
:102C700009958E3FEFEF9E07D8F48E010C561F4F3B
:102C8000F801408151817E01F2E9EF0EF11CF7015C
:102C9000608171819C01C6010E947910C059DF4F8B
:102CA00028812130C1F078F02230B9F02330E9F0EA
:102CB00081E090E0DF91CF911F910F91FF90EF9015
:102CC000DF90CF900895F70120813181820F931F0B
:102CD00091838083EDCFF801F7CFF7012081318117
:102CE000281B390B31832083E3CFF801F7CF90E025
:102CF00080E00895BC01990F880B990B0E947232F5
:102D00000C94B8148091C3059091C4050E947A1662
:102D100080912A0690912B060E94710680913106BF
:102D200080936605E0919A04F0919B0430E020E0E6
:102D3000409132066DE086E994E00994CF92DF92EB
:102D4000EF92FF928091090490910A04019749F54E
:102D500080910B0490910C0420910D04E22FF0E07F
:102D6000E150F04CEE0FFF1FEE0FFF1FE80FF91FB1
:102D70004081518162817381452B462B472B89F01D
:102D8000FC0130E060E070E0CB012317E1F0C1907E
:102D9000D190E190F1906C0D7D1D8E1D9F1D3F5FC8
:102DA000F4CFC0900104D0900204E0900304F090AE
:102DB0000404C701B6010E94B134CB01FF90EF902B
:102DC000DF90CF900895611571058105910549F354
:102DD00030E050E040E00E940E34A091D903B09161
:102DE000DA030E94CF330E9470329B01AC0160EC89
:102DF00071EE84E69CE40E943F346B017C0120E08C
:102E000030E040E85FE30E946B3287FD11C020E0B4
:102E100030E048EC53E4C701B6010E94E7341816CD
:102E200044F6C12CD12C88ECE82E83E4F82EC1CFD7
:102E3000C12CD12C90E8E92E9FE3F92EBACFCF9385
:102E4000DF93CFE2D5E060E088810E94800519829F
:102E5000279685E0C935D807B1F7DF91CF9108955E
:102E6000FC01493151052CF41616170674F06FEF6A
:102E70007FEF90819B01290F311D37FD0CC0241776
:102E8000350734F041504083089561E070E0F1CFA0
:102E9000492F460FF8CF40E0F6CF0F931F93CF9303
:102EA00047E050E0BC0187E296E00E9430171092A4
:102EB00025060EEB15E0C1E0F801C0830E94420632
:102EC000F8016183728383839483C0933306CF9127
:102ED0001F910F91089580918E050E945705892BAF
:102EE000F1F4E0912706E1110CC0E3ECF5E091E08C
:102EF000878589278787709686E0E332F807C1F7D0
:102F00000895E150FF0B84E0EE0FFF1F8A95E1F773
:102F1000ED53FA4F878591E089278787089580913F
:102F2000CD039091CE03892B41F40E944E060E945E
:102F30001F1781E08093330608950E94F604F7CFAF
:102F40008F929F92AF92BF92CF92DF92EF92FF92B9
:102F50000F931F9380912A0690912B06009711F0F2
:102F6000059791F40E941F170E94B00481E080939E
:102F700033061F910F91FF90EF90DF90CF90BF909D
:102F8000AF909F908F9008958091090490910A04CA
:102F9000019761F7F8948091CD039091CE03813031
:102FA000910521F0029799F07894E0CF82E090E0CB
:102FB0009093CE038093CD030E94EA056093ED03C6
:102FC0007093EE038093EF039093F003EDCF0E9494
:102FD000EA05AB01BC018091ED039091EE03A09155
:102FE000EF03B091F003481759076A077B0708F40D
:102FF0006FC08A019B01081B190B2A0B3B0BD901DF
:10300000C8018093F9039093FA03A093FB03B09354
:10301000FC034093ED035093EE036093EF03709332
:10302000F0034091F1035091F2036091F30370912A
:10303000F4034F5F5F4F6F4F7F4F4093F103509307
:10304000F2036093F3037093F40320910E04309124
:103050000F042F5F3F4F30930F0420930E044091D5
:103060000D044217130609F020F410920F04109279
:103070000E0420910E0430910F04220F331F220FF3
:10308000331FE0910B04F0910C04E20FF31F8083D7
:103090009183A283B3838091F1039091F203A09175
:1030A000F303B091F4032091F9033091FA034091B6
:1030B000FB035091FC030197A105B10591F4209306
:1030C000F5033093F6034093F7035093F8036CCF66
:1030D00080959095A095B095840F951FA61FB71F5A
:1030E00090CF8090F5039090F603A090F703B090F6
:1030F000F803A4E2B0E00E94C4336B017C01ACEDA4
:10310000B0E0A50194010E94C433C60ED71EE81E8C
:10311000F91ECD2CDE2CEF2CFF24C092F503D092AB
:10312000F603E092F703F092F8033ECF8F929F925E
:10313000AF92BF92CF92DF92EF92FF920F931F93C5
:10314000CF93DF935C017B018DEC92E00E94E60E51
:10315000C0912506670121E0C21AD108CC151D04D3
:1031600009F0B3C0C33008F0C2E03EE0C39FE00105
:1031700011244E0182E0880E911C80913006882334
:1031800009F4ABC02FE030E04FE350E0B40181E43C
:1031900090E00E94B30D81E00E94230530E020E022
:1031A00043E050E070E060E090E080E00E94150DA8
:1031B00023E030E050E040E070E060E090E080E04C
:1031C0000E94150D30E020E04DE350E070E060E03B
:1031D00080E490E00E94150D23E030E040E450E0F0
:1031E00070E060E080E490E00E94150D2EE230E097
:1031F00040E450E061E370E080E490E00E94150D4F
:1032000021E330E04DE350E061E370E080E490E0E2
:103210000E94150D21E330E043E050E061E370E0EF
:1032200090E080E00E94150D2EE230E050E040E09A
:1032300061E370E090E080E00E94150D82E00E9462
:10324000230520912506822F90E0C816D90609F0A3
:1032500081C0F3E0EF1AF10826E02E9DC0012F9DFA
:10326000900D1124A80EB91ECDE0D0E004E314E0C7
:103270008CE7C82ED12CF501E080F18010939904E1
:1032800000939804C7010E940910109399040093B9
:103290009804A701BE019601281B390BC9010E94A1
:1032A000A91136E0A30EB11C2E96C733D10519F72C
:1032B000DF91CF911F910F91FF90EF90DF90CF9012
:1032C000BF90AF909F908F900895C11103C0D0E040
:1032D000C0E04FCFCEE0D0E04CCF8E010F5E1F4F4D
:1032E00020E830E0A40161E470E086E994E00E9407
:1032F000440B882309F4A5CF00E02FE330E0A401BC
:1033000061E470E086E994E00E94420C4E01E3E043
:103310008E0E911C01E02DE030E0A40161E470E02C
:1033200086E994E00E94420C2DE030E0A4016FE7B2
:1033300070E086E994E00E94420CAE01405F5F4F6E
:1033400000E02FE330E061E470E086E994E00E9461
:10335000420C77CFF12CE12C222309F47DCF7C01A4
:1033600021E0E21AF10878CFEF92FF920F931F93BA
:10337000CF93DF93EC017B01CA010E94E60E04E3C8
:1033800014E01093990400939804CE010E94091050
:10339000109399040093980497FD0196959587954D
:1033A000919581959109AE01B7018096DF91CF91FA
:1033B0001F910F91FF90EF900C94A911DC011396CF
:1033C000EC91F0E0EE0FFF1FEC58FF4F2591349188
:1033D0002430310530F036952795FC013787268754
:1033E000089521E030E0F9CF2F923F924F925F9203
:1033F0007F928F929F92AF92BF92CF92DF92EF9285
:10340000FF920F931F93CF93DF93EC01762E590118
:1034100047018C81312C212C861324C0052E000CF1
:10342000660B770B9A01AB013E5F4F4F5F4FB701C1
:10343000FF0C880B990B6801012E000CEE08FF08A9
:103440006C197D098E099F090E94EC3420E034E05C
:1034500040E050E00E94A53319012A012C0C3D1CCC
:103460004E1C5F1C8D8130E020E0871121C0680177
:10347000110FEE08FF089501BB0C440B550B3E5F86
:103480004F4F5F4F092C000CAA08BB08C501B401BF
:103490006C197D098E099F090E94EC3420E034E00C
:1034A00040E050E00E94A5332C0D3D1D4E1D5F1DD8
:1034B000C101820F931FDF91CF911F910F91FF9058
:1034C000EF90DF90CF90BF90AF909F908F907F90C4
:1034D0005F904F903F902F90089577FD10C0693115
:1034E000710514F068E170E0FC0160832481211112
:1034F00008C02581211105C063830C94DE1960E0AA
:10350000F3CF08958F929F92AF92BF92CF92DF92A6
:10351000EF92FF92FC011382148215821682908131
:10352000992391F141E050E060E070E043835483DF
:103530006583768321E030E080E0A92FB0E0812C24
:10354000912C540183942A173B07F4F44181840F92
:103550008917B8F0891B4381548165817681750193
:103560006401022E04C0CC0CDD1CEE1CFF1C0A946E
:10357000D2F74C295D296E297F29438354836583C3
:1035800076832F5F3F4FDFCFFF90EF90DF90CF909C
:10359000BF90AF909F908F900895CF92DF92EF925F
:1035A000FF920F931F93CF93DF938C01EC0188E779
:1035B00090E089939993680182E6C80ED11C80E15E
:1035C000E82EFF24F394188619861A861B861C861B
:1035D000E882F982FA82EB821C821D82FE82FF82DF
:1035E000CE0106960E94821ACE010E94DE196096D4
:1035F000CC15DD0541F71882F801ED59FF4F108217
:103600003196108231961082319610823196118255
:103610001082329683E090E091838083329610820C
:103620003196108231961082319610823196108236
:103630003196F082DF91CF911F910F91FF90EF9023
:10364000DF90CF900895FC0121E01616170634F4A0
:10365000218130E0621773070CF49B01228384817F
:10366000833091F08581833079F0CF01069621E097
:103670001616170634F4268130E0621773070CF42F
:103680009B0127830C94821A0895FC0116161706D5
:10369000B4F46132710514F060E270E061838481FA
:1036A000823079F08581823061F066838781681786
:1036B00008F4862F8783CF0106960C94821A61E066
:1036C000EDCF0895CF93DF93EC0160E08D810E94F0
:1036D00080051E82DF91CF910895EF92FF920F93A4
:1036E0001F93CF93DF931F92CDB7DEB77C018091FC
:1036F0008E050E945705892B59F4C7010E944D176A
:103700000F90DF91CF911F910F91FF90EF9008954F
:10371000209127068091300681110CC04BE050E0CB
:10372000222311F045E050E0B70185E296E00E94C7
:10373000301728C0E0912506211174C0EB3010F538
:10374000F0E0EB55F44E0C941035B01BC61BD21BA9
:10375000DE1BF11B091C091C0F1C0F1C091C091C7A
:103760008091090490910A04019761F00E949E16CD
:103770008E0D9F1D0E947A160E949E169093C4057E
:103780008093C30581E080933306BACF43E050E0D5
:10379000B70186E296E00E9430178091260680935A
:1037A0002E06F0CF43E050E0B70186E296E00E949B
:1037B00030178091260680932F06E4CF80912A0649
:1037C000898346E050E0B701CE0101960E94301790
:1037D000898190E090932B0680932A060E947106BF
:1037E000D1CF80912C06898344E050E0B701CE010F
:1037F00001960E943017898190E090932D06809366
:103800002C06892B09F0BECF84E595E00E94621B4F
:10381000B9CF42E050E0B70186E296E088CF4BE0B6
:1038200050E0F9CF2150330B84E0220F331F8A95EB
:10383000E1F7C9018B539A4FE23081F178F4EE231E
:1038400019F1E13009F09ECF2D533A4FF901638110
:103850006E0D7F2D711D0E94451B94CFE33041F109
:10386000E43009F08FCF89010D531A4FF801878199
:10387000898344E050E0B701CE0101960E943017E1
:103880008981F80187837ECF2D533A4FF9016281F8
:103890006E0D7F2D711D0E946D1A74CF2D533A4FFE
:1038A000F90164816E0D7F2D711D0E94231B6ACF6B
:1038B00089010D531A4FF8018681898344E050E055
:1038C000B701CE0101960E9430178981F8018683E5
:1038D00059CF3F924F925F926F927F928F929F92B9
:1038E000AF92BF92CF92DF92EF92FF920F931F930E
:1038F000CF93DF936B017C01C3ECD5E00AE215E0C6
:10390000B12CA12C312C8F85882321F0C8010E9475
:10391000621B61C0ED81F0E0EE0FFF1FEC58FF4F1E
:1039200045905490F8018681712C612C811140C022
:10393000C701B601A30192010E940E34672B682BC8
:10394000692BB1F52885222399F1C50164E0880F20
:10395000991F6A95E1F7FC01ED53FA4F328540E07B
:10396000303260F44B855C856D857E8504C076952C
:103970006795579547953A95D2F74170FC01ED53FD
:10398000FA4F52852150330B521713060CF049C0E1
:1039900022852F5F8D539A4FFC012287442341F0EB
:1039A00061E0F80185810E94800581E0F80186834D
:1039B00088899989A7019601280F391F411D511D3A
:1039C000CA01B901A30192010E940E34672B682B32
:1039D000692B09F49BCF8E81811103C08F818823CD
:1039E00011F0332433943FEFA31AB30A6096095FB2
:1039F0001F4F46E0A416B10409F085CF80912C0634
:103A000090912D060097D1F18230910509F451C0B3
:103A10008330910541F0019749F430E1832E912CD8
:103A200005C020E0B7CF58E1852E912CF401EE0FB0
:103A3000FF1FEC58FF4F85909490412C512C320180
:103A4000439454E08516910428F024015694479439
:103A5000712C612CB12CA12CC701B601A5019401D8
:103A60000E940E34672B682B692B39F561E0809139
:103A700059050E94800581E080935A0580913006A7
:103A8000811105C080913306382A30923306DF91C8
:103A9000CF911F910F91FF90EF90DF90CF90BF904B
:103AA000AF909F908F907F906F905F904F903F90DE
:103AB000089543E1842E912CB9CFC301B2016C0D5E
:103AC0007D1D8E1D9F1DA50194010E940E34672B44
:103AD000682B692B99F684E595E00E94621BCECF96
:103AE0006CEF8EE293E00C9477086AEF8EE293E03D
:103AF0000C9477088C3F28F48A3F88F4883F21F0A3
:103B000008958C3F41F00895E091CB02F091CC02F2
:103B1000309749F009940E94F6040C94701D0E949D
:103B20004E060C94751D08958F929F92AF92BF928E
:103B30000F931F93CF93DF93CDB7DEB7A1970FB647
:103B4000F894DEBF0FBECDBF19A2423008F44AE0A0
:103B50008E010F5D1F4F842E912CB12CA12CA5013D
:103B600094010E940E34E62FB901CA01EA3044F5EF
:103B7000E05DD801EE938D01232B242B252B79F7C3
:103B800090E080E0109769F0FD0101900020E9F7D6
:103B90003197AF014A1B5B0BBD0182E994E00E94A3
:103BA000FC15A1960FB6F894DEBF0FBECDBFDF9116
:103BB000CF911F910F91BF90AF909F908F900895DC
:103BC000E95CD7CFBF92CF92DF92EF92FF920F9333
:103BD0001F93CF93DF932091C3053091C405309399
:103BE000FD022093FC02909125069093FE02909195
:103BF00027069093FF0290912A06909300039091DC
:103C00002C069093010390912E06909302039091BD
:103C10002F0690930303A3ECB5E0ECEFF2E01296CD
:103C20009C911297908713969C9113979187149665
:103C30009C911497928716969C9116979387179646
:103C40009C91179794875096359693E0EA31F9073F
:103C500031F792E2E92E93E0F92E0CEF12E0C2E286
:103C6000D0E0CC5FD240E6E28E9FC00DD11D112482
:103C7000F801B1908F016E01CE0EDF1EC6010E94C9
:103C80008F33B81621F06B2DC6010E949733E016D2
:103C9000F10671F7DF91CF911F910F91FF90EF9097
:103CA000DF90CF90BF900895EF92FF920F931F93F4
:103CB000CF93DF937C018C01D0E0C0E0CE010E9465
:103CC0008F33F80181938F012196C332D105B1F76B
:103CD000C701DF91CF911F910F91FF90EF90089551
:103CE000EF92FF920F931F93CF93DF93CDB7DEB781
:103CF000C459D1090FB6F894DEBF0FBECDBFF894FA
:103D0000CE0101960E94CD1A89819A819093C405B3
:103D10008093C305A4968FADA49780932506A6969D
:103D20008FADA69780932706AA968EAD9FADAA97D2
:103D300090932B0680932A06AC968EAD9FADAC97E0
:103D400090932D0680932C06AD968FADAD97809302
:103D50002E06AE968FADAE9780932F0605EC15E03C
:103D600080E1E82EFF24F394F801E082F182F282F0
:103D7000E38214821582F682F782C80106960E94B9
:103D8000821AC8010E94DE19005F1F4FF6E005325B
:103D90001F0751F7CE018E589F4F0E94541ECE56DA
:103DA000DF4F8881C259D04080932906CD56DF4F1E
:103DB0008881C359D04080933106CC56DF4F88812B
:103DC000C459D040809332061092BE057894CC56E8
:103DD000DF4F0FB6F894DEBF0FBECDBFDF91CF919E
:103DE0001F910F91FF90EF900895EF92FF920F9324
:103DF0001F93CF93DF93C6EDD2E07E0103E210E084
:103E0000065D124096E2899F000D111D1124C80124
:103E10008E0D9F1D0E948F33F70181937F01FCEF70
:103E2000EF16F2E0FF0699F78091D6029091D70243
:103E30009093C4058093C3058091D8028093250692
:103E40008091D902809327068091DA0290E09093C6
:103E50002B0680932A068091DB0290E090932D063A
:103E600080932C068091DC0280932E068091DD02E7
:103E700080932F0605EC15E0688570E0C8010E946C
:103E80006D1A698570E0C8010E94451B6A8570E063
:103E9000C8010E94231B8B85F80184838C85858350
:103EA0002596005F1F4FF2E0C43FDF0729F7DF913F
:103EB000CF911F910F91FF90EF900895DF92EF92B5
:103EC000FF920F931F93CF93DF93CDB7DEB7A397E6
:103ED0000FB6F894DEBF0FBECDBF66E871E0CE012D
:103EE00001960E9425376FE771E0CE0141960E944E
:103EF00025378091290689A3809131068AA3809174
:103F000032068BA3CE0101967C0110E000E0F701A0
:103F1000D1907F01C8010E948F33D81621F06D2DFA
:103F2000C8010E9497330F5F1F4F0332110579F7C5
:103F3000A3960FB6F894DEBF0FBECDBFDF91CF9131
:103F40001F910F91FF90EF90DF900895CF93DF9333
:103F5000F894D0E0C0E060E0CE010E949733219653
:103F6000C11584E0D807B9F70E945E1F0E94701E39
:103F7000C0E0C09329068C2F0E94E21DCF5FCA309B
:103F8000C1F7809129068B3018F48AE00E94E21D67
:103F90007894DF91CF9108950F931F93CF93DF9380
:103FA0008C01EB01FC01808191810097E1F0688137
:103FB000798161157105A9F0428153812C813D8180
:103FC0004217530770F00E9425378C819D81F801BC
:103FD000958384831D821C82DF91CF911F910F9165
:103FE00008950E94C63588819981F8019183808364
:103FF0008A819B81938382838C819D819583848335
:10400000198218821B821A82E5CFCF93DF93EC01CD
:1040100088819981009711F00E94C6351982188213
:104020001D821C821B821A82DF91CF910895FC01B0
:1040300080819181009711F00C94C63508950F93FB
:104040001F93CF93DF93EC0188819981009759F0FA
:104050002A813B812617370730F081E0DF91CF912D
:104060001F910F9108958B016F5F7F4F0E944F3614
:10407000009759F0998388831B830A832C813D81A3
:10408000232B59F7FC011082E8CF80E0E7CFEF92B5
:10409000FF920F931F93CF93DF936115710541F446
:1040A00080E0DF91CF911F910F91FF90EF900895E5
:1040B00041155105B1F07B01EC010C811D81040F0C
:1040C000151FB8010E941F20882351F328813981D0
:1040D0008C819D81B701820F931F0E9425371D831C
:1040E0000C8381E0DECFEF92FF920F931F93CF936B
:1040F000DF93EC018B01CB010E942D327C01BC01CE
:10410000CE010E941F2081110BC0CE010E9405200C
:10411000CE01DF91CF911F910F91FF90EF90089505
:10412000FD82EC82B801888199810E942632F0CF0D
:10413000FC011182108213821282158214820C9467
:104140007320EF92FF920F931F93CF93DF93EC01B5
:104150007B018A01BA010E941F2081110BC0CE0190
:104160000E940520CE01DF91CF911F910F91FF900A
:10417000EF9008951D830C83B701888199810E9477
:104180002537F0CFFB0101900020E9F73197AF010F
:10419000461B570B0C94A1200F931F93CF93DF93D3
:1041A000CDB7DEB762970FB6F894DEBF0FBECDBFB6
:1041B0008C01CB01F80111821082138212821582C8
:1041C00014824AE0BE016F5F7F4F0E943632BE010B
:1041D0006F5F7F4FC8010E94C22062960FB6F894AD
:1041E000DEBF0FBECDBFDF91CF911F910F9108951C
:1041F0000F931F93CF93DF93CDB7DEB729970FB6F9
:10420000F894DEBF0FBECDBF8C01862FF80111825E
:10421000108213821282158214824AE0BE016F5FFF
:104220007F4F90E00E944132BE016F5F7F4FC80117
:104230000E94C22029960FB6F894DEBF0FBECDBFF4
:10424000DF91CF911F910F910895FB01DC01119631
:104250001C921E9213961C921E92129715961C92F7
:104260001E9214978617970749F060817181611536
:10427000710521F0448155810C94A1200895FC0121
:10428000118210821382128215821482FB01019026
:104290000020E9F73197AF01461B570B0C94A12082
:1042A00085ED8093BC008091580290915902A091B5
:1042B0005A02B0915B020796A11DB11D23E0B6958D
:1042C000A795979587952A95D1F72091BC0024FD55
:1042D00003C01092A50208954091580250915902CE
:1042E00060915A0270915B02452B462B472B69F374
:1042F0000097A105B10541F02AE22A95F1F700C027
:104300000197A109B109E1CF809157020C945B0795
:10431000FC01A081B18150962C9182AD38E0839F41
:10432000C0011124289FA001299F500D112470E085
:1043300060E080AD91AD0C9415371F93CF93DF9360
:10434000EC010E9405121BAD8AAD180FE881F981BE
:104350008189181768F0EC81FD8130E020E040E0B1
:1043600060E1CE01099580E0DF91CF911F91089522
:10437000FE01E557FF4F8081882319F0CE010E948E
:104380008821612FCE010E94F21181E0EDCFCF9301
:10439000DF93EC01FC01E557FF4F8081882319F082
:1043A000CE010E94882160E0CE01DF91CF910C9474
:1043B000F2110F931F93CF93DF9300D000D000D062
:1043C000CDB7DEB786E994E00E94C72104E314E08C
:1043D00068E670E0CE0101960E9498208DEC92E094
:1043E0000E94E60E109399040093980486E891E0E9
:1043F0000E940910109399040093980497FD019668
:104400009595879546E851E066E170E004960E9434
:10441000A91110939904009398048FE791E00E94EA
:104420000910109399040093980497FD01969595AF
:1044300087954FE751E060E270E040960E94A91135
:1044400089819A8110939904009398040E9409101D
:1044500049815A81109399040093980497FD01961D
:10446000959587956CE270E04A960E94A911CE015D
:1044700001960E94172086E994E00E949D218111F7
:10448000A7CF26960FB6F894DEBF0FBECDBFDF9143
:10449000CF911F910F910895CF938091300688237B
:1044A00009F475C080912706811162C080912506AC
:1044B000853009F076C081E090912606913009F0B0
:1044C00080E08093310680936605809125068730D1
:1044D00069F4809126068A3048F480932906F8947E
:1044E000809129068B3008F472C07894809125065B
:1044F000883021F5C0912606CA3060F5C0932906A0
:10450000F8948C2F0E94F51EC093290681E08093B9
:10451000BE0578940E949E162091C3053091C40573
:104520008217930719F0C9010E947A168091CD0372
:104530009091CE03892B11F40E948216809125065A
:10454000893041F480912606811104C00E94701EBA
:104550000E948216809125068A3051F480912606A9
:10456000811106C00E94D9210E94A61F0E948216B6
:1045700081E08093BE050E9442066093BF05709360
:10458000C0058093C1059093C205109226068091C4
:10459000300691E089278093300690933306CF91BF
:1045A0000895863009F091CF41E080912606813050
:1045B00009F040E040933206E0919A04F0919B04A8
:1045C00030E020E06DE086E994E009957ECF0E941E
:1045D000E21D0E945E1F1092BE0587CF1F920F92B0
:1045E0000FB60F9211242F933F938F939F93AF9306
:1045F000BF938091CE029091CF02A091D002B09152
:10460000D1023091CD0223E0230F2D3758F50196CA
:10461000A11DB11D2093CD028093CE029093CF02B5
:10462000A093D002B093D1028091D2029091D30294
:10463000A091D402B091D5020196A11DB11D809325
:10464000D2029093D302A093D402B093D502BF912B
:10465000AF919F918F913F912F910F900FBE0F902F
:104660001F90189526E8230F0296A11DB11DD2CFE9
:104670001F920F920FB60F9211242F933F934F93D7
:104680005F936F937F938F939F93AF93BF93EF93BA
:10469000FF93E0910201F09103010995FF91EF91E1
:1046A000BF91AF919F918F917F916F915F914F914A
:1046B0003F912F910F900FBE0F901F9018951F9252
:1046C0000F920FB60F9211242F933F934F935F9346
:1046D0006F937F938F939F93AF93BF93EF93FF93CA
:1046E000E0910001F09101010995FF91EF91BF91D7
:1046F000AF919F918F917F916F915F914F913F917A
:104700002F910F900FBE0F901F9018951F920F9230
:104710000FB60F9211242F933F934F935F936F9394
:104720007F938F939F93AF93BF93EF93FF9380916A
:10473000B900887F803609F44AC0F0F5883209F460
:10474000A7C018F5803109F49BC0B8F4882309F498
:10475000F9C0883009F494C0FF91EF91BF91AF91F7
:104760009F918F917F916F915F914F913F912F9189
:104770000F900FBE0F901F901895883109F488C0D4
:10478000803251F78093A40214C0803409F49DC094
:1047900040F48033B9F38833F9F68093A40285ECB2
:1047A000B0C0803509F485C0883509F496C08834D6
:1047B00099F60E945021D0CF883909F48CC038F581
:1047C000883729F050F4883611F0803729F683E0D5
:1047D0008093A5021092A30257C0883809F47BC0C9
:1047E000803919F0803809F0B7CF8091A302803268
:1047F00008F071C0E091A30281E08E0F8093A302C4
:104800008091BB00F0E0ED57FD4F80833DC0803BC1
:1048100039F0E0F4803A09F479C0883A09F09CCF85
:1048200084E08093A5021092800210927F02E091B2
:104830007D02F0917E02099580917F0281110FC067
:1048400081E080937F0210925D0209C0803C09F4F0
:10485000A6CF883C09F4A3CF883B09F07DCFE09137
:10486000800281E08E0F80938002F0E0E35AFD4FDA
:1048700080818093BB009091800280917F0229C04B
:104880008091CA028093BB0085EC8093BC0064CF0A
:104890009091C9028091C802981758F5E091C90219
:1048A00081E08E0F8093C902F0E0E855FD4F8081D2
:1048B000E9CFE091C90281E08E0F8093C902809117
:1048C000BB00F0E0E855FD4F80839091C9028091D4
:1048D000C8029817C8F285E8D8CFE091C90281E0F4
:1048E0008E0F8093C9028091BB00F0E0E855FD4F28
:1048F00080838091A70281115CCF81E08093A60222
:1049000084EA8093BC001092A50226CF85EC8093A8
:10491000BC001092A5028091A302803230F4E09195
:10492000A302F0E0ED57FD4F10826091A30270E00A
:10493000E0918102F091820283E892E00995109261
:10494000A3020ACF1092A40234CF1F920F920FB687
:104950000F9211242F933F934F935F936F937F9305
:104960008F939F93AF93BF93EF93FF938EE293E068
:104970000E945508FF91EF91BF91AF919F918F9148
:104980007F916F915F914F913F912F910F900FBE4B
:104990000F901F9018951F920F920FB60F9211242F
:1049A0002F933F934F935F936F937F938F939F9337
:1049B000AF93BF93EF93FF93CF93DF931F92CDB746
:1049C000DEB781E08983E091CB03F091CC0330978F
:1049D00061F0A0913E03B0913F036C91A09144031C
:1049E000B09145038C910995898389818823E1F0F1
:1049F000E0913E03F0913F038081E0914403F09108
:104A0000450382FD25C09081809147038F5F8F739E
:104A100020914803821741F0E0914703F0E0E25D06
:104A2000FC4F958F809347030F90DF91CF91FF91BB
:104A3000EF91BF91AF919F918F917F916F915F9116
:104A40004F913F912F910F900FBE0F901F9018958F
:104A50008081EACF1F920F920FB60F9211248F928E
:104A60009F92AF92BF92CF92DF92EF92FF920F93FD
:104A70001F932F933F934F935F936F937F938F93E6
:104A80009F93AF93BF93EF93FF930E94420660936F
:104A90000C0270930D0280930E0290930F0280918E
:104AA000CD039091CE03029709F072C1C090E40348
:104AB000D090E5038091E3038C151D0411F410924E
:104AC000E3038091E303811106C180910904909171
:104AD0000A04019709F0ECC04091DF035091E00314
:104AE0006091E1037091E2038091F1039091F203F0
:104AF000A091F303B091F403481759076A077B07A5
:104B000080F08091F1039091F203A091F303B091B2
:104B1000F4030196A11DB11D84179507A607B707D9
:104B200020F52091F1033091F2034091F30350916D
:104B3000F4032093DF033093E0034093E1035093A9
:104B4000E203F12CE12CC701B6010E94EC34609322
:104B5000DB037093DC038093DD039093DE03A701F6
:104B600096010E940E346093E303C090F503D09049
:104B7000F603E090F703F090F8030E94EA05009135
:104B8000ED031091EE032091EF033091F0036017D5
:104B900071078207930708F416C1601B710B820B23
:104BA000930B6093FD037093FE038093FF03909338
:104BB00000040091F1031091F2032091F30330916E
:104BC000F4038090DF039090E003A090E103B090A5
:104BD000E203081519052A053B0508F4FDC044E069
:104BE000660F771F881F991F4A95D1F7672F782F77
:104BF000892F9927C61AD70AE80AF90AA091D9037A
:104C0000B091DA03A70196010E94CF330E9470325F
:104C10009B01AC0160EC71EE84E69CE40E943F34A1
:104C20006B017C0120E030E040E85FE30E946B32E2
:104C300087FDF0C020E030E048EC53E4C701B60146
:104C40000E94E734181634F4C12CD12C98ECE92ECC
:104C500093E4F92EA701960160910104709102047A
:104C600080910304909104040E946B32882301F127
:104C7000C0920104D0920204E0920304F092040472
:104C80006091D7037091D80390E080E00E94703269
:104C90009B01AC0160EC71EE84E69CE40E943F3421
:104CA000A70196010E943F340E94B8340E940D145F
:104CB0008091DF039091E003A091E103B091E203C2
:104CC0000196A11DB11D8093DF039093E003A09393
:104CD000E103B093E2038091E3038F5F8093E303EA
:104CE000E091D103F091D203309781F12091E60356
:104CF0008091E7039091E8032817190611F41092A8
:104D0000E6038091E60381111CC06091E903709174
:104D1000EA038091EB039091EC0309958091E903FC
:104D20009091EA03A091EB03B091EC030196A11DD1
:104D3000B11D8093E9039093EA03A093EB03B09332
:104D4000EC038091E6038F5F8093E603E091CF034D
:104D5000F091D0033097E1F06091DB037091DC03B8
:104D60008091DD039091DE0309958091DB039091A2
:104D7000DC03A091DD03B091DE030196A11DB11DFE
:104D80008093DB039093DC03A093DD03B093DE03F9
:104D9000FF91EF91BF91AF919F918F917F916F9113
:104DA0005F914F913F912F911F910F91FF90EF9045
:104DB000DF90CF90BF90AF909F908F900F900FBEDD
:104DC0000F901F9018950095109520953095600FC5
:104DD000711F821F931FE5CE6C157D058E059F0503
:104DE00008F00CCFA7019601261B370B480B590B77
:104DF000DA01C90124E0880F991FAA1FBB1F2A9559
:104E0000D1F7892F9A2FAB2FBB27C80ED91EEA1EC8
:104E1000FB1EF4CEC12CD12C80E8E82E8FE3F82EB7
:104E200019CF1F920F920FB60F9211240F931F9359
:104E30002F933F934F935F936F937F938F939F93A2
:104E4000AF93BF93CF93DF93EF93FF93C091100481
:104E5000D0911104209709F45BC08C850E945705FE
:104E6000182F8E850E945705880F991F812B9A89CC
:104E7000891709F44DC0EA890B891C892D893E895F
:104E800094E0E902F0011124482F082E000C550B84
:104E9000E42BF52BE65FFE4F9081492F990F550BC0
:104EA000660B770B400F511F621F731F4B8B5C8B80
:104EB0006D8B7E8B8A8B288939892230310531F1BF
:104EC00023303105D1F12130310511F5833001F561
:104ED0008B899C89AD89BE8932E0B595A795979558
:104EE00087953A95D1F78F8B988FA98FBA8F8F8D31
:104EF00098A1A9A1BAA18BA39CA3ADA3BEA30E9414
:104F000042066F8F78A389A39AA302C0882301F376
:104F1000FF91EF91DF91CF91BF91AF919F918F91D1
:104F20007F916F915F914F913F912F911F910F91C1
:104F30000F900FBE0F901F901895882311F08330AB
:104F400039F78B899C89AD89BE89B595A7959795C9
:104F50008795C9CF1F920F920FB60F9211242F93EE
:104F60003F934F935F936F937F938F939F93AF93F1
:104F7000BF93EF93FF930E941127FF91EF91BF9191
:104F8000AF919F918F917F916F915F914F913F91E1
:104F90002F910F900FBE0F901F901895CF93DF9316
:104FA000109225031092240388EE93E0A0E0B0E075
:104FB0008093260390932703A0932803B09329039B
:104FC00028E931E030932303209322031092310328
:104FD000109230038093320390933303A0933403F1
:104FE000B09335038AEA91E090932F0380932E03C8
:104FF00085EC90E090933B0380933A0384EC90E03F
:1050000090933D0380933C0380EC90E090933F03AA
:1050100080933E0381EC90E09093410380934003A2
:1050200082EC90E0909343038093420386EC90E0FF
:1050300090934503809344031092470310924803D2
:105040001092490310924A031092CC031092CB03A2
:1050500080E690E09093D8038093D703C8E1D0E036
:10506000D093DA03C093D90310920C0410920B046E
:1050700080E090E0A0EFB2E48093010490930204FA
:10508000A0930304B0930404109205041092060444
:1050900010920704109208041092F9031092FA0378
:1050A0001092FB031092FC031092FD031092FE037A
:1050B0001092FF03109200041092CE031092CD03C1
:1050C00010920A04109209040E94B0041092D003B6
:1050D0001092CF031092D2031092D1031092D403F6
:1050E0001092D3031092D6031092D5032091D703C8
:1050F0003091D8036091D9037091DA03C9010E94FD
:10510000FC347093E5036093E403C901BE010E947F
:10511000FC347093E8036093E703109295041092B7
:10512000940484E394E090932305809322051092E5
:10513000250510922405109227051092260510923D
:10514000AE048CEB91E090939304809392041092C0
:105150009704109296041092AB041092A20410923D
:10516000A3041092A4041092A5048FEF8093AC04C2
:105170008093B004E4EBF4E08AEC94E0DFEFD193A9
:105180008E179F07E1F782E699E090939B04809346
:105190009A0487E59AE090939D0480939C0481E6AD
:1051A00092E190939F0480939E0482EA93E190930E
:1051B000A1048093A00430E020E040E069E086E9AB
:1051C00094E00E9462091092F1041092F0048EE3C0
:1051D00094E09093CB048093CA0482E194E090938E
:1051E000CF048093CE04C1E0C093D0041092D104C8
:1051F0001092FF0410921F0510921B05C09320050A
:10520000C093210584EC91E09093CD048093CC046D
:1052100086E994E00E94F20A1092E9041092E804F0
:105220001092ED041092EC048FEF9FEF9093EB043B
:105230008093EA049093EF048093EE04E091CC0411
:10524000F091CD040280F381E02D86E994E0099588
:105250008DEA94E09093F3048093F2041092020597
:1052600083E18093BF0482E18093C004D093C104A2
:1052700010922905109228051092660581E190E0B0
:10528000909368058093670584E090E090936A05A9
:105290008093690581E090E090936C0580936B05A5
:1052A00062E081E10E94AE0562E084E00E94AE050A
:1052B000809167050E945705D82F809169050E944B
:1052C0005705880F991F8D2B80936D0510926E05E1
:1052D00010926F0510927005109271051092720570
:1052E0001092730510927405109275051092760550
:1052F000109277051092780510927905C093830576
:1053000010928905109288056EE082E895E00E946F
:1053100077158BE595E09093110480931004C0936A
:105320008F051092950510929405C0939B051092DD
:10533000A1051092A0051092AC051092AB052AECC5
:105340003DEF3093AE052093AD0580E092E0909361
:10535000B0058093AF051092B1051092B805109278
:10536000B7053093BA052093B9059093BC05809397
:10537000BB051092BD0583EC95E00E94CD1A1092FA
:10538000BE051092BF051092C0051092C105109283
:10539000C205DF91CF910895CF93DF93CDB7DEB7EC
:1053A000C756D1090FB6F894DEBF0FBECDBF7894B3
:1053B00084B5826084BD84B5816084BD85B582601A
:1053C00085BD85B5816085BD80916E0081608093CB
:1053D0006E00109281008091810082608093810034
:1053E0008091810081608093810080918000816044
:1053F000809380008091B10084608093B10080919F
:10540000B00081608093B00080917A0084608093C6
:105410007A0080917A00826080937A0080917A008D
:10542000816080937A0080917A00806880937A000E
:105430001092C100E0913E03F0913F0382E080832F
:10544000E0913A03F0913B031082E0913C03F0912C
:105450003D038FE3808310924603E0914203F09175
:10546000430386E08083E0914003F0914103808113
:1054700080618083E0914003F091410380818860E6
:105480008083E0914003F0914103808180688083B4
:10549000E0914003F091410380818F7D8083809172
:1054A0000B0490910C04892B59F481E080930D0436
:1054B00084E090E00E942A3590930C0480930B04C2
:1054C000F894109280001092810010928500109242
:1054D000840081EC92EA9093890080938800809107
:1054E0008100886080938100809181008260809338
:1054F000810080916F00826080936F00789460914A
:1055000001047091020480910304909104040E94AC
:10551000B81410920A0410920904F89480E690E0FE
:105520009093D8038093D7036091D9037091DA03E5
:105530000E94FC347093E5036093E40384E090E000
:105540009093E8038093E703789460E070E080EF45
:1055500092E40E94B81485E79DE19093D403809370
:10556000D30380E79DE19093D6038093D50382E037
:1055700095E19093D2038093D1030E944E066CE094
:105580008EE895E00E94771565E08AE995E00E9433
:10559000771560E085E10E94AE0585E18093A60560
:1055A00060E084E10E94AE0584E18093B2058091C1
:1055B000680086608093680080916D0080618093B0
:1055C0006D0080916C00886080936C0061E087E0E2
:1055D0000E94AE0587E080932F0515E010932E05FD
:1055E00061E088E00E94AE0588E080933605109364
:1055F000350561E08AE00E94AE058AE080933D05B2
:1056000010933C0561E086E00E94AE0586E0809341
:1056100044051093430561E089E00E94AE0589E0EE
:1056200080934B0510934A0561E08BE00E94AE0524
:105630008BE0809352051093510561E083E00E9456
:10564000AE0583E08093590510935805E0919A04C4
:10565000F0919B0430E020E040E06AE086E994E0CD
:10566000099586E994E00E94C72186E994E00E94AA
:105670009D218111FACF60E086E994E00E94F21149
:10568000E0919A04F0919B0430E020E040E06BE070
:1056900086E994E009950E94D92160ED77E080E0E9
:1056A00090E00E940F06F894CE0101960E94541ECD
:1056B00066E871E0CE0101960E941C378C016FE70D
:1056C00071E0CE0141960E941C37012B09F007C101
:1056D000892B09F004C1CE0101960E94541E89A1B4
:1056E000809329068AA1809331068BA1809332068C
:1056F0008AE00E94F51E78940E94821689E69CE159
:105700009093D0038093CF0380EA97E19093CC02EB
:105710008093CB02909301018093000180916900F6
:10572000836080936900E89A8CE492E290935C0530
:1057300080935B058DE69BE19093600580935F0508
:105740008DE497E190935E0580935D058BE697E18C
:105750009093A3058093A205A5961FAE1EAEA597B4
:105760008EE895E00E9407158AE995E00E940715EA
:1057700000917205109173052091740530917505A3
:1057800080916305909164058017910709F4B3C077
:1057900040917A0550917B0560917C0570917D0563
:1057A000C0907E05D0907F05E0908005F090810547
:1057B0004C195D096E097F09F801E81BF90BCF014F
:1057C000F0936205E093610510936405009363050F
:1057D000403151056105710508F084C09F01220F19
:1057E000331F820F931F9093620580936105809110
:1057F0006605882359F08091610590916205919525
:1058000081959109909362058093610500916105EE
:1058100010916205809182050E9457057C0182E803
:1058200095E00E940715EF2809F068C0012B09F4E4
:105830006CC081E080936505E0915D05F0915E05A7
:10584000309729F0809161059091620509958091CA
:10585000880590918905029729F480916505811149
:105860001092650586EA95E00E948B1582EB95E023
:105870000E948B150AE215E0A5968EAD9FADA59707
:1058800006970CF056C0F80186818823E1F00E944B
:105890004206F801C080D180E280F380AB01BC01F8
:1058A0004C195D096E097F09848190E0B0E0A0E0A9
:1058B000481759076A077B0730F060E085810E942E
:1058C0008005F8011682A5968EAD9FADA59701962D
:1058D000A5969FAF8EAFA597095F1F4FCDCF0E94B2
:1058E000A61F09CF403251056105710508F07FCF31
:1058F000880F991F78CF10E000E08CCF012B29F0A2
:10590000E0915F05F09160059BCF809188059091B3
:105910008905029709F0A6CF8091650581119DCF79
:10592000E0915B05F0915C05309709F496CF0995FD
:105930008ECF4090A7055090A8058090B305909019
:10594000B40573ECC72E75E0D72EF6018681811160
:1059500004C08781882309F463C05601F2E0AF0ECA
:10596000B11C6CE0E62EF12C04EF1FEF9401A201B4
:1059700061E0C5010E94F419F6012281820F911D98
:1059800097FDEBC08536910514F084E690E0F601B2
:10599000858350E2E52EF12C10E000E09401A20195
:1059A00062E0C5010E94F4193601F8E06F0E711C27
:1059B000F6012381820F911D181619060CF0CFC035
:1059C0008132910514F080E290E0F60180879185A4
:1059D000891708F4982FF6019187C3010E94821A53
:1059E000F6012084312C710110E000E09401A20145
:1059F00063E0C5010E94F419F6012481820F911D14
:105A0000181619060CF0ADC0821593050CF41C0194
:105A1000F6012186C3010E94821AC5010E94DE1987
:105A2000F0E1CF0ED11C23E2C21626E0D20609F027
:105A30008CCF80912E069FEF980F9230B8F4E6EA53
:105A4000F5E0813011F0E2EBF5E0818192811816EA
:105A500019060CF089C08091CD039091CE03892B5B
:105A600029F40E944E0681E08093330680912F0630
:105A7000813009F088C08091A7059091A80518167B
:105A8000190644F48091A9059091AA05892B11F477
:105A90000E94B0048091BE05882301F10E94420655
:105AA0000091BF051091C0052091C1053091C2053C
:105AB000601B710B820B930B613D77408105910553
:105AC00068F0F894809129068B3018F48AE00E94DF
:105AD000E21D0E945E1F1092BE05789480913306ED
