:100000000C940A040C944B230C9424230C94320477
:100010000C9496270C94FD260C9432040C94320414
:100020000C9432040C9432040C9432040C94162573
:100030000C9432040C9432040C9432040C94320468
:100040000C94DA220C9432040C94B7240C9491246E
:100050000C9432040C9432040C9432040C94320448
:100060000C9472230C9432044C4F4144494E472E59
:100070002E2E2E0000300018000C0009000680040F
:100080002004C00360030003A0024002E0018001DD
:100090002001C000600030002000180010000C009B
:1000A000080006000400455241534500524553459F
:1000B00054004C4F4144005341564500524F544167
:1000C0005445204449535000454E434F4445522027
:1000D0004449520050554C5345204F555400534FFE
:1000E00055524345005253540052554E0054454D0D
:1000F000504F004241434B20544F204D41494E0048
:100100007800464143544F525920524553455400BC
:1001100044454C004241434B20544F204D41494EF1
:10012000007800524553455420414C4C00525354E2
:10013000004C4F41442046524F4D20534C4F5400E9
:100140005341564520544F20534C4F540042414395
:100150004B20544F204D41494E007800524F54419E
:100160005445440044454641554C5400444953507D
:100170000052455645525345440044454641554C6E
:1001800054004449520031205050514E2050554C9B
:1001900053450034205050514E2050554C5345008B
:1001A0003234205050514E2050554C53450050553C
:1001B0004C5345204F4646004F5554004D49444945
:1001C0000031205050514E0032205050514E0034DA
:1001D000205050514E003234205050514E00434C6C
:1001E0004F434B00494E540045585400435632206B
:1001F00054524947004356312054524947004E4F0C
:100200004E45005253540043563220474154450056
:100210004356312047415445004E4F4E45005255FC
:100220004E0042504D0045585400800040002000D0
:10023000180010000C000B000A000900080007005D
:10024000060005000400030002000100FEFFFDFFA0
:10025000FCFFFAFFF8FFF4FFF0FFE8FF43563220FF
:100260004D4F4400435631204D4F44004555434CBB
:1002700049442048495453004555434C4944205370
:1002800054455053004D4F44004555434C4944207C
:1002900048495453004555434C4944205354455014
:1002A0005300434C4F434B204D4F44004E4F4E455F
:1002B0000043563200435631004D554C5449504C82
:1002C00059007800444956494445002F0034000243
:1002D0000203030203040505000005000500009168
:1002E000000001982004805C2509AD745452B95275
:1002F000492806AADC54192907AA5C624A0A2B0776
:100300009BE5D24A002C059154042D058B66062EE0
:10031000058954022F06A4EC631B3008ACEC54345E
:1003200093023107EBEC92AC063209AC6C364A2AE8
:100330008F003309AC6C364A1A8D043408AC6CA2B9
:100340001CBA003509AC6C86DE6824003609ACECBA
:10035000545E3129003708AC6C468E75043809AC00
:10036000EC544C2A26053909ACEC544C3B29003A94
:1003700006995552004108ACEC541C53064209AC96
:100380006C561C298E044309ACEC54D4312900442A
:1003900008AC6C563447024508AC6C861E7A04469D
:1003A00008AC6C865E39034709ACEC544E33290027
:1003B0004808AC6CA21C53064906A95486004A089A
:1003C000ACEC6B9914004B09AC6CA24A3295014C11
:1003D00007AC6C727B044D09AD74F25A49EB004EC8
:1003E00009AD74F25449EE004F08ACEC543493025A
:1003F0005009AC6C561C2967005108ACEC54B4622F
:100400000A5208AC6C561CA9195309ACEC46461AA2
:100410008D045407AB64566C015508AC6CA23329AB
:10042000005609AD74B24E65CA11570AAD74B24A8E
:100430002AA92E005809AC6CA24C2ACA00590AAD50
:100440007472AA33CA28025A07AB64662A07700876
:10045000ADF456B6D3027107ADF48EAF057208AB9A
:1004600064A21A2A027406AD74FE237709ADF4560D
:10047000A5464E0B78069B64520700000004FFFF60
:100480000000000000003C007C00FC00FC03FC0FAE
:10049000FC0FFC03FC007C003C000000000000009E
:1004A0000000380E380E380E380E380E380E380E62
:1004B000380E380E380E380E000000000000240000
:1004C00027002A0000000000250028002B00000063
:1004D000000023002600290004040404040404048A
:1004E00002020202020203030303030301020408DF
:1004F000102040800102040810200102040810208E
:1005000000000008000201000003040700000000D2
:10051000000000001D00040404050301061018007B
:100520000017000000013F000002E125270F3B9665
:10053000B1A5464C34428C1812939029426A085156
:100540009A8C225286C8881164C4181A61ACC4B847
:1005500021002F0CBABABDC948D167E3C601301FCC
:100560007CFB1D434A54103A665787D0883022C41A
:10057000841844A78CD9EC1009258ACC0031147A50
:10058000BDA561A40A993933628C9071F3FF2845A7
:1005900006321B7CFB1D536854103A666CE40C89D0
:1005A00099C1C65439822367F9E08101331C7CFB71
:1005B0001D536854103A666CE44072B4B392E42C54
:1005C0008D1D22A10695190034207CFB2D218386E8
:1005D0008C213284CC904123088D183562D4885107
:1005E000C6ECEC018B95F301351A7CFB0D155B8C89
:1005F0009C2F082959316AE8C8591A3B44420D2AF0
:100600003300361B7D1B9E5369560C3B67745E9806
:1006100059C282D439BB3B45624DAA330037137CA3
:10062000FB85150F52CE87E4E870CA8123E71D00D1
:1006300038207CFB1D536854103A66D9211244C8F7
:10064000203A8586080942C7ECEC100935A8CC0091
:10065000391A7CFB1D536854103A666787482C5141
:100660009372BE1844420D2A330041167D1BA672B8
:10067000A7D250326AC8A811E3ECDD83EFEC770310
:1006800042247D1B86446A968C22316CC4B011C30F
:10069000460C1B318AC4924D46911876CE9E3D0879
:1006A000C162090043177D1B9E5369961042667410
:1006B000FE4F898D2044628D222400441B7D1B86C1
:1006C000446A968C1A326CC4B011E3EC7F766CC429
:1006D00028124BD4240245127CFB850F52CE4B448A
:1006E000188D9C5F3E78600046107CFB850F52CED3
:1006F0009769B21939FF1200490773DB843F484CF0
:100700000D7BDB8581F3FF3F7CF060004E247D1B79
:100710000681E6CC1D3B860A55A24426C69818637E
:10072000648891216646981961282BCCAE33370036
:100730004F167D1B9E5369968C1A31CEFEBF1B311E
:100740006AC89A54670052318E3B06456B980C2359
:10075000316EC4B811E3468C1B316EC43012A388CD
:100760003051946AC8B031A3C6109AD598514486C6
:1007700091183762DCC10153228E3B9E63899690AB
:1007800022316EC4B81163C7529A2C5BB283C78EF4
:1007900035680E151126ABD000540D7D1B860F5207
:1007A0000D9DFFFF150055117CFB8561F6FF9F8DA8
:1007B0001834440D2A330056167FF98591F6FFCB85
:1007C00011E38690224315097227CB0E0358297E28
:1007D0003B8681068F91183684101922A4860C431B
:1007E00067D024519206CD211B328A0819424486D3
:1007F0008D2076D0C2017814CABA8541868E904089
:10080000638A941924530CB2680000000004FFFFAF
:100810000000BA2711241FBECFEFD8E0DEBFCDBF46
:1008200011E0A0E0B1E0E4E3FEE602C005900D9225
:10083000AC3EB107D9F726E0ACEEB1E001C01D92A5
:10084000AC33B207E1F714E0CAE0D4E004C021976A
:10085000FE010E94FC34C930D107C9F70E94B829B3
:100860000C9418370C940000662329F06A3019F0B4
:10087000862F90E008958FEF9FEF0895AF92BF927B
:10088000CF92DF92EF92FF920F93CF93DF93EC0121
:10089000DA017901942F9770E1E0F0E09F01092ED1
:1008A00001C0220F0A94EAF7522F6E018AE8C80E9F
:1008B000D11CF601808140E0823018F4422F813053
:1008C00049F15D01F8EFAF22E8ADF9AD288139813A
:1008D000D90150968C918A9D90018B9D300D1124E9
:1008E000620F731FDF01A60FB71F01111AC0EA0EB6
:1008F000FB1E8C91842B85278D93AE15BF05C9F700
:10090000DF91CF910F91FF90EF90DF90CF90BF904C
:10091000AF90089550E0D5CF440F550FE114F10486
:1009200079F33C91342B35273C939F5F9770E1E03E
:10093000EE1AF1089111F0CF2CAD3DADA20FB31F0F
:10094000F6018081823028F4813009F051E041E0E5
:10095000E5CF51E0E3CF80E0089590E080E0089596
:100960001092DF031092E0031092E1031092E20371
:100970001092E3031092E4031092E5031092E60351
:100980001092E7031092EA031092ED031092EE0327
:100990001092EF031092F0031092F5031092F603F9
:1009A0001092F7031092F8031092F1031092F203E1
:1009B0001092F3031092F403109213041092120495
:1009C00020910F043091100480E090911104891758
:1009D00060F494E0899FF0011124E20FF31F10826C
:1009E0001182128213828F5FF0CF08951092D2038A
:1009F0001092D1031092090410920A0410920B0471
:100A000010920C040E94B004E091D903F091DA0333
:100A1000309709F009940895BC01F894E1EDF3E0F2
:100A20009587848722853385C9010E94E834708FB9
:100A3000678BC90168E170E00E94E834738F628FB0
:100A40007894089508958093240508959B01DC010E
:100A50001896ED91FC9141E067E10994833081F0B3
:100A600028F4813099F08230A9F008958730A9F0F8
:100A70008830C9F08430B1F4809180008F7D03C04C
:100A8000809180008F7780938000089584B58F7760
:100A900084BD089584B58F7DFBCF8091B0008F77A2
:100AA0008093B00008958091B0008F7DF9CFCF93EF
:100AB000DF93282F30E0F901E050FB4F8491F901DA
:100AC000E451FB4FD491F901E852FB4FC491CC2380
:100AD000A1F081110E942E05EC2FF0E0EE0FFF1F18
:100AE000E253FB4FA591B491EC91ED2381E090E0AE
:100AF00009F480E0DF91CF91089580E090E0FACF93
:100B00001F93CF93DF93282F30E0F901E050FB4F84
:100B10008491F901E451FB4FD491F901E852FB4F64
:100B2000C491CC23A9F0162F81110E942E05EC2F21
:100B3000F0E0EE0FFF1FEC53FB4FA591B4918FB780
:100B4000F894EC91111108C0D095DE23DC938FBF8F
:100B5000DF91CF911F910895DE2BF8CFCF93DF93D4
:100B600090E0FC01E451FB4F249188529B4FFC0123
:100B700084918823C9F090E0880F991FFC01E65406
:100B8000FB4FA591B491FC01EC53FB4FC591D4915F
:100B900061110DC09FB7F8948C91209582238C939E
:100BA0008881282328839FBFDF91CF9108956230E9
:100BB00051F49FB7F8943C91822F809583238C93B6
:100BC000E8812E2BEFCF8FB7F894EC912E2B2C933E
:100BD0008FBFEACF3FB7F8948091D6029091D702A9
:100BE000A091D802B091D90226B5A89B05C02F3F8D
:100BF00019F00196A11DB11D3FBFBA2FA92F982F43
:100C00008827BC01CD01620F711D811D911D42E03D
:100C1000660F771F881F991F4A95D1F708958F9205
:100C20009F92AF92BF92CF92DF92EF92FF926B01B1
:100C30007C010E94EA054B015C01C114D104E1046E
:100C4000F104B9F00E94EA05681979098A099B093B
:100C5000683E73408105910580F321E0C21AD108F6
:100C6000E108F10888EE880E83E0981EA11CB11CF3
:100C7000E4CFFF90EF90DF90CF90BF90AF909F9028
:100C80008F9008952FB7F8946091D2027091D3029B
:100C90008091D4029091D5022FBF08950E94B00494
:100CA0000E9442066093090470930A0480930B0427
:100CB00090930C04E091D703F091D803309709F09A
:100CC000099580910D0490910E04892B39F482E0EE
:100CD00090E09093D2038093D103089581E090E057
:100CE000F8CF0F931F93CF93DF93EC010091D103C3
:100CF0001091D2030E94F60480912C0590912D054D
:100D0000059749F48FB7F89422E235E03093D00389
:100D10002093CF038FBFD0932D05C0932C05C230F5
:100D2000D105B9F170F4209731F1C130D10541F10D
:100D3000012B09F447C0DF91CF911F910F910C94C3
:100D40004E06C430D105B9F168F1259789F781E0E5
:100D500090E090930E0480930D0488E190E00E944F
:100D60000C058FB7F89426E63DE13093D00320932D
:100D7000CF038FBFDDCF10920E0410920D04D8CF99
:100D8000D0930E04C0930D0488E190E00E940C05FE
:100D9000CFCF81E090E090930E0480930D0484E027
:100DA00090E0F4CF81E090E090930E0480930D04E6
:100DB00082E090E0EBCF81E090E090930E0480938E
:100DC0000D04E4CFDF91CF911F910F910895089505
:100DD0000895AF92BF92CF92DF92EF92FF920F935E
:100DE0001F93CF93DF936C017B018B01040F151FC1
:100DF000EB015E01AE18BF08C017D10759F0699129
:100E0000D601ED91FC910190F081E02DC60109958C
:100E1000892B79F7C501DF91CF911F910F91FF9039
:100E2000EF90DF90CF90BF90AF9008952091830214
:100E3000260F3327331F21323105ECF42091A9020C
:100E4000FC0190E080E0243069F082E00895A091F8
:100E500083022191AC014F595D4FA40FB52FB11DF5
:100E60002C930196861798F380918302680F609304
:100E7000830280E0089581E008951092A90281E044
:100E80008093AB021092AA0261E082E10E94800589
:100E900061E083E10E948005E9EBF0E080818E7FD4
:100EA000808380818D7F808388E48093B80085E48F
:100EB0008093BC000895CF93DF9391E090936002FC
:100EC0008823B9F0C091B800D091BA008091BC00DD
:100ED0008A7B8093BC0060E082E10E94800560E034
:100EE00083E10E9480050E943D07D093BA00C09321
:100EF000B800DF91CF910895089508950895E09185
:100F0000580280915702E81730F4F0E0E95CFD4F99
:100F1000808190E008958FEF9FEF0895909158029F
:100F2000809157022FEF3FEF981748F4E92FF0E038
:100F3000E95CFD4F208130E09F5F90935802C9012A
:100F400008958091570290915802891B990B08953A
:100F5000CF92DF92EF92FF920F931F93CF93DF9385
:100F60007C01CB018A0120913602222389F0EB011A
:100F70006B01C40ED51ECC15DD0569F06991D70152
:100F8000ED91FC910190F081E02DC7010995F3CF1F
:100F9000642F0E941607C801DF91CF911F910F9116
:100FA000FF90EF90DF90CF900895CF93DF931F9243
:100FB000CDB7DEB76983209136022223F9F0209164
:100FC0005902203258F021E030E0FC0133832283C3
:100FD00090E080E00F90DF91CF91089580915A02C8
:100FE000E82FF0E0EA5EFD4F998190838F5F809358
:100FF0005A028093590281E090E0ECCF61E0CE018B
:1010000001960E941607F7CFFC01538D448D252FC2
:1010100030E0842F90E0821B930B541710F0CF9692
:10102000089501970895FC01918D828D981761F0C4
:10103000A28DAE0FBF2FB11D5D968C91928D9F5FDB
:101040009F73928F90E008958FEF9FEF0895FC01BA
:10105000918D828D981731F0828DE80FF11D858D6D
:1010600090E008958FEF9FEF0895FC01918D228D00
:10107000892F90E0805C9F4F821B91098F73992785
:10108000089582E393E00E94350821E0892B09F45A
:1010900020E0822F089580E090E0892B29F00E94C3
:1010A000410881110C9400000895FC01A48DA80F43
:1010B000B92FB11DA35ABF4F2C91848D90E001969A
:1010C0008F739927848FA689B7892C93A089B189BA
:1010D0008C91837080648C93938D848D981306C05B
:1010E0000288F389E02D80818F7D80830895EF92BF
:1010F000FF920F931F93CF93DF93EC0181E0888FD2
:101100009B8D8C8D98131AC0E889F989808185FFA1
:1011100015C09FB7F894EE89FF896083E889F98943
:1011200080818370806480839FBF81E090E0DF9145
:10113000CF911F910F91FF90EF900895F62E0B8D98
:1011400010E00F5F1F4F0F731127E02E8C8D8E1153
:101150000CC00FB607FCFACFE889F989808185FFBA
:10116000F5CFCE010E945508F1CFEB8DEC0FFD2F8E
:10117000F11DE35AFF4FF0829FB7F8940B8FEA8975
:10118000FB8980818062CFCFCF93DF93EC01888D84
:101190008823B9F0AA89BB89E889F9898C9185FDF2
:1011A00003C0808186FD0DC00FB607FCF7CF8C9180
:1011B00085FFF2CF808185FFEDCFCE010E945508DB
:1011C000E9CFDF91CF910895DC011A96ED91FC9162
:1011D00030E020E00994DC011696ED91FC9130E0BE
:1011E00020E040E069E10994DC011696ED91FC9164
:1011F00030E020E040E068E109949A01DC011696B5
:10120000ED91FC91462F67E10994EF92FF920F93C5
:101210001F93CF93DF931F92CDB7DEB77C018B0175
:10122000D8016C91673129F150F46531A0F40F9029
:10123000DF91CF911F910F91FF90EF9008956A3148
:1012400018F16E3FA1F7F8014181498369E2C701B6
:101250000E94E4080BC0F80141814983D70116962A
:10126000ED91FC9130E020E0C70109950E5F1F4F22
:10127000D7CFF80181818983AE014F5F5F4F61E075
:10128000C7010E94FD08F2CF0F5F1F4FD7011696CE
:10129000ED91FC9130E020E040E0C7010995C0CF1E
:1012A000462FDC011696ED91FC9130E020E066E1DE
:1012B0000994462FDC011696ED91FC9130E020E078
:1012C00065E10994EF92FF920F931F93CF93DF9301
:1012D000EC01042F79016D3009F446C050F46B30F5
:1012E000C9F1693009F49FC06A3009F465C080E033
:1012F00046C06E3009F452C06F3099F70E94F4086E
:10130000F7011381110F110F110F6C89160F60E493
:10131000CE010E945909612F62956F706061CE0104
:101320000E945909612F6F70CE010E945009F70188
:101330006481606BCE010E945009F70140815181A8
:101340006281660F660F660FCE010E94FD08015094
:10135000A1F72EC06DE271E0442311F068E271E064
:10136000CE010E9405090AC0411110C061E271E07E
:101370000E940509E881F98182898C8B81E0DF91E7
:10138000CF911F910F91FF90EF9008956AE171E066
:101390000E940509E881F9818389EFCF0E94F40852
:1013A00061E8CE010E945909602FCE010E945009C8
:1013B000CE010E94EB08E2CFEA85FB8530E020E019
:1013C00040E068E2CE010995EE81FF8130E020E047
:1013D00040E064E1CE01099541E06BE4CE010E945A
:1013E000E408E881F981448169E2CE010E94E408C1
:1013F00040E06BE4CE010E94E408E881F981448179
:1014000069E2CE010E94E40841E06BE4CE010E9453
:10141000E408E881F981458169E2CE010E94E4088F
:1014200062E371E09DCF87E691E0998388831C8A0F
:10143000A5CFDC011896ED91FC9130E020E040E072
:1014400069E10994DC011896ED91FC9130E020E00F
:1014500040E068E10994CF93DF931F92CDB7DEB7E8
:101460006983BE016F5F7F4F0E9426050F90DF9159
:10147000CF910895EF92FF921F93CF93DF93EC01EA
:10148000162F7A010E94220A60E4CE010E942B0AE4
:10149000E885F9859701412F67E1CE010995CE01D5
:1014A000DF91CF911F91FF90EF900C94190AEF926A
:1014B000FF921F93CF93DF93EC01142F79016631D4
:1014C00081F138F4643109F44BC0653179F080E082
:1014D00022C06831C9F150F16931C9F78091150214
:1014E000882391F1CE010E94190A2EC08091150225
:1014F000882319F0CE010E94190ACE010E94220A07
:1015000060E0CE010E942B0A612FCE010E942B0ABF
:1015100081E080931502DF91CF911F91FF90EF90B2
:101520000895642F0E942B0A81E0F5CF8091150267
:10153000882319F0CE010E94190AA701193138F445
:10154000612FCE010E943A0A10921502EDCF68E198
:10155000CE010E943A0A185188E1E80EF11CEDCF45
:101560008E898F3F11F488E78E8BE885F985970186
:10157000412F64E1CE01DF91CF911F91FF90EF9059
:1015800009940F93FC01E85BFF4F0190F081E02D7F
:10159000DF01A41BB50BAD01FC01EA5BFF4F01901D
:1015A000F081E02DDF01A61BB70BBD01011113C0B7
:1015B00041505109621B730BFC01E05CFF4F01902D
:1015C000F081E02D4E1B5F0BDC01D496ED91FC9178
:1015D00009950F910895013079F761507109421B07
:1015E000530BEACFCF93DF93FC01A081B18182AD91
:1015F00090E09C0143E0220F331F4A95E1F737AF9B
:1016000026AF50962C91509748E0249F90011124CA
:1016100035AF24AF23AD30E0B90153E0660F771F3B
:101620005A95E1F7EF01C05CDF4F798368835196EB
:101630004C915197E901C80FD91F50E04C175D0735
:1016400018F4CA01821B930BEF01CE5BDF4F798345
:101650006883229623E0880F991F2A95E1F7860F69
:10166000971F99838883229654968D919C915597C4
:1016700099838883E85BFF4F56968D919C91918367
:101680008083DF91CF9108950F931F93FC01E25B5C
:10169000FF4F0190F081E02DDC01A05BBF4F0D906A
:1016A000BC91A02D4A175B0740F4E017F10748F002
:1016B0000417150730F080E019C0E017F107C0F3F8
:1016C000FACFFC01E65BFF4F40815181845B9F4F65
:1016D000FC01808191816817790758F481E04217F5
:1016E000530720F081E02617370728F71F910F9145
:1016F000089542175307B0F3DECF2F923F924F92D7
:101700005F926F927F928F929F92AF92BF92CF9291
:10171000DF92EF92FF920F931F93CF93DF93CDB79A
:10172000DEB728970FB6F894DEBF0FBECDBF9887FF
:101730008F83865B9F4F9A838983FC01118210827D
:10174000EF81F885EA5BFF4F208031802F8138855B
:10175000245B3F4F3C832B83F90131822082EF8051
:10176000F884FEE4EF0EF11CF70111821082EF8184
:10177000F885E85BFF4F40805180EF81F885EC5B96
:10178000FF4F208131814216530630F0C201821B87
:10179000930BF70191838083EF81F885EE5BFF4F18
:1017A00020813181421A530A2F813885205B3F4FB7
:1017B0003E832D83F90151824082EF81F885E85AFA
:1017C000FF4F60807180EF81F885EC5AFF4FA08059
:1017D000B180EF81F885EA5AFF4FC080D180EF8158
:1017E000F885EE5AFF4F8080918083019501A60114
:1017F000B4018F8198850E94440B2F8138852C5726
:101800003F4F38872F8381111BC0F9011082289622
:101810000FB6F894DEBF0FBECDBFDF91CF911F9101
:101820000F91FF90EF90DF90CF90BF90AF909F907F
:101830008F907F906F905F904F903F902F90089582
:1018400081E0EF81F88580838114910421F0E981A2
:10185000FA8191828082A214B30420F4EB81FC818E
:10186000B182A082F701808191818C159D0510F4D1
:10187000D182C0826414750450F6ED81FE817182BC
:101880006082C5CF0F93CF93DF93E02FDC01AC577D
:10189000BF4FFC91FF2309F460C02115310509F405
:1018A0005CC02230310538F0023009F04AC06F5F69
:1018B0007F4F621B730B0E2F0170E0FD52C0FC01C5
:1018C000E25BFF4F0190F081E02D4E175F0708F4B7
:1018D00044C0FC01E05BFF4F0190F081E02D4E170A
:1018E0005F07D8F5FC01E45BFF4F0190F081E02D2C
:1018F000DC01A65BBF4F0D90BC91A02D260F371FBA
:101900002617370738F56E177F0718F59F01215006
:101910003109A217B30708F56A177B0708F4BD0160
:101920002E173F0708F4F901E61BF70BEC01AEA9EF
:10193000BFA914960D90BC91A02D9F01FD010995A2
:101940000CC0033009F0B7CF4F5F5F4F421B530B02
:10195000B2CFBD016E177F07E0F2DF91CF910F91FB
:101960000895FC01E65BFF4F0190F081E02D6E17BA
:101970007F0798F3FC01E45BFF4F0190F081E02DBD
:101980006E177F0750F7FC01E05BFF4F0190F0817D
:10199000E02DDC01A25BBF4F0D90BC91A02D240F68
:1019A000351F24173507A8F44E175F0788F49F01E9
:1019B00021503109A217B30780F64A175B0708F4D4
:1019C000AD012E173F0708F4F901E41BF50BAECF6C
:1019D000AD014E175F0708F6EDCF0F932091E80495
:1019E0003091E90462177307F0F02091EA04309116
:1019F000EB0462177307B8F42091E4043091E50416
:101A00008217930780F02091E6043091E704821753
:101A1000930748F4AB01BC0100E021E030E08AE923
:101A200094E00E94420C0F9108955F926F927F9212
:101A30008F929F92AF92BF92CF92DF92EF92FF92DE
:101A40000F931F93CF93DF93EC017B018A016C010D
:101A5000C41AD50A4817590718F06A01C81AD90AD2
:101A60002E153F0560F44701821A930AC814D90461
:101A700048F10C171D0708F459C0512C18C0490132
:101A80008E189F08C814D90408F05EC09C2D8D2DB7
:101A90006401892E982E902F812F8901292F382FAC
:101AA0009C2F8D2FE701E92EF82E552453943601F3
:101AB00076946794E216F30608F442C0AA24AA9426
:101AC000BA2C21C09C2D8D2D6401892E982E9E2D1F
:101AD0008F2D7801092F182F9C2F8D2FE901292F89
:101AE000382FE3CFB701CE01552011F0BE01C70159
:101AF0000E94ED0C6818790877FE04C0EA0CFB1C04
:101B00006C0C7D1C21960C171D0760F7DF91CF919F
:101B10001F910F91FF90EF90DF90CF90BF90AF900B
:101B20009F908F907F906F905F900895360176948C
:101B30006794902F812F8E01C92FD82F7901512CB6
:101B4000AA24A394B12CDFCF0C171D0708F095CF62
:101B5000360176946794902F812F8E01C92FD82F4C
:101B60007901512CABCFAF92BF92CF92DF92EF921F
:101B7000FF920F931F93CF93DF936C01EB015A01F8
:101B80007B01E20EF31E9C01240F351F8701AB0180
:101B9000BC018AE994E00E94440B882361F000E0D4
:101BA0009501AE01B6018AE994E00E94420C2196AB
:101BB000EC16FD06A1F7DF91CF911F910F91FF90D9
:101BC000EF90DF90CF90BF90AF900895213069F0F3
:101BD00038F0223079F0840F911D47FD9A950895D1
:101BE000860F911D67FD9A950895841B910947FD05
:101BF00093950895861B910967FD9395089521306B
:101C000069F038F0223079F0861B910967FD9395D1
:101C10000895840F911D47FD9A950895860F911D93
:101C200067FD9A950895841B910947FD9395089542
:101C30003F924F925F926F927F928F929F92AF925C
:101C4000BF92CF92DF92EF92FF920F931F93CF93A9
:101C5000DF937C01162F442EEC01C25ADF4F5E80C9
:101C60006F806C018AE8C80ED11C78847518312EFB
:101C7000711608F4372C8C809D800E85202F462D00
:101C8000652D8A819B810E94E60D5C01202F462DE7
:101C9000652DC4010E94FF0DAC01442079F08C85B4
:101CA000F6018083232D30E0B501C7010E94420C6C
:101CB000171548F017196394512CD7CF8B858111D4
:101CC000F7CF8D85EDCF150D1E836F82DF91CF91FC
:101CD0001F910F91FF90EF90DF90CF90BF90AF904A
:101CE0009F908F907F906F905F904F903F9008955E
:101CF000DC011A964C911A97ED91FC911197249161
:101D000030E0042E02C0359527950A94E2F7842F1F
:101D1000860F883068F031961196FC93EE93E4912B
:101D200098E0941B01C0EE0F9A95EAF72E2B88508D
:101D30001A968C938FEF9FEF01C0880F6A95EAF790
:101D40008095822308950F931F93CF93DF938C0187
:101D5000EC01C25ADF4F798368831A86FC01EF5881
:101D6000FF4F6081CE010E94780E8887F801EE58FF
:101D7000FF4F6081CE010E94780E8987F801E657F7
:101D8000FF4F90819C8781E0911180E08D87DF91EA
:101D9000CF911F910F910895CF93C62F0E94780E77
:101DA000C15021E030E001C0220FCA95EAF7821B42
:101DB000CF910895FC01E60FF11D849190E0982FDA
:101DC00088273196E4918E0F911D0895CF93DF936C
:101DD0002091F4043091F5042817390709F490C0D4
:101DE000EC019093F5048093F404FC0184918093BA
:101DF00007053196E491E0930805FE013296E491DF
:101E0000E0930905FE013396E491E0930A05FE0193
:101E10003496E491E0930B05FE013596E491E0934E
:101E20000C05FE013696E491E0930D05FE01379610
:101E3000E491E0930E05FE013896E491E0930F05DE
:101E4000FE013996E491E0931005FE013A96E49183
:101E5000E0931105FE013B96E491E0931205FE012B
:101E60003C96E491E0931305FE013D96E491E093E6
:101E70001405FE013E96E491E0931505FE013F96A0
:101E8000E491E0931605FE017096E491E093170546
:101E900061E1CE010E94DA0E909319058093180536
:101EA00063E1CE010E94DA0E90931B0580931A0520
:101EB00065E1CE010E94DA0E90931D0580931C050A
:101EC0008091F4049091F504892BD1F08091140550
:101ED00080932005409115054093210590911F05A1
:101EE000992371F0913079F490911605891714F4C3
:101EF0009093200580911705841714F48093210591
:101F0000DF91CF9108953091110520911305082E8E
:101F1000000C990B622F022E000C770B630F711DC2
:101F200037FD7A95861797071CF4320F30932005FA
:101F3000241734F720932105E3CFEF92FF920F93FC
:101F40001F93CF93DF93FC01E65AFF4F208131812D
:101F5000295E3F4F6F3F710509F048F56136710505
:101F6000D8F080589F4FFC0180819181280F391F44
:101F7000C9010196FC014491442309F447C0F901C9
:101F800044914617170671F40196DF91CF911F9186
:101F90000F91FF90EF9008956134710548F38258D6
:101FA0009F4FE1CFFC018491280F311DE1CF8B01C0
:101FB000FC01EE57FF4FC081D181C20FD31F7E01BC
:101FC00060E0C7010E94DA0EC80FD91F62E0C701A6
:101FD0000E94DA0EF4E0EF0EF11C8017910780F3F7
:101FE000FE01849190E0982F88273196E4918E2B02
:101FF000009761F00817190719F4CE010396C5CFB1
:10200000FE013296E491CE0FD11DEACF90E080E040
:10201000BCCFCF92DF92FF920F931F93CF93DF93AA
:10202000109200051092B2046C0180ECF82E10E0C2
:1020300000E0D0E0C0E0F60161916F01E0919C0406
:10204000F0919D048AE994E009958F3F980789F102
:102050008E3F2FEF920779F3BC018AE994E00E944A
:102060009D0F009721F1BC018AE994E00E94A30E24
:1020700060910D0588EF94E00E94CC0E80932205BC
:1020800060910E0588EF94E00E94CC0E60910F05E0
:1020900088EF94E00E94CC0E082F880F110B80EC83
:1020A000F81202C0F0902205C00FD11FC4CF80E00B
:1020B000F3CF20910005222399F080912205022E72
:1020C000000C330B280F311D87FD3A95C20FD31F2B
:1020D000C01BD10B1F1424F4CF0DD11DF7FCDA95D2
:1020E000CE01DF91CF911F910F91FF90DF90CF90A4
:1020F00008958F929F92AF92BF92CF92DF92EF920C
:10210000FF920F931F93CF93DF93EC017B018A0122
:102110006901FC01E459FF4F8081813009F46FC0EF
:1021200008F462C0823009F475C0833009F47DC0C0
:10213000FE01E05AFF4FF182E08232961183008364
:10214000B601CE010E949D0F009709F4FFC07E01E9
:102150002EE5E20EF11CBC01CE010E94A30EFE0191
:10216000E959FF4FB0803C966081C7010E94CC0EB8
:10217000882EFE01EC58FF4F6081C7010E94CC0EF3
:10218000082FFE01EB58FF4F6081C7010E94CC0E63
:10219000A82EF701908419140CF090C016850B0D31
:1021A0000195212F402F682D828193810E94E60D99
:1021B0006C01F70193838283212F402F682D848146
:1021C00095810E94FF0DAC01F70195838483113046
:1021D00009F484C0A8F1123009F491C0133009F455
:1021E000A4C08C01960136C0FE01E45AFF4F019055
:1021F000F081E02DCE010995080F191F99CFFE013E
:10220000E45AFF4F0190F081E02DCE010995E81AC4
:10221000F90A8ECFFE01E45AFF4F0190F081E02DC4
:10222000CE010995081B190B83CFFE01E45AFF4F1D
:102230000190F081E02DCE010995E80EF91E78CFCE
:102240009601290D311D97FC3A958C010B0D111D3E
:10225000B7FC1A95B601CE010E94440B882371F198
:10226000F701168217828E0101591F4F6E01F0E7A8
:10227000CF0ED11CF8016081C7010E94780E882E14
:10228000F6016081C7010E94780E982E40E0682D0B
:10229000CE010E94180E41E0692DCE010E94180E59
:1022A00061E0C7010E94780E8111F0CFF7018781AC
:1022B0008B1504F3C657DF4F848588838A2DAA0CBB
:1022C000990BDF91CF911F910F91FF90EF90DF90CD
:1022D000CF90BF90AF909F908F90089581E090E055
:1022E0008B199109B7FC939596012F5F3F4F8A0197
:1022F000090D111D97FC1A95C80ED91EABCF81E0B0
:1023000090E0BC016919710997FC739596012F5FE4
:102310003F4F8B199109B7FC93958A010F5F1F4FAF
:10232000480F591FC60ED71E95CF96012B0D311D94
:10233000B7FC3A9581E090E08919910997FC939553
:102340008A010F5F1F4F480F591F84CF90E080E034
:10235000B8CFCF92DF92EF92FF920F931F93CF935C
:10236000DF93EC018B011092B2047A01D12CC12CC5
:10237000F70161917F01E0919C04F0919D048AE94D
:1023800094E009958F3F980719F18E3F2FEF920740
:1023900079F39C01A801BE018AE994E00E947910BA
:1023A00020910605213059F038F0223059F02330C1
:1023B00061F0C80ED91EDCCFC80FD91FFACF080FA5
:1023C000191FF7CFC81BD90BF4CF081B190BF1CF7E
:1023D000C601DF91CF911F910F91FF90EF90DF9099
:1023E000CF900895CF93DF93EC016BAFEEA9FFA9D7
:1023F0000190F081E02D0995EEA9FFA90280F381FB
:10240000E02DCE01DF91CF910994AF92BF92CF9290
:10241000DF92EF92FF920F931F93CF93DF9300D041
:1024200000D01F92CDB7DEB78C01DC01DA96AC90FC
:10243000DA97DB96EC90DB97ED91FC91B188FE2C5E
:10244000D12CC12CD801ED91FC9111978089D8969F
:102450002D913C911C82FD828B83B8E08B9FC00143
:1024600011248C9DA0018D9D500D9C9D500D11241B
:10247000240F351F3A832983D8011496ED91FC91DE
:102480009E012F5F3F4F41E06FE0C8010995F39433
:102490008F2D8E198A1528F4BFEFCB1ADB0AFB1497
:1024A00088F20F900F900F900F900F90DF91CF91C7
:1024B0001F910F91FF90EF90DF90CF90BF90AF9062
:1024C0000895CF92DF92EF92FF920F931F93CF93D5
:1024D000DF93EC01962F683109F44BC0B9019931B3
:1024E00030F49431C9F0973189F080E006C0993119
:1024F00009F461C09032C9F781E0DF91CF911F915B
:102500000F91FF90EF90DF90CF90089550E086E21A
:1025100093E00E94A807F0CF8C859D85AE85BF858E
:10252000892B8A2B8B2B71F4E881F981A585B0E08A
:1025300020EA36E841E050E00E94B0336C877D87A6
:102540008E879F87109258021092570210925A025B
:10255000109259020E943D078CE797E09093820207
:10256000809381028DE797E09093860280938502A5
:10257000C3CF2C853D854E855F8560E074E284EF96
:1025800090E00E94FA3320513109410951095695D2
:102590004795379527952093B8008E8990E09595BB
:1025A000879591E0909336028093140210925A021C
:1025B00010925902A1CFD0915902D13208F093C0A4
:1025C000C09114020E94EA056B017C018091A9026E
:1025D000811164C082E08093A90281E08093AB0204
:1025E0008FEF8093A8021092CD02D093CC02A6E187
:1025F000B2E0ECEAF2E080E0D8137CC01092CE02A8
:102600008091CE02CC0FC82BC093CE028091AA023B
:10261000813009F073C01092AA020E94EA056B0192
:102620007C018091CE028093BB0080915C029091EE
:102630005D02A0915E02B0915F02892B8A2B8B2BE9
:1026400099F00E94EA0500915C0210915D022091D0
:102650005E0230915F026C197D098E099F09061791
:10266000170728073907D8F18091BC0083FDD9CF1F
:1026700085EC8093BC000E94EA056B017C0180918F
:10268000A9028230E9F18091A8028F3F61F1809127
:10269000A802803241F18091A80225C080915C029D
:1026A00090915D02A0915E02B0915F02892B8A2B0E
:1026B0008B2B09F48BCF0E94EA0500915C021091EC
:1026C0005D0220915E0230915F026C197D098E09D6
:1026D0009F09061717072807390708F077CF809159
:1026E0005B020E945B0710925A02109259021092EC
:1026F000360202CF9D9191938F5F7ECF85EEB9CF49
:1027000080915C0290915D02A0915E02B0915F02A7
:10271000892B8A2B8B2B09F4B2CF0E94EA050091FA
:102720005C0210915D0220915E0230915F026C1993
:102730007D098E099F09061717072807390708F032
:102740009ECFCDCF0F931F93CF93DF938C01C62FD6
:10275000642FCC32E8F4CA3208F041C0C83271F1BB
:10276000C93209F442C080E0C034D0F1CF73F8011F
:10277000EC0FF11D868D8F3F91F1C031E0F00E948A
:10278000570521E0892B09F420E0F801218F27C0AB
:10279000CD3289F140F384EB8C0F823020F7CF7378
:1027A000C00FD12FD11D8E8D411133C061E00E9429
:1027B000AE0560E08E8D0E94800511C0025E1F4F45
:1027C000D0E0F80181918F018F3F31F061E0D0318D
:1027D00008F062E00E94AE05DF5FD63191F781E03C
:1027E000DF91CF911F910F91089570E090E080E00C
:1027F0000E940F06F4CF85E090E0433010F082E0B5
:1028000090E0880F991F880F991F05970197F1F79E
:10281000E6CF62E00E94AE05E2CFCF92DF92EF9268
:10282000FF920E945C3220E034E244E759E40E94C7
:102830002B349B01AC0160E070E080E89FE30E94D4
:102840002B346B017C01AC019B0160E074E284E7F6
:102850009BE40E942B340E94A4346F3F2FEF720739
:102860008105910508F47CC020E030E040E051E4AF
:10287000C701B6010E94BD329B01AC0160E074E269
:1028800084E79BE40E942B340E94A4346F3F2FEF17
:1028900072078105910508F465C020E030E040E84A
:1028A00052E4C701B6010E94BD329B01AC0160E059
:1028B00074E284E79BE40E942B340E94A4346F3FAF
:1028C0002FEF72078105910508F44EC020E030E03B
:1028D00040E853E4C701B6010E94BD329B01AC0140
:1028E00060E074E284E79BE40E942B340E94A434ED
:1028F0006F3F2FEF720781059105C0F120E030E0B6
:1029000040E854E4C701B6010E94BD329B01AC010E
:1029100060E074E284E79BE40E942B340E94A434BC
:102920006F3F2FEF720781059105A8F425E0F89419
:102930001092810061507109709389006093880042
:102940008091810088608093810080918100282B94
:10295000209381007894FF90EF90DF90CF900895BE
:1029600021E0E5CF22E0E3CF23E0E1CF24E0DFCF99
:10297000CF92DF92EF92FF9220910D0430910E04DE
:1029800021303105D1F16B017C0120E030E040E8DD
:102990005FE30E94573287FD30C020E030E048EC12
:1029A00053E4C701B6010E94D334181634F1F894E9
:1029B000C0920504D0920604E0920704F092080445
:1029C00078946091DB037091DC0390E080E00E94DA
:1029D0005C329B01AC0160EC71EE84E69CE40E94E9
:1029E0002B34A70196010E942B340E94A434FF903F
:1029F000EF90DF90CF900C940D14FF90EF90DF904C
:102A0000CF90089568EF82E393E00C947708CF921B
:102A1000DF92EF92FF920F931F93CF93DF93EC011E
:102A200088810E9457058C010E944206CA80DB8083
:102A3000EC80FD80AB01BC014C195D096E097F097A
:102A40000115110561F48981813031F491E04B3039
:102A500051056105710508F490E080E00EC0013079
:102A60001105D1F789818111F7CF81E04B305105F4
:102A70006105710508F480E090E01F821E829923B1
:102A8000B1F081E090E09F838E830E9442066B014B
:102A90007C01CA82DB82EC82FD820983DF91CF91C7
:102AA0001F910F91FF90EF90DF90CF9008958823B2
:102AB00081F30E9442062EEEC20E22E0D21EE11CDD
:102AC000F11C6C157D058E059F0550F482E090E0A9
:102AD0009F838E83E885F9853097B9F20995D5CF24
:102AE00083E090E09F838E83EA85FB85F5CF0F938B
:102AF0001F93CF938C01C62F62E08C2F0E94AE05EE
:102B0000F801C0838C2F0E945705F8018183CF9173
:102B10001F910F910895CF92DF92EF92FF92CF9382
:102B2000DF93EC0189819A819C838B8388818E302D
:102B300008F08E508770806480937C0080917A00CA
:102B4000806480937A0080917A0086FDFCCFA0910A
:102B50007800B0917900CF80D8840D2C000CEE085D
:102B6000FF0829853A85032E000C440B550B2C19C0
:102B70003D094E095F090E94BB332FEF33E040E06F
:102B800050E00E9491332C0D3D1D4E1D5F1D8D8127
:102B90009E81281B390B213082E0380714F020E099
:102BA00032E021158EEF380714F420E03EEF3A832F
:102BB00029838B85882329F03195219531093A8322
:102BC0002983DF91CF91FF90EF90DF90CF90089510
:102BD000CF92DF92EF92FF920F931F93CF93DF93E9
:102BE0006C01EB017B01E40EF51E10E000E0CE1558
:102BF000DF0561F06991D601ED91FC910190F081C2
:102C0000E02DC6010995080F191FF1CFC801DF910A
:102C1000CF911F910F91FF90EF90DF90CF9008958B
:102C2000CF92DF92EF92FF920F931F93CF93DF9398
:102C3000EC016C0124E0C20ED11CFC01E057FF4FF7
:102C40000190F081E02DC60109958E3FEFEF9E07C0
:102C5000D8F48E010C561F4FF801408151817E013E
:102C6000F2E9EF0EF11CF701608171819C01C60150
:102C70000E947910C059DF4F28812130C1F078F0CF
:102C80002230B9F02330E9F081E090E0DF91CF917C
:102C90001F910F91FF90EF90DF90CF900895F70173
:102CA00020813181820F931F91838083EDCFF801C2
:102CB000F7CFF70120813181281B390B3183208325
:102CC000E3CFF801F7CF90E080E00895BC01990FC1
:102CD000880B990B0E945E320C94B8148091C70542
:102CE0009091C8050E94661680912E0690912F063D
:102CF0000E9471068091350680936A05E0919E04DA
:102D0000F0919F0430E020E0409136066DE08AE9C2
:102D100094E00994CF92DF92EF92FF9280910D049C
:102D200090910E04019749F580910F049091100441
:102D300020911104E22FF0E0E150F04CEE0FFF1F64
:102D4000EE0FFF1FE80FF91F4081518162817381EF
:102D5000452B462B472B89F0FC0130E060E070E00A
:102D6000CB012317E1F0C190D190E190F1906C0D6F
:102D70007D1D8E1D9F1D3F5FF4CFC0900504D09038
:102D80000604E0900704F0900804C701B6010E9411
:102D90009D34CB01FF90EF90DF90CF9008956115A7
:102DA00071058105910549F330E050E040E00E9453
:102DB000FA33A091DD03B091DE030E94BB330E9481
:102DC0005C329B01AC0160EC71EE84E69CE40E94F5
:102DD0002B346B017C0120E030E040E85FE30E948F
:102DE000573287FD11C020E030E048EC53E4C701C2
:102DF000B6010E94D334181644F6C12CD12C88ECAD
:102E0000E82E83E4F82EC1CFC12CD12C90E8E92E16
:102E10009FE3F92EBACFCF93DF93C3E3D5E060E011
:102E200088810E9480051982279685E0CD35D807D4
:102E3000B1F7DF91CF910895FC01493151052CF490
:102E40001616170674F06FEF7FEF90819B01290F24
:102E5000311D37FD0CC02417350734F04150408335
:102E6000089561E070E0F1CF492F460FF8CF40E0C0
:102E7000F6CF0F931F93CF9347E050E0BC018BE256
:102E800096E00E941C171092290602EC15E0C1E0A2
:102E9000F801C0830E944206F80161837283838334
:102EA0009483C0933706CF911F910F91089580911D
:102EB00092050E945705892BF1F4E0912B06E11150
:102EC0000CC0E7ECF5E091E087858927878770964D
:102ED00086E0E732F807C1F70895E150FF0B84E080
:102EE000EE0FFF1F8A95E1F7E953FA4F878591E0CE
:102EF0008927878708958091D1039091D203892BE8
:102F000041F40E944E060E940B1781E08093370621
:102F100008950E94F604F7CF8F929F92AF92BF92CE
:102F2000CF92DF92EF92FF920F931F9380912E0624
:102F300090912F06009711F0059791F40E940B17BE
:102F40000E94B00481E0809337061F910F91FF909B
:102F5000EF90DF90CF90BF90AF909F908F900895AB
:102F600080910D0490910E04019761F7F89480917F
:102F7000D1039091D2038130910521F0029799F00D
:102F80007894E0CF82E090E09093D2038093D103D5
:102F90000E94EA056093F1037093F2038093F303B8
:102FA0009093F403EDCF0E94EA05AB01BC01809140
:102FB000F1039091F203A091F303B091F403481749
:102FC00059076A077B0708F46FC08A019B01081B39
:102FD000190B2A0B3B0BD901C8018093FD03909379
:102FE000FE03A093FF03B09300044093F1035093BA
:102FF000F2036093F3037093F4034091F50350914F
:10300000F6036091F7037091F8034F5F5F4F6F4FC6
:103010007F4F4093F5035093F6036093F70370934B
:10302000F80320911204309113042F5F3F4F309327
:10303000130420931204409111044217130609F05F
:1030400020F4109213041092120420911204309173
:103050001304220F331F220F331FE0910F04F0914E
:103060001004E20FF31F80839183A283B3838091C6
:10307000F5039091F603A091F703B091F803209126
:10308000FD033091FE034091FF035091000401972E
:10309000A105B10591F42093F9033093FA0340930D
:1030A000FB035093FC036CCF80959095A095B09551
:1030B000840F951FA61FB71F90CF8090F9039090A3
:1030C000FA03A090FB03B090FC03A4E2B0E00E94DE
:1030D000B0336B017C01ACEDB0E0A50194010E941E
:1030E000B033C60ED71EE81EF91ECD2CDE2CEF2CF9
:1030F000FF24C092F903D092FA03E092FB03F0920E
:10310000FC033ECF8F929F92AF92BF92CF92DF92FD
:10311000EF92FF920F931F93CF93DF935C017B019C
:103120008DEC92E00E94E60EC0912906670121E035
:10313000C21AD108CC151D0409F0B3C0C33008F081
:10314000C2E03EE0C39FE00111244E0182E0880E00
:10315000911C80913406882309F4ABC02FE030E045
:103160004FE350E0B40181E490E00E94B30D81E0B0
:103170000E94230530E020E043E050E070E060E092
:1031800090E080E00E94150D23E030E050E040E048
:1031900070E060E090E080E00E94150D30E020E0FB
:1031A0004DE350E070E060E080E490E00E94150D97
:1031B00023E030E040E450E070E060E080E490E044
:1031C0000E94150D2EE230E040E450E061E370E033
:1031D00080E490E00E94150D21E330E04DE350E0E3
:1031E00061E370E080E490E00E94150D21E330E09F
:1031F00043E050E061E370E090E080E00E94150D54
:103200002EE230E050E040E061E370E090E080E0EA
:103210000E94150D82E00E94230520912906822F2D
:1032200090E0C816D90609F081C0F3E0EF1AF10862
:1032300026E02E9DC0012F9D900D1124A80EB91ED1
:10324000CDE0D0E004E314E08CE7C82ED12CF501EA
:10325000E080F18010939D0400939C04C7010E94BC
:10326000091010939D0400939C04A701BE019601D0
:10327000281B390BC9010E94A91136E0A30EB11C0D
:103280002E96C733D10519F7DF91CF911F910F917A
:10329000FF90EF90DF90CF90BF90AF909F908F9076
:1032A0000895C11103C0D0E0C0E04FCFCEE0D0E020
:1032B0004CCF8E010F5E1F4F20E830E0A40161E487
:1032C00070E08AE994E00E94440B882309F4A5CFBA
:1032D00000E02FE330E0A40161E470E08AE994E0CB
:1032E0000E94420C4E01E3E08E0E911C01E02DE0A5
:1032F00030E0A40161E470E08AE994E00E94420CAD
:103300002DE030E0A4016FE770E08AE994E00E94CC
:10331000420CAE01405F5F4F00E02FE330E061E41C
:1033200070E08AE994E00E94420C77CFF12CE12C06
:10333000222309F47DCF7C0121E0E21AF10878CF45
:10334000EF92FF920F931F93CF93DF93EC017B01DA
:10335000CA010E94E60E04E314E010939D0400935A
:103360009C04CE010E94091010939D0400939C04BC
:1033700097FD019695958795919581959109AE0157
:10338000B7018096DF91CF911F910F91FF90EF9041
:103390000C94A911DC011396EC91F0E0EE0FFF1FE5
:1033A000EC58FF4F259134912430310530F036959B
:1033B0002795FC0137872687089521E030E0F9CF73
:1033C0002F923F924F925F927F928F929F92AF92F5
:1033D000BF92CF92DF92EF92FF920F931F93CF9302
:1033E000DF93EC01762E590147018C81312C212C81
:1033F000861324C0052E000C660B770B9A01AB01D7
:103400003E5F4F4F5F4FB701FF0C880B990B680170
:10341000012E000CEE08FF086C197D098E099F092A
:103420000E94D83420E034E040E050E00E94913324
:1034300019012A012C0C3D1C4E1C5F1C8D8130E0B3
:1034400020E0871121C06801110FEE08FF089501E7
:10345000BB0C440B550B3E5F4F4F5F4F092C000CCC
:10346000AA08BB08C501B4016C197D098E099F0922
:103470000E94D83420E034E040E050E00E949133D4
:103480002C0D3D1D4E1D5F1DC101820F931FDF914D
:10349000CF911F910F91FF90EF90DF90CF90BF9051
:1034A000AF909F908F907F905F904F903F902F9024
:1034B000089577FD10C06931710514F068E170E07E
:1034C000FC0160832481211108C02581211105C0E0
:1034D00063830C94CA1960E0F3CF08958F929F9292
:1034E000AF92BF92CF92DF92EF92FF92FC011382D4
:1034F0001482158216829081992391F141E050E067
:1035000060E070E0438354836583768321E030E09C
:1035100080E0A92FB0E0812C912C540183942A17CC
:103520003B07F4F44181840F8917B8F0891B43816C
:1035300054816581768175016401022E04C0CC0C32
:10354000DD1CEE1CFF1C0A94D2F74C295D296E2964
:103550007F2943835483658376832F5F3F4FDFCF7B
:10356000FF90EF90DF90CF90BF90AF909F908F90A3
:103570000895CF92DF92EF92FF920F931F93CF9314
:10358000DF938C01EC0188E790E0899399936801BF
:1035900082E6C80ED11C80E1E82EFF24F394188641
:1035A00019861A861B861C86E882F982FA82EB82CB
:1035B0001C821D82FE82FF82CE0106960E946E1A38
:1035C000CE010E94CA196096CC15DD0541F718821C
:1035D000F801ED59FF4F108231961082319610821A
:1035E00031961082319611821082329683E090E0FB
:1035F00091838083329610823196108231961082A8
:1036000031961082319610823196F082DF91CF91FF
:103610001F910F91FF90EF90DF90CF900895FC01E4
:1036200021E01616170634F4218130E06217730783
:103630000CF49B0122838481833091F08581833057
:1036400079F0CF01069621E01616170634F426818C
:1036500030E0621773070CF49B0127830C946E1AF9
:103660000895FC0116161706B4F46132710514F0C2
:1036700060E270E061838481823079F085818230FC
:1036800061F066838781681708F4862F8783CF01EE
:1036900006960C946E1A61E0EDCF0895CF93DF93F8
:1036A000EC0160E08D810E9480051E82DF91CF9148
:1036B0000895EF92FF920F931F93CF93DF931F9282
:1036C000CDB7DEB77C01809192050E945705892B0A
:1036D00059F4C7010E9439170F90DF91CF911F91C4
:1036E0000F91FF90EF90089520912B068091340662
:1036F00081110CC04BE050E0222311F045E050E076
:10370000B70189E296E00E941C1728C0E0912906C3
:10371000211174C0EB3010F5F0E0EF56F44E0C942C
:10372000FC349C1BB21BBE1BCA1BDD1BF51BF51B0F
:10373000FB1BFB1BF51BF51B80910D0490910E04E8
:10374000019761F00E948A168E0D9F1D0E946616D9
:103750000E948A169093C8058093C70581E08093E4
:103760003706BACF43E050E0B7018AE296E00E9404
:103770001C1780912A0680933206F0CF43E050E078
:10378000B7018AE296E00E941C1780912A06809376
:103790003306E4CF80912E06898346E050E0B701DE
:1037A000CE0101960E941C17898190E090932F060C
:1037B00080932E060E947106D1CF809130068983B6
:1037C00044E050E0B701CE0101960E941C178981A8
:1037D00090E09093310680933006892B09F0BECF9C
:1037E00088E595E00E944E1BB9CF42E050E0B7015A
:1037F0008AE296E088CF4BE050E0F9CF2150330BBE
:1038000084E0220F331F8A95E1F7C90187539A4F4D
:10381000E23081F178F4EE2319F1E13009F09ECF26
:1038200029533A4FF90163816E0D7F2D711D0E945E
:10383000311B94CFE33041F1E43009F08FCF89019F
:1038400009531A4FF8018781898344E050E0B7019A
:10385000CE0101960E941C178981F80187837ECFD3
:1038600029533A4FF90162816E0D7F2D711D0E941F
:10387000591A74CF29533A4FF90164816E0D7F2D87
:10388000711D0E940F1B6ACF890109531A4FF8015D
:103890008681898344E050E0B701CE0101960E9401
:1038A0001C178981F801868359CF3F924F925F920E
:1038B0006F927F928F929F92AF92BF92CF92DF9240
:1038C000EF92FF920F931F93CF93DF936B017C01D5
:1038D000C7ECD5E00EE215E0B12CA12C312C8F8580
:1038E000882321F0C8010E944E1B61C0ED81F0E0E9
:1038F000EE0FFF1FEC58FF4F45905490F801868162
:10390000712C612C811140C0C701B601A301920145
:103910000E94FA33672B682B692BB1F52885222387
:1039200099F1C50164E0880F991F6A95E1F7FC01E0
:10393000E953FA4F328540E0303260F44B855C85C4
:103940006D857E8504C076956795579547953A9520
:10395000D2F74170FC01E953FA4F52852150330BE5
:10396000521713060CF049C022852F5F89539A4FD6
:10397000FC012287442341F061E0F80185810E9427
:10398000800581E0F801868388899989A7019601DD
:10399000280F391F411D511DCA01B901A301920110
:1039A0000E94FA33672B682B692B09F49BCF8E8119
:1039B000811103C08F81882311F0332433943FEFAA
:1039C000A31AB30A6096095F1F4F46E0A416B1041C
:1039D00009F085CF80913006909131060097D1F1A2
:1039E0008230910509F451C08330910541F001976F
:1039F00049F430E1832E912C05C020E0B7CF58E187
:103A0000852E912CF401EE0FFF1FEC58FF4F85908F
:103A10009490412C512C3201439454E0851691042A
:103A200028F0240156944794712C612CB12CA12CC0
:103A3000C701B601A50194010E94FA33672B682BD8
:103A4000692B39F561E080915D050E94800581E078
:103A500080935E0580913406811105C08091370600
:103A6000382A30923706DF91CF911F910F91FF9046
:103A7000EF90DF90CF90BF90AF909F908F907F900E
:103A80006F905F904F903F90089543E1842E912C6A
:103A9000B9CFC301B2016C0D7D1D8E1D9F1DA50107
:103AA00094010E94FA33672B682B692B99F688E5FD
:103AB00095E00E944E1BCECF6CEF82E393E00C9416
:103AC00077086AEF82E393E00C9477088C3F28F440
:103AD0008A3F88F4883F21F008958C3F41F0089593
:103AE000E091CF02F091D002309749F009940E9402
:103AF000F6040C945C1D0E944E060C94611D089502
:103B00008F929F92AF92BF920F931F93CF93DF93A9
:103B1000CDB7DEB7A1970FB6F894DEBF0FBECDBF0D
:103B200019A2423008F44AE08E010F5D1F4F842E27
:103B3000912CB12CA12CA50194010E94FA33E62FFF
:103B4000B901CA01EA3044F5E05DD801EE938D0178
:103B5000232B242B252B79F790E080E0109769F038
:103B6000FD0101900020E9F73197AF014A1B5B0B83
:103B7000BD0186E994E00E94E815A1960FB6F8947D
:103B8000DEBF0FBECDBFDF91CF911F910F91BF90D0
:103B9000AF909F908F900895E95CD7CFBF92CF925E
:103BA000DF92EF92FF920F931F93CF93DF932091B9
:103BB000C7053091C805309301032093000390910D
:103BC00029069093020390912B0690930303909102
:103BD0002E069093040390913006909305039091E4
:103BE0003206909306039091330690930703A7EC57
:103BF000B5E0E0E0F3E012969C911297908713965F
:103C00009C911397918714969C911497928716967E
:103C10009C911697938717969C9117979487509627
:103C2000359693E0EE31F90731F796E2E92E93E00D
:103C3000F92E00E013E0C2E2D0E0C050D340E6E24B
:103C40008E9FC00DD11D1124F801B1908F016E011E
:103C5000CE0EDF1EC6010E947B33B81621F06B2DFD
:103C6000C6010E948333E016F10671F7DF91CF9110
:103C70001F910F91FF90EF90DF90CF90BF9008952C
:103C8000EF92FF920F931F93CF93DF937C018C01F0
:103C9000D0E0C0E0CE010E947B33F80181938F0118
:103CA0002196C332D105B1F7C701DF91CF911F91A2
:103CB0000F91FF90EF900895EF92FF920F931F9353
:103CC000CF93DF93CDB7DEB7C459D1090FB6F894BF
:103CD000DEBF0FBECDBFF894CE0101960E94B91A87
:103CE00089819A819093C8058093C705A4968FAD6A
:103CF000A49780932906A6968FADA69780932B064E
:103D0000AA968EAD9FADAA9790932F0680932E060C
:103D1000AC968EAD9FADAC979093310680933006F4
:103D2000AD968FADAD9780933206AE968FADAE97C0
:103D30008093330609EC15E080E1E82EFF24F3942C
:103D4000F801E082F182F282E38214821582F68227
:103D5000F782C80106960E946E1AC8010E94CA190D
:103D6000005F1F4FF6E009321F0751F7CE018E5852
:103D70009F4F0E94401ECE56DF4F8881C259D040CF
:103D800080932D06CD56DF4F8881C359D040809354
:103D90003506CC56DF4F8881C459D0408093360613
:103DA0001092C2057894CC56DF4F0FB6F894DEBF60
:103DB0000FBECDBFDF91CF911F910F91FF90EF907C
:103DC0000895EF92FF920F931F93CF93DF93CAED65
:103DD000D2E07E0103E210E00A5D124096E2899F84
:103DE000000D111D1124C8018E0D9F1D0E947B33F3
:103DF000F70181937F01F0E0EF16F3E0FF0699F7FA
:103E00008091DA029091DB029093C8058093C705F8
:103E10008091DC02809329068091DD0280932B063D
:103E20008091DE0290E090932F0680932E06809181
:103E3000DF0290E090933106809330068091E0029B
:103E4000809332068091E1028093330609EC15E0FD
:103E5000688570E0C8010E94591A698570E0C80140
:103E60000E94311B6A8570E0C8010E940F1B8B8580
:103E7000F80184838C8585832596005F1F4FF2E0CF
:103E8000C83FDF0729F7DF91CF911F910F91FF9076
:103E9000EF900895DF92EF92FF920F931F93CF93CD
:103EA000DF93CDB7DEB7A3970FB6F894DEBF0FBE92
:103EB000CDBF6BE871E0CE0101960E9411376FE72C
:103EC00071E0CE0141960E94113780912D0689A3A1
:103ED000809135068AA3809136068BA3CE01019688
:103EE0007C0110E000E0F701D1907F01C8010E9441
:103EF0007B33D81621F06D2DC8010E9483330F5FEC
:103F00001F4F0332110579F7A3960FB6F894DEBF61
:103F10000FBECDBFDF91CF911F910F91FF90EF901A
:103F2000DF900895CF93DF93F894D0E0C0E060E095
:103F3000CE010E9483332196C11584E0D807B9F7DA
:103F40000E944A1F0E945C1EC0E0C0932D068C2F69
:103F50000E94CE1DCF5FCA30C1F780912D068B30F5
:103F600018F48AE00E94CE1D7894DF91CF910895D5
:103F70000F931F93CF93DF938C01EB01FC018081A2
:103F800091810097E1F06881798161157105A9F04F
:103F9000428153812C813D814217530770F00E946A
:103FA00011378C819D81F801958384831D821C8249
:103FB000DF91CF911F910F9108950E94B2358881B2
:103FC0009981F801918380838A819B819383828385
:103FD0008C819D8195838483198218821B821A8229
:103FE000E5CFCF93DF93EC0188819981009711F0A1
:103FF0000E94B235198218821D821C821B821A828D
:10400000DF91CF910895FC0180819181009711F09B
:104010000C94B23508950F931F93CF93DF93EC0167
:1040200088819981009759F02A813B8126173707AB
:1040300030F081E0DF91CF911F910F9108958B01B6
:104040006F5F7F4F0E943B36009759F099838883BA
:104050001B830A832C813D81232B59F7FC0110829D
:10406000E8CF80E0E7CFEF92FF920F931F93CF93BB
:10407000DF936115710541F480E0DF91CF911F91CD
:104080000F91FF90EF90089541155105B1F07B011C
:10409000EC010C811D81040F151FB8010E940B203B
:1040A000882351F3288139818C819D81B701820F4A
:1040B000931F0E9411371D830C8381E0DECFEF92A6
:1040C000FF920F931F93CF93DF93EC018B01CB01F2
:1040D0000E9419327C01BC01CE010E940B2081118B
:1040E0000BC0CE010E94F11FCE01DF91CF911F9135
:1040F0000F91FF90EF900895FD82EC82B8018881C6
:1041000099810E941232F0CFFC0111821082138239
:104110001282158214820C945F20EF92FF920F930B
:104120001F93CF93DF93EC017B018A01BA010E94B8
:104130000B2081110BC0CE010E94F11FCE01DF9137
:10414000CF911F910F91FF90EF9008951D830C83E5
:10415000B701888199810E941137F0CFFB0101904E
:104160000020E9F73197AF01461B570B0C948D20C7
:104170000F931F93CF93DF93CDB7DEB762970FB640
:10418000F894DEBF0FBECDBF8C01CB01F8011182C8
:10419000108213821282158214824AE0BE016F5F80
:1041A0007F4F0E942232BE016F5F7F4FC8010E9485
:1041B000AE2062960FB6F894DEBF0FBECDBFDF9182
:1041C000CF911F910F9108950F931F93CF93DF937A
:1041D000CDB7DEB729970FB6F894DEBF0FBECDBFBF
:1041E0008C01862FF80111821082138212821582AF
:1041F00014824AE0BE016F5F7F4F90E00E942D3233
:10420000BE016F5F7F4FC8010E94AE2029960FB696
:10421000F894DEBF0FBECDBFDF91CF911F910F91FC
:104220000895FB01DC0111961C921E9213961C92BC
:104230001E92129715961C921E9214978617970736
:1042400049F0608171816115710521F044815581CA
:104250000C948D200895FC01118210821382128229
:1042600015821482FB0101900020E9F73197AF011C
:10427000461B570B0C948D2085ED8093BC008091DC
:104280005C0290915D02A0915E02B0915F02079680
:10429000A11DB11D23E0B695A795979587952A9501
:1042A000D1F72091BC0024FD03C01092A90208950B
:1042B00040915C0250915D0260915E0270915F02DC
:1042C000452B462B472B69F30097A105B10541F01B
:1042D0002AE22A95F1F700C00197A109B109E1CFBF
:1042E00080915B020C945B07FC01A081B181509628
:1042F0002C9182AD38E0839FC0011124289FA0013A
:10430000299F500D112470E060E080AD91AD0C94B8
:1043100001371F93CF93DF93EC010E9405121BAD71
:104320008AAD180FE881F9818189181768F0EC814E
:10433000FD8130E020E040E060E1CE01099580E0C1
:10434000DF91CF911F910895FE01E557FF4F8081C6
:10435000882319F0CE010E947421612FCE010E94A2
:10436000F21181E0EDCFCF93DF93EC01FC01E55733
:10437000FF4F8081882319F0CE010E94742160E0F4
:10438000CE01DF91CF910C94F2110F931F93CF9335
:10439000DF9300D000D000D0CDB7DEB78AE994E03B
:1043A0000E94B32104E314E068E670E0CE010196B8
:1043B0000E9484208DEC92E00E94E60E10939D04F2
:1043C00000939C048BE891E00E94091010939D04D7
:1043D00000939C0497FD0196959587954BE851E0D5
:1043E00066E170E004960E94A91110939D04009369
:1043F0009C048FE791E00E94091010939D040093A4
:104400009C0497FD0196959587954FE751E060E2F2
:1044100070E040960E94A91189819A8110939D04B1
:1044200000939C040E94091049815A8110939D04B5
:1044300000939C0497FD0196959587956CE270E03A
:104440004A960E94A911CE0101960E9403208AE992
:1044500094E00E9489218111A7CF26960FB6F89487
:10446000DEBF0FBECDBFDF91CF911F910F91089599
:10447000CF9380913406882309F475C080912B0670
:10448000811162C080912906853009F076C081E0F3
:1044900090912A06913009F080E080933506809350
:1044A0006A0580912906873069F480912A068A304E
:1044B00048F480932D06F89480912D068B3008F4F3
:1044C00072C0789480912906883021F5C0912A061F
:1044D000CA3060F5C0932D06F8948C2F0E94E11E1F
:1044E000C0932D0681E08093C20578940E948A16BD
:1044F0002091C7053091C8058217930719F0C901AB
:104500000E9466168091D1039091D203892B11F4F9
:104510000E946E1680912906893041F480912A0606
:10452000811104C00E945C1E0E946E1680912906B3
:104530008A3051F480912A06811106C00E94C5215B
:104540000E94921F0E946E1681E08093C2050E9415
:1045500042066093C3057093C4058093C50590938C
:10456000C60510922A068091340691E0892780932F
:10457000340690933706CF910895863009F091CF95
:1045800041E080912A06813009F040E040933606F0
:10459000E0919E04F0919F0430E020E06DE08AE914
:1045A00094E009957ECF0E94CE1D0E944A1F109272
:1045B000C20587CF1F920F920FB60F9211242F932F
:1045C0003F938F939F93AF93BF938091D20290912B
:1045D000D302A091D402B091D5023091D10223E050
:1045E000230F2D3758F50196A11DB11D2093D1023F
:1045F0008093D2029093D302A093D402B093D502B9
:104600008091D6029091D702A091D802B091D902A0
:104610000196A11DB11D8093D6029093D702A0935D
:10462000D802B093D902BF91AF919F918F913F91E2
:104630002F910F900FBE0F901F90189526E8230F13
:104640000296A11DB11DD2CF1F920F920FB60F92ED
:1046500011242F933F934F935F936F937F938F9387
:104660009F93AF93BF93EF93FF93E0910201F0917B
:1046700003010995FF91EF91BF91AF919F918F91A8
:104680007F916F915F914F913F912F910F900FBE4E
:104690000F901F9018951F920F920FB60F92112432
:1046A0002F933F934F935F936F937F938F939F933A
:1046B000AF93BF93EF93FF93E0910001F09101015D
:1046C0000995FF91EF91BF91AF919F918F917F914C
:1046D0006F915F914F913F912F910F900FBE0F906F
:1046E0001F9018951F920F920FB60F9211242F93BF
:1046F0003F934F935F936F937F938F939F93AF936A
:10470000BF93EF93FF938091B900887F803609F4BF
:104710004AC0F0F5883209F4A7C018F5803109F4D1
:104720009BC0B8F4882309F4F9C0883009F494C018
:10473000FF91EF91BF91AF919F918F917F916F9179
:104740005F914F913F912F910F900FBE0F901F904F
:104750001895883109F488C0803251F78093A802F7
:1047600014C0803409F49DC040F48033B9F3883319
:10477000F9F68093A80285ECB0C0803509F485C0B5
:10478000883509F496C0883499F60E943C21D0CF30
:10479000883909F48CC038F5883729F050F4883608
:1047A00011F0803729F683E08093A9021092A702C6
:1047B00057C0883809F47BC0803919F0803809F077
:1047C000B7CF8091A702803208F071C0E091A702B4
:1047D00081E08E0F8093A7028091BB00F0E0E95743
:1047E000FD4F80833DC0803B39F0E0F4803A09F40E
:1047F00079C0883A09F09CCF84E08093A902109296
:10480000840210928302E0918102F0918202099564
:104810008091830281110FC081E080938302109206
:10482000610209C0803C09F4A6CF883C09F4A3CFFB
:10483000883B09F07DCFE091840281E08E0F809368
:104840008402F0E0EF59FD4F80818093BB0090918E
:1048500084028091830229C08091CE028093BB00A4
:1048600085EC8093BC0064CF9091CD028091CC0206
:10487000981758F5E091CD0281E08E0F8093CD021C
:10488000F0E0E455FD4F8081E9CFE091CD0281E079
:104890008E0F8093CD028091BB00F0E0E455FD4F78
:1048A00080839091CD028091CC029817C8F285E860
:1048B000D8CFE091CD0281E08E0F8093CD02809120
:1048C000BB00F0E0E455FD4F80838091AB02811185
:1048D0005CCF81E08093AA0284EA8093BC001092AE
:1048E000A90226CF85EC8093BC001092A90280918A
:1048F000A702803230F4E091A702F0E0E957FD4FC3
:1049000010826091A70270E0E0918502F09186022A
:1049100087E892E009951092A7020ACF1092A802A8
:1049200034CF1F920F920FB60F9211242F933F9303
:104930004F935F936F937F938F939F93AF93BF93A7
:10494000EF93FF9382E393E00E945508FF91EF916C
:10495000BF91AF919F918F917F916F915F914F9197
:104960003F912F910F900FBE0F901F9018951F929F
:104970000F920FB60F9211242F933F934F935F9393
:104980006F937F938F939F93AF93BF93EF93FF9317
:10499000CF93DF931F92CDB7DEB781E08983E0919B
:1049A000CF03F091D003309761F0A0914203B09112
:1049B00043036C91A0914803B09149038C910995F0
:1049C000898389818823E1F0E0914203F0914303D8
:1049D0008081E0914803F091490382FD25C09081D8
:1049E00080914B038F5F8F7320914C03821741F0AE
:1049F000E0914B03F0E0EE5CFC4F958F80934B030E
:104A00000F90DF91CF91FF91EF91BF91AF919F9167
:104A10008F917F916F915F914F913F912F910F9067
:104A20000FBE0F901F9018958081EACF1F920F92B2
:104A30000FB60F9211248F929F92AF92BF92CF9296
:104A4000DF92EF92FF920F931F932F933F934F9319
:104A50005F936F937F938F939F93AF93BF93EF93E6
:104A6000FF930E944206609310027093110280939C
:104A70001202909313028091D1039091D203029776
:104A800009F072C1C090E803D090E9038091E70378
:104A90008C151D0411F41092E7038091E703811136
:104AA00006C180910D0490910E04019709F0ECC0AD
:104AB0004091E3035091E4036091E5037091E603B4
:104AC0008091F5039091F603A091F703B091F8035C
:104AD000481759076A077B0780F08091F50390918A
:104AE000F603A091F703B091F8030196A11DB11D43
:104AF00084179507A607B70720F52091F503309195
:104B0000F6034091F7035091F8032093E3033093A9
:104B1000E4034093E5035093E603F12CE12CC70135
:104B2000B6010E94D8346093DF037093E003809352
:104B3000E1039093E203A70196010E94FA33609388
:104B4000E703C090F903D090FA03E090FB03F090E4
:104B5000FC030E94EA050091F1031091F2032091F9
:104B6000F3033091F403601771078207930708F489
:104B700016C1601B710B820B930B60930104709341
:104B8000020480930304909304040091F5031091B0
:104B9000F6032091F7033091F8038090E30390909F
:104BA000E403A090E503B090E603081519052A0573
:104BB0003B0508F4FDC044E0660F771F881F991F6E
:104BC0004A95D1F7672F782F892F9927C61AD70AC8
:104BD000E80AF90AA091DD03B091DE03A70196016E
:104BE0000E94BB330E945C329B01AC0160EC71EE11
:104BF00084E69CE40E942B346B017C0120E030E0D1
:104C000040E85FE30E94573287FDF0C020E030E0CB
:104C100048EC53E4C701B6010E94D334181634F4AB
:104C2000C12CD12C98ECE92E93E4F92EA701960122
:104C30006091050470910604809107049091080426
:104C40000E945732882301F1C0920504D0920604D5
:104C5000E0920704F09208046091DB037091DC039A
:104C600090E080E00E945C329B01AC0160EC71EE50
:104C700084E69CE40E942B34A70196010E942B3409
:104C80000E94A4340E940D148091E3039091E403E8
:104C9000A091E503B091E6030196A11DB11D80939B
:104CA000E3039093E403A093E503B093E6038091BC
:104CB000E7038F5F8093E703E091D503F091D6037C
:104CC000309781F12091EA038091EB039091EC03FE
:104CD0002817190611F41092EA038091EA03811152
:104CE0001CC06091ED037091EE038091EF039091F1
:104CF000F00309958091ED039091EE03A091EF03ED
:104D0000B091F0030196A11DB11D8093ED03909326
:104D1000EE03A093EF03B093F0038091EA038F5F5B
:104D20008093EA03E091D303F091D4033097E1F04C
:104D30006091DF037091E0038091E1039091E203C1
:104D400009958091DF039091E003A091E103B09178
:104D5000E2030196A11DB11D8093DF039093E00350
:104D6000A093E103B093E203FF91EF91BF91AF9164
:104D70009F918F917F916F915F914F913F912F9173
:104D80001F910F91FF90EF90DF90CF90BF90AF9069
:104D90009F908F900F900FBE0F901F9018950095C9
:104DA000109520953095600F711F821F931FE5CEDF
:104DB0006C157D058E059F0508F00CCFA7019601A7
:104DC000261B370B480B590BDA01C90124E0880F69
:104DD000991FAA1FBB1F2A95D1F7892F9A2FAB2F96
:104DE000BB27C80ED91EEA1EFB1EF4CEC12CD12C47
:104DF00080E8E82E8FE3F82E19CF1F920F920FB69E
:104E00000F9211240F931F932F933F934F935F9310
:104E10006F937F938F939F93AF93BF93CF93DF93C2
:104E2000EF93FF93C0911404D0911504209709F4D7
:104E30005BC08C850E945705182F8E850E945705F0
:104E4000880F991F812B9A89891709F44DC0EA8927
:104E50000B891C892D893E8994E0E902F001112417
:104E6000482F082E000C550BE42BF52BE65FFE4F68
:104E70009081492F990F550B660B770B400F511FEF
:104E8000621F731F4B8B5C8B6D8B7E8B8A8B28898B
:104E900039892230310531F123303105D1F121300A
:104EA000310511F5833001F58B899C89AD89BE8967
:104EB00032E0B595A795979587953A95D1F78F8B61
:104EC000988FA98FBA8F8F8D98A1A9A1BAA18BA312
:104ED0009CA3ADA3BEA30E9442066F8F78A389A3B3
:104EE0009AA302C0882301F3FF91EF91DF91CF9144
:104EF000BF91AF919F918F917F916F915F914F91F2
:104F00003F912F911F910F910F900FBE0F901F9007
:104F10001895882311F0833039F78B899C89AD89E6
:104F2000BE89B595A79597958795C9CF1F920F9282
:104F30000FB60F9211242F933F934F935F936F936C
:104F40007F938F939F93AF93BF93EF93FF930E94B1
:104F5000FD26FF91EF91BF91AF919F918F917F912E
:104F60006F915F914F913F912F910F900FBE0F90D6
:104F70001F901895CF93DF93109229031092280366
:104F800088EE93E0A0E0B0E080932A0390932B0397
:104F9000A0932C03B0932D032DE931E03093270328
:104FA0002093260310923503109234038093360326
:104FB00090933703A0933803B09339038FEA91E0BD
:104FC000909333038093320385EC90E090933F03FA
:104FD00080933E0384EC90E09093410380934003E0
:104FE00080EC90E0909343038093420381EC90E047
:104FF000909345038093440382EC90E090934703A1
:105000008093460386EC90E0909349038093480395
:1050100010924B0310924C0310924D0310924E03CA
:105020001092D0031092CF0380E690E09093DC03BF
:105030008093DB03C8E1D0E0D093DE03C093DD03AF
:105040001092100410920F0480E090E0A0EFB2E400
:105050008093050490930604A0930704B09308047A
:105060001092090410920A0410920B0410920C047E
:105070001092FD031092FE031092FF0310920004A1
:10508000109201041092020410920304109204047E
:105090001092D2031092D10310920E0410920D04BC
:1050A0000E94B0041092D4031092D3031092D6033E
:1050B0001092D5031092D8031092D7031092DA03FE
:1050C0001092D9032091DB033091DC036091DD0362
:1050D0007091DE03C9010E94E8347093E903609384
:1050E000E803C901BE010E94E8347093EC036093A9
:1050F000EB03109299041092980484E394E0909347
:1051000027058093260510922905109228051092F4
:105110002B0510922A051092B20481EC91E0909335
:1051200097048093960410929B0410929A04109214
:10513000AF041092A6041092A7041092A804109233
:10514000A9048FEF8093B0048093B404E8EBF4E0FB
:105150008EEC94E0DFEFD1938E179F07E1F782E6A4
:1051600099E090939F0480939E0487E59AE0909342
:10517000A1048093A00481E692E19093A30480931C
:10518000A20482EA93E19093A5048093A40430E002
:1051900020E040E069E08AE994E00E946209109210
:1051A000F5041092F4048EE394E09093CF0480937E
:1051B000CE0486E194E09093D3048093D204C1E0BE
:1051C000C093D4041092D5041092030510922305C5
:1051D00010921F05C0932405C093250589EC91E02A
:1051E0009093D1048093D0048AE994E00E94F20A5B
:1051F0001092ED041092EC041092F1041092F0045D
:105200008FEF9FEF9093EF048093EE049093F3045D
:105210008093F204E091D004F091D1040280F381F4
:10522000E02D8AE994E009958DEA94E09093F704E3
:105230008093F6041092060583E18093C30482E113
:105240008093C404D093C50410922D0510922C05B0
:1052500010926A0581E190E090936C0580936B0554
:1052600084E090E090936E0580936D0581E090E07E
:105270009093700580936F0562E081E10E94AE0516
:1052800062E084E00E94AE0580916B050E945705A4
:10529000D82F80916D050E945705880F991F8D2B7F
:1052A0008093710510927205109273051092740527
:1052B0001092750510927605109277051092780578
:1052C0001092790510927A0510927B0510927C0558
:1052D00010927D05C093870510928D0510928C0564
:1052E0006EE086E895E00E9477158FE595E0909353
:1052F000150480931404C09393051092990510929D
:105300009805C0939F051092A5051092A4051092D0
:10531000B0051092AF052AEC3DEF3093B205209313
:10532000B10580E092E09093B4058093B3051092AC
:10533000B5051092BC051092BB053093BE052093B5
:10534000BD059093C0058093BF051092C10587EC01
:1053500095E00E94B91A1092C2051092C3051092EE
:10536000C4051092C5051092C605DF91CF9108952E
:10537000CF93DF93CDB7DEB7C756D1090FB6F894F8
:10538000DEBF0FBECDBF789484B5826084BD84B586
:10539000816084BD85B5826085BD85B5816085BD30
:1053A00080916E00816080936E00109281008091E8
:1053B0008100826080938100809181008160809370
:1053C0008100809180008160809380008091B10095
:1053D00084608093B1008091B00081608093B000C0
:1053E00080917A00846080937A0080917A00826054
:1053F00080937A0080917A00816080937A00809116
:105400007A00806880937A001092C100E091420394
:10541000F091430382E08083E0913E03F0913F03EB
:105420001082E0914003F09141038FE3808310925A
:105430004A03E0914603F091470386E08083E091C0
:105440004403F0914503808180618083E0914403AF
:10545000F0914503808188608083E0914403F0915E
:105460004503808180688083E0914403F091450387
:1054700080818F7D808380910F0490911004892B0F
:1054800059F481E08093110484E090E00E94163585
:105490009093100480930F04F8941092800010925F
:1054A0008100109285001092840081EC92EA909322
:1054B00089008093880080918100886080938100BA
:1054C0008091810082608093810080916F00826072
:1054D00080936F0078946091050470910604809128
:1054E0000704909108040E94B81410920E041092C0
:1054F0000D04F89480E690E09093DC038093DB0346
:105500006091DD037091DE030E94E8347093E9033B
:105510006093E80384E090E09093EC038093EB03C6
:10552000789460E070E080EF92E40E94B81481E625
:105530009DE19093D8038093D7038CE59DE19093F0
:10554000DA038093D90382E095E19093D6038093A8
:10555000D5030E944E066CE082E995E00E94771523
:1055600065E08EE995E00E94771560E085E10E9494
:10557000AE0585E18093AA0560E084E10E94AE0556
:1055800084E18093B605809168008660809368000E
:1055900080916D00806180936D0080916C008860C7
:1055A00080936C0061E087E00E94AE0587E0809305
:1055B000330515E01093320561E088E00E94AE05E6
:1055C00088E080933A051093390561E08AE00E94F3
:1055D000AE058AE0809341051093400561E086E0C6
:1055E0000E94AE0586E0809348051093470561E070
:1055F00089E00E94AE0589E080934F0510934E0527
:1056000061E08BE00E94AE058BE08093560510931D
:10561000550561E083E00E94AE0583E080935D055F
:1056200010935C05E0919E04F0919F0430E020E02F
:1056300040E06AE08AE994E009958AE994E00E94F2
:10564000B3218AE994E00E9489218111FACF60E0B8
:105650008AE994E00E94F211E0919E04F0919F0487
:1056600030E020E040E06BE08AE994E009950E9498
:10567000C52160ED77E080E090E00E940F06F8948D
:10568000CE0101960E94401E6BE871E0CE010196AA
:105690000E9408378C016FE771E0CE0141960E94AD
:1056A0000837012B09F007C1892B09F004C1CE018D
:1056B00001960E94401E89A180932D068AA18093A5
:1056C00035068BA1809336068AE00E94E11E78940D
:1056D0000E946E1685E59CE19093D4038093D303DA
:1056E0008CE897E19093D0028093CF0290930101D0
:1056F0008093000180916900836080936900E89A3B
:1057000088E392E29093600580935F0589E59BE1D1
:10571000909364058093630589E397E19093620514
:105720008093610587E597E19093A7058093A6058F
:10573000A5961FAE1EAEA59782E995E00E940715BB
:105740008EE995E00E940715009176051091770586
:1057500020917805309179058091670590916805D1
:105760008017910709F4B3C040917E0550917F05E1
:105770006091800570918105C0908205D09083056D
:10578000E0908405F09085054C195D096E097F094C
:10579000F801E81BF90BCF01F0936605E09365056E
:1057A0001093680500936705403151056105710547
:1057B00008F084C09F01220F331F820F931F909324
:1057C00066058093650580916A05882359F080916C
:1057D000650590916605919581959109909366056F
:1057E0008093650500916505109166058091860599
:1057F0000E9457057C0186E895E00E940715EF2876
:1058000009F068C0012B09F46CC081E08093690540
:10581000E0916105F0916205309729F0809165056E
:1058200090916605099580918C0590918D05029760
:1058300029F4809169058111109269058AEA95E041
:105840000E948B1586EB95E00E948B150EE215E009
:10585000A5968EAD9FADA59706970CF056C0F801A2
:1058600086818823E1F00E944206F801C080D18041
:10587000E280F380AB01BC014C195D096E097F0920
:10588000848190E0B0E0A0E0481759076A077B07E1
:1058900030F060E085810E948005F8011682A596AF
:1058A0008EAD9FADA5970196A5969FAF8EAFA5979C
:1058B000095F1F4FCDCF0E94921F09CF4032510583
:1058C0006105710508F07FCF880F991F78CF10E030
:1058D00000E08CCF012B29F0E0916305F091640585
:1058E0009BCF80918C0590918D05029709F0A6CFF2
:1058F0008091690581119DCFE0915F05F091600570
:10590000309709F496CF09958ECF4090AB05509013
:10591000AC058090B7059090B80577ECC72E75E080
:10592000D72EF6018681811104C08781882309F46E
:1059300063C05601F2E0AF0EB11C6CE0E62EF12C14
:1059400004EF1FEF9401A20161E0C5010E94E0197C
:10595000F6012281820F911D97FDEBC085369105DE
:1059600014F084E690E0F601858350E2E52EF12CF8
:1059700010E000E09401A20162E0C5010E94E0197C
:105980003601F8E06F0E711CF6012381820F911D24
:10599000181619060CF0CFC08132910514F080E280
:1059A00090E0F60180879185891708F4982FF60119
:1059B0009187C3010E946E1AF6012084312C710177
:1059C00010E000E09401A20163E0C5010E94E0192B
:1059D000F6012481820F911D181619060CF0ADC036
:1059E000821593050CF41C01F6012186C3010E9467
:1059F0006E1AC5010E94CA19F0E1CF0ED11C27E230
:105A0000C21626E0D20609F08CCF809132069FEFB5
:105A1000980F9230B8F4EAEAF5E0813011F0E6EB45
:105A2000F5E081819281181619060CF089C08091E9
:105A3000D1039091D203892B29F40E944E0681E074
:105A40008093370680913306813009F088C08091B9
:105A5000AB059091AC051816190644F48091AD057C
:105A60009091AE05892B11F40E94B0048091C2057B
:105A7000882301F10E9442060091C3051091C405DC
:105A80002091C5053091C605601B710B820B930BED
:105A9000613D77408105910568F0F89480912D066D
:105AA0008B3018F48AE00E94CE1D0E944A1F10928B
:105AB000C205789480913706882309F490C4109227
:105AC00037068AE994E00E94B32100912B06011168
:105AD000DBC2F1E0F093030582E00E9423058DEC28
