:100000000C9405040C946D240C9446240C942D043B
:100010000C94B8280C941F280C942D040C942D04D7
:100020000C942D040C942D040C942D040C9438265F
:100030000C942D040C942D040C942D040C942D047C
:100040000C94FC230C942D040C94D9250C94B3250A
:100050000C942D040C942D040C942D040C942D045C
:100060000C9494240C942D0400300018000C00090A
:10007000000680042004C00360030003A0024002C5
:10008000E00180012001C000600030002000180065
:1000900010000C00080006000400455241534500C2
:1000A0005245534554004C4F41440053415645007E
:1000B000454E434F444552204449520050554C53FD
:1000C00045204F555400534F555243450054454D1C
:1000D000504F004241434B20544F204D41494E0068
:1000E0007800464143544F525920524553455400DD
:1000F00044454C004241434B20544F204D41494E12
:10010000007800524553455420414C4C0052535402
:10011000004C4F41442046524F4D20534C4F540009
:100120005341564520544F20534C4F5400424143B5
:100130004B20544F204D41494E00780052455645C2
:10014000525345440044454641554C54004449529D
:100150000031205050514E2050554C534500342012
:100160005050514E2050554C534500323420505081
:10017000514E2050554C53450050554C5345204F3F
:100180004646004F5554004D4944490034205050D4
:10019000514E003234205050514E00434C4F434B8F
:1001A00000494E54004558540042504D00455854A3
:1001B00000800040002000180010000C000B000A16
:1001C0000009000800070006000500040003000203
:1001D000000100FEFFFDFFFCFFFAFFF8FFF4FFF057
:1001E000FFE8FF435632204D4F4400435631204D27
:1001F0004F44004555434C49442048495453004519
:1002000055434C4944205354455053005357494E8D
:1002100047004F46465345540044555459005052E8
:100220004F424142494C495459004D4F44004555B5
:10023000434C49442048495453004555434C494494
:10024000205354455053005357494E47004F46469C
:100250005345540044555459204359434C4500508C
:10026000524F424142494C49545900434C4F434B31
:10027000204D4F44004E4F4E4500435632004356EA
:10028000310025004F46460053484946542048490E
:100290005400250050554C534520574944544800BC
:1002A0002500484954204348414E43450025004D10
:1002B000554C5449504C59007800444956494445DE
:1002C000002F0034000202030302030405050000AE
:1002D000050005000091000001982004805C2509BC
:1002E000AD745452B952492806AADC54192907AAF8
:1002F0005C624A0A2B079BE5D24A002C0591540404
:100300002D058B66062E058954022F06A4EC631B6F
:100310003008ACEC543493023107EBEC92AC06326B
:1003200009AC6C364A2A8F003309AC6C364A1A8DF8
:10033000043408AC6CA21CBA003509AC6C86DE68CB
:1003400024003609ACEC545E3129003708AC6C4609
:100350008E75043809ACEC544C2A26053909ACECEE
:10036000544C3B29003A06995552004108ACEC54D4
:100370001C53064209AC6C561C298E044309ACEC94
:1003800054D43129004408AC6C563447024508ACBB
:100390006C861E7A044608AC6C865E39034709AC4D
:1003A000EC544E3329004808AC6CA21C5306490695
:1003B000A95486004A08ACEC6B9914004B09AC6C4C
:1003C000A24A3295014C07AC6C727B044D09AD74A6
:1003D000F25A49EB004E09AD74F25449EE004F0851
:1003E000ACEC543493025009AC6C561C2967005194
:1003F00008ACEC54B4620A5208AC6C561CA91953F0
:1004000009ACEC46461A8D045407AB64566C015592
:1004100008AC6CA23329005609AD74B24E65CA11FE
:10042000570AAD74B24A2AA92E005809AC6CA24CE6
:100430002ACA00590AAD7472AA33CA28025A07ABF5
:1004400064662A077008ADF456B6D3027107ADF49E
:100450008EAF057208AB64A21A2A027406AD74FE50
:10046000237709ADF456A5464E0B78069B645207D8
:1004700000000004FFFF0000000000003C007C00C2
:10048000FC00FC03FC0FFC0FFC03FC007C003C00A8
:100490000000000000000000380E380E380E380E44
:1004A000380E380E380E380E380E380E380E000062
:1004B00000000000240027002A00000000002500A2
:1004C00028002B000000000023002600290004045F
:1004D00004040404040402020202020203030303EC
:1004E00003030102040810204080010204081020C8
:1004F00001020408102000000008000201000003AF
:10050000040700000000000000001D0004040405B2
:100510000301061018000017000000013F00000250
:10052000E125270F3B96B1A5464C34428C18129317
:100530009029426A08519A8C225286C8881164C454
:10054000181A61ACC4B821002F0CBABABDC948D181
:1005500067E3C601301F7CFB1D434A54103A6657BF
:1005600087D0883022C4841844A78CD9EC10092580
:100570008ACC0031147ABDA561A40A993933628C02
:100580009071F3FF284506321B7CFB1D5368541005
:100590003A666CE40C8999C1C65439822367F9E044
:1005A0008101331C7CFB1D536854103A666CE44097
:1005B00072B4B392E42C8D1D22A10695190034204B
:1005C0007CFB2D2183868C213284CC904123088DA5
:1005D000183562D48851C6ECEC018B95F301351ABD
:1005E0007CFB0D155B8C9C2F082959316AE8C85992
:1005F0001A3B44420D2A3300361B7D1B9E5369561D
:100600000C3B67745E9859C282D439BB3B45624D3E
:10061000AA330037137CFB85150F52CE87E4E870B0
:10062000CA8123E71D0038207CFB1D536854103A13
:1006300066D9211244C8203A8586080942C7ECECE5
:10064000100935A8CC00391A7CFB1D536854103AA8
:10065000666787482C519372BE1844420D2A3300B6
:1006600041167D1BA672A7D250326AC8A811E3ECCE
:10067000DD83EFEC770342247D1B86446A968C224F
:10068000316CC4B011C3460C1B318AC4924D4691E3
:100690001876CE9E3D08C162090043177D1B9E530C
:1006A000699610426674FE4F898D2044628D222423
:1006B00000441B7D1B86446A968C1A326CC4B011B0
:1006C000E3EC7F766CC428124BD4240245127CFBE9
:1006D000850F52CE4B44188D9C5F3E7860004610CB
:1006E0007CFB850F52CE9769B21939FF120049077A
:1006F00073DB843F484C0D7BDB8581F3FF3F7CF04F
:1007000060004E247D1B0681E6CC1D3B860A55A267
:100710004426C69818636488912166469819612812
:100720002BCCAE3337004F167D1B9E5369968C1A27
:1007300031CEFEBF1B316AC89A54670052318E3BDE
:1007400006456B980C23316EC4B811E3468C1B31FF
:100750006EC43012A3883051946AC8B031A3C61059
:100760009AD59851448691183762DCC10153228E84
:100770003B9E6389969022316EC4B81163C7529A2A
:100780002C5BB283C78E35680E151126ABD0005492
:100790000D7D1B860F520D9DFFFF150055117CFB33
:1007A0008561F6FF9F8D1834440D2A330056167F5D
:1007B000F98591F6FFCB11E3869022431509722744
:1007C000CB0E0358297E3B8681068F911836841004
:1007D0001922A4860C4367D024519206CD211B32E6
:1007E0008A08194244868D2076D0C2017814CABA8C
:1007F0008541868E9040638A941924530CB2680018
:1008000000000004FFFF0000DC2811241FBECFEF12
:10081000D8E0DEBFCDBF12E0A0E0B1E0E8E7F4E74A
:1008200002C005900D92AC31B107D9F726E0ACE1DA
:10083000B2E001C01D92A63EB207E1F714E0C5E0A8
:10084000D4E004C02197FE010E941E38C430D107B5
:10085000C9F70E942D2B0C943A3A0C9400006623A1
:1008600029F06A3019F0862F90E008958FEF9FEFFE
:100870000895AF92BF92CF92DF92EF92FF920F93C3
:10088000CF93DF93EC01DA017901942F9770E1E0C7
:10089000F0E09F01092E01C0220F0A94EAF7522FBF
:1008A0006E018AE8C80ED11CF601808140E08230DA
:1008B00018F4422F813049F15D01F8EFAF22E8AD25
:1008C000F9AD28813981D90150968C918A9D90018A
:1008D0008B9D300D1124620F731FDF01A60FB71F10
:1008E00001111AC0EA0EFB1E8C91842B85278D9373
:1008F000AE15BF05C9F7DF91CF910F91FF90EF9033
:10090000DF90CF90BF90AF90089550E0D5CF440FC7
:10091000550FE114F10479F33C91342B35273C93C6
:100920009F5F9770E1E0EE1AF1089111F0CF2CADC6
:100930003DADA20FB31FF6018081823028F48130D3
:1009400009F051E041E0E5CF51E0E3CF80E00895C8
:1009500090E080E0089510923D0410923E041092C1
:100960003F041092400410924104109242041092ED
:1009700043041092440410924504109248041092CB
:100980004B0410924C0410924D0410924E0410929D
:10099000530410925404109255041092560410926D
:1009A0004F0410925004109251041092520410926D
:1009B00071041092700420916D0430916E0480E0F7
:1009C00090916F04891760F494E0899FF0011124DD
:1009D000E20FF31F10821182128213828F5FF0CF19
:1009E00008951092300410922F0410926704109210
:1009F00068041092690410926A040E94AB04E091AA
:100A00003704F0913804309709F009940895BC0137
:100A1000F894EFE2F4E09587848722853385C90155
:100A20000E940A38708F678BC90168E170E00E94EC
:100A30000A38738F628F78940895089580938205A1
:100A400008959B01DC011896ED91FC9141E067E16E
:100A50000994833081F028F4813099F08230A9F034
:100A600008958730A9F08830C9F08430B1F48091BE
:100A700080008F7D03C0809180008F7780938000FD
:100A8000089584B58F7784BD089584B58F7DFBCF9D
:100A90008091B0008F778093B00008958091B0006E
:100AA0008F7DF9CFCF93DF93282F30E0F901EA5003
:100AB000FB4F8491F901EE51FB4FD491F901E253C0
:100AC000FB4FC491CC23A1F081110E942905EC2F8A
:100AD000F0E0EE0FFF1FEC53FB4FA591B491EC91AA
:100AE000ED2381E090E009F480E0DF91CF9108955B
:100AF00080E090E0FACF1F93CF93DF93282F30E070
:100B0000F901EA50FB4F8491F901EE51FB4FD4916A
:100B1000F901E253FB4FC491CC23A9F0162F8111A8
:100B20000E942905EC2FF0E0EE0FFF1FE654FB4F6B
:100B3000A591B4918FB7F894EC91111108C0D0959C
:100B4000DE23DC938FBFDF91CF911F910895DE2BC1
:100B5000F8CFCF93DF9390E0FC01EE51FB4F24914F
:100B600082539B4FFC0184918823C9F090E0880F49
:100B7000991FFC01E055FB4FA591B491FC01E6548F
:100B8000FB4FC591D49161110DC09FB7F8948C9122
:100B9000209582238C938881282328839FBFDF910F
:100BA000CF910895623051F49FB7F8943C91822F11
:100BB000809583238C93E8812E2BEFCF8FB7F89409
:100BC000EC912E2B2C938FBFEACF3FB7F8948091F6
:100BD000060390910703A0910803B091090326B57D
:100BE000A89B05C02F3F19F00196A11DB11D3FBF65
:100BF000BA2FA92F982F8827BC01CD01620F711D34
:100C0000811D911D42E0660F771F881F991F4A952D
:100C1000D1F708958F929F92AF92BF92CF92DF92B9
:100C2000EF92FF926B017C010E94E5054B015C0194
:100C3000C114D104E104F104B9F00E94E50568197A
:100C400079098A099B09683E73408105910580F303
:100C500021E0C21AD108E108F10888EE880E83E08D
:100C6000981EA11CB11CE4CFFF90EF90DF90CF90B5
:100C7000BF90AF909F908F9008952FB7F894609198
:100C800002037091030380910403909105032FBF29
:100C900008950E94AB040E943D0660936704709320
:100CA00068048093690490936A04E0913504F0919C
:100CB0003604309709F0099580916B0490916C048B
:100CC000892B39F482E090E09093300480932F04D4
:100CD000089581E090E0F8CF0F931F93CF93DF93B7
:100CE000EC0100912F04109130040E94F1048091D6
:100CF0008A0590918B05039749F48FB7F8942DE1FD
:100D000035E030932E0420932D048FBFD0938B05B4
:100D1000C0938A05C130D10599F068F0C230D10581
:100D2000C1F02397F9F0012B89F1DF91CF911F9149
:100D30000F910C94490610926C0410926B04F3CF3F
:100D4000D0936C04C0936B0488E190E00E94070587
:100D5000EACF81E090E090936C0480936B0484E090
:100D600090E0F4CF81E090E090936C0480936B046A
:100D700088E190E00E9407058FB7F89421E23DE1F9
:100D800030932E0420932D048FBFCDCFDF91CF91D0
:100D90001F910F91089508950895AF92BF92CF9239
:100DA000DF92EF92FF920F931F93CF93DF936C012B
:100DB0007B018B01040F151FEB015E01AE18BF080C
:100DC000C017D10759F06991D601ED91FC910190BE
:100DD000F081E02DC6010995892B79F7C501DF91D6
:100DE000CF911F910F91FF90EF90DF90CF90BF9028
:100DF000AF9008952091B302260F3327331F21327D
:100E00003105ECF42091D902FC0190E080E024301F
:100E100069F082E00895A091B3022191AC014F5690
:100E20005D4FA40FB52FB11D2C930196861798F333
:100E30008091B302680F6093B30280E0089581E06F
:100E400008951092D90281E08093DB021092DA02B9
:100E500061E082E10E947B0561E083E10E947B0505
:100E6000E9EBF0E080818E7F808380818D7F8083BD
:100E700088E48093B80085E48093BC000895CF9304
:100E8000DF9391E0909390028823B9F0C091B8006D
:100E9000D091BA008091BC008A7B8093BC0060E056
:100EA00082E10E947B0560E083E10E947B050E9455
:100EB0002107D093BA00C093B800DF91CF91089575
:100EC000089508950895E091880280918702E817B7
:100ED00030F4F0E0E959FD4F808190E008958FEF04
:100EE0009FEF089590918802809187022FEF3FEF46
:100EF000981748F4E92FF0E0E959FD4F208130E0E0
:100F00009F5F90938802C901089580918702909114
:100F10008802891B990B0895CF92DF92EF92FF927E
:100F20000F931F93CF93DF937C01CB018A01209114
:100F30006602222389F0EB016B01C40ED51ECC158D
:100F4000DD0569F06991D701ED91FC910190F08187
:100F5000E02DC7010995F3CF642F0E94FA06C8015E
:100F6000DF91CF911F910F91FF90EF90DF90CF9085
:100F70000895CF93DF931F92CDB7DEB76983209199
:100F800066022223F9F020918902203258F021E0F4
:100F900030E0FC013383228390E080E00F90DF910A
:100FA000CF91089580918A02E82FF0E0EA5BFD4F2F
:100FB000998190838F5F80938A028093890281E078
:100FC00090E0ECCF61E0CE0101960E94FA06F7CFE7
:100FD000FC01538D448D252F30E0842F90E0821B3F
:100FE000930B541710F0CF96089501970895FC01C4
:100FF000918D828D981761F0A28DAE0FBF2FB11D1C
:101000005D968C91928D9F5F9F73928F90E0089573
:101010008FEF9FEF0895FC01918D828D981731F02D
:10102000828DE80FF11D858D90E008958FEF9FEF81
:101030000895FC01918D228D892F90E0805C9F4F57
:10104000821B91098F739927089580E993E00E948C
:10105000190821E0892B09F420E0822F089580E00F
:1010600090E0892B29F00E94250881110C94000042
:101070000895FC01A48DA80FB92FB11DA35ABF4F2D
:101080002C91848D90E001968F739927848FA68987
:10109000B7892C93A089B1898C91837080648C93DB
:1010A000938D848D981306C00288F389E02D80818A
:1010B0008F7D80830895EF92FF920F931F93CF93BC
:1010C000DF93EC0181E0888F9B8D8C8D98131AC083
:1010D000E889F989808185FF15C09FB7F894EE896A
:1010E000FF896083E889F9898081837080648083C7
:1010F0009FBF81E090E0DF91CF911F910F91FF9012
:10110000EF900895F62E0B8D10E00F5F1F4F0F73B9
:101110001127E02E8C8D8E110CC00FB607FCFACF74
:10112000E889F989808185FFF5CFCE010E943908D1
:10113000F1CFEB8DEC0FFD2FF11DE35AFF4FF08245
:101140009FB7F8940B8FEA89FB8980818062CFCFAB
:10115000CF93DF93EC01888D8823B9F0AA89BB89EE
:10116000E889F9898C9185FD03C0808186FD0DC0D9
:101170000FB607FCF7CF8C9185FFF2CF808185FFFA
:10118000EDCFCE010E943908E9CFDF91CF910895CC
:10119000DC011A96ED91FC9130E020E00994DC012D
:1011A0001696ED91FC9130E020E040E069E1099471
:1011B000DC011696ED91FC9130E020E040E068E122
:1011C00009949A01DC011696ED91FC91462F67E196
:1011D0000994EF92FF920F931F93CF93DF931F9287
:1011E000CDB7DEB77C018B01D8016C91673129F155
:1011F00050F46531A0F40F90DF91CF911F910F91C2
:10120000FF90EF9008956A3118F16E3FA1F7F80151
:101210004181498369E2C7010E94C8080BC0F801F7
:1012200041814983D7011696ED91FC9130E020E091
:10123000C70109950E5F1F4FD7CFF80181818983C0
:10124000AE014F5F5F4F61E0C7010E94E108F2CF3E
:101250000F5F1F4FD7011696ED91FC9130E020E013
:1012600040E0C7010995C0CF462FDC011696ED91ED
:10127000FC9130E020E066E10994462FDC011696EF
:10128000ED91FC9130E020E065E10994EF92FF924E
:101290000F931F93CF93DF93EC01042F79016D30EF
:1012A00009F446C050F46B30C9F1693009F49FC0AD
:1012B0006A3009F465C080E046C06E3009F452C05F
:1012C0006F3099F70E94D808F7011381110F110FA1
:1012D000110F6C89160F60E4CE010E943D09612F49
:1012E00062956F706061CE010E943D09612F6F7041
:1012F000CE010E943409F7016481606BCE010E9427
:101300003409F701408151816281660F660F660FD3
:10131000CE010E94E1080150A1F72EC069E471E0FE
:10132000442311F064E471E0CE010E94E9080AC090
:10133000411110C06DE371E00E94E908E881F98174
:1013400082898C8B81E0DF91CF911F910F91FF906B
:10135000EF90089566E371E00E94E908E881F98161
:101360008389EFCF0E94D80861E8CE010E943D0931
:10137000602FCE010E943409CE010E94CF08E2CF37
:10138000EA85FB8530E020E040E068E2CE01099587
:10139000EE81FF8130E020E040E064E1CE0109957C
:1013A00041E06BE4CE010E94C808E881F9814481E4
:1013B00069E2CE010E94C80840E06BE4CE010E94C1
:1013C000C808E881F981448169E2CE010E94C80819
:1013D00041E06BE4CE010E94C808E881F9814581B3
:1013E00069E2CE010E94C8086EE471E09DCF83E8F7
:1013F00091E0998388831C8AA5CFDC011896ED9132
:10140000FC9130E020E040E069E10994DC011896AD
:10141000ED91FC9130E020E040E068E10994CF9349
:10142000DF931F92CDB7DEB76983BE016F5F7F4F39
:101430000E9421050F90DF91CF910895EF92FF92C6
:101440001F93CF93DF93EC01162F7A010E94060AB7
:1014500060E4CE010E940F0AE885F9859701412FCB
:1014600067E1CE010995CE01DF91CF911F91FF90E9
:10147000EF900C94FD09EF92FF921F93CF93DF93AF
:10148000EC01142F7901663181F138F4643109F4EB
:101490004BC0653179F080E022C06831C9F150F16C
:1014A0006931C9F780914502882391F1CE010E94EC
:1014B000FD092EC080914502882319F0CE010E94BB
:1014C000FD09CE010E94060A60E0CE010E940F0ACB
:1014D000612FCE010E940F0A81E080934502DF91C7
:1014E000CF911F91FF90EF900895642F0E940F0AF3
:1014F00081E0F5CF80914502882319F0CE010E944A
:10150000FD09A701193138F4612FCE010E941E0A8E
:1015100010924502EDCF68E1CE010E941E0A1851DB
:1015200088E1E80EF11CEDCF8E898F3F11F488E73A
:101530008E8BE885F9859701412F64E1CE01DF911B
:10154000CF911F91FF90EF9009940F93FC01E85BFE
:10155000FF4F0190F081E02DDF01A41BB50BAD0121
:10156000FC01EA5BFF4F0190F081E02DDF01A61B3B
:10157000B70BBD01011113C041505109621B730B20
:10158000FC01E05CFF4F0190F081E02D4E1B5F0BF2
:10159000DC01D496ED91FC9109950F9108950130ED
:1015A00079F761507109421B530BEACFCF93DF9358
:1015B000FC01A081B18182AD90E09C0143E0220F4B
:1015C000331F4A95E1F737AF26AF50962C915097CD
:1015D00048E0249F9001112435AF24AF23AD30E0C3
:1015E000B90153E0660F771F5A95E1F7EF01C05C30
:1015F000DF4F7983688351964C915197E901C80F69
:10160000D91F50E04C175D0718F4CA01821B930BD9
:10161000EF01CE5BDF4F79836883229623E0880F4A
:10162000991F2A95E1F7860F971F99838883229641
:1016300054968D919C91559799838883E85BFF4FD1
:1016400056968D919C9191838083DF91CF910895DF
:101650000F931F93FC01E25BFF4F0190F081E02D9F
:10166000DC01A05BBF4F0D90BC91A02D4A175B071A
:1016700040F4E017F10748F00417150730F080E058
:1016800019C0E017F107C0F3FACFFC01E65BFF4F8A
:1016900040815181845B9F4FFC018081918168175B
:1016A000790758F481E04217530720F081E02617AC
:1016B000370728F71F910F91089542175307B0F38A
:1016C000DECF2F923F924F925F926F927F928F92D6
:1016D0009F92AF92BF92CF92DF92EF92FF920F93C1
:1016E0001F93CF93DF93CDB7DEB728970FB6F8944B
:1016F000DEBF0FBECDBF98878F83865B9F4F9A83D7
:101700008983FC0111821082EF81F885EA5BFF4F2B
:10171000208031802F813885245B3F4F3C832B8391
:10172000F90131822082EF80F884FEE4EF0EF11C93
:10173000F70111821082EF81F885E85BFF4F40804E
:101740005180EF81F885EC5BFF4F2081318142169B
:10175000530630F0C201821B930BF7019183808303
:10176000EF81F885EE5BFF4F20813181421A530AE9
:101770002F813885205B3F4F3E832D83F9015182B5
:101780004082EF81F885E85AFF4F60807180EF81D9
:10179000F885EC5AFF4FA080B180EF81F885EA5AB6
:1017A000FF4FC080D180EF81F885EE5AFF4F8080D7
:1017B000918083019501A601B4018F8198850E94D3
:1017C000280B2F8138852C573F4F38872F83811165
:1017D0001BC0F901108228960FB6F894DEBF0FBE29
:1017E000CDBFDF91CF911F910F91FF90EF90DF90D0
:1017F000CF90BF90AF909F908F907F906F905F90B1
:101800004F903F902F90089581E0EF81F88580837D
:101810008114910421F0E981FA8191828082A214DD
:10182000B30420F4EB81FC81B182A082F7018081B6
:1018300091818C159D0510F4D182C08264147504C9
:1018400050F6ED81FE8171826082C5CF0F93CF93F8
:10185000DF93E02FDC01AC57BF4FFC91FF2309F46D
:1018600060C02115310509F45CC02230310538F023
:10187000023009F04AC06F5F7F4F621B730B0E2F5F
:101880000170E0FD52C0FC01E25BFF4F0190F0816E
:10189000E02D4E175F0708F444C0FC01E05BFF4FEA
:1018A0000190F081E02D4E175F07D8F5FC01E45B55
:1018B000FF4F0190F081E02DDC01A65BBF4F0D9042
:1018C000BC91A02D260F371F2617370738F56E1746
:1018D0007F0718F59F0121503109A217B30708F5BA
:1018E0006A177B0708F4BD012E173F0708F4F901BA
:1018F000E61BF70BEC01AEA9BFA914960D90BC91A5
:10190000A02D9F01FD0109950CC0033009F0B7CF50
:101910004F5F5F4F421B530BB2CFBD016E177F0766
:10192000E0F2DF91CF910F910895FC01E65BFF4F4C
:101930000190F081E02D6E177F0798F3FC01E45BC6
:10194000FF4F0190F081E02D6E177F0750F7FC01EB
:10195000E05BFF4F0190F081E02DDC01A25BBF4F07
:101960000D90BC91A02D240F351F24173507A8F426
:101970004E175F0788F49F0121503109A217B30762
:1019800080F64A175B0708F4AD012E173F0708F4ED
:10199000F901E41BF50BAECFAD014E175F0708F65A
:1019A000EDCF0F93209146053091470562177307DD
:1019B000F0F0209148053091490562177307B8F49B
:1019C00020914205309143058217930780F02091C2
:1019D0004405309145058217930748F4AB01BC01DB
:1019E00000E021E030E088EF94E00E94260C0F91A7
:1019F00008955F926F927F928F929F92AF92BF9263
:101A0000CF92DF92EF92FF920F931F93CF93DF93CA
:101A1000EC017B018A016C01C41AD50A48175907E9
:101A200018F06A01C81AD90A2E153F0560F447015B
:101A3000821A930AC814D90448F10C171D0708F438
:101A400059C0512C18C049018E189F08C814D904D8
:101A500008F05EC09C2D8D2D6401892E982E902F4C
:101A6000812F8901292F382F9C2F8D2FE701E92EF7
:101A7000F82E55245394360176946794E216F306B3
:101A800008F442C0AA24AA94BA2C21C09C2D8D2D02
:101A90006401892E982E9E2D8F2D7801092F182FE5
:101AA0009C2F8D2FE901292F382FE3CFB701CE01CD
:101AB000552011F0BE01C7010E94D10C68187908A9
:101AC00077FE04C0EA0CFB1C6C0C7D1C21960C17E5
:101AD0001D0760F7DF91CF911F910F91FF90EF905D
:101AE000DF90CF90BF90AF909F908F907F906F903E
:101AF0005F900895360176946794902F812F8E0120
:101B0000C92FD82F7901512CAA24A394B12CDFCF4F
:101B10000C171D0708F095CF360176946794902F27
:101B2000812F8E01C92FD82F7901512CABCFAF92C5
:101B3000BF92CF92DF92EF92FF920F931F93CF93BA
:101B4000DF936C01EB015A017B01E20EF31E9C0155
:101B5000240F351F8701AB01BC0188EF94E00E9480
:101B6000280B882361F000E09501AE01B60188EFF3
:101B700094E00E94260C2196EC16FD06A1F7DF9159
:101B8000CF911F910F91FF90EF90DF90CF90BF907A
:101B9000AF900895213069F038F0223079F0840F49
:101BA000911D47FD9A950895860F911D67FD9A95A1
:101BB0000895841B910947FD93950895861B91090B
:101BC00067FD93950895213069F038F0223079F05F
:101BD000861B910967FD93950895840F911D47FD1C
:101BE0009A950895860F911D67FD9A950895841B17
:101BF000910947FD939508953F924F925F926F929E
:101C00007F928F929F92AF92BF92CF92DF92EF928C
:101C1000FF920F931F93CF93DF937C01162F442ED7
:101C2000EC01C25ADF4F5E806F806C018AE8C80EFB
:101C3000D11C78847518312E711608F4372C8C80DD
:101C40009D800E85202F462D652D8A819B810E94C7
:101C5000CA0D5C01202F462D652DC4010E94E30DA5
:101C6000AC01442079F08C85F6018083232D30E08F
:101C7000B501C7010E94260C171548F01719639487
:101C8000512CD7CF8B858111F7CF8D85EDCF150DD9
:101C90001E836F82DF91CF911F910F91FF90EF9084
:101CA000DF90CF90BF90AF909F908F907F906F907C
:101CB0005F904F903F900895DC011A964C911A97CF
:101CC000ED91FC911197249130E0042E02C03595DE
:101CD00027950A94E2F7842F860F883068F03196B2
:101CE0001196FC93EE93E49198E0941B01C0EE0FE3
:101CF0009A95EAF72E2B88501A968C938FEF9FEFC8
:101D000001C0880F6A95EAF78095822308950F93A2
:101D10001F93CF93DF938C01EC01C25ADF4F79837D
:101D200068831A86FC01EF58FF4F6081CE010E9444
:101D30005C0E8887F801EE58FF4F6081CE010E944B
:101D40005C0E8987F801E657FF4F90819C8781E000
:101D5000911180E08D87DF91CF911F910F910895B0
:101D6000CF93C62F0E945C0EC15021E030E001C02D
:101D7000220FCA95EAF7821BCF910895FC01E60F66
:101D8000F11D849190E0982F88273196E4918E0F71
:101D9000911D0895CF93DF93209152053091530503
:101DA0002817390709F490C0EC01909353058093EC
:101DB0005205FC018491809365053196E491E0938E
:101DC0006605FE013296E491E0936705FE013396C5
:101DD000E491E0936805FE013496E491E09369058F
:101DE000FE013596E491E0936A05FE013696E49192
:101DF000E0936B05FE013796E491E0936C05FE01DC
:101E00003896E491E0936D05FE013996E491E093F4
:101E10006E05FE013A96E491E0936F05FE013B9654
:101E2000E491E0937005FE013C96E491E093710526
:101E3000FE013D96E491E0937205FE013E96E49129
:101E4000E0937305FE013F96E491E0937405FE0173
:101E50007096E491E093750561E1CE010E94BE0E9B
:101E6000909377058093760563E1CE010E94BE0EC4
:101E7000909379058093780565E1CE010E94BE0EAE
:101E800090937B0580937A0580915205909153053C
:101E9000892BD1F08091720580937E054091730566
:101EA00040937F0590917D05992371F0913079F4ED
:101EB00090917405891714F490937E0580917505AF
:101EC000841714F480937F05DF91CF9108953091AA
:101ED0006F0520917105082E000C990B622F022EC0
:101EE000000C770B630F711D37FD7A9586179707E6
:101EF0001CF4320F30937E05241734F720937F05AE
:101F0000E3CFEF92FF920F931F93CF93DF93FC01E8
:101F1000E65AFF4F20813181295E3F4F6F3F7105A7
:101F200009F048F561367105D8F080589F4FFC01E3
:101F300080819181280F391FC9010196FC014491CC
:101F4000442309F447C0F90144914617170671F478
:101F50000196DF91CF911F910F91FF90EF9008951F
:101F60006134710548F382589F4FE1CFFC018491A1
:101F7000280F311DE1CF8B01FC01EE57FF4FC081CF
:101F8000D181C20FD31F7E0160E0C7010E94BE0E47
:101F9000C80FD91F62E0C7010E94BE0EF4E0EF0E29
:101FA000F11C8017910780F3FE01849190E0982F37
:101FB00088273196E4918E2B009761F00817190756
:101FC00019F4CE010396C5CFFE013296E491CE0FEF
:101FD000D11DEACF90E080E0BCCFCF92DF92FF929C
:101FE0000F931F93CF93DF9310925E05109210050D
:101FF0006C0180ECF82E10E000E0D0E0C0E0F601CB
:1020000061916F01E091FA04F091FB0488EF94E094
:1020100009958F3F980789F18E3F2FEF920779F34B
:10202000BC0188EF94E00E94810F009721F1BC0170
:1020300088EF94E00E94870E60916B0586E595E03D
:102040000E94B00E8093800560916C0586E595E056
:102050000E94B00E60916D0586E595E00E94B00E7D
:10206000082F880F110B80ECF81202C0F090800549
:10207000C00FD11FC4CF80E0F3CF20915E05222393
:1020800099F080918005022E000C330B280F311D32
:1020900087FD3A95C20FD31FC01BD10B1F1424F428
:1020A000CF0DD11DF7FCDA95CE01DF91CF911F91B5
:1020B0000F91FF90DF90CF9008958F929F92AF92F3
:1020C000BF92CF92DF92EF92FF920F931F93CF9325
:1020D000DF93EC017B018A016901FC01E459FF4FA8
:1020E0008081813009F46FC008F462C0823009F445
:1020F00075C0833009F47DC0FE01E05AFF4FF182C4
:10210000E082329611830083B601CE010E94810FD6
:10211000009709F4FFC07E012EE5E20EF11CBC0120
:10212000CE010E94870EFE01E959FF4FB0803C9618
:102130006081C7010E94B00E882EFE01EC58FF4F4F
:102140006081C7010E94B00E082FFE01EB58FF4FBF
:102150006081C7010E94B00EA82EF7019084191467
:102160000CF090C016850B0D0195212F402F682D86
:10217000828193810E94CA0D6C01F701938382834F
:10218000212F402F682D848195810E94E30DAC01A1
:10219000F70195838483113009F484C0A8F11230CB
:1021A00009F491C0133009F4A4C08C01960136C023
:1021B000FE01E45AFF4F0190F081E02DCE01099518
:1021C000080F191F99CFFE01E45AFF4F0190F081CB
:1021D000E02DCE010995E81AF90A8ECFFE01E45AE6
:1021E000FF4F0190F081E02DCE010995081B190BDE
:1021F00083CFFE01E45AFF4F0190F081E02DCE0124
:102200000995E80EF91E78CF9601290D311D97FC2E
:102210003A958C010B0D111DB7FC1A95B601CE0134
:102220000E94280B882371F1F701168217828E0114
:1022300001591F4F6E01F0E7CF0ED11CF8016081EC
:10224000C7010E945C0E882EF6016081C7010E94C2
:102250005C0E982E40E0682DCE010E94FC0D41E0FE
:10226000692DCE010E94FC0D61E0C7010E945C0E49
:102270008111F0CFF70187818B1504F3C657DF4F2B
:10228000848588838A2DAA0C990BDF91CF911F91A9
:102290000F91FF90EF90DF90CF90BF90AF909F9005
:1022A0008F90089581E090E08B199109B7FC939588
:1022B00096012F5F3F4F8A01090D111D97FC1A955A
:1022C000C80ED91EABCF81E090E0BC01691971093D
:1022D00097FC739596012F5F3F4F8B199109B7FCBF
:1022E00093958A010F5F1F4F480F591FC60ED71EC7
:1022F00095CF96012B0D311DB7FC3A9581E090E00A
:102300008919910997FC93958A010F5F1F4F480F18
:10231000591F84CF90E080E0B8CFCF92DF92EF9248
:10232000FF920F931F93CF93DF93EC018B011092D9
:1023300010057A01D12CC12CF70161917F01E09148
:10234000FA04F091FB0488EF94E009958F3F980719
:1023500019F18E3F2FEF920779F39C01A801BE017E
:1023600088EF94E00E945D1020916405213059F0BF
:1023700038F0223059F0233061F0C80ED91EDCCF7E
:10238000C80FD91FFACF080F191FF7CFC81BD90BD9
:10239000F4CF081B190BF1CFC601DF91CF911F912C
:1023A0000F91FF90EF90DF90CF900895CF93DF9340
:1023B000EC016BAFEEA9FFA90190F081E02D09952A
:1023C000EEA9FFA90280F381E02DCE01DF91CF912C
:1023D0000994AF92BF92CF92DF92EF92FF920F9348
:1023E0001F93CF93DF9300D000D01F92CDB7DEB7FD
:1023F0008C01DC01DA96AC90DA97DB96EC90DB97F7
:10240000ED91FC91B188FE2CD12CC12CD801ED911D
:10241000FC9111978089D8962D913C911C82FD8268
:102420008B83B8E08B9FC00111248C9DA0018D9DF2
:10243000500D9C9D500D1124240F351F3A83298384
:10244000D8011496ED91FC919E012F5F3F4F41E022
:102450006FE0C8010995F3948F2D8E198A1528F421
:10246000BFEFCB1ADB0AFB1488F20F900F900F908E
:102470000F900F90DF91CF911F910F91FF90EF90F0
:10248000DF90CF90BF90AF900895CF92DF92EF9200
:10249000FF920F931F93CF93DF93EC01962F683138
:1024A00009F44BC0B901993130F49431C9F0973136
:1024B00089F080E006C0993109F461C09032C9F713
:1024C00081E0DF91CF911F910F91FF90EF90DF900E
:1024D000CF90089550E084E893E00E948C07F0CFFD
:1024E0008C859D85AE85BF85892B8A2B8B2B71F4BE
:1024F000E881F981A585B0E020EA36E841E050E0C6
:102500000E94D2366C877D878E879F8710928802C3
:102510001092870210928A02109289020E9421076B
:1025200080E697E09093B2028093B10281E697E053
:102530009093B6028093B502C3CF2C853D854E851E
:102540005F8560E074E284EF90E00E941C372051C8
:10255000310941095109569547953795279520939B
:10256000B8008E8990E09595879591E090936602EA
:102570008093440210928A0210928902A1CFD091D6
:102580008902D13208F093C0C09144020E94E5054F
:102590006B017C018091D902811164C082E080933B
:1025A000D90281E08093DB028FEF8093D8021092F2
:1025B000FD02D093FC02A6E4B2E0ECEDF2E080E094
:1025C000D8137CC01092FE028091FE02CC0FC82B63
:1025D000C093FE028091DA02813009F073C010923C
:1025E000DA020E94E5056B017C018091FE02809376
:1025F000BB0080918C0290918D02A0918E02B091CF
:102600008F02892B8A2B8B2B99F00E94E505009174
:102610008C0210918D0220918E0230918F026C19E4
:102620007D098E099F090617170728073907D8F172
:102630008091BC0083FDD9CF85EC8093BC000E94C3
:10264000E5056B017C018091D9028230E9F180912E
:10265000D8028F3F61F18091D802803241F18091A0
:10266000D80225C080918C0290918D02A0918E029B
:10267000B0918F02892B8A2B8B2B09F48BCF0E9470
:10268000E50500918C0210918D0220918E0230910F
:102690008F026C197D098E099F09061717072807F5
:1026A000390708F077CF80918B020E943F07109284
:1026B0008A02109289021092660202CF9D91919334
:1026C0008F5F7ECF85EEB9CF80918C0290918D0285
:1026D000A0918E02B0918F02892B8A2B8B2B09F44B
:1026E000B2CF0E94E50500918C0210918D022091DD
:1026F0008E0230918F026C197D098E099F09061791
:1027000017072807390708F09ECFCDCF0F931F93E7
:10271000CF93DF938C01C62F642FCC32E8F4CA32FA
:1027200008F041C0C83271F1C93209F442C080E0FA
:10273000C034D0F1CF73F801EC0FF11D868D8F3FBF
:1027400091F1C031E0F00E94520521E0892B09F49B
:1027500020E0F801218F27C0CD3289F140F384EBCE
:102760008C0F823020F7CF73C00FD12FD11D8E8DEB
:10277000411133C061E00E94A90560E08E8D0E9486
:102780007B0511C0025E1F4FD0E0F80181918F01DF
:102790008F3F31F061E0D03108F062E00E94A9057E
:1027A000DF5FD63191F781E0DF91CF911F910F91DB
:1027B000089570E090E080E00E940A06F4CF85E082
:1027C00090E0433010F082E090E0880F991F880F6E
:1027D000991F05970197F1F7E6CF62E00E94A905DE
:1027E000E2CFCF92DF92EF92FF920E947E3520E0FF
:1027F00034E244E759E40E944D379B01AC0160E0AC
:1028000070E080E89FE30E944D376B017C01AC01D2
:102810009B0160E074E284E79BE40E944D370E94D4
:10282000C6376F3F2FEF72078105910508F47CC012
:1028300020E030E040E051E4C701B6010E94DF35FE
:102840009B01AC0160E074E284E79BE40E944D3799
:102850000E94C6376F3F2FEF72078105910508F47C
:1028600065C020E030E040E852E4C701B6010E94B4
:10287000DF359B01AC0160E074E284E79BE40E94D9
:102880004D370E94C6376F3F2FEF720781059105C4
:1028900008F44EC020E030E040E853E4C701B60140
:1028A0000E94DF359B01AC0160E074E284E79BE4A9
:1028B0000E944D370E94C6376F3F2FEF7207810588
:1028C0009105C0F120E030E040E854E4C701B601D2
:1028D0000E94DF359B01AC0160E074E284E79BE479
:1028E0000E944D370E94C6376F3F2FEF7207810558
:1028F0009105A8F425E0F8941092810061507109C7
:102900007093890060938800809181008860809333
:10291000810080918100282B209381007894FF9082
:10292000EF90DF90CF90089521E0E5CF22E0E3CF54
:1029300023E0E1CF24E0DFCFCF92DF92EF92FF924E
:1029400020916B0430916C0421303105D1F16B0181
:102950007C0120E030E040E85FE30E94793587FDAC
:1029600030C020E030E048EC53E4C701B6010E94DB
:10297000F537181634F1F894C0926304D0926404C9
:10298000E0926504F0926604789460913904709145
:102990003A0490E080E00E947E359B01AC0160EC3F
:1029A00071EE84E69CE40E944D37A70196010E94D7
:1029B0004D370E94C637FF90EF90DF90CF900C9478
:1029C000F113FF90EF90DF90CF900895CF93DF93B6
:1029D000CCE2D6E068817981072E000C880B990B38
:1029E0000E9480350E949C148A859B850E946C06FB
:1029F0008A818093CF05DF91CF91089568EF80E9B8
:102A000093E00C945B08CF92DF92EF92FF920F93CA
:102A10001F93CF93DF93EC0188810E9452058C01B4
:102A20000E943D06CA80DB80EC80FD80AB01BC01CA
:102A30004C195D096E097F090115110561F4898141
:102A4000813031F491E04B3051056105710508F496
:102A500090E080E00EC001301105D1F7898181112D
:102A6000F7CF81E04B3051056105710508F480E036
:102A700090E01F821E829923B1F081E090E09F8355
:102A80008E830E943D066B017C01CA82DB82EC8250
:102A9000FD820983DF91CF911F910F91FF90EF90FD
:102AA000DF90CF900895882381F30E943D062EEE9B
:102AB000C20E22E0D21EE11CF11C6C157D058E05B4
:102AC0009F0550F482E090E09F838E83E885F9852E
:102AD0003097B9F20995D5CF83E090E09F838E833C
:102AE000EA85FB85F5CF0F931F93CF938C01C62FFB
:102AF00062E08C2F0E94A905F801C0838C2F0E94F0
:102B00005205F8018183CF911F910F910895CF92C3
:102B1000DF92EF92FF92CF93DF93EC0189819A814C
:102B20009C838B8388818E3008F08E508770806400
:102B300080937C0080917A00806480937A008091F9
:102B40007A0086FDFCCFA0917800B0917900CF800B
:102B5000D8840D2C000CEE08FF0829853A85032E39
:102B6000000C440B550B2C193D094E095F090E94BE
:102B7000DD362FEF33E040E050E00E94B3362C0DFD
:102B80003D1D4E1D5F1D8D819E81281B390B2130FF
:102B900082E0380714F020E032E021158EEF38078C
:102BA00014F420E03EEF3A8329838B85882329F0B3
:102BB0003195219531093A832983DF91CF91FF9097
:102BC000EF90DF90CF900895CF92DF92EF92FF9237
:102BD0000F931F93CF93DF936C01EB017B01E40E06
:102BE000F51E10E000E0CE15DF0561F06991D60119
:102BF000ED91FC910190F081E02DC6010995080F3F
:102C0000191FF1CFC801DF91CF911F910F91FF9054
:102C1000EF90DF90CF900895CF92DF92EF92FF92E6
:102C20000F931F93CF93DF93EC016C0124E0C20E4E
:102C3000D11CFC01E057FF4F0190F081E02DC6014F
:102C400009958E3FEFEF9E07D8F48E010C561F4F6B
:102C5000F801408151817E01F2E9EF0EF11CF7018C
:102C6000608171819C01C6010E945D10C059DF4FD7
:102C700028812130C1F078F02230B9F02330E9F01A
:102C800081E090E0DF91CF911F910F91FF90EF9045
:102C9000DF90CF900895F70120813181820F931F3B
:102CA00091838083EDCFF801F7CFF7012081318147
:102CB000281B390B31832083E3CFF801F7CF90E055
:102CC00080E00895CF92DF92EF92FF9280916B04A3
:102CD00090916C04019749F580916D0490916E0478
:102CE00020916F04E22FF0E0E150F04CEE0FFF1F57
:102CF000EE0FFF1FE80FF91F408151816281738140
:102D0000452B462B472B89F0FC0130E060E070E05A
:102D1000CB012317E1F0C190D190E190F1906C0DBF
:102D20007D1D8E1D9F1D3F5FF4CFC0906304D0902A
:102D30006404E0906504F0906604C701B6010E9447
:102D4000BF37CB01FF90EF90DF90CF9008956115D2
:102D500071058105910549F330E050E040E00E94A3
:102D60001C37A0913B04B0913C040E94DD360E94C8
:102D70007E359B01AC0160EC71EE84E69CE40E9420
:102D80004D376B017C0120E030E040E85FE30E94BA
:102D9000793587FD11C020E030E048EC53E4C701ED
:102DA000B6010E94F537181644F6C12CD12C88ECD8
:102DB000E82E83E4F82EC1CFC12CD12C90E8E92E67
:102DC0009FE3F92EBACFCF93DF93C1E9D5E060E05E
:102DD00088810E947B051A82289685E0C13CD8072D
:102DE000B1F7DF91CF910895FC012FEF3FEF161659
:102DF000170614F421E030E09081B901690F711DCC
:102E00006F3F760749F0641775071CF04150408307
:102E10000895492F420FFBCF40E0F9CFEF92FF9288
:102E20001F93CF93DF9347E050E0BC0183E396E02C
:102E30000E94F416CCE2D6E01D8287E2E82E86E0FE
:102E4000F82E11E0F70110830E943D06F70161831F
:102E50007283838394831B83DF91CF911F91FF90B3
:102E6000EF9008958091F7050E945205892BF9F49F
:102E70008091330681110CC0ECE2F6E091E083A171
:102E8000892783A37C9686E0E43DF807C1F708957F
:102E90008150990B2CE1289FF001299FF00D1124FE
:102EA000E45DF94F83A191E0892783A30895809180
:102EB0002F0490913004892B41F40E9449060E940E
:102EC000E31681E080932F0608950E94F104F7CF66
:102ED0008F929F92AF92BF92CF92DF92EF92FF922A
:102EE0000F931F9380916B0490916C04009791F461
:102EF0000E94E3160E94AB0481E080932F061F918D
:102F00000F91FF90EF90DF90CF90BF90AF909F9088
:102F10008F900895019781F7F89480912F049091F4
:102F200030048130910521F0029799F07894E4CF34
:102F300082E090E09093300480932F040E94E50596
:102F400060934F0470935004809351049093520403
:102F5000EDCF0E94E505AB01BC0180914F0490913B
:102F60005004A0915104B0915204481759076A07C0
:102F70007B0708F46FC08A019B01081B190B2A0B01
:102F80003B0BD901C80180935B0490935C04A09330
:102F90005D04B0935E0440934F04509350046093DB
:102FA0005104709352044091530450915404609121
:102FB0005504709156044F5F5F4F6F4F7F4F4093A2
:102FC0005304509354046093550470935604209115
:102FD0007004309171042F5F3F4F30937104209340
:102FE000700440916F044217130609F020F4109208
:102FF0007104109270042091700430917104220FBA
:10300000331F220F331FE0916D04F0916E04E20F25
:10301000F31F80839183A283B383809153049091A3
:103020005404A0915504B091560420915B04309152
:103030005C0440915D0450915E040197A105B105C7
:1030400091F42093570430935804409359045093BB
:103050005A046CCF80959095A095B095840F951FDC
:10306000A61FB71F90CF8090570490905804A0904F
:103070005904B0905A04A4E2B0E00E94D2366B0129
:103080007C01ACEDB0E0A50194010E94D236C60EE1
:10309000D71EE81EF91ECD2CDE2CEF2CFF24C0928B
:1030A0005704D0925804E0925904F0925A043ECF4B
:1030B00024E030E044E050E064E070E088E390E039
:1030C0000C94970D8F929F92AF92BF92CF92DF9206
:1030D000EF92FF920F931F93CF93DF935C016B01ED
:1030E00083EC92E00E94CA0EC091310627E0E22EE6
:1030F000F12C28E0C216D10419F098E0E92EF12C49
:10310000CE151F0409F0B3C0C33008F0C2E03EE0A2
:10311000C39FE00111244E0182E0880E911C809132
:103120003006882309F4ABC02FE030E04FE350E0D5
:10313000B40181E490E00E94970D81E00E941E0599
:1031400030E020E043E050E070E060E090E080E0BC
:103150000E94F90C23E030E050E040E070E060E0D5
:1031600090E080E00E94F90C30E020E04DE350E078
:1031700070E060E080E490E00E94F90C23E030E031
:1031800040E450E070E060E080E490E00E94F90CE0
:103190002EE230E040E450E061E370E080E490E053
:1031A0000E94F90C21E330E04DE350E061E370E070
:1031B00080E490E00E94F90C21E330E043E050E02D
:1031C00061E370E090E080E00E94F90C2EE230E0D4
:1031D00050E040E061E370E090E080E00E94F90C94
:1031E00082E00E941E0520913106822F90E0E816B1
:1031F000F90609F081C0F3E0CF1AD10826E02C9D32
:10320000C0012D9D900D1124A80EB91ECDE0D0E077
:103210000FE214E08CE7C82ED12CF501E080F1809C
:103220001093FB040093FA04C7010E94ED0F109362
:10323000FB040093FA04A701BE019601281B390B79
:10324000C9010E948D1136E0A30EB11C2E96C73322
:10325000D10519F7DF91CF911F910F91FF90EF905A
:10326000DF90CF90BF90AF909F908F900895C11145
:1032700003C0D0E0C0E04FCFCEE0D0E04CCF8E0115
:103280000F5E1F4F20E830E0A40161E470E088EF9A
:1032900094E00E94280B882309F4A5CF00E02FE3D7
:1032A00030E0A40161E470E088EF94E00E94260C15
:1032B0004E01E3E08E0E911C01E02DE030E0A40110
:1032C00061E470E088EF94E00E94260C2DE030E08D
:1032D000A4016FE770E088EF94E00E94260CAE0135
:1032E000405F5F4F00E02FE330E061E470E088EF83
:1032F00094E00E94260C77CFD12CC12C222309F414
:103300007DCF6C0121E0C21AD10878CFEF92FF92F5
:103310000F931F93CF93DF93EC017B01CA010E94AF
:10332000CA0E0FE214E01093FB040093FA04CE01DE
:103330000E94ED0F1093FB040093FA0497FD019691
:1033400095958795919581959109AE01B7018096E4
:10335000DF91CF911F910F91FF90EF900C948D1101
:103360008F929F92AF92BF92CF92DF92EF92FF9295
:10337000CF93DF93EC01EF81F0E0EE0FFF1FE859F0
:10338000FF4FC590D490F12CE12C898534E6832E33
:10339000912CA12CB12CA5019401281B31094109C4
:1033A0005109C701B6010E94FA3721E030E0683CBC
:1033B00071058105910524F0A50194010E94B336A1
:1033C0003F8B2E8B8A8594E6892E912CA12CB12CD3
:1033D000A5019401281B310941095109C701B60112
:1033E0000E94FA37A50194010E94B336398F288FC5
:1033F0008B85833308F18253990B092E000CAA0B9D
:10340000BB0BA5019401281B390B4A0B5B0BC701B1
:10341000B6010E94FA37A50194010E94B3363B8F92
:103420002A8FDF91CF91FF90EF90DF90CF90BF90E8
:10343000AF909F908F9008951B8E1A8EF2CF2F928F
:103440003F924F925F927F928F929F92AF92BF92E4
:10345000CF92DF92EF92FF920F931F93CF93DF9360
:10346000EC01762E590147018C85312C212C8613D5
:1034700024C0052E000C660B770B9A01AB013E5F52
:103480004F4F5F4FB701FF0C880B990B6801012E5E
:10349000000CEE08FF086C197D098E099F090E9437
:1034A000FA3720E034E040E050E00E94B3361901E2
:1034B0002A012C0C3D1C4E1C5F1C8D8530E020E049
:1034C000871121C06801110FEE08FF089501BB0CA0
:1034D000440B550B3E5F4F4F5F4F092C000CAA0861
:1034E000BB08C501B4016C197D098E099F090E94B2
:1034F000FA3720E034E040E050E00E94B3362C0D73
:103500003D1D4E1D5F1DC101820F931FDF91CF91A5
:103510001F910F91FF90EF90DF90CF90BF90AF90F1
:103520009F908F907F905F904F903F902F90089545
:10353000FC018485811106C081E09585911103C04D
:1035400080E0089581E008950F931F93CF938C013D
:10355000C2E36233710534F06036710514F06FE533
:1035600070E0C62FF801C483C8010E94981A811127
:1035700008C0F801C387C801CF911F910F910C9427
:10358000B019CF911F910F9108950F931F93CF936F
:103590008C01C0E077FD06C06436710514F063E667
:1035A00070E0C62FF801C383C8010E94981A8111E8
:1035B00008C0F801C287C801CF911F910F910C94E8
:1035C000B019CF911F910F9108950F931F93CF932F
:1035D0008C01C1E01616170634F46436710514F038
:1035E00063E670E0C62FF801C283C8010E94981AF2
:1035F000811108C0F801C187C801CF911F910F91B7
:103600000C94B019CF911F910F9108950F931F93B0
:10361000CF938C01C0E077FD06C06536710514F0CC
:1036200064E670E0C62FF801C183C8010E94981AB1
:10363000811108C0F801C087C801CF911F910F9177
:103640000C94B019CF911F910F9108950F931F9370
:10365000CF938C01C0E077FD06C06931710514F08D
:1036600068E170E0C62FF801C083C8010E94981A73
:10367000811108C0F801C783C801CF911F910F9134
:103680000C94B019CF911F910F9108958F929F9232
:10369000AF92BF92CF92DF92EF92FF92FC01138222
:1036A0001482158216829081992391F141E050E0B5
:1036B00060E070E0438354836583768321E030E0EB
:1036C00080E0A92FB0E0812C912C540183942A171B
:1036D0003B07F4F44181840F8917B8F0891B4381BB
:1036E00054816581768175016401022E04C0CC0C81
:1036F000DD1CEE1CFF1C0A94D2F74C295D296E29B3
:103700007F2943835483658376832F5F3F4FDFCFC9
:10371000FF90EF90DF90CF90BF90AF909F908F90F1
:103720000895FC0121E01616170634F4258130E0D7
:10373000621773070CF49B0126838485873091F010
:103740008585873079F0CF010E9621E01616170691
:1037500034F4268530E0621773070CF49B01278749
:103760000C94461B0895FC0116161706B4F461323A
:10377000710514F060E270E065838485863079F02D
:103780008585863061F066878785681708F4862FFF
:103790008787CF010E960C94461B61E0EDCF08950C
:1037A000CF93DF93EC0160E08D810E947B051F8247
:1037B000DF91CF910895EF92FF920F931F93CF93D4
:1037C000DF931F92CDB7DEB78C018091F7050E9481
:1037D0005205892B59F4C8010E940E170F90DF91F2
:1037E000CF911F910F91FF90EF9008952091330694
:1037F0008091300681110CC048E050E0222311F086
:1038000049E050E0B80181E396E00E94F4162CC034
:10381000E091310621115FC0E83030F5F0E0ED5E57
:10382000F34E0C941E381B1C381C4B1C621C681C6D
:10383000681C621C621C80916B0490916C0401975F
:1038400099F00E946216B801680F791F072E000CCC
:10385000880B990B0E9480350E949C140E9462166E
:1038600090932D0680932C0681E080932F06B6CF8F
:1038700080913606898344E050E0B801CE0101967C
:103880000E94F416898190E0909337068093360663
:103890000E946C06E9CF80913806898344E050E0AD
:1038A000B801CE0101960E94F416898190E09093B0
:1038B000390680933806892BB9F68CEB95E00E9487
:1038C000D01BD2CF42E050E0B80182E396E09DCF1A
:1038D0004BE050E0F9CF2150330B4CE1429FC00147
:1038E000439F900D1124865C994FE93008F0BCCFBE
:1038F000F0E0E258F34E4CE10C941E38871C951C06
:10390000A31CB11CBF1CCD1CDB1CE91C001D429F6D
:10391000F001439FF00D1124E45DF94F6685600FBF
:10392000712F711D0E94261B9FCF429FF001439F64
:10393000F00D1124E45DF94F6785600F712F711D43
:103940000E94061B91CF429FF001439FF00D11246E
:10395000E45DF94F6089600F712F711D0E94E51AB7
:1039600083CF429FF001439FF00D1124E45DF94F96
:103970006189600F712F711D0E94C51A75CF429F1A
:10398000F001439FF00D1124E45DF94F6289600F4F
:10399000712F711D0E94A41A67CF429FF001439FAF
:1039A000F00D1124E45DF94F6389600F712F711DD3
:1039B0000E94B31B59CF429FF001439FF00D112489
:1039C000E45DF94F6489600F712F711D0E94911B96
:1039D0004BCF429FC001439F900D11249C01245D59
:1039E000394F7901F901828D898348E050E0B801AF
:1039F000CE0101960E94F4168981F701828F34CF9F
:103A0000429FC001439F900D11249C01245D394FBA
:103A10007901F901838D898348E050E0B801CE0136
:103A200001960E94F4168981F701838F1DCF6CEFF8
:103A300080E993E00C945B086AEF80E993E00C94D2
:103A40005B088C3F28F48A3F88F4883F21F0089572
:103A50008C3F41F00895E091FF02F0910003309710
:103A600049F009940E94F1040C94171D0E94490624
:103A70000C941C1D08958F929F92AF92BF920F934A
:103A80001F93CF93DF93CDB7DEB7A1970FB6F8940E
:103A9000DEBF0FBECDBF19A2423008F44AE08E014E
:103AA0000F5D1F4F842E912CB12CA12CA5019401E8
:103AB0000E941C37E62FB901CA01EA3044F5E05DE7
:103AC000D801EE938D01232B242B252B79F790E041
:103AD00080E0109769F0FD0101900020E9F731972F
:103AE000AF014A1B5B0BBD0184EF94E00E94E4151B
:103AF000A1960FB6F894DEBF0FBECDBFDF91CF9178
:103B00001F910F91BF90AF909F908F900895E95CA7
:103B1000D7CFCF93DF93F894D0E0C0E060E0CE0140
:103B20000E94A5362196C11584E0D807B9F778948C
:103B3000DF91CF910895BF92CF92DF92EF92FF92E3
:103B40000F931F93CF93DF93F89420912C0630911D
:103B50002D06309348032093470390912E069093AF
:103B600049039091310690934A03909133069093C4
:103B70004B039091360690934C03909138069093A6
:103B80004D03ECE2F6E0A7E4B3E0968517969C932C
:103B90001797978518969C931897908919969C93D8
:103BA000199791891A969C931A9792891B969C93C0
:103BB0001B9793891C969C931C9794891D969C93A4
:103BC0001D97928D1E969C931E97938D1F969C9386
:103BD0001F977C96199696E0E43DF907B1F694E8B4
:103BE000E92E93E0F92E07E413E0C1E2D0E0C754D8
:103BF000D340EDE38E9FC00DD11D1124F801B1908B
:103C00008F016E01CE0EDF1EC6010E949D36B816D2
:103C100021F06B2DC6010E94A536E016F10671F762
:103C20007894DF91CF911F910F91FF90EF90DF90EB
:103C3000CF90BF900895EF92FF920F931F93CF9371
:103C4000DF937C018C01D0E0C0E0CE010E949D3664
:103C5000F80181938F012196C232D105B1F7C701D6
:103C6000DF91CF911F910F91FF90EF900895CF9327
:103C7000DF93CDB7DEB7A2970FB6F894DEBF0FBEC5
:103C8000CDBFF894CE0101960E941B1EECE2F6E037
:103C900089A181878AA182837894A2960FB6F8942D
:103CA000DEBF0FBECDBFDF91CF910895EF92FF929F
:103CB0000F931F93CF93DF9388E790E090932D06A7
:103CC00080932C061092310610923306109237061C
:103CD0001092360683E090E0909339068093380680
:103CE00010923506CAE3D6E080E1E82E94E6F92E7C
:103CF00002E311E0E882F9820A831B820C831D83B0
:103D00001E83EF82F88609871A860B871C861D861C
:103D10001E871F87CE010E960E94461BCE010E9471
:103D2000B0196C9686E0C23ED80721F70E94371E74
:103D300010922706DF91CF911F910F91FF90EF9086
:103D40000895DF92EF92FF920F931F93CF93DF932B
:103D5000D82EF894CAE0D3E07E0102E210E00A50C7
:103D600013408DE3D89E000D111D1124C8018E0D46
:103D70009F1D0E949D36F70181937F01F7E4EF16A6
:103D8000F3E0FF0699F780910A0390910B0390935B
:103D90002D0680932C0680910D038093310680912F
:103DA0000E038093330680910F0390E090933706C3
:103DB000809336068091100390E0909339068093AB
:103DC0003806D09235060AE316E06F8170E0C8012C
:103DD0000E94261B688570E0C8010E94061B698549
:103DE00070E0C8010E94E51A6A8570E0C8010E946F
:103DF000C51A6B8570E0C8010E94A41A6C8570E03A
:103E0000C8010E94B31B6D8570E0C8010E94911B20
:103E10008E85F80184878F8585872996045E1F4FDC
:103E2000F3E0C034DF0789F67894DF91CF911F91DA
:103E30000F91FF90EF90DF900895DF92EF92FF9245
:103E40000F931F93CF93DF93CDB7DEB7A2970FB633
:103E5000F894DEBF0FBECDBFF89467EA71E0CE01E3
:103E600001960E94333A6BE971E0CE0141960E94BF
:103E7000333A8091350689A380912E068AA3CE011C
:103E800001967C0110E000E0F701D1907F01C801AC
:103E90000E949D36D81621F06D2DC8010E94A536CE
:103EA0000F5F1F4F0232110579F77894A2960FB673
:103EB000F894DEBF0FBECDBFDF91CF911F910F9160
:103EC000FF90EF90DF9008950F931F93CF93DF93B0
:103ED0008C01EB01FC01808191810097E1F0688108
:103EE000798161157105A9F0428153812C813D8151
:103EF0004217530770F00E94333A8C819D81F8017C
:103F0000958384831D821C82DF91CF911F910F9135
:103F100008950E94D43888819981F8019183808323
:103F20008A819B81938382838C819D819583848305
:103F3000198218821B821A82E5CFCF93DF93EC019E
:103F400088819981009711F00E94D43819821882D3
:103F50001D821C821B821A82DF91CF910895FC0181
:103F600080819181009711F00C94D43808950F93BB
:103F70001F93CF93DF93EC0188819981009759F0CB
:103F80002A813B812617370730F081E0DF91CF91FE
:103F90001F910F9108958B016F5F7F4F0E945D39D4
:103FA000009759F0998388831B830A832C813D8174
:103FB000232B59F7FC011082E8CF80E0E7CFEF9286
:103FC000FF920F931F93CF93DF93EC017B01CB0103
:103FD0000E943B350097A9F00C811D81080F191F25
:103FE000B801CE010E94B71F882399F0288139813A
:103FF0008C819D81B701820F931F0E9434351D83F0
:104000000C83CE01DF91CF911F910F91FF90EF9024
:104010000895CE010E949D1FF4CFEF92FF920F935F
:104020001F93CF93DF936115710541F480E0DF9119
:10403000CF911F910F91FF90EF9008954115510579
:10404000B1F07B01EC010C811D81040F151FB8013B
:104050000E94B71F882351F3288139818C819D816B
:10406000B701820F931F0E94333A1D830C8381E0B6
:10407000DECFEF92FF920F931F93CF93DF93EC016C
:104080008B01CB010E943B357C01BC01CE010E941B
:10409000B71F81110BC0CE010E949D1FCE01DF9181
:1040A000CF911F910F91FF90EF900895FD82EC82C8
:1040B000B801888199810E943435F0CFFC011182CA
:1040C000108213821282158214820C943920EF928E
:1040D000FF920F931F93CF93DF93EC017B018A0133
:1040E000BA010E94B71F81110BC0CE010E949D1F13
:1040F000CE01DF91CF911F910F91FF90EF90089526
:104100001D830C83B701888199810E94333AF0CFD7
:10411000FB0101900020E9F73197AF01461B570BD7
:104120000C9467200F931F93CF93DF93CDB7DEB727
:1041300062970FB6F894DEBF0FBECDBF8C01CB01E6
:10414000F8011182108213821282158214824AE0D1
:10415000BE016F5F7F4F0E944435BE016F5F7F4F8E
:10416000C8010E94882062960FB6F894DEBF0FBE89
:10417000CDBFDF91CF911F910F9108950F931F93A2
:10418000CF93DF93CDB7DEB729970FB6F894DEBF94
:104190000FBECDBF8C01862FF801118210821382D1
:1041A0001282158214824AE0BE016F5F7F4F90E059
:1041B0000E944F35BE016F5F7F4FC8010E9488206B
:1041C00029960FB6F894DEBF0FBECDBFDF91CF9119
:1041D0001F910F910895CF93DF93EC01FB01861798
:1041E000970749F0608171816115710541F0448143
:1041F00055810E946720CE01DF91CF9108950E94E2
:104200009D1FF9CFFC011182108213821282158248
:1042100014820C94EB20FC01118210821382128212
:1042200015821482FB0101900020E9F73197AF015C
:10423000461B570B0C94672085ED8093BC00809142
:104240008C0290918D02A0918E02B0918F02079600
:10425000A11DB11D23E0B695A795979587952A9541
:10426000D1F72091BC0024FD03C01092D90208951B
:1042700040918C0250918D0260918E0270918F025C
:10428000452B462B472B69F30097A105B10541F05B
:104290002AE22A95F1F700C00197A109B109E1CFFF
:1042A00080918B020C943F07FC01A081B181509654
:1042B0002C9182AD38E0839FC0011124289FA0017A
:1042C000299F500D112470E060E080AD91AD0C94F9
:1042D000233A1F93CF93DF93EC010E94E9111BADAA
:1042E0008AAD180FE881F9818189181768F0EC818F
:1042F000FD8130E020E040E060E1CE01099580E002
:10430000DF91CF911F910895FE01E557FF4F808106
:10431000882319F0CE010E945421612FCE010E9402
:10432000D61181E0EDCFCF93DF93EC01FC01E5578F
:10433000FF4F8081882319F0CE010E94542160E054
:10434000CE01DF91CF910C94D611CF93DF9388EFFC
:1043500094E00E949321CFE2D4E083EC92E00E94AB
:10436000CA0ED093FB04C093FA048AE191E00E9444
:10437000ED0FD093FB04C093FA0497FD0196959539
:1043800087954AE151E068E170E048960E948D11FE
:10439000D093FB04C093FA048EE091E00E94ED0FED
:1043A000D093FB04C093FA0497FD019695958795E9
:1043B0004EE051E064E270E048960E948D11D09387
:1043C000FB04C093FA0489EE91E00E94ED0FD093B4
:1043D000FB04C093FA0497FD01969595879549EEE5
:1043E00051E060E370E082960E948D1188EF94E0C6
:1043F0000E9469218111B1CFDF91CF910895809101
:104400003006882309F44EC08091330681113BC0E9
:1044100080913106833009F04EC081E090913206E0
:10442000913009F080E080932E068093CF05809133
:104430003106853061F4809132068A3040F48093F1
:1044400035060E94A11E0E94371E0E94E61480912C
:104450003106863041F480913206811104C00E94F9
:10446000561E0E94E61480913106873061F48091D7
:104470003206811108C00E94A5210E94891D0E9458
:10448000561E0E94E61481E0809327060E943D0696
:10449000609328067093290680932A0690932B0632
:1044A000109232068091300691E089278093300681
:1044B00090932F060895843009F0B9CF8091320689
:1044C0008A3008F0B4CF809335060E949B1D10926D
:1044D0002706ADCF2F923F924F925F926F927F92BD
:1044E0008F929F92AF92BF92CF92DF92EF92FF9204
:1044F0000F931F93CF93DF93CDB7DEB72A970FB6F5
:10450000F894DEBF0FBECDBF6B017C012AE336E01D
:104510003A8729870CE815E0312C212C1B82A985CC
:10452000BA8555968C91882321F0C8010E94D01B32
:10453000CCC0A985BA851796EC911797F0E0EE0FDD
:10454000FF1FE859FF4F459054905A96AD90BC908C
:10455000712C612CA114B10451F0C701B601A30163
:1045600092010E941C3720FD02C0B12CA12C9501A4
:1045700050E040E02C833D834E835F83D801179643
:104580008C9181117CC0E985FA85808D918DA70180
:104590009601280F391F411D511DCA01B9012C81F7
:1045A0003D814E815F81620F731F841F951FA301A0
:1045B00092010E941C37672B682B692B09F05FC0A2
:1045C000A985BA851896BC91B8870E94DC34E98524
:1045D000FA854685442309F452C02CE1229DF0015E
:1045E000239DF00D1124E45DF94F268D203208F053
:1045F00097C0A985BA8551968D909D90AD90BC903D
:10460000549704C0B694A794979487942A95D2F7A8
:10461000282D2170BCE1B29DF001B39DF00D112455
:10462000E45DF94F368D4150550B341715060CF0EB
:1046300079C0368D3F5F4CE1429DF001439DF00D06
:104640001124E45DF94F368F2223C9F05885852E59
:10465000912CB12CA12C24E630E040E050E00E94E7
:10466000B33686169706A806B9064CF061E0D80165
:1046700015968C910E947B0581E0F8018783A985BE
:10468000BA8556968D919C91579758964D915C910D
:1046900070E060E0480F591F611D711DCB01BA0128
:1046A0006C0D7D1D8E1D9F1D2C813D814E815F8176
:1046B000620F731F841F951FA30192010E941C3774
:1046C000672B682B692B09F430CF89859A850E9466
:1046D000981A81118B833FEF231A330A49855A8533
:1046E000445E5F4F5A874987085F1F4F56E0251683
:1046F000310409F014CF8091380690913906009763
:1047000009F43FC08230910579F08330910509F4B6
:104710005BC0019769F4A0E1B0E0BA83A98308C047
:1047200020E078CF30E087CF83E190E09A838983DF
:10473000E981FA81EE0FFF1FE859FF4F85909490B1
:10474000412C512C32014394F4E08F16910428F04F
:10475000240156944794712C612CB12CA12CC701D3
:10476000B601A50194010E941C37672B682B692BA9
:1047700081F561E08091C1050E947B0581E0809315
:10478000C30580913006811106C080912F062B80D1
:10479000282A20922F062A960FB6F894DEBF0FBE65
:1047A000CDBFDF91CF911F910F91FF90EF90DF90E0
:1047B000CF90BF90AF909F908F907F906F905F90C1
:1047C0004F903F902F900895E8E1F0E0FA83E9835D
:1047D000AFCFC301B2016C0D7D1D8E1D9F1DA501C4
:1047E00094010E941C37672B682B692B51F68CEBC8
:1047F00095E00E94D01BC5CF1F920F920FB60F926B
:1048000011242F933F938F939F93AF93BF938091E6
:10481000020390910303A0910403B091050330912A
:10482000010323E0230F2D3758F50196A11DB11D7B
:10483000209301038093020390930303A093040346
:10484000B09305038091060390910703A09108039C
:10485000B09109030196A11DB11D809306039093A9
:104860000703A0930803B0930903BF91AF919F91F1
:104870008F913F912F910F900FBE0F901F90189521
:1048800026E8230F0296A11DB11DD2CF1F920F92D1
:104890000FB60F9211242F933F934F935F936F9313
:1048A0007F938F939F93AF93BF93EF93FF93E09189
:1048B0000201F09103010995FF91EF91BF91AF9132
:1048C0009F918F917F916F915F914F913F912F9128
:1048D0000F900FBE0F901F9018951F920F920FB65A
:1048E0000F9211242F933F934F935F936F937F9376
:1048F0008F939F93AF93BF93EF93FF93E09100014A
:10490000F09101010995FF91EF91BF91AF919F91B6
:104910008F917F916F915F914F913F912F910F9068
:104920000FBE0F901F9018951F920F920FB60F9207
:1049300011242F933F934F935F936F937F938F93A4
:104940009F93AF93BF93EF93FF938091B900887FBC
:10495000803609F44AC0F0F5883209F4A7C018F58A
:10496000803109F49BC0B8F4882309F4F9C0883079
:1049700009F494C0FF91EF91BF91AF919F918F91F6
:104980007F916F915F914F913F912F910F900FBE4B
:104990000F901F901895883109F488C0803251F724
:1049A0008093D80214C0803409F49DC040F4803351
:1049B000B9F38833F9F68093D80285ECB0C080351E
:1049C00009F485C0883509F496C0883499F60E94A8
:1049D0001C21D0CF883909F48CC038F5883729F0EC
:1049E00050F4883611F0803729F683E08093D9029D
:1049F0001092D70257C0883809F47BC0803919F06B
:104A0000803809F0B7CF8091D702803208F071C0AA
:104A1000E091D70281E08E0F8093D7028091BB0096
:104A2000F0E0E954FD4F80833DC0803B39F0E0F475
:104A3000803A09F479C0883A09F09CCF84E08093E9
:104A4000D9021092B4021092B302E091B102F09137
:104A5000B20209958091B30281110FC081E0809369
:104A6000B3021092910209C0803C09F4A6CF883CA1
:104A700009F4A3CF883B09F07DCFE091B40281E037
:104A80008E0F8093B402F0E0EF56FD4F808180934B
:104A9000BB009091B4028091B30229C08091FE02C4
:104AA0008093BB0085EC8093BC0064CF9091FD02A5
:104AB0008091FC02981758F5E091FD0281E08E0F7D
:104AC0008093FD02F0E0E452FD4F8081E9CFE09158
:104AD000FD0281E08E0F8093FD028091BB00F0E02B
:104AE000E452FD4F80839091FD028091FC02981763
:104AF000C8F285E8D8CFE091FD0281E08E0F809367
:104B0000FD028091BB00F0E0E452FD4F8083809174
:104B1000DB0281115CCF81E08093DA0284EA80932A
:104B2000BC001092D90226CF85EC8093BC00109275
:104B3000D9028091D702803230F4E091D702F0E0C0
:104B4000E954FD4F10826091D70270E0E091B50208
:104B5000F091B60287EB92E009951092D7020ACF46
:104B60001092D80234CF1F920F920FB60F921124D9
:104B70002F933F934F935F936F937F938F939F9365
:104B8000AF93BF93EF93FF9380E993E00E943908BE
:104B9000FF91EF91BF91AF919F918F917F916F9115
:104BA0005F914F913F912F910F900FBE0F901F90EB
:104BB00018951F920F920FB60F9211242F933F93C7
:104BC0004F935F936F937F938F939F93AF93BF9315
:104BD000EF93FF93CF93DF931F92CDB7DEB781E0C2
:104BE0008983E0912D04F0912E04309761F0A0911B
:104BF000A003B091A1036C91A091A603B091A7036B
:104C00008C910995898389818823E1F0E091A00343
:104C1000F091A1038081E091A603F091A70382FDAA
:104C200025C090818091A9038F5F8F732091AA0383
:104C3000821741F0E091A903F0E0E057FC4F958F17
:104C40008093A9030F90DF91CF91FF91EF91BF91D6
:104C5000AF919F918F917F916F915F914F913F9114
:104C60002F910F900FBE0F901F9018958081EACF63
:104C70001F920F920FB60F9211248F929F92AF92B4
:104C8000BF92CF92DF92EF92FF920F931F932F93D9
:104C90003F934F935F936F937F938F939F93AF93C4
:104CA000BF93EF93FF930E943D0660934002709381
:104CB0004102809342029093430280912F0490918D
:104CC0003004029709F072C1C0904604D0904704A6
:104CD000809145048C151D0411F4109245048091B7
:104CE0004504811106C180916B0490916C04019779
:104CF00009F0ECC04091410450914204609143049A
:104D0000709144048091530490915404A0915504EF
:104D1000B0915604481759076A077B0780F08091C5
:104D2000530490915404A0915504B09156040196F7
:104D3000A11DB11D84179507A607B70720F520917F
:104D400053043091540440915504509156042093DB
:104D50004104309342044093430450934404F12CA3
:104D6000E12CC701B6010E94FA3760933D047093AD
:104D70003E0480933F0490934004A70196010E9453
:104D80001C3760934504C0905704D0905804E090BD
:104D90005904F0905A040E94E50500914F041091C7
:104DA000500420915104309152046017710782071A
:104DB000930708F416C1601B710B820B930B609371
:104DC0005F04709360048093610490936204009187
:104DD000530410915404209155043091560480904E
:104DE000410490904204A0904304B09044040815FC
:104DF00019052A053B0508F4FDC044E0660F771F3E
:104E0000881F991F4A95D1F7672F782F892F9927E7
:104E1000C61AD70AE80AF90AA0913B04B0913C04EB
:104E2000A70196010E94DD360E947E359B01AC01F0
:104E300060EC71EE84E69CE40E944D376B017C01CE
:104E400020E030E040E85FE30E94793587FDF0C064
:104E500020E030E048EC53E4C701B6010E94F5378A
:104E6000181634F4C12CD12C98ECE92E93E4F92EC9
:104E7000A7019601609163047091640480916504B8
:104E8000909166040E947935882301F1C0926304F1
:104E9000D0926404E0926504F09266046091390453
:104EA00070913A0490E080E00E947E359B01AC0155
:104EB00060EC71EE84E69CE40E944D37A7019601F8
:104EC0000E944D370E94C6370E94F1138091410421
:104ED00090914204A0914304B09144040196A11D15
:104EE000B11D8093410490934204A0934304B09376
:104EF0004404809145048F5F80934504E09133041E
:104F0000F0913404309781F1209148048091490454
:104F100090914A042817190611F4109248048091C0
:104F2000480481111CC060914B0470914C04809125
:104F30004D0490914E04099580914B0490914C043E
:104F4000A0914D04B0914E040196A11DB11D809316
:104F50004B0490934C04A0934D04B0934E04809165
:104F600048048F5F80934804E0913104F09132044B
:104F70003097E1F060913D0470913E0480913F04D0
:104F800090914004099580913D0490913E04A09138
:104F90003F04B09140040196A11DB11D80933D04D2
:104FA00090933E04A0933F04B0934004FF91EF918F
:104FB000BF91AF919F918F917F916F915F914F9131
:104FC0003F912F911F910F91FF90EF90DF90CF9025
:104FD000BF90AF909F908F900F900FBE0F901F903B
:104FE00018950095109520953095600F711F821FC0
:104FF000931FE5CE6C157D058E059F0508F00CCF3F
:10500000A7019601261B370B480B590BDA01C90182
:1050100024E0880F991FAA1FBB1F2A95D1F7892F5B
:105020009A2FAB2FBB27C80ED91EEA1EFB1EF4CE4B
:10503000C12CD12C80E8E82E8FE3F82E19CF1F92D7
:105040000F920FB60F9211240F931F932F933F933C
:105050004F935F936F937F938F939F93AF93BF9380
:10506000CF93DF93EF93FF93C0917204D0917304B9
:10507000209709F45BC08C850E945205182F8E85FD
:105080000E945205880F991F812B9A89891709F46C
:105090004DC0EA890B891C892D893E8994E0E9027B
:1050A000F0011124482F082E000C550BE42BF52B92
:1050B000EA5DFE4F9081492F990F550B660B770BD8
:1050C000400F511F621F731F4B8B5C8B6D8B7E8B50
:1050D0008A8B288939892230310531F12330310515
:1050E000D1F12130310511F5833001F58B899C898F
:1050F000AD89BE8932E0B595A795979587953A9584
:10510000D1F78F8B988FA98FBA8F8F8D98A1A9A176
:10511000BAA18BA39CA3ADA3BEA30E943D066F8F33
:1051200078A389A39AA302C0882301F3FF91EF918A
:10513000DF91CF91BF91AF919F918F917F916F91AF
:105140005F914F913F912F911F910F910F900FBE43
:105150000F901F901895882311F0833039F78B89B1
:105160009C89AD89BE89B595A79597958795C9CF37
:105170001F920F920FB60F9211242F933F934F93CC
:105180005F936F937F938F939F93AF93BF93EF93AF
:10519000FF930E941F28FF91EF91BF91AF919F91C4
:1051A0008F917F916F915F914F913F912F910F90D0
:1051B0000FBE0F901F901895CF92DF92EF92FF9243
:1051C0000F931F93CF93DF93109287031092860360
:1051D00088EE93E0A0E0B0E0809388039093890389
:1051E000A0938A03B0938B0327EB31E030938503C0
:1051F000209384031092930310929203809394035C
:1052000090939503A0939603B093970389EC91E054
:10521000909391038093900385EC90E090939D038D
:1052200080939C0384EC90E090939F0380939E0373
:1052300080EC90E09093A1038093A00381EC90E038
:105240009093A3038093A20382EC90E09093A50334
:105250008093A40386EC90E09093A7038093A60329
:105260001092A9031092AA031092AB031092AC0300
:1052700010922E0410922D0480E690E090933A0450
:1052800080933904C8E1D0E0D0933C04C0933B0440
:1052900010926E0410926D0480E090E0A0EFB2E4F2
:1052A0008093630490936404A0936504B0936604B0
:1052B00010926704109268041092690410926A04B4
:1052C00010925B0410925C0410925D0410925E04D4
:1052D00010925F04109260041092610410926204B4
:1052E0001092300410922F0410926C0410926B04F0
:1052F0000E94AB04109232041092310410923404D4
:10530000109233041092360410923504109238042F
:10531000109237042091390430913A0460913B0493
:1053200070913C04C9010E940A387093470460934D
:105330004604C901BE010E940A3870934A04609372
:1053400049041092F7041092F6048FE294E09093CF
:10535000850580938405109287051092860510922A
:10536000890510928805109210058BED91E09093BD
:10537000F5048093F4041092F9041092F80410924A
:105380000D05109204051092050510920605109265
:1053900007058FEF80930E0580931205E6E1F5E097
:1053A000DFEFD19385E0EC32F807D9F786E499E096
:1053B0009093FD048093FC048BE39AE09093FF04A8
:1053C0008093FE0485E492E19093010580930005AB
:1053D00086E893E1909303058093020530E020E096
:1053E00040E069E088EF94E00E944609109253057E
:1053F0001092520589E394E090932D0580932C053B
:1054000084E794E09093310580933005C1E0C09328
:1054100032051092330510926105109281051092A9
:105420007D05C0938205C093830583EE91E0909340
:105430002F0580932E0588EF94E00E94D60A1092E3
:105440004B0510924A0510924F0510924E058FEFB2
:105450009FEF90934D0580934C0590935105809359
:105460005005E0912E05F0912F050280F381E02D8B
:1054700088EF94E0099588EA94E09093550580932D
:1054800054051092640583E18093210582E18093A5
:105490002205D093230510928B0510928A05109255
:1054A000CF0581E190E09093D1058093D00584E011
:1054B00090E09093D3058093D20581E090E09093A3
:1054C000D5058093D40562E081E10E94A90562E0E0
:1054D00084E00E94A9058091D0050E945205D82F32
:1054E0008091D2050E945205880F991F8D2B8093C1
:1054F000D6051092D7051092D8051092D9051092B2
:10550000DA051092DB051092DC051092DD05109291
:10551000DE051092DF051092E0051092E105109271
:10552000E205C093EC051092F2051092F1056EE0D1
:105530008BEE95E00E94731584EC95E090937304D4
:1055400080937204C093F8051092FE051092FD0539
:10555000C093040610920A061092090610921506CE
:10556000109214062AEC3DEF30931706209316068E
:1055700080E092E0909319068093180610921A0624
:1055800010922106109220063093230620932206C3
:1055900090932506809324061092260688E790E0D3
:1055A00090932D0680932C0610922E06C0932F0602
:1055B0001092300610923106109232061092330685
:1055C0001092340610923506109237061092360665
:1055D00083E090E09093390680933806CAE3D6E0E2
:1055E00032EEC32E36E0D32E40E1E42E54E6F52E03
:1055F00002E311E0188A198A1A8A1B8A1C8AE88237
:10560000F9820A831B820C831D831E83EF82F88636
:1056100009871A860B871C861D861E871F87CE0169
:105620000E960E94461BCE010E94B0196C96CC16B5
:10563000DD0601F71092270610922806109229061F
:1056400010922A0610922B06DF91CF911F910F9195
:10565000FF90EF90DF90CF900895CF93DF93CDB779
:10566000DEB7CD55D1090FB6F894DEBF0FBECDBF62
:10567000789484B5826084BD84B5816084BD85B52D
:10568000826085BD85B5816085BD80916E00816039
:1056900080936E00109281008091810082608093DF
:1056A00081008091810081608093810080918000E1
:1056B0008160809380008091B10084608093B1000C
:1056C0008091B00081608093B00080917A00846006
:1056D00080937A0080917A00826080937A00809132
:1056E0007A00816080937A0080917A00806880934C
:1056F0007A001092C100E091A003F091A10382E032
:105700008083E0919C03F0919D031082E0919E03C1
:10571000F0919F038FE380831092A803E091A4038C
:10572000F091A50386E08083E091A203F091A303AA
:10573000808180618083E091A203F091A303808146
:1057400088608083E091A203F091A3038081806848
:105750008083E091A203F091A30380818F7D8083F9
:1057600080916D0490916E04892B59F481E08093AF
:105770006F0484E090E00E94383890936E04809328
:105780006D04F894109280001092810010928500B0
:105790001092840081EC92EA9093890080938800B3
:1057A0008091810088608093810080918100826077
:1057B0008093810080916F00826080936F00789465
:1057C0006091630470916404809165049091660413
:1057D0000E949C1410926C0410926B04F89480E662
:1057E00090E090933A048093390460913B04709167
:1057F0003C040E940A38709347046093460484E096
:1058000090E090934A0480934904789460E070E0BB
:1058100080EF92E40E949C148CE19DE19093360409
:105820008093350487E19DE1909338048093370499
:105830008EEF94E190933404809333040E944906E0
:105840006CE087EF95E00E94731565E083E096E0D9
:105850000E94731560E085E10E94A90585E18093AF
:105860000F0660E084E10E94A90584E180931B0695
:105870008091680086608093680080916D008061EF
:1058800080936D0080916C00886080936C0061E073
:1058900087E00E94A90587E08093910515E01093A9
:1058A000900561E088E00E94A90588E08093990551
:1058B0001093980561E08AE00E94A9058AE0809330
:1058C000A1051093A00561E086E00E94A90586E08D
:1058D0008093A9051093A80561E089E00E94A905BD
:1058E00089E08093B1051093B00561E08BE00E94E0
:1058F000A9058BE08093B9051093B80561E083E0BA
:105900000E94A90583E08093C1051093C005E09132
:10591000FC04F091FD0430E020E040E06AE088EF14
:1059200094E0099588EF94E00E94932188EF94E039
:105930000E9469218111FACF60E088EF94E00E9413
:10594000D611E091FC04F091FD0430E020E040E04D
:105950006BE088EF94E009950E94A52160ED77E067
:1059600080E090E00E940A06CE0101960E941B1E74
:1059700067EA71E0CE0101960E942A3A8C016BE938
:1059800071E0CE0141960E942A3A012B09F004C130
:10599000892B09F001C18AE00E94A11E0E94371ED6
:1059A0000E94E6148AE692E29093320480933104D6
:1059B00088E697E1909300038093FF0290930101A2
:1059C0008093000180916900836080936900E89A68
:1059D0008FEF91E29093C5058093C4058BED9BE119
:1059E0009093C9058093C8058EE097E19093C70511
:1059F0008093C60582E397E190930C0680930B0693
:105A00006B961FAE1EAE6B979E012F5F3F4F679642
:105A10003FAF2EAF679787EF95E00E94031583E0B5
:105A200096E00E9403150091DB051091DC052091A2
:105A3000DD053091DE058091CC059091CD05801774
:105A4000910709F4CCC04091E3055091E4056091C1
:105A5000E5057091E605C090E705D090E805E09077
:105A6000E905F090EA054C195D096E097F09F80116
:105A7000E81BF90BCF01F093CB05E093CA05109317
:105A8000CD050093CC05403151056105710508F045
:105A90009DC09F01220F331F820F931F9093CB0550
:105AA0008093CA058091CF05882359F08091CA055B
:105AB0009091CB059195819591099093CB05809319
:105AC000CA050091CA051091CB058091EB050E9493
:105AD00052057C018BEE95E00E940315EF2809F03A
