:100000000C9423040C94E8250C94C1250C944B0407
:100010000C94332A0C949A290C944B040C944B04A2
:100020000C944B040C944B040C944B040C94B32789
:100030000C944B040C944B040C944B040C944B0404
:100040000C9477250C944B040C9454270C942E2775
:100050000C944B040C944B040C944B040C944B04E4
:100060000C940F260C944B0400300018000C00096F
:10007000000680042004C00360030003A0024002C5
:10008000E00180012001C000600030002000180065
:1000900010000C00080006000400455241534500C2
:1000A0004C4F4144005341564500524F5441544532
:1000B000204449535000454E434F44455220444943
:1000C000520050554C5345204F555400434C4B2043
:1000D000524553455400434C4B2052554E00534F0C
:1000E000555243450054454D504F004241434B202B
:1000F000544F204D41494E007800464143544F52E1
:10010000592052455345540044454C004C4F4144FE
:100110002046524F4D20534C4F54005341564520DA
:10012000544F20534C4F54004241434B20544F20D6
:100130004D41494E007800464C49505045440044DA
:10014000454641554C5400524F5400524556455275
:100150005345440044454641554C540044495200DF
:1001600031205050514E2050554C534500342050B2
:1001700050514E2050554C53450032342050505170
:100180004E2050554C53450050554C5345204F463A
:1001900046004F555400435620320043562031004C
:1001A0004E4F4E45005253540043562032004356A2
:1001B0002031004E4F4E450052554E004D494449A6
:1001C0000031205050514E0034205050514E0032DA
:1001D00034205050514E00434C4F434B00494E5435
:1001E000004558540042504D00455854008000408E
:1001F000002000180010000C000B000A0009000885
:10020000000700060005000400030002000100FED4
:10021000FFFDFFFCFFFAFFF8FFF4FFF0FFE8FF43EC
:100220005632204D4F4400435631204D4F44004537
:1002300055434C49442048495453004555434C4983
:1002400044205354455053005357494E47004F469E
:100250004653455400445554590050524F42414270
:10026000494C495459004D4F44001D0004040405F5
:100270000301061018000017000000013F000002F3
:10028000E125270F3B96B1A5464C34428C181293BA
:100290009029426A08519A8C225286C8881164C4F7
:1002A000181A61ACC4B821002F0CBABABDC948D124
:1002B00067E3C601301F7CFB1D434A54103A665762
:1002C00087D0883022C4841844A78CD9EC10092523
:1002D0008ACC0031147ABDA561A40A993933628CA5
:1002E0009071F3FF284506321B7CFB1D53685410A8
:1002F0003A666CE40C8999C1C65439822367F9E0E7
:100300008101331C7CFB1D536854103A666CE44039
:1003100072B4B392E42C8D1D22A1069519003420ED
:100320007CFB2D2183868C213284CC904123088D47
:10033000183562D48851C6ECEC018B95F301351A5F
:100340007CFB0D155B8C9C2F082959316AE8C85934
:100350001A3B44420D2A3300361B7D1B9E536956BF
:100360000C3B67745E9859C282D439BB3B45624DE1
:10037000AA330037137CFB85150F52CE87E4E87053
:10038000CA8123E71D0038207CFB1D536854103AB6
:1003900066D9211244C8203A8586080942C7ECEC88
:1003A000100935A8CC00391A7CFB1D536854103A4B
:1003B000666787482C519372BE1844420D2A330059
:1003C00041167D1BA672A7D250326AC8A811E3EC71
:1003D000DD83EFEC770342247D1B86446A968C22F2
:1003E000316CC4B011C3460C1B318AC4924D469186
:1003F0001876CE9E3D08C162090043177D1B9E53AF
:10040000699610426674FE4F898D2044628D2224C5
:1004100000441B7D1B86446A968C1A326CC4B01152
:10042000E3EC7F766CC428124BD4240245127CFB8B
:10043000850F52CE4B44188D9C5F3E78600046106D
:100440007CFB850F52CE9769B21939FF120049071C
:1004500073DB843F484C0D7BDB8581F3FF3F7CF0F1
:1004600060004E247D1B0681E6CC1D3B860A55A20A
:100470004426C698186364889121664698196128B5
:100480002BCCAE3337004F167D1B9E5369968C1ACA
:1004900031CEFEBF1B316AC89A54670052318E3B81
:1004A00006456B980C23316EC4B811E3468C1B31A2
:1004B0006EC43012A3883051946AC8B031A3C610FC
:1004C0009AD59851448691183762DCC10153228E27
:1004D0003B9E6389969022316EC4B81163C7529ACD
:1004E0002C5BB283C78E35680E151126ABD0005435
:1004F0000D7D1B860F520D9DFFFF150055117CFBD6
:100500008561F6FF9F8D1834440D2A330056167FFF
:10051000F98591F6FFCB11E38690224315097227E6
:10052000CB0E0358297E3B8681068F9118368410A6
:100530001922A4860C4367D024519206CD211B3288
:100540008A08194244868D2076D0C2017814CABA2E
:100550008541868E9040638A941924530CB26800BA
:1005600000000004FFFF00004555434C494420486B
:10057000495453004555434C494420535445505326
:10058000005357494E47004F464653455400445583
:100590005459204359434C450050524F424142491F
:1005A0004C49545900434C4F434B204D4F44004E4F
:1005B0004F4E4500435632004356310025004F460A
:1005C0004600534849465420484954002500505598
:1005D0004C5345205749445448002500484954206D
:1005E0004348414E43450025004D554C5449504C1D
:1005F00059007800444956494445002F0034000210
:100600000203030203040505000005000500009134
:10061000000001982004805C2509AD745452B95241
:10062000492806AADC54192907AA5C624A0A2B0742
:100630009BE5D24A002C059154042D058B66062EAD
:10064000058954022F06A4EC631B3008ACEC54342B
:1006500093023107EBEC92AC063209AC6C364A2AB5
:100660008F003309AC6C364A1A8D043408AC6CA286
:100670001CBA003509AC6C86DE6824003609ACEC87
:10068000545E3129003708AC6C468E75043809ACCD
:10069000EC544C2A26053909ACEC544C3B29003A61
:1006A00006995552004108ACEC541C53064209AC63
:1006B0006C561C298E044309ACEC54D431290044F7
:1006C00008AC6C563447024508AC6C861E7A04466A
:1006D00008AC6C865E39034709ACEC544E332900F4
:1006E0004808AC6CA21C53064906A95486004A0867
:1006F000ACEC6B9914004B09AC6CA24A3295014CDE
:1007000007AC6C727B044D09AD74F25A49EB004E94
:1007100009AD74F25449EE004F08ACEC5434930226
:100720005009AC6C561C2967005108ACEC54B462FB
:100730000A5208AC6C561CA9195309ACEC46461A6F
:100740008D045407AB64566C015508AC6CA2332978
:10075000005609AD74B24E65CA11570AAD74B24A5B
:100760002AA92E005809AC6CA24C2ACA00590AAD1D
:100770007472AA33CA28025A07AB64662A07700843
:10078000ADF456B6D3027107ADF48EAF057208AB67
:1007900064A21A2A027406AD74FE237709ADF456DA
:1007A000A5464E0B78069B64520700000004FFFF2D
:1007B0000000000000003C007C00FC00FC03FC0F7B
:1007C000FC0FFC03FC007C003C000000000000006B
:1007D0000000380E380E380E380E380E380E380E2F
:1007E000380E380E380E380E0000000000002400CD
:1007F00027002A0000000000250028002B00000030
:100800000000230026002900040404040404040456
:1008100002020202020203030303030301020408AB
:10082000102040800102040810200102040810205A
:10083000000000080002010000030407000000009F
:1008400000000000572A11241FBECFEFD8E0DEBF02
:10085000CDBF11E0A0E0B1E0E8ECF6E702C0059002
:100860000D92A23FB107D9F726E0A2EFB1E001C097
:100870001D92A039B207E1F714E0C3E2D4E004C04E
:100880002197FE010E944639C232D107C9F70E9462
:10089000552C0C94623B0C940000662329F06A30BE
:1008A00019F0862F90E008958FEF9FEF0895AF9293
:1008B000BF92CF92DF92EF92FF920F93CF93DF938D
:1008C000EC01DA017901942F9770E1E0F0E09F01EB
:1008D000092E01C0220F0A94EAF7522F6E018AE80E
:1008E000C80ED11CF601808140E0823018F4422FFE
:1008F000813049F15D01F8EFAF22E8ADF9AD288113
:100900003981D90150968C918A9D90018B9D300D33
:100910001124620F731FDF01A60FB71F01111AC048
:10092000EA0EFB1E8C91842B85278D93AE15BF0597
:10093000C9F7DF91CF910F91FF90EF90DF90CF90AB
:10094000BF90AF90089550E0D5CF440F550FE114FC
:10095000F10479F33C91342B35273C939F5F9770DA
:10096000E1E0EE1AF1089111F0CF2CAD3DADA20FF0
:10097000B31FF6018081823028F4813009F051E004
:1009800041E0E5CF51E0E3CF80E0089590E080E0E2
:1009900008951092150410921604109217041092E4
:1009A00018041092190410921A0410921B04109249
:1009B0001C0410921D041092200410922304109223
:1009C0002404109225041092260410922B041092F5
:1009D0002C0410922D0410922E04109227041092D1
:1009E00028041092290410922A04109249041092AB
:1009F0004804209145043091460480E090914704DA
:100A0000891760F494E0899FF0011124E20FF31F2D
:100A100010821182128213828F5FF0CF089510929C
:100A200008041092070410923F04109240041092A0
:100A30004104109242040E94C904E0910F04F09115
:100A40001004309709F009940895BC01F894E7E088
:100A5000F4E09587848722853385C9010E94323965
:100A6000708F678BC90168E170E00E943239738F23
:100A7000628F78940895089580935A0508959B0194
:100A8000DC011896ED91FC9141E067E10994833017
:100A900081F028F4813099F08230A9F008958730F0
:100AA000A9F08830C9F08430B1F4809180008F7D46
:100AB00003C0809180008F7780938000089584B573
:100AC0008F7784BD089584B58F7DFBCF8091B00072
:100AD0008F778093B00008958091B0008F7DF9CF1B
:100AE000CF93DF93282F30E0F901E05DF74F849139
:100AF000F901E45EF74FD491F901E85FF74FC49133
:100B0000CC23A1F081110E944705EC2FF0E0EE0FFD
:100B1000FF1FE250F84FA591B491EC91ED2381E0D5
:100B200090E009F480E0DF91CF91089580E090E0BB
:100B3000FACF1F93CF93DF93282F30E0F901E05DC8
:100B4000F74F8491F901E45EF74FD491F901E85F22
:100B5000F74FC491CC23A9F0162F81110E944705AD
:100B6000EC2FF0E0EE0FFF1FEC50F84FA591B49181
:100B70008FB7F894EC91111108C0D095DE23DC9367
:100B80008FBFDF91CF911F910895DE2BF8CFCF93C8
:100B9000DF9390E0FC01E45EF74F2491885F974F6C
:100BA000FC0184918823C9F090E0880F991FFC0113
:100BB000E651F84FA591B491FC01EC50F84FC59166
:100BC000D49161110DC09FB7F8948C912095822328
:100BD0008C938881282328839FBFDF91CF9108952C
:100BE000623051F49FB7F8943C91822F8095832313
:100BF0008C93E8812E2BEFCF8FB7F894EC912E2BAE
:100C00002C938FBFEACF3FB7F8948091DC0290918C
:100C1000DD02A091DE02B091DF0226B5A89B05C0DF
:100C20002F3F19F00196A11DB11D3FBFBA2FA92F6B
:100C3000982F8827BC01CD01620F711D811D911D68
:100C400042E0660F771F881F991F4A95D1F70895D4
:100C50002FB7F8946091D8027091D9028091DA028E
:100C60009091DB022FBF08950E94C9040E942806BC
:100C700060933F0470934004809341049093420436
:100C8000E0910D04F0910E04309709F009958091E0
:100C9000430490914404892B39F482E090E09093CE
:100CA000080480930704089581E090E0F8CF0F9343
:100CB0001F93CF93DF93EC01009107041091080478
:100CC0000E940F058091620590916305049749F495
:100CD0008FB7F8942BE335E0309306042093050496
:100CE0008FBFD0936305C0936205C230D105A9F1CF
:100CF00068F4209721F1C130D10531F1012BE9F1E0
:100D0000DF91CF911F910F910C943406C330D10520
:100D100069F1249799F781E090E0909344048093DF
:100D2000430488E190E00E9425058FB7F8942BE1F9
:100D30003EE130930604209305048FBFDFCF10926D
:100D4000440410924304DACFD0934404C093430484
:100D500088E190E00E942505D1CF81E090E090935A
:100D600044048093430484E090E0F4CF81E090E079
:100D70009093440480934304EDCFDF91CF911F9172
:100D80000F91089508950895AF92BF92CF92DF9288
:100D9000EF92FF920F931F93CF93DF936C017B0130
:100DA0008B01040F151FEB015E01AE18BF08C017C1
:100DB000D10759F06991D601ED91FC910190F08134
:100DC000E02DC6010995892B79F7C501DF91CF91F7
:100DD0001F910F91FF90EF90DF90CF90BF90AF9059
:100DE000089520918902260F3327331F21323105C0
:100DF000ECF42091AF02FC0190E080E0243069F037
:100E000082E00895A09189022191AC0149595D4F7A
:100E1000A40FB52FB11D2C930196861798F38091DE
:100E20008902680F6093890280E0089581E0089547
:100E30001092AF0281E08093B1021092B00261E0A3
:100E400082E10E94990561E083E10E949905E9EB46
:100E5000F0E080818E7F808380818D7F808388E435
:100E60008093B80085E48093BC000895CF93DF930E
:100E700091E0909366028823B9F0C091B800D091B8
:100E8000BA008091BC008A7B8093BC0060E082E164
:100E90000E94990560E083E10E9499050E9418076D
:100EA000D093BA00C093B800DF91CF910895089510
:100EB00008950895E0915E0280915D02E81730F494
:100EC000F0E0E35CFD4F808190E008958FEF9FEFAD
:100ED000089590915E0280915D022FEF3FEF981789
:100EE00048F4E92FF0E0E35CFD4F208130E09F5FA4
:100EF00090935E02C901089580915D0290915E0217
:100F0000891B990B0895CF92DF92EF92FF920F9376
:100F10001F93CF93DF937C01CB018A0120913C0288
:100F2000222389F0EB016B01C40ED51ECC15DD0523
:100F300069F06991D701ED91FC910190F081E02D6C
:100F4000C7010995F3CF642F0E94F106C801DF9114
:100F5000CF911F910F91FF90EF90DF90CF90089568
:100F6000CF93DF931F92CDB7DEB7698320913C0208
:100F70002223F9F020915F02203258F021E030E086
:100F8000FC013383228390E080E00F90DF91CF91CA
:100F9000089580916002E82FF0E0E45EFD4F9981B2
:100FA00090838F5F8093600280935F0281E090E086
:100FB000ECCF61E0CE0101960E94F106F7CFFC0173
:100FC000538D448D252F30E0842F90E0821B930BAE
:100FD000541710F0CF96089501970895FC01918D54
:100FE000828D981761F0A28DAE0FBF2FB11D5D9657
:100FF0008C91928D9F5F9F73928F90E008958FEFF9
:101000009FEF0895FC01918D828D981731F0828DAC
:10101000E80FF11D858D90E008958FEF9FEF089503
:10102000FC01918D228D892F90E0805C9F4F821B67
:1010300091098F739927089588E693E00E9410081C
:1010400021E0892B09F420E0822F089580E090E0D0
:10105000892B29F00E941C0881110C94000008952E
:10106000FC01A48DA80FB92FB11DA35ABF4F2C911D
:10107000848D90E001968F739927848FA689B78914
:101080002C93A089B1898C91837080648C93938D0B
:10109000848D981306C00288F389E02D80818F7DAE
:1010A00080830895EF92FF920F931F93CF93DF9366
:1010B000EC0181E0888F9B8D8C8D98131AC0E88994
:1010C000F989808185FF15C09FB7F894EE89FF8963
:1010D0006083E889F98980818370806480839FBF01
:1010E00081E090E0DF91CF911F910F91FF90EF9001
:1010F0000895F62E0B8D10E00F5F1F4F0F73112711
:10110000E02E8C8D8E110CC00FB607FCFACFE8894B
:10111000F989808185FFF5CFCE010E943008F1CF9B
:10112000EB8DEC0FFD2FF11DE35AFF4FF0829FB7BF
:10113000F8940B8FEA89FB8980818062CFCFCF93AF
:10114000DF93EC01888D8823B9F0AA89BB89E889EF
:10115000F9898C9185FD03C0808186FD0DC00FB695
:1011600007FCF7CF8C9185FFF2CF808185FFEDCF13
:10117000CE010E943008E9CFDF91CF910895DC01C4
:101180001A96ED91FC9130E020E00994DC0116966E
:10119000ED91FC9130E020E040E069E10994DC0150
:1011A0001696ED91FC9130E020E040E068E1099472
:1011B0009A01DC011696ED91FC91462F67E10994A6
:1011C000EF92FF920F931F93CF93DF931F92CDB7B0
:1011D000DEB77C018B01D8016C91673129F150F4A5
:1011E0006531A0F40F90DF91CF911F910F91FF9087
:1011F000EF9008956A3118F16E3FA1F7F80141812F
:10120000498369E2C7010E94BF080BC0F801418110
:101210004983D7011696ED91FC9130E020E0C7019B
:1012200009950E5F1F4FD7CFF80181818983AE01E9
:101230004F5F5F4F61E0C7010E94D808F2CF0F5F98
:101240001F4FD7011696ED91FC9130E020E040E071
:10125000C7010995C0CF462FDC011696ED91FC9190
:1012600030E020E066E10994462FDC011696ED910E
:10127000FC9130E020E065E10994EF92FF920F933A
:101280001F93CF93DF93EC01042F79016D3009F4A4
:1012900046C050F46B30C9F1693009F49FC06A3020
:1012A00009F465C080E046C06E3009F452C06F306A
:1012B00099F70E94CF08F7011381110F110F110F39
:1012C0006C89160F60E4CE010E943409612F62958B
:1012D0006F706061CE010E943409612F6F70CE0182
:1012E0000E942B09F7016481606BCE010E942B09DB
:1012F000F701408151816281660F660F660FCE0152
:101300000E94D8080150A1F72EC061E371E0442388
:1013100011F06CE271E0CE010E94E0080AC04111B8
:1013200010C065E271E00E94E008E881F9818289DD
:101330008C8B81E0DF91CF911F910F91FF90EF9007
:1013400008956EE171E00E94E008E881F9818389E7
:10135000EFCF0E94CF0861E8CE010E943409602FD0
:10136000CE010E942B09CE010E94C608E2CFEA8579
:10137000FB8530E020E040E068E2CE010995EE8197
:10138000FF8130E020E040E064E1CE01099541E0DA
:101390006BE4CE010E94BF08E881F981448169E2D3
:1013A000CE010E94BF0840E06BE4CE010E94BF085E
:1013B000E881F981448169E2CE010E94BF0841E0E1
:1013C0006BE4CE010E94BF08E881F981458169E2A2
:1013D000CE010E94BF0866E371E09DCF8BE691E0ED
:1013E000998388831C8AA5CFDC011896ED91FC9126
:1013F00030E020E040E069E10994DC011896ED91CD
:10140000FC9130E020E040E068E10994CF93DF9365
:101410001F92CDB7DEB76983BE016F5F7F4F0E9419
:101420003F050F90DF91CF910895EF92FF921F93A8
:10143000CF93DF93EC01162F7A010E94FD0960E43F
:10144000CE010E94060AE885F9859701412F67E1E0
:10145000CE010995CE01DF91CF911F91FF90EF90C2
:101460000C94F409EF92FF921F93CF93DF93EC015A
:10147000142F7901663181F138F4643109F44BC0DD
:10148000653179F080E022C06831C9F150F16931ED
:10149000C9F780911B02882391F1CE010E94F409C3
:1014A0002EC080911B02882319F0CE010E94F409FE
:1014B000CE010E94FD0960E0CE010E94060A612F64
:1014C000CE010E94060A81E080931B02DF91CF913A
:1014D0001F91FF90EF900895642F0E94060A81E00B
:1014E000F5CF80911B02882319F0CE010E94F409E8
:1014F000A701193138F4612FCE010E94150A10920C
:101500001B02EDCF68E1CE010E94150A185188E157
:10151000E80EF11CEDCF8E898F3F11F488E78E8B9A
:10152000E885F9859701412F64E1CE01DF91CF91E4
:101530001F91FF90EF9009940F93FC01E85BFF4F20
:101540000190F081E02DDF01A41BB50BAD01FC0182
:10155000EA5BFF4F0190F081E02DDF01A61BB70B86
:10156000BD01011113C041505109621B730BFC01F5
:10157000E05CFF4F0190F081E02D4E1B5F0BDC0122
:10158000D496ED91FC9109950F910895013079F76A
:1015900061507109421B530BEACFCF93DF93FC01DB
:1015A000A081B18182AD90E09C0143E0220F331F06
:1015B0004A95E1F737AF26AF50962C91509748E007
:1015C000249F9001112435AF24AF23AD30E0B90141
:1015D00053E0660F771F5A95E1F7EF01C05CDF4FCC
:1015E0007983688351964C915197E901C80FD91FAF
:1015F00050E04C175D0718F4CA01821B930BEF01F2
:10160000CE5BDF4F79836883229623E0880F991F92
:101610002A95E1F7860F971F99838883229654961F
:101620008D919C91559799838883E85BFF4F5696DF
:101630008D919C9191838083DF91CF9108950F9339
:101640001F93FC01E25BFF4F0190F081E02DDC0174
:10165000A05BBF4F0D90BC91A02D4A175B0740F4D3
:10166000E017F10748F00417150730F080E019C0C3
:10167000E017F107C0F3FACFFC01E65BFF4F4081B2
:101680005181845B9F4FFC018081918168177907AC
:1016900058F481E04217530720F081E026173707FE
:1016A00028F71F910F91089542175307B0F3DECF2B
:1016B0002F923F924F925F926F927F928F929F9262
:1016C000AF92BF92CF92DF92EF92FF920F931F9350
:1016D000CF93DF93CDB7DEB728970FB6F894DEBF70
:1016E0000FBECDBF98878F83865B9F4F9A83898378
:1016F000FC0111821082EF81F885EA5BFF4F2080A8
:1017000031802F813885245B3F4F3C832B83F90147
:1017100031822082EF80F884FEE4EF0EF11CF701A5
:1017200011821082EF81F885E85BFF4F4080518085
:10173000EF81F885EC5BFF4F208131814216530623
:1017400030F0C201821B930BF70191838083EF81FC
:10175000F885EE5BFF4F20813181421A530A2F81B9
:101760003885205B3F4F3E832D83F90151824082B3
:10177000EF81F885E85AFF4F60807180EF81F8852E
:10178000EC5AFF4FA080B180EF81F885EA5AFF4FF5
:10179000C080D180EF81F885EE5AFF4F8080918024
:1017A00083019501A601B4018F8198850E941F0BCA
:1017B0002F8138852C573F4F38872F8381111BC0CD
:1017C000F901108228960FB6F894DEBF0FBECDBF88
:1017D000DF91CF911F910F91FF90EF90DF90CF900D
:1017E000BF90AF909F908F907F906F905F904F9041
:1017F0003F902F90089581E0EF81F88580838114D8
:10180000910421F0E981FA8191828082A214B304CB
:1018100020F4EB81FC81B182A082F701808191816B
:101820008C159D0510F4D182C0826414750450F6A5
:10183000ED81FE8171826082C5CF0F93CF93DF93DC
:10184000E02FDC01AC57BF4FFC91FF2309F460C0CF
:101850002115310509F45CC02230310538F0023021
:1018600009F04AC06F5F7F4F621B730B0E2F017030
:10187000E0FD52C0FC01E25BFF4F0190F081E02DE2
:101880004E175F0708F444C0FC01E05BFF4F019076
:10189000F081E02D4E175F07D8F5FC01E45BFF4FA8
:1018A0000190F081E02DDC01A65BBF4F0D90BC9153
:1018B000A02D260F371F2617370738F56E177F071D
:1018C00018F59F0121503109A217B30708F56A17CF
:1018D0007B0708F4BD012E173F0708F4F901E61B4A
:1018E000F70BEC01AEA9BFA914960D90BC91A02DE9
:1018F0009F01FD0109950CC0033009F0B7CF4F5F80
:101900005F4F421B530BB2CFBD016E177F07E0F252
:10191000DF91CF910F910895FC01E65BFF4F01909D
:10192000F081E02D6E177F0798F3FC01E45BFF4F19
:101930000190F081E02D6E177F0750F7FC01E05B0E
:10194000FF4F0190F081E02DDC01A25BBF4F0D90B5
:10195000BC91A02D240F351F24173507A8F44E176E
:101960005F0788F49F0121503109A217B30780F661
:101970004A175B0708F4AD012E173F0708F4F90179
:10198000E41BF50BAECFAD014E175F0708F6EDCFA8
:101990000F9320911E0530911F0562177307F0F019
:1019A000209120053091210562177307B8F420912A
:1019B0001A0530911B058217930780F020911C05B2
:1019C00030911D058217930748F4AB01BC0100E07C
:1019D00021E030E080ED94E00E941D0C0F9108950D
:1019E0005F926F927F928F929F92AF92BF92CF92AF
:1019F000DF92EF92FF920F931F93CF93DF93EC014F
:101A00007B018A016C01C41AD50A4817590718F0DE
:101A10006A01C81AD90A2E153F0560F44701821AD7
:101A2000930AC814D90448F10C171D0708F459C0CB
:101A3000512C18C049018E189F08C814D90408F009
:101A40005EC09C2D8D2D6401892E982E902F812FA4
:101A50008901292F382F9C2F8D2FE701E92EF82E91
:101A600055245394360176946794E216F30608F4ED
:101A700042C0AA24AA94BA2C21C09C2D8D2D6401A9
:101A8000892E982E9E2D8F2D7801092F182F9C2F8F
:101A90008D2FE901292F382FE3CFB701CE01552033
:101AA00011F0BE01C7010E94C80C6818790877FEC2
:101AB00004C0EA0CFB1C6C0C7D1C21960C171D0746
:101AC00060F7DF91CF911F910F91FF90EF90DF9022
:101AD000CF90BF90AF909F908F907F906F905F90CE
:101AE0000895360176946794902F812F8E01C92F27
:101AF000D82F7901512CAA24A394B12CDFCF0C1735
:101B00001D0708F095CF360176946794902F812FAA
:101B10008E01C92FD82F7901512CABCFAF92BF9234
:101B2000CF92DF92EF92FF920F931F93CF93DF93A9
:101B30006C01EB015A017B01E20EF31E9C01240FA4
:101B4000351F8701AB01BC0180ED94E00E941F0BA3
:101B5000882361F000E09501AE01B60180ED94E0CC
:101B60000E941D0C2196EC16FD06A1F7DF91CF9186
:101B70001F910F91FF90EF90DF90CF90BF90AF90AB
:101B80000895213069F038F0223079F0840F911DEA
:101B900047FD9A950895860F911D67FD9A950895C2
:101BA000841B910947FD93950895861B910967FD54
:101BB00093950895213069F038F0223079F0861B32
:101BC000910967FD93950895840F911D47FD9A959E
:101BD0000895860F911D67FD9A950895841B9109BC
:101BE00047FD939508953F924F925F926F927F9237
:101BF0008F929F92AF92BF92CF92DF92EF92FF921D
:101C00000F931F93CF93DF937C01162F442EEC018B
:101C1000C25ADF4F5E806F806C018AE8C80ED11C0B
:101C200078847518312E711608F4372C8C809D80BD
:101C30000E85202F462D652D8A819B810E94C10D26
:101C40005C01202F462D652DC4010E94DA0DAC01E8
:101C5000442079F08C85F6018083232D30E0B50196
:101C6000C7010E941D0C171548F017196394512CD9
:101C7000D7CF8B858111F7CF8D85EDCF150D1E83C5
:101C80006F82DF91CF911F910F91FF90EF90DF90C6
:101C9000CF90BF90AF909F908F907F906F905F900C
:101CA0004F903F900895DC011A964C911A97ED9150
:101CB000FC911197249130E0042E02C035952795B0
:101CC0000A94E2F7842F860F883068F031961196D7
:101CD000FC93EE93E49198E0941B01C0EE0F9A956B
:101CE000EAF72E2B88501A968C938FEF9FEF01C046
:101CF000880F6A95EAF78095822308950F931F93C2
:101D0000CF93DF938C01EC01C25ADF4F7983688354
:101D10001A86FC01EF58FF4F6081CE010E94530EDE
:101D20008887F801EE58FF4F6081CE010E94530E64
:101D30008987F801E657FF4F90819C8781E09111D8
:101D400080E08D87DF91CF911F910F910895CF9300
:101D5000C62F0E94530EC15021E030E001C0220F77
:101D6000CA95EAF7821BCF910895FC01E60FF11D99
:101D7000849190E0982F88273196E4918E0F911DE1
:101D80000895CF93DF9320912A0530912B052817D2
:101D9000390709F490C0EC0190932B0580932A0534
:101DA000FC01849180933D053196E491E0933E05DA
:101DB000FE013296E491E0933F05FE013396E491F3
:101DC000E0934005FE013496E491E0934105FE0165
:101DD0003596E491E0934205FE013696E491E09356
:101DE0004305FE013796E491E0934405FE013896E1
:101DF000E491E0934505FE013996E491E0934605B0
:101E0000FE013A96E491E0934705FE013B96E4918A
:101E1000E0934805FE013C96E491E0934905FE01FC
:101E20003D96E491E0934A05FE013E96E491E093ED
:101E30004B05FE013F96E491E0934C05FE01709640
:101E4000E491E0934D0561E1CE010E94B50E9093BF
:101E50004F0580934E0563E1CE010E94B50E90932D
:101E600051058093500565E1CE010E94B50E909317
:101E700053058093520580912A0590912B05892B5B
:101E8000D1F080914A058093560540914B054093CF
:101E9000570590915505992371F0913079F49091FF
:101EA0004C05891714F49093560580914D058417BD
:101EB00014F480935705DF91CF9108953091470531
:101EC00020914905082E000C990B622F022E000C60
:101ED000770B630F711D37FD7A95861797071CF4F2
:101EE000320F30935605241734F720935705E3CF6C
:101EF000EF92FF920F931F93CF93DF93FC01E65A6B
:101F0000FF4F20813181295E3F4F6F3F710509F0FE
:101F100048F561367105D8F080589F4FFC018081EB
:101F20009181280F391FC9010196FC014491442376
:101F300009F447C0F90144914617170671F4019658
:101F4000DF91CF911F910F91FF90EF900895613431
:101F5000710548F382589F4FE1CFFC018491280F0F
:101F6000311DE1CF8B01FC01EE57FF4FC081D181C4
:101F7000C20FD31F7E0160E0C7010E94B50EC80FDB
:101F8000D91F62E0C7010E94B50EF4E0EF0EF11C0C
:101F90008017910780F3FE01849190E0982F8827A5
:101FA0003196E4918E2B009761F00817190719F408
:101FB000CE010396C5CFFE013296E491CE0FD11D1E
:101FC000EACF90E080E0BCCFCF92DF92FF920F93F8
:101FD0001F93CF93DF93109236051092E8046C01A3
:101FE00080ECF82E10E000E0D0E0C0E0F601619156
:101FF0006F01E091D204F091D30480ED94E0099553
:102000008F3F980789F18E3F2FEF920779F3BC013C
:1020100080ED94E00E94780F009721F1BC0180EDE3
:1020200094E00E947E0E609143058EE295E00E944E
:10203000A70E80935805609144058EE295E00E94BA
:10204000A70E609145058EE295E00E94A70E082F2D
:10205000880F110B80ECF81202C0F0905805C00FE9
:10206000D11FC4CF80E0F3CF20913605222399F011
:1020700080915805022E000C330B280F311D87FD6F
:102080003A95C20FD31FC01BD10B1F1424F4CF0DE0
:10209000D11DF7FCDA95CE01DF91CF911F910F9101
:1020A000FF90DF90CF9008958F929F92AF92BF9252
:1020B000CF92DF92EF92FF920F931F93CF93DF9314
:1020C000EC017B018A016901FC01E459FF4F808129
:1020D000813009F46FC008F462C0823009F475C021
:1020E000833009F47DC0FE01E05AFF4FF182E082A7
:1020F000329611830083B601CE010E94780F0097BB
:1021000009F4FFC07E012EE5E20EF11CBC01CE01F8
:102110000E947E0EFE01E959FF4FB0803C9660811F
:10212000C7010E94A70E882EFE01EC58FF4F608168
:10213000C7010E94A70E082FFE01EB58FF4F6081D8
:10214000C7010E94A70EA82EF701908419140CF065
:1021500090C016850B0D0195212F402F682D82818F
:1021600093810E94C10D6C01F70193838283212F1B
:10217000402F682D848195810E94DA0DAC01F70112
:1021800095838483113009F484C0A8F1123009F4D6
:1021900091C0133009F4A4C08C01960136C0FE0131
:1021A000E45AFF4F0190F081E02DCE010995080F10
:1021B000191F99CFFE01E45AFF4F0190F081E02DE5
:1021C000CE010995E81AF90A8ECFFE01E45AFF4FB5
:1021D0000190F081E02DCE010995081B190B83CFEA
:1021E000FE01E45AFF4F0190F081E02DCE010995E8
:1021F000E80EF91E78CF9601290D311D97FC3A950E
:102200008C010B0D111DB7FC1A95B601CE010E9471
:102210001F0B882371F1F701168217828E01015975
:102220001F4F6E01F0E7CF0ED11CF8016081C7018E
:102230000E94530E882EF6016081C7010E94530E42
:10224000982E40E0682DCE010E94F30D41E0692DEB
:10225000CE010E94F30D61E0C7010E94530E81116F
:10226000F0CFF70187818B1504F3C657DF4F8485C4
:1022700088838A2DAA0C990BDF91CF911F910F9122
:10228000FF90EF90DF90CF90BF90AF909F908F9096
:10229000089581E090E08B199109B7FC9395960120
:1022A0002F5F3F4F8A01090D111D97FC1A95C80E2B
:1022B000D91EABCF81E090E0BC016919710997FC90
:1022C000739596012F5F3F4F8B199109B7FC93953A
:1022D0008A010F5F1F4F480F591FC60ED71E95CF9B
:1022E00096012B0D311DB7FC3A9581E090E08919DC
:1022F000910997FC93958A010F5F1F4F480F591F53
:1023000084CF90E080E0B8CFCF92DF92EF92FF923F
:102310000F931F93CF93DF93EC018B011092E8048E
:102320007A01D12CC12CF70161917F01E091D20497
:10233000F091D30480ED94E009958F3F980719F14F
:102340008E3F2FEF920779F39C01A801BE0180ED2B
:1023500094E00E94541020913C05213059F038F04F
:10236000223059F0233061F0C80ED91EDCCFC80FDF
:10237000D91FFACF080F191FF7CFC81BD90BF4CFFD
:10238000081B190BF1CFC601DF91CF911F910F915F
:10239000FF90EF90DF90CF900895CF93DF93EC0103
:1023A0006BAFEEA9FFA90190F081E02D0995EEA990
:1023B000FFA90280F381E02DCE01DF91CF91099436
:1023C000AF92BF92CF92DF92EF92FF920F931F9343
:1023D000CF93DF9300D000D01F92CDB7DEB78C0132
:1023E000DC01DA96AC90DA97DB96EC90DB97ED9116
:1023F000FC91B188FE2CD12CC12CD801ED91FC911F
:1024000011978089D8962D913C911C82FD828B83F7
:10241000B8E08B9FC00111248C9DA0018D9D500DB3
:102420009C9D500D1124240F351F3A832983D80118
:102430001496ED91FC919E012F5F3F4F41E06FE0BC
:10244000C8010995F3948F2D8E198A1528F4BFEFD2
:10245000CB1ADB0AFB1488F20F900F900F900F90AD
:102460000F90DF91CF911F910F91FF90EF90DF9030
:10247000CF90BF90AF900895CF92DF92EF92FF92EE
:102480000F931F93CF93DF93EC01962F683109F4DC
:102490004BC0B901993130F49431C9F0973189F0CA
:1024A00080E006C0993109F461C09032C9F781E03B
:1024B000DF91CF911F910F91FF90EF90DF90CF9020
:1024C000089550E08CE593E00E948307F0CF8C855F
:1024D0009D85AE85BF85892B8A2B8B2B71F4E88176
:1024E000F981A585B0E020EA36E841E050E00E949D
:1024F000FA376C877D878E879F8710925E021092D5
:102500005D021092600210925F020E94180787E538
:1025100097E0909388028093870288E597E09093F4
:102520008C0280938B02C3CF2C853D854E855F85C1
:1025300060E074E284EF90E00E9444382051310959
:102540004109510956954795379527952093B8002D
:102550008E8990E09595879591E090933C028093C9
:102560001A021092600210925F02A1CFD0915F0216
:10257000D13208F093C0C0911A020E9403066B0189
:102580007C018091AF02811164C082E08093AF0230
:1025900081E08093B1028FEF8093AE021092D3025C
:1025A000D093D202ACE1B2E0E2EBF2E080E0D813EB
:1025B0007CC01092D4028091D402CC0FC82BC0935F
:1025C000D4028091B002813009F073C01092B00241
:1025D0000E9403066B017C018091D4028093BB00B2
:1025E0008091620290916302A0916402B0916502B1
:1025F000892B8A2B8B2B99F00E9403060091620293
:102600001091630220916402309165026C197D097A
:102610008E099F090617170728073907D8F18091F7
:10262000BC0083FDD9CF85EC8093BC000E940306DB
:102630006B017C018091AF028230E9F18091AE02A2
:102640008F3F61F18091AE02803241F18091AE0204
:1026500025C08091620290916302A0916402B091C2
:102660006502892B8A2B8B2B09F48BCF0E940306E2
:102670000091620210916302209164023091650220
:102680006C197D098E099F09061717072807390756
:1026900008F077CF809161020E94360710926002A5
:1026A00010925F0210923C0202CF9D9191938F5F36
:1026B0007ECF85EEB9CF8091620290916302A091A6
:1026C0006402B0916502892B8A2B8B2B09F4B2CF5F
:1026D0000E9403060091620210916302209164023D
:1026E000309165026C197D098E099F09061717073D
:1026F0002807390708F09ECFCDCF8F929F92AF92D7
:10270000BF92CF92DF92EF92FF92CF93DF937C0143
:10271000C62F6C32B0F46A32E8F5683249F169329A
:1027200009F444C080E0C034B0F1CF73F701EC0F7E
:10273000F11D868D8F3F71F1C03108F06DC0642F9F
:1027400014C06D3209F456C068F384EB860F8230F2
:1027500048F7CF73CE0DDF2DD11D8E8D411158C09E
:1027600061E00E94C70560E08E8D0E94990512C04D
:102770002EE1E20EF11CD0E0F70181917F018F3F45
:1027800031F061E0D03108F062E00E94C705DF5F00
:10279000D63191F781E0DF91CF91FF90EF90DF90FC
:1027A000CF90BF90AF909F908F900895C42ED12C62
:1027B000F12CE12C0E9403064B015C01C114D104F1
:1027C000E104F10439F30E940306681979098A09C2
:1027D0009B09683E73408105910580F3F1E0CF1AB3
:1027E000D108E108F10828EE820E23E0921EA11C18
:1027F000B11CE4CF85E090E0433010F082E090E03F
:10280000880F991F880F991F05970197F1F7C2CF7D
:1028100062E00E94C705BECF0E94700521E0892BAF
:1028200009F420E0F701218FB5CFCF92DF92EF922C
:10283000FF920E94A63620E034E244E759E40E9469
:1028400075389B01AC0160E070E080E89FE30E9476
:1028500075386B017C01AC019B0160E074E284E798
:102860009BE40E9475380E94EE386F3F2FEF72078D
:102870008105910508F47CC020E030E040E051E49F
:10288000C701B6010E9407379B01AC0160E074E20A
:1028900084E79BE40E9475380E94EE386F3F2FEF6B
:1028A00072078105910508F465C020E030E040E83A
:1028B00052E4C701B6010E9407379B01AC0160E0FA
:1028C00074E284E79BE40E9475380E94EE386F3F03
:1028D0002FEF72078105910508F44EC020E030E02B
:1028E00040E853E4C701B6010E9407379B01AC01E1
:1028F00060E074E284E79BE40E9475380E94EE3841
:102900006F3F2FEF720781059105C0F120E030E0A5
:1029100040E854E4C701B6010E9407379B01AC01AF
:1029200060E074E284E79BE40E9475380E94EE3810
:102930006F3F2FEF720781059105A8F425E0F89409
:102940001092810061507109709389006093880032
:102950008091810088608093810080918100282B84
:10296000209381007894FF90EF90DF90CF900895AE
:1029700021E0E5CF22E0E3CF23E0E1CF24E0DFCF89
:10298000CF92DF92EF92FF92209143043091440462
:1029900021303105D1F16B017C0120E030E040E8CD
:1029A0005FE30E94A13687FD30C020E030E048ECB4
:1029B00053E4C701B6010E941D39181634F1F8948A
:1029C000C0923B04D0923C04E0923D04F0923E045D
:1029D0007894609111047091120490E080E00E945C
:1029E000A6369B01AC0160EC71EE84E69CE40E948B
:1029F0007538A70196010E9475380E94EE38FF9045
:102A0000EF90DF90CF900C941514FF90EF90DF9033
:102A1000CF9008956091FD057091FE05072E000C82
:102A2000880B990B0E94A8360E94C01480918406DE
:102A3000909185060E945706809189068093A00593
:102A4000E091D404F091D50430E020E040918A0672
:102A50006DE080ED94E0099468EF88E693E00C94D3
:102A60005208CF92DF92EF92FF920F931F93CF9372
:102A7000DF93EC0188810E9470058C010E9428067A
:102A8000CA80DB80EC80FD80AB01BC014C195D0984
:102A90006E097F090115110561F48981813031F4D6
:102AA00091E04B3051056105710508F490E080E03C
:102AB0000EC001301105D1F789818111F7CF81E076
:102AC0004B3051056105710508F480E090E01F82EC
:102AD0001E829923B1F081E090E09F838E830E9453
:102AE00028066B017C01CA82DB82EC82FD820983AD
:102AF000DF91CF911F910F91FF90EF90DF90CF90DA
:102B00000895882381F30E9428062EEEC20E22E04B
:102B1000D21EE11CF11C6C157D058E059F0550F43D
:102B200082E090E09F838E83E885F9853097B9F243
:102B30000995D5CF83E090E09F838E83EA85FB855E
:102B4000F5CF0F931F93CF938C01C62F62E08C2F8C
:102B50000E94C705F801C0838C2F0E947005F80100
:102B60008183CF911F910F910895CF92DF92EF92C1
:102B7000FF92CF93DF93EC0189819A819C838B83B1
:102B800088818E3008F08E508770806480937C003E
:102B900080917A00806480937A0080917A0086FD2B
:102BA000FCCFA0917800B0917900CF80D8840D2C13
:102BB000000CEE08FF0829853A85032E000C440B13
:102BC000550B2C193D094E095F090E9405382FEF5E
:102BD00033E040E050E00E94DB372C0D3D1D4E1DE0
:102BE0005F1D8D819E81281B390B213082E03807C3
:102BF00014F020E032E021158EEF380714F420E0C5
:102C00003EEF3A8329838B85882329F031952195DE
:102C100031093A832983DF91CF91FF90EF90DF90C4
:102C2000CF900895CF92DF92EF92FF920F931F9370
:102C3000CF93DF936C01EB017B01E40EF51E10E0F6
:102C400000E0CE15DF0561F06991D601ED91FC91B0
:102C50000190F081E02DC6010995080F191FF1CFF1
:102C6000C801DF91CF911F910F91FF90EF90DF90FE
:102C7000CF900895CF92DF92EF92FF920F931F9320
:102C8000CF93DF93EC016C0124E0C20ED11CFC0158
:102C9000E057FF4F0190F081E02DC60109958E3F6E
:102CA000EFEF9E07D8F48E010C561F4FF8014081BC
:102CB00051817E01F2E9EF0EF11CF7016081718113
:102CC0009C01C6010E945410C059DF4F2881213059
:102CD000C1F078F02230B9F02330E9F081E090E0E3
:102CE000DF91CF911F910F91FF90EF90DF90CF90E8
:102CF0000895F70120813181820F931F9183808392
:102D0000EDCFF801F7CFF70120813181281B390B76
:102D100031832083E3CFF801F7CF90E080E008957E
:102D2000CF92DF92EF92FF928091430490914404FE
:102D3000019749F5809145049091460420914704FC
:102D4000E22FF0E0E150F04CEE0FFF1FEE0FFF1FFF
:102D5000E80FF91F4081518162817381452B462B19
:102D6000472B89F0FC0130E060E070E0CB012317D5
:102D7000E1F0C190D190E190F1906C0D7D1D8E1D20
:102D80009F1D3F5FF4CFC0903B04D0903C04E09087
:102D90003D04F0903E04C701B6010E94E738CB0124
:102DA000FF90EF90DF90CF90089561157105810538
:102DB000910549F330E050E040E00E944438A09192
:102DC0001304B09114040E9405380E94A6369B019A
:102DD000AC0160EC71EE84E69CE40E9475386B01F6
:102DE0007C0120E030E040E85FE30E94A13687FDEF
:102DF00011C020E030E048EC53E4C701B6010E9466
:102E00001D39181644F6C12CD12C88ECE82E83E429
:102E1000F82EC1CFC12CD12C90E8E92E9FE3F92EDA
:102E2000BACFCF93DF93C9E6D5E060E088810E94F6
:102E300099051982279685E0C339D807B1F7DF9144
:102E4000CF910895FC01493151052CF4161617064F
:102E500074F06FEF7FEF90819B01290F311D37FDDB
:102E60000CC02417350734F041504083089561E0C9
:102E700070E0F1CF492F460FF8CF40E0F6CF0F9327
:102E80001F93CF9347E050E0BC018FE796E00E948C
:102E9000221710927D0608EF15E0C1E0F801C0830B
:102EA0000E942806F8016183728383839483C09310
:102EB0008B06CF911F910F9108958091C8050E94B4
:102EC0007005892BF9F480917F0681110CC0EDEF1C
:102ED000F5E091E080898927808B759686E0EB3755
:102EE000F807C1F708958150990B25E1289FF0015B
:102EF000299FF00D1124E350FA4F808991E0892732
:102F0000808B08958091070490910804892B41F4E7
:102F10000E9434060E94111781E080938B06089569
:102F20000E940F05F7CF8F929F92AF92BF92CF92E0
:102F3000DF92EF92FF920F931F93809184069091FE
:102F40008506009711F0049791F40E9411170E94D2
:102F5000C90481E080938B061F910F91FF90EF9041
:102F6000DF90CF90BF90AF909F908F900895809109
:102F7000430490914404019761F7F8948091070409
:102F8000909108048130910521F0029799F078948E
:102F9000E0CF82E090E090930804809307040E94C1
:102FA0000306609327047093280480932904909368
:102FB0002A04EDCF0E940306AB01BC0180912704D7
:102FC00090912804A0912904B0912A044817590728
:102FD0006A077B0708F46FC08A019B01081B190B65
:102FE0002A0B3B0BD901C80180933304909334041E
:102FF000A0933504B09336044093270450932804DB
:103000006093290470932A0440912B0450912C045E
:1030100060912D0470912E044F5F5F4F6F4F7F4F73
:1030200040932B0450932C0460932D0470932E0432
:1030300020914804309149042F5F3F4F3093490459
:1030400020934804409147044217130609F020F4E6
:103050001092490410924804209148043091490488
:10306000220F331F220F331FE0914504F0914604D5
:10307000E20FF31F80839183A283B38380912B049B
:1030800090912C04A0912D04B0912E042091330432
:103090003091340440913504509136040197A105D4
:1030A000B10591F420932F04309330044093310400
:1030B000509332046CCF80959095A095B095840F75
:1030C000951FA61FB71F90CF80902F0490903004BB
:1030D000A0903104B0903204A4E2B0E00E94FA372C
:1030E0006B017C01ACEDB0E0A50194010E94FA37C0
:1030F000C60ED71EE81EF91ECD2CDE2CEF2CFF24A9
:10310000C0922F04D0923004E0923104F092320445
:103110003ECF24E030E044E050E064E070E088E33B
:1031200090E00C948E0D8F929F92AF92BF92CF92AF
:10313000DF92EF92FF920F931F93CF93DF935C0187
:103140006B018DEF95E00E94C10EC0917D0628E0D5
:10315000E22EF12C29E0C216D10419F099E0E92EF3
:10316000F12CCE151F0409F0B3C0C33008F0C2E043
:103170003EE0C39FE00111244E0182E0880E911CC5
:1031800080918806882309F4ABC02FE030E04FE33C
:1031900050E0B40181E490E00E948E0D81E00E9435
:1031A0003C0530E020E043E050E070E060E090E07B
:1031B00080E00E94F00C23E030E050E040E070E05E
:1031C00060E090E080E00E94F00C30E020E04DE311
:1031D00050E070E060E080E490E00E94F00C23E0BA
:1031E00030E040E450E070E060E080E490E00E9475
:1031F000F00C2EE230E040E450E061E370E080E467
:1032000090E00E94F00C21E330E04DE350E061E3F8
:1032100070E080E490E00E94F00C21E330E043E0B5
:1032200050E061E370E090E080E00E94F00C2EE25C
:1032300030E050E040E061E370E090E080E00E9428
:10324000F00C82E00E943C0520917D06822F90E0E8
:10325000E816F90609F081C0F3E0CF1AD10826E09C
:103260002C9DC0012D9D900D1124A80EB91ECDE0FE
:10327000D0E00DE414E08CE7C82ED12CF501E080FD
:10328000F1801093D3040093D204C7010E94E40F8D
:103290001093D3040093D204A701BE019601281B0A
:1032A000390BC9010E94841136E0A30EB11C2E9681
:1032B000C733D10519F7DF91CF911F910F91FF907F
:1032C000EF90DF90CF90BF90AF909F908F90089538
:1032D000C11103C0D0E0C0E04FCFCEE0D0E04CCF72
:1032E0008E010F5E1F4F20E830E0A40161E470E022
:1032F00080ED94E00E941F0B882309F4A5CF00E025
:103300002FE330E0A40161E470E080ED94E00E94DE
:103310001D0C4E01E3E08E0E911C01E02DE030E02B
:10332000A40161E470E080ED94E00E941D0C2DE0AA
:1033300030E0A4016FE770E080ED94E00E941D0C86
:10334000AE01405F5F4F00E02FE330E061E470E0EA
:1033500080ED94E00E941D0C77CFD12CC12C22234C
:1033600009F47DCF6C0121E0C21AD10878CFEF9229
:10337000FF920F931F93CF93DF93EC017B01CA0160
:103380000E94C10E0DE414E01093D3040093D20404
:10339000CE010E94E40F1093D3040093D20497FD52
:1033A000019695958795919581959109AE01B70103
:1033B0008096DF91CF911F910F91FF90EF900C9429
:1033C00084112F923F924F925F927F928F929F92A1
:1033D000AF92BF92CF92DF92EF92FF920F931F9323
:1033E000CF93DF93EC01762E590147018D81312C6B
:1033F000212C861324C0052E000C660B770B9A0136
:10340000AB013E5F4F4F5F4FB701FF0C880B990B2D
:103410006801012E000CEE08FF086C197D098E0969
:103420009F090E94223920E034E040E050E00E94F1
:10343000DB3719012A012C0C3D1C4E1C5F1C8E81B0
:1034400030E020E0871121C06801110FEE08FF086D
:103450009501BB0C440B550B3E5F4F4F5F4F092C42
:10346000000CAA08BB08C501B4016C197D098E09BE
:103470009F090E94223920E034E040E050E00E94A1
:10348000DB372C0D3D1D4E1D5F1DC101820F931FAB
:10349000DF91CF911F910F91FF90EF90DF90CF9030
:1034A000BF90AF909F908F907F905F904F903F9094
:1034B0002F900895EF92FF920F931F93CF93DF9376
:1034C000EC019A0180E2E82EF12C10E000E0AB0163
:1034D00066E0CE010E94E1199C019F81A901490F7C
:1034E000511D81E01416150634F4892F820F4132E4
:1034F00051050CF080E2DF91CF911F910F91FF9069
:10350000EF900895EF92FF920F931F93CF93DF9365
:10351000EC019A018CE0E82EF12C04EF1FEFAB01D7
:1035200061E0CE010E94E1192881820F911D89314D
:10353000910514F088E190E097FF02C090E080E0F0
:10354000DF91CF911F910F91FF90EF9008952F92EF
:103550003F924F925F926F927F928F929F92AF9223
:10356000BF92CF92DF92EF92FF920F931F93CF9370
:10357000DF93EC01A090E105B090E2058090ED05AD
:103580009090EE05A401B5010E94821A6C01E2E35D
:10359000EE2EF12C0EEC1FEF9401A50163E0CE019D
:1035A0000E94E1192C019401A50164E0CE010E9462
:1035B000E1196B80680E792E711C84E6681671041F
:1035C0001CF073E6672E712C77FE02C0712C612C03
:1035D00059E1E52EF12C07EE1FEF9401A50165E0FE
:1035E000CE010E94E119AC80A80EB92EB11CF601E3
:1035F000EE0FFF1FE859FF4FC590D490F12CE12C3E
:103600008A81840D952D911D8436910514F083E6F1
:1036100090E01816190614F081E090E0092E000CD5
:10362000AA0BBB0B44E6242E312C412C512CA201B9
:103630009101281B390B4A0B5B0BC701B6010E9495
:10364000223921E030E0683C71058105910524F0C4
:10365000A20191010E94DB37388B2F87C301770CC1
:10366000AA0BBB0B34E6432E512C612C712CA30109
:103670009201281B390B4A0B5B0BC701B6010E9454
:103680002239A30192010E94DB373A8B298B83E315
:10369000A816B1049CF1C5018036910514F08FE5A0
:1036A00090E0C297092E000CAA0BBB0B24E6822ED9
:1036B000912CA12CB12CA5019401281B390B4A0B8C
:1036C0005B0BC701B6010E942239A50194010E943B
:1036D000DB373C8B2B8BDF91CF911F910F91FF90AC
:1036E000EF90DF90CF90BF90AF909F908F907F90A2
:1036F0006F905F904F903F902F9008951C8A1B8A87
:10370000EACF8F929F92AF92BF92CF92DF92EF92C9
:10371000FF92FC01138214821582168290819923F4
:1037200091F141E050E060E070E0438354836583B1
:10373000768321E030E080E0A92FB0E0812C912C4D
:10374000540183942A173B07F4F44181840F8917AD
:10375000B8F0891B438154816581768175016401CC
:10376000022E04C0CC0CDD1CEE1CFF1C0A94D2F708
:103770004C295D296E297F29438354836583768391
:103780002F5F3F4FDFCFFF90EF90DF90CF90BF9044
:10379000AF909F908F900895AF92BF92CF92DF929B
:1037A000EF92FF920F931F93CF93DF938C01EC0165
:1037B00088E790E089939993680180E8C80ED11C4E
:1037C00080E1A82E94E6B92E22E3E22EFF24F394A2
:1037D00019861A861B861C861D86A882B982EA82F3
:1037E0001B82EC821D821E82FF82F886CE01079624
:1037F0000E94811BCE010E94A71A6596CC15DD059B
:1038000039F71882F801EF57FF4F10823196108276
:103810003196108231961082319610823196108244
:10382000319611821082329681E090E091838083FC
:103830003296108231961082319610823196F08243
:10384000DF91CF911F910F91FF90EF90DF90CF907C
:10385000BF90AF900895CF93DF93EC0160E08D812E
:103860000E9499051E82DF91CF910895CF92DF9239
:10387000EF92FF920F931F93CF93DF931F92CDB7D9
:10388000DEB78C018091C8050E947005892B69F410
:10389000C8010E943F170F90DF91CF911F910F91A8
:1038A000FF90EF90DF90CF90089520917F06809158
:1038B000880681110CC04AE050E0222311F049E053
:1038C00050E0B8018DE796E00E9422172DC0E091EC
:1038D0007D06211179C0EA3038F5F0E0EE58F34E5C
:1038E0000C9446397C1CB01C981CA41CC31CDB1C0B
:1038F000DB1CE11CE11CDB1C80914304909144041F
:10390000019791F00E949016800F911FBC01990FB2
:10391000880B990B0E94A8360E94C0140E94901632
:103920009093FE058093FD0581E080938B06B3CFD5
:1039300043E050E0B8018EE796E00E9422178091A4
:103940007E0680938206F0CF43E050E0B8018EE718
:1039500096E00E94221780917E0680938306E4CF32
:1039600080918406898345E050E0B801CE0101963C
:103970000E942217898190E09093850680938406A7
:103980000E945706D1CF80918606898344E050E09B
:10399000B801CE0101960E942217898190E0909390
:1039A000870680938606892B09F0BECF8EE895E0C6
:1039B0000E942B1CB9CF42E050E0B8018EE796E0A0
:1039C00083CF4BE050E0F9CF2150330B45E1429FCC
:1039D000C001439F900D1124AC0141505A4F7A0110
:1039E000E93008F0A1CFF0E0E850F34E0C944639EE
:1039F000011D221D401D5F1D7D1D9C1DBF1DE11D64
:103A0000F91D85E1829FF001839FF00D1124E350A1
:103A1000FA4F8281080F111D17FD12C009311105DF
:103A200014F008E110E085E1829FF001839FF00D22
:103A30001124E350FA4F0283C7010E94A71A74CFE2
:103A400000E0F1CF85E1829FF001839FF00D11240A
:103A5000E350FA4F8381080F111D17FD0FC0053683
:103A6000110514F004E610E085E1829FF001839FC8
:103A7000F00D1124E350FA4F038356CF00E0F4CF4A
:103A800085E1829FF001839FF00D1124E350FA4FEE
:103A90008481080F111D101611067CF404361105DF
:103AA00014F003E610E085E1829FF001839FF00DA2
:103AB0001124E350FA4F0483BFCF01E0F4CF85E136
:103AC000829FF001839FF00D1124E350FA4F85810E
:103AD000080F111D17FD0FC00436110514F003E681
:103AE00010E085E1829FF001839FF00D1124E350E7
:103AF000FA4F0583A1CF00E0F4CF85E1829FF0016A
:103B0000839FF00D1124E350FA4F8681080F111D99
:103B1000023311057CF00036110514F00FE510E0BA
:103B200085E1829FF001839FF00D1124E350FA4F4D
:103B3000068382CF02E3F4CFFA016781060F111DDD
:103B4000AC014A5F594F10161106BCF40132110541
:103B500014F000E210E085E1829FF001839FF00DF8
:103B60001124E350FA4F01879285091708F4902F2A
:103B70009287CA010E94811BD7CE01E0ECCFFA01E7
:103B80006085060F111D8A5F994F41E010161106DE
:103B900074F445E1429FF001439FF00D1124E3507E
:103BA000FA4F418550E0041715070CF4A80155E1C0
:103BB000529FF001539FF00D1124E350FA4F4287BA
:103BC000D9CF45E1429FC001439F900D11249C0134
:103BD00023503A4F6901F9018781898348E050E019
:103BE000B801CE0101960E9422178981F6018783D0
:103BF00023CF45E1429FC001439F900D11249C01BA
:103C000023503A4F6901F9018085898348E050E0EB
:103C1000B801CE0101960E9422178981F6018087A2
:103C20000BCF6CEF88E693E00C9452086AEF88E6BD
:103C300093E00C9452088C3F28F48A3F88F4883F24
:103C400021F008958C3F41F00895E091D502F09164
:103C5000D602309749F009940E940F050C94111E6A
:103C60000E9434060C94161E08958F929F92AF9274
:103C7000BF920F931F93CF93DF93CDB7DEB7A1977A
:103C80000FB6F894DEBF0FBECDBF19A2423008F4C4
:103C90004AE08E010F5D1F4F842E912CB12CA12C78
:103CA000A50194010E944438E62FB901CA01EA3007
:103CB00044F5E05DD801EE938D01232B242B252BB9
:103CC00079F790E080E0109769F0FD010190002005
:103CD000E9F73197AF014A1B5B0BBD018CEC94E017
:103CE0000E941216A1960FB6F894DEBF0FBECDBF8C
:103CF000DF91CF911F910F91BF90AF909F908F90C8
:103D00000895E95CD7CFDF92EF92FF920F931F9354
:103D1000CF93DF93F8942091FD053091FE05309309
:103D20001F0320931E0390917D0690932003909192
:103D30007F069093210390918406909322039091A3
:103D4000860690932303909182069093240390918A
:103D5000830690932503EDEFF5E0AEE1B3E09281A9
:103D600018969C931897938119969C931997948110
:103D70001A969C931A9795811B969C931B979681F4
:103D80001C969C931C9791851D969C931D979285DC
:103D90001E969C931E9797811F969C931F979085C4
:103DA00050969C9350977596199696E0EB37F907C5
:103DB000B1F60EE113E0C3E1D0E0CE51D340EEE323
:103DC0008E9FC00DD11D1124F801D1908F017E016D
:103DD000EE0EFF1EC7010E94C537D81621F06D2DCB
:103DE000C7010E94CD37F3E00C351F0769F77894BF
:103DF000DF91CF911F910F91FF90EF90DF90089589
:103E0000EF92FF920F931F93CF93DF937C018C016E
:103E1000D0E0C0E0CE010E94C537F80181938F0148
:103E20002196C431D105B1F7C701DF91CF911F9120
:103E30000F91FF90EF900895EF92FF920F931F93D1
:103E4000CF93DF93F89400EE12E07801C4E1D0E064
:103E5000C05ED2402EE3829FC00DD11D1124CE0141
:103E60008E0D9F1D0E94C537F70181937F01FEE1F2
:103E7000EF16F3E0FF0699F78091E0029091E102DE
:103E80009093FE058093FD058091E20280937D066C
:103E90008091E30280937F068091E40290E090930A
:103EA0008506809384068091E50290E090938706D2
:103EB000809386068091E602809382068091E702D5
:103EC00080938306CFEFD5E0F801808590E08931BB
:103ED000910514F088E190E08883CE010E94A71A32
:103EE000F801818590E08536910514F084E690E034
:103EF0008983F801828590E0009709F46AC08436CE
:103F0000910514F083E690E08A83CE010E94A71AFF
:103F1000F801838590E08436910514F083E690E003
:103F20008B83CE010E94A71AF801848590E082332A
:103F300091050CF450C08036910514F08FE590E0A7
:103F40008C83CE010E94A71AF801858590E07E013E
:103F5000F7E0EF0EF11C009709F43FC081329105A4
:103F600014F080E290E08F839885891708F4982FE9
:103F70009887C7010E94811BF801268530E081E007
:103F80002115310531F08F8190E0281739070CF4A5
:103F9000C9018887C7010E94811BF80187858D832D
:103FA000CE010E94A71AF80180898E83CE010E945B
:103FB000A71A075F1F4F6596F6E0CD37DF0709F0B8
:103FC00083CF7894DF91CF911F910F91FF90EF9065
:103FD000089581E099CF82E3B3CF81E0C4CFDF922F
:103FE000EF92FF920F931F93CF93DF93CDB7DEB77E
:103FF00064970FB6F894DEBF0FBECDBFF89469E8A2
:1040000071E0CE0101960E945B3B63E871E0CE0156
:104010000D960E945B3B809181068A8B8091890678
:104020008B8B80918A068C8BCE0101967C0110E0EF
:1040300000E0F701D1907F01C8010E94C537D81672
:1040400021F06D2DC8010E94CD370F5F1F4F043145
:10405000110579F7789464960FB6F894DEBF0FBE19
:10406000CDBFDF91CF911F910F91FF90EF90DF9027
:104070000895CF92DF92EF92FF920F931F93CF9309
:10408000DF93CDB7DEB7C35AD1090FB6F894DEBFC0
:104090000FBECDBFF89410E000E060E0C8010E94C0
:1040A000CD370F5F1F4F011584E01807B1F70E944D
:1040B000EF1FCE0101960E94CC1B89819A819093BB
:1040C000FE058093FD05CF57DF4F8881C158D04052
:1040D00080937D06CD57DF4F8881C358D0408093B1
:1040E0007F06C857DF4F88819981C858D040909388
:1040F000850680938406C657DF4F88819981CA5808
:10410000D0409093870680938606CA57DF4F8881F8
:10411000C658D04080938206C957DF4F8881C75860
:10412000D040809383060FEF15E080E1C82E94E61F
:10413000D92E22E3E22EFF24F394F801C082D1822B
:10414000E2821382E48215821682F782F086C80129
:1041500007960E94811BC8010E94A71A0B5E1F4F81
:10416000F6E00D371F0749F7F894CE0180579F4FAF
:104170000E94001FCF55DF4F8881C15AD0408093E5
:104180008106CE55DF4F8881C25AD0408093890680
:1041900078941092F80510E010938106812F0E9408
:1041A000831E1F5F1A30C1F7809181068B3018F48F
:1041B0008AE00E94831E7894CD55DF4F0FB6F894A5
:1041C000DEBF0FBECDBFDF91CF911F910F91FF904A
:1041D000EF90DF90CF900895CF9380918806882349
:1041E000E9F080917F0681110AC080917D068730B9
:1041F00009F447C0E8F4853031F1863079F181E087
:104200008093F8050E9428066093F9057093FA05DB
:104210008093FB059093FC0510927E0680918806A2
:1042200091E089278093880690938B06CF9108951B
:10423000883099F1893019F780917E068111DFCF9E
:104240000E94392038C081E090917E06913009F0BB
:1042500080E0809389068093A005D1CF41E08091D2
:104260007E06813009F040E040938A06E091D40454
:10427000F091D50430E020E06DE080ED94E0099508
:10428000BECF80917E068A3008F0B9CF8093810638
:104290000E94831E0E94EF1FB2CFC0917E06CA30DB
:1042A00008F0ADCFC09381068C2F0E941C1FC093D5
:1042B00081060E94EF1F0E940A15A1CF0F931F9342
:1042C000CF93DF938C01EB01FC01808191810097FA
:1042D000E1F06881798161157105A9F0428153810E
:1042E0002C813D814217530770F00E945B3B8C810B
:1042F0009D81F801958384831D821C82DF91CF917B
:104300001F910F9108950E94FC3988819981F801CD
:10431000918380838A819B81938382838C819D8119
:1043200095838483198218821B821A82E5CFCF93EA
:10433000DF93EC0188819981009711F00E94FC398C
:10434000198218821D821C821B821A82DF91CF91F2
:104350000895FC0180819181009711F00C94FC3943
:1043600008950F931F93CF93DF93EC018881998178
:10437000009759F02A813B812617370730F081E0FA
:10438000DF91CF911F910F9108958B016F5F7F4F48
:104390000E94853A009759F0998388831B830A838A
:1043A0002C813D81232B59F7FC011082E8CF80E05E
:1043B000E7CFEF92FF920F931F93CF93DF93EC0120
:1043C0007B01CB010E9463360097A9F00C811D810F
:1043D000080F191FB801CE010E94B121882399F05E
:1043E000288139818C819D81B701820F931F0E94A2
:1043F0005C361D830C83CE01DF91CF911F910F910D
:10440000FF90EF900895CE010E949721F4CFEF9294
:10441000FF920F931F93CF93DF936115710541F4C2
:1044200080E0DF91CF911F910F91FF90EF90089561
:1044300041155105B1F07B01EC010C811D81040F88
:10444000151FB8010E94B121882351F328813981B9
:104450008C819D81B701820F931F0E945B3B1D835E
:104460000C8381E0DECFEF92FF920F931F93CF93E7
:10447000DF93EC018B01CB010E9463367C01BC0110
:10448000CE010E94B12181110BC0CE010E94972163
:10449000CE01DF91CF911F910F91FF90EF90089582
:1044A000FD82EC82B801888199810E945C36F0CF50
:1044B000FC011182108213821282158214820C94E4
:1044C0003322EF92FF920F931F93CF93DF93EC0170
:1044D0007B018A01BA010E94B12181110BC0CE017A
:1044E0000E949721CE01DF91CF911F910F91FF90F4
:1044F000EF9008951D830C83B701888199810E94F4
:104500005B3BF0CFFB0101900020E9F73197AF0151
:10451000461B570B0C9461220F931F93CF93DF938D
:10452000CDB7DEB762970FB6F894DEBF0FBECDBF32
:104530008C01CB01F8011182108213821282158244
:1045400014824AE0BE016F5F7F4F0E946C36BE014D
:104550006F5F7F4FC8010E94822262960FB6F89467
:10456000DEBF0FBECDBFDF91CF911F910F91089598
:104570000F931F93CF93DF93CDB7DEB729970FB675
:10458000F894DEBF0FBECDBF8C01862FF8011182DB
:10459000108213821282158214824AE0BE016F5F7C
:1045A0007F4F90E00E947736BE016F5F7F4FC8015A
:1045B0000E94822229960FB6F894DEBF0FBECDBFAF
:1045C000DF91CF911F910F910895CF93DF93EC016D
:1045D000FB018617970749F06081718161157105AC
:1045E00041F0448155810E946122CE01DF91CF913B
:1045F00008950E949721F9CFFC0111821082138245
:104600001282158214820C94E522FC011182108220
:104610001382128215821482FB0101900020E9F7B7
:104620003197AF01461B570B0C94612285ED8093A7
:10463000BC008091620290916302A0916402B091EB
:1046400065020796A11DB11D23E0B695A795979524
:1046500087952A95D1F72091BC0024FD03C01092C4
:10466000AF0208954091620250916302609164022A
:1046700070916502452B462B472B69F30097A105E6
:10468000B10541F02AE22A95F1F700C00197A1098E
:10469000B109E1CF809161020C943607FC01A08141
:1046A000B18150962C9182AD38E0839FC0011124D6
:1046B000289FA001299F500D112470E060E080AD7B
:1046C00091AD0C944B3B1F93CF93DF93EC010E9471
:1046D000E0111BAD8AAD180FE881F98181891817A7
:1046E00068F0EC81FD8130E020E040E060E1CE0147
:1046F000099580E0DF91CF911F910895FE01E55764
:10470000FF4F8081882319F0CE010E944E23612F34
:10471000CE010E94CD1181E0EDCFCF93DF93EC016C
:10472000FC01E557FF4F8081882319F0CE010E94DC
:104730004E2360E0CE01DF91CF910C94CD112F92EA
:104740003F924F925F926F927F928F929F92AF9221
:10475000BF92CF92DF92EF92FF920F931F93CF936E
:10476000DF93CDB7DEB72B970FB6F894DEBF0FBE41
:10477000CDBF2B013C016DEF262E65E0362E24E6E1
:1047800035E03A8329831C821B821D82D101509619
:104790008C91882329F089819A810E942B1C05C164
:1047A0006101B2E0CB0ED11CF1018781811103C000
:1047B0008085882319F0C6010E94A71AA090E10500
:1047C000B090E2058090ED059090EE05A401B50152
:1047D000C6010E94821A9987888742E3E42EF12C51
:1047E0000EEC1FEF9401A50162E0C6010E94E119E1
:1047F0007C01E885F985EE0FFF1FE859FF4F859092
:104800009490D10155960D90BC91A02DB987A887A1
:10481000B12CA12CAB2B51F0C301B201A501940125
:104820000E94443820FD02C01986188648855985A3
:104830009A0150E040E0288739874A875B87A98141
:10484000BA8116968C9181118BC0F101838994896C
:10485000A3019201280F391F411D511DCA01B90141
:10486000288539854A855B85620F731F841F951FD4
:10487000A50194010E944438672B682B692B09F02D
:104880006FC0D1011396CC900E940436F10141858E
:10489000442309F465C055E12B813C81529FF0010E
:1048A000539FF00D1124E350FA4F538500E050322E
:1048B00078F4D1011C960D911D912D913C911F977B
:1048C00004C036952795179507955A95D2F701702C
:1048D00055E12B813C81529FF001539FF00D112433
:1048E000E350FA4F23854150550B241715060CF061
:1048F00069C023852F5F35E1AB81BC813A9FF00110
:104900003B9FF00D1124E350FA4F2387002341F120
:10491000CE0CDF2CD11C45E6C416D1041CF034E6C5
:10492000C32ED12CD7FE02C0D12CC12C0D2C000CD3
:10493000EE08FF0824E630E040E050E00E94DB375C
:10494000C616D706E806F9065CF061E0A981BA81CF
:1049500015968C910E94990581E0E981FA81868300
:10496000D10151968D919C91529753964D915C91A6
:1049700070E060E0480F591F611D711DCB01BA0145
:10498000640D751D861D971D288539854A855B85B3
:10499000620F731F841F951FA50194010E94443864
:1049A000672B682B692B09F4F6CED10117968C91F1
:1049B0001797811109C018968C91882339F0E1E08E
:1049C000ED8304C020E097CFB1E0BD832B813C8113
:1049D0002F5F3F4F3C832B8335E1230E311C4981F0
:1049E0005A81495F5F4F5A8349838B819C81069727
:1049F00009F0CCCE8091860690918706009709F445
:104A00003BC08230910559F08330910509F457C0BD
:104A1000019749F428E130E03F832E8304C0A3E1ED
:104A2000B0E0BF83AE83EE81FF81EE0FFF1FE85938
:104A3000FF4FC590D490812C912C5401839434E085
:104A4000C316D10428F0460196948794B12CA12C6A
:104A5000F12CE12CC301B201A70196010E94443858
:104A6000672B682B692B81F561E0809193050E948B
:104A7000990581E08093940580918806811106C094
:104A800080918B064D81842B80938B062B960FB6DD
:104A9000F894DEBF0FBECDBFDF91CF911F910F9174
:104AA000FF90EF90DF90CF90BF90AF909F908F904E
:104AB0007F906F905F904F903F902F900895E0E12E
:104AC000F0E0FF83EE83AFCFC501B401640D751D27
:104AD000861D971DA70196010E944438672B682BFD
:104AE000692B51F68EE895E00E942B1CC5CF1F92D2
:104AF0000F920FB60F9211242F933F938F939F9392
:104B0000AF93BF938091D8029091D902A091DA021D
:104B1000B091DB023091D70223E0230F2D3758F5F7
:104B20000196A11DB11D2093D7028093D8029093C6
:104B3000D902A093DA02B093DB028091DC0290915B
:104B4000DD02A091DE02B091DF020196A11DB11D30
:104B50008093DC029093DD02A093DE02B093DF022B
:104B6000BF91AF919F918F913F912F910F900FBE69
:104B70000F901F90189526E8230F0296A11DB11DD6
:104B8000D2CF1F920F920FB60F9211242F933F9303
:104B90004F935F936F937F938F939F93AF93BF9345
:104BA000EF93FF93E0910201F09103010995FF91CA
:104BB000EF91BF91AF919F918F917F916F915F9195
:104BC0004F913F912F910F900FBE0F901F9018950E
:104BD0001F920F920FB60F9211242F933F934F9372
:104BE0005F936F937F938F939F93AF93BF93EF9355
:104BF000FF93E0910001F09101010995FF91EF9180
:104C0000BF91AF919F918F917F916F915F914F91E4
:104C10003F912F910F900FBE0F901F9018951F92EC
:104C20000F920FB60F9211242F933F934F935F93E0
:104C30006F937F938F939F93AF93BF93EF93FF9364
:104C40008091B900887F803609F44AC0F0F5883237
:104C500009F4A7C018F5803109F49BC0B8F4882383
:104C600009F4F9C0883009F494C0FF91EF91BF9125
:104C7000AF919F918F917F916F915F914F913F91F4
:104C80002F910F900FBE0F901F901895883109F447
:104C900088C0803251F78093AE0214C0803409F48A
:104CA0009DC040F48033B9F38833F9F68093AE02A7
:104CB00085ECB0C0803509F485C0883509F496C00C
:104CC000883499F60E941623D0CF883909F48CC015
:104CD00038F5883729F050F4883611F0803729F6F6
:104CE00083E08093AF021092AD0257C0883809F478
:104CF0007BC0803919F0803809F0B7CF8091AD02C0
:104D0000803208F071C0E091AD0281E08E0F809397
:104D1000AD028091BB00F0E0E357FD4F80833DC0C2
:104D2000803B39F0E0F4803A09F479C0883A09F020
:104D30009CCF84E08093AF0210928A021092890285
:104D4000E0918702F0918802099580918902811192
:104D50000FC081E0809389021092670209C0803CF5
:104D600009F4A6CF883C09F4A3CF883B09F07DCF96
:104D7000E0918A0281E08E0F80938A02F0E0E95987
:104D8000FD4F80818093BB0090918A0280918902BF
:104D900029C08091D4028093BB0085EC8093BC0035
:104DA00064CF9091D3028091D202981758F5E09188
:104DB000D30281E08E0F8093D302F0E0EE54FD4FDA
:104DC0008081E9CFE091D30281E08E0F8093D302FE
:104DD0008091BB00F0E0EE54FD4F80839091D302B0
:104DE0008091D2029817C8F285E8D8CFE091D3021B
:104DF00081E08E0F8093D3028091BB00F0E0EE54EF
:104E0000FD4F80838091B10281115CCF81E080935E
:104E1000B00284EA8093BC001092AF0226CF85ECEA
:104E20008093BC001092AF028091AD02803230F4CA
:104E3000E091AD02F0E0E357FD4F10826091AD02CA
:104E400070E0E0918B02F0918C028DE892E0099580
:104E50001092AD020ACF1092AE0234CF1F920F9281
:104E60000FB60F9211242F933F934F935F936F933D
:104E70007F938F939F93AF93BF93EF93FF9388E6B6
:104E800093E00E943008FF91EF91BF91AF919F9105
:104E90008F917F916F915F914F913F912F910F90E3
:104EA0000FBE0F901F9018951F920F920FB60F9282
:104EB00011242F933F934F935F936F937F938F931F
:104EC0009F93AF93BF93EF93FF93CF93DF931F9283
:104ED000CDB7DEB781E08983E0910504F091060447
:104EE000309761F0A0917803B09179036C91A09113
:104EF0007E03B0917F038C910995898389818823F2
:104F0000E1F0E0917803F09179038081E0917E03F4
:104F1000F0917F0382FD25C09081809181038F5F96
:104F20008F7320918203821741F0E0918103F0E0BA
:104F3000E859FC4F958F809381030F90DF91CF91BB
:104F4000FF91EF91BF91AF919F918F917F916F9161
:104F50005F914F913F912F910F900FBE0F901F9037
:104F600018958081EACF1F920F920FB60F921124ED
:104F70008F929F92AF92BF92CF92DF92EF92FF9269
:104F80000F931F932F933F934F935F936F937F9351
:104F90008F939F93AF93BF93EF93FF930E94280645
:104FA000609316027093170280931802909319026F
:104FB0008091070490910804029709F072C1C09093
:104FC0001E04D0901F0480911D048C151D0411F443
:104FD00010921D0480911D04811106C1809143042B
:104FE00090914404019709F0ECC04091190450914C
:104FF0001A0460911B0470911C0480912B04909101
:105000002C04A0912D04B0912E04481759076A076B
:105010007B0780F080912B0490912C04A0912D04AB
:10502000B0912E040196A11DB11D84179507A60706
:10503000B70720F520912B0430912C0440912D04CA
:1050400050912E042093190430931A0440931B04AA
:1050500050931C04F12CE12CC701B6010E942239A7
:1050600060931504709316048093170490931804AA
:10507000A70196010E94443860931D04C0902F043C
:10508000D0903004E0903104F09032040E94030686
:1050900000912704109128042091290430912A04BA
:1050A000601771078207930708F416C1601B710B24
:1050B000820B930B60933704709338048093390408
:1050C00090933A0400912B0410912C0420912D040C
:1050D00030912E048090190490901A04A0901B0423
:1050E000B0901C04081519052A053B0508F4FDC0FD
:1050F00044E0660F771F881F991F4A95D1F7672FE5
:10510000782F892F9927C61AD70AE80AF90AA09199
:105110001304B0911404A70196010E9405380E945F
:10512000A6369B01AC0160EC71EE84E69CE40E9423
:1051300075386B017C0120E030E040E85FE30E94BD
:10514000A13687FDF0C020E030E048EC53E4C70111
:10515000B6010E941D39181634F4C12CD12C98ECDC
:10516000E92E93E4F92EA701960160913B0470911A
:105170003C0480913D0490913E040E94A136882316
:1051800001F1C0923B04D0923C04E0923D04F092C5
:105190003E04609111047091120490E080E00E943E
:1051A000A6369B01AC0160EC71EE84E69CE40E94A3
:1051B0007538A70196010E9475380E94EE380E944A
:1051C00015148091190490911A04A0911B04B091B8
:1051D0001C040196A11DB11D8093190490931A041B
:1051E000A0931B04B0931C0480911D048F5F8093D7
:1051F0001D04E0910B04F0910C04309781F1209193
:10520000200480912104909122042817190611F49A
:10521000109220048091200481111CC0609123040D
:105220007091240480912504909126040995809121
:10523000230490912404A0912504B09126040196A2
:10524000A11DB11D8093230490932404A0932504F1
:10525000B0932604809120048F5F80932004E09116
:105260000904F0910A043097E1F0609115047091FF
:1052700016048091170490911804099580911504E3
:1052800090911604A0911704B09118040196A11DE5
:10529000B11D8093150490931604A0931704B09346
:1052A0001804FF91EF91BF91AF919F918F917F91E2
:1052B0006F915F914F913F912F911F910F91FF90AF
:1052C000EF90DF90CF90BF90AF909F908F900F9016
:1052D0000FBE0F901F901895009510952095309552
:1052E000600F711F821F931FE5CE6C157D058E0523
:1052F0009F0508F00CCFA7019601261B370B480B22
:10530000590BDA01C90124E0880F991FAA1FBB1F9E
:105310002A95D1F7892F9A2FAB2FBB27C80ED91EFC
:10532000EA1EFB1EF4CEC12CD12C80E8E82E8FE3C0
:10533000F82E19CF1F920F920FB60F9211240F93D0
:105340001F932F933F934F935F936F937F938F930D
:105350009F93AF93BF93CF93DF93EF93FF93C0914E
:105360004A04D0914B04209709F45BC08C850E94BD
:105370007005182F8E850E947005880F991F812B4C
:105380009A89891709F44DC0EA890B891C892D89EE
:105390003E8994E0E902F0011124482F082E000C08
:1053A000550BE42BF52BE25FFE4F9081492F990FAF
:1053B000550B660B770B400F511F621F731F4B8BF2
:1053C0005C8B6D8B7E8B8A8B2889398922303105E5
:1053D00031F123303105D1F12130310511F5833020
:1053E00001F58B899C89AD89BE8932E0B595A79579
:1053F000979587953A95D1F78F8B988FA98FBA8F0C
:105400008F8D98A1A9A1BAA18BA39CA3ADA3BEA384
:105410000E9428066F8F78A389A39AA302C08823CD
:1054200001F3FF91EF91DF91CF91BF91AF919F91E8
:105430008F917F916F915F914F913F912F911F912C
:105440000F910F900FBE0F901F901895882311F0A9
:10545000833039F78B899C89AD89BE89B595A7952D
:1054600097958795C9CF1F920F920FB60F9211246F
:105470002F933F934F935F936F937F938F939F935C
:10548000AF93BF93EF93FF930E949A29FF91EF91FF
:10549000BF91AF919F918F917F916F915F914F914C
:1054A0003F912F910F900FBE0F901F901895CF93A3
:1054B000DF9310925F0310925E0388EE93E0A0E00A
:1054C000B0E08093600390936103A0936203B09374
:1054D000630329E931E030935D0320935C0310926C
:1054E0006B0310926A0380936C0390936D03A093F7
:1054F0006E03B0936F038BEA91E0909369038093FE
:10550000680385EC90E0909375038093740384ECBA
:1055100090E0909377038093760380EC90E09093F3
:1055200079038093780381EC90E090937B038093E0
:105530007A0382EC90E090937D0380937C0386EC69
:1055400090E090937F0380937E03109281031092EA
:105550008203109283031092840310920604109227
:10556000050480E690E09093120480931104C8E152
:10557000D0E0D0931404C093130410924604109208
:10558000450480E090E0A0EFB2E480933B04909368
:105590003C04A0933D04B0933E0410923F0410924B
:1055A000400410924104109242041092330410926D
:1055B000340410923504109236041092370410927D
:1055C00038041092390410923A0410920804109290
:1055D000070410924404109243040E94C9041092DC
:1055E0000A041092090410920C0410920B041092F9
:1055F0000E0410920D041092100410920F042091CA
:105600001104309112046091130470911404C901C3
:105610000E94323970931F0460931E04C901BE01B9
:105620000E94323970932204609321041092CF04B7
:105630001092CE048DE494E090935D0580935C0518
:1056400010925F0510925E05109261051092600540
:105650001092E8048DEB91E09093CD048093CC04FC
:105660001092D1041092D0041092E5041092DC0440
:105670001092DD041092DE041092DF048FEF80930D
:10568000E6048093EA04EEEEF4E084E095E0DFEFD8
:10569000D1938E179F07E1F78DE399E09093D5049E
:1056A0008093D40482E39AE09093D7048093D60445
:1056B0008CE392E19093D9048093D8048DE793E131
:1056C0009093DB048093DA0430E020E040E069E06E
:1056D00080ED94E00E943D0910922B0510922A055E
:1056E00087E594E090930505809304058CE494E0AD
:1056F0009093090580930805C1E0C0930A051092B4
:105700000B05109239051092590510925505C0935A
:105710005A05C0935B0585EC91E090930705809353
:10572000060580ED94E00E94CD0A109223051092A8
:10573000220510922705109226058FEF9FEF909378
:105740002505809324059093290580932805E091F1
:105750000605F09107050280F381E02D80ED94E0CD
:10576000099586EC94E090932D0580932C0510927A
:105770003C0583E18093F90482E18093FA04D0939D
:10578000FB0410926305109262051092A00581E15E
:1057900090E09093A2058093A10584E090E090931F
:1057A000A4058093A30581E090E09093A6058093E3
:1057B000A50562E081E10E94C70562E084E00E94E5
:1057C000C7058091A1050E947005D82F8091A3057F
:1057D0000E947005880F991F8D2B8093A70510924A
:1057E000A8051092A9051092AA051092AB05109277
:1057F000AC051092AD051092AE051092AF05109257
:10580000B0051092B1051092B2051092B305C09385
:10581000BD051092C3051092C2056EE08CEB95E0B9
:105820000E94A11585E995E090934B0480934A046A
:10583000C093C9051092CF051092CE05C093D5052F
:105840001092DB051092DA051092E6051092E5053C
:105850002AEC3DEF3093E8052093E70580E092E0E5
:105860009093EA058093E9051092EB051092F205FA
:105870001092F1053093F4052093F3059093F6050B
:105880008093F5051092F7058DEF95E00E94CC1BF3
:105890001092F8051092F9051092FA051092FB0586
:1058A0001092FC05DF91CF910895CF93DF93CDB790
:1058B000DEB7C356D1090FB6F894DEBF0FBECDBF19
:1058C000789484B5826084BD84B5816084BD85B5DB
:1058D000826085BD85B5816085BD80916E008160E7
:1058E00080936E001092810080918100826080938D
:1058F000810080918100816080938100809180008F
:105900008160809380008091B10084608093B100B9
:105910008091B00081608093B00080917A008460B3
:1059200080937A0080917A00826080937A008091DF
:105930007A00816080937A0080917A0080688093F9
:105940007A001092C100E0917803F091790382E02F
:105950008083E0917403F09175031082E0917603E7
:10596000F09177038FE3808310928003E0917C03B2
:10597000F0917D0386E08083E0917A03F0917B03D0
:10598000808180618083E0917A03F0917B03808144
:1059900088608083E0917A03F0917B038081806846
:1059A0008083E0917A03F0917B0380818F7D8083F7
:1059B0008091450490914604892B59F481E08093AD
:1059C000470484E090E00E946039909346048093FD
:1059D0004504F89410928000109281001092850086
:1059E0001092840081EC92EA909389008093880061
:1059F0008091810088608093810080918100826025
:105A00008093810080916F00826080936F00789412
:105A100060913B0470913C0480913D0490913E0460
:105A20000E94C0141092440410924304F89480E63B
:105A300090E090931204809311046091130470918C
:105A400014040E94323970931F0460931E0484E092
:105A500090E09093220480932104789460E070E0B9
:105A600080EF92E40E94C01486E19EE190930E04C0
:105A700080930D0481E19EE19093100480930F04C4
:105A80008CE295E190930C0480930B040E94340601
:105A90006CE088EC95E00E94A11565E084ED95E04E
:105AA0000E94A11560E085E10E94C70585E1809311
:105AB000E00560E084E10E94C70584E18093EC0585
:105AC0008091680086608093680080916D0080619D
:105AD00080936D0080916C00886080936C0061E021
