:100000000C94F2030C942F230C9408230C941A04E0
:100010000C947A270C94E1260C941A040C941A047C
:100020000C941A040C941A040C941A040C94FA24D8
:100030000C941A040C941A040C941A040C941A04C8
:100040000C94BE220C941A040C949B240C947524DA
:100050000C941A040C941A040C941A040C941A04A8
:100060000C9456230C941A040400060008000C009B
:1000700010001800200030006000C0002001800146
:10008000E0014002A00200036003C00320048004DA
:1000900000060009000C001800305245534554007A
:1000A0004C4F4144005341564500454E434F444553
:1000B00052204449520050554C5345204F5554004E
:1000C000534F555243450054454D504F0042414314
:1000D0004B20544F204D41494E0078005245534526
:1000E0005420414C4C00525354004C4F4144204644
:1000F000524F4D20534C4F54005341564520544FBE
:1001000020534C4F54004241434B20544F204D410B
:10011000494E0078005245564552534544004445E7
:100120004641554C54004449520031205050514EE4
:100130002050554C53450034205050514E205055BE
:100140004C5345003234205050514E2050554C53A2
:10015000450050554C5345204F4646004F555400DE
:100160004D4944490034205050514E003234205003
:1001700050514E00434C4F434B00494E540045589C
:10018000540042504D0045585400E8FFF0FFF4FF82
:10019000F8FFFAFFFCFFFDFFFEFF01000200030075
:1001A0000400050006000700080009000A000B0013
:1001B0000C00100018002000400080004356322040
:1001C0004D4F4400435631204D4F44004555434C5C
:1001D00049442048495453004555434C4944205311
:1001E00054455053005357494E47004F46465345D8
:1001F0005400445554590050524F424142494C49D1
:100200005459004D4F44004555434C4944204849FA
:100210005453004555434C494420535445505300D2
:100220005357494E47004F46465345540044555492
:1002300059204359434C450050524F424142494C8A
:1002400049545900434C4F434B204D4F44004E4FAF
:100250004E4500435632004356310025004F464676
:100260000053484946542048495400250050554CF5
:1002700053452057494454480025004849542043D9
:1002800048414E43450025004D554C5449504C596A
:10029000007800444956494445002F0034000202CA
:1002A000030302030405050000050005000091009A
:1002B0000001982004805C2509AD745452B952495C
:1002C0002806AADC54192907AA5C624A0A2B079B54
:1002D000E5D24A002C059154042D058B66062E05A7
:1002E0008954022F06A4EC631B3008ACEC54349301
:1002F000023107EBEC92AC063209AC6C364A2A8F1D
:10030000003309AC6C364A1A8D043408AC6CA21C5C
:10031000BA003509AC6C86DE6824003609ACEC54B2
:100320005E3129003708AC6C468E75043809ACEC98
:10033000544C2A26053909ACEC544C3B29003A06AA
:10034000995552004108ACEC541C53064209AC6C60
:10035000561C298E044309ACEC54D43129004408BE
:10036000AC6C563447024508AC6C861E7A044608CD
:10037000AC6C865E39034709ACEC544E3329004817
:1003800008AC6CA21C53064906A95486004A08AC66
:10039000EC6B9914004B09AC6CA24A3295014C07E6
:1003A000AC6C727B044D09AD74F25A49EB004E09F6
:1003B000AD74F25449EE004F08ACEC543493025043
:1003C00009AC6C561C2967005108ACEC54B4620AA5
:1003D0005208AC6C561CA9195309ACEC46461A8D50
:1003E000045407AB64566C015508AC6CA233290069
:1003F0005609AD74B24E65CA11570AAD74B24A2A95
:10040000A92E005809AC6CA24C2ACA00590AAD7436
:1004100072AA33CA28025A07AB64662A077008AD6D
:10042000F456B6D3027107ADF48EAF057208AB6413
:10043000A21A2A027406AD74FE237709ADF456A5FC
:10044000464E0B78069B64520700000004FFFF0035
:1004500000000000003C007C00FC00FC03FC0FFCE2
:100460000FFC03FC007C003C0000000000000000CA
:1004700000380E380E380E380E380E380E380E385A
:100480000E380E380E380E00000000000024002741
:10049000002A0000000000250028002B00000000BA
:1004A00000230026002900040404040404040402B8
:1004B0000202020202030303030303010204081001
:1004C00020408001020408102001020408102000CE
:1004D0000000080002010000030407000000000003
:1004E0000000001D000404040503010610180000AC
:1004F00017000000013F000002E125270F3B96B1E5
:10050000A5464C34428C1812939029426A08519A9D
:100510008C225286C8881164C4181A61ACC4B821F0
:10052000002F0CBABABDC948D167E3C601301F7CA1
:10053000FB1D434A54103A665787D0883022C48442
:100540001844A78CD9EC1009258ACC0031147ABD47
:10055000A561A40A993933628C9071F3FF2845068E
:10056000321B7CFB1D536854103A666CE40C89996D
:10057000C1C65439822367F9E08101331C7CFB1D1D
:10058000536854103A666CE44072B4B392E42C8D14
:100590001D22A10695190034207CFB2D2183868C19
:1005A000213284CC904123088D183562D48851C6FD
:1005B000ECEC018B95F301351A7CFB0D155B8C9CE3
:1005C0002F082959316AE8C8591A3B44420D2A3389
:1005D00000361B7D1B9E5369560C3B67745E985911
:1005E000C282D439BB3B45624DAA330037137CFB32
:1005F00085150F52CE87E4E870CA8123E71D0038C5
:10060000207CFB1D536854103A66D9211244C8203F
:100610003A8586080942C7ECEC100935A8CC0039A8
:100620001A7CFB1D536854103A666787482C519317
:1006300072BE1844420D2A330041167D1BA672A7D4
:10064000D250326AC8A811E3ECDD83EFEC770342A5
:10065000247D1B86446A968C22316CC4B011C3463B
:100660000C1B318AC4924D46911876CE9E3D08C12E
:1006700062090043177D1B9E53699610426674FE03
:100680004F898D2044628D222400441B7D1B8644AB
:100690006A968C1A326CC4B011E3EC7F766CC42875
:1006A000124BD4240245127CFB850F52CE4B4418CA
:1006B0008D9C5F3E78600046107CFB850F52CE9784
:1006C00069B21939FF1200490773DB843F484C0DAA
:1006D0007BDB8581F3FF3F7CF060004E247D1B06B1
:1006E00081E6CC1D3B860A55A24426C69818636451
:1006F0008891216646981961282BCCAE3337004F7C
:10070000167D1B9E5369968C1A31CEFEBF1B316A33
:10071000C89A54670052318E3B06456B980C2331C2
:100720006EC4B811E3468C1B316EC43012A38830FE
:1007300051946AC8B031A3C6109AD5985144869195
:10074000183762DCC10153228E3B9E63899690224A
:10075000316EC4B81163C7529A2C5BB283C78E3511
:10076000680E151126ABD000540D7D1B860F520D5F
:100770009DFFFF150055117CFB8561F6FF9F8D18CD
:1007800034440D2A330056167FF98591F6FFCB11BC
:10079000E38690224315097227CB0E0358297E3B2E
:1007A0008681068F91183684101922A4860C43671F
:1007B000D024519206CD211B328A08194244868DDD
:1007C0002076D0C2017814CABA8541868E904063E3
:1007D0008A941924530CB2680000000004FFFF0043
:1007E00000009E2711241FBECFEFD8E0DEBFCDBF93
:1007F00011E0A0E0B1E0EEEEF1E702C005900D924D
:10080000A83EB107D9F726E0A8EEB1E001C01D92DD
:10081000AE3AB207E1F713E0C2EFD3E004C021978C
:10082000FE010E94D936C13FD107C9F70E94EF29C6
:100830000C94F5380C940000662329F06A3019F006
:10084000862F90E008958FEF9FEF0895AF92BF92AB
:10085000CF92DF92EF92FF920F93CF93DF93EC0151
:10086000DA017901942F9770E1E0F0E09F01092E01
:1008700001C0220F0A94EAF7522F6E018AE8C80ECF
:10088000D11CF601808140E0823018F4422F813083
:1008900049F15D01F8EFAF22E8ADF9AD288139816A
:1008A000D90150968C918A9D90018B9D300D112419
:1008B000620F731FDF01A60FB71F01111AC0EA0EE6
:1008C000FB1E8C91842B85278D93AE15BF05C9F730
:1008D000DF91CF910F91FF90EF90DF90CF90BF907D
:1008E000AF90089550E0D5CF440F550FE114F104B7
:1008F00079F33C91342B35273C939F5F9770E1E06F
:10090000EE1AF1089111F0CF2CAD3DADA20FB31F3F
:10091000F6018081823028F4813009F051E041E015
:10092000E5CF51E0E3CF80E0089590E080E00895C6
:1009300010920B0410920C0410920D0410920E04ED
:1009400010920F04109210041092110410921204CD
:1009500010921304109216041092190410921A04A3
:1009600010921B0410921C04109221041092220475
:10097000109223041092240410921D0410921E045D
:1009800010921F041092200410923F0410923E0413
:1009900020913B0430913C0480E090913D04891704
:1009A00060F494E0899FF0011124E20FF31F10829C
:1009B0001182128213828F5FF0CF08951092FE038E
:1009C0001092FD03109235041092360410923704F1
:1009D000109238040E949804E0910504F0910604F6
:1009E000309709F009940895BC01F894EDEFF3E015
:1009F0009587848722853385C9010E94C536708F0B
:100A0000678BC90168E170E00E94C536738F628F01
:100A10007894089508958093500508959B01DC0112
:100A20001896ED91FC9141E067E10994833081F0E3
:100A300028F4813099F08230A9F008958730A9F028
:100A40008830C9F08430B1F4809180008F7D03C07C
:100A5000809180008F7780938000089584B58F7790
:100A600084BD089584B58F7DFBCF8091B0008F77D2
:100A70008093B00008958091B0008F7DF9CFCF931F
:100A8000DF93282F30E0F901E153FB4F8491F90106
:100A9000E554FB4FD491F901E955FB4FC491CC23A8
:100AA000A1F081110E941605EC2FF0E0EE0FFF1F60
:100AB000E356FB4FA591B491EC91ED2381E090E0DA
:100AC00009F480E0DF91CF91089580E090E0FACFC3
:100AD0001F93CF93DF93282F30E0F901E153FB4FB1
:100AE0008491F901E554FB4FD491F901E955FB4F8D
:100AF000C491CC23A9F0162F81110E941605EC2F6A
:100B0000F0E0EE0FFF1FED56FB4FA591B4918FB7AC
:100B1000F894EC91111108C0D095DE23DC938FBFBF
:100B2000DF91CF911F910895DE2BF8CFCF93DF9304
:100B300090E0FC01E554FB4F249189559B4FFC014B
:100B400084918823C9F090E0880F991FFC01E75732
:100B5000FB4FA591B491FC01ED56FB4FC591D4918B
:100B600061110DC09FB7F8948C91209582238C93CE
:100B70008881282328839FBFDF91CF910895623019
:100B800051F49FB7F8943C91822F809583238C93E6
:100B9000E8812E2BEFCF8FB7F894EC912E2B2C936E
:100BA0008FBFEACF3FB7F894809110039091110363
:100BB000A0911203B091130326B5A89B05C02F3F47
:100BC00019F00196A11DB11D3FBFBA2FA92F982F73
:100BD0008827BC01CD01620F711D811D911D42E06E
:100BE000660F771F881F991F4A95D1F708952FB771
:100BF000F89460910C0370910D0380910E03909115
:100C00000F032FBF08950E9498040E94F705609378
:100C10003504709336048093370490933804E09140
:100C20000304F0910404309709F009958091390488
:100C300090913A04892B39F482E090E09093FE037E
:100C40008093FD03089581E090E0F8CF0F931F9308
:100C5000CF93DF93EC010091FD031091FE030E94FE
:100C6000DE048091580590915905039749F48FB798
:100C7000F8942AE035E03093FC032093FB038FBF08
:100C8000D0935905C0935805C130D10599F068F04B
:100C9000C230D105C1F02397F9F0012B89F1DF9122
:100CA000CF911F910F910C94030610923A04109269
:100CB0003904F3CFD0933A04C093390488E190E02B
:100CC0000E94F404EACF81E090E090933A0480938C
:100CD000390484E090E0F4CF81E090E090933A040E
:100CE0008093390488E190E00E94F4048FB7F8946F
:100CF00029E23DE13093FC032093FB038FBFCDCF6E
:100D0000DF91CF911F910F91089508950895AF92AB
:100D1000BF92CF92DF92EF92FF920F931F93CF93E8
:100D2000DF936C017B018B01040F151FEB015E014A
:100D3000AE18BF08C017D10759F06991D601ED91DF
:100D4000FC910190F081E02DC6010995892B79F77E
:100D5000C501DF91CF911F910F91FF90EF90DF9030
:100D6000CF90BF90AF9008952091BD02260F3327FA
:100D7000331F21323105ECF42091E302FC0190E0B5
:100D800080E0243069F082E00895A091BD022191B5
:100D9000AC0145565D4FA40FB52FB11D2C930196A4
:100DA000861798F38091BD02680F6093BD0280E0C2
:100DB000089581E008951092E30281E08093E502B6
:100DC0001092E40261E082E10E94680561E083E143
:100DD0000E946805E9EBF0E080818E7F808380814E
:100DE0008D7F808388E48093B80085E48093BC0085
:100DF0000895CF93DF9391E090939A028823B9F0FE
:100E0000C091B800D091BA008091BC008A7B8093D9
:100E1000BC0060E082E10E94680560E083E10E941E
:100E200068050E94DB06D093BA00C093B800DF913A
:100E3000CF910895089508950895E09192028091C8
:100E40009102E81730F4F0E0EF58FD4F808190E018
:100E500008958FEF9FEF08959091920280919102F3
:100E60002FEF3FEF981748F4E92FF0E0EF58FD4FD0
:100E7000208130E09F5F90939202C9010895809194
:100E8000910290919202891B990B0895CF92DF9263
:100E9000EF92FF920F931F93CF93DF937C01CB01CF
:100EA0008A0120917002222389F0EB016B01C40EAC
:100EB000D51ECC15DD0569F06991D701ED91FC9146
:100EC0000190F081E02DC7010995F3CF642F0E94B6
:100ED000B406C801DF91CF911F910F91FF90EF9061
:100EE000DF90CF900895CF93DF931F92CDB7DEB7F9
:100EF0006983209170022223F9F02091930220321D
:100F000058F021E030E0FC013383228390E080E060
:100F10000F90DF91CF91089580919402E82FF0E037
:100F2000E05BFD4F998190838F5F80939402809363
:100F3000930281E090E0ECCF61E0CE0101960E9447
:100F4000B406F7CFFC01538D448D252F30E0842F5C
:100F500090E0821B930B541710F0CF9608950197E1
:100F60000895FC01918D828D981761F0A28DAE0FCE
:100F7000BF2FB11D5D968C91928D9F5F9F73928F55
:100F800090E008958FEF9FEF0895FC01918D828D81
:100F9000981731F0828DE80FF11D858D90E008954E
:100FA0008FEF9FEF0895FC01918D228D892F90E0A6
:100FB000805C9F4F821B91098F73992708958EE55E
:100FC00093E00E94D30721E0892B09F420E0822FCF
:100FD000089580E090E0892B29F00E94DF078111BD
:100FE0000C9400000895FC01A48DA80FB92FB11D29
:100FF000A35ABF4F2C91848D90E001968F7399274F
:10100000848FA689B7892C93A089B1898C9183702C
:1010100080648C93938D848D981306C00288F38925
:10102000E02D80818F7D80830895EF92FF920F9352
:101030001F93CF93DF93EC0181E0888F9B8D8C8D84
:1010400098131AC0E889F989808185FF15C09FB778
:10105000F894EE89FF896083E889F989808183703B
:10106000806480839FBF81E090E0DF91CF911F91EA
:101070000F91FF90EF900895F62E0B8D10E00F5F0B
:101080001F4F0F731127E02E8C8D8E110CC00FB6E1
:1010900007FCFACFE889F989808185FFF5CFCE0179
:1010A0000E94F307F1CFEB8DEC0FFD2FF11DE35AFA
:1010B000FF4FF0829FB7F8940B8FEA89FB898081FC
:1010C0008062CFCFCF93DF93EC01888D8823B9F076
:1010D000AA89BB89E889F9898C9185FD03C0808143
:1010E00086FD0DC00FB607FCF7CF8C9185FFF2CFC0
:1010F000808185FFEDCFCE010E94F307E9CFDF911C
:10110000CF910895DC011A96ED91FC9130E020E03A
:101110000994DC011696ED91FC9130E020E040E06E
:1011200069E10994DC011696ED91FC9130E020E034
:1011300040E068E109949A01DC011696ED91FC917A
:10114000462F67E10994EF92FF920F931F93CF937D
:10115000DF931F92CDB7DEB77C018B01D8016C9174
:10116000673129F150F46531A0F40F90DF91CF91F0
:101170001F910F91FF90EF9008956A3118F16E3F23
:10118000A1F7F8014181498369E2C7010E94820801
:101190000BC0F80141814983D7011696ED91FC916E
:1011A00030E020E0C70109950E5F1F4FD7CFF8014F
:1011B00081818983AE014F5F5F4F61E0C7010E946B
:1011C0009B08F2CF0F5F1F4FD7011696ED91FC9150
:1011D00030E020E040E0C7010995C0CF462FDC0198
:1011E0001696ED91FC9130E020E066E10994462FDF
:1011F000DC011696ED91FC9130E020E065E1099468
:10120000EF92FF920F931F93CF93DF93EC01042F84
:1012100079016D3009F446C050F46B30C9F1693082
:1012200009F49FC06A3009F465C080E046C06E30A2
:1012300009F452C06F3099F70E949208F7011381A8
:10124000110F110F110F6C89160F60E4CE010E946F
:10125000F708612F62956F706061CE010E94F708F8
:10126000612F6F70CE010E94EE08F7016481606B00
:10127000CE010E94EE08F701408151816281660F24
:10128000660F660FCE010E949B080150A1F72EC089
:1012900061E371E0442311F06CE271E0CE010E9441
:1012A000A3080AC0411110C065E271E00E94A308C2
:1012B000E881F98182898C8B81E0DF91CF911F9148
:1012C0000F91FF90EF9008956EE171E00E94A308E6
:1012D000E881F9818389EFCF0E94920861E8CE010D
:1012E0000E94F708602FCE010E94EE08CE010E94F6
:1012F0008908E2CFEA85FB8530E020E040E068E243
:10130000CE010995EE81FF8130E020E040E064E10C
:10131000CE01099541E06BE4CE010E948208E8818C
:10132000F981448169E2CE010E94820840E06BE4C9
:10133000CE010E948208E881F981448169E2CE01F0
:101340000E94820841E06BE4CE010E948208E8819D
:10135000F981458169E2CE010E94820866E371E06D
:101360009DCF8BE691E0998388831C8AA5CFDC0111
:101370001896ED91FC9130E020E040E069E109949D
:10138000DC011896ED91FC9130E020E040E068E14E
:101390000994CF93DF931F92CDB7DEB76983BE0167
:1013A0006F5F7F4F0E940E050F90DF91CF910895E0
:1013B000EF92FF921F93CF93DF93EC01162F7A01E8
:1013C0000E94C00960E4CE010E94C909E885F98540
:1013D0009701412F67E1CE010995CE01DF91CF91B1
:1013E0001F91FF90EF900C94B709EF92FF921F931B
:1013F000CF93DF93EC01142F7901663181F138F43A
:10140000643109F44BC0653179F080E022C0683165
:10141000C9F150F16931C9F780914F02882391F1E8
:10142000CE010E94B7092EC080914F02882319F087
:10143000CE010E94B709CE010E94C00960E0CE0132
:101440000E94C909612FCE010E94C90981E08093E1
:101450004F02DF91CF911F91FF90EF900895642F7D
:101460000E94C90981E0F5CF80914F02882319F0CD
:10147000CE010E94B709A701193138F4612FCE01BE
:101480000E94D80910924F02EDCF68E1CE010E9470
:10149000D809185188E1E80EF11CEDCF8E898F3FF5
:1014A00011F488E78E8BE885F9859701412F64E177
:1014B000CE01DF91CF911F91FF90EF9009940F9390
:1014C000FC01E85BFF4F0190F081E02DDF01A41BE0
:1014D000B50BAD01FC01EA5BFF4F0190F081E02DFF
:1014E000DF01A61BB70BBD01011113C0415051090B
:1014F000621B730BFC01E05CFF4F0190F081E02D5B
:101500004E1B5F0BDC01D496ED91FC9109950F9178
:101510000895013079F761507109421B530BEACFEE
:10152000CF93DF93FC01A081B18182AD90E09C015B
:1015300043E0220F331F4A95E1F737AF26AF5096AD
:101540002C91509748E0249F9001112435AF24AF8F
:1015500023AD30E0B90153E0660F771F5A95E1F7EC
:10156000EF01C05CDF4F7983688351964C915197AE
:10157000E901C80FD91F50E04C175D0718F4CA01E4
:10158000821B930BEF01CE5BDF4F7983688322963A
:1015900023E0880F991F2A95E1F7860F971F9983FB
:1015A0008883229654968D919C9155979983888330
:1015B000E85BFF4F56968D919C9191838083DF91DC
:1015C000CF9108950F931F93FC01E25BFF4F0190B1
:1015D000F081E02DDC01A05BBF4F0D90BC91A02DF0
:1015E0004A175B0740F4E017F10748F004171507A6
:1015F00030F080E019C0E017F107C0F3FACFFC012A
:10160000E65BFF4F40815181845B9F4FFC018081ED
:1016100091816817790758F481E04217530720F049
:1016200081E02617370728F71F910F910895421779
:101630005307B0F3DECF2F923F924F925F926F929B
:101640007F928F929F92AF92BF92CF92DF92EF9252
:10165000FF920F931F93CF93DF93CDB7DEB72897F9
:101660000FB6F894DEBF0FBECDBF98878F83865B21
:101670009F4F9A838983FC0111821082EF81F88544
:10168000EA5BFF4F208031802F813885245B3F4FFC
:101690003C832B83F90131822082EF80F884FEE4C1
:1016A000EF0EF11CF70111821082EF81F885E85BE3
:1016B000FF4F40805180EF81F885EC5BFF4F208128
:1016C00031814216530630F0C201821B930BF701A1
:1016D00091838083EF81F885EE5BFF4F208131811C
:1016E000421A530A2F813885205B3F4F3E832D835A
:1016F000F90151824082EF81F885E85AFF4F6080FE
:101700007180EF81F885EC5AFF4FA080B180EF81A6
:10171000F885EA5AFF4FC080D180EF81F885EE5AF4
:10172000FF4F8080918083019501A601B4018F81D4
:1017300098850E94E20A2F8138852C573F4F3887C1
:101740002F8381111BC0F901108228960FB6F894DF
:10175000DEBF0FBECDBFDF91CF911F910F91FF90E4
:10176000EF90DF90CF90BF90AF909F908F907F9041
:101770006F905F904F903F902F90089581E0EF81A0
:10178000F88580838114910421F0E981FA819182A6
:101790008082A214B30420F4EB81FC81B182A08288
:1017A000F701808191818C159D0510F4D182C08252
:1017B0006414750450F6ED81FE8171826082C5CF9C
:1017C0000F93CF93DF93E02FDC01AC57BF4FFC9119
:1017D000FF2309F460C02115310509F45CC02230F3
:1017E000310538F0023009F04AC06F5F7F4F621B4D
:1017F000730B0E2F0170E0FD52C0FC01E25BFF4F46
:101800000190F081E02D4E175F0708F444C0FC0101
:10181000E05BFF4F0190F081E02D4E175F07D8F598
:10182000FC01E45BFF4F0190F081E02DDC01A65B41
:10183000BF4F0D90BC91A02D260F371F26173707DD
:1018400038F56E177F0718F59F0121503109A2174F
:10185000B30708F56A177B0708F4BD012E173F0789
:1018600008F4F901E61BF70BEC01AEA9BFA9149629
:101870000D90BC91A02D9F01FD0109950CC0033076
:1018800009F0B7CF4F5F5F4F421B530BB2CFBD0183
:101890006E177F07E0F2DF91CF910F910895FC0161
:1018A000E65BFF4F0190F081E02D6E177F0798F304
:1018B000FC01E45BFF4F0190F081E02D6E177F0784
:1018C00050F7FC01E05BFF4F0190F081E02DDC015F
:1018D000A25BBF4F0D90BC91A02D240F351F241784
:1018E0003507A8F44E175F0788F49F01215031098E
:1018F000A217B30780F64A175B0708F4AD012E174D
:101900003F0708F4F901E41BF50BAECFAD014E170C
:101910005F0708F6EDCF0F93209114053091150560
:1019200062177307F0F020911605309117056217C2
:101930007307B8F4209110053091110582179307B1
:1019400080F020911205309113058217930748F417
:10195000AB01BC0100E021E030E086EC94E00E94A5
:10196000E00B0F9108955F926F927F928F929F92FA
:10197000AF92BF92CF92DF92EF92FF920F931F939D
:10198000CF93DF93EC017B018A016C01C41AD50A65
:101990004817590718F06A01C81AD90A2E153F05C9
:1019A00060F44701821A930AC814D90448F10C174D
:1019B0001D0708F459C0512C18C049018E189F0802
:1019C000C814D90408F05EC09C2D8D2D6401892EA9
:1019D000982E902F812F8901292F382F9C2F8D2F02
:1019E000E701E92EF82E5524539436017694679436
:1019F000E216F30608F442C0AA24AA94BA2C21C025
:101A00009C2D8D2D6401892E982E9E2D8F2D780171
:101A1000092F182F9C2F8D2FE901292F382FE3CF65
:101A2000B701CE01552011F0BE01C7010E948B0CF9
:101A30006818790877FE04C0EA0CFB1C6C0C7D1C4E
:101A400021960C171D0760F7DF91CF911F910F9121
:101A5000FF90EF90DF90CF90BF90AF909F908F90CE
:101A60007F906F905F900895360176946794902FE1
:101A7000812F8E01C92FD82F7901512CAA24A3942C
:101A8000B12CDFCF0C171D0708F095CF36017694E7
:101A90006794902F812F8E01C92FD82F7901512C57
:101AA000ABCFAF92BF92CF92DF92EF92FF920F93A4
:101AB0001F93CF93DF936C01EB015A017B01E20E80
:101AC000F31E9C01240F351F8701AB01BC0186EC7E
:101AD00094E00E94E20A882361F000E09501AE01E3
:101AE000B60186EC94E00E94E00B2196EC16FD0610
:101AF000A1F7DF91CF911F910F91FF90EF90DF90B1
:101B0000CF90BF90AF900895213069F038F0223027
:101B100079F0840F911D47FD9A950895860F911DC8
:101B200067FD9A950895841B910947FD9395089543
:101B3000861B910967FD93950895213069F038F06F
:101B4000223079F0861B910967FD93950895840FE3
:101B5000911D47FD9A950895860F911D67FD9A95F1
:101B60000895841B910947FD939508953F924F92E4
:101B70005F926F927F928F929F92AF92BF92CF921D
:101B8000DF92EF92FF920F931F93CF93DF937C012D
:101B9000162F442EEC01C25ADF4F5E806F806C011D
:101BA0008AE8C80ED11C78847518312E711608F495
:101BB000372C8C809D800E85202F462D652D8A81A7
:101BC0009B810E94840D5C01202F462D652DC40150
:101BD0000E949D0DAC01442079F08C85F601808334
:101BE000232D30E0B501C7010E94E00B171548F026
:101BF00017196394512CD7CF8B858111F7CF8D8521
:101C0000EDCF150D1E836F82DF91CF911F910F9144
:101C1000FF90EF90DF90CF90BF90AF909F908F900C
:101C20007F906F905F904F903F900895DC011A96DF
:101C30004C911A97ED91FC911197249130E0042E6C
:101C400002C0359527950A94E2F7842F860F8830D5
:101C500068F031961196FC93EE93E49198E0941B12
:101C600001C0EE0F9A95EAF72E2B88501A968C93A6
:101C70008FEF9FEF01C0880F6A95EAF78095822366
:101C800008950F931F93CF93DF938C01EC01C25AF9
:101C9000DF4F798368831A86FC01EF58FF4F60811C
:101CA000CE010E94160E8887F801EE58FF4F608122
:101CB000CE010E94160E8987F801E657FF4F9081EA
:101CC0009C8781E0911180E08D87DF91CF911F91FA
:101CD0000F910895CF93C62F0E94160EC15021E098
:101CE00030E001C0220FCA95EAF7821BCF91089518
:101CF000FC01E60FF11D849190E0982F8827319622
:101D0000E4918E0F911D0895CF93DF9320912005CC
:101D1000309121052817390709F490C0EC01909300
:101D2000210580932005FC01849180933305319631
:101D3000E491E0933405FE013296E491E093350599
:101D4000FE013396E491E0933605FE013496E4916A
:101D5000E0933705FE013596E491E0933805FE01E6
:101D60003696E491E0933905FE013796E491E093CD
:101D70003A05FE013896E491E0933B05FE01399661
:101D8000E491E0933C05FE013A96E491E0933D0531
:101D9000FE013B96E491E0933E05FE013C96E49102
:101DA000E0933F05FE013D96E491E0934005FE017E
:101DB0003E96E491E0934105FE013F96E491E09365
:101DC0004205FE017096E491E093430561E1CE0186
:101DD0000E94780E909345058093440563E1CE01FF
:101DE0000E94780E909347058093460565E1CE01E9
:101DF0000E94780E909349058093480580912005B4
:101E000090912105892BD1F08091400580934C055C
:101E10004091410540934D0590914B05992371F0F8
:101E2000913079F490914205891714F490934C0500
:101E300080914305841714F480934D05DF91CF9171
:101E4000089530913D0520913F05082E000C990B17
:101E5000622F022E000C770B630F711D37FD7A95F0
:101E6000861797071CF4320F30934C05241734F76C
:101E700020934D05E3CFEF92FF920F931F93CF93E3
:101E8000DF93FC01E65AFF4F20813181295E3F4FED
:101E90006F3F710509F048F561367105D8F080583B
:101EA0009F4FFC0180819181280F391FC901019644
:101EB000FC014491442309F447C0F90144914617B9
:101EC000170671F40196DF91CF911F910F91FF904A
:101ED000EF9008956134710548F382589F4FE1CF28
:101EE000FC018491280F311DE1CF8B01FC01EE57DD
:101EF000FF4FC081D181C20FD31F7E0160E0C701B7
:101F00000E94780EC80FD91F62E0C7010E94780EA8
:101F1000F4E0EF0EF11C8017910780F3FE0184912D
:101F200090E0982F88273196E4918E2B009761F0EE
:101F30000817190719F4CE010396C5CFFE01329692
:101F4000E491CE0FD11DEACF90E080E0BCCFCF92DC
:101F5000DF92FF920F931F93CF93DF9310922C0584
:101F60001092DE046C0180ECF82E10E000E0D0E06E
:101F7000C0E0F60161916F01E091C804F091C904DD
:101F800086EC94E009958F3F980789F18E3F2FEFFB
:101F9000920779F3BC0186EC94E00E943B0F009716
:101FA00021F1BC0186EC94E00E94410E609139055C
:101FB00084E295E00E946A0E80934E0560913A0596
:101FC00084E295E00E946A0E60913B0584E295E010
:101FD0000E946A0E082F880F110B80ECF81202C0C5
:101FE000F0904E05C00FD11FC4CF80E0F3CF2091F9
:101FF0002C05222399F080914E05022E000C330B04
:10200000280F311D87FD3A95C20FD31FC01BD10B7E
:102010001F1424F4CF0DD11DF7FCDA95CE01DF910A
:10202000CF911F910F91FF90DF90CF9008958F92E5
:102030009F92AF92BF92CF92DF92EF92FF920F9357
:102040001F93CF93DF93EC017B018A016901FC01AF
:10205000E459FF4F8081813009F46FC008F462C0F9
:10206000823009F475C0833009F47DC0FE01E05A66
:10207000FF4FF182E082329611830083B601CE01D8
:102080000E943B0F009709F4FFC07E012EE5E20E8F
:10209000F11CBC01CE010E94410EFE01E959FF4F27
:1020A000B0803C966081C7010E946A0E882EFE01B6
:1020B000EC58FF4F6081C7010E946A0E082FFE0195
:1020C000EB58FF4F6081C7010E946A0EA82EF701EE
:1020D000908419140CF090C016850B0D0195212FDA
:1020E000402F682D828193810E94840D6C01F7013D
:1020F00093838283212F402F682D848195810E94B4
:102100009D0DAC01F70195838483113009F484C0DF
:10211000A8F1123009F491C0133009F4A4C08C0165
:10212000960136C0FE01E45AFF4F0190F081E02D88
:10213000CE010995080F191F99CFFE01E45AFF4FF0
:102140000190F081E02DCE010995E81AF90A8ECFB1
:10215000FE01E45AFF4F0190F081E02DCE01099578
:10216000081B190B83CFFE01E45AFF4F0190F08149
:10217000E02DCE010995E80EF91E78CF9601290DC4
:10218000311D97FC3A958C010B0D111DB7FC1A956A
:10219000B601CE010E94E20A882371F1F70116828E
:1021A00017828E0101591F4F6E01F0E7CF0ED11C2F
:1021B000F8016081C7010E94160E882EF601608129
:1021C000C7010E94160E982E40E0682DCE010E9495
:1021D000B60D41E0692DCE010E94B60D61E0C70148
:1021E0000E94160E8111F0CFF70187818B1504F341
:1021F000C657DF4F848588838A2DAA0C990BDF91FF
:10220000CF911F910F91FF90EF90DF90CF90BF90F3
:10221000AF909F908F90089581E090E08B19910985
:10222000B7FC939596012F5F3F4F8A01090D111D51
:1022300097FC1A95C80ED91EABCF81E090E0BC0187
:102240006919710997FC739596012F5F3F4F8B19A0
:102250009109B7FC93958A010F5F1F4F480F591FD3
:10226000C60ED71E95CF96012B0D311DB7FC3A95A2
:1022700081E090E08919910997FC93958A010F5F9D
:102280001F4F480F591F84CF90E080E0B8CFCF9206
:10229000DF92EF92FF920F931F93CF93DF93EC01A6
:1022A0008B011092DE047A01D12CC12CF7016191CF
:1022B0007F01E091C804F091C90486EC94E009958F
:1022C0008F3F980719F18E3F2FEF920779F39C010A
:1022D000A801BE0186EC94E00E94171020913205FF
:1022E000213059F038F0223059F0233061F0C80E17
:1022F000D91EDCCFC80FD91FFACF080F191FF7CF8F
:10230000C81BD90BF4CF081B190BF1CFC601DF9105
:10231000CF911F910F91FF90EF90DF90CF90089594
:10232000CF93DF93EC016BAFEEA9FFA90190F08191
:10233000E02D0995EEA9FFA90280F381E02DCE01E1
:10234000DF91CF910994AF92BF92CF92DF92EF923B
:10235000FF920F931F93CF93DF9300D000D01F9273
:10236000CDB7DEB78C01DC01DA96AC90DA97DB965C
:10237000EC90DB97ED91FC91B188FE2CD12CC12C17
:10238000D801ED91FC9111978089D8962D913C91BF
:102390001C82FD828B83B8E08B9FC00111248C9D31
:1023A000A0018D9D500D9C9D500D1124240F351FB3
:1023B0003A832983D8011496ED91FC919E012F5FF9
:1023C0003F4F41E06FE0C8010995F3948F2D8E19BE
:1023D0008A1528F4BFEFCB1ADB0AFB1488F20F90A2
:1023E0000F900F900F900F90DF91CF911F910F9151
:1023F000FF90EF90DF90CF90BF90AF900895CF9275
:10240000DF92EF92FF920F931F93CF93DF93EC0134
:10241000962F683109F44BC0B901993130F49431E9
:10242000C9F0973189F080E006C0993109F461C0A4
:102430009032C9F781E0DF91CF911F910F91FF900A
:10244000EF90DF90CF90089550E082E593E00E94F6
:102450004607F0CF8C859D85AE85BF85892B8A2B5D
:102460008B2B71F4E881F981A585B0E020EA36E88C
:1024700041E050E00E948D356C877D878E879F8775
:102480001092920210929102109294021092930272
:102490000E94DB068AE197E09093BC028093BB0226
:1024A0008BE197E09093C0028093BF02C3CF2C854D
:1024B0003D854E855F8560E074E284EF90E00E9488
:1024C000D73520513109410951095695479537951E
:1024D00027952093B8008E8990E09595879591E097
:1024E0009093700280934E02109294021092930285
:1024F000A1CFD0919302D13208F093C0C0914E0287
:102500000E94D2056B017C018091E302811164C0BD
:1025100082E08093E30281E08093E5028FEF809375
:10252000E20210920703D0930603A0E5B2E0E6EEC4
:10253000F2E080E0D8137CC0109208038091080379
:10254000CC0FC82BC09308038091E402813009F0BE
:1025500073C01092E4020E94D2056B017C0180914D
:1025600008038093BB008091960290919702A091FE
:102570009802B0919902892B8A2B8B2B99F00E949B
:10258000D205009196021091970220919802309105
:1025900099026C197D098E099F09061717072807EC
:1025A0003907D8F18091BC0083FDD9CF85EC8093A9
:1025B000BC000E94D2056B017C018091E302823055
:1025C000E9F18091E2028F3F61F18091E202803275
:1025D00041F18091E20225C080919602909197028C
:1025E000A0919802B0919902892B8A2B8B2B09F428
:1025F0008BCF0E94D20500919602109197022091F4
:102600009802309199026C197D098E099F0906176D
:1026100017072807390708F077CF809195020E94A5
:10262000F90610929402109293021092700202CF57
:102630009D9191938F5F7ECF85EEB9CF8091960269
:1026400090919702A0919802B0919902892B8A2BC0
:102650008B2B09F4B2CF0E94D20500919602109103
:10266000970220919802309199026C197D098E0988
:102670009F09061717072807390708F09ECFCDCF07
:102680008F929F92AF92BF92CF92DF92EF92FF9282
:10269000CF93DF937C01C62F6C32B0F46A32E8F539
:1026A000683249F1693209F444C080E0C034B0F1C5
:1026B000CF73F701EC0FF11D868D8F3F71F1C031A3
:1026C00008F06DC0642F14C06D3209F456C068F371
:1026D00084EB860F823048F7CF73CE0DDF2DD11DEE
:1026E0008E8D411158C061E00E94960560E08E8D8C
:1026F0000E94680512C02EE1E20EF11CD0E0F70145
:1027000081917F018F3F31F061E0D03108F062E0CC
:102710000E949605DF5FD63191F781E0DF91CF917E
:10272000FF90EF90DF90CF90BF90AF909F908F90F1
:102730000895C42ED12CF12CE12C0E94D2054B011E
:102740005C01C114D104E104F10439F30E94D20503
:10275000681979098A099B09683E734081059105CA
:1027600080F3F1E0CF1AD108E108F10828EE820EDB
:1027700023E0921EA11CB11CE4CF85E090E0433021
:1027800010F082E090E0880F991F880F991F05973D
:102790000197F1F7C2CF62E00E949605BECF0E947A
:1027A0003F0521E0892B09F420E0F701218FB5CF07
:1027B000CF92DF92EF92FF920E94393420E034E210
:1027C00044E759E40E9408369B01AC0160E070E0E8
:1027D00080E89FE30E9408366B017C01AC019B01FD
:1027E00060E074E284E79BE40E9408360E94813630
:1027F0006F3F2FEF72078105910508F47CC020E040
:1028000030E040E051E4C701B6010E949A349B01D8
:10281000AC0160E074E284E79BE40E9408360E9409
:1028200081366F3F2FEF72078105910508F465C06F
:1028300020E030E040E852E4C701B6010E949A343B
:102840009B01AC0160E074E284E79BE40E940836DF
:102850000E9481366F3F2FEF72078105910508F4C2
:102860004EC020E030E040E853E4C701B6010E94CA
:102870009A349B01AC0160E074E284E79BE40E941F
:1028800008360E9481366F3F2FEF72078105910550
:10289000C0F120E030E040E854E4C701B6010E94F6
:1028A0009A349B01AC0160E074E284E79BE40E94EF
:1028B00008360E9481366F3F2FEF72078105910520
:1028C000A8F425E0F894109281006150710970938A
:1028D00089006093880080918100886080938100E6
:1028E00080918100282B209381007894FF90EF90B5
:1028F000DF90CF90089521E0E5CF22E0E3CF23E001
:10290000E1CF24E0DFCFCF92DF92EF92FF922091D0
:10291000390430913A0421303105D1F16B017C0149
:1029200020E030E040E85FE30E94343487FD30C0AF
:1029300020E030E048EC53E4C701B6010E94B03615
:10294000181634F1F894C0923104D0923204E09217
:102950003304F09234047894609107047091080471
:1029600090E080E00E9439349B01AC0160EC71EE94
:1029700084E69CE40E940836A70196010E9408366E
:102980000E948136FF90EF90DF90CF900C94D81387
:10299000FF90EF90DF90CF900895CF93DF93CAEF31
:1029A000D5E068817981072E000C880B990B0E9475
:1029B0003B340E9483148A859B850E9426068A8167
:1029C00080939D05DF91CF91089568EF8EE593E0A8
:1029D0000C941508CF92DF92EF92FF920F931F9302
:1029E000CF93DF93EC0188810E943F058C010E9408
:1029F000F705CA80DB80EC80FD80AB01BC014C197F
:102A00005D096E097F090115110561F48981813025
:102A100031F491E04B3051056105710508F490E007
:102A200080E00EC001301105D1F789818111F7CF07
:102A300081E04B3051056105710508F480E090E0BC
:102A40001F821E829923B1F081E090E09F838E83E4
:102A50000E94F7056B017C01CA82DB82EC82FD8259
:102A60000983DF91CF911F910F91FF90EF90DF903D
:102A7000CF900895882381F30E94F7052EEEC20EB1
:102A800022E0D21EE11CF11C6C157D058E059F0510
:102A900050F482E090E09F838E83E885F98530973B
:102AA000B9F20995D5CF83E090E09F838E83EA85C4
:102AB000FB85F5CF0F931F93CF938C01C62F62E058
:102AC0008C2F0E949605F801C0838C2F0E943F0531
:102AD000F8018183CF911F910F910895CF92DF92DA
:102AE000EF92FF92CF93DF93EC0189819A819C83CF
:102AF0008B8388818E3008F08E508770806480933D
:102B00007C0080917A00806480937A0080917A00C2
:102B100086FDFCCFA0917800B0917900CF80D88459
:102B20000D2C000CEE08FF0829853A85032E000CB9
:102B3000440B550B2C193D094E095F090E9498352D
:102B40002FEF33E040E050E00E946E352C0D3D1D2C
:102B50004E1D5F1D8D819E81281B390B213082E027
:102B6000380714F020E032E021158EEF380714F416
:102B700020E03EEF3A8329838B85882329F0319525
:102B8000219531093A832983DF91CF91FF90EF900E
:102B9000DF90CF900895CF92DF92EF92FF920F9344
:102BA0001F93CF93DF936C01EB017B01E40EF51EC5
:102BB00010E000E0CE15DF0561F06991D601ED91DE
:102BC000FC910190F081E02DC6010995080F191FB5
:102BD000F1CFC801DF91CF911F910F91FF90EF903E
:102BE000DF90CF900895CF92DF92EF92FF920F93F4
:102BF0001F93CF93DF93EC016C0124E0C20ED11C34
:102C0000FC01E057FF4F0190F081E02DC6010995CE
:102C10008E3FEFEF9E07D8F48E010C561F4FF80140
:102C2000408151817E01F2E9EF0EF11CF7016081D4
:102C300071819C01C6010E941710C059DF4F288185
:102C40002130C1F078F02230B9F02330E9F081E092
:102C500090E0DF91CF911F910F91FF90EF90DF9067
:102C6000CF900895F70120813181820F931F9183C6
:102C70008083EDCFF801F7CFF70120813181281B48
:102C8000390B31832083E3CFF801F7CF90E080E068
:102C90000895CF92DF92EF92FF9280913904909144
:102CA0003A04019749F580913B0490913C042091AE
:102CB0003D04E22FF0E0E150F04CEE0FFF1FEE0F6D
:102CC000FF1FE80FF91F4081518162817381452BFD
:102CD000462B472B89F0FC0130E060E070E0CB012F
:102CE0002317E1F0C190D190E190F1906C0D7D1D22
:102CF0008E1D9F1D3F5FF4CFC0903104D0903204F1
:102D0000E0903304F0903404C701B6010E947A3693
:102D1000CB01FF90EF90DF90CF9008956115710582
:102D20008105910549F330E050E040E00E94D7353D
:102D3000A0910904B0910A040E9498350E94393488
:102D40009B01AC0160EC71EE84E69CE40E940836C5
:102D50006B017C0120E030E040E85FE30E94343406
:102D600087FD11C020E030E048EC53E4C701B60114
:102D70000E94B036181644F6C12CD12C88ECE82EEF
:102D800083E4F82EC1CFC12CD12C90E8E92E9FE32B
:102D9000F92EBACFCF93DF93CFE5D5E060E08881FD
:102DA0000E9468051A82289685E0CF38D807B1F7C7
:102DB000DF91CF910895FC012FEF3FEF1616170614
:102DC00014F421E030E09081B901690F711D6F3F6B
:102DD000760749F0641775071CF041504083089549
:102DE000492F420FFBCF40E0F9CFEF92FF921F93A4
:102DF000CF93DF9347E050E0BC0181E096E00E9472
:102E0000DB16CAEFD5E01D8285EFE82E85E0F82EAF
:102E100011E0F70110830E94F705F70161837283C7
:102E2000838394831B83DF91CF911F91FF90EF9059
:102E300008958091FD039091FE03892B41F40E9437
:102E400003060E94CA1681E08093FD0508950E9442
:102E5000DE04F7CF8F929F92AF92BF92CF92DF9214
:102E6000EF92FF920F931F938091390490913A044F
:102E7000009791F40E94CA160E94980481E0809302
:102E8000FD051F910F91FF90EF90DF90CF90BF90C5
:102E9000AF909F908F900895019781F7F89480915B
:102EA000FD039091FE038130910521F0029799F086
:102EB0007894E4CF82E090E09093FE038093FD034A
:102EC0000E94D20560931D0470931E0480931F041A
:102ED00090932004EDCF0E94D205AB01BC018091FC
:102EE0001D0490911E04A0911F04B0912004481766
:102EF00059076A077B0708F46FC08A019B01081B0A
:102F0000190B2A0B3B0BD901C8018093290490931C
:102F10002A04A0932B04B0932C0440931D045093D7
:102F20001E0460931F04709320044091210450916B
:102F3000220460912304709124044F5F5F4F6F4F10
:102F40007F4F409321045093220460932304709395
:102F5000240420913E0430913F042F5F3F4F309373
:102F60003F0420933E0440913D044217130609F0AC
:102F700020F410923F0410923E0420913E043091C0
:102F80003F04220F331F220F331FE0913B04F091C7
:102F90003C04E20FF31F80839183A283B38380916B
:102FA000210490912204A0912304B0912404209143
:102FB000290430912A0440912B0450912C0401974C
:102FC000A105B10591F42093250430932604409384
:102FD0002704509328046CCF80959095A095B095C8
:102FE000840F951FA61FB71F90CF80902504909047
:102FF0002604A0902704B0902804A4E2B0E00E9428
:103000008D356B017C01ACEDB0E0A50194010E940F
:103010008D35C60ED71EE81EF91ECD2CDE2CEF2CEA
:10302000FF24C0922504D0922604E0922704F09257
:1030300028043ECF24E030E044E050E064E070E05B
:1030400088E390E00C94510D8F929F92AF92BF92C3
:10305000CF92DF92EF92FF920F931F93CF93DF9364
:103060005C017B018CE992E00E94840EC091FF0517
:10307000670121E0C21AD108CC151D0409F0B3C0C4
:10308000C33008F0C2E03EE0C39FE00111244E01CE
:1030900082E0880E911C8091FE05882309F4ABC064
:1030A0002FE030E04FE350E0B40181E490E00E9473
:1030B000510D81E00E940B0530E020E043E050E03C
:1030C00070E060E090E080E00E94B30C23E030E02C
:1030D00050E040E070E060E090E080E00E94B30CDF
:1030E00030E020E04DE350E070E060E080E490E00C
:1030F0000E94B30C23E030E040E450E070E060E078
:1031000080E490E00E94B30C2EE230E040E450E016
:1031100061E370E080E490E00E94B30C21E330E0D2
:103120004DE350E061E370E080E490E00E94B30C76
:1031300021E330E043E050E061E370E090E080E0C4
:103140000E94B30C2EE230E050E040E061E370E01A
:1031500090E080E00E94B30C82E00E940B05209179
:10316000FF05822F90E0C816D90609F081C0F3E070
:10317000EF1AF10826E02E9DC0012F9D900D11241D
:10318000A80EB91ECDE0D0E00CE114E08CE7C82E0B
:10319000D12CF501E080F1801093C9040093C8049C
:1031A000C7010E94A70F1093C9040093C804A70188
:1031B000BE019601281B390BC9010E94471136E058
:1031C000A30EB11C2E96C733D10519F7DF91CF910D
:1031D0001F910F91FF90EF90DF90CF90BF90AF9035
:1031E0009F908F900895C11103C0D0E0C0E04FCFF1
:1031F000CEE0D0E04CCF8E010F5E1F4F20E830E0D4
:10320000A40161E470E086EC94E00E94E20A882365
:1032100009F4A5CF00E02FE330E0A40161E470E001
:1032200086EC94E00E94E00B4E01E3E08E0E911CD0
:1032300001E02DE030E0A40161E470E086EC94E070
:103240000E94E00B2DE030E0A4016FE770E086EC17
:1032500094E00E94E00BAE01405F5F4F00E02FE37F
:1032600030E061E470E086EC94E00E94E00B77CF00
:10327000F12CE12C222309F47DCF7C0121E0E21A1C
:10328000F10878CFEF92FF920F931F93CF93DF93C4
:10329000EC017B01CA010E94840E0CE114E0109342
:1032A000C9040093C804CE010E94A70F1093C9045B
:1032B0000093C80497FD0196959587959195819502
:1032C0009109AE01B7018096DF91CF911F910F91C7
:1032D000FF90EF900C9447118F929F92AF92BF9204
:1032E000CF92DF92EF92FF92CF93DF93EC01EF81C9
:1032F000F0E0EE0FFF1FE859FF4FC590D490F12C7E
:10330000E12C898534E6832E912CA12CB12CA501CA
:103310009401281B310941095109C701B6010E94D6
:10332000B53621E030E0683C71058105910524F057
:10333000A50194010E946E353E8B2D8B8A8594E603
:10334000892E912CA12CB12CA5019401281B3109A7
:1033500041095109C701B6010E94B536A501940182
:103360000E946E35388F2F8B8B85833308F1825303
:10337000990B092E000CAA0BBB0BA5019401281B6D
:10338000390B4A0B5B0BC701B6010E94B536A5018C
:1033900094010E946E353A8F298FDF91CF91FF9073
:1033A000EF90DF90CF90BF90AF909F908F90089557
:1033B0001A8E198EF2CF2F923F924F925F927F9288
:1033C0008F929F92AF92BF92CF92DF92EF92FF9235
:1033D0000F931F93CF93DF93EC01762E5901470192
:1033E0008C85312C212C861324C0052E000C660BF5
:1033F000770B9A01AB013E5F4F4F5F4FB701FF0C58
:10340000880B990B6801012E000CEE08FF086C195F
:103410007D098E099F090E94B53620E034E040E026
:1034200050E00E946E3519012A012C0C3D1C4E1CE7
:103430005F1C8D8530E020E0871121C06801110FED
:10344000EE08FF089501BB0C440B550B3E5F4F4F38
:103450005F4F092C000CAA08BB08C501B4016C1908
:103460007D098E099F090E94B53620E034E040E0D6
:1034700050E00E946E352C0D3D1D4E1D5F1DC1019B
:10348000820F931FDF91CF911F910F91FF90EF90CB
:10349000DF90CF90BF90AF909F908F907F905F9084
:1034A0004F903F902F900895FC018485811106C0B4
:1034B00081E09585911103C080E0089581E0089531
:1034C0000F931F93CF938C01C2E36233710534F0E5
:1034D0006036710514F06FE570E0C62FF801C48303
:1034E000C8010E94541A811108C0F801C387C8019D
:1034F000CF911F910F910C946C19CF911F910F9147
:1035000008950F931F93CF938C01C0E077FD06C001
:103510006436710514F063E670E0C62FF801C383CA
:10352000C8010E94541A811108C0F801C287C8015D
:10353000CF911F910F910C946C19CF911F910F9106
:1035400008950F931F93CF938C01C1E016161706B1
:1035500034F46436710514F063E670E0C62FF801A8
:10356000C283C8010E94541A811108C0F801C187A2
:10357000C801CF911F910F910C946C19CF911F919D
:103580000F9108950F931F93CF938C01C0E077FDA7
:1035900006C06536710514F064E670E0C62FF801C8
:1035A000C183C8010E94541A811108C0F801C08764
:1035B000C801CF911F910F910C946C19CF911F915D
:1035C0000F9108950F931F93CF938C01C0E077FD67
:1035D00006C06931710514F068E170E0C62FF8018A
:1035E000C083C8010E94541A811108C0F801C78322
:1035F000C801CF911F910F910C946C19CF911F911D
:103600000F9108958F929F92AF92BF92CF92DF92C7
:10361000EF92FF92FC011382148215821682908130
:10362000992391F141E050E060E070E043835483DE
:103630006583768321E030E080E0A92FB0E0812C23
:10364000912C540183942A173B07F4F44181840F91
:103650008917B8F0891B4381548165817681750192
:103660006401022E04C0CC0CDD1CEE1CFF1C0A946D
:10367000D2F74C295D296E297F29438354836583C2
:1036800076832F5F3F4FDFCFFF90EF90DF90CF909B
:10369000BF90AF909F908F900895EF92FF920F93FD
:1036A0001F93CF93DF9388E790E09093FB0580937F
:1036B000FA051092FC051092FF0510920106109277
:1036C00005061092040683E090E09093070680932D
:1036D000060610920306C8E0D6E088E0E82E94E6DD
:1036E000F92E02E311E0E882F9820A831B820C833F
:1036F0001D831E83EF82F88609871A860B871C8636
:103700001D861E871F87CE010E960E94021BCE01CA
:103710000E946C196B9686E0CA3AD80721F710927E
:10372000F505DF91CF911F910F91FF90EF900895D4
:10373000FC0121E01616170634F4258130E06217EB
:1037400073070CF49B0126838485873091F085856F
:10375000873079F0CF010E9621E01616170634F463
:10376000268530E0621773070CF49B0127870C94C1
:10377000021B0895FC0116161706B4F46132710598
:1037800014F060E270E065838485863079F0858589
:10379000863061F066878785681708F4862F8787EB
:1037A000CF010E960C94021B61E0EDCF0895EF92CD
:1037B000FF920F931F93CF93DF931F92CDB7DEB786
:1037C0008C018091C5050E943F05892B59F4C801E1
:1037D0000E94F5160F90DF91CF911F910F91FF90EE
:1037E000EF900895209101068091FE0581110CC093
:1037F00047E050E0222311F049E050E0B8018FEF9C
:1038000095E00E94DB162BC0E091FF05211161C0FD
:10381000E73028F5F0E0E15FF34E0C94D936161C42
:10382000331C461C601C661C661C601C809139049D
:1038300090913A04019799F00E944916B801680FD7
:10384000791F072E000C880B990B0E943B340E94B5
:1038500083140E9449169093FB058093FA0581E03A
:103860008093FD05B7CF80910406898344E050E042
:10387000B801CE0101960E94DB16898190E09093F9
:103880000506809304060E942606E9CF809106066D
:10389000898344E050E0B801CE0101960E94DB1616
:1038A000898190E09093070680930606892BB9F6EC
:1038B00060E080918F050E94680510929105CFCF3E
:1038C00042E050E0B80180E096E09BCF4BE050E052
:1038D000F9CF2150330B4BE1429FC001439F900D24
:1038E0001124885F994FE93008F0B9CFF0E0E5582E
:1038F000F34E0C94D936841C931CA21CB11CC01C22
:10390000CF1CDE1CED1C051D4BE1429FF001439FC7
:10391000F00D1124E650FA4F6685600F712F711D6E
:103920000E94E21A9CCF4BE1429FF001439FF00DB1
:103930001124E650FA4F6785600F712F711D0E94A8
:10394000C21A8DCF4BE1429FF001439FF00D11242D
:10395000E650FA4F6089600F712F711D0E94A11A05
:103960007ECF4BE1429FF001439FF00D1124E650C2
:10397000FA4F6189600F712F711D0E94811A6FCFFC
:103980004BE1429FF001439FF00D1124E650FA4FA6
:103990006289600F712F711D0E94601A60CF4BE128
:1039A000429FF001439FF00D1124E650FA4F6389C6
:1039B000600F712F711D0E94BA1B51CF4BE1429FC6
:1039C000F001439FF00D1124E650FA4F6489600F17
:1039D000712F711D0E94981B42CF4BE1429FC00185
:1039E000439F900D11249C0126503A4F7901F90113
:1039F000828D898348E050E0B801CE0101960E9493
:103A0000DB168981F701828F2ACF2F5F3F4F4BE171
:103A1000429FC001439F900D11249C0126503A4FB4
:103A20007901F9018081898348E050E0B801CE0135
:103A300001960E94DB168981F701808310CF6CEF1D
:103A40008EE593E00C9415086AEF8EE593E00C94F4
:103A500015088C3F28F48A3F88F4883F21F00895A8
:103A60008C3F41F00895E0910903F0910A033097EB
:103A700049F009940E94DE040C941F1D0E94030665
:103A80000C94241D08958F929F92AF92BF920F9332
:103A90001F93CF93DF93CDB7DEB7A1970FB6F894FE
:103AA000DEBF0FBECDBF19A2423008F44AE08E013E
:103AB0000F5D1F4F842E912CB12CA12CA5019401D8
:103AC0000E94D735E62FB901CA01EA3044F5E05D1E
:103AD000D801EE938D01232B242B252B79F790E031
:103AE00080E0109769F0FD0101900020E9F731971F
:103AF000AF014A1B5B0BBD0182EC94E00E94CB1529
:103B0000A1960FB6F894DEBF0FBECDBFDF91CF9167
:103B10001F910F91BF90AF909F908F900895E95C97
:103B2000D7CFBF92CF92DF92EF92FF920F931F9366
:103B3000CF93DF93F8942091FA053091FB053093F1
:103B40001503209314039091FC0590931603909114
:103B5000FF0590931703909101069093180390919D
:103B60000406909319039091060690931A0390917E
:103B7000030690931B03EAEFF5E0A4E1B3E096851A
:103B800018969C931897978519969C9319979089E6
:103B90001A969C931A9791891B969C931B979289CE
:103BA0001C969C931C9793891D969C931D979489B2
:103BB0001E969C931E97928D1F969C931F97938D94
:103BC00050969C9350977B96199696E0EC39F9079E
:103BD000B1F692E5E92E93E0F92E04E113E0C0E19D
:103BE000D0E0C451D340EEE38E9FC00DD11D11240F
:103BF000F801B1908F016E01CE0EDF1EC6010E944A
:103C00005835B81621F06B2DC6010E946035E016BC
:103C1000F10671F77894DF91CF911F910F91FF908A
:103C2000EF90DF90CF90BF900895CF92DF92FF92F8
:103C30000F931F93CF93DF938091FE05882309F4A0
:103C4000ABC080910106811198C08091FF0583303F
:103C500009F0B2C081E090910006913009F080E057
:103C600080939D058091FF05853009F07AC0F09022
:103C7000000689E08F1508F474C0F0920306F894EA
:103C8000CCE0D2E06E0101E110E00C501240EEE316
:103C9000FE9E000D111D1124C8018C0D9D1D0E945A
:103CA0005835F60181936F01FAE4CF16F2E0DF0692
:103CB00099F780910C0290910D029093FB058093EF
:103CC000FA0580910E028093FC0580910F0280938B
:103CD000FF0580911002809301068091110290E00F
:103CE00090930506809304068091120290E09093D1
:103CF000070680930606F092030608E016E0688542
:103D000070E0C8010E94E21A698570E0C8010E9453
:103D1000C21A6A8570E0C8010E94A11A6B8570E022
:103D2000C8010E94811A6C8570E0C8010E94601A67
:103D30006D8570E0C8010E94BA1B6E8570E0C801F5
:103D40000E94981B8F85F80184878889858729962A
:103D5000055E1F4FF2E0C234DF0789F678940E94B7
:103D6000CD148091FF05863041F4809100068111C9
:103D700004C00E944D1B0E94CD1481E08093F50584
:103D80000E94F7056093F6057093F7058093F80598
:103D90009093F905109200068091FE0591E0892725
:103DA0008093FE059093FD05DF91CF911F910F91B8
:103DB000FF90DF90CF900895843009F053CF809129
:103DC00000068A3008F04ECF809303060E94911DB2
:103DD0001092F50547CF0F931F93CF93DF938C017C
:103DE000EB01FC01808191810097E1F0688179818C
:103DF00061157105A9F0428153812C813D814217E3
:103E0000530770F00E94EE388C819D81F8019583F4
:103E100084831D821C82DF91CF911F910F910895A1
:103E20000E948F3788819981F801918380838A81EC
:103E30009B81938382838C819D8195838483198266
:103E400018821B821A82E5CFCF93DF93EC01888121
:103E50009981009711F00E948F37198218821D8274
:103E60001C821B821A82DF91CF910895FC01808110
:103E70009181009711F00C948F3708950F931F9341
:103E8000CF93DF93EC0188819981009759F02A81C3
:103E90003B812617370730F081E0DF91CF911F91EA
:103EA0000F9108958B016F5F7F4F0E941838009724
:103EB00059F0998388831B830A832C813D81232BAE
:103EC00059F7FC011082E8CF80E0E7CFEF92FF9234
:103ED0000F931F93CF93DF93EC017B01CB010E94E3
:103EE000F6330097A9F00C811D81080F191FB80146
:103EF000CE010E943E1F882399F0288139818C8150
:103F00009D81B701820F931F0E94EF331D830C83A5
:103F1000CE01DF91CF911F910F91FF90EF90089507
:103F2000CE010E94241FF4CFEF92FF920F931F93B4
:103F3000CF93DF936115710541F480E0DF91CF915C
:103F40001F910F91FF90EF90089541155105B1F029
:103F50007B01EC010C811D81040F151FB8010E942B
:103F60003E1F882351F3288139818C819D81B701BF
:103F7000820F931F0E94EE381D830C8381E0DECFF9
:103F8000EF92FF920F931F93CF93DF93EC018B017E
:103F9000CB010E94F6337C01BC01CE010E943E1F82
:103FA00081110BC0CE010E94241FCE01DF91CF9161
:103FB0001F910F91FF90EF900895FD82EC82B80160
:103FC000888199810E94EF33F0CFFC011182108229
:103FD00013821282158214820C94C01FEF92FF92FA
:103FE0000F931F93CF93DF93EC017B018A01BA01FA
:103FF0000E943E1F81110BC0CE010E94241FCE01E2
:10400000DF91CF911F910F91FF90EF9008951D8345
:104010000C83B701888199810E94EE38F0CFFB01B3
:1040200001900020E9F73197AF01461B570B0C9424
:10403000EE1F0F931F93CF93DF93CDB7DEB7629739
:104040000FB6F894DEBF0FBECDBF8C01CB01F801D7
:104050001182108213821282158214824AE0BE01FC
:104060006F5F7F4F0E94FF33BE016F5F7F4FC801BC
:104070000E940F2062960FB6F894DEBF0FBECDBF30
:10408000DF91CF911F910F9108950F931F93CF93BD
:10409000DF93CDB7DEB729970FB6F894DEBF0FBE1A
:1040A000CDBF8C01862FF8011182108213821282FB
:1040B000158214824AE0BE016F5F7F4F90E00E943C
:1040C0000A34BE016F5F7F4FC8010E940F202996FE
:1040D0000FB6F894DEBF0FBECDBFDF91CF911F9119
:1040E0000F910895CF93DF93EC01FB01861797079B
:1040F00049F0608171816115710541F044815581FC
:104100000E94EE1FCE01DF91CF9108950E94241FDF
:10411000F9CFFC011182108213821282158214825F
:104120000C947220FC01118210821382128215827B
:104130001482FB0101900020E9F73197AF01461B83
:10414000570B0C94EE1F85ED8093BC008091960276
:1041500090919702A0919802B09199020796A11DA3
:10416000B11D23E0B695A795979587952A95D1F728
:104170002091BC0024FD03C01092E30208954091F9
:104180009602509197026091980270919902452B86
:10419000462B472B69F30097A105B10541F02AE2B0
:1041A0002A95F1F700C00197A109B109E1CF8091EB
:1041B00095020C94F906FC01A081B18150962C91D6
:1041C00082AD38E0839FC0011124289FA001299F60
:1041D000500D112470E060E080AD91AD0C94DE389C
:1041E0001F93CF93DF93EC010E94A3111BAD8AAD07
:1041F000180FE881F9818189181768F0EC81FD8139
:1042000030E020E040E060E1CE01099580E0DF9100
:10421000CF911F910895FE01E557FF4F80818823BC
:1042200019F0CE010E94DB20612FCE010E94901177
:1042300081E0EDCFCF93DF93EC01FC01E557FF4F19
:104240008081882319F0CE010E94DB2060E0CE013E
:10425000DF91CF910C9490112F923F924F925F92E9
:104260006F927F928F929F92AF92BF92CF92DF9286
:10427000EF92FF920F931F93CF93DF93CDB7DEB7EB
:104280002A970FB6F894DEBF0FBECDBF6B017C013D
:1042900028E036E03A8729870FE515E0312C212CFC
:1042A0001B82A985BA851796EC911797F0E0EE0F5F
:1042B000FF1FE859FF4F459054905996AD90BC9020
:1042C000712C612CA114B10451F0C701B601A301F6
:1042D00092010E94D73520FD02C0B12CA12C95017E
:1042E00050E040E02C833D834E835F83D8011296DB
:1042F0008C9181117BC0E985FA858789908DA70112
:104300009601280F391F411D511DCA01B9012C8189
:104310003D814E815F81620F731F841F951FA30132
:1043200092010E94D735672B682B692B09F05EC07C
:10433000A985BA851896BC91B8870E949733E985FC
:10434000FA854685442309F451C02BE1229DF001F2
:10435000239DF00D1124E650FA4F268D203208F0EF
:104360009CC0A985BA8551968D909D90AD90BC90CA
:10437000549704C0B694A794979487942A95D2F73B
:10438000282D2170BBE1B29DF001B39DF00D1124E9
:10439000E650FA4F368D4150550B341715060CF088
:1043A0007EC0368D3F5F4BE1429DF001439DF00D95
:1043B0001124E650FA4F368F2223C1F05885852EFE
:1043C000912CB12CA12C24E630E040E050E00E947A
:1043D0006E3586169706A806B90644F061E0D80146
:1043E0008C910E94680581E0F8018283A985BA85D5
:1043F00055968D919C91569757964D915C9170E092
:1044000060E0480F591F611D711DCB01BA016C0D91
:104410007D1D8E1D9F1D2C813D814E815F81620F10
:10442000731F841F951FA30192010E94D735672B2C
:10443000682B692B39F460E0D8018C910E946805E3
:10444000F801128289859A850E94541A81118B8302
:10445000FFEF2F1A3F0A29853A85255E3F4F3A879D
:104460002987085F1F4F36E02316310409F019CF62
:104470008091060690910706009709F459C0823092
:10448000910579F08330910509F475C0019769F4BD
:1044900087E090E09A83898308C020E073CF30E002
:1044A00082CF44E050E05A834983E981FA81EE0FDC
:1044B000FF1FE859FF4F80809180092C000CAA084B
:1044C000BB08412C512C3201439494E0891691048D
:1044D000A104B10430F02401350176946794579417
:1044E00047944C0C5D1C6E1C7F1CC701B601A501D6
:1044F00094010E94D735672B682B692B41F461E04A
:1045000080918F050E94680581E080939105C30129
:10451000B201A50194010E94D735672B682B692B46
:1045200039F460E080918F050E9468051092910532
:104530008091FE05811106C08091FD052B80282AFF
:104540002092FD052A960FB6F894DEBF0FBECDBFB0
:10455000DF91CF911F910F91FF90EF90DF90CF905F
:10456000BF90AF909F908F907F906F905F904F9093
:104570003F902F9008951A82198297CF1F920F9221
:104580000FB60F9211242F933F938F939F93AF9366
:10459000BF9380910C0390910D03A0910E03B091F5
:1045A0000F0330910B0323E0230F2D3758F50196AD
:1045B000A11DB11D20930B0380930C0390930D0359
:1045C000A0930E03B0930F038091100390911103F9
:1045D000A0911203B09113030196A11DB11D809308
:1045E000100390931103A0931203B0931303BF9190
:1045F000AF919F918F913F912F910F900FBE0F9090
:104600001F90189526E8230F0296A11DB11DD2CF49
:104610001F920F920FB60F9211242F933F934F9337
:104620005F936F937F938F939F93AF93BF93EF931A
:10463000FF93E0910201F09103010995FF91EF9141
:10464000BF91AF919F918F917F916F915F914F91AA
:104650003F912F910F900FBE0F901F9018951F92B2
:104660000F920FB60F9211242F933F934F935F93A6
:104670006F937F938F939F93AF93BF93EF93FF932A
:10468000E0910001F09101010995FF91EF91BF9137
:10469000AF919F918F917F916F915F914F913F91DA
:1046A0002F910F900FBE0F901F9018951F920F9291
:1046B0000FB60F9211242F933F934F935F936F93F5
:1046C0007F938F939F93AF93BF93EF93FF938091CB
:1046D000B900887F803609F44AC0F0F5883209F4C1
:1046E000A7C018F5803109F49BC0B8F4882309F4F9
:1046F000F9C0883009F494C0FF91EF91BF91AF9158
:104700009F918F917F916F915F914F913F912F91E9
:104710000F900FBE0F901F901895883109F488C034
:10472000803251F78093E20214C0803409F49DC0B6
:1047300040F48033B9F38833F9F68093E20285ECD4
:10474000B0C0803509F485C0883509F496C0883436
:1047500099F60E94A320D0CF883909F48CC038F58F
:10476000883729F050F4883611F0803729F683E035
:104770008093E3021092E10257C0883809F47BC0AD
:10478000803919F0803809F0B7CF8091E10280328A
:1047900008F071C0E091E10281E08E0F8093E102A8
:1047A0008091BB00F0E0EF53FD4F80833DC0803B24
:1047B00039F0E0F4803A09F479C0883A09F09CCFE6
:1047C00084E08093E3021092BE021092BD02E09159
:1047D000BB02F091BC0209958091BD0281110FC00E
:1047E00081E08093BD0210929B0209C0803C09F4D5
:1047F000A6CF883C09F4A3CF883B09F07DCFE09198
:10480000BE0281E08E0F8093BE02F0E0E556FD4FC0
:1048100080818093BB009091BE028091BD0229C02F
:10482000809108038093BB0085EC8093BC0064CF2B
:104830009091070380910603981758F5E0910703BC
:1048400081E08E0F80930703F0E0EA51FD4F8081F5
:10485000E9CFE091070381E08E0F809307038091F9
:10486000BB00F0E0EA51FD4F8083909107038091F7
:1048700006039817C8F285E8D8CFE091070381E0D6
:104880008E0F809307038091BB00F0E0EA51FD4F4B
:1048900080838091E50281115CCF81E08093E40206
:1048A00084EA8093BC001092E30226CF85EC8093CB
:1048B000BC001092E3028091E102803230F4E0917A
:1048C000E102F0E0EF53FD4F10826091E10270E0F1
:1048D000E091BF02F091C00281EC92E00995109244
:1048E000E1020ACF1092E20234CF1F920F920FB66C
:1048F0000F9211242F933F934F935F936F937F9366
:104900008F939F93AF93BF93EF93FF938EE593E0C5
:104910000E94F307FF91EF91BF91AF919F918F910B
:104920007F916F915F914F913F912F910F900FBEAB
:104930000F901F9018951F920F920FB60F9211248F
:104940002F933F934F935F936F937F938F939F9397
:10495000AF93BF93EF93FF93CF93DF931F92CDB7A6
:10496000DEB781E08983E091FB03F091FC0330978F
:1049700061F0A0916E03B0916F036C91A0917403EC
:10498000B09175038C910995898389818823E1F021
:10499000E0916E03F0916F038081E0917403F091D8
:1049A000750382FD25C09081809177038F5F8F739F
:1049B00020917803821741F0E0917703F0E0E25A0A
:1049C000FC4F958F809377030F90DF91CF91FF91EC
:1049D000EF91BF91AF919F918F917F916F915F9177
:1049E0004F913F912F910F900FBE0F901F901895F0
:1049F0008081EACF1F920F920FB60F9211248F92EF
:104A00009F92AF92BF92CF92DF92EF92FF920F935D
:104A10001F932F933F934F935F936F937F938F9346
:104A20009F93AF93BF93EF93FF930E94F70560931B
:104A30004A0270934B0280934C0290934D028091F6
:104A4000FD039091FE03029709F072C1C090140417
:104A5000D0901504809113048C151D0411F410924C
:104A6000130480911304811106C18091390490913F
:104A70003A04019709F0ECC040910F0450911004E2
:104A8000609111047091120480912104909122048C
:104A9000A0912304B0912404481759076A077B07A3
:104AA00080F08091210490912204A0912304B09180
:104AB00024040196A11DB11D84179507A607B70709
:104AC00020F520912104309122044091230450913B
:104AD000240420930F043093100440931104509346
:104AE0001204F12CE12CC701B6010E94B536609387
:104AF0000B0470930C0480930D0490930E04A70193
:104B000096010E94D73560931304C0902504D0907D
:104B10002604E0902704F09028040E94D20500911A
:104B20001D0410911E0420911F0430912004601771
:104B300071078207930708F416C1601B710B820B83
:104B4000930B60932D0470932E0480932F04909305
:104B5000300400912104109122042091230430910B
:104B6000240480900F0490901004A0901104B09041
:104B70001204081519052A053B0508F4FDC044E098
:104B8000660F771F881F991F4A95D1F7672F782FD7
:104B9000892F9927C61AD70AE80AF90AA0910904A9
:104BA000B0910A04A70196010E9498350E943934F9
:104BB0009B01AC0160EC71EE84E69CE40E94083637
:104BC0006B017C0120E030E040E85FE30E94343478
:104BD00087FDF0C020E030E048EC53E4C701B601A7
:104BE0000E94B036181634F4C12CD12C98ECE92E62
:104BF00093E4F92EA701960160913104709132047B
:104C000080913304909134040E943434882301F15C
:104C1000C0923104D0923204E0923304F092340412
:104C2000609107047091080490E080E00E9439349C
:104C30009B01AC0160EC71EE84E69CE40E940836B6
:104C4000A70196010E9408360E9481360E94D8135F
:104C500080910F0490911004A0911104B09112045E
:104C60000196A11DB11D80930F0490931004A09391
:104C70001104B0931204809113048F5F8093130486
:104C8000E0910104F0910204309781F12091160423
:104C900080911704909118042817190611F41092A6
:104CA00016048091160481111CC060911904709142
:104CB0001A0480911B0490911C0409958091190499
:104CC00090911A04A0911B04B0911C040196A11D9F
:104CD000B11D8093190490931A04A0931B04B09300
:104CE0001C04809116048F5F80931604E091FF03EB
:104CF000F09100043097E1F060910B0470910C0486
:104D000080910D0490910E04099580910B0490916F
:104D10000C04A0910D04B0910E040196A11DB11DCB
:104D200080930B0490930C04A0930D04B0930E0495
:104D3000FF91EF91BF91AF919F918F917F916F9173
:104D40005F914F913F912F911F910F91FF90EF90A5
:104D5000DF90CF90BF90AF909F908F900F900FBE3D
:104D60000F901F9018950095109520953095600F25
:104D7000711F821F931FE5CE6C157D058E059F0563
:104D800008F00CCFA7019601261B370B480B590BD7
:104D9000DA01C90124E0880F991FAA1FBB1F2A95B9
:104DA000D1F7892F9A2FAB2FBB27C80ED91EEA1E29
:104DB000FB1EF4CEC12CD12C80E8E82E8FE3F82E18
:104DC00019CF1F920F920FB60F9211240F931F93BA
:104DD0002F933F934F935F936F937F938F939F9303
:104DE000AF93BF93CF93DF93EF93FF93C0914004B2
:104DF000D0914104209709F45BC08C850E943F0547
:104E0000182F8E850E943F05880F991F812B9A8944
:104E1000891709F44DC0EA890B891C892D893E89BF
:104E200094E0E902F0011124482F082E000C550BE4
:104E3000E42BF52BE25FFE4F9081492F990F550B24
:104E4000660B770B400F511F621F731F4B8B5C8BE0
:104E50006D8B7E8B8A8B288939892230310531F11F
:104E600023303105D1F12130310511F5833001F5C1
:104E70008B899C89AD89BE8932E0B595A7959795B8
:104E800087953A95D1F78F8B988FA98FBA8F8F8D91
:104E900098A1A9A1BAA18BA39CA3ADA3BEA30E9474
:104EA000F7056F8F78A389A39AA302C0882301F323
:104EB000FF91EF91DF91CF91BF91AF919F918F9132
:104EC0007F916F915F914F913F912F911F910F9122
:104ED0000F900FBE0F901F901895882311F083300C
:104EE00039F78B899C89AD89BE89B595A79597952A
:104EF0008795C9CF1F920F920FB60F9211242F934F
:104F00003F934F935F936F937F938F939F93AF9351
:104F1000BF93EF93FF930E94E126FF91EF91BF9122
:104F2000AF919F918F917F916F915F914F913F9141
:104F30002F910F900FBE0F901F901895CF92DF9278
:104F4000EF92FF920F931F93CF93DF93109255032D
:104F50001092540388EE93E0A0E0B0E080935603F3
:104F600090935703A0935803B09359032FE831E06F
:104F70003093530320935203109261031092600305
:104F80008093620390936303A0936403B0936503DB
:104F900081EA91E090935F0380935E0385EC90E05B
:104FA00090936B0380936A0384EC90E090936D037D
:104FB00080936C0380EC90E090936F0380936E037A
:104FC00081EC90E0909371038093700382EC90E009
:104FD000909373038093720386EC90E09093750333
:104FE00080937403109277031092780310927903E0
:104FF00010927A031092FC031092FB0380E690E07B
:105000009093080480930704C8E1D0E0D0930A0489
:10501000C093090410923C0410923B0480E090E09D
:10502000A0EFB2E48093310490933204A093330450
:10503000B093340410923504109236041092370461
:10504000109238041092290410922A0410922B0412
:1050500010922C0410922D0410922E0410922F0402
:10506000109230041092FE031092FD0310923A0445
:10507000109239040E949804109200041092FF03C9
:10508000109202041092010410920404109203047E
:105090001092060410920504209107043091080430
:1050A0006091090470910A04C9010E94C536709389
:1050B000150460931404C901BE010E94C5367093A3
:1050C0001804609317041092C5041092C4048CE174
:1050D00094E09093530580935205109255051092D9
:1050E000540510925705109256051092DE0483EB7A
:1050F00091E09093C3048093C2041092C70410926D
:10510000C6041092DB041092D2041092D3041092C1
:10511000D4041092D5048FEF8093DC048093E004D4
:10512000E4EEF4E0DFEFD19384E0EA3FF807D9F74B
:1051300080E099E09093CB048093CA0485EF99E0D6
:105140009093CD048093CC048FEF91E19093CF04A2
:105150008093CE0480E493E19093D1048093D004B3
:1051600030E020E040E069E086EC94E00E94000935
:10517000109221051092200586E294E09093FB04A2
:105180008093FA0482E494E09093FF048093FE04F9
:10519000C1E0C09300051092010510922F051092F6
:1051A0004F0510924B05C0935005C09351058BEBF2
:1051B00091E09093FD048093FC0486EC94E00E94BF
:1051C000900A109219051092180510921D05109260
:1051D0001C058FEF9FEF90931B0580931A0590930A
:1051E0001F0580931E05E091FC04F091FD040280F0
:1051F000F381E02D86EC94E0099585E994E09093A5
:105200002305809322051092320583E18093EF04F9
:1052100082E18093F004D093F1041092590510922A
:10522000580510929D0581E190E090939F05809331
:105230009E0584E090E09093A1058093A00581E015
:1052400090E09093A3058093A20562E081E10E9423
:10525000960562E084E00E94960580919E050E947A
:105260003F05D82F8091A0050E943F05880F991F08
:105270008D2B8093A4051092A5051092A60510927F
:10528000A7051092A8051092A9051092AA051092E0
:10529000AB051092AC051092AD051092AE051092C0
:1052A000AF051092B005C093BA051092C0051092D8
:1052B000BF056EE089EB95E00E945A1582E995E002
:1052C0009093410480934004C093C6051092CC058E
:1052D0001092CB05C093D2051092D8051092D70535
:1052E0001092E3051092E2052AEC3DEF3093E505BC
:1052F0002093E40580E092E09093E7058093E60533
:105300001092E8051092EF051092EE053093F1052A
:105310002093F0059093F3058093F2051092F40525
:1053200088E790E09093FB058093FA051092FC05C6
:10533000C093FD051092FE051092FF051092000625
:1053400010920106109202061092030610920506B2
:105350001092040683E090E090930706809306067F
:10536000C8E0D6E03AEAC32E36E0D32E48E0E42E79
:1053700054E6F52E02E311E0188A198A1A8A1B8A6C
:105380001C8AE882F9820A831B820C831D831E8398
:10539000EF82F88609871A860B871C861D861E8772
:1053A0001F87CE010E960E94021BCE010E946C192F
:1053B0006B96CC16DD0601F71092F5051092F605F6
:1053C0001092F7051092F8051092F905DF91CF9130
:1053D0001F910F91FF90EF90DF90CF900895CF93A2
:1053E000DF93CDB7DEB7CF55D1090FB6F894DEBF46
:1053F0000FBECDBF789484B5826084BD84B58160D2
:1054000084BD85B5826085BD85B5816085BD80918F
:105410006E00816080936E00109281008091810007
:1054200082608093810080918100816080938100FF
:10543000809180008160809380008091B1008460C1
:105440008093B1008091B00081608093B000809122
:105450007A00846080937A0080917A0082608093E1
:105460007A0080917A00816080937A0080917A003E
:10547000806880937A001092C100E0916E03F091F1
:105480006F0382E08083E0916A03F0916B031082E6
:10549000E0916C03F0916D038FE3808310927603AB
:1054A000E0917203F091730386E08083E0917003D2
:1054B000F0917103808180618083E0917003F091AD
:1054C0007103808188608083E0917003F0917103A3
:1054D000808180688083E0917003F0917103808106
:1054E0008F7D808361E083E00E94960580913B047C
:1054F00090913C04892B59F481E080933D0484E031
:1055000090E00E94F33690933C0480933B04F8941F
:1055100010928000109281001092850010928400F9
:1055200081EC92EA909389008093880080918100B9
:1055300088608093810080918100826080938100E7
:1055400080916F00826080936F0078946091310445
:105550007091320480913304909134040E9483143A
:1055600010923A0410923904F89480E690E09093F7
:105570000804809307046091090470910A040E9452
:10558000C536709315046093140484E090E0909302
:10559000180480931704789460E070E080EF92E440
:1055A0000E94831484E29DE1909304048093030499
:1055B0008FE19DE1909306048093050485EE94E1CC
:1055C00090930204809301040E9403066CE085EC32
:1055D00095E00E945A1565E081ED95E00E945A150C
:1055E00060E085E10E94960585E18093DD0560E03D
:1055F00084E10E94960584E18093E905809168002A
:1056000086608093680080916D00806180936D005A
:1056100080916C00886080936C0061E087E00E945C
:10562000960587E080935F0515E010935E0561E0C5
:1056300088E00E94960588E08093670510936605D0
:1056400061E08AE00E9496058AE080936F051093DE
:105650006E0561E086E00E94960586E080937705FE
:105660001093760561E089E00E94960589E08093B9
:105670007F0510937E0561E08BE00E9496058BE02C
:10568000809387051093860561E083E00E9496056C
:1056900083E080938F0510938E05E091CA04F0910A
:1056A000CB0430E020E040E06AE086EC94E009952D
:1056B00086EC94E00E941A2186EC94E00E94F0208F
:1056C0008111FACF60E086EC94E00E949011E091A5
:1056D000CA04F091CB0430E020E040E06BE086ECBF
:1056E00094E009959E012F5F3F4F790110E000E0A3
:1056F000322E2F2CC8010E945835F70181937F016B
:105700000F5F1F4F01311105A9F763E871E0CE016A
:1057100002960E94E5382981892B11F4273061F126
:105720000E944D1BF89463E871E0CE0102960E943E
:10573000EE3887E08983E32CF22C10E000E0F701DB
:10574000D1907F01C8010E945835D81621F06D2DE7
:10575000C8010E9460350F5F1F4F0131110579F7B5
:10576000789410E0109303061A3019F0812F0E94EC
:10577000911D1F5F1B30B1F70E94CD148CE291E2A6
:10578000909300048093FF038AE297E190930A03C9
:105790008093090390930101809300018091690037
:1057A000836080936900E89A85E19EE19093930578
:1057B0008093920587ED9BE19093970580939605E2
:1057C00085EF96E1909395058093940589E197E1A3
:1057D0009093DA058093D9056D961FAE1EAE6D9736
:1057E0009E012F5F3F4F67963FAF2EAF679785ECC7
:1057F00095E00E94EA1481ED95E00E94EA14009180
:10580000A9051091AA052091AB053091AC058091B6
:105810009A0590919B058017910709F4B2C04091B9
:10582000B1055091B2056091B3057091B405C09077
:10583000B505D090B605E090B705F090B8054C19C5
:105840005D096E097F09F801E81BF90BCF01F093A0
:105850009905E093980510939B0500939A054031B4
:1058600051056105710508F083C09F01220F331FA8
:10587000820F931F909399058093980580919D05C1
:10588000882359F08091980590919905919581957B
:10589000910990939905809398050091980510912E
:1058A00099058091B9050E943F057C0189EB95E03F
:1058B0000E94EA14EF2809F067C0012B09F46BC0BD
:1058C00081E080939C05E0919405F09195053097D7
:1058D00029F0809198059091990509958091BF05CF
:1058E0009091C005029729F480919C058111109236
:1058F0009C058DED95E00E946E1589EE95E00E9465
:105900006E150AE515E06D962EAD3FAD6D9726300C
:1059100031050CF054C0F80187818823E1F00E9422
:10592000F705F801C080D180E280F380AB01BC01B3
:105930004C195D096E097F09848190E0B0E0A0E018
:10594000481759076A077B0730F060E085810E949D
:105950006805F80117826D962EAD3FAD6D972F5FEC
:105960003F4F6D963FAF2EAF6D97085F1F4FCBCF68
:10597000403251056105710508F080CF880F991FED
:1059800079CF10E000E08DCF012B29F0E091960552
:10599000F09197059CCF8091BF059091C00502972B
:1059A00009F0A7CF80919C0581119ECFE0919205CF
:1059B000F0919305309709F497CF09958FCFA09078
:1059C000DE05B090DF058090EA059090EB05A8E039
:1059D000CA2EA6E0DA2EBAEA4B2EB6E05B2EC6013E
:1059E0000E94541A882309F4C4C0FCE0EF2EF12C65
:1059F00004EF1FEF9401A50161E0C6010E94DB19CD
:105A0000F6012081820F911D97FD12C18536910507
:105A100014F084E690E0F6018783E2E3EE2EF12CA9
:105A20000EEC1FEF9401A50162E0C6010E94DB1994
:105A3000F6012181820F911D97FDFCC085369105ED
:105A400014F084E690E0F601808772E3E72EF12CF3
:105A50000EEC1FEF9401A50163E0C6010E94DB1963
:105A6000F6012281820F911D181619060CF0E4C070
:105A70008436910514F083E690E0F601818762E3B5
:105A8000E62EF12C0EEC1FEF9401A50164E0C60197
:105A90000E94DB19F6012381820F911D97FDCEC074
:105AA0008436910514F083E690E0F601828759E18F
:105AB000E52EF12C07EE1FEF9401A50165E0C6016C
:105AC0000E94DB19F6012481820F911D823391051A
:105AD0000CF4B6C08036910514F08FE590E0F60125
