:100000000C940B040C9420250C94F9240C943304C8
:100010000C946B290C94D2280C9433040C94330464
:100020000C9433040C9433040C9433040C94EB269A
:100030000C9433040C9433040C9433040C94330464
:100040000C94AF240C9433040C948C260C946626E8
:100050000C9433040C9433040C9433040C94330444
:100060000C9447250C9433044C4F4144494E472E81
:100070002E2E2E0000300018000C0009000680040F
:100080002004C00360030003A0024002E0018001DD
:100090002001C000600030002000180010000C009B
:1000A000080006000400455241534500524553459F
:1000B00054004C4F4144005341564500454E434F78
:1000C000444552204449520050554C5345204F5509
:1000D0005400534F555243450054454D504F004234
:1000E00041434B20544F204D41494E00780046413A
:1000F00043544F52592052455345540044454C00F7
:100100004241434B20544F204D41494E007800520C
:100110004553455420414C4C00525354004C4F41E0
:10012000442046524F4D20534C4F540053415645A6
:1001300020544F20534C4F54004241434B20544FC6
:10014000204D41494E007800524556455253454492
:100150000044454641554C5400444952003120501A
:1001600050514E2050554C53450034205050514E64
:100170002050554C5345003234205050514E2050A1
:10018000554C53450050554C5345204F4646004F63
:100190005554004D4944490034205050514E0032CE
:1001A00034205050514E00434C4F434B00494E5465
:1001B000004558540042504D0045585400800040BE
:1001C000002000180010000C000B000A00090008B5
:1001D000000700060005000400030002000100FE05
:1001E000FFFDFFFCFFFAFFF8FFF4FFF0FFE8FF431D
:1001F0005632204D4F4400435631204D4F44004568
:1002000055434C49442048495453004555434C49B3
:1002100044205354455053005357494E47004F46CE
:100220004653455400445554590050524F424142A0
:10023000494C495459004D4F44004555434C49449D
:100240002048495453004555434C49442053544594
:100250005053005357494E47004F464653455400AC
:1002600044555459204359434C450050524F424144
:1002700042494C49545900434C4F434B204D4F4445
:10028000004E4F4E45004356320043563100250084
:100290004F464600534849465420484954002500DB
:1002A00050554C534520574944544800250048496F
:1002B00054204348414E43450025004D554C544978
:1002C000504C59007800444956494445002F0034A9
:1002D00000020203030203040505000005000500F7
:1002E0000091000001982004805C2509AD745452EF
:1002F000B952492806AADC54192907AA5C624A0A9D
:100300002B079BE5D24A002C059154042D058B66E2
:10031000062E058954022F06A4EC631B3008ACECB2
:10032000543493023107EBEC92AC063209AC6C36D4
:100330004A2A8F003309AC6C364A1A8D043408AC53
:100340006CA21CBA003509AC6C86DE682400360944
:10035000ACEC545E3129003708AC6C468E7504381D
:1003600009ACEC544C2A26053909ACEC544C3B2919
:10037000003A06995552004108ACEC541C53064211
:1003800009AC6C561C298E044309ACEC54D43129B9
:10039000004408AC6C563447024508AC6C861E7AA3
:1003A000044608AC6C865E39034709ACEC544E3306
:1003B00029004808AC6CA21C53064906A9548600C3
:1003C0004A08ACEC6B9914004B09AC6CA24A32950C
:1003D000014C07AC6C727B044D09AD74F25A49EBC9
:1003E000004E09AD74F25449EE004F08ACEC5434A1
:1003F00093025009AC6C561C2967005108ACEC54B0
:10040000B4620A5208AC6C561CA9195309ACEC46EC
:10041000461A8D045407AB64566C015508AC6CA2A7
:100420003329005609AD74B24E65CA11570AAD742E
:10043000B24A2AA92E005809AC6CA24C2ACA00590B
:100440000AAD7472AA33CA28025A07AB64662A0737
:100450007008ADF456B6D3027107ADF48EAF0572D5
:1004600008AB64A21A2A027406AD74FE237709ADA4
:10047000F456A5464E0B78069B6452070000000414
:10048000FFFF0000000000003C007C00FC00FC03BB
:10049000FC0FFC0FFC03FC007C003C000000000093
:1004A00000000000380E380E380E380E380E380EA8
:1004B000380E380E380E380E380E000000000000DE
:1004C000240027002A0000000000250028002B003F
:1004D0000000000023002600290004040404040492
:1004E00004040202020202020303030303030102E3
:1004F00004081020408001020408102001020408B2
:1005000010200000000800020100000304070000A2
:100510000000000000001D00040404050301061093
:1005200018000017000000013F000002E125270F1E
:100530003B96B1A5464C34428C1812939029426ADE
:1005400008519A8C225286C8881164C4181A61AC6A
:10055000C4B821002F0CBABABDC948D167E3C6019F
:10056000301F7CFB1D434A54103A665787D08830B1
:1005700022C4841844A78CD9EC1009258ACC0031F8
:10058000147ABDA561A40A993933628C9071F3FF86
:10059000284506321B7CFB1D536854103A666CE4F8
:1005A0000C8999C1C65439822367F9E08101331C53
:1005B0007CFB1D536854103A666CE44072B4B392ED
:1005C000E42C8D1D22A10695190034207CFB2D21E1
:1005D00083868C213284CC904123088D183562D4D7
:1005E0008851C6ECEC018B95F301351A7CFB0D1597
:1005F0005B8C9C2F082959316AE8C8591A3B444240
:100600000D2A3300361B7D1B9E5369560C3B6774C5
:100610005E9859C282D439BB3B45624DAA3300373C
:10062000137CFB85150F52CE87E4E870CA8123E75F
:100630001D0038207CFB1D536854103A66D92112E6
:1006400044C8203A8586080942C7ECEC100935A851
:10065000CC00391A7CFB1D536854103A66678748F2
:100660002C519372BE1844420D2A330041167D1B53
:10067000A672A7D250326AC8A811E3ECDD83EFEC72
:10068000770342247D1B86446A968C22316CC4B069
:1006900011C3460C1B318AC4924D46911876CE9EEA
:1006A0003D08C162090043177D1B9E5369961042A5
:1006B0006674FE4F898D2044628D222400441B7D88
:1006C0001B86446A968C1A326CC4B011E3EC7F76B8
:1006D0006CC428124BD4240245127CFB850F52CEE9
:1006E0004B44188D9C5F3E78600046107CFB850F64
:1006F00052CE9769B21939FF1200490773DB843F64
:10070000484C0D7BDB8581F3FF3F7CF060004E247D
:100710007D1B0681E6CC1D3B860A55A24426C69861
:100720001863648891216646981961282BCCAE33F2
:1007300037004F167D1B9E5369968C1A31CEFEBF33
:100740001B316AC89A54670052318E3B06456B983C
:100750000C23316EC4B811E3468C1B316EC43012C9
:10076000A3883051946AC8B031A3C6109AD5985165
:10077000448691183762DCC10153228E3B9E638907
:10078000969022316EC4B81163C7529A2C5BB28323
:10079000C78E35680E151126ABD000540D7D1B8613
:1007A0000F520D9DFFFF150055117CFB8561F6FF73
:1007B0009F8D1834440D2A330056167FF98591F623
:1007C000FFCB11E38690224315097227CB0E035805
:1007D000297E3B8681068F91183684101922A486C3
:1007E0000C4367D024519206CD211B328A0819424E
:1007F00044868D2076D0C2017814CABA8541868E8F
:100800009040638A941924530CB2680000000004DD
:10081000FFFF00008F2911241FBECFEFD8E0DEBFFD
:10082000CDBF11E0A0E0B1E0E0E2F5E702C0059045
:100830000D92A83FB107D9F726E0A8EFB1E001C0BB
:100840001D92A03CB207E1F714E0CBE0D4E004C075
:100850002197FE010E947238CA30D107C9F70E9461
:100860008D2B0C948E3A0C940000662329F06A308C
:1008700019F0862F90E008958FEF9FEF0895AF92C3
:10088000BF92CF92DF92EF92FF920F93CF93DF93BD
:10089000EC01DA017901942F9770E1E0F0E09F011B
:1008A000092E01C0220F0A94EAF7522F6E018AE83E
:1008B000C80ED11CF601808140E0823018F4422F2E
:1008C000813049F15D01F8EFAF22E8ADF9AD288143
:1008D0003981D90150968C918A9D90018B9D300D64
:1008E0001124620F731FDF01A60FB71F01111AC079
:1008F000EA0EFB1E8C91842B85278D93AE15BF05C8
:10090000C9F7DF91CF910F91FF90EF90DF90CF90DB
:10091000BF90AF90089550E0D5CF440F550FE1142C
:10092000F10479F33C91342B35273C939F5F97700A
:10093000E1E0EE1AF1089111F0CF2CAD3DADA20F20
:10094000B31FF6018081823028F4813009F051E034
:1009500041E0E5CF51E0E3CF80E0089590E080E012
:10096000089510921704109218041092190410920E
:100970001A0410921B0410921C0410921D04109271
:100980001E0410921F04109222041092250410924B
:100990002604109227041092280410922D0410921D
:1009A0002E0410922F0410923004109229041092F9
:1009B0002A0410922B0410922C0410924B041092D3
:1009C0004A04209147043091480480E09091490402
:1009D000891760F494E0899FF0011124E20FF31F5E
:1009E00010821182128213828F5FF0CF08951092CD
:1009F0000A041092090410924104109242041092C9
:100A00004304109244040E94B104E0911104F09157
:100A10001204309709F009940895BC01F894E9E0B4
:100A2000F4E09587848722853385C9010E945E386A
:100A3000708F678BC90168E170E00E945E38738F28
:100A4000628F78940895089580935C0508959B01C2
:100A5000DC011896ED91FC9141E067E10994833047
:100A600081F028F4813099F08230A9F00895873020
:100A7000A9F08830C9F08430B1F4809180008F7D76
:100A800003C0809180008F7780938000089584B5A3
:100A90008F7784BD089584B58F7DFBCF8091B000A2
:100AA0008F778093B00008958091B0008F7DF9CF4B
:100AB000CF93DF93282F30E0F901EE5FFA4F849156
:100AC000F901E251FB4FD491F901E652FB4FC49179
:100AD000CC23A1F081110E942F05EC2FF0E0EE0F46
:100AE000FF1FE053FB4FA591B491EC91ED2381E002
:100AF00090E009F480E0DF91CF91089580E090E0EC
:100B0000FACF1F93CF93DF93282F30E0F901EE5FE8
:100B1000FA4F8491F901E251FB4FD491F901E65269
:100B2000FB4FC491CC23A9F0162F81110E942F05F1
:100B3000EC2FF0E0EE0FFF1FEA53FB4FA591B491AD
:100B40008FB7F894EC91111108C0D095DE23DC9397
:100B50008FBFDF91CF911F910895DE2BF8CFCF93F8
:100B6000DF9390E0FC01E251FB4F249186529B4FB2
:100B7000FC0184918823C9F090E0880F991FFC0143
:100B8000E454FB4FA591B491FC01EA53FB4FC5918E
:100B9000D49161110DC09FB7F8948C912095822358
:100BA0008C938881282328839FBFDF91CF9108955C
:100BB000623051F49FB7F8943C91822F8095832343
:100BC0008C93E8812E2BEFCF8FB7F894EC912E2BDE
:100BD0002C938FBFEACF3FB7F8948091E2029091B7
:100BE000E302A091E402B091E50226B5A89B05C0FE
:100BF0002F3F19F00196A11DB11D3FBFBA2FA92F9C
:100C0000982F8827BC01CD01620F711D811D911D98
:100C100042E0660F771F881F991F4A95D1F7089504
:100C20008F929F92AF92BF92CF92DF92EF92FF92FC
:100C30006B017C010E94EB054B015C01C114D104E6
:100C4000E104F104B9F00E94EB05681979098A09F9
:100C50009B09683E73408105910580F321E0C21A2B
:100C6000D108E108F10888EE880E83E0981EA11CE7
:100C7000B11CE4CFFF90EF90DF90CF90BF90AF908A
:100C80009F908F9008952FB7F8946091DE02709135
:100C9000DF028091E0029091E1022FBF08950E944F
:100CA000B1040E9443066093410470934204809310
:100CB000430490934404E0910F04F09110043097A2
:100CC00009F009958091450490914604892B39F4E7
:100CD00082E090E090930A0480930904089581E0F3
:100CE00090E0F8CF0F931F93CF93DF93EC01009127
:100CF000090410910A040E94F70480916405909100
:100D00006505039749F48FB7F89423E235E03093F3
:100D10000804209307048FBFD0936505C093640532
:100D2000C130D10599F068F0C230D105C1F02397E8
:100D3000F9F0012B89F1DF91CF911F910F910C9464
:100D40004F061092460410924504F3CFD093460408
:100D5000C093450488E190E00E940D05EACF81E050
:100D600090E0909346048093450484E090E0F4CFB3
:100D700081E090E0909346048093450488E190E000
:100D80000E940D058FB7F89429E83DE130930804DF
:100D9000209307048FBFCDCFDF91CF911F910F918B
:100DA000089508950895AF92BF92CF92DF92EF9287
:100DB000FF920F931F93CF93DF936C017B018B0105
:100DC000040F151FEB015E01AE18BF08C017D10755
:100DD00059F06991D601ED91FC910190F081E02DDF
:100DE000C6010995892B79F7C501DF91CF911F9134
:100DF0000F91FF90EF90DF90CF90BF90AF9008954C
:100E000020918F02260F3327331F21323105ECF456
:100E10002091B502FC0190E080E0243069F082E08E
:100E20000895A0918F022191AC0143595D4FA40F09
:100E3000B52FB11D2C930196861798F380918F02E0
:100E4000680F60938F0280E0089581E0089510920A
:100E5000B50281E08093B7021092B60261E082E1B0
:100E60000E94810561E083E10E948105E9EBF0E0E9
:100E700080818E7F808380818D7F808388E48093D2
:100E8000B80085E48093BC000895CF93DF9391E090
:100E900090936C028823B9F0C091B800D091BA0049
:100EA0008091BC008A7B8093BC0060E082E10E945C
:100EB000810560E083E10E9481050E942707D093AD
:100EC000BA00C093B800DF91CF91089508950895B6
:100ED0000895E091640280916302E81730F4F0E035
:100EE000ED5BFD4F808190E008958FEF9FEF0895B7
:100EF00090916402809163022FEF3FEF981748F4BE
:100F0000E92FF0E0ED5BFD4F208130E09F5F909393
:100F10006402C90108958091630290916402891B63
:100F2000990B0895CF92DF92EF92FF920F931F9348
:100F3000CF93DF937C01CB018A01209142022223CF
:100F400089F0EB016B01C40ED51ECC15DD0569F0EF
:100F50006991D701ED91FC910190F081E02DC701DD
:100F60000995F3CF642F0E940007C801DF91CF914C
:100F70001F910F91FF90EF90DF90CF900895CF9346
:100F8000DF931F92CDB7DEB76983209142022223FF
:100F9000F9F020916502203258F021E030E0FC01A8
:100FA0003383228390E080E00F90DF91CF9108950A
:100FB00080916602E82FF0E0EE5DFD4F998190830D
:100FC0008F5F809366028093650281E090E0ECCFB2
:100FD00061E0CE0101960E940007F7CFFC01538D1E
:100FE000448D252F30E0842F90E0821B930B541703
:100FF00010F0CF96089501970895FC01918D828D90
:10100000981761F0A28DAE0FBF2FB11D5D968C9128
:10101000928D9F5F9F73928F90E008958FEF9FEF67
:101020000895FC01918D828D981731F0828DE80F23
:10103000F11D858D90E008958FEF9FEF0895FC01DD
:10104000918D228D892F90E0805C9F4F821B9109AA
:101050008F73992708958AE693E00E941F0821E084
:10106000892B09F420E0822F089580E090E0892BFD
:1010700029F00E942B0881110C9400000895FC01B6
:10108000A48DA80FB92FB11DA35ABF4F2C91848DE9
:1010900090E001968F739927848FA689B7892C9346
:1010A000A089B1898C91837080648C93938D848D99
:1010B000981306C00288F389E02D80818F7D80839C
:1010C0000895EF92FF920F931F93CF93DF93EC015C
:1010D00081E0888F9B8D8C8D98131AC0E889F989DF
:1010E000808185FF15C09FB7F894EE89FF896083E2
:1010F000E889F98980818370806480839FBF81E063
:1011000090E0DF91CF911F910F91FF90EF900895A4
:10111000F62E0B8D10E00F5F1F4F0F731127E02E7F
:101120008C8D8E110CC00FB607FCFACFE889F989B7
:10113000808185FFF5CFCE010E943F08F1CFEB8D76
:10114000EC0FFD2FF11DE35AFF4FF0829FB7F8948B
:101150000B8FEA89FB8980818062CFCFCF93DF93A9
:10116000EC01888D8823B9F0AA89BB89E889F989BF
:101170008C9185FD03C0808186FD0DC00FB607FCF4
:10118000F7CF8C9185FFF2CF808185FFEDCFCE0127
:101190000E943F08E9CFDF91CF910895DC011A96B4
:1011A000ED91FC9130E020E00994DC011696ED9180
:1011B000FC9130E020E040E069E10994DC01169602
:1011C000ED91FC9130E020E040E068E109949A0163
:1011D000DC011696ED91FC91462F67E10994EF92A0
:1011E000FF920F931F93CF93DF931F92CDB7DEB77C
:1011F0007C018B01D8016C91673129F150F4653184
:10120000A0F40F90DF91CF911F910F91FF90EF907D
:1012100008956A3118F16E3FA1F7F80141814983C1
:1012200069E2C7010E94CE080BC0F80141814983E1
:10123000D7011696ED91FC9130E020E0C7010995A9
:101240000E5F1F4FD7CFF80181818983AE014F5FB9
:101250005F4F61E0C7010E94E708F2CF0F5F1F4FA9
:10126000D7011696ED91FC9130E020E040E0C701F7
:101270000995C0CF462FDC011696ED91FC9130E028
:1012800020E066E10994462FDC011696ED91FC9171
:1012900030E020E065E10994EF92FF920F931F93F5
:1012A000CF93DF93EC01042F79016D3009F446C030
:1012B00050F46B30C9F1693009F49FC06A3009F409
:1012C00065C080E046C06E3009F452C06F3099F7B7
:1012D0000E94DE08F7011381110F110F110F6C89A5
:1012E000160F60E4CE010E944309612F62956F7072
:1012F0006061CE010E944309612F6F70CE010E9490
:101300003A09F7016481606BCE010E943A09F70146
:10131000408151816281660F660F660FCE010E9487
:10132000E7080150A1F72EC061E371E0442311F0FA
:101330006CE271E0CE010E94EF080AC0411110C0BA
:1013400065E271E00E94EF08E881F98182898C8B67
:1013500081E0DF91CF911F910F91FF90EF90089561
:101360006EE171E00E94EF08E881F9818389EFCF97
:101370000E94DE0861E8CE010E944309602FCE0181
:101380000E943A09CE010E94D508E2CFEA85FB858A
:1013900030E020E040E068E2CE010995EE81FF8177
:1013A00030E020E040E064E1CE01099541E06BE4EB
:1013B000CE010E94CE08E881F981448169E2CE0124
:1013C0000E94CE0840E06BE4CE010E94CE08E88186
:1013D000F981448169E2CE010E94CE0841E06BE4CC
:1013E000CE010E94CE08E881F981458169E2CE01F3
:1013F0000E94CE0866E371E09DCF8BE691E0998371
:1014000088831C8AA5CFDC011896ED91FC9130E011
:1014100020E040E069E10994DC011896ED91FC912F
:1014200030E020E040E068E10994CF93DF931F9221
:10143000CDB7DEB76983BE016F5F7F4F0E9427057E
:101440000F90DF91CF910895EF92FF921F93CF936A
:10145000DF93EC01162F7A010E940C0A60E4CE01A2
:101460000E94150AE885F9859701412F67E1CE01B1
:101470000995CE01DF91CF911F91FF90EF900C94D1
:10148000030AEF92FF921F93CF93DF93EC01142F87
:101490007901663181F138F4643109F44BC065316A
:1014A00079F080E022C06831C9F150F16931C9F7A3
:1014B00080912102882391F1CE010E94030A2EC05F
:1014C00080912102882319F0CE010E94030ACE01E7
:1014D0000E940C0A60E0CE010E94150A612FCE0125
:1014E0000E94150A81E080932102DF91CF911F9124
:1014F000FF90EF900895642F0E94150A81E0F5CFC8
:1015000080912102882319F0CE010E94030AA701CD
:10151000193138F4612FCE010E94240A1092210261
:10152000EDCF68E1CE010E94240A185188E1E80E4F
:10153000F11CEDCF8E898F3F11F488E78E8BE88503
:10154000F9859701412F64E1CE01DF91CF911F9181
:10155000FF90EF9009940F93FC01E85BFF4F01901F
:10156000F081E02DDF01A41BB50BAD01FC01EA5BAE
:10157000FF4F0190F081E02DDF01A61BB70BBD01ED
:10158000011113C041505109621B730BFC01E05C57
:10159000FF4F0190F081E02D4E1B5F0BDC01D496D4
:1015A000ED91FC9109950F910895013079F7615003
:1015B0007109421B530BEACFCF93DF93FC01A0814B
:1015C000B18182AD90E09C0143E0220F331F4A9528
:1015D000E1F737AF26AF50962C91509748E0249F03
:1015E0009001112435AF24AF23AD30E0B90153E0B1
:1015F000660F771F5A95E1F7EF01C05CDF4F7983E3
:10160000688351964C915197E901C80FD91F50E05A
:101610004C175D0718F4CA01821B930BEF01CE5BD8
:10162000DF4F79836883229623E0880F991F2A95DC
:10163000E1F7860F971F99838883229654968D91A0
:101640009C91559799838883E85BFF4F56968D91BF
:101650009C9191838083DF91CF9108950F931F9385
:10166000FC01E25BFF4F0190F081E02DDC01A05B0B
:10167000BF4F0D90BC91A02D4A175B0740F4E017B7
:10168000F10748F00417150730F080E019C0E017A3
:10169000F107C0F3FACFFC01E65BFF4F40815181B7
:1016A000845B9F4FFC01808191816817790758F412
:1016B00081E04217530720F081E02617370728F70B
:1016C0001F910F91089542175307B0F3DECF2F9269
:1016D0003F924F925F926F927F928F929F92AF92C2
:1016E000BF92CF92DF92EF92FF920F931F93CF930F
:1016F000DF93CDB7DEB728970FB6F894DEBF0FBEE5
:10170000CDBF98878F83865B9F4F9A838983FC0127
:1017100011821082EF81F885EA5BFF4F20803180D3
:101720002F813885245B3F4F3C832B83F901318225
:101730002082EF80F884FEE4EF0EF11CF7011182A5
:101740001082EF81F885E85BFF4F40805180EF8188
:10175000F885EC5BFF4F208131814216530630F053
:10176000C201821B930BF70191838083EF81F8857F
:10177000EE5BFF4F20813181421A530A2F81388559
:10178000205B3F4F3E832D83F90151824082EF81E0
:10179000F885E85AFF4F60807180EF81F885EC5A38
:1017A000FF4FA080B180EF81F885EA5AFF4FC080DB
:1017B000D180EF81F885EE5AFF4F808091808301C0
:1017C0009501A601B4018F8198850E942E0B2F816F
:1017D00038852C573F4F38872F8381111BC0F90163
:1017E000108228960FB6F894DEBF0FBECDBFDF91F2
:1017F000CF911F910F91FF90EF90DF90CF90BF900E
:10180000AF909F908F907F906F905F904F903F90A0
:101810002F90089581E0EF81F885808381149104F1
:1018200021F0E981FA8191828082A214B30420F42C
:10183000EB81FC81B182A082F701808191818C15BE
:101840009D0510F4D182C0826414750450F6ED81B8
:10185000FE8171826082C5CF0F93CF93DF93E02F1B
:10186000DC01AC57BF4FFC91FF2309F460C0211588
:10187000310509F45CC02230310538F0023009F03E
:101880004AC06F5F7F4F621B730B0E2F0170E0FD2C
:1018900052C0FC01E25BFF4F0190F081E02D4E173A
:1018A0005F0708F444C0FC01E05BFF4F0190F0814A
:1018B000E02D4E175F07D8F5FC01E45BFF4F019068
:1018C000F081E02DDC01A65BBF4F0D90BC91A02DF7
:1018D000260F371F2617370738F56E177F0718F5BD
:1018E0009F0121503109A217B30708F56A177B073A
:1018F00008F4BD012E173F0708F4F901E61BF70BAA
:10190000EC01AEA9BFA914960D90BC91A02D9F012A
:10191000FD0109950CC0033009F0B7CF4F5F5F4F51
:10192000421B530BB2CFBD016E177F07E0F2DF9170
:10193000CF910F910895FC01E65BFF4F0190F0817C
:10194000E02D6E177F0798F3FC01E45BFF4F0190D9
:10195000F081E02D6E177F0750F7FC01E05BFF4F31
:101960000190F081E02DDC01A25BBF4F0D90BC9196
:10197000A02D240F351F24173507A8F44E175F0735
:1019800088F49F0121503109A217B30780F64A1746
:101990005B0708F4AD012E173F0708F4F901E41BBB
:1019A000F50BAECFAD014E175F0708F6EDCF0F93E5
:1019B000209120053091210562177307F0F02091E6
:1019C00022053091230562177307B8F420911C0596
:1019D00030911D058217930780F020911E053091EC
:1019E0001F058217930748F4AB01BC0100E021E01A
:1019F00030E082ED94E00E942C0C0F9108955F92EC
:101A00006F927F928F929F92AF92BF92CF92DF920E
:101A1000EF92FF920F931F93CF93DF93EC017B0123
:101A20008A016C01C41AD50A4817590718F06A01CF
:101A3000C81AD90A2E153F0560F44701821A930A85
:101A4000C814D90448F10C171D0708F459C0512CCB
:101A500018C049018E189F08C814D90408F05EC048
:101A60009C2D8D2D6401892E982E902F812F890118
:101A7000292F382F9C2F8D2FE701E92EF82E552482
:101A80005394360176946794E216F30608F442C044
:101A9000AA24AA94BA2C21C09C2D8D2D6401892ED4
:101AA000982E9E2D8F2D7801092F182F9C2F8D2F6A
:101AB000E901292F382FE3CFB701CE01552011F0CE
:101AC000BE01C7010E94D70C6818790877FE04C0D0
:101AD000EA0CFB1C6C0C7D1C21960C171D0760F793
:101AE000DF91CF911F910F91FF90EF90DF90CF90FA
:101AF000BF90AF909F908F907F906F905F90089570
:101B0000360176946794902F812F8E01C92FD82F9C
:101B10007901512CAA24A394B12CDFCF0C171D07F7
:101B200008F095CF360176946794902F812F8E011F
:101B3000C92FD82F7901512CABCFAF92BF92CF9242
:101B4000DF92EF92FF920F931F93CF93DF936C017D
:101B5000EB015A017B01E20EF31E9C01240F351F9D
:101B60008701AB01BC0182ED94E00E942E0B88231B
:101B700061F000E09501AE01B60182ED94E00E94B3
:101B80002C0C2196EC16FD06A1F7DF91CF911F9149
:101B90000F91FF90EF90DF90CF90BF90AF9008959E
:101BA000213069F038F0223079F0840F911D47FD23
:101BB0009A950895860F911D67FD9A950895841B47
:101BC000910947FD93950895861B910967FD9395AB
:101BD0000895213069F038F0223079F0861B9109A0
:101BE00067FD93950895840F911D47FD9A9508957B
:101BF000860F911D67FD9A950895841B910947FDF5
:101C0000939508953F924F925F926F927F928F9239
:101C10009F92AF92BF92CF92DF92EF92FF920F937B
:101C20001F93CF93DF937C01162F442EEC01C25AF1
:101C3000DF4F5E806F806C018AE8C80ED11C78840B
:101C40007518312E711608F4372C8C809D800E8506
:101C5000202F462D652D8A819B810E94D00D5C012D
:101C6000202F462D652DC4010E94E90DAC014420B2
:101C700079F08C85F6018083232D30E0B501C70112
:101C80000E942C0C171548F017196394512CD7CFCC
:101C90008B858111F7CF8D85EDCF150D1E836F825A
:101CA000DF91CF911F910F91FF90EF90DF90CF9038
:101CB000BF90AF909F908F907F906F905F904F906C
:101CC0003F900895DC011A964C911A97ED91FC9182
:101CD0001197249130E0042E02C0359527950A947F
:101CE000E2F7842F860F883068F031961196FC93C6
:101CF000EE93E49198E0941B01C0EE0F9A95EAF7F9
:101D00002E2B88501A968C938FEF9FEF01C0880F6F
:101D10006A95EAF78095822308950F931F93CF93D6
:101D2000DF938C01EC01C25ADF4F798368831A86F6
:101D3000FC01EF58FF4F6081CE010E94620E888740
:101D4000F801EE58FF4F6081CE010E94620E898734
:101D5000F801E657FF4F90819C8781E0911180E068
:101D60008D87DF91CF911F910F910895CF93C62F4B
:101D70000E94620EC15021E030E001C0220FCA95DE
:101D8000EAF7821BCF910895FC01E60FF11D8491C3
:101D900090E0982F88273196E4918E0F911D089539
:101DA000CF93DF9320912C0530912D05281739070B
:101DB00009F490C0EC0190932D0580932C05FC0153
:101DC000849180933F053196E491E0934005FE01B4
:101DD0003296E491E0934105FE013396E491E0935D
:101DE0004205FE013496E491E0934305FE013596E9
:101DF000E491E0934405FE013696E491E0934505B5
:101E0000FE013796E491E0934605FE013896E49191
:101E1000E0934705FE013996E491E0934805FE0101
:101E20003A96E491E0934905FE013B96E491E093F4
:101E30004A05FE013C96E491E0934B05FE013D9678
:101E4000E491E0934C05FE013E96E491E0934D054C
:101E5000FE013F96E491E0934E05FE017096E491F9
:101E6000E0934F0561E1CE010E94C40E90935105AD
:101E70008093500563E1CE010E94C40E90935305F8
:101E80008093520565E1CE010E94C40E90935505E2
:101E90008093540580912C0590912D05892BD1F0CC
:101EA00080914C058093580540914D05409359050C
:101EB00090915705992371F0913079F490914E05E6
:101EC000891714F49093580580914F05841714F4E2
:101ED00080935905DF91CF91089530914905209164
:101EE0004B05082E000C990B622F022E000C770B6D
:101EF000630F711D37FD7A95861797071CF4320F13
:101F000030935805241734F720935905E3CFEF9207
:101F1000FF920F931F93CF93DF93FC01E65AFF4F7D
:101F200020813181295E3F4F6F3F710509F048F5EF
:101F300061367105D8F080589F4FFC0180819181F6
:101F4000280F391FC9010196FC014491442309F46B
:101F500047C0F90144914617170671F40196DF91C5
:101F6000CF911F910F91FF90EF900895613471050B
:101F700048F382589F4FE1CFFC018491280F311D17
:101F8000E1CF8B01FC01EE57FF4FC081D181C20F21
:101F9000D31F7E0160E0C7010E94C40EC80FD91F85
:101FA00062E0C7010E94C40EF4E0EF0EF11C80173E
:101FB000910780F3FE01849190E0982F8827319655
:101FC000E4918E2B009761F00817190719F4CE01E0
:101FD0000396C5CFFE013296E491CE0FD11DEACF14
:101FE00090E080E0BCCFCF92DF92FF920F931F93DF
:101FF000CF93DF93109238051092EA046C0180ECC5
:10200000F82E10E000E0D0E0C0E0F60161916F0131
:10201000E091D404F091D50482ED94E009958F3FCE
:10202000980789F18E3F2FEF920779F3BC0182ED7B
:1020300094E00E94870F009721F1BC0182ED94E0AB
:102040000E948D0E6091450580E395E00E94B60EDA
:1020500080935A056091460580E395E00E94B60E94
:102060006091470580E395E00E94B60E082F880F27
:10207000110B80ECF81202C0F0905A05C00FD11F6E
:10208000C4CF80E0F3CF20913805222399F08091CE
:102090005A05022E000C330B280F311D87FD3A958F
:1020A000C20FD31FC01BD10B1F1424F4CF0DD11DA1
:1020B000F7FCDA95CE01DF91CF911F910F91FF9040
:1020C000DF90CF9008958F929F92AF92BF92CF9260
:1020D000DF92EF92FF920F931F93CF93DF93EC0168
:1020E0007B018A016901FC01E459FF4F8081813045
:1020F00009F46FC008F462C0823009F475C08330FF
:1021000009F47DC0FE01E05AFF4FF182E082329671
:1021100011830083B601CE010E94870F009709F456
:10212000FFC07E012EE5E20EF11CBC01CE010E9433
:102130008D0EFE01E959FF4FB0803C966081C701CA
:102140000E94B60E882EFE01EC58FF4F6081C70139
:102150000E94B60E082FFE01EB58FF4F6081C701A9
:102160000E94B60EA82EF701908419140CF090C0AE
:1021700016850B0D0195212F402F682D82819381AB
:102180000E94D00D6C01F70193838283212F402F91
:10219000682D848195810E94E90DAC01F70195833A
:1021A0008483113009F484C0A8F1123009F491C07D
:1021B000133009F4A4C08C01960136C0FE01E45A24
:1021C000FF4F0190F081E02DCE010995080F191FF6
:1021D00099CFFE01E45AFF4F0190F081E02DCE012E
:1021E0000995E81AF90A8ECFFE01E45AFF4F0190D3
:1021F000F081E02DCE010995081B190B83CFFE015C
:10220000E45AFF4F0190F081E02DCE010995E80ED0
:10221000F91E78CF9601290D311D97FC3A958C0156
:102220000B0D111DB7FC1A95B601CE010E942E0BA5
:10223000882371F1F701168217828E0101591F4F11
:102240006E01F0E7CF0ED11CF8016081C7010E943A
:10225000620E882EF6016081C7010E94620E982EE0
:1022600040E0682DCE010E94020E41E0692DCE01B2
:102270000E94020E61E0C7010E94620E8111F0CF40
:10228000F70187818B1504F3C657DF4F8485888358
:102290008A2DAA0C990BDF91CF911F910F91FF907E
:1022A000EF90DF90CF90BF90AF909F908F90089568
:1022B00081E090E08B199109B7FC939596012F5F0F
:1022C0003F4F8A01090D111D97FC1A95C80ED91EA2
:1022D000ABCF81E090E0BC016919710997FC73955F
:1022E00096012F5F3F4F8B199109B7FC93958A0197
:1022F0000F5F1F4F480F591FC60ED71E95CF96016F
:102300002B0D311DB7FC3A9581E090E089199109B8
:1023100097FC93958A010F5F1F4F480F591F84CF79
:1023200090E080E0B8CFCF92DF92EF92FF920F93D0
:102330001F93CF93DF93EC018B011092EA047A0193
:10234000D12CC12CF70161917F01E091D404F0916F
:10235000D50482ED94E009958F3F980719F18E3FDF
:102360002FEF920779F39C01A801BE0182ED94E062
:102370000E94631020913E05213059F038F0223040
:1023800059F0233061F0C80ED91EDCCFC80FD91F19
:10239000FACF080F191FF7CFC81BD90BF4CF081BB2
:1023A000190BF1CFC601DF91CF911F910F91FF90D3
:1023B000EF90DF90CF900895CF93DF93EC016BAF58
:1023C000EEA9FFA90190F081E02D0995EEA9FFA9E2
:1023D0000280F381E02DCE01DF91CF910994AF927D
:1023E000BF92CF92DF92EF92FF920F931F93CF9302
:1023F000DF9300D000D01F92CDB7DEB78C01DC0197
:10240000DA96AC90DA97DB96EC90DB97ED91FC9145
:10241000B188FE2CD12CC12CD801ED91FC911197E3
:102420008089D8962D913C911C82FD828B83B8E0E7
:102430008B9FC00111248C9DA0018D9D500D9C9DF2
:10244000500D1124240F351F3A832983D801149687
:10245000ED91FC919E012F5F3F4F41E06FE0C8017D
:102460000995F3948F2D8E198A1528F4BFEFCB1A96
:10247000DB0AFB1488F20F900F900F900F900F90D3
:10248000DF91CF911F910F91FF90EF90DF90CF9050
:10249000BF90AF900895CF92DF92EF92FF920F938B
:1024A0001F93CF93DF93EC01962F683109F44BC053
:1024B000B901993130F49431C9F0973189F080E055
:1024C00006C0993109F461C09032C9F781E0DF910B
:1024D000CF911F910F91FF90EF90DF90CF900895D3
:1024E00050E08EE593E00E949207F0CF8C859D85A9
:1024F000AE85BF85892B8A2B8B2B71F4E881F981FE
:10250000A585B0E020EA36E841E050E00E94263799
:102510006C877D878E879F8710926402109263027A
:1025200010926602109265020E94270786E697E0E5
:1025300090938E0280938D0287E697E090939202AB
:1025400080939102C3CF2C853D854E855F8560E0E9
:1025500074E284EF90E00E94703720513109410904
:10256000510956954795379527952093B8008E8940
:1025700090E09595879591E0909342028093200298
:102580001092660210926502A1CFD0916502D132FD
:1025900008F093C0C09120020E94EB056B017C0102
:1025A0008091B502811164C082E08093B50281E020
:1025B0008093B7028FEF8093B4021092D902D09328
:1025C000D802A2E2B2E0E8EBF2E080E0D8137CC0EF
:1025D0001092DA028091DA02CC0FC82BC093DA0293
:1025E0008091B602813009F073C01092B6020E9449
:1025F000EB056B017C018091DA028093BB00809136
:10260000680290916902A0916A02B0916B02892BD5
:102610008A2B8B2B99F00E94EB0500916802109198
:10262000690220916A0230916B026C197D098E0952
:102630009F090617170728073907D8F18091BC00B2
:1026400083FDD9CF85EC8093BC000E94EB056B0124
:102650007C018091B5028230E9F18091B4028F3F14
:1026600061F18091B402803241F18091B40225C0C1
:102670008091680290916902A0916A02B0916B0208
:10268000892B8A2B8B2B09F48BCF0E94EB050091B1
:1026900068021091690220916A0230916B026C19F4
:1026A0007D098E099F09061717072807390708F0C3
:1026B00077CF809167020E944507109266021092C0
:1026C00065021092420202CF9D9191938F5F7ECF5F
:1026D00085EEB9CF8091680290916902A0916A025B
:1026E000B0916B02892B8A2B8B2B09F4B2CF0E94FD
:1026F000EB05009168021091690220916A02309105
:102700006B026C197D098E099F09061717072807A8
:10271000390708F09ECFCDCF0F931F93CF93DF9350
:102720008C01C62F642FCC32E8F4CA3208F041C0C5
:10273000C83271F1C93209F442C080E0C034D0F12E
:10274000CF73F801EC0FF11D868D8F3F91F1C031F1
:10275000E0F00E94580521E0892B09F420E0F801FF
:10276000218F27C0CD3289F140F384EB8C0F82306A
:1027700020F7CF73C00FD12FD11D8E8D411133C0E3
:1027800061E00E94AF0560E08E8D0E94810511C05E
:10279000025E1F4FD0E0F80181918F018F3F31F031
:1027A00061E0D03108F062E00E94AF05DF5FD63112
:1027B00091F781E0DF91CF911F910F91089570E023
:1027C00090E080E00E941006F4CF85E090E0433076
:1027D00010F082E090E0880F991F880F991F0597ED
:1027E0000197F1F7E6CF62E00E94AF05E2CFCF920A
:1027F000DF92EF92FF920E94D23520E034E244E76C
:1028000059E40E94A1379B01AC0160E070E080E8D0
:102810009FE30E94A1376B017C01AC019B0160E04A
:1028200074E284E79BE40E94A1370E941A386F3F4C
:102830002FEF72078105910508F47CC020E030E09D
:1028400040E051E4C701B6010E9433369B01AC0160
:1028500060E074E284E79BE40E94A1370E941A388A
:102860006F3F2FEF72078105910508F465C020E0E6
:1028700030E040E852E4C701B6010E9433369B01C4
:10288000AC0160E074E284E79BE40E94A1370E94FF
:102890001A386F3F2FEF72078105910508F44EC07B
:1028A00020E030E040E853E4C701B6010E9433362F
:1028B0009B01AC0160E074E284E79BE40E94A137D5
:1028C0000E941A386F3F2FEF720781059105C0F102
:1028D00020E030E040E854E4C701B6010E943336FE
:1028E0009B01AC0160E074E284E79BE40E94A137A5
:1028F0000E941A386F3F2FEF720781059105A8F4E7
:1029000025E0F8941092810061507109709389005C
:10291000609388008091810088608093810080911D
:102920008100282B209381007894FF90EF90DF9016
:10293000CF90089521E0E5CF22E0E3CF23E0E1CF7F
:1029400024E0DFCFCF92DF92EF92FF9220914504F7
:102950003091460421303105D1F16B017C0120E03A
:1029600030E040E85FE30E94CD3587FD30C020E0D5
:1029700030E048EC53E4C701B6010E94493818160C
:1029800034F1F894C0923D04D0923E04E0923F04AA
:10299000F09240047894609113047091140490E0D4
:1029A00080E00E94D2359B01AC0160EC71EE84E6C0
:1029B0009CE40E94A137A70196010E94A1370E94C2
:1029C0001A38FF90EF90DF90CF900C94F713FF90A0
:1029D000EF90DF90CF900895609106067091070602
:1029E000072E000C880B990B0E94D4350E94A2146C
:1029F0008091B5069091B6060E9472068091BA0643
:102A00008093A90508956AEF8AE693E00C94610823
:102A100068EF8AE693E00C946108CF92DF92EF9220
:102A2000FF920F931F93CF93DF93EC0188810E9455
:102A300058058C010E944306CA80DB80EC80FD8033
:102A4000AB01BC014C195D096E097F090115110527
:102A500061F48981813031F491E04B305105610599
:102A6000710508F490E080E00EC001301105D1F747
:102A700089818111F7CF81E04B30510561057105E6
:102A800008F480E090E01F821E829923B1F081E07B
:102A900090E09F838E830E9443066B017C01CA8273
:102AA000DB82EC82FD820983DF91CF911F910F9130
:102AB000FF90EF90DF90CF900895882381F30E94DC
:102AC00043062EEEC20E22E0D21EE11CF11C6C1554
:102AD0007D058E059F0550F482E090E09F838E83F4
:102AE000E885F9853097B9F20995D5CF83E090E074
:102AF0009F838E83EA85FB85F5CF0F931F93CF933A
:102B00008C01C62F62E08C2F0E94AF05F801C083B4
:102B10008C2F0E945805F8018183CF911F910F914E
:102B20000895CF92DF92EF92FF92CF93DF93EC0163
:102B300089819A819C838B8388818E3008F08E50A6
:102B40008770806480937C0080917A008064809399
:102B50007A0080917A0086FDFCCFA0917800B09138
:102B60007900CF80D8840D2C000CEE08FF08298551
:102B70003A85032E000C440B550B2C193D094E09C8
:102B80005F090E9431372FEF33E040E050E00E94B0
:102B900007372C0D3D1D4E1D5F1D8D819E81281B0D
:102BA000390B213082E0380714F020E032E02115A3
:102BB0008EEF380714F420E03EEF3A8329838B85AB
:102BC000882329F03195219531093A832983DF91B2
:102BD000CF91FF90EF90DF90CF900895CF92DF924A
:102BE000EF92FF920F931F93CF93DF936C01EB0152
:102BF0007B01E40EF51E10E000E0CE15DF0561F06C
:102C00006991D601ED91FC910190F081E02DC60112
:102C10000995080F191FF1CFC801DF91CF911F91BE
:102C20000F91FF90EF90DF90CF900895CF92DF92B9
:102C3000EF92FF920F931F93CF93DF93EC016C0100
:102C400024E0C20ED11CFC01E057FF4F0190F0813F
:102C5000E02DC60109958E3FEFEF9E07D8F48E0157
:102C60000C561F4FF801408151817E01F2E9EF0EB1
:102C7000F11CF701608171819C01C6010E94631003
:102C8000C059DF4F28812130C1F078F02230B9F0EF
:102C90002330E9F081E090E0DF91CF911F910F9117
:102CA000FF90EF90DF90CF900895F7012081318160
:102CB000820F931F91838083EDCFF801F7CFF70147
:102CC00020813181281B390B31832083E3CFF80128
:102CD000F7CF90E080E00895CF92DF92EF92FF92DD
:102CE0008091450490914604019749F580914704ED
:102CF0009091480420914904E22FF0E0E150F04C1B
:102D0000EE0FFF1FEE0FFF1FE80FF91F40815181EB
:102D100062817381452B462B472B89F0FC0130E003
:102D200060E070E0CB012317E1F0C190D190E19019
:102D3000F1906C0D7D1D8E1D9F1D3F5FF4CFC090E7
:102D40003D04D0903E04E0903F04F0904004C70161
:102D5000B6010E941338CB01FF90EF90DF90CF9027
:102D60000895611571058105910549F330E050E042
:102D700040E00E947037A0911504B09116040E94A3
:102D800031370E94D2359B01AC0160EC71EE84E6D4
:102D90009CE40E94A1376B017C0120E030E040E818
:102DA0005FE30E94CD3587FD11C020E030E048ECA4
:102DB00053E4C701B6010E944938181644F6C12CE5
:102DC000D12C88ECE82E83E4F82EC1CFC12CD12C75
:102DD00090E8E92E9FE3F92EBACFCF93DF93CBE6AD
:102DE000D5E060E088810E9481051A82289685E0FE
:102DF000CB39D807B1F7DF91CF910895FC01493164
:102E000051052CF41616170674F06FEF7FEF9081C2
:102E10009B01290F311D37FD0CC02417350734F0F5
:102E200041504083089561E070E0F1CF492F460F93
:102E3000F8CF40E0F6CF0F931F93CF9347E050E0D9
:102E4000BC0182EB96E00E94FE161092B00601E0F3
:102E500016E0C1E0F801C0830E944306F8016183D7
:102E6000728383839483C093BB06CF911F910F918C
:102E700008958091D1050E945805892BF9F480911D
:102E8000B20681110CC0E6E0F6E091E0878989275F
:102E9000878B7C9686E0EE3AF807C1F7089581505B
:102EA000990B2CE1289FF001299FF00D1124EA5F76
:102EB000F94F878991E08927878B089580910904CC
:102EC00090910A04892B41F40E944F060E94ED164E
:102ED00081E08093BB0608950E94F704F7CF8F929C
:102EE0009F92AF92BF92CF92DF92EF92FF920F9399
:102EF0001F938091B5069091B606009711F0039745
:102F000091F40E94ED160E94B10481E08093BB060B
:102F10001F910F91FF90EF90DF90CF90BF90AF90F7
:102F20009F908F9008958091450490914604019759
:102F300061F7F8948091090490910A048130910519
:102F400021F0029799F07894E0CF82E090E090939E
:102F50000A04809309040E94EB056093290470938E
:102F60002A0480932B0490932C04EDCF0E94EB0550
:102F7000AB01BC018091290490912A04A0912B04FB
:102F8000B0912C04481759076A077B0708F46FC0F3
:102F90008A019B01081B190B2A0B3B0BD901C801A5
:102FA0008093350490933604A0933704B09338048B
:102FB0004093290450932A0460932B0470932C04AB
:102FC00040912D0450912E0460912F047091300493
:102FD0004F5F5F4F6F4F7F4F40932D0450932E04F0
:102FE00060932F047093300420914A0430914B0475
:102FF0002F5F3F4F30934B0420934A044091490484
:103000004217130609F020F410924B0410924A0460
:1030100020914A0430914B04220F331F220F331F9B
:10302000E0914704F0914804E20FF31F80839183FD
:10303000A283B38380912D0490912E04A0912F043C
:10304000B09130042091350430913604409137041A
:10305000509138040197A105B10591F420933104F2
:103060003093320440933304509334046CCF8095F2
:103070009095A095B095840F951FA61FB71F90CF70
:103080008090310490903204A0903304B0903404C6
:10309000A4E2B0E00E9426376B017C01ACEDB0E009
:1030A000A50194010E942637C60ED71EE81EF91E00
:1030B000CD2CDE2CEF2CFF24C0923104D0923204B0
:1030C000E0923304F09234043ECF24E030E044E058
:1030D00050E064E070E088E390E00C949D0D8F92E6
:1030E0009F92AF92BF92CF92DF92EF92FF920F9397
:1030F0001F93CF93DF935C016B018FEC92E00E94F2
:10310000D00EC091B00627E0E22EF12C28E0C216C6
:10311000D10419F098E0E92EF12CCE151F0409F026
:10312000B3C0C33008F0C2E03EE0C39FE001112409
:103130004E0182E0880E911C8091B906882309F423
:10314000ABC02FE030E04FE350E0B40181E490E009
:103150000E949D0D81E00E94240530E020E043E0C4
:1031600050E070E060E090E080E00E94FF0C23E01F
:1031700030E050E040E070E060E090E080E00E94ED
:10318000FF0C30E020E04DE350E070E060E080E4D0
:1031900090E00E94FF0C23E030E040E450E070E05B
:1031A00060E080E490E00E94FF0C2EE230E040E41A
:1031B00050E061E370E080E490E00E94FF0C21E3C6
:1031C00030E04DE350E061E370E080E490E00E9485
:1031D000FF0C21E330E043E050E061E370E090E079
:1031E00080E00E94FF0C2EE230E050E040E061E31E
:1031F00070E090E080E00E94FF0C82E00E942405D5
:103200002091B006822F90E0E816F90609F081C0FF
:10321000F3E0CF1AD10826E02C9DC0012D9D900D22
:103220001124A80EB91ECDE0D0E005E314E08CE730
:10323000C82ED12CF501E080F1801093D5040093C5
:10324000D404C7010E94F30F1093D5040093D40453
:10325000A701BE019601281B390BC9010E949311D9
:1032600036E0A30EB11C2E96C733D10519F7DF91B6
:10327000CF911F910F91FF90EF90DF90CF90BF9073
:10328000AF909F908F900895C11103C0D0E0C0E02F
:103290004FCFCEE0D0E04CCF8E010F5E1F4F20E825
:1032A00030E0A40161E470E082ED94E00E942E0B16
:1032B000882309F4A5CF00E02FE330E0A40161E406
:1032C00070E082ED94E00E942C0C4E01E3E08E0E43
:1032D000911C01E02DE030E0A40161E470E082ED9A
:1032E00094E00E942C0C2DE030E0A4016FE770E028
:1032F00082ED94E00E942C0CAE01405F5F4F00E035
:103300002FE330E061E470E082ED94E00E942C0C49
:1033100077CFD12CC12C222309F47DCF6C0121E081
:10332000C21AD10878CFEF92FF920F931F93CF93D9
:10333000DF93EC017B01CA010E94D00E05E314E08B
:103340001093D5040093D404CE010E94F30F109380
:10335000D5040093D40497FD019695958795919592
:1033600081959109AE01B7018096DF91CF911F91B0
:103370000F91FF90EF900C9493118F929F92AF92C8
:10338000BF92CF92DF92EF92FF92CF93DF93EC0147
:10339000EF81F0E0EE0FFF1FEC58FF4FC590D49087
:1033A000F12CE12C898534E6832E912CA12CB12CB3
:1033B000A5019401281B310941095109C701B60132
:1033C0000E944E3821E030E0683C7105810591058E
:1033D00024F0A50194010E9407373F8B2E8B8A852C
:1033E00094E6892E912CA12CB12CA5019401281BC7
:1033F000310941095109C701B6010E944E38A501A2
:1034000094010E940737398F288F8B85833308F109
:103410008253990B092E000CAA0BBB0BA50194013A
:10342000281B390B4A0B5B0BC701B6010E944E38B3
:10343000A50194010E9407373B8F2A8FDF91CF911E
:10344000FF90EF90DF90CF90BF90AF909F908F90C4
:1034500008951B8E1A8EF2CF2F923F924F925F9259
:103460007F928F929F92AF92BF92CF92DF92EF9214
:10347000FF920F931F93CF93DF93EC01762E5901A8
:1034800047018C85312C212C861324C0052E000C7D
:10349000660B770B9A01AB013E5F4F4F5F4FB70151
:1034A000FF0C880B990B6801012E000CEE08FF0839
:1034B0006C197D098E099F090E944E3820E034E086
:1034C00040E050E00E94073719012A012C0C3D1CF6
:1034D0004E1C5F1C8D8530E020E0871121C0680103
:1034E000110FEE08FF089501BB0C440B550B3E5F16
:1034F0004F4F5F4F092C000CAA08BB08C501B4014F
:103500006C197D098E099F090E944E3820E034E035
:1035100040E050E00E9407372C0D3D1D4E1D5F1D01
:10352000C101820F931FDF91CF911F910F91FF90E7
:10353000EF90DF90CF90BF90AF909F908F907F9053
:103540005F904F903F902F900895FC0184858111EA
:1035500006C081E09585911103C080E0089581E067
:1035600008950F931F93CF938C01C2E362337105CB
:1035700034F06036710514F06FE570E0C62FF80185
:10358000C483C8010E94A51A811108C0F801C3872D
:10359000C801CF911F910F910C94BD19CF911F912C
:1035A0000F9108950F931F93CF938C01C0E077FD87
:1035B00006C06436710514F063E670E0C62FF801AA
:1035C000C383C8010E94A51A811108C0F801C287EF
:1035D000C801CF911F910F910C94BD19CF911F91EC
:1035E0000F9108950F931F93CF938C01C1E016168E
:1035F000170634F46436710514F063E670E0C62FE4
:10360000F801C283C8010E94A51A811108C0F801FF
:10361000C187C801CF911F910F910C94BD19CF9113
:103620001F910F9108950F931F93CF938C01C0E0CA
:1036300077FD06C06536710514F064E670E0C62FAC
:10364000F801C183C8010E94A51A811108C0F801C0
:10365000C087C801CF911F910F910C94BD19CF91D4
:103660001F910F9108950F931F93CF938C01C0E08A
:1036700077FD06C06931710514F068E170E0C62F6E
:10368000F801C083C8010E94A51A811108C0F80181
:10369000C783C801CF911F910F910C94BD19CF9191
:1036A0001F910F9108958F929F92AF92BF92CF92E8
:1036B000DF92EF92FF92FC01138214821582168230
:1036C0009081992391F141E050E060E070E0438304
:1036D00054836583768321E030E080E0A92FB0E059
:1036E000812C912C540183942A173B07F4F44181D7
:1036F000840F8917B8F0891B4381548165817681D5
:1037000075016401022E04C0CC0CDD1CEE1CFF1CF4
:103710000A94D2F74C295D296E297F29438354836B
:10372000658376832F5F3F4FDFCFFF90EF90DF9071
:10373000CF90BF90AF909F908F900895FC0121E0B3
:103740001616170634F4258130E0621773070CF45F
:103750009B0126838485873091F08585873079F0B9
:10376000CF010E9621E01616170634F4268530E0B8
:10377000621773070CF49B0127870C94531B089561
:10378000FC0116161706B4F46132710514F060E2FC
:1037900070E065838485863079F08585863061F0B8
:1037A00066878785681708F4862F8787CF010E966E
:1037B0000C94531B61E0EDCF0895AF92BF92CF926E
:1037C000DF92EF92FF920F931F93CF93DF938C01C1
:1037D000EC0188E790E08993999358018AEAA80E52
:1037E000B11C80E1C82E94E6D92E22E3E22EFF24FC
:1037F000F394188A198A1A8A1B8A1C8AC882D98269
:10380000EA821B82EC82FD82FE82CF82D886E98624
:103810001A86EB861C861D86FE86FF86CE010E96D6
:103820000E94531BCE010E94BD196C96CA15DB0580
:1038300001F71882F801E555FF4F1082319610828A
:103840003196108231961082319611821082329612
:1038500083E090E0918380833296108231961082CB
:103860003196F082DF91CF911F910F91FF90EF90F1
:10387000DF90CF90BF90AF900895CF93DF93EC018E
:1038800060E08D810E9481051F82DF91CF910895B4
:10389000EF92FF920F931F93CF93DF931F92CDB7B9
:1038A000DEB78C018091D1050E945805892B59F40F
:1038B000C8010E941B170F90DF91CF911F910F91AC
:1038C000FF90EF9008952091B2068091B906811182
:1038D0000CC048E050E0222311F049E050E0B8016C
:1038E00080EB96E00E94FE162CC0E091B0062111FC
:1038F0005FC0E83030F5F0E0E058F34E0C947238D9
:10390000881CA51CB81CCF1CD51CD51CCF1CCF1CDB
:103910008091450490914604019799F00E946C169D
:10392000B801680F791F072E000C880B990B0E94B5
:10393000D4350E94A2140E946C16909307068093BF
:10394000060681E08093BB06B6CF8091B5068983D9
:1039500044E050E0B801CE0101960E94FE16898134
:1039600090E09093B6068093B5060E947206E9CF68
:103970008091B706898344E050E0B801CE010196FA
:103980000E94FE16898190E09093B8068093B70656
:10399000892BB9F686E995E00E943D1CD2CF42E022
:1039A00050E0B80181EB96E09DCF4BE050E0F9CFBD
:1039B0002150330B4CE1429FC001439F900D1124D5
:1039C000885F994FE93008F0BCCFF0E0E551F34E45
:1039D0004CE10C947238F41C021D101D1E1D2C1D90
:1039E0003A1D481D561D6D1D429FF001439FF00D6D
:1039F0001124EA5FF94F6281600F712F711D0E94DF
:103A0000331B9FCF429FF001439FF00D1124EA5FCB
:103A1000F94F6381600F712F711D0E94131B91CFAD
:103A2000429FF001439FF00D1124EA5FF94F64813A
:103A3000600F712F711D0E94F21A83CF429FF00117
:103A4000439FF00D1124EA5FF94F6581600F712FDC
:103A5000711D0E94D21A75CF429FF001439FF00D55
:103A60001124EA5FF94F6681600F712F711D0E946A
:103A7000B11A67CF429FF001439FF00D1124EA5F16
:103A8000F94F6781600F712F711D0E94C01B59CFC4
:103A9000429FF001439FF00D1124EA5FF94F6085CA
:103AA000600F712F711D0E949E1B4BCF429FC00162
:103AB000439F900D11249C012A5F394F7901F90130
:103AC0008685898348E050E0B801CE0101960E94C6
:103AD000FE168981F701868734CF429FC001439F3C
:103AE000900D11249C012A5F394F7901F9018785D6
:103AF000898348E050E0B801CE0101960E94FE168D
:103B00008981F70187871DCF6CEF8AE693E00C94DB
:103B100061088C3F28F48A3F88F4883F21F008959B
:103B20008C3F41F00895E091DB02F091DC02309788
:103B300049F009940E94F7040C94841D0E944F06DA
:103B40000C94031508958F929F92AF92BF920F939A
:103B50001F93CF93DF93CDB7DEB7A1970FB6F8943D
:103B6000DEBF0FBECDBF19A2423008F44AE08E017D
:103B70000F5D1F4F842E912CB12CA12CA501940117
:103B80000E947037E62FB901CA01EA3044F5E05DC2
:103B9000D801EE938D01232B242B252B79F790E070
:103BA00080E0109769F0FD0101900020E9F731975E
:103BB000AF014A1B5B0BBD018EEC94E00E94EE1539
:103BC000A1960FB6F894DEBF0FBECDBFDF91CF91A7
:103BD0001F910F91BF90AF909F908F900895E95CD7
:103BE000D7CFBF92CF92DF92EF92FF920F931F93A6
:103BF000CF93DF93F8942091060630910706309317
:103C00002303209322039091B00690932403909174
:103C1000B206909325039091B50690932603909158
:103C2000B70690932703E6E0F6E0A2E2B3E09281C4
:103C300016969C931697938117969C931797948149
:103C400018969C931897958119969C93199796812D
:103C50001A969C931A9797811B969C931B97908515
:103C60001C969C931C9796851D969C931D979785F3
:103C70001E969C931E977C96199696E0EE3AF9074D
:103C8000B1F69EE5E92E93E0F92E02E213E0C1E2DF
:103C9000D0E0C252D340ECE38E9FC00DD11D112461
:103CA000F801B1908F016E01CE0EDF1EC6010E9499
:103CB000F136B81621F06B2DC6010E94F936E016D8
:103CC000F10671F77894DF91CF911F910F91FF90DA
:103CD000EF90DF90CF90BF900895EF92FF920F93F7
:103CE0001F93CF93DF937C018C01D0E0C0E0CE0125
:103CF0000E94F136F80181938F012196C232D105DD
:103D0000B1F7C701DF91CF911F910F91FF90EF9015
:103D10000895CF92DF92EF92FF920F931F93CF936C
:103D2000DF93CDB7DEB7C85DD1090FB6F894DEBF1B
:103D30000FBECDBFCE0101960E94DD1B89819A8105
:103D40009093070680930606C555DF4F8881CB5AAE
:103D5000D0408093B006C355DF4F8881CD5AD04004
:103D60008093B206C055DF4F88819981C05BD040F7
:103D70009093B6068093B506CE54DF4F8881998123
:103D8000C25BD0409093B8068093B70608E016E077
:103D900080E1C82E94E6D92E22E3E22EFF24F3948C
:103DA000F801C082D182E2821382E482F582F68237
:103DB000C782D086E1861286E38614861586F6864B
:103DC000F786C8010E960E94531BC8010E94BD19B8
:103DD000045E1F4FF6E0003B1F0711F7F894CE0179
:103DE00089549F4F0E946D1EC952DF4F8881C75D65
:103DF000D0408093B406C852DF4F8881C85DD04060
:103E00008093BA06789410920106C852DF4F0FB61D
:103E1000F894DEBF0FBECDBFDF91CF911F910F9100
:103E2000FF90EF90DF90CF900895EF92FF920F9365
:103E30001F93CF93DF93F894C6EED2E07E0102E2A7
:103E400010E0065E12409CE3899F000D111D1124B5
:103E5000C8018E0D9F1D0E94F136F70181937F01ED
:103E6000F2E2EF16F3E0FF0699F78091E6029091F7
:103E7000E70290930706809306068091E8028093FC
:103E8000B0068091E9028093B2068091EA0290E048
:103E90009093B6068093B5068091EB0290E09093E4
:103EA000B8068093B70608E016E06E8170E0C8019E
:103EB0000E94331B6F8170E0C8010E94131B68854C
:103EC00070E0C8010E94F21A698570E0C8010E9482
:103ED000D21A6A8570E0C8010E94B11A6B8570E041
:103EE000C8010E94C01B6C8570E0C8010E949E1B27
:103EF0008D85F80184878E8585872996045E1F4FFE
:103F0000F3E0CC31DF0789F67894DF91CF911F91F0
:103F10000F91FF90EF900895DF92EF92FF920F9331
:103F20001F93CF93DF93CDB7DEB7A2970FB6F89468
:103F3000DEBF0FBECDBFF8946FE871E0CE010196F1
:103F40000E94873A63E871E0CE0141960E94873A69
:103F50008091B40689A38091BA068AA3CE01019606
:103F60007C0110E000E0F701D1907F01C8010E94C0
:103F7000F136D81621F06D2DC8010E94F9360F5F79
:103F80001F4F0232110579F77894A2960FB6F89474
:103F9000DEBF0FBECDBFDF91CF911F910F91FF907C
:103FA000EF90DF900895CF93DF93F894D0E0C0E0D6
:103FB00060E0CE010E94F9362196C11584E0D80751
:103FC000B9F70E948C1F0E94891EC0E0C093B406FE
:103FD0008C2F0E94F11DCF5FCA30C1F78091B406CB
:103FE0008B3018F48AE00E94F11D7894DF91CF9114
:103FF00008950F931F93CF93DF938C01EB01FC0186
:10400000808191810097E1F0688179816115710566
:10401000A9F0428153812C813D814217530770F0F2
:104020000E94873A8C819D81F801958384831D824B
:104030001C82DF91CF911F910F9108950E94283922
:1040400088819981F801918380838A819B81938300
:1040500082838C819D8195838483198218821B823F
:104060001A82E5CFCF93DF93EC0188819981009785
:1040700011F00E942839198218821D821C821B822D
:104080001A82DF91CF910895FC0180819181009780
:1040900011F00C94283908950F931F93CF93DF9359
:1040A000EC0188819981009759F02A813B8126177C
:1040B000370730F081E0DF91CF911F910F91089584
:1040C0008B016F5F7F4F0E94B139009759F0998340
:1040D00088831B830A832C813D81232B59F7FC01A4
:1040E0001082E8CF80E0E7CFEF92FF920F931F930B
:1040F000CF93DF93EC017B01CB010E948F350097BA
:10410000A9F00C811D81080F191FB801CE010E9472
:104110004C20882399F0288139818C819D81B701B9
:10412000820F931F0E9488351D830C83CE01DF917F
:10413000CF911F910F91FF90EF900895CE010E94B3
:104140003220F4CFEF92FF920F931F93CF93DF9320
:104150006115710541F480E0DF91CF911F910F91BE
:10416000FF90EF90089541155105B1F07B01EC01EE
:104170000C811D81040F151FB8010E944C2088235B
:1041800051F3288139818C819D81B701820F931F62
:104190000E94873A1D830C8381E0DECFEF92FF926D
:1041A0000F931F93CF93DF93EC018B01CB010E9400
:1041B0008F357C01BC01CE010E944C2081110BC0C7
:1041C000CE010E943220CE01DF91CF911F910F913D
:1041D000FF90EF900895FD82EC82B801888199816B
:1041E0000E948835F0CFFC01118210821382128266
:1041F000158214820C94CE20EF92FF920F931F939E
:10420000CF93DF93EC017B018A01BA010E944C201D
:1042100081110BC0CE010E943220CE01DF91CF91DF
:104220001F910F91FF90EF9008951D830C83B701AC
:10423000888199810E94873AF0CFFB01019000208C
:10424000E9F73197AF01461B570B0C94FC200F93F5
:104250001F93CF93DF93CDB7DEB762970FB6F89475
:10426000DEBF0FBECDBF8C01CB01F80111821082E1
:1042700013821282158214824AE0BE016F5F7F4F63
:104280000E949835BE016F5F7F4FC8010E941D21BB
:1042900062960FB6F894DEBF0FBECDBFDF91CF910F
:1042A0001F910F9108950F931F93CF93DF93CDB775
:1042B000DEB729970FB6F894DEBF0FBECDBF8C01D5
:1042C000862FF801118210821382128215821482C5
:1042D0004AE0BE016F5F7F4F90E00E94A335BE01B0
:1042E0006F5F7F4FC8010E941D2129960FB6F89479
:1042F000DEBF0FBECDBFDF91CF911F910F9108950B
:10430000CF93DF93EC01FB018617970749F060819B
:1043100071816115710541F0448155810E94FC2035
:10432000CE01DF91CF9108950E943220F9CFFC0198
:104330001182108213821282158214820C948021C1
:10434000FC01118210821382128215821482FB01F9
:1043500001900020E9F73197AF01461B570B0C94F1
:10436000FC2085ED8093BC008091680290916902E9
:10437000A0916A02B0916B020796A11DB11D23E0C6
:10438000B695A795979587952A95D1F72091BC006A
:1043900024FD03C01092B502089540916802509127
:1043A000690260916A0270916B02452B462B472B84
:1043B00069F30097A105B10541F02AE22A95F1F7CA
:1043C00000C00197A109B109E1CF809167020C9467
:1043D0004507FC01A081B18150962C9182AD38E057
:1043E000839FC0011124289FA001299F500D1124F3
:1043F00070E060E080AD91AD0C94773A1F93CF935D
:10440000DF93EC010E94EF111BAD8AAD180FE8811C
:10441000F9818189181768F0EC81FD8130E020E096
:1044200040E060E1CE01099580E0DF91CF911F91DE
:104430000895FE01E557FF4F8081882319F0CE01D2
:104440000E94E921612FCE010E94DC1181E0EDCFB5
:10445000CF93DF93EC01FC01E557FF4F8081882368
:1044600019F0CE010E94E92160E0CE01DF91CF91E9
:104470000C94DC110F931F93CF93DF9300D000D0E7
:1044800000D0CDB7DEB782ED94E00E94282205E38C
:1044900014E068E670E0CE0101960E94F3208FECF4
:1044A00092E00E94D00E1093D5040093D4048FE8BC
:1044B00091E00E94F30F1093D5040093D40497FD6C
:1044C0000196959587954FE851E064E170E040963C
:1044D0000E9493111093D5040093D40483E891E0D3
:1044E0000E94F30F1093D5040093D40497FD019616
:1044F0009595879543E851E060E270E040960E9410
:10450000931189819A811093D5040093D4040E9459
:10451000F30F49815A811093D5040093D40497FD79
:104520000196959587956CE270E04A960E949311EA
:10453000CE0101960E94442082ED94E00E94FE216B
:104540008111A7CF26960FB6F894DEBF0FBECDBF60
:10455000DF91CF911F910F910895CF938091B9066C
:10456000882309F44FC08091B20681113CC080912C
:10457000B006833009F050C081E09091B1069130CF
:1045800009F080E08093BA068093A9058091B00677
:10459000853079F4C091B106CA3058F4C093B4069E
:1045A0008C2F0E94151FC093B4060E948C1F0E947E
:1045B000EC148091B006863041F48091B1068111EF
:1045C00004C00E94891E0E94EC148091B0068730BE
:1045D00051F48091B106811106C00E943A220E94D6
:1045E000D31F0E94EC1481E0809301060E944306D1
:1045F0006093020670930306809304069093050669
:104600001092B1068091B90691E089278093B9068E
:104610009093BB06CF910895843009F0B7CF809175
:10462000B1068A3008F0B2CF8093B4060E94F11D23
:104630000E948C1F10920106A9CF2F923F924F9299
:104640005F926F927F928F929F92AF92BF92CF9222
:10465000DF92EF92FF920F931F93CF93DF93CDB72B
:10466000DEB72A970FB6F894DEBF0FBECDBF6B0141
:104670007C0128E036E03A87298706E615E0312CF0
:10468000212C1B82A985BA8555968C91882321F00F
:10469000C8010E943D1CCCC0A985BA851796EC9133
:1046A0001797F0E0EE0FFF1FEC58FF4F4590549026
:1046B0005A96AD90BC90712C612CA114B10451F0AC
:1046C000C701B601A30192010E94703720FD02C00C
:1046D000B12CA12C950150E040E02C833D834E830A
:1046E0005F83D80117968C9181117CC0E985FA858A
:1046F000808D918DA7019601280F391F411D511DF5
:10470000CA01B9012C813D814E815F81620F731F07
:10471000841F951FA30192010E947037672B682B9D
:10472000692B09F05FC0A985BA851896BC91B88736
:104730000E943035E985FA854685442309F452C044
:104740002CE1229DF001239DF00D1124EA5FF94F29
:104750002289203208F097C0A985BA8551968D909C
:104760009D90AD90BC90549704C0B694A794979434
:1047700087942A95D2F7282D2170BCE1B29DF001D3
:10478000B39DF00D1124EA5FF94F32894150550B6A
:10479000341715060CF079C032893F5F4CE1429D19
:1047A000F001439DF00D1124EA5FF94F328B222373
:1047B000C9F05885852E912CB12CA12C24E630E02F
:1047C00040E050E00E94073786169706A806B90613
:1047D0004CF061E0D80115968C910E94810581E032
:1047E000F8018783A985BA8556968D919C91579734
:1047F00058964D915C9170E060E0480F591F611D23
:10480000711DCB01BA016C0D7D1D8E1D9F1D2C816C
:104810003D814E815F81620F731F841F951FA3012D
:1048200092010E947037672B682B692B09F430CFF7
:1048300089859A850E94A51A81118B833FEF231ADF
:10484000330A49855A85445E5F4F5A874987085F16
:104850001F4F56E02516310409F014CF8091B7069A
:104860009091B806009709F43FC08230910579F025
:104870008330910509F45BC0019769F4A0E1B0E0D1
:10488000BA83A98308C020E078CF30E087CF83E1E6
:1048900090E09A838983E981FA81EE0FFF1FEC583B
:1048A000FF4F85909490412C512C32014394F4E0B9
:1048B0008F16910428F0240156944794712C612C92
:1048C000B12CA12CC701B601A50194010E9470373B
:1048D000672B682B692B81F561E080919B050E9415
:1048E000810581E080939D058091B906811106C004
:1048F0008091BB062B80282A2092BB062A960FB6F1
:10490000F894DEBF0FBECDBFDF91CF911F910F9105
:10491000FF90EF90DF90CF90BF90AF909F908F90DF
:104920007F906F905F904F903F902F900895E8E1B7
:10493000F0E0FA83E983AFCFC301B2016C0D7D1DB6
:104940008E1D9F1DA50194010E947037672B682B57
:10495000692B51F686E995E00E943D1CC5CF1F9258
:104960000F920FB60F9211242F933F938F939F9323
:10497000AF93BF938091DE029091DF02A091E0029D
:10498000B091E1023091DD0223E0230F2D3758F57D
:104990000196A11DB11D2093DD028093DE0290934C
:1049A000DF02A093E002B093E1028091E2029091D5
:1049B000E302A091E402B091E5020196A11DB11DB0
:1049C0008093E2029093E302A093E402B093E502A5
:1049D000BF91AF919F918F913F912F910F900FBEFB
:1049E0000F901F90189526E8230F0296A11DB11D68
:1049F000D2CF1F920F920FB60F9211242F933F9395
:104A00004F935F936F937F938F939F93AF93BF93D6
:104A1000EF93FF93E0910201F09103010995FF915B
:104A2000EF91BF91AF919F918F917F916F915F9126
:104A30004F913F912F910F900FBE0F901F9018959F
:104A40001F920F920FB60F9211242F933F934F9303
:104A50005F936F937F938F939F93AF93BF93EF93E6
:104A6000FF93E0910001F09101010995FF91EF9111
:104A7000BF91AF919F918F917F916F915F914F9176
:104A80003F912F910F900FBE0F901F9018951F927E
:104A90000F920FB60F9211242F933F934F935F9372
:104AA0006F937F938F939F93AF93BF93EF93FF93F6
:104AB0008091B900887F803609F44AC0F0F58832C9
:104AC00009F4A7C018F5803109F49BC0B8F4882315
:104AD00009F4F9C0883009F494C0FF91EF91BF91B7
:104AE000AF919F918F917F916F915F914F913F9186
:104AF0002F910F900FBE0F901F901895883109F4D9
:104B000088C0803251F78093B40214C0803409F415
:104B10009DC040F48033B9F38833F9F68093B40232
:104B200085ECB0C0803509F485C0883509F496C09D
:104B3000883499F60E94B121D0CF883909F48CC00D
:104B400038F5883729F050F4883611F0803729F687
:104B500083E08093B5021092B30257C0883809F4FD
:104B60007BC0803919F0803809F0B7CF8091B3024B
:104B7000803208F071C0E091B30281E08E0F809323
:104B8000B3028091BB00F0E0ED56FD4F80833DC045
:104B9000803B39F0E0F4803A09F479C0883A09F0B2
:104BA0009CCF84E08093B5021092900210928F0205
:104BB000E0918D02F0918E02099580918F02811112
:104BC0000FC081E080938F0210926D0209C0803C7B
:104BD00009F4A6CF883C09F4A3CF883B09F07DCF28
:104BE000E091900281E08E0F80939002F0E0E35913
:104BF000FD4F80818093BB009091900280918F0245
:104C000029C08091DA028093BB0085EC8093BC00C0
:104C100064CF9091D9028091D802981758F5E0910D
:104C2000D90281E08E0F8093D902F0E0E854FD4F65
:104C30008081E9CFE091D90281E08E0F8093D90283
:104C40008091BB00F0E0E854FD4F80839091D90241
:104C50008091D8029817C8F285E8D8CFE091D902A0
:104C600081E08E0F8093D9028091BB00F0E0E85480
:104C7000FD4F80838091B70281115CCF81E08093EA
:104C8000B60284EA8093BC001092B50226CF85EC70
:104C90008093BC001092B5028091B302803230F450
:104CA000E091B302F0E0ED56FD4F10826091B30247
:104CB00070E0E0919102F091920283E992E009950F
:104CC0001092B3020ACF1092B40234CF1F920F9207
:104CD0000FB60F9211242F933F934F935F936F93CF
:104CE0007F938F939F93AF93BF93EF93FF938AE646
:104CF00093E00E943F08FF91EF91BF91AF919F9188
:104D00008F917F916F915F914F913F912F910F9074
:104D10000FBE0F901F9018951F920F920FB60F9213
:104D200011242F933F934F935F936F937F938F93B0
:104D30009F93AF93BF93EF93FF93CF93DF931F9214
:104D4000CDB7DEB781E08983E0910704F0910804D4
:104D5000309761F0A0917A03B0917B036C91A091A0
:104D60008003B09181038C9109958983898188237F
:104D7000E1F0E0917A03F0917B038081E091800380
:104D8000F091810382FD25C09081809183038F5F24
:104D90008F7320918403821741F0E0918303F0E048
:104DA000E659FC4F958F809383030F90DF91CF914D
:104DB000FF91EF91BF91AF919F918F917F916F91F3
:104DC0005F914F913F912F910F900FBE0F901F90C9
:104DD00018958081EACF1F920F920FB60F9211247F
:104DE0008F929F92AF92BF92CF92DF92EF92FF92FB
:104DF0000F931F932F933F934F935F936F937F93E3
:104E00008F939F93AF93BF93EF93FF930E944306BB
:104E100060931C0270931D0280931E0290931F02E8
:104E20008091090490910A04029709F072C1C09020
:104E30002004D090210480911F048C151D0411F4CE
:104E400010921F0480911F04811106C180914504B6
:104E500090914604019709F0ECC040911B045091D9
:104E60001C0460911D0470911E0480912D0490918A
:104E70002E04A0912F04B0913004481759076A07F7
:104E80007B0780F080912D0490912E04A0912F0437
:104E9000B09130040196A11DB11D84179507A60796
:104EA000B70720F520912D0430912E0440912F0456
:104EB0005091300420931B0430931C0440931D0434
:104EC00050931E04F12CE12CC701B6010E944E380C
:104ED00060931704709318048093190490931A0434
:104EE000A70196010E94703760931F04C09031049F
:104EF000D0903204E0903304F09034040E94EB052B
:104F00000091290410912A0420912B0430912C0443
:104F1000601771078207930708F416C1601B710BB5
:104F2000820B930B6093390470933A0480933B0493
:104F300090933C0400912D0410912E0420912F0495
:104F40003091300480901B0490901C04A0901D04AC
:104F5000B0901E04081519052A053B0508F4FDC08C
:104F600044E0660F771F881F991F4A95D1F7672F76
:104F7000782F892F9927C61AD70AE80AF90AA0912B
:104F80001504B0911604A70196010E9431370E94C2
:104F9000D2359B01AC0160EC71EE84E69CE40E948A
:104FA000A1376B017C0120E030E040E85FE30E9424
:104FB000CD3587FDF0C020E030E048EC53E4C70178
:104FC000B6010E944938181634F4C12CD12C98EC43
:104FD000E92E93E4F92EA701960160913D047091AA
:104FE0003E0480913F04909140040E94CD35882377
:104FF00001F1C0923D04D0923E04E0923F04F09251
:105000004004609113047091140490E080E00E94C9
:10501000D2359B01AC0160EC71EE84E69CE40E9409
:10502000A137A70196010E94A1370E941A380E9459
:10503000F71380911B0490911C04A0911D04B09162
:105040001E040196A11DB11D80931B0490931C04A6
:10505000A0931D04B0931E0480911F048F5F809362
:105060001F04E0910D04F0910E04309781F120911E
:10507000220480912304909124042817190611F426
:10508000109222048091220481111CC06091250499
:1050900070912604809127049091280409958091AD
:1050A000250490912604A0912704B091280401962C
:1050B000A11DB11D8093250490932604A09327047D
:1050C000B0932804809122048F5F80932204E091A2
:1050D0000B04F0910C043097E1F06091170470918B
:1050E00018048091190490911A040995809117046D
:1050F00090911804A0911904B0911A040196A11D71
:10510000B11D8093170490931804A0931904B093D1
:105110001A04FF91EF91BF91AF919F918F917F9171
:105120006F915F914F913F912F911F910F91FF9040
:10513000EF90DF90CF90BF90AF909F908F900F90A7
:105140000FBE0F901F9018950095109520953095E3
:10515000600F711F821F931FE5CE6C157D058E05B4
:105160009F0508F00CCFA7019601261B370B480BB3
:10517000590BDA01C90124E0880F991FAA1FBB1F30
:105180002A95D1F7892F9A2FAB2FBB27C80ED91E8E
:10519000EA1EFB1EF4CEC12CD12C80E8E82E8FE352
:1051A000F82E19CF1F920F920FB60F9211240F9362
:1051B0001F932F933F934F935F936F937F938F939F
:1051C0009F93AF93BF93CF93DF93EF93FF93C091E0
:1051D0004C04D0914D04209709F45BC08C850E944B
:1051E0005805182F8E850E945805880F991F812B0E
:1051F0009A89891709F44DC0EA890B891C892D8980
:105200003E8994E0E902F0011124482F082E000C99
:10521000550BE42BF52BE25FFE4F9081492F990F40
:10522000550B660B770B400F511F621F731F4B8B83
:105230005C8B6D8B7E8B8A8B288939892230310576
:1052400031F123303105D1F12130310511F58330B1
:1052500001F58B899C89AD89BE8932E0B595A7950A
:10526000979587953A95D1F78F8B988FA98FBA8F9D
:105270008F8D98A1A9A1BAA18BA39CA3ADA3BEA316
:105280000E9443066F8F78A389A39AA302C0882344
:1052900001F3FF91EF91DF91CF91BF91AF919F917A
:1052A0008F917F916F915F914F913F912F911F91BE
:1052B0000F910F900FBE0F901F901895882311F03B
:1052C000833039F78B899C89AD89BE89B595A795BF
:1052D00097958795C9CF1F920F920FB60F92112401
:1052E0002F933F934F935F936F937F938F939F93EE
:1052F000AF93BF93EF93FF930E94D228FF91EF915A
:10530000BF91AF919F918F917F916F915F914F91DD
:105310003F912F910F900FBE0F901F901895CF9334
:10532000DF93109261031092600388EE93E0A0E097
:10533000B0E08093620390936303A0936403B093FF
:1053400065032FE931E030935F0320935E031092F1
:105350006D0310926C0380936E0390936F03A09380
:105360007003B093710381EB91E090936B03809392
:105370006A0385EC90E0909377038093760384EC46
:1053800090E0909379038093780380EC90E0909381
:105390007B0380937A0381EC90E090937D0380936C
:1053A0007C0382EC90E090937F0380937E0386ECF5
:1053B00090E0909381038093800310928303109276
:1053C00084031092850310928603109208041092B1
:1053D000070480E690E09093140480931304C8E1DE
:1053E000D0E0D0931604C093150410924804109294
:1053F000470480E090E0A0EFB2E480933D049093F6
:105400003E04A0933F04B0934004109241041092D4
:1054100042041092430410924404109235041092F6
:105420003604109237041092380410923904109206
:105430003A0410923B0410923C0410920A04109219
:10544000090410924604109245040E94B10410927F
:105450000C0410920B0410920E0410920D04109282
:10546000100410920F041092120410921104209153
:105470001304309114046091150470911604C9014D
:105480000E945E387093210460932004C901BE011C
:105490000E945E3870932404609323041092D10418
:1054A0001092D00485E394E090935F0580935E05AD
:1054B00010926105109260051092630510926205CA
:1054C0001092EA0483EC91E09093CF048093CE0491
:1054D0001092D3041092D2041092E7041092DE04CA
:1054E0001092DF041092E0041092E1048FEF809399
:1054F000E8048093EC04E0EFF4E086E095E0DFEF71
:10550000D1938E179F07E1F78CE499E09093D7042D
:105510008093D60481E49AE09093D9048093D804D0
:105520008BE492E19093DB048093DA048CE893E1BE
:105530009093DD048093DC0430E020E040E069E0FB
:1055400082ED94E00E944C0910922D0510922C05DA
:105550008FE394E090930705809306058EE494E032
:1055600090930B0580930A05C1E0C0930C0510923F
:105570000D0510923B0510925B0510925705C093E4
:105580005C05C0935D058BEC91E0909309058093D9
:10559000080582ED94E00E94DC0A10922505109225
:1055A000240510922905109228058FEF9FEF909304
:1055B00027058093260590932B0580932A05E0917B
:1055C0000805F09109050280F381E02D82ED94E059
:1055D00009958EEA94E090932F0580932E05109202
:1055E0003E0583E18093FB0482E18093FC04D09329
:1055F000FD0410926505109264051092A90581E1E1
:1056000090E09093AB058093AA0584E090E090939E
:10561000AD058093AC0581E090E09093AF05809359
:10562000AE0562E081E10E94AF0562E084E00E9485
:10563000AF058091AA050E945805D82F8091AC052E
:105640000E945805880F991F8D2B8093B0051092EA
:10565000B1051092B2051092B3051092B4051092E4
:10566000B5051092B6051092B7051092B8051092C4
:10567000B9051092BA051092BB051092BC05C093F3
:10568000C6051092CC051092CB056EE085EC95E036
:105690000E947D158EE995E090934D0480934C0413
:1056A000C093D2051092D8051092D705C093DE059D
:1056B0001092E4051092E3051092EF051092EE05AA
:1056C0002AEC3DEF3093F1052093F00580E092E065
:1056D0009093F3058093F2051092F4051092FB0568
:1056E0001092FA053093FD052093FC059093FF0579
:1056F0008093FE051092000686E096E00E94DD1B76
:1057000010920106109202061092030610920406EF
:1057100010920506DF91CF910895CF93DF93CDB717
:10572000DEB7CD55D1090FB6F894DEBF0FBECDBFA1
:10573000789484B5826084BD84B5816084BD85B56C
:10574000826085BD85B5816085BD80916E00816078
:1057500080936E001092810080918100826080931E
:105760008100809181008160809381008091800020
:105770008160809380008091B10084608093B1004B
:105780008091B00081608093B00080917A00846045
:1057900080937A0080917A00826080937A00809171
:1057A0007A00816080937A0080917A00806880938B
:1057B0007A001092C100E0917A03F0917B0382E0BD
:1057C0008083E0917603F09177031082E091780373
:1057D000F09179038FE3808310928203E0917E033E
:1057E000F0917F0386E08083E0917C03F0917D035C
:1057F000808180618083E0917C03F0917D038081D2
:1058000088608083E0917C03F0917D0380818068D3
:105810008083E0917C03F0917D0380818F7D808384
:105820008091470490914804892B59F481E080933A
:10583000490484E090E00E948C389093480480935F
:105840004704F89410928000109281001092850015
:105850001092840081EC92EA9093890080938800F2
:1058600080918100886080938100809181008260B6
:105870008093810080916F00826080936F007894A4
:1058800060913D0470913E0480913F0490914004EA
:105890000E94A2141092460410924504F89480E6E7
:1058A00090E0909314048093130460911504709118
:1058B00016040E945E38709321046093200484E0F3
:1058C00090E09093240480932304789460E070E047
:1058D00080EF92E40E94A21483E095E1909310047B
:1058E00080930F0484E89DE1909312048093110447
:1058F00088E095E190930E0480930D040E944F067A
:105900006CE081ED95E00E947D1565E08DED95E000
:105910000E947D1560E085E10E94AF0585E18093DE
:10592000E90560E084E10E94AF0584E18093F5051C
:105930008091680086608093680080916D0080612E
:1059400080936D0080916C00886080936C0061E0B2
:1059500087E00E94AF0587E080936B0515E0109308
:105960006A0561E088E00E94AF0588E080937305D6
:105970001093720561E08AE00E94AF058AE080938F
:105980007B0510937A0561E086E00E94AF0586E012
:10599000809383051093820561E089E00E94AF0542
:1059A00089E080938B0510938A0561E08BE00E946B
:1059B000AF058BE0809393051093920561E083E03F
:1059C0000E94AF0583E080939B0510939A05E091B8
:1059D000D604F091D70430E020E040E06AE082EDA8
:1059E00094E0099582ED94E00E94282282ED94E0F3
:1059F0000E94FE218111FACF60E082ED94E00E94C6
:105A0000DC11E091D604F091D70430E020E040E0D2
:105A10006BE082ED94E009950E943A2260ED77E018
:105A200080E090E00E941006CE0101960E946D1E5B
:105A30006FE871E0CE0101960E947E3A8C0163E826
:105A400071E0CE0141960E947E3A012B09F00EC111
:105A5000892B09F00BC1F894CE0101960E946D1EAE
:105A600089A18093B4068AA18093BA0678948AE0CB
:105A70000E94151F0E94EC148DE193E290930C0498
:105A800080930B048FE697E19093DC028093DB0216
:105A9000909301018093000180916900836080935D
:105AA0006900E89A8DEA92E290939F0580939E05A3
:105AB00088E49CE19093A3058093A2058BE197E194
:105AC0009093A1058093A00589E397E19093E60563
:105AD0008093E5056B961FAE1EAE6B979E012F5F00
