:100000000C9421040C9449240C9422240C9449044B
:100010000C9494280C94FB270C9449040C944904E8
:100020000C9449040C9449040C9449040C9414262F
:100030000C9449040C9449040C9449040C9449040C
:100040000C94D8230C9449040C94B5250C948F255A
:100050000C9449040C9449040C9449040C944904EC
:100060000C9470240C9449044C4F4144494E472E43
:100070002E2E2E0000300018000C0009000680040F
:100080002004C00360030003A0024002E0018001DD
:100090002001C000600030002000180010000C009B
:1000A000080006000400455241534500524553459F
:1000B00054004C4F4144005341564500524F544167
:1000C0005445204449535000454E434F4445522027
:1000D0004449520050554C5345204F555400534FFE
:1000E00055524345005253540052554E0054454D0D
:1000F000504F004241434B20544F204D41494E0048
:100100007800464143544F525920524553455400BC
:1001100044454C004241434B20544F204D41494EF1
:10012000007800524553455420414C4C00525354E2
:10013000004C4F41442046524F4D20534C4F5400E9
:100140005341564520544F20534C4F540042414395
:100150004B20544F204D41494E007800524F54419E
:100160005445440044454641554C5400444953507D
:100170000052455645525345440044454641554C6E
:1001800054004449520031205050514E2050554C9B
:1001900053450034205050514E2050554C5345008B
:1001A0003234205050514E2050554C53450050553C
:1001B0004C5345204F4646004F555400435620327D
:1001C0000043562031004E4F4E45005253540043D9
:1001D0005620320043562031004E4F4E45005255B6
:1001E0004E004D4944490031205050514E003220BC
:1001F0005050514E0034205050514E003234205057
:1002000050514E00434C4F434B00494E540045580B
:10021000540042504D0045585400800040002000DA
:10022000180010000C000B000A000900080007006D
:10023000060005000400030002000100FEFFFDFFB0
:10024000FCFFFAFFF8FFF4FFF0FFE8FF435632200F
:100250004D4F4400435631204D4F44005357494EB3
:1002600047004F4646534554004455545900505298
:100270004F424142494C495459004D4F4400535755
:10028000494E47004F464653455400445554592063
:100290004359434C450050524F424142494C495406
:1002A0005900434C4F434B204D4F44004E4F4E4559
:1002B00000435632004356310025004F4646005356
:1002C000484946542048495400250050554C534550
:1002D0002057494454480025004849542043484188
:1002E0004E43450025004D554C5449504C5900781B
:1002F00000444956494445002F00340002020303DC
:10030000020304050500000500050000910000013E
:10031000982004805C2509AD745452B952492806CE
:10032000AADC54192907AA5C624A0A2B079BE5D26A
:100330004A002C059154042D058B66062E05895420
:10034000022F06A4EC631B3008ACEC54349302314A
:1003500007EBEC92AC063209AC6C364A2A8F0033BC
:1003600009AC6C364A1A8D043408AC6CA21CBA0075
:100370003509AC6C86DE6824003609ACEC545E317D
:1003800029003708AC6C468E75043809ACEC544C27
:100390002A26053909ACEC544C3B29003A069955FC
:1003A00052004108ACEC541C53064209AC6C561C7C
:1003B000298E044309ACEC54D43129004408AC6CB8
:1003C000563447024508AC6C861E7A044608AC6C6D
:1003D000865E39034709ACEC544E3329004808AC1B
:1003E0006CA21C53064906A95486004A08ACEC6B63
:1003F0009914004B09AC6CA24A3295014C07AC6CC5
:10040000727B044D09AD74F25A49EB004E09AD748C
:10041000F25449EE004F08ACEC543493025009AC4E
:100420006C561C2967005108ACEC54B4620A52089F
:10043000AC6C561CA9195309ACEC46461A8D0454F1
:1004400007AB64566C015508AC6CA2332900560901
:10045000AD74B24E65CA11570AAD74B24A2AA92EBC
:10046000005809AC6CA24C2ACA00590AAD7472AA91
:1004700033CA28025A07AB64662A077008ADF456DF
:10048000B6D3027107ADF48EAF057208AB64A21A41
:100490002A027406AD74FE237709ADF456A5464EC4
:1004A0000B78069B64520700000004FFFF00000069
:1004B0000000003C007C00FC00FC03FC0FFC0FFC77
:1004C00003FC007C003C000000000000000000383D
:1004D0000E380E380E380E380E380E380E380E38EC
:1004E0000E380E380E000000000000240027002AFD
:1004F0000000000000250028002B00000000002361
:100500000026002900040404040404040402020276
:100510000202020303030303030102040810204044
:1005200080010204081020010204081020000000CD
:1005300008000201000003040700000000000000A2
:10054000001D000404040503010610180000170034
:100550000000013F000002E125270F3B96B1A546B0
:100560004C34428C1812939029426A08519A8C227A
:100570005286C8881164C4181A61ACC4B821002F0F
:100580000CBABABDC948D167E3C601301F7CFB1D58
:10059000434A54103A665787D0883022C48418449E
:1005A000A78CD9EC1009258ACC0031147ABDA5613D
:1005B000A40A993933628C9071F3FF284506321BE7
:1005C0007CFB1D536854103A666CE40C8999C1C6D3
:1005D0005439822367F9E08101331C7CFB1D536889
:1005E00054103A666CE44072B4B392E42C8D1D2230
:1005F000A10695190034207CFB2D2183868C2132A5
:1006000084CC904123088D183562D48851C6ECEC17
:10061000018B95F301351A7CFB0D155B8C9C2F0823
:100620002959316AE8C8591A3B44420D2A33003629
:100630001B7D1B9E5369560C3B67745E9859C282A2
:10064000D439BB3B45624DAA330037137CFB85157B
:100650000F52CE87E4E870CA8123E71D0038207C62
:10066000FB1D536854103A66D9211244C8203A85BC
:1006700086080942C7ECEC100935A8CC00391A7C71
:10068000FB1D536854103A666787482C519372BE1D
:100690001844420D2A330041167D1BA672A7D25082
:1006A000326AC8A811E3ECDD83EFEC770342247DC6
:1006B0001B86446A968C22316CC4B011C3460C1B55
:1006C000318AC4924D46911876CE9E3D08C162098A
:1006D0000043177D1B9E53699610426674FE4F8936
:1006E0008D2044628D222400441B7D1B86446A9623
:1006F0008C1A326CC4B011E3EC7F766CC428124BB8
:10070000D4240245127CFB850F52CE4B44188D9C9D
:100710005F3E78600046107CFB850F52CE9769B231
:100720001939FF1200490773DB843F484C0D7BDB0E
:100730008581F3FF3F7CF060004E247D1B0681E63F
:10074000CC1D3B860A55A24426C69818636488913E
:10075000216646981961282BCCAE3337004F167DA1
:100760001B9E5369968C1A31CEFEBF1B316AC89A04
:1007700054670052318E3B06456B980C23316EC492
:10078000B811E3468C1B316EC43012A388305194EB
:100790006AC8B031A3C6109AD598514486911837CB
:1007A00062DCC10153228E3B9E6389969022316E9A
:1007B000C4B81163C7529A2C5BB283C78E35680EDA
:1007C000151126ABD000540D7D1B860F520D9DFFD9
:1007D000FF150055117CFB8561F6FF9F8D18344491
:1007E0000D2A330056167FF98591F6FFCB11E3866B
:1007F00090224315097227CB0E0358297E3B868130
:10080000068F91183684101922A4860C4367D024D1
:10081000519206CD211B328A08194244868D2076DA
:10082000D0C2017814CABA8541868E9040638A94FA
:100830001924530CB2680000000004FFFF00000000
:10084000B82811241FBECFEFD8E0DEBFCDBF11E026
:10085000A0E0B1E0EEE9F3E702C005900D92A03E02
:10086000B107D9F726E0A0EEB1E001C01D92AE3489
:10087000B207E1F714E0C1E2D4E004C02197FE0121
:100880000E94B137C032D107C9F70E94B62A0C9432
:10089000CD390C940000662329F06A3019F0862FB8
:1008A00090E008958FEF9FEF0895AF92BF92CF929F
:1008B000DF92EF92FF920F93CF93DF93EC01DA0177
:1008C0007901942F9770E1E0F0E09F01092E01C0BB
:1008D000220F0A94EAF7522F6E018AE8C80ED11C43
:1008E000F601808140E0823018F4422F813049F1D6
:1008F0005D01F8EFAF22E8ADF9AD28813981D9016A
:1009000050968C918A9D90018B9D300D1124620F21
:10091000731FDF01A60FB71F01111AC0EA0EFB1EDD
:100920008C91842B85278D93AE15BF05C9F7DF9178
:10093000CF910F91FF90EF90DF90CF90BF90AF904D
:10094000089550E0D5CF440F550FE114F10479F329
:100950003C91342B35273C939F5F9770E1E0EE1A72
:10096000F1089111F0CF2CAD3DADA20FB31FF601F0
:100970008081823028F4813009F051E041E0E5CFF8
:1009800051E0E3CF80E0089590E080E00895109278
:10099000DF031092E0031092E1031092E203109241
:1009A000E3031092E4031092E5031092E603109221
:1009B000E7031092EA031092ED031092EE031092F7
:1009C000EF031092F0031092F5031092F6031092C9
:1009D000F7031092F8031092F1031092F2031092B1
:1009E000F3031092F4031092130410921204209156
:1009F0000F043091100480E090911104891760F485
:100A000094E0899FF0011124E20FF31F10821182FC
:100A1000128213828F5FF0CF08951092D20310924A
:100A2000D1031092090410920A0410920B04109240
:100A30000C040E94C704E091D903F091DA033097C7
:100A400009F009940895BC01F894E1EDF3E095876D
:100A5000848722853385C9010E949D37708F678BFB
:100A6000C90168E170E00E949D37738F628F7894AE
:100A7000089508958093240508959B01DC0118963C
:100A8000ED91FC9141E067E10994833081F028F415
:100A9000813099F08230A9F008958730A9F088302C
:100AA000C9F08430B1F4809180008F7D03C08091C3
:100AB00080008F7780938000089584B58F7784BD00
:100AC000089584B58F7DFBCF8091B0008F778093A0
:100AD000B00008958091B0008F7DF9CFCF93DF9360
:100AE000282F30E0F901E35DFA4F8491F901E75EC8
:100AF000FA4FD491F901EB5FFA4FC491CC23A1F0E6
:100B000081110E944505EC2FF0E0EE0FFF1FE5502C
:100B1000FB4FA591B491EC91ED2381E090E009F4B5
:100B200080E0DF91CF91089580E090E0FACF1F93AD
:100B3000CF93DF93282F30E0F901E35DFA4F8491E2
:100B4000F901E75EFA4FD491F901EB5FFA4FC491D6
:100B5000CC23A9F0162F81110E944505EC2FF0E05F
:100B6000EE0FFF1FEF50FB4FA591B4918FB7F89494
:100B7000EC91111108C0D095DE23DC938FBFDF917B
:100B8000CF911F910895DE2BF8CFCF93DF9390E0A4
:100B9000FC01E75EFA4F24918B5F9A4FFC01849130
:100BA0008823C9F090E0880F991FFC01E951FB4FA1
:100BB000A591B491FC01EF50FB4FC591D491611107
:100BC0000DC09FB7F8948C91209582238C938881D7
:100BD000282328839FBFDF91CF910895623051F47D
:100BE0009FB7F8943C91822F809583238C93E88162
:100BF0002E2BEFCF8FB7F894EC912E2B2C938FBF29
:100C0000EACF3FB7F8948091CA029091CB02A091AD
:100C1000CC02B091CD0226B5A89B05C02F3F19F09C
:100C20000196A11DB11D3FBFBA2FA92F982F88276C
:100C3000BC01CD01620F711D811D911D42E0660F47
:100C4000771F881F991F4A95D1F708958F929F9219
:100C5000AF92BF92CF92DF92EF92FF926B017C0135
:100C60000E9401064B015C01C114D104E104F104AE
:100C7000B9F00E940106681979098A099B09683E42
:100C800073408105910580F321E0C21AD108E10883
:100C9000F10888EE880E83E0981EA11CB11CE4CFF9
:100CA000FF90EF90DF90CF90BF90AF909F908F908C
:100CB00008952FB7F8946091C6027091C702809191
:100CC000C8029091C9022FBF08950E94C7040E94D4
:100CD00059066093090470930A0480930B0490935F
:100CE0000C04E091D703F091D803309709F00995EF
:100CF00080910D0490910E04892B39F482E090E0EC
:100D00009093D2038093D103089581E090E0F8CFCF
:100D10000F931F93CF93DF93EC010091D1031091B8
:100D2000D2030E940D0580912C0590912D05059709
:100D300049F48FB7F89429E335E03093D00320933A
:100D4000CF038FBFD0932D05C0932C05C230D105A2
:100D5000B9F170F4209731F1C130D10541F1012B87
:100D600009F447C0DF91CF911F910F910C94650654
:100D7000C430D105B9F168F1259789F781E090E099
:100D800090930E0480930D0488E190E00E94230567
:100D90008FB7F89428E13DE13093D0032093CF033F
:100DA0008FBFDDCF10920E0410920D04D8CFD093D8
:100DB0000E04C0930D0488E190E00E942305CFCF7C
:100DC00081E090E090930E0480930D0484E090E025
:100DD000F4CF81E090E090930E0480930D0482E0C4
:100DE00090E0EBCF81E090E090930E0480930D04AF
:100DF000E4CFDF91CF911F910F9108950895089549
:100E0000AF92BF92CF92DF92EF92FF920F931F9318
:100E1000CF93DF936C017B018B01040F151FEB0156
:100E20005E01AE18BF08C017D10759F06991D6010D
:100E3000ED91FC910190F081E02DC6010995892B7F
:100E400079F7C501DF91CF911F910F91FF90EF903E
:100E5000DF90CF90BF90AF90089520917702260F3A
:100E60003327331F21323105ECF420919D02FC0120
:100E700090E080E0243069F082E00895A09177024C
:100E80002191AC014B5A5D4FA40FB52FB11D2C938E
:100E90000196861798F380917702680F6093770226
:100EA00080E0089581E0089510929D0281E0809392
:100EB0009F0210929E0261E082E10E94970561E02C
:100EC00083E10E949705E9EBF0E080818E7F8083CB
:100ED00080818D7F808388E48093B80085E480934F
:100EE000BC000895CF93DF9391E090935402882340
:100EF000B9F0C091B800D091BA008091BC008A7B53
:100F00008093BC0060E082E10E94970560E083E18D
:100F10000E9497050E945407D093BA00C093B8006E
:100F2000DF91CF910895089508950895E0914C02BE
:100F300080914B02E81730F4F0E0E55DFD4F8081D1
:100F400090E008958FEF9FEF089590914C0280916B
:100F50004B022FEF3FEF981748F4E92FF0E0E55DE3
:100F6000FD4F208130E09F5F90934C02C9010895AE
:100F700080914B0290914C02891B990B0895CF925E
:100F8000DF92EF92FF920F931F93CF93DF937C0139
:100F9000CB018A0120912A02222389F0EB016B0107
:100FA000C40ED51ECC15DD0569F06991D701ED9110
:100FB000FC910190F081E02DC7010995F3CF642FDA
:100FC0000E942D07C801DF91CF911F910F91FF90D3
:100FD000EF90DF90CF900895CF93DF931F92CDB71E
:100FE000DEB7698320912A022223F9F020914D0275
:100FF000203258F021E030E0FC013383228390E07E
:1010000080E00F90DF91CF91089580914E02E82FFC
:10101000F0E0E65FFD4F998190838F5F80934E02F1
:1010200080934D0281E090E0ECCF61E0CE0101962B
:101030000E942D07F7CFFC01538D448D252F30E002
:10104000842F90E0821B930B541710F0CF960895D5
:1010500001970895FC01918D828D981761F0A28D02
:10106000AE0FBF2FB11D5D968C91928D9F5F9F73C8
:10107000928F90E008958FEF9FEF0895FC01918D7E
:10108000828D981731F0828DE80FF11D858D90E0EB
:1010900008958FEF9FEF0895FC01918D228D892F88
:1010A00090E0805C9F4F821B91098F739927089570
:1010B00082E393E00E944C0821E0892B09F420E0B0
:1010C000822F089580E090E0892B29F00E94580833
:1010D00081110C9400000895FC01A48DA80FB92F74
:1010E000B11DA35ABF4F2C91848D90E001968F7350
:1010F0009927848FA689B7892C93A089B1898C916F
:10110000837080648C93938D848D981306C00288BD
:10111000F389E02D80818F7D80830895EF92FF9287
:101120000F931F93CF93DF93EC0181E0888F9B8D0A
:101130008C8D98131AC0E889F989808185FF15C0C4
:101140009FB7F894EE89FF896083E889F9898081E7
:101150008370806480839FBF81E090E0DF91CF91B6
:101160001F910F91FF90EF900895F62E0B8D10E0D8
:101170000F5F1F4F0F731127E02E8C8D8E110CC047
:101180000FB607FCFACFE889F989808185FFF5CF92
:10119000CE010E946C08F1CFEB8DEC0FFD2FF11DFD
:1011A000E35AFF4FF0829FB7F8940B8FEA89FB89CF
:1011B00080818062CFCFCF93DF93EC01888D88232D
:1011C000B9F0AA89BB89E889F9898C9185FD03C0AA
:1011D000808186FD0DC00FB607FCF7CF8C9185FF8F
:1011E000F2CF808185FFEDCFCE010E946C08E9CF60
:1011F000DF91CF910895DC011A96ED91FC9130E0DA
:1012000020E00994DC011696ED91FC9130E020E09D
:1012100040E069E10994DC011696ED91FC9130E023
:1012200020E040E068E109949A01DC011696ED9116
:10123000FC91462F67E10994EF92FF920F931F9361
:10124000CF93DF931F92CDB7DEB77C018B01D8011E
:101250006C91673129F150F46531A0F40F90DF9162
:10126000CF911F910F91FF90EF9008956A3118F17F
:101270006E3FA1F7F8014181498369E2C7010E94ED
:10128000FB080BC0F80141814983D7011696ED9107
:10129000FC9130E020E0C70109950E5F1F4FD7CFCA
:1012A000F80181818983AE014F5F5F4F61E0C70123
:1012B0000E941409F2CF0F5F1F4FD7011696ED91D0
:1012C000FC9130E020E040E0C7010995C0CF462FF7
:1012D000DC011696ED91FC9130E020E066E1099486
:1012E000462FDC011696ED91FC9130E020E065E19F
:1012F0000994EF92FF920F931F93CF93DF93EC012A
:10130000042F79016D3009F446C050F46B30C9F1F7
:10131000693009F49FC06A3009F465C080E046C0B6
:101320006E3009F452C06F3099F70E940B09F70133
:101330001381110F110F110F6C89160F60E4CE018C
:101340000E947009612F62956F706061CE010E94EA
:101350007009612F6F70CE010E946709F7016481E7
:10136000606BCE010E946709F70140815181628163
:10137000660F660F660FCE010E9414090150A1F797
:101380002EC061E371E0442311F06CE271E0CE0104
:101390000E941C090AC0411110C065E271E00E9460
:1013A0001C09E881F98182898C8B81E0DF91CF91E2
:1013B0001F910F91FF90EF9008956EE171E00E94F0
:1013C0001C09E881F9818389EFCF0E940B0961E84C
:1013D000CE010E947009602FCE010E946709CE01E4
:1013E0000E940209E2CFEA85FB8530E020E040E080
:1013F00068E2CE010995EE81FF8130E020E040E017
:1014000064E1CE01099541E06BE4CE010E94FB0846
:10141000E881F981448169E2CE010E94FB0840E045
:101420006BE4CE010E94FB08E881F981448169E206
:10143000CE010E94FB0841E06BE4CE010E94FB0854
:10144000E881F981458169E2CE010E94FB0866E3EB
:1014500071E09DCF8BE691E0998388831C8AA5CFAC
:10146000DC011896ED91FC9130E020E040E069E16C
:101470000994DC011896ED91FC9130E020E040E009
:1014800068E10994CF93DF931F92CDB7DEB76983EC
:10149000BE016F5F7F4F0E943D050F90DF91CF919E
:1014A0000895EF92FF921F93CF93DF93EC01162FD5
:1014B0007A010E94390A60E4CE010E94420AE8855E
:1014C000F9859701412F67E1CE010995CE01DF91A2
:1014D000CF911F91FF90EF900C94300AEF92FF9202
:1014E0001F93CF93DF93EC01142F7901663181F1C3
:1014F00038F4643109F44BC0653179F080E022C0E2
:101500006831C9F150F16931C9F780910902882326
:1015100091F1CE010E94300A2EC0809109028823E9
:1015200019F0CE010E94300ACE010E94390A60E013
:10153000CE010E94420A612FCE010E94420A81E040
:1015400080930902DF91CF911F91FF90EF90089552
:10155000642F0E94420A81E0F5CF8091090288231E
:1015600019F0CE010E94300AA701193138F4612F19
:10157000CE010E94510A10920902EDCF68E1CE011E
:101580000E94510A185188E1E80EF11CEDCF8E89B6
:101590008F3F11F488E78E8BE885F9859701412FFD
:1015A00064E1CE01DF91CF911F91FF90EF900994FC
:1015B0000F93FC01E85BFF4F0190F081E02DDF010C
:1015C000A41BB50BAD01FC01EA5BFF4F0190F0815C
:1015D000E02DDF01A61BB70BBD01011113C0415067
:1015E0005109621B730BFC01E05CFF4F0190F0811D
:1015F000E02D4E1B5F0BDC01D496ED91FC9109951B
:101600000F910895013079F761507109421B530B16
:10161000EACFCF93DF93FC01A081B18182AD90E04E
:101620009C0143E0220F331F4A95E1F737AF26AF05
:1016300050962C91509748E0249F9001112435AF8B
:1016400024AF23AD30E0B90153E0660F771F5A9500
:10165000E1F7EF01C05CDF4F7983688351964C91CD
:101660005197E901C80FD91F50E04C175D0718F4D6
:10167000CA01821B930BEF01CE5BDF4F7983688336
:10168000229623E0880F991F2A95E1F7860F971F6E
:1016900099838883229654968D919C91559799832E
:1016A0008883E85BFF4F56968D919C919183808350
:1016B000DF91CF9108950F931F93FC01E25BFF4FE1
:1016C0000190F081E02DDC01A05BBF4F0D90BC913B
:1016D000A02D4A175B0740F4E017F10748F0041704
:1016E000150730F080E019C0E017F107C0F3FACF1A
:1016F000FC01E65BFF4F40815181845B9F4FFC0101
:10170000808191816817790758F481E04217530767
:1017100020F081E02617370728F71F910F910895D1
:1017200042175307B0F3DECF2F923F924F925F9252
:101730006F927F928F929F92AF92BF92CF92DF92E1
:10174000EF92FF920F931F93CF93DF93CDB7DEB746
:1017500028970FB6F894DEBF0FBECDBF98878F8352
:10176000865B9F4F9A838983FC0111821082EF81EF
:10177000F885EA5BFF4F208031802F813885245B1C
:101780003F4F3C832B83F90131822082EF80F88424
:10179000FEE4EF0EF11CF70111821082EF81F88553
:1017A000E85BFF4F40805180EF81F885EC5BFF4F95
:1017B000208131814216530630F0C201821B930B07
:1017C000F70191838083EF81F885EE5BFF4F2081E5
:1017D0003181421A530A2F813885205B3F4F3E8367
:1017E0002D83F90151824082EF81F885E85AFF4F3D
:1017F00060807180EF81F885EC5AFF4FA080B18046
:10180000EF81F885EA5AFF4FC080D180EF81F885DB
:10181000EE5AFF4F8080918083019501A601B401AB
:101820008F8198850E945B0B2F8138852C573F4F05
:1018300038872F8381111BC0F901108228960FB6BB
:10184000F894DEBF0FBECDBFDF91CF911F910F91F6
:10185000FF90EF90DF90CF90BF90AF909F908F90D0
:101860007F906F905F904F903F902F90089581E010
:10187000EF81F88580838114910421F0E981FA8158
:1018800091828082A214B30420F4EB81FC81B182A6
:10189000A082F701808191818C159D0510F4D18281
:1018A000C0826414750450F6ED81FE8171826082FD
:1018B000C5CF0F93CF93DF93E02FDC01AC57BF4F21
:1018C000FC91FF2309F460C02115310509F45CC0C7
:1018D0002230310538F0023009F04AC06F5F7F4F87
:1018E000621B730B0E2F0170E0FD52C0FC01E25B26
:1018F000FF4F0190F081E02D4E175F0708F444C0C0
:10190000FC01E05BFF4F0190F081E02D4E175F0777
:10191000D8F5FC01E45BFF4F0190F081E02DDC0184
:10192000A65BBF4F0D90BC91A02D260F371F261729
:10193000370738F56E177F0718F59F0121503109D9
:10194000A217B30708F56A177B0708F4BD012E1725
:101950003F0708F4F901E61BF70BEC01AEA9BFA99C
:1019600014960D90BC91A02D9F01FD0109950CC00E
:10197000033009F0B7CF4F5F5F4F421B530BB2CF1D
:10198000BD016E177F07E0F2DF91CF910F910895AF
:10199000FC01E65BFF4F0190F081E02D6E177F07A1
:1019A00098F3FC01E45BFF4F0190F081E02D6E178E
:1019B0007F0750F7FC01E05BFF4F0190F081E02DC5
:1019C000DC01A25BBF4F0D90BC91A02D240F351FF1
:1019D00024173507A8F44E175F0788F49F0121509C
:1019E0003109A217B30780F64A175B0708F4AD0167
:1019F0002E173F0708F4F901E41BF50BAECFAD013C
:101A00004E175F0708F6EDCF0F932091E804309151
:101A1000E90462177307F0F02091EA043091EB04B7
:101A200062177307B8F42091E4043091E50482173B
:101A3000930780F02091E6043091E7048217930722
:101A400048F4AB01BC0100E021E030E08AE994E019
:101A50000E94590C0F9108955F926F927F928F921E
:101A60009F92AF92BF92CF92DF92EF92FF920F932D
:101A70001F93CF93DF93EC017B018A016C01C41AA1
:101A8000D50A4817590718F06A01C81AD90A2E153D
:101A90003F0560F44701821A930AC814D90448F13B
:101AA0000C171D0708F459C0512C18C049018E1895
:101AB0009F08C814D90408F05EC09C2D8D2D6401C8
:101AC000892E982E902F812F8901292F382F9C2F16
:101AD0008D2FE701E92EF82E552453943601769484
:101AE0006794E216F30608F442C0AA24AA94BA2C1A
:101AF00021C09C2D8D2D6401892E982E9E2D8F2D19
:101B00007801092F182F9C2F8D2FE901292F382FAD
:101B1000E3CFB701CE01552011F0BE01C7010E94ED
:101B2000040D6818790877FE04C0EA0CFB1C6C0CE5
:101B30007D1C21960C171D0760F7DF91CF911F9137
:101B40000F91FF90EF90DF90CF90BF90AF909F905C
:101B50008F907F906F905F90089536017694679490
:101B6000902F812F8E01C92FD82F7901512CAA24B3
:101B7000A394B12CDFCF0C171D0708F095CF3601C9
:101B800076946794902F812F8E01C92FD82F7901D9
:101B9000512CABCFAF92BF92CF92DF92EF92FF92D8
:101BA0000F931F93CF93DF936C01EB015A017B01DD
:101BB000E20EF31E9C01240F351F8701AB01BC010F
:101BC0008AE994E00E945B0B882361F000E09501B4
:101BD000AE01B6018AE994E00E94590C2196EC16F8
:101BE000FD06A1F7DF91CF911F910F91FF90EF902C
:101BF000DF90CF90BF90AF900895213069F038F01A
:101C0000223079F0840F911D47FD9A950895860F33
:101C1000911D67FD9A950895841B910947FD939541
:101C20000895861B910967FD93950895213069F009
:101C300038F0223079F0861B910967FD939508955D
:101C4000840F911D47FD9A950895860F911D67FD9C
:101C50009A950895841B910947FD939508953F92A5
:101C60004F925F926F927F928F929F92AF92BF92AC
:101C7000CF92DF92EF92FF920F931F93CF93DF9358
:101C80007C01162F442EEC01C25ADF4F5E806F801C
:101C90006C018AE8C80ED11C78847518312E711633
:101CA00008F4372C8C809D800E85202F462D652DC5
:101CB0008A819B810E94FD0D5C01202F462D652DA0
:101CC000C4010E94160EAC01442079F08C85F60107
:101CD0008083232D30E0B501C7010E94590C1715F0
:101CE00048F017196394512CD7CF8B858111F7CF0A
:101CF0008D85EDCF150D1E836F82DF91CF911F91E2
:101D00000F91FF90EF90DF90CF90BF90AF909F909A
:101D10008F907F906F905F904F903F900895DC017F
:101D20001A964C911A97ED91FC911197249130E0FD
:101D3000042E02C0359527950A94E2F7842F860F6A
:101D4000883068F031961196FC93EE93E49198E018
:101D5000941B01C0EE0F9A95EAF72E2B88501A9625
:101D60008C938FEF9FEF01C0880F6A95EAF78095FB
:101D7000822308950F931F93CF93DF938C01EC017F
:101D8000C25ADF4F798368831A86FC01EF58FF4FF0
:101D90006081CE010E948F0E8887F801EE58FF4FB8
:101DA0006081CE010E948F0E8987F801E657FF4FB0
:101DB00090819C8781E0911180E08D87DF91CF91A8
:101DC0001F910F910895CF93C62F0E948F0EC1507F
:101DD00021E030E001C0220FCA95EAF7821BCF91C3
:101DE0000895FC01E60FF11D849190E0982F88275B
:101DF0003196E4918E0F911D0895CF93DF9320913A
:101E0000F4043091F5042817390709F490C0EC0167
:101E10009093F5048093F404FC018491809307056A
:101E20003196E491E0930805FE013296E491E09347
:101E30000905FE013396E491E0930A05FE0134960C
:101E4000E491E0930B05FE013596E491E0930C05D7
:101E5000FE013696E491E0930D05FE013796E4917C
:101E6000E0930E05FE013896E491E0930F05FE0124
:101E70003996E491E0931005FE013A96E491E093DF
:101E80001105FE013B96E491E0931205FE013C969C
:101E9000E491E0931305FE013D96E491E09314056F
:101EA000FE013E96E491E0931505FE013F96E49114
:101EB000E0931605FE017096E491E093170561E149
:101EC000CE010E94F10E909319058093180563E1ED
:101ED000CE010E94F10E90931B0580931A0565E1D7
:101EE000CE010E94F10E90931D0580931C058091F8
:101EF000F4049091F504892BD1F08091140580931E
:101F00002005409115054093210590911F059923C7
:101F100071F0913079F490911605891714F490932B
:101F2000200580911705841714F480932105DF9113
:101F3000CF9108953091110520911305082E000CC2
:101F4000990B622F022E000C770B630F711D37FD6A
:101F50007A95861797071CF4320F309320052417C3
:101F600034F720932105E3CFEF92FF920F931F9355
:101F7000CF93DF93FC01E65AFF4F20813181295E28
:101F80003F4F6F3F710509F048F561367105D8F094
:101F900080589F4FFC0180819181280F391FC90112
:101FA0000196FC014491442309F447C0F90144918E
:101FB0004617170671F40196DF91CF911F910F918B
:101FC000FF90EF9008956134710548F382589F4F58
:101FD000E1CFFC018491280F311DE1CF8B01FC0181
:101FE000EE57FF4FC081D181C20FD31F7E0160E049
:101FF000C7010E94F10EC80FD91F62E0C7010E94FD
:10200000F10EF4E0EF0EF11C8017910780F3FE0152
:10201000849190E0982F88273196E4918E2B009739
:1020200061F00817190719F4CE010396C5CFFE0118
:102030003296E491CE0FD11DEACF90E080E0BCCF84
:10204000CF92DF92FF920F931F93CF93DF93109263
:1020500000051092B2046C0180ECF82E10E000E054
:10206000D0E0C0E0F60161916F01E0919C04F09135
:102070009D048AE994E009958F3F980789F18E3F86
:102080002FEF920779F3BC018AE994E00E94B40F24
:10209000009721F1BC018AE994E00E94BA0E609198
:1020A0000D0588EF94E00E94E30E80932205609175
:1020B0000E0588EF94E00E94E30E60910F0588EF13
:1020C00094E00E94E30E082F880F110B80ECF812A9
:1020D00002C0F0902205C00FD11FC4CF80E0F3CF23
:1020E00020910005222399F080912205022E000CF8
:1020F000330B280F311D87FD3A95C20FD31FC01B2C
:10210000D10B1F1424F4CF0DD11DF7FCDA95CE01AD
:10211000DF91CF911F910F91FF90DF90CF900895A5
:102120008F929F92AF92BF92CF92DF92EF92FF92E7
:102130000F931F93CF93DF93EC017B018A01690119
:10214000FC01E459FF4F8081813009F46FC008F42D
:1021500062C0823009F475C0833009F47DC0FE018D
:10216000E05AFF4FF182E082329611830083B6017C
:10217000CE010E94B40F009709F4FFC07E012EE546
:10218000E20EF11CBC01CE010E94BA0EFE01E9591B
:10219000FF4FB0803C966081C7010E94E30E882EFD
:1021A000FE01EC58FF4F6081C7010E94E30E082F2B
:1021B000FE01EB58FF4F6081C7010E94E30EA82E7D
:1021C000F701908419140CF090C016850B0D019541
:1021D000212F402F682D828193810E94FD0D6C017B
:1021E000F70193838283212F402F682D848195816D
:1021F0000E94160EAC01F70195838483113009F417
:1022000084C0A8F1123009F491C0133009F4A4C0BD
:102210008C01960136C0FE01E45AFF4F0190F08117
:10222000E02DCE010995080F191F99CFFE01E45A40
:10223000FF4F0190F081E02DCE010995E81AF90ACF
:102240008ECFFE01E45AFF4F0190F081E02DCE01C8
:102250000995081B190B83CFFE01E45AFF4F01902B
:10226000F081E02DCE010995E80EF91E78CF960198
:10227000290D311D97FC3A958C010B0D111DB7FCF2
:102280001A95B601CE010E945B0B882371F1F7010C
:10229000168217828E0101591F4F6E01F0E7CF0E93
:1022A000D11CF8016081C7010E948F0E882EF601B3
:1022B0006081C7010E948F0E982E40E0682DCE01EC
:1022C0000E942F0E41E0692DCE010E942F0E61E089
:1022D000C7010E948F0E8111F0CFF70187818B1506
:1022E00004F3C657DF4F848588838A2DAA0C990B87
:1022F000DF91CF911F910F91FF90EF90DF90CF90E2
:10230000BF90AF909F908F90089581E090E08B19DF
:102310009109B7FC939596012F5F3F4F8A01090DF4
:10232000111D97FC1A95C80ED91EABCF81E090E025
:10233000BC016919710997FC739596012F5F3F4F96
:102340008B199109B7FC93958A010F5F1F4F480FB6
:10235000591FC60ED71E95CF96012B0D311DB7FC08
:102360003A9581E090E08919910997FC93958A014B
:102370000F5F1F4F480F591F84CF90E080E0B8CF08
:10238000CF92DF92EF92FF920F931F93CF93DF9341
:10239000EC018B011092B2047A01D12CC12CF7010F
:1023A00061917F01E0919C04F0919D048AE994E0A1
:1023B00009958F3F980719F18E3F2FEF920779F318
:1023C0009C01A801BE018AE994E00E94901020912E
:1023D0000605213059F038F0223059F0233061F0F1
:1023E000C80ED91EDCCFC80FD91FFACF080F191F8E
:1023F000F7CFC81BD90BF4CF081B190BF1CFC601BF
:10240000DF91CF911F910F91FF90EF90DF90CF90D0
:102410000895CF93DF93EC016BAFEEA9FFA9019074
:10242000F081E02D0995EEA9FFA90280F381E02D4E
:10243000CE01DF91CF910994AF92BF92CF92DF92FC
:10244000EF92FF920F931F93CF93DF9300D000D0B2
:102450001F92CDB7DEB78C01DC01DA96AC90DA972B
:10246000DB96EC90DB97ED91FC91B188FE2CD12CA2
:10247000C12CD801ED91FC9111978089D8962D91AE
:102480003C911C82FD828B83B8E08B9FC00111249C
:102490008C9DA0018D9D500D9C9D500D1124240FED
:1024A000351F3A832983D8011496ED91FC919E0142
:1024B0002F5F3F4F41E06FE0C8010995F3948F2DE6
:1024C0008E198A1528F4BFEFCB1ADB0AFB1488F2A9
:1024D0000F900F900F900F900F90DF91CF911F9161
:1024E0000F91FF90EF90DF90CF90BF90AF90089545
:1024F000CF92DF92EF92FF920F931F93CF93DF93D0
:10250000EC01962F683109F44BC0B901993130F4D0
:102510009431C9F0973189F080E006C0993109F40F
:1025200061C09032C9F781E0DF91CF911F910F9187
:10253000FF90EF90DF90CF90089550E086E293E017
:102540000E94BF07F0CF8C859D85AE85BF85892B06
:102550008A2B8B2B71F4E881F981A585B0E020EA04
:1025600036E841E050E00E9465366C877D878E87B3
:102570009F8710924C0210924B0210924E021092C2
:102580004D020E94540783E997E09093760280936E
:10259000750284E997E090937A0280937902C3CF21
:1025A0002C853D854E855F8560E074E284EF90E088
:1025B0000E94AF362051310941095109569547957E
:1025C000379527952093B8008E8990E0959587954B
:1025D00091E090932A028093080210924E0210928A
:1025E0004D02A1CFD0914D02D13208F093C0C091DD
:1025F00008020E9401066B017C0180919D028111FD
:1026000064C082E080939D0281E080939F028FEFFF
:1026100080939C021092C102D093C002AAE0B2E063
:10262000E0EAF2E080E0D8137CC01092C202809110
:10263000C202CC0FC82BC093C20280919E0281308F
:1026400009F073C010929E020E9401066B017C018A
:102650008091C2028093BB00809150029091510200
:10266000A0915202B0915302892B8A2B8B2B99F0A7
:102670000E940106009150021091510220915202D5
:10268000309153026C197D098E099F0906171707AF
:1026900028073907D8F18091BC0083FDD9CF85EC9C
:1026A0008093BC000E9401066B017C0180919D0219
:1026B0008230E9F180919C028F3F61F180919C0210
:1026C000803241F180919C0225C08091500290910E
:1026D0005102A0915202B0915302892B8A2B8B2B6D
:1026E00009F48BCF0E940106009150021091510213
:1026F00020915202309153026C197D098E099F0975
:10270000061717072807390708F077CF80914F027F
:102710000E94720710924E0210924D0210922A02ED
:1027200002CF9D9191938F5F7ECF85EEB9CF80913F
:10273000500290915102A0915202B0915302892B04
:102740008A2B8B2B09F4B2CF0E9401060091500214
:102750001091510220915202309153026C197D095F
:102760008E099F09061717072807390708F09ECF1B
:10277000CDCF0F931F93CF93DF938C01C62F642F80
:10278000CC32E8F4CA3208F041C0C83271F1C93223
:1027900009F442C080E0C034D0F1CF73F801EC0FEF
:1027A000F11D868D8F3F91F1C031E0F00E946E05E2
:1027B00021E0892B09F420E0F801218F27C0CD32D8
:1027C00089F140F384EB8C0F823020F7CF73C00F78
:1027D000D12FD11D8E8D411133C061E00E94C505FE
:1027E00060E08E8D0E94970511C0025E1F4FD0E001
:1027F000F80181918F018F3F31F061E0D03108F015
:1028000062E00E94C505DF5FD63191F781E0DF917C
:10281000CF911F910F91089570E090E080E00E94A9
:102820002606F4CF85E090E0433010F082E090E09F
:10283000880F991F880F991F05970197F1F7E6CF29
:1028400062E00E94C505E2CFCF92DF92EF92FF9245
:102850000E94113520E034E244E759E40E94E0365A
:102860009B01AC0160E070E080E89FE30E94E036ED
:102870006B017C01AC019B0160E074E284E79BE4A6
:102880000E94E0360E9459376F3F2FEF7207810593
:10289000910508F47CC020E030E040E051E4C7013D
:1028A000B6010E9472359B01AC0160E074E284E7DE
:1028B0009BE40E94E0360E9459376F3F2FEF72076A
:1028C0008105910508F465C020E030E040E852E45D
:1028D000C701B6010E9472359B01AC0160E074E251
:1028E00084E79BE40E94E0360E9459376F3F2FEF48
:1028F00072078105910508F44EC020E030E040E801
:1029000053E4C701B6010E9472359B01AC0160E03F
:1029100074E284E79BE40E94E0360E9459376F3FDF
:102920002FEF720781059105C0F120E030E040E80B
:1029300054E4C701B6010E9472359B01AC0160E00E
:1029400074E284E79BE40E94E0360E9459376F3FAF
:102950002FEF720781059105A8F425E0F8941092F5
:1029600081006150710970938900609388008091A3
:10297000810088608093810080918100282B2093C2
:1029800081007894FF90EF90DF90CF90089521E040
:10299000E5CF22E0E3CF23E0E1CF24E0DFCFCF9209
:1029A000DF92EF92FF9220910D0430910E042130BE
:1029B0003105D1F16B017C0120E030E040E85FE3BC
:1029C0000E940C3587FD30C020E030E048EC53E435
:1029D000C701B6010E948837181634F1F894C092E6
:1029E0000504D0920604E0920704F092080478945B
:1029F0006091DB037091DC0390E080E00E94113570
:102A00009B01AC0160EC71EE84E69CE40E94E03630
:102A1000A70196010E94E0360E945937FF90EF907F
:102A2000DF90CF900C942414FF90EF90DF90CF9024
:102A300008956CEF82E393E00C948E0868EF82E3D4
:102A400093E00C948E08CF92DF92EF92FF920F9357
:102A50001F93CF93DF93EC0188810E946E058C0158
:102A60000E945906CA80DB80EC80FD80AB01BC016E
:102A70004C195D096E097F090115110561F4898101
:102A8000813031F491E04B3051056105710508F456
:102A900090E080E00EC001301105D1F789818111ED
:102AA000F7CF81E04B3051056105710508F480E0F6
:102AB00090E01F821E829923B1F081E090E09F8315
:102AC0008E830E9459066B017C01CA82DB82EC82F4
:102AD000FD820983DF91CF911F910F91FF90EF90BD
:102AE000DF90CF900895882381F30E9459062EEE3F
:102AF000C20E22E0D21EE11CF11C6C157D058E0574
:102B00009F0550F482E090E09F838E83E885F985ED
:102B10003097B9F20995D5CF83E090E09F838E83FB
:102B2000EA85FB85F5CF0F931F93CF938C01C62FBA
:102B300062E08C2F0E94C505F801C0838C2F0E9493
:102B40006E05F8018183CF911F910F910895CF9267
:102B5000DF92EF92FF92CF93DF93EC0189819A810C
:102B60009C838B8388818E3008F08E5087708064C0
:102B700080937C0080917A00806480937A008091B9
:102B80007A0086FDFCCFA0917800B0917900CF80CB
:102B9000D8840D2C000CEE08FF0829853A85032EF9
:102BA000000C440B550B2C193D094E095F090E947E
:102BB00070362FEF33E040E050E00E9446362C0D97
:102BC0003D1D4E1D5F1D8D819E81281B390B2130BF
:102BD00082E0380714F020E032E021158EEF38074C
:102BE00014F420E03EEF3A8329838B85882329F073
:102BF0003195219531093A832983DF91CF91FF9057
:102C0000EF90DF90CF900895CF92DF92EF92FF92F6
:102C10000F931F93CF93DF936C01EB017B01E40EC5
:102C2000F51E10E000E0CE15DF0561F06991D601D8
:102C3000ED91FC910190F081E02DC6010995080FFE
:102C4000191FF1CFC801DF91CF911F910F91FF9014
:102C5000EF90DF90CF900895CF92DF92EF92FF92A6
:102C60000F931F93CF93DF93EC016C0124E0C20E0E
:102C7000D11CFC01E057FF4F0190F081E02DC6010F
:102C800009958E3FEFEF9E07D8F48E010C561F4F2B
:102C9000F801408151817E01F2E9EF0EF11CF7014C
:102CA000608171819C01C6010E949010C059DF4F64
:102CB00028812130C1F078F02230B9F02330E9F0DA
:102CC00081E090E0DF91CF911F910F91FF90EF9005
:102CD000DF90CF900895F70120813181820F931FFB
:102CE00091838083EDCFF801F7CFF7012081318107
:102CF000281B390B31832083E3CFF801F7CF90E015
:102D000080E00895BC01990F880B990B0E94133540
:102D10000C94CF148091C7059091C8050E9482162B
:102D200080914206909143060E9488068091470652
:102D300080936A05E0919E04F0919F0430E020E0CA
:102D4000409148066DE08AE994E00994CF92DF92C1
:102D5000EF92FF9280910D0490910E04019749F536
:102D600080910F049091100420911104E22FF0E063
:102D7000E150F04CEE0FFF1FEE0FFF1FE80FF91FA1
:102D80004081518162817381452B462B472B89F00D
:102D9000FC0130E060E070E0CB012317E1F0C1906E
:102DA000D190E190F1906C0D7D1D8E1D9F1D3F5FB8
:102DB000F4CFC0900504D0900604E0900704F09092
:102DC0000804C701B6010E945237CB01FF90EF9073
:102DD000DF90CF900895611571058105910549F344
:102DE00030E050E040E00E94AF36A091DD03B091AA
:102DF000DE030E9470360E9411359B01AC0160EC2D
:102E000071EE84E69CE40E94E0366B017C0120E0D8
:102E100030E040E85FE30E940C3587FD11C020E000
:102E200030E048EC53E4C701B6010E948837181619
:102E300044F6C12CD12C88ECE82E83E4F82EC1CFC7
:102E4000C12CD12C90E8E92E9FE3F92EBACFCF9375
:102E5000DF93C3E3D5E060E088810E949705198283
:102E6000279685E0CD35D807B1F7DF91CF9108954A
:102E7000FC01493151052CF41616170674F06FEF5A
:102E80007FEF90819B01290F311D37FD0CC0241766
:102E9000350734F041504083089561E070E0F1CF90
:102EA000492F460FF8CF40E0F6CF0F931F93CF93F3
:102EB00047E050E0BC018DE396E00E943817109285
:102EC0003B0602EC15E0C1E0F801C0830E94590600
:102ED000F8016183728383839483C0934906CF9101
:102EE0001F910F910895809192050E946E05892B84
:102EF000F9F480913D0681110CC0E7ECF5E091E01A
:102F0000868589278687739686E0E933F807C1F7B7
:102F100008958150990B23E1289FF001299FF00D1E
:102F20001124E753FA4F848591E089278487089517
:102F30008091D1039091D203892B41F40E946506C0
:102F40000E94271781E08093490608950E940D058D
:102F5000F7CF8F929F92AF92BF92CF92DF92EF9274
:102F6000FF920F931F938091420690914306009722
:102F700011F0059791F40E9427170E94C70481E081
:102F8000809349061F910F91FF90EF90DF90CF90B3
:102F9000BF90AF909F908F90089580910D04909175
:102FA0000E04019761F7F8948091D1039091D203B8
:102FB0008130910521F0029799F07894E0CF82E07A
:102FC00090E09093D2038093D1030E940106609316
:102FD000F1037093F2038093F3039093F403EDCF26
:102FE0000E940106AB01BC018091F1039091F203B4
:102FF000A091F303B091F403481759076A077B07C0
:1030000008F46FC08A019B01081B190B2A0B3B0BAC
:10301000D901C8018093FD039093FE03A093FF03A1
:10302000B09300044093F1035093F2036093F303D1
:103030007093F4034091F5035091F6036091F70308
:103040007091F8034F5F5F4F6F4F7F4F4093F503D1
:103050005093F6036093F7037093F80320911204E2
:10306000309113042F5F3F4F3093130420931204C9
:10307000409111044217130609F020F41092130432
:10308000109212042091120430911304220F331F66
:10309000220F331FE0910F04F0911004E20FF31F91
:1030A00080839183A283B3838091F5039091F6038B
:1030B000A091F703B091F8032091FD033091FE0336
:1030C0004091FF03509100040197A105B10591F4CF
:1030D0002093F9033093FA034093FB035093FC03CE
:1030E0006CCF80959095A095B095840F951FA61FE5
:1030F000B71F90CF8090F9039090FA03A090FB0344
:10310000B090FC03A4E2B0E00E9465366B017C0144
:10311000ACEDB0E0A50194010E946536C60ED71E45
:10312000E81EF91ECD2CDE2CEF2CFF24C092F903F3
:10313000D092FA03E092FB03F092FC033ECF24E02E
:1031400030E044E050E064E070E088E390E00C940C
:10315000CA0D8F929F92AF92BF92CF92DF92EF9261
:10316000FF920F931F93CF93DF935C017B018AEF54
:1031700092E00E94FD0EC0913B06670121E0C21A59
:10318000D108CC151D0409F0B3C0C33008F0C2E06B
:103190003EE0C39FE00111244E0182E0880E911CA5
:1031A00080914606882309F4ABC02FE030E04FE35E
:1031B00050E0B40181E490E00E94CA0D81E00E94D9
:1031C0003A0530E020E043E050E070E060E090E05D
:1031D00080E00E942C0D23E030E050E040E070E001
:1031E00060E090E080E00E942C0D30E020E04DE3B4
:1031F00050E070E060E080E490E00E942C0D23E05D
:1032000030E040E450E070E060E080E490E00E9454
:103210002C0D2EE230E040E450E061E370E080E409
:1032200090E00E942C0D21E330E04DE350E061E39B
:1032300070E080E490E00E942C0D21E330E043E058
:1032400050E061E370E090E080E00E942C0D2EE2FF
:1032500030E050E040E061E370E090E080E00E9408
:103260002C0D82E00E943A0520913B06822F90E0CF
:10327000C816D90609F081C0F3E0EF1AF10826E07C
:103280002E9DC0012F9D900D1124A80EB91ECDE0DA
:10329000D0E00BE414E08CE7C82ED12CF501E080DF
:1032A000F18010939D0400939C04C7010E9420109C
:1032B00010939D0400939C04A701BE019601281B56
:1032C000390BC9010E94C01136E0A30EB11C2E9625
:1032D000C733D10519F7DF91CF911F910F91FF905F
:1032E000EF90DF90CF90BF90AF909F908F90089518
:1032F000C11103C0D0E0C0E04FCFCEE0D0E04CCF52
:103300008E010F5E1F4F20E830E0A40161E470E001
:103310008AE994E00E945B0B882309F4A5CF00E0C2
:103320002FE330E0A40161E470E08AE994E00E94B8
:10333000590C4E01E3E08E0E911C01E02DE030E0CF
:10334000A40161E470E08AE994E00E94590C2DE048
:1033500030E0A4016FE770E08AE994E00E94590C24
:10336000AE01405F5F4F00E02FE330E061E470E0CA
:103370008AE994E00E94590C77CFF12CE12C2223AA
:1033800009F47DCF7C0121E0E21AF10878CFEF92B9
:10339000FF920F931F93CF93DF93EC017B01CA0140
:1033A0000E94FD0E0BE414E010939D0400939C0416
:1033B000CE010E94201010939D0400939C0497FD61
:1033C000019695958795919581959109AE01B701E3
:1033D0008096DF91CF911F910F91FF90EF900C9409
:1033E000C0118F929F92AF92BF92CF92DF92EF92D5
:1033F000FF92CF93DF93EC01ED81F0E0EE0FFF1F22
:10340000EC58FF4FC590D490F12CE12C8F8134E61D
:10341000832E912CA12CB12CA5019401281B3109DC
:1034200041095109C701B6010E948D3721E030E002
:10343000683C71058105910524F0A50194010E9465
:1034400046363E872D87888594E6892E912CA12CBF
:10345000B12CA5019401281B310941095109C7016B
:10346000B6010E948D37A50194010E944636388B23
:103470002F878985833308F18253990B092E000C1D
:10348000AA0BBB0BA5019401281B390B4A0B5B0B44
:10349000C701B6010E948D37A50194010E944636EE
:1034A0003A8B298BDF91CF91FF90EF90DF90CF90F7
:1034B000BF90AF909F908F9008951A8A198AF2CF8B
:1034C000AF92BF92DF92EF92FF920F931F93CF9331
:1034D000DF938C01EC0188E790E089939993580180
:1034E00084E7A80EB11C80E1D82E94E6E92E22E3F1
:1034F000F22ED882E982FA821B82FC82DD82EE8281
:10350000FF821886F9861A861B86CE010E94F11961
:103510006396CA15DB0569F71882F801EB58FF4F6F
:103520001082319610823196108231961082319637
:10353000108231961082319611821082329683E089
:1035400090E091838083329610823196108231967A
:103550001082319681E08083DF91CF911F910F918E
:10356000FF90EF90DF90BF90AF9008952F923F9221
:103570004F925F927F928F929F92AF92BF92CF9223
:10358000DF92EF92FF920F931F93CF93DF93EC01A3
:10359000762E590147018A85312C212C861324C0AF
:1035A000052E000C660B770B9A01AB013E5F4F4F67
:1035B0005F4FB701FF0C880B990B6801012E000CBF
:1035C000EE08FF086C197D098E099F090E948D374E
:1035D00020E034E040E050E00E94463619012A0124
:1035E0002C0C3D1C4E1C5F1C8B8530E020E08711AD
:1035F00021C06801110FEE08FF089501BB0C440BB8
:10360000550B3E5F4F4F5F4F092C000CAA08BB08BB
:10361000C501B4016C197D098E099F090E948D377F
:1036200020E034E040E050E00E9446362C0D3D1D85
:103630004E1D5F1DC101820F931FDF91CF911F911E
:103640000F91FF90EF90DF90CF90BF90AF909F9041
:103650008F907F905F904F903F902F900895FC0146
:103660008285811106C081E09385911103C080E0BD
:10367000089581E008950F931F93CF938C01C0E0CC
:1036800077FD06C06436710514F063E670E0C62F5E
:10369000F801C383C8010E942F1B811108C0F801E3
:1036A000C087C801CF911F910F910C94F119CF9150
:1036B0001F910F9108950F931F93CF938C01C1E039
:1036C0001616170634F46436710514F063E670E0DC
:1036D000C62FF801C283C8010E942F1B811108C0A8
:1036E000F801C783C801CF911F910F910C94F11974
:1036F000CF911F910F9108950F931F93CF938C013A
:10370000C0E077FD06C06536710514F064E670E030
:10371000C62FF801C183C8010E942F1B811108C068
:10372000F801C683C801CF911F910F910C94F11934
:10373000CF911F910F9108950F931F93CF938C01F9
:10374000C0E077FD06C06931710514F068E170E0F2
:10375000C62FF801C083C8010E942F1B811108C029
:10376000F801C583C801CF911F910F910C94F119F5
:10377000CF911F910F910895CF93DF93EC0160E0FB
:103780008D810E9497051E82DF91CF910895CF927F
:10379000DF92EF92FF920F931F93CF93DF931F92CD
:1037A000CDB7DEB78C01809192050E946E05892B02
:1037B00069F4C8010E9455170F90DF91CF911F91B6
:1037C0000F91FF90EF90DF90CF90089580913D068C
:1037D0009091460691110CC04BE050E0882311F007
:1037E00047E050E0B8018BE396E00E94381728C00C
:1037F000E0913B06811174C0EB3010F5F0E0ED5F15
:10380000F34E0C94B1370E1C3C1C241C301C4F1C76
:10381000671C671C6D1C6D1C671C671C80910D0468
:1038200090910E04019761F00E94A616800F911FDF
:103830000E9482160E94A6169093C8058093C70521
:1038400081E080934906B8CF43E050E0B8018CE3B3
:1038500096E00E94381780913C0680934006F0CF96
:1038600043E050E0B8018CE396E00E943817809165
:103870003C0680934106E4CF80914206898346E06E
:1038800050E0B801CE0101960E943817898190E07E
:1038900090934306809342060E948806D1CF809180
:1038A0004406898344E050E0B801CE0101960E94AD
:1038B0003817898190E09093450680934406892BC0
:1038C00009F0BECF88E595E00E94BC1BB9CF42E06D
:1038D00050E0B8018CE396E088CF4BE050E0F9CFA0
:1038E0008150990B43E1489F9001499F300D11246D
:1038F000A90147535A4F7A01E73008F0A1CFF0E011
:10390000EC57F34E0C94B1378B1C9B1CAB1CBB1CAF
:10391000CB1CF71C051D23E1289FF001299FF00D0A
:103920001124E953FA4F6281600F712F711DCA0192
:103930000E949C1B85CF23E1289FF001299FF00D59
:103940001124E953FA4F6381600F712F711DCA0171
:103950000E947C1B75CF23E1289FF001299FF00D69
:103960001124E953FA4F6481600F712F711DCA0150
:103970000E945B1B65CF23E1289FF001299FF00D7A
:103980001124E953FA4F6581600F712F711DCA012F
:103990000E943B1B55CF23E1289FF001299FF00D8A
:1039A0001124E953FA4F6681060F111D02331105E8
:1039B000E4F00036110514F00FE510E043E1489FF4
:1039C0009001499F300D1124C90189539A4F6C0110
:1039D000FC010683C7010E942F1B811131CFF60124
:1039E0000387C7010E94F1192BCF02E3E7CFFA0149
:1039F0008285898346E050E0B801CE0101960E949D
:103A000038178981F70182871BCFFA018385898363
:103A100046E050E0B801CE0101960E943817898136
:103A2000F70183870DCF6AEF82E393E00C948E0851
:103A30008C3F28F48A3F88F4883F21F008958C3F1A
:103A400041F00895E091C302F091C402309749F02B
:103A500009940E940D050C9419150E9465060C949A
:103A6000131D08958F929F92AF92BF920F931F9351
:103A7000CF93DF93CDB7DEB7A1970FB6F894DEBF33
:103A80000FBECDBF19A2423008F44AE08E010F5D8F
:103A90001F4F842E912CB12CA12CA50194010E94C2
:103AA000AF36E62FB901CA01EA3044F5E05DD8012E
:103AB000EE938D01232B242B252B79F790E080E0CA
:103AC000109769F0FD0101900020E9F73197AF01EF
:103AD0004A1B5B0BBD0186E994E00E940416A19687
:103AE0000FB6F894DEBF0FBECDBFDF91CF911F910F
:103AF0000F91BF90AF909F908F900895E95CD7CFC2
:103B0000DF92EF92FF920F931F93CF93DF93209159
:103B1000C7053091C8053093FB022093FA029091BB
:103B20003B069093FC0290913D069093FD0290918C
:103B300042069093FE02909144069093FF0290916A
:103B40004006909300039091410690930103E7ECA7
:103B5000F5E0AAEFB2E0928118969C9318979381B2
:103B600019969C93199794811A969C931A9795810C
:103B70001B969C931B9794851C969C931C979585EC
:103B80001D969C931D977396169696E0E933F90758
:103B900011F70AEF12E0C2E2D0E0CA5FD240ECE2D5
:103BA0008E9FC00DD11D1124F801D1908F017E018F
:103BB000EE0EFF1EC7010E943036D81621F06D2D83
:103BC000C7010E943836F3E006321F0769F7DF911C
:103BD000CF911F910F91FF90EF90DF900895EF929A
:103BE000FF920F931F93CF93DF937C018C01D0E062
:103BF000C0E0CE010E943036F80181938F012196FA
:103C0000C332D105B1F7C701DF91CF911F910F9159
:103C1000FF90EF900895DF92EF92FF920F931F9322
:103C2000CF93DF93CDB7DEB7C65AD1090FB6F8945C
:103C3000DEBF0FBECDBFF894CE0101960E94601A80
:103C400089819A819093C8058093C705E6968FADC8
:103C5000E69780933B06E8968FADE89780933D0604
:103C6000EE968EAD9FADEE979093430680934206FD
:103C7000C258DF4F88819981CE57D0409093450636
:103C800080934406EB968FADEB9780934006EC96BD
:103C90008FADEC978093410609EC15E080E1D82EBA
:103CA00094E6E92E22E3F22EF801D082E182F2823C
:103CB0001382F482D582E682F7821086F18612861C
:103CC0001386C8010E94F1190D5E1F4FF6E00B33F9
:103CD0001F0751F7CE018C579F4F0E94EF1DCC5507
:103CE000DF4F8881C45AD04080933F06CB55DF4FC9
:103CF0008881C55AD04080934706CA55DF4F8881D6
:103D0000C65AD040809348061092C2057894CA558E
:103D1000DF4F0FB6F894DEBF0FBECDBFDF91CF915E
:103D20001F910F91FF90EF90DF900895EF92FF9217
:103D30000F931F93CF93DF93CEECD2E07E0103E28B
:103D400010E00E5C12409CE2899F000D111D1124B1
:103D5000C8018E0D9F1D0E943036F70181937F01AF
:103D6000FAEFEF16F2E0FF0699F78091CE029091FC
:103D7000CF029093C8058093C7058091D0028093AD
:103D80003B068091D10280933D068091D20290E063
:103D900090934306809342068091D30290E09093E3
:103DA0004506809344068091D4028093400680911A
:103DB000D5028093410609EC15E0688570E0C801E2
:103DC0000E949C1B698570E0C8010E947C1B6A856B
:103DD00070E0C8010E945B1B6B8570E0C8010E9407
:103DE0003B1B8C85F80182878D85838726960D5E27
:103DF0001F4FF2E0C23FDF0701F7DF91CF911F9124
:103E00000F91FF90EF900895DF92EF92FF920F9342
:103E10001F93CF93DF93CDB7DEB7A3970FB6F89478
:103E2000DEBF0FBECDBF6FE871E0CE0101960E94EC
:103E3000C63963E871E0CE0141960E94C63980918F
:103E40003F0689A3809147068AA3809148068BA3E9
:103E5000CE0101967C0110E000E0F701D1907F01D6
:103E6000C8010E943036D81621F06D2DC8010E947D
:103E700038360F5F1F4F0332110579F7A3960FB63F
:103E8000F894DEBF0FBECDBFDF91CF911F910F9190
:103E9000FF90EF90DF900895CF93DF93F894D0E0F8
:103EA000C0E060E0CE010E9438362196C11584E062
:103EB000D807B9F70E94041F0E940B1EC0E0C093F0
:103EC0003F068C2F0E94801DCF5FCA30C1F78091C2
:103ED0003F068B3018F48AE00E94801D7894DF91B1
:103EE000CF9108950F931F93CF93DF938C01EB0134
:103EF000FC01808191810097E1F0688179816115F1
:103F00007105A9F0428153812C813D8142175307ED
:103F100070F00E94C6398C819D81F801958384835D
:103F20001D821C82DF91CF911F910F9108950E94F5
:103F3000673888819981F801918380838A819B8188
:103F4000938382838C819D819583848319821882D7
:103F50001B821A82E5CFCF93DF93EC018881998190
:103F6000009711F00E946738198218821D821C8206
:103F70001B821A82DF91CF910895FC01808191818B
:103F8000009711F00C94673808950F931F93CF9307
:103F9000DF93EC0188819981009759F02A813B8158
:103FA0002617370730F081E0DF91CF911F910F91F5
:103FB00008958B016F5F7F4F0E94F038009759F092
:103FC000998388831B830A832C813D81232B59F796
:103FD000FC011082E8CF80E0E7CFEF92FF920F93D1
:103FE0001F93CF93DF93EC017B01CB010E94CE3472
:103FF0000097A9F00C811D81080F191FB801CE018F
:104000000E94C51F882399F0288139818C819D8168
:10401000B701820F931F0E94C7341D830C83CE010A
:10402000DF91CF911F910F91FF90EF900895CE01F6
:104030000E94AB1FF4CFEF92FF920F931F93CF9389
:10404000DF936115710541F480E0DF91CF911F91FD
:104050000F91FF90EF90089541155105B1F07B014C
:10406000EC010C811D81040F151FB8010E94C51FB2
:10407000882351F3288139818C819D81B701820F7A
:10408000931F0E94C6391D830C8381E0DECFEF921F
:10409000FF920F931F93CF93DF93EC018B01CB0122
:1040A0000E94CE347C01BC01CE010E94C51F81114B
:1040B0000BC0CE010E94AB1FCE01DF91CF911F91AB
:1040C0000F91FF90EF900895FD82EC82B8018881F6
:1040D00099810E94C734F0CFFC01118210821382B3
:1040E0001282158214820C944720EF92FF920F9354
:1040F0001F93CF93DF93EC017B018A01BA010E94E9
:10410000C51F81110BC0CE010E94AB1FCE01DF91F4
:10411000CF911F910F91FF90EF9008951D830C8315
:10412000B701888199810E94C639F0CFEF92FF9242
:104130000F931F93CF93DF93CDB7DEB762970FB680
:10414000F894DEBF0FBECDBF8C01CB01F801118208
:10415000108213821282158214824AE09E012F5F20
:104160003F4F7901B9010E94D734F7010190002037
:10417000E9F73197AF014E195F09B701C8010E94F5
:10418000752062960FB6F894DEBF0FBECDBFDF91EB
:10419000CF911F910F91FF90EF900895CF93DF93F0
:1041A000EC01FB018617970749F060817181611569
:1041B000710541F0448155810E947520CE01DF9147
:1041C000CF9108950E94AB1FF9CFFC01118210829C
:1041D00013821282158214820C94CE20FC0111826B
:1041E00010821382128215821482FB01019000203A
:1041F000E9F73197AF01461B570B0C94752085EDFD
:104200008093BC008091500290915102A091520283
:10421000B09153020796A11DB11D23E0B695A79555
:10422000979587952A95D1F72091BC0024FD03C06E
:1042300010929D0208954091500250915102609158
:10424000520270915302452B462B472B69F300977E
:10425000A105B10541F02AE22A95F1F700C00197C6
:10426000A109B109E1CF80914F020C947207FC01C2
:10427000A081B18150962C9182AD38E0839FC0011E
:104280001124289FA001299F500D112470E060E0A7
:1042900080AD91AD0C94B6391F93CF93DF93EC01B1
:1042A0000E941C121BAD8AAD180FE881F98181892B
:1042B000181768F0EC81FD8130E020E040E060E11B
:1042C000CE01099580E0DF91CF911F910895FE0105
:1042D000E557FF4F8081882319F0CE010E943721D6
:1042E000612FCE010E94091281E0EDCFCF93DF93C1
:1042F000EC01FC01E557FF4F8081882319F0CE01C6
:104300000E94372160E0CE01DF91CF910C94091219
:104310000F931F93CF93DF9300D000D000D0CDB781
:10432000DEB78AE994E00E9476210BE414E068E6A7
:1043300070E0CE0101960E946C208AEF92E00E940C
:10434000FD0E10939D0400939C048FE891E00E9461
:10435000201010939D0400939C0497FD0196959561
:1043600087954FE851E064E170E040960E94C011EB
:1043700010939D0400939C0483E891E00E94201018
:1043800010939D0400939C0497FD01969595879545
:1043900043E851E060E270E040960E94C0118981DC
:1043A0009A8110939D0400939C040E9420104981DF
:1043B0005A8110939D0400939C0497FD0196959556
:1043C00087956CE270E04A960E94C011CE0101967A
:1043D0000E94BD1F8AE994E00E944C218111A7CF61
:1043E00026960FB6F894DEBF0FBECDBFDF91CF91FA
:1043F0001F910F910895CF9380914606882309F469
:1044000075C080913D06811162C080913B06853068
:1044100009F076C081E090913C06913009F080E08F
:104420008093470680936A0580913B06873069F444
:1044300080913C068A3048F480933F06F89480913E
:104440003F068B3008F472C0789480913B06883028
:1044500021F5C0913C06CA3060F5C0933F06F89440
:104460008C2F0E94961EC0933F0681E08093C20568
:1044700078940E94A6162091C7053091C80582172E
:10448000930719F0C9010E9482168091D10390917F
:10449000D203892B11F40E948A1680913B06893041
:1044A00041F480913C06811104C00E940B1E0E94C1
:1044B0008A1680913B068A3051F480913C06811126
:1044C00006C00E9488210E944C1F0E948A1681E02B
:1044D0008093C2050E9459066093C3057093C4057A
:1044E0008093C5059093C60510923C0680914606C0
:1044F00091E089278093460690934906CF910895CD
:10450000863009F091CF41E080913C06813009F07E
:1045100040E040934806E0919E04F0919F0430E013
:1045200020E06DE08AE994E009957ECF0E94801D2D
:104530000E94041F1092C20587CF2F923F924F9284
:104540005F926F927F928F929F92AF92BF92CF9223
:10455000DF92EF92FF920F931F93CF93DF9300D0E0
:1045600000D000D01F92CDB7DEB76B017C0129ECE3
:1045700035E03F832E830EE215E01982AE81BF81C4
:104580001C968C91882321F0C8010E94BC1B85C019
:10459000AE81BF811596EC911597F0E0EE0FFF1FED
:1045A000EC58FF4F4590549051968D909C90712CF3
:1045B000612C8114910451F0C701B601A30192014D
:1045C0000E94AF3620FD02C0912C812CB12CA12C71
:1045D000F801868181113FC0AE81BF811F968D9108
:1045E0009C91A7019601280F391F411D511DCA0139
:1045F000B901680D791D8A1D9B1DA30192010E94BE
:10460000AF36672B682B692B31F5AE81BF811696CB
:104610008C91282F30E050E040E02A833B834C838C
:104620005D830E946F3424E630E040E050E00E9459
:1046300046362A813B814C815D8126173707480722
:1046400059074CF061E0D80115968C910E949705AE
:1046500081E0F8018683AE81BF811D962D913C914A
:104660001E971F968D919C91B0E0A0E0820F931F42
:10467000A11DB11DBC01CD016C0D7D1D8E1D9F1DA9
:10468000680D791D8A1D9B1DA30192010E94AF3602
:10469000672B682B692B09F477CF8E819F810E944D
:1046A0002F1B81118983EE81FF817396FF83EE8337
:1046B000095F1F4F2BE336E02E173F0709F05ECF4F
:1046C00080914406909145060097C1F18230910592
:1046D00051F08330910509F454C0019739F440E159
:1046E000242E312C03C053E1252E312CF101EE0F85
:1046F000FF1FEC58FF4F85909490412C512C3201B4
:10470000439434E08316910428F02401569447948E
:10471000712C612CB12CA12CC701B601A50194010B
:104720000E94AF36672B682B692B79F561E0809189
:104730005D050E94970581E080935E0580914606A5
:10474000811106C0809149063980382A3092490685
:1047500027960FB6F894DEBF0FBECDBFDF91CF9185
:104760001F910F91FF90EF90DF90CF90BF90AF908F
:104770009F908F907F906F905F904F903F902F9081
:10478000089538E1232E312CB1CFC301B2016C0D55
:104790007D1D8E1D9F1DA50194010E94AF36672BC4
:1047A000682B692B59F688E595E00E94BC1BC6CFA3
:1047B0001F920F920FB60F9211242F933F938F9356
:1047C0009F93AF93BF938091C6029091C702A0912F
:1047D000C802B091C9023091C50223E0230F2D37E2
:1047E00058F50196A11DB11D2093C5028093C60204
:1047F0009093C702A093C802B093C9028091CA02E5
:104800009091CB02A091CC02B091CD020196A11D56
:10481000B11D8093CA029093CB02A093CC02B093B7
:10482000CD02BF91AF919F918F913F912F910F90AA
:104830000FBE0F901F90189526E8230F0296A11D1A
:10484000B11DD2CF1F920F920FB60F9211242F934A
:104850003F934F935F936F937F938F939F93AF9308
:10486000BF93EF93FF93E0910201F091030109954B
:10487000FF91EF91BF91AF919F918F917F916F9138
:104880005F914F913F912F910F900FBE0F901F900E
:1048900018951F920F920FB60F9211242F933F93EA
:1048A0004F935F936F937F938F939F93AF93BF9338
:1048B000EF93FF93E0910001F09101010995FF91C1
:1048C000EF91BF91AF919F918F917F916F915F9188
:1048D0004F913F912F910F900FBE0F901F90189501
:1048E0001F920F920FB60F9211242F933F934F9365
:1048F0005F936F937F938F939F93AF93BF93EF9348
:10490000FF938091B900887F803609F44AC0F0F5A2
:10491000883209F4A7C018F5803109F49BC0B8F4B7
:10492000882309F4F9C0883009F494C0FF91EF910D
:10493000BF91AF919F918F917F916F915F914F91B7
:104940003F912F910F900FBE0F901F9018958831B7
:1049500009F488C0803251F780939C0214C08034DF
:1049600009F49DC040F48033B9F38833F9F680939D
:104970009C0285ECB0C0803509F485C0883509F407
:1049800096C0883499F60E94FF20D0CF883909F468
:104990008CC038F5883729F050F4883611F080370C
:1049A00029F683E080939D0210929B0257C08838BD
:1049B00009F47BC0803919F0803809F0B7CF8091B5
:1049C0009B02803208F071C0E0919B0281E08E0F63
:1049D00080939B028091BB00F0E0E558FD4F8083FF
:1049E0003DC0803B39F0E0F4803A09F479C0883A60
:1049F00009F09CCF84E080939D021092780210927F
:104A00007702E0917502F091760209958091770224
:104A100081110FC081E0809377021092550209C086
:104A2000803C09F4A6CF883C09F4A3CF883B09F069
:104A30007DCFE091780281E08E0F80937802F0E0E4
:104A4000EB5AFD4F80818093BB009091780280915A
:104A5000770229C08091C2028093BB0085EC8093CD
:104A6000BC0064CF9091C1028091C002981758F5A4
:104A7000E091C10281E08E0F8093C102F0E0E05628
:104A8000FD4F8081E9CFE091C10281E08E0F8093DC
:104A9000C1028091BB00F0E0E056FD4F8083909111
:104AA000C1028091C0029817C8F285E8D8CFE09182
:104AB000C10281E08E0F8093C1028091BB00F0E0C3
:104AC000E056FD4F808380919F0281115CCF81E091
:104AD00080939E0284EA8093BC0010929D0226CFB0
:104AE00085EC8093BC0010929D0280919B028032E5
:104AF00030F4E0919B02F0E0E558FD4F10826091A8
:104B00009B0270E0E0917902F0917A028BE792E0EB
:104B1000099510929B020ACF10929C0234CF1F92EB
:104B20000F920FB60F9211242F933F934F935F93E1
:104B30006F937F938F939F93AF93BF93EF93FF9365
:104B400082E393E00E946C08FF91EF91BF91AF91D7
:104B50009F918F917F916F915F914F913F912F9195
:104B60000F900FBE0F901F9018951F920F920FB6C7
:104B70000F9211242F933F934F935F936F937F93E3
:104B80008F939F93AF93BF93EF93FF93CF93DF9355
:104B90001F92CDB7DEB781E08983E091CF03F0911A
:104BA000D003309761F0A0914203B09143036C9120
:104BB000A0914803B09149038C910995898389811B
:104BC0008823E1F0E0914203F09143038081E0917A
:104BD0004803F091490382FD25C0908180914B03E9
:104BE0008F5F8F7320914C03821741F0E0914B034C
:104BF000F0E0EE5CFC4F958F80934B030F90DF91BC
:104C0000CF91FF91EF91BF91AF919F918F917F9144
:104C10006F915F914F913F912F910F900FBE0F9029
:104C20001F9018958081EACF1F920F920FB60F92B6
:104C300011248F929F92AF92BF92CF92DF92EF9208
:104C4000FF920F931F932F933F934F935F936F9315
:104C50007F938F939F93AF93BF93EF93FF930E94A4
:104C600059066093040270930502809306029093A4
:104C700007028091D1039091D203029709F072C18B
:104C8000C090E803D090E9038091E7038C151D04E0
:104C900011F41092E7038091E703811106C180911E
:104CA0000D0490910E04019709F0ECC04091E303CC
:104CB0005091E4036091E5037091E6038091F50360
:104CC0009091F603A091F703B091F80348175907A4
:104CD0006A077B0780F08091F5039091F603A0911D
:104CE000F703B091F8030196A11DB11D8417950734
:104CF000A607B70720F52091F5033091F603409100
:104D0000F7035091F8032093E3033093E4034093B7
:104D1000E5035093E603F12CE12CC701B6010E9494
:104D20008D376093DF037093E0038093E1039093EA
:104D3000E203A70196010E94AF366093E703C0909B
:104D4000F903D090FA03E090FB03F090FC030E947B
:104D500001060091F1031091F2032091F3033091C9
:104D6000F403601771078207930708F416C1601BEC
:104D7000710B820B930B6093010470930204809378
:104D80000304909304040091F5031091F60320911D
:104D9000F7033091F8038090E3039090E403A09030
:104DA000E503B090E603081519052A053B0508F44C
:104DB000FDC044E0660F771F881F991F4A95D1F701
:104DC000672F782F892F9927C61AD70AE80AF90A78
:104DD000A091DD03B091DE03A70196010E94703619
:104DE0000E9411359B01AC0160EC71EE84E69CE4FD
:104DF0000E94E0366B017C0120E030E040E85FE398
:104E00000E940C3587FDF0C020E030E048EC53E410
:104E1000C701B6010E948837181634F4C12CD12C72
:104E200098ECE92E93E4F92EA70196016091050410
:104E30007091060480910704909108040E940C353B
:104E4000882301F1C0920504D0920604E092070481
:104E5000F09208046091DB037091DC0390E080E045
:104E60000E9411359B01AC0160EC71EE84E69CE47C
:104E70000E94E036A70196010E94E0360E94593751
:104E80000E9424148091E3039091E403A091E50330
:104E9000B091E6030196A11DB11D8093E3039093A9
:104EA000E403A093E503B093E6038091E7038F5FEB
:104EB0008093E703E091D503F091D603309781F119
:104EC0002091EA038091EB039091EC0328171906D7
:104ED00011F41092EA038091EA0381111CC06091E1
:104EE000ED037091EE038091EF039091F00309952B
:104EF0008091ED039091EE03A091EF03B091F00348
:104F00000196A11DB11D8093ED039093EE03A09334
:104F1000EF03B093F0038091EA038F5F8093EA037D
:104F2000E091D303F091D4033097E1F06091DF0377
:104F30007091E0038091E1039091E20309958091E3
:104F4000DF039091E003A091E103B091E2030196A9
:104F5000A11DB11D8093DF039093E003A093E103B3
:104F6000B093E203FF91EF91BF91AF919F918F9129
:104F70007F916F915F914F913F912F911F910F9171
:104F8000FF90EF90DF90CF90BF90AF909F908F9069
:104F90000F900FBE0F901F901895009510952095BB
:104FA0003095600F711F821F931FE5CE6C157D0534
:104FB0008E059F0508F00CCFA7019601261B370B25
:104FC000480B590BDA01C90124E0880F991FAA1F69
:104FD000BB1F2A95D1F7892F9A2FAB2FBB27C80E5D
:104FE000D91EEA1EFB1EF4CEC12CD12C80E8E82E7F
:104FF0008FE3F82E19CF1F920F920FB60F92112444
:105000000F931F932F933F934F935F936F937F93D0
:105010008F939F93AF93BF93CF93DF93EF93FF93C0
:10502000C0911404D0911504209709F45BC08C85BD
:105030000E946E05182F8E850E946E05880F991F9D
:10504000812B9A89891709F44DC0EA890B891C893B
:105050002D893E8994E0E902F0011124482F082EA1
:10506000000C550BE42BF52BE25FFE4F9081492F8E
:10507000990F550B660B770B400F511F621F731F63
:105080004B8B5C8B6D8B7E8B8A8B28893989223088
:10509000310531F123303105D1F12130310511F5E0
:1050A000833001F58B899C89AD89BE8932E0B59545
:1050B000A795979587953A95D1F78F8B988FA98F5C
:1050C000BA8F8F8D98A1A9A1BAA18BA39CA3ADA3E0
:1050D000BEA30E9459066F8F78A389A39AA302C02A
:1050E000882301F3FF91EF91DF91CF91BF91AF91B1
:1050F0009F918F917F916F915F914F913F912F91F0
:105100001F910F910F900FBE0F901F90189588233D
:1051100011F0833039F78B899C89AD89BE89B595AB
:10512000A79597958795C9CF1F920F920FB60F92AB
:1051300011242F933F934F935F936F937F938F939C
:105140009F93AF93BF93EF93FF930E94FB27FF9131
:10515000EF91BF91AF919F918F917F916F915F91EF
:105160004F913F912F910F900FBE0F901F90189568
:10517000CF93DF93109229031092280388EE93E0D7
:10518000A0E0B0E080932A0390932B03A0932C031C
:10519000B0932D032FE931E03093270320932603AA
:1051A00010923503109234038093360390933703A3
:1051B000A0933803B093390381EB91E090933303CC
:1051C0008093320385EC90E090933F0380933E03FD
:1051D00084EC90E0909341038093400380EC90E056
:1051E000909343038093420381EC90E090934503B6
:1051F0008093440382EC90E09093470380934603AE
:1052000086EC90E0909349038093480310924B03FF
:1052100010924C0310924D0310924E031092D00343
:105220001092CF0380E690E09093DC038093DB0341
:10523000C8E1D0E0D093DE03C093DD0310921004E8
:1052400010920F0480E090E0A0EFB2E48093050498
:1052500090930604A0930704B093080410920904E5
:1052600010920A0410920B0410920C041092FD0389
:105270001092FE031092FF0310920004109201049A
:105280001092020410920304109204041092D203AC
:105290001092D10310920E0410920D040E94C704C4
:1052A0001092D4031092D3031092D6031092D50318
:1052B0001092D8031092D7031092DA031092D903F8
:1052C0002091DB033091DC036091DD037091DE03FC
:1052D000C9010E949D377093E9036093E803C901F7
:1052E000BE010E949D377093EC036093EB03109214
:1052F0009904109298048BE494E09093270580938E
:105300002605109229051092280510922B0510925F
:105310002A051092B20483EC91E090939704809355
:10532000960410929B0410929A041092AF0410926B
:10533000A6041092A7041092A8041092A9048FEF5B
:105340008093B0048093B404E8EBF4E08EEC94E036
:10535000DFEFD1938E179F07E1F789E799E09093EC
:105360009F0480939E048EE69AE09093A10480931C
:10537000A00488E792E19093A3048093A20489EBB0
:1053800093E19093A5048093A40430E020E040E0F2
:1053900069E08AE994E00E9479091092F50410927C
:1053A000F40485E594E09093CF048093CE0486E1E5
:1053B00094E09093D3048093D204C1E0C093D404CA
:1053C0001092D504109203051092230510921F0528
:1053D000C0932405C09325058BEC91E09093D104F4
:1053E0008093D0048AE994E00E94090B1092ED04A6
:1053F0001092EC041092F1041092F0048FEF9FEFE2
:105400009093EF048093EE049093F3048093F2045E
:10541000E091D004F091D1040280F381E02D8AE97B
:1054200094E0099584EC94E09093F7048093F6045B
:105430001092060583E18093C30482E18093C40443
:10544000D093C50410922D0510922C0510926A0578
:1054500081E190E090936C0580936B0584E090E08F
:1054600090936E0580936D0581E090E090937005B8
:1054700080936F0562E081E10E94C50562E084E0EF
:105480000E94C50580916B050E946E05D82F809102
:105490006D050E946E05880F991F8D2B80937105F5
:1054A0001092720510927305109274051092750592
:1054B0001092760510927705109278051092790572
:1054C00010927A0510927B0510927C0510927D0552
:1054D000C093870510928D0510928C056EE086E8CA
:1054E00095E00E9493158FE595E0909315048093C5
:1054F0001404C09393051092990510929805C093D7
:105500009F051092A5051092A4051092B005109267
:10551000AF052AEC3DEF3093B2052093B10580E052
:1055200092E09093B4058093B3051092B505109264
:10553000BC051092BB053093BE052093BD0590932A
:10554000C0058093BF051092C10587EC95E00E94CD
:10555000601A1092C2051092C3051092C4051092F1
:10556000C5051092C605DF91CF910895CF93DF93C3
:10557000CDB7DEB7C956D1090FB6F894DEBF0FBE5E
:10558000CDBF789484B5826084BD84B5816084BDCC
:1055900085B5826085BD85B5816085BD80916E00D1
:1055A000816080936E001092810080918100826002
:1055B000809381008091810081608093810080913F
:1055C00080008160809380008091B100846080932E
:1055D000B1008091B00081608093B00080917A002A
:1055E000846080937A0080917A00826080937A0050
:1055F00080917A00816080937A0080917A0080683F
:1056000080937A001092C100E0914203F09143032D
:1056100082E08083E0913E03F0913F031082E091AD
:105620004003F09141038FE3808310924A03E0919D
:105630004603F091470386E08083E0914403F091B4
:105640004503808180618083E0914403F0914503AC
:10565000808188608083E0914403F09145038081DC
:1056600080688083E0914403F091450380818F7DC1
:10567000808380910F0490911004892B59F481E06C
:105680008093110484E090E00E94CB379093100443
:1056900080930F04F8941092800010928100109271
:1056A00085001092840081EC92EA909389008093A7
:1056B00088008091810088608093810080918100C2
:1056C00082608093810080916F00826080936F0080
:1056D000789460910504709106048091070490917C
:1056E00008040E94CF1410920E0410920D04F89436
:1056F00080E690E09093DC038093DB036091DD0310
:105700007091DE030E949D377093E9036093E80374
:1057100084E090E09093EC038093EB03789460E056
:1057200070E080EF92E40E94CF1483E19DE19093BA
:10573000D8038093D70389E195E19093DA038093AE
:10574000D9038EE195E19093D6038093D5030E940F
:1057500065066CE082E995E00E94931565E08EE9AC
:1057600095E00E94931560E085E10E94C50585E102
:105770008093AA0560E084E10E94C50584E18093DE
:10578000B6058091680086608093680080916D0006
:10579000806180936D0080916C00886080936C00C4
:1057A00061E087E00E94C50587E08093330515E03E
:1057B0001093320561E088E00E94C50588E080937F
:1057C0003A051093390561E08AE00E94C5058AE038
:1057D000809341051093400561E086E00E94C50575
:1057E00086E0809348051093470561E089E00E94B8
:1057F000C50589E080934F0510934E0561E08BE06D
:105800000E94C5058BE0809356051093550561E015
:1058100083E00E94C50583E080935D0510935C05DD
:10582000E0919E04F0919F0430E020E040E06AE0C7
:105830008AE994E009958AE994E00E9476218AE950
:1058400094E00E944C218111FACF60E08AE994E053
:105850000E940912E0919E04F0919F0430E020E044
:1058600040E06BE08AE994E009950E94882160EDB0
:1058700077E080E090E00E942606F894CE01019641
:105880000E94EF1D6FE871E0CE0101960E94BD39C4
:105890008C0163E871E0CE0141960E94BD39012B75
:1058A00009F009C1892B09F006C1CE0101960E94B9
:1058B000EF1D89A180933F068AA1809347068BA1A3
:1058C000809348068AE00E94961E78940E948A1669
:1058D0008DE992E29093D4038093D30389EA97E110
:1058E0009093C4028093C3029093010180930001BE
:1058F00080916900836080936900E89A8BEF91E260
:105900009093600580935F0587EC9BE1909364051D
:105910008093630585E597E1909362058093610527
:1059200083E797E19093A7058093A605A7961FAEFE
:105930001EAEA79782E995E00E9423158EE995E0B7
:105940000E94231500917605109177052091780526
:1059500030917905809167059091680580179107CE
:1059600009F4B5C040917E0550917F056091800596
:1059700070918105C0908205D0908305E0908405E8
:10598000F09085054C195D096E097F09F801E81B47
:10599000F90BCF01F0936605E09365051093680558
:1059A00000936705403151056105710508F086C017
:1059B0009F01220F331F820F931F909366058093E0
:1059C000650580916A05882359F08091650590915D
:1059D000660591958195910990936605809365057B
:1059E0000091650510916605809186050E946E05FF
:1059F0007C0186E895E00E942315EF2809F06AC033
:105A0000012B09F46EC081E080936905E091610586
:105A1000F0916205309729F08091650590916605B7
:105A2000099580918C0590918D05029729F48091BC
:105A300069058111109269058AEA95E00E94A7150F
:105A400086EB95E00E94A7150EE215E0A7964EADF5
:105A50005FADA797463051050CF057C0F80186811D
:105A60008823E1F00E945906F801C080D180E280CD
:105A7000F380AB01BC014C195D096E097F0984817B
:105A800090E0B0E0A0E0481759076A077B0730F0C4
:105A900060E085810E949705F8011682A7964EADB9
:105AA0005FADA7974F5F5F4FA7965FAF4EAFA797CA
:105AB000095F1F4FCBCF0E944C1F07CF40325105CB
:105AC0006105710508F07DCF880F991F76CF10E032
:105AD00000E08ACF012B29F0E0916305F091640585
