:100000000C94F4020C943A240C9413240C941C03C6
:100010000C941C030C941C030C941C030C941C03E4
:100020000C941C030C94E6240C941C030C941C03E9
:100030000C941C030C941C030C941C030C941C03C4
:100040000C94C9230C941C030C9487240C946124F5
:100050000C941C030C941C030C941C030C941C03A4
:100060000C9458250C941C03444F4E4500464143C4
:10007000544F52592052455345540052455645520B
:10008000534520454E434F44455200524F5441542E
:10009000452053435245454E0043414C494252414D
:1000A000544520435620494E530053455454494E1D
:1000B0004753005245434F5244494E470050415424
:1000C0005445524E2042005041545445524E204116
:1000D000007200740077004200410078002F005049
:1000E00041545445524E00534B4950204348414ED1
:1000F0004345005355424449564953494F4E0043E6
:10010000563200435631004F46460078002F002FEC
:10011000005345510052414E4400434C4F434B0065
:100120004D4F443A0045444954205041545445529F
:100130004E005355424449563A004F4646534554A3
:100140003A004D4F44453A0042504D0042504D0058
:1001500042504D001500040404050201060F17016A
:100160000017000000013F0000021C25270F1FCBD5
:10017000D85223261A21460C8949C81421358428CF
:100180004D4611294364C40832620C8D305662DC3E
:1001900010002F0CBADEDE64A4E8B371E300301F58
:1001A0007CFF0A1A150F021DB3AB43684418116295
:1001B000420CA253C66C76E8410835480031147AE7
:1001C000DFD2305285CC9C193146C8B8F97F9422D1
:1001D00003321B7CFF8EA9242A081D33367286C485
:1001E000CC6063AA1CC191B37CF0C000331C7CFFBF
:1001F0008E29342A081D3336722039DA594972960D
:10020000C60E915083CA0C0034207CFF9690414367
:10021000C610194266C8A01184468C1A316AC428D7
:100220006376F680C5CAF900351A7D0FC70A2E8697
:10023000CE8B426A968C224A744ECD9D22B126D531
:100240001900361B7D0FCFA9342B869D333A2FCC56
:100250002C6141EA9CDD9D22B126D5190037137C23
:10026000FFC28A0729E743727438E5C091F30E0094
:1002700038207CFF8E29342A081DB3D9211244C8A6
:10028000A0328586080942C76C7688841A546600B5
:10029000391A7CFF8E29342A081DB3B3432496A84B
:1002A00049395F0C22A10695190041167D0F53B9FB
:1002B000536928193564D48871F6EEC177F6BB010D
:1002C00042247D0F839A254B4691183662D8886167
:1002D00023868D184562C926A3480C3B67CF1E8430
:1002E00060B10400441B7D0F4322354B460D193687
:1002F00062D88871F63F3B36621489256A1201453F
:10030000117CFFC20729E725228C46CE2F1F3C30E7
:100310004907736FC21F244D247D0F83C872E64EB8
:10032000A551B382450A294C943051C2C8102343C9
:100330008C0C3113C64C1873F6DD00540D7D0FC3C1
:1003400007A986CEFFFF0A0058297E1FC34083C736
:10035000480C1B42880C11524386A13368922849ED
:1003600083E6900D1945840C2122C346103B68E1B9
:10037000007814CADEC220434748A03145CA0C9217
:10038000290659340000000004FFFF00004D4944D5
:1003900049004558540034003234004F464600436B
:1003A000563200435631004D4944490045585400E7
:1003B000494E540052414E47453A005050514E3A32
:1003C000004D4F443A004D4F44453A00340002027C
:1003D0000303020304050500000500050000910069
:1003E0000001982004805C2509AD745452B952492B
:1003F0002806AADC54192907AA5C624A0A2B079B23
:10040000E5D24A002C059154042D058B66062E0575
:100410008954022F06A4EC631B3008ACEC543493CF
:10042000023107EBEC92AC063209AC6C364A2A8FEB
:10043000003309AC6C364A1A8D043408AC6CA21C2B
:10044000BA003509AC6C86DE6824003609ACEC5481
:100450005E3129003708AC6C468E75043809ACEC67
:10046000544C2A26053909ACEC544C3B29003A0679
:10047000995552004108ACEC541C53064209AC6C2F
:10048000561C298E044309ACEC54D431290044088D
:10049000AC6C563447024508AC6C861E7A0446089C
:1004A000AC6C865E39034709ACEC544E33290048E6
:1004B00008AC6CA21C53064906A95486004A08AC35
:1004C000EC6B9914004B09AC6CA24A3295014C07B5
:1004D000AC6C727B044D09AD74F25A49EB004E09C5
:1004E000AD74F25449EE004F08ACEC543493025012
:1004F00009AC6C561C2967005108ACEC54B4620A74
:100500005208AC6C561CA9195309ACEC46461A8D1E
:10051000045407AB64566C015508AC6CA233290037
:100520005609AD74B24E65CA11570AAD74B24A2A63
:10053000A92E005809AC6CA24C2ACA00590AAD7405
:1005400072AA33CA28025A07AB64662A077008AD3C
:10055000F456B6D3027107ADF48EAF057208AB64E2
:10056000A21A2A027406AD74FE237709ADF456A5CB
:10057000464E0B78069B64520700000004FFFF0004
:1005800000563A312E312E320000000000240027A0
:10059000002A0000000000250028002B00000000B9
:1005A00000230026002900040404040404040402B7
:1005B0000202020202030303030303010204081000
:1005C00020408001020408102001020408102000CD
:1005D0000000080002010000030407000000000002
:1005E0000000000077264E3111241FBECFEFD8E067
:1005F000DEBFCDBF12E0A0E0B1E0EEE3FAE602C05C
:1006000005900D92A83BB107D9F726E0A8EBB2E020
:1006100001C01D92AC3FB207E1F712E0C3EFD2E098
:1006200004C02197FE010E941333C23FD107C9F7CE
:100630000E94D1270C9412350C940000662329F0F7
:100640006A3019F0862F90E008958FEF9FEF08959C
:10065000AF92BF92CF92DF92EF92FF920F93CF9320
:10066000DF93EC01DA017901942F9770E1E0F0E07B
:100670009F01092E01C0220F0A94EAF7522F6E0142
:100680008AE8C80ED11CF601808140E0823018F45F
:10069000422F813049F15D01F8EFAF22E8ADF9ADAD
:1006A00028813981D90150968C918A9D90018B9D2A
:1006B000300D1124620F731FDF01A60FB71F011148
:1006C0001AC0EA0EFB1E8C91842B85278D93AE15E4
:1006D000BF05C9F7DF91CF910F91FF90EF90DF90A9
:1006E000CF90BF90AF90089550E0D5CF440F550FF5
:1006F000E114F10479F33C91342B35273C939F5F4F
:100700009770E1E0EE1AF1089111F0CF2CAD3DADFC
:10071000A20FB31FF6018081823028F4813009F0E6
:1007200051E041E0E5CF51E0E3CF80E0089590E073
:1007300080E00895CF93DF93C2E6D6E09BAF8AAF07
:10074000DC01ED91FC9186E696E00995EAADFBAD02
:100750000280F381E02D86E696E0DF91CF91099447
:10076000833018F48093F006089581E0FBCF9B015D
:10077000DC011896ED91FC9141E067E1099483302A
:1007800081F028F4813099F08230A9F00895873003
:10079000A9F08830C9F08430B1F4809180008F7D59
:1007A00003C0809180008F7780938000089584B586
:1007B0008F7784BD089584B58F7DFBCF8091B00085
:1007C0008F778093B00008958091B0008F7DF9CF2E
:1007D000CF93DF93282F30E0F901E153FA4F849152
:1007E000F901E554FA4FD491F901E955FA4FC49152
:1007F000CC23A1F081110E94BF03EC2FF0E0EE0F9B
:10080000FF1FE356FA4FA591B491EC91ED2381E0DF
:1008100090E009F480E0DF91CF91089580E090E0CE
:10082000FACF1F93CF93DF93282F30E0F901E153E4
:10083000FA4F8491F901E554FA4FD491F901E95541
:10084000FA4FC491CC23A9F0162F81110E94BF0347
:10085000EC2FF0E0EE0FFF1FED56FA4FA591B4918B
:100860008FB7F894EC91111108C0D095DE23DC937A
:100870008FBFDF91CF911F910895DE2BF8CFCF93DB
:10088000DF9390E0FC01E554FA4F249189559A4F8B
:10089000FC0184918823D1F090E0880F991FFC011E
:1008A000E757FA4FA591B491FC01ED56FA4FC59167
:1008B000D491623071F49FB7F8943C91822F809567
:1008C00083238C93E8812E2B28839FBFDF91CF91C8
:1008D00008958FB7F894EC912E2B2C938FBFF6CF01
:1008E0008E50806480937C0080917A008064809335
:1008F0007A0080917A0086FDFCCF809178009091FB
:10090000790008953FB7F8948091920490919304F0
:10091000A0919404B091950426B5A89B05C02F3FE3
:1009200019F00196A11DB11D3FBFBA2FA92F982F15
:100930008827BC01CD01620F711D811D911D42E010
:10094000660F771F881F991F4A95D1F708952FB713
:10095000F89460918E0470918F048091900490912E
:1009600091042FBF089508950895AF92BF92CF923A
:10097000DF92EF92FF920F931F93CF93DF936C015F
:100980007B018B01040F151FEB015E01AE18BF0840
:10099000C017D10759F06991D601ED91FC910190F2
:1009A000F081E02DC6010995892B79F7C501DF910A
:1009B000CF911F910F91FF90EF90DF90CF90BF905C
:1009C000AF900895FC01538D448D252F30E0842F86
:1009D00090E0821B930B541710F0CF960895019767
:1009E0000895FC01918D828D981761F0A28DAE0F54
:1009F000BF2FB11D5D968C91928D9F5F9F73928FDB
:100A000090E008958FEF9FEF0895FC01918D828D06
:100A1000981731F0828DE80FF11D858D90E00895D3
:100A20008FEF9FEF0895FC01918D228D892F90E02B
:100A3000805C9F4F821B91098F739927089586E9E7
:100A400094E00E94130521E0892B09F420E0822F15
:100A5000089580E090E0892B29F00E941F05811104
:100A60000C9400000895FC01A48DA80FB92FB11DAE
:100A7000A35ABF4F2C91848D90E001968F739927D4
:100A8000848FA689B7892C93A089B1898C918370B2
:100A900080648C93938D848D981306C00288F389AB
:100AA000E02D80818F7D80830895EF92FF920F93D8
:100AB0001F93CF93DF93EC0181E0888F9B8D8C8D0A
:100AC00098131AC0E889F989808185FF15C09FB7FE
:100AD000F894EE89FF896083E889F98980818370C1
:100AE000806480839FBF81E090E0DF91CF911F9170
:100AF0000F91FF90EF900895F62E0B8D10E00F5F91
:100B00001F4F0F731127E02E8C8D8E110CC00FB666
:100B100007FCFACFE889F989808185FFF5CFCE01FE
:100B20000E943305F1CFEB8DEC0FFD2FF11DE35A41
:100B3000FF4FF0829FB7F8940B8FEA89FB89808181
:100B40008062CFCFCF93DF93EC01888D8823B9F0FB
:100B5000AA89BB89E889F9898C9185FD03C08081C8
:100B600086FD0DC00FB607FCF7CF8C9185FFF2CF45
:100B7000808185FFEDCFCE010E943305E9CFDF9163
:100B8000CF910895DC011A96ED91FC9130E020E0C0
:100B90000994DC011696ED91FC9130E020E040E0F4
:100BA00069E10994DC011696ED91FC9130E020E0BA
:100BB00040E068E109949A01DC011696ED91FC9100
:100BC000462F67E10994EF92FF920F931F93CF9303
:100BD000DF931F92CDB7DEB77C018B01D8016C91FA
:100BE000673129F150F46531A0F40F90DF91CF9176
:100BF0001F910F91FF90EF9008956A3118F16E3FA9
:100C0000A1F7F8014181498369E2C7010E94C20549
:100C10000BC0F80141814983D7011696ED91FC91F3
:100C200030E020E0C70109950E5F1F4FD7CFF801D4
:100C300081818983AE014F5F5F4F61E0C7010E94F0
:100C4000DB05F2CF0F5F1F4FD7011696ED91FC9198
:100C500030E020E040E0C7010995C0CF462FDC011D
:100C60001696ED91FC9130E020E066E10994462F64
:100C7000DC011696ED91FC9130E020E065E10994ED
:100C8000EF92FF920F931F93CF93DF93EC01042F0A
:100C900079016D3009F446C050F46B30C9F1693008
:100CA00009F49FC06A3009F465C080E046C06E3028
:100CB00009F452C06F3099F70E94D205F7011381F1
:100CC000110F110F110F6C89160F60E4CE010E94F5
:100CD0003706612F62956F706061CE010E94370602
:100CE000612F6F70CE010E942E06F7016481606B48
:100CF000CE010E942E06F701408151816281660F6C
:100D0000660F660FCE010E94DB050150A1F72EC0D1
:100D10006AEE71E0442311F065EE71E0CE010E94AD
:100D2000E3050AC0411110C06EED71E00E94E305B9
:100D3000E881F98182898C8B81E0DF91CF911F91CD
:100D40000F91FF90EF90089567ED71E00E94E30529
:100D5000E881F9818389EFCF0E94D20561E8CE0155
:100D60000E943706602FCE010E942E06CE010E94FF
:100D7000C905E2CFEA85FB8530E020E040E068E28B
:100D8000CE010995EE81FF8130E020E040E064E192
:100D9000CE01099541E06BE4CE010E94C205E881D5
:100DA000F981448169E2CE010E94C20540E06BE412
:100DB000CE010E94C205E881F981448169E2CE0139
:100DC0000E94C20541E06BE4CE010E94C205E881A9
:100DD000F981458169E2CE010E94C2056FEE71E0A2
:100DE0009DCF84E292E0998388831C8AA5CFDC01A1
:100DF0001896ED91FC9130E020E040E069E1099423
:100E0000DC011896ED91FC9130E020E040E068E1D3
:100E10000994CF93DF931F92CDB7DEB76983BE01EC
:100E20006F5F7F4F0E94B7030F90DF91CF910895BE
:100E3000EF92FF921F93CF93DF93EC01162F7A016D
:100E40000E94000760E4CE010E940907E885F98549
:100E50009701412F67E1CE010995CE01DF91CF9136
:100E60001F91FF90EF900C94F706EF92FF921F9363
:100E7000CF93DF93EC01142F7901663181F138F4BF
:100E8000643109F44BC0653179F080E022C06831EB
:100E9000C9F150F16931C9F78091CE03882391F1EE
:100EA000CE010E94F7062EC08091CE03882319F050
:100EB000CE010E94F706CE010E94000760E0CE013D
:100EC0000E940907612FCE010E94090781E08093EB
:100ED000CE03DF91CF911F91FF90EF900895642F83
:100EE0000E94090781E0F5CF8091CE03882319F095
:100EF000CE010E94F706A701193138F4612FCE0107
:100F00000E9418071092CE03EDCF68E1CE010E9437
:100F10001807185188E1E80EF11CEDCF8E898F3F3C
:100F200011F488E78E8BE885F9859701412F64E1FC
:100F3000CE01DF91CF911F91FF90EF900994FC01BA
:100F40006623D9F16A30C9F1808D811125C06C3FCB
:100F500048F085E0808F617070E0738B628B2EEFBC
:100F60003FEF29C0683F20F084E0808F6370F4CFAA
:100F7000603F20F083E0808F6770EECF603E20F00E
:100F800082E0808F6F70E8CF262F30E0603C98F0D1
:100F900081E0808F6F71E0CF8150808F228933890B
:100FA00096E0220F331F9A95E1F76F73262B338B50
:100FB000228B8111D4CFC90108952FEF3FEFFBCFD2
:100FC0000F93FC01E85BFF4F0190F081E02DDF0102
:100FD000A41BB50BAD01FC01EA5BFF4F0190F08152
:100FE000E02DDF01A61BB70BBD01011113C041505D
:100FF0005109621B730BFC01E05CFF4F0190F08113
:10100000E02D4E1B5F0BDC01D496ED91FC91099510
:101010000F910895013079F761507109421B530B0C
:10102000EACF0F93FC01E05CFF4F0190F081E02DCF
:101030004E1B5F0BDC01D496ED91FC9109950F914D
:101040000895CF93DF93FC01A081B18182AD90E040
:101050009C0143E0220F331F4A95E1F737AF26AFDB
:1010600050962C91509748E0249F9001112435AF61
:1010700024AF23AD30E0B90153E0660F771F5A95D6
:10108000E1F7EF01C05CDF4F7983688351964C91A3
:101090005197E901C80FD91F50E04C175D0718F4AC
:1010A000CA01821B930BEF01CE5BDF4F798368830C
:1010B000229623E0880F991F2A95E1F7860F971F44
:1010C00099838883229654968D919C915597998304
:1010D0008883E85BFF4F56968D919C919183808326
:1010E000DF91CF9108950C9421080C9421080F935F
:1010F0001F93FC01E25BFF4F0190F081E02DDC01CA
:10110000A05BBF4F0D90BC91A02D4A175B0740F428
:10111000E017F10748F00417150730F080E019C018
:10112000E017F107C0F3FACFFC01E65BFF4F408107
:101130005181845B9F4FFC01808191816817790701
:1011400058F481E04217530720F081E02617370753
:1011500028F71F910F91089542175307B0F3DECF80
:101160008F929F92AF92BF92CF92DF92EF92FF92B7
:101170000F931F93CF93DF93EC01FC01E85AFF4FCD
:10118000E080F1803497A080B1803296C080D18019
:1011900034978080918087019501A601B4010E9457
:1011A0007708FE01EC57FF4F81110EC01082DF91CE
:1011B000CF911F910F91FF90EF90DF90CF90BF9054
:1011C000AF909F908F90089581E08083FE01E65B51
:1011D000FF4F808191818815990510F4918280825A
:1011E000FE01E45BFF4F80819181A816B90610F4DF
:1011F000B182A082FE01E25BFF4F808191818C155C
:101200009D0510F4D182C082C05BDF4F8881998137
:10121000E816F90660F6F982E882C9CFFC01E65BC0
:10122000FF4F118210823296DC01AA5BBF4F2D91D5
:101230003C9111973183208332961182108212964D
:101240002D913C91119714974D915C91241735077E
:1012500028F0B901641B750B71836083FC01E05BAE
:10126000FF4FDC01AE5BBF4F4D915C91241B350BF2
:10127000318320830C94B008FC01E65BFF4F1182A0
:1012800010823296DC01AA5BBF4F2D913C911197E1
:1012900031832083329614972D913C91119731839D
:1012A0002083329612962D913C91318320830C94A9
:1012B000B0080F93CF93DF93E02FDC01AC57BF4F03
:1012C000FC91FF2309F460C02115310509F45CC0CD
:1012D0002230310538F0023009F04AC06F5F7F4F8D
:1012E000621B730B0E2F0170E0FD52C0FC01E25B2C
:1012F000FF4F0190F081E02D4E175F0708F444C0C6
:10130000FC01E05BFF4F0190F081E02D4E175F077D
:10131000D8F5FC01E45BFF4F0190F081E02DDC018A
:10132000A65BBF4F0D90BC91A02D260F371F26172F
:10133000370738F56E177F0718F59F0121503109DF
:10134000A217B30708F56A177B0708F4BD012E172B
:101350003F0708F4F901E61BF70BEC01AEA9BFA9A2
:1013600014960D90BC91A02D9F01FD0109950CC014
:10137000033009F0B7CF4F5F5F4F421B530BB2CF23
:10138000BD016E177F07E0F2DF91CF910F910895B5
:10139000FC01E65BFF4F0190F081E02D6E177F07A7
:1013A00098F3FC01E45BFF4F0190F081E02D6E1794
:1013B0007F0750F7FC01E05BFF4F0190F081E02DCB
:1013C000DC01A25BBF4F0D90BC91A02D240F351FF7
:1013D00024173507A8F44E175F0788F49F012150A2
:1013E0003109A217B30780F64A175B0708F4AD016D
:1013F0002E173F0708F4F901E41BF50BAECFAD0142
:101400004E175F0708F6EDCFAF92BF92CF92DF92F3
:10141000EF92FF920F931F93CF93DF936C01EB0139
:101420005A017B01E20EF31E9C01240F351F870138
:10143000AB01BC0186E696E00E947708811114C0DA
:10144000DF91CF911F910F91FF90EF90DF90CF90A0
:10145000BF90AF90089500E09501AE01B60186E619
:1014600096E00E9459092196EC16FD06A1F7E8CFF7
:101470008F929F92AF92BF92CF92DF92EF92FF92A4
:101480000F931F93CF93DF936C01EB014A01790116
:101490005C01A40EB51E8B01020F131F9501AB0159
:1014A000BC0186E696E00E947708882371F100E08F
:1014B0009401AE01B60186E696E00E94590982E0E9
:1014C000E816F10410F182E0E81AF1082196E1141F
:1014D000F10499F001E09701AE01B60186E696E0CD
:1014E0000E945909B501615071099701AE0186E664
:1014F00096E00E945909CE0DDF1D00E09401AE0177
:10150000B60186E696E00E945909DF91CF911F91BE
:101510000F91FF90EF90DF90CF90BF90AF909F9092
:101520008F900895213069F038F0223079F0840FDF
:10153000911D47FD9A950895860F911D67FD9A9517
:101540000895841B910947FD93950895861B910981
:1015500067FD93950895213069F038F0223079F0D5
:10156000861B910967FD93950895840F911D47FD92
:101570009A950895860F911D67FD9A950895841B8D
:10158000910947FD939508953F924F925F926F9214
:101590007F928F929F92AF92BF92CF92DF92EF9203
:1015A000FF920F931F93CF93DF937C01162F442E4E
:1015B000EC01C25ADF4F5E806F806C018AE8C80E72
:1015C000D11C78847518312E711608F4372C8C8054
:1015D0009D800E85202F462D652D8A819B810E943E
:1015E000920A5C01202F462D652DC4010E94AB0A92
:1015F000AC01442079F08C85F6018083232D30E006
:10160000B501C7010E945909171548F017196394CD
:10161000512CD7CF8B858111F7CF8D85EDCF150D4F
:101620001E836F82DF91CF911F910F91FF90EF90FA
:10163000DF90CF90BF90AF909F908F907F906F90F2
:101640005F904F903F900895DC011A964C911A9745
:10165000ED91FC911197249130E0042E02C0359554
:1016600027950A94E2F7842F860F883068F0319628
:101670001196FC93EE93E49198E0941B01C0EE0F59
:101680009A95EAF72E2B88501A968C938FEF9FEF3E
:1016900001C0880F6A95EAF78095822308950F9319
:1016A0001F93CF93DF938C01EC01C25ADF4F7983F4
:1016B00068831A86FC01EF58FF4F6081CE010E94BB
:1016C000240B8887F801EE58FF4F6081CE010E94FD
:1016D000240B8987F801E657FF4F90819C8781E0B2
:1016E000911180E08D87DF91CF911F910F91089527
:1016F000CF93C62F0E94240BC15021E030E001C0DF
:10170000220FCA95EAF7821BCF910895FC01E60FDC
:10171000F11D849190E0982F88273196E4918E0FE7
:10172000911D0895CF93DF932091C0063091C1069B
:101730002817390709F490C0EC019093C1068093F3
:10174000C006FC0184918093D3063196E491E09326
:10175000D406FE013296E491E093D506FE0133965D
:10176000E491E093D606FE013496E491E093D70627
:10177000FE013596E491E093D806FE013696E49199
:10178000E093D906FE013796E491E093DA06FE0174
:101790003896E491E093DB06FE013996E491E093FC
:1017A000DC06FE013A96E491E093DD06FE013B96ED
:1017B000E491E093DE06FE013C96E491E093DF06BF
:1017C000FE013D96E491E093E006FE013E96E49131
:1017D000E093E106FE013F96E491E093E206FE010C
:1017E0007096E491E093E30661E1CE010E94860BDE
:1017F0009093E5068093E40663E1CE010E94860B98
:101800009093E7068093E60665E1CE010E94860B81
:101810009093E9068093E8068091C0069091C106F6
:10182000892BD1F08091E0068093EC064091E1068F
:101830004093ED069091EB06992371F0913079F485
:101840009091E206891714F49093EC068091E306D8
:10185000841714F48093ED06DF91CF9108953091B1
:10186000DD062091DF06082E000C990B622F022E58
:10187000000C770B630F711D37FD7A95861797075C
:101880001CF4320F3093EC06241734F72093ED0646
:10189000E3CFEF92FF920F931F93CF93DF93FC015F
:1018A000E65AFF4F20813181295E3F4F6F3F71051E
:1018B00009F048F561367105D8F080589F4FFC015A
:1018C00080819181280F391FC9010196FC01449143
:1018D000442309F447C0F90144914617170671F4EF
:1018E0000196DF91CF911F910F91FF90EF90089596
:1018F0006134710548F382589F4FE1CFFC01849118
:10190000280F311DE1CF8B01FC01EE57FF4FC08145
:10191000D181C20FD31F7E0160E0C7010E94860BF8
:10192000C80FD91F62E0C7010E94860BF4E0EF0EDA
:10193000F11C8017910780F3FE01849190E0982FAD
:1019400088273196E4918E2B009761F008171907CC
:1019500019F4CE010396C5CFFE013296E491CE0F65
:10196000D11DEACF90E080E0BCCFCF92DF92FF9212
:101970000F931F93CF93DF931092CC0610927E06A5
:101980006C0180ECF82E10E000E0D0E0C0E0F60141
:1019900061916F01E0916806F091690686E696E034
:1019A00009958F3F980789F18E3F2FEF920779F3C2
:1019B000BC0186E696E00E94490C009721F1BC012B
:1019C00086E696E00E944F0B6091D90684EC96E083
:1019D0000E94780B8093EE066091DA0684EC96E024
:1019E0000E94780B6091DB0684EC96E00E94780BF5
:1019F000082F880F110B80ECF81202C0F090EE0651
:101A0000C00FD11FC4CF80E0F3CF2091CC0622239A
:101A100099F08091EE06022E000C330B280F311D39
:101A200087FD3A95C20FD31FC01BD10B1F1424F49E
:101A3000CF0DD11DF7FCDA95CE01DF91CF911F912B
:101A40000F91FF90DF90CF9008958F929F92AF9269
:101A5000BF92CF92DF92EF92FF920F931F93CF939B
:101A6000DF93EC017B018A016901FC01E459FF4F1E
:101A70008081813009F46FC008F462C0823009F4BB
:101A800075C0833009F47DC0FE01E05AFF4FF1823A
:101A9000E082329611830083B601CE010E94490C88
:101AA000009709F4FFC07E012EE5E20EF11CBC0197
:101AB000CE010E944F0BFE01E959FF4FB0803C96CA
:101AC0006081C7010E94780B882EFE01EC58FF4F01
:101AD0006081C7010E94780B082FFE01EB58FF4F71
:101AE0006081C7010E94780BA82EF7019084191419
:101AF0000CF090C016850B0D0195212F402F682DFD
:101B0000828193810E94920A6C01F7019383828300
:101B1000212F402F682D848195810E94AB0AAC0152
:101B2000F70195838483113009F484C0A8F1123041
:101B300009F491C0133009F4A4C08C01960136C099
:101B4000FE01E45AFF4F0190F081E02DCE0109958E
:101B5000080F191F99CFFE01E45AFF4F0190F08141
:101B6000E02DCE010995E81AF90A8ECFFE01E45A5C
:101B7000FF4F0190F081E02DCE010995081B190B54
:101B800083CFFE01E45AFF4F0190F081E02DCE019A
:101B90000995E80EF91E78CF9601290D311D97FCA5
:101BA0003A958C010B0D111DB7FC1A95B601CE01AB
:101BB0000E947708882371F1F701168217828E013F
:101BC00001591F4F6E01F0E7CF0ED11CF801608163
:101BD000C7010E94240B882EF6016081C7010E9474
:101BE000240B982E40E0682DCE010E94C40A41E0EB
:101BF000692DCE010E94C40A61E0C7010E94240B36
:101C00008111F0CFF70187818B1504F3C657DF4FA1
:101C1000848588838A2DAA0C990BDF91CF911F911F
:101C20000F91FF90EF90DF90CF90BF90AF909F907B
:101C30008F90089581E090E08B199109B7FC9395FE
:101C400096012F5F3F4F8A01090D111D97FC1A95D0
:101C5000C80ED91EABCF81E090E0BC0169197109B3
:101C600097FC739596012F5F3F4F8B199109B7FC35
:101C700093958A010F5F1F4F480F591FC60ED71E3D
:101C800095CF96012B0D311DB7FC3A9581E090E080
:101C90008919910997FC93958A010F5F1F4F480F8F
:101CA000591F84CF90E080E0B8CF8F929F92AF927F
:101CB000BF92CF92DF92EF92FF920F931F93CF9339
:101CC000DF93EC018B017A01188E6901B12CA12CF4
:101CD0004C012CE6820E911CF60161916F01EA81A4
:101CE000FB81CE0109958F3F980711F18E3F2FEFB1
:101CF000920791F39C01A701B801CE010E94250D26
:101D0000F4012081213059F038F0223059F023308D
:101D100061F0A80EB91EE0CF080F191FFACFE80E28
:101D2000F91EF7CF081B190BF4CFE81AF90AF1CF07
:101D3000C501DF91CF911F910F91FF90EF90DF9040
:101D4000CF90BF90AF909F908F9008952F923F9229
:101D50004F925F926F927F928F929F92AF92BF92BB
:101D6000CF92DF92EF92FF920F931F93CF93DF9367
:101D7000CDB7DEB76B970FB6F894DEBF0FBECDBF01
:101D80009A8389834B011A015901FE82ED828FE902
:101D900097E09093690680936806C6010E94B50C8F
:101DA0003C01710120E4E222FF2426FE5BC0019683
:101DB0009695879549815A81481B590B5A834983C7
:101DC000F12CE12C6A147B0408F050C07501E61870
:101DD000F708F694E794350149C08FEF9FE7489ED6
:101DE0007001499EF00C589EF00C1124888599854D
:101DF0008E0D9F1D880F991F680E791E8D819E8103
:101E0000480E591E4E0C5F1C440C551CEA85FB8580
:101E10004E0E5F1E25FE0BC182E00E94B0039201B0
:101E2000A3016889798989819A810E94040A8F8136
:101E30006B960FB6F894DEBF0FBECDBFDF91CF918A
:101E40001F910F91FF90EF90DF90CF90BF90AF90D8
:101E50009F908F907F906F905F904F903F902F90CA
:101E60000C94B0038A159B0508F4B5CF81E08093EC
:101E7000CF068FE997E090936906809368069601F4
:101E8000A40169817A8186E696E00E94550E6981F7
:101E90007A816E197F09798B688B210177E047225F
:101EA00055242091EC064091ED068091F0068F8339
:101EB000C10153E0969587955A95E1F7837099276C
:101EC000FC013197FC83EB83B801640D751D7987A4
:101ED00068875B01AA0CBB1CA60CB71C022E000C69
:101EE000330BB901641B710947FD73954D815E8108
:101EF000440F551F460F571FF801EE0FFF1F4E1BD3
:101F00005F0BFA01E619F709FD87EC877201488932
:101F10005989401B510B5A834983ED81FE812E0F55
:101F20003F1FA401421B530B5F874E877B876A8745
:101F3000B101687177277D8B6C8BE981FA812B81E8
:101F40003C81E20FF31FFF8BEE8B080F191F060D6C
:101F5000171D48895989400F511F598F488FC980D3
:101F6000DA80CE18DF08E091C206F091C30686E65B
:101F700096E009950E851F85080F191FB8016E1987
:101F80007F09798B688B8C849D848A0C9B1CE1145F
:101F9000F10409F422CF9401A501C6010E94380A78
:101FA0008F810E94B0038C899D89892BC9F14E14C1
:101FB0005F04B1F5D12CC12CE889F9892B813C81D2
:101FC000E20FF31FE80DF91DF98BE88B200F311F8D
:101FD0003B8B2A8B488D598D440D551D415051091D
:101FE0005B8F4A8F488959894C0D5D1D00E0950132
:101FF0006E897F8986E696E00E9459096A8D7B8DFD
:102000006C0D7D1D01E094014A895B8986E696E0AE
:102010000E9459095FEFC51AD50AEC14FD0411F7A7
:1020200061E0E61AF10872E0A71AB10898CF6B9642
:102030000FB6F894DEBF0FBECDBFDF91CF911F91D9
:102040000F91FF90EF90DF90CF90BF90AF909F9057
:102050008F907F906F905F904F903F902F9008955A
:102060009A014FE957E05093690640936806AB0127
:10207000BC0186E696E00C94550ECF93DF93EC01FD
:102080006BAFEEA9FFA90190F081E02D0995EEA9B3
:10209000FFA90280F381E02DCE01DF91CF91099459
:1020A000AF92BF92CF92DF92EF92FF920F931F9366
:1020B000CF93DF9300D000D01F92CDB7DEB78C0155
:1020C000DC01DA96AC90DA97DB96EC90DB97ED9139
:1020D000FC91B188FE2CD12CC12CD801ED91FC9142
:1020E00011978089D8962D913C911C82FD828B831B
:1020F000B8E08B9FC00111248C9DA0018D9D500DD7
:102100009C9D500D1124240F351F3A832983D8013B
:102110001496ED91FC919E012F5F3F4F41E06FE0DF
:10212000C8010995F3948F2D8E198A1528F4BFEFF5
:10213000CB1ADB0AFB1488F20F900F900F900F90D0
:102140000F90DF91CF911F910F91FF90EF90DF9053
:10215000CF90BF90AF900895089508958F929F9269
:10216000AF92BF92CF92DF92EF92FF92CF93DF9325
:102170007C01C62F6C32B0F46A32E8F5683249F15E
:10218000693209F444C080E0C034B0F1CF73F70184
:10219000EC0FF11D868D8F3F71F1C03108F06DC0DD
:1021A000642F14C06D3209F456C068F384EB860FB7
:1021B000823048F7CF73CE0DDF2DD11D8E8D4111AA
:1021C00058C061E00E943F0460E08E8D0E941104BF
:1021D00012C02EE1E20EF11CD0E0F70181917F01E7
:1021E0008F3F31F061E0D03108F062E00E943F049F
:1021F000DF5FD63191F781E0DF91CF91FF90EF90D3
:10220000DF90CF90BF90AF909F908F900895C42E95
:10221000D12CF12CE12C0E9482044B015C01C114F1
:10222000D104E104F10439F30E94820468197909A8
:102230008A099B09683E73408105910580F3F1E0AE
:10224000CF1AD108E108F10828EE820E23E0921E91
:10225000A11CB11CE4CF85E090E0433010F082E097
:1022600090E0880F991F880F991F05970197F1F744
:10227000C2CF62E00E943F04BECF0E94E80321E08B
:10228000892B09F420E0F701218FB5CF2091550368
:10229000260F3327331F21323105ECF42091A4039C
:1022A000FC0190E080E0243069F082E00895A09184
:1022B00055032191AC014B5C5C4FA40FB52FB11DB0
:1022C0002C930196861798F380915503680F6093BD
:1022D000550380E0089581E008951092A40381E001
:1022E0008093A30310927E0361E082E10E941104B7
:1022F00061E083E10E941104E9EBF0E080818E7FD0
:10230000808380818D7F808388E48093B80085E41A
:102310008093BC000895CF93DF9391E090933403B2
:102320008823B9F0C091B800D091BA008091BC0068
:102330008A7B8093BC0060E082E10E94110460E02F
:1023400083E10E9411040E946D11D093BA00C093E2
:10235000B800DF91CF9108950895E0917D038091B9
:102360007C03E81730F4F0E0EC5EFC4F808190E0F5
:1023700008958FEF9FEF089590917D0380917C03E6
:102380002FEF3FEF981748F4E92FF0E0EC5EFC4F99
:10239000208130E09F5F90937D03C9010895809173
:1023A0007C0390917D03891B990B0895CF92DF9256
:1023B000EF92FF920F931F93CF93DF937C01CB019A
:1023C0008A012091AA03222389F0EB016B01C40E3C
:1023D000D51ECC15DD0569F06991D701ED91FC9111
:1023E0000190F081E02DC7010995F3CF642F0E9481
:1023F0004611C801DF91CF911F910F91FF90EF908F
:10240000DF90CF900895CF92DF92EF92FF920F93DB
:102410001F93CF93DF93EC01962F683109F44BC0E3
:10242000B901993130F49431C9F0973189F080E0E5
:1024300006C0993109F461C09032C9F781E0DF919B
:10244000CF911F910F91FF90EF90DF90CF90089563
:1024500050E085E395E00E94D611F0CF8C859D85F4
:10246000AE85BF85892B8A2B8B2B71F4E881F9818E
:10247000A585B0E020EA36E841E050E00E947032E5
:102480006C877D878E879F8710927D0310927C03D7
:102490001092AB031092CD030E946D118CEA90E173
:1024A00090937B0380937A038DEA90E19093790374
:1024B00080937803C3CF2C853D854E855F8560E092
:1024C00074E284EF90E00E94BA3220513109410950
:1024D000510956954795379527952093B8008E89D1
:1024E00090E09595879591E09093AA038093CC0313
:1024F0001092AB031092CD03A1CFD091CD03D13276
:1025000008F093C0C091CC030E9482046B017C014F
:102510008091A403811164C082E08093A40381E0D0
:102520008093A3038FEF8093A2031092A103D09313
:10253000A003ACEAB3E0E0E8F3E080E0D8137CC0AD
:1025400010927F0380917F03CC0FC82BC0937F0331
:1025500080917E03813009F073C010927E030E9447
:1025600082046B017C0180917F038093BB0080918A
:10257000A6039091A703A091A803B091A903892B6A
:102580008A2B8B2B99F00E9482040091A603109154
:10259000A7032091A8033091A9036C197D098E0926
:1025A0009F090617170728073907D8F18091BC0043
:1025B00083FDD9CF85EC8093BC000E9482046B011F
:1025C0007C018091A4038230E9F18091A2038F3FC6
:1025D00061F18091A203803241F18091A20325C074
:1025E0008091A6039091A703A091A803B091A9039D
:1025F000892B8A2B8B2B09F48BCF0E9482040091AC
:10260000A6031091A7032091A8033091A9036C1988
:102610007D098E099F09061717072807390708F053
:1026200077CF8091A5030E948B111092AB0310927B
:10263000CD031092AA0302CF9D9191938F5F7ECF1D
:1026400085EEB9CF8091A6039091A703A091A8032E
:10265000B091A903892B8A2B8B2B09F4B2CF0E944E
:1026600082040091A6031091A7032091A803309142
:10267000A9036C197D098E099F09061717072807FA
:10268000390708F09ECFCDCFCF93DF931F92CDB700
:10269000DEB769832091AA032223F9F02091CD03AC
:1026A000203258F021E030E0FC013383228390E0B7
:1026B00080E00F90DF91CF9108958091AB03E82FD8
:1026C000F0E0E455FC4F998190838F5F8093AB03DA
:1026D0008093CD0381E090E0ECCF61E0CE010196E4
:1026E0000E944611F7CF8091FB03882321F081EDF2
:1026F00091E00C949A038AEA92E0FBCF0F931F9328
:10270000CF93DF93C8E0D3E00CE412E01992199262
:1027100060E0F80181918F010E941104F3E0C4315F
:10272000DF07A1F71092070310920603109205032A
:1027300010920403109203031092E003DF91CF91F3
:102740001F910F910895CF92DF92EF92FF92C09068
:10275000FF02D0900003E0900103F0900203C092CA
:10276000FB02D092FC02E092FD02F092FE020E9477
:10277000A7046093FF02709300038093010390937A
:10278000020330918C04313029F520918B04211102
:102790002BC02091FC03211102C03093FC036C1963
:1027A0007D098E099F096E3771058105910510F02D
:1027B0000E947E1310920503109204038091060379
:1027C000909107038731910550F401969093070388
:1027D00080930603FF90EF90DF90CF9008951092C2
:1027E000070310920603F6CF2130A1F73091FC03C6
:1027F000311102C02093FC036C197D098E099F09D9
:102800006F3E72408105910550F00E947E13109238
:10281000EC021092EB021092EA021092E90280910F
:10282000E9029091EA020097D1F410920703109206
:102830000603109205031092040301969093EA0296
:102840008093E9028091EB029091EC028430910533
:1028500074F401969093EC028093EB02BBCF83302B
:1028600091055CF31092EA021092E902EBCF049713
:1028700009F0B0CF0E947E1385E090E0EBCFCF92BD
:10288000DF92EF92FF9280918C04811165C02091BC
:10289000F403222309F45EC080910E0181113FC030
:1028A00036EF3203600111240D2C000CEE08FF08F6
:1028B0008AE0289F90011124032E000C440B550B35
:1028C0002C193D094E095F09A091DE03B091DF0389
:1028D0000E947B322FEF33E040E050E00E94513203
:1028E000822F8C0D20911001280F293C08F028EC34
:1028F00088E1289F90011124032E000C440B550BF6
:1029000060EC77E289E090E00E9451323093FA0265
:102910002093F902FF90EF90DF90CF9008958130DF
:10292000C9F436EF3203600111240D2C000CEE08BF
:10293000FF088AE0289F90011124032E000C440B0D
:10294000550B2C193D094E095F09A091DC03B0918C
:10295000DD03BECF80E0C6CF8130E1F680918B04ED
:102960008130C1F62091FF023091000340910103B4
:10297000509102038091FB029091FC02A091FD0214
:10298000B091FE02281B390B4A0B5B0BAAE0B0E0AA
:102990000E94703226E030E040E050E00E94BA32FF
:1029A000B5CF8F929F92AF92BF92CF92DF92EF926C
:1029B000FF920F931F93CF93DF932091DC0330910D
:1029C000DD03032E000C440B550B2F5F3F4F4F4F81
:1029D0005F4FAAE0B0E00E947032CC24C39424E0A0
:1029E000D22EE12CF12CA70196010E945132DA017E
:1029F000C9010597A109B109B82EA92E2091DE03BE
:102A00003091DF03032E000C440B550B2F5F3F4F1B
:102A10004F4F5F4FAAE0B0E00E947032A7019601CD
:102A20000E945132DA01C9010597A109B109982E16
:102A3000892EC1E9D1E028EE33E00DEE12E048E145
:102A4000E42EF12C48E155E0C52ED12C8A8181304D
:102A500069F18C81813069F58B2D9A2DE981F0E047
:102A6000E81BF90BEE0FFF1FEE5AFD4F60817181DD
:102A7000F801619371938F0188818230E9F4F90143
:102A8000D182C08229962E5F3F4FF1E0C73CDF071D
:102A9000E9F6DF91CF911F910F91FF90EF90DF90BA
:102AA000CF90BF90AF909F908F900895892D982DD3
:102AB000D5CF90E080E0D2CF1616170654F4469F8B
:102AC000C001479F900D11240197F90191838083E4
:102AD000D9CF61157105B1F2719561957109C70181
:102AE0000E94EB3261507109F90171836083CACF92
:102AF0006CEF86E994E00C9455056AEF86E994E062
:102B00000C94550590918C049230C1F4883F21F4C7
:102B100081E08093E80208958C3F31F41092FC0329
:102B20000E947E130C9478158A5F823038F40E94DC
:102B30007E1381E08093FC030C947D150895CF9261
:102B4000DF92EF92FF920F931F93CF93DF936C016D
:102B5000EB017B01E40EF51E10E000E0CE15DF0571
:102B600061F06991D601ED91FC910190F081E02D29
:102B7000C6010995080F191FF1CFC801DF91CF9148
:102B80001F910F91FF90EF90DF90CF900895CF921B
:102B9000DF92EF92FF920F931F93CF93DF93EC019D
:102BA0006C0124E0C20ED11CFC01E057FF4F0190E4
:102BB000F081E02DC60109958E3FEFEF9E07D8F416
:102BC0008E010C561F4FF801408151817E01F2E9C0
:102BD000EF0EF11CF701608171819C01C6010E941A
:102BE000250DC059DF4F28812130C1F078F0223007
:102BF000B9F02330E9F081E090E0DF91CF911F91AF
:102C00000F91FF90EF90DF90CF900895F701208112
:102C10003181820F931F91838083EDCFF801F7CF2D
:102C2000F70120813181281B390B31832083E3CFC9
:102C3000F801F7CF90E080E00895FF920F931F9383
:102C4000CF93DF93EC01F62E08811981C8010E9411
:102C50003B32F81621F06F2DC8010E944332CE019D
:102C6000DF91CF911F910F91FF900895EF92FF9206
:102C70000F931F93CF93DF9300D0CDB7DEB78C01B6
:102C80007B019A838983FB016081CE0101960E94BA
:102C90001D160F5F1F4F1A830983F7016181CE0153
:102CA00001960E941D16C7010F900F90DF91CF91E2
:102CB0001F910F91FF90EF900895AF92BF92CF9226
:102CC000DF92EF92FF920F931F93CF93DF9300D089
:102CD000CDB7DEB78B016B0120E1C20ED11C7B01A9
:102CE0005C01A61AB70AC5018E0D9F1D9A838983C0
:102CF000F70161917F01CE0101960E941D16EC142F
:102D0000FD0489F7C8010F900F90DF91CF911F91BB
:102D10000F91FF90EF90DF90CF90BF90AF9008950C
:102D20000F931F93CF93DF9300D0CDB7DEB78B0106
:102D30009A838983FB016081CE0101960E941D1652
:102D4000C8010F900F90DF91CF911F910F910895BF
:102D5000EF92FF920F931F93CF93DF9300D0CDB7E5
:102D6000DEB760E171E090E080E00E9490166EE0D6
:102D700071E081E090E00E94901664EF73E082E0E1
:102D800090E00E9490166CE874E083E090E00E946E
:102D9000901681E9E82E81E0F82E04E010E01A8315
:102DA0000983F70161917F01CE0101960E941D16F2
:102DB0000F5F1F4F0A33110591F761E871E08AE355
:102DC00090E00E945D1661E771E08AE490E00E9465
:102DD0005D1661E671E08AE590E00E945D1661E5AE
:102DE00071E08AE690E00E945D1661E471E08AE796
:102DF00090E00E945D1661E371E08AE890E00E9435
:102E00005D1661E271E08AE990E00E945D1661E181
:102E100071E08AEA90E00E945D166FE674E08AEB4A
:102E200090E00E945D166FE574E08AEC90E00E94ED
:102E30005D166FE474E08AED90E00E945D166FE32A
:102E400074E08AEE90E00E945D166FE274E08AEF13
:102E500090E00E945D166FE174E08AE091E00E94CC
:102E60005D166FE074E08AE191E00E945D166FEFFD
:102E700073E08AE291E00E945D166CE071E08AE303
:102E800091E00E9436166AE071E08CE391E00E94C6
:102E900036168EE391E09A8389836091FB03CE011D
:102EA00001960E941D166BE874E08FE391E00E948A
:102EB000901680E491E09A8389836091FA03CE01B1
:102EC00001960E941D160F900F90DF91CF911F91D8
:102ED0000F91FF90EF900895CF93DF93EB010E9445
:102EE0003B328883CE01DF91CF9108950F931F93DA
:102EF000CF93DF938C01EB010E943B328883C801A2
:102F000001960E943B328983CE01DF91CF911F91C0
:102F10000F910895CF92DF92EF92FF920F931F933C
:102F2000CF93DF93EB017B0120E1E20EF11C8B01DB
:102F30006C01C61AD70AC601800F911F0E943B324E
:102F4000F80181938F01EE15FF05A9F7CE01DF91FE
:102F5000CF911F910F91FF90EF90DF90CF90089548
:102F6000CF93DF93EB010E943B328883CE01DF9148
:102F7000CF9108950F931F93CF93DF938C01EB01B3
:102F8000FC01808191810097E1F068817981611570
:102F90007105A9F0428153812C813D81421753076D
:102FA00070F00E940B358C819D81F801958384839C
:102FB0001D821C82DF91CF911F910F9108950E9475
:102FC000B53388819981F801918380838A819B81BF
:102FD000938382838C819D81958384831982188257
:102FE0001B821A82E5CFCF93DF93EC018881998110
:102FF000009711F00E94B533198218821D821C823D
:103000001B821A82DF91CF910895FC01808191810A
:10301000009711F00C94B53308950F931F93CF933D
:10302000DF93EC0188819981009759F02A813B81D7
:103030002617370730F081E0DF91CF911F910F9174
:1030400008958B016F5F7F4F0E943E34009759F0C7
:10305000998388831B830A832C813D81232B59F715
:10306000FC011082E8CF80E0E7CFEF92FF920F9350
:103070001F93CF93DF93EC01FB01E080F180E1141B
:10308000F10411F10481158101151105A9F08C815C
:103090009D81080F191FB801CE010E940D188823C9
:1030A00099F0288139818C819D81B701820F931F0E
:1030B0000E940B351D830C83CE01DF91CF911F91B0
:1030C0000F91FF90EF900895CE010E94F317F4CF77
:1030D000EF92FF920F931F93CF93DF93EC018B013D
:1030E000CB010E94FD317C01BC01CE010E940D1874
:1030F00081110BC0CE010E94F317CE01DF91CF9159
:103100001F910F91FF90EF900895FD82EC82B8011E
:10311000888199810E94F631F0CFEF92FF920F9350
:103120001F93CF93DF93EC017B018A01BA010E94C8
:103130000D1881110BC0CE010E94F317CE01DF9153
:10314000CF911F910F91FF90EF9008951D830C83F5
:10315000B701888199810E940B35F0CFEF92FF92E1
:103160000F931F93CF93DF93CDB7DEB729970FB699
:10317000F894DEBF0FBECDBF8C01862FF8011182FF
:10318000108213821282158214824AE09E012F5F00
:103190003F4F7901B90190E00E941132F70101908F
:1031A0000020E9F73197AF014E195F09B701C80157
:1031B0000E948D1829960FB6F894DEBF0FBECDBFC2
:1031C000DF91CF911F910F91FF90EF900895EF92B3
:1031D000FF920F931F93CF93DF93CDB7DEB7629724
:1031E0000FB6F894DEBF0FBECDBF8C01CB01F80146
:1031F0001182108213821282158214824AE09E018B
:103200002F5F3F4F7901B9010E940632F70101900B
:103210000020E9F73197AF014E195F09B701C801E6
:103220000E948D1862960FB6F894DEBF0FBECDBF18
:10323000DF91CF911F910F91FF90EF900895CF9361
:10324000DF93EC01FB018617970749F060817181DC
:103250006115710541F0448155810E948D18CE01A0
:10326000DF91CF9108950E94F317F9CFFC011182ED
:10327000108213821282158214820C941F19FC0191
:10328000A081B18150962C9182AD38E0839FC0011E
:103290001124289FA001299F500D112470E060E0A7
:1032A00080AD91AD0C9404351F93CF93DF93EC0167
:1032B0000E9450101BAD8AAD180FE881F9818189F9
:1032C000181768F0EC81FD8130E020E040E060E11B
:1032D000CE01099580E0DF91CF911F910895FE0105
:1032E000E557FF4F8081882319F0CE010E943F19D6
:1032F000612FCE010E943D1081E0EDCFCF93DF938F
:10330000EC01FC01E557FF4F8081882319F0CE01C5
:103310000E943F1960E0CE01DF91CF910C943D10E7
:103320002F923F924F925F926F927F928F929F92D5
:10333000AF92BF92CF92DF92EF92FF920F931F93C3
:10334000CF93DF93CDB7DEB762970FB6F894DEBFA9
:103350000FBECDBF86E696E00E947E191EE1612E6B
:1033600013E0712E0BE0202E89E0382E98EE492EC6
:1033700055245A941E861D86188A1F861A8A198A11
:1033800050E040E062EB72E0CE010D960E948D1895
:1033900081E00E94B003809183048111DFC5809198
:1033A00082048111DFC18CEC93E00E94920B84E0D7
:1033B00080930F0180918C04811148C08091F403A7
:1033C000811142C082E080930F01BB24B3948091AD
:1033D0000F018B1508F450C021E066EC73E0B216C3
:1033E00009F445C032E0B31239C080918C0461EC1D
:1033F00073E08823E1F16BEB73E08130C1F12B2D99
:103400002150330B229EB001239E700D1124685F62
:103410007F4FCD84DE8480918104B2E0EB2EF12CCD
:1034200001E010E020E230E08B1106C080918404BE
:1034300041E250E0811102C050E040E08EE390E0B4
:103440000E94A60EB394C3CF83E0BDCF813009F4B0
:10345000B9CF823009F0B9CF81E0B5CF83E0B8129F
:10346000CECF80918C048111CACF64EB73E0CE0182
:103470000D960E946818C3CF80918C04882339F080
:1034800080918104811103C081E080938104BB2479
:10349000B394AAE0AA2E80910F018B1508F4A0C066
:1034A00031E0B31240C080918C0460EB73E088235C
:1034B00021F0813099F56CEA73E0CE010D960E94FF
:1034C000681820918104CD84DE848B2D90E02B112F
:1034D00075C020918404222309F470C02091FD035B
:1034E0000197289EB001299E700D1124685F7F4FBF
:1034F000F2E0EF2EF12C02E010E0211105C0209146
:10350000F903222309F455C02AE130E041E050E0FC
:1035100083E690E00E94A60EB394BDCF67EA73E005
:10352000823079F6CACF82E0B81228C080918C042C
:10353000811114C08091F403882369F080910E01F9
:1035400063EA73E0882309F4B8CF6FE973E0813050
:1035500009F0B7CFB2CF6BE973E0AFCF813009F09C
:10356000B0CF80918B0468E973E0882309F4A5CF7C
:1035700066E973E0813009F0A4CF9FCF23E0B21257
:10358000A0CF6091F403662309F49BCF6A9DB0013C
:103590001124CE0101960E94E718BE016F5F7F4F94
:1035A000CE010D960E94BA17CE0101960E94051811
:1035B00088CF2AE130E041E250E0AACF0197289E6F
:1035C000B001299E700D1124685F7F4FE2E0EE2E5E
:1035D000F12C02E010E02AE130E050E040E098CF2A
:1035E00080918C0481115FC060911001CE01019621
:1035F0000E94AE18BE016F5F7F4FCE010D960E94F4
:10360000BA17CE0101960E94051880918C04811191
:1036100036C080918404811154C08091F9038111D6
:103620005CC084E591E00E94920BCD84DE8453E07F
:10363000E52EF12C10E000E027E330E040E450E01C
:103640006CE170E08CE190E00E94A60E8CEC93E0BF
:103650000E94920B60E571E0CE010D960E94681801
:10366000CD84DE8462E0E62EF12C27E330E040E4F6
:1036700050E068E270E08DE190E00E94A60E80913B
:103680008C04882309F45BC384E591E00E94920BCB
:10369000CD84DE84F12CE12C10E000E027E330E063
:1036A00040E450E046C362E973E0813029F08230A3
:1036B00009F0ABCF6DE873E0CE010D960E9468185B
:1036C000A4CF809181048111ACCF8091FD03811141
:1036D00004C08091F903882349F184E591E00E94B8
:1036E000920BCD84DE8443E0E42EF12C10E000E068
:1036F00027E330E041E450E06CE170E08CE190E0E1
:103700000E94A60E8CEC93E00E94920B6CE471E098
:10371000CE010D960E946818CD84DE8422E0E22E50
:10372000F12C27E330E041E650E0A3CF84E591E0BF
:103730000E94920BCD84DE8433E0E32EF12C10E066
:1037400000E027E330E041E650E06CE170E08CE11E
:1037500090E00E94A60E8CEC93E00E94920B68E42D
:1037600071E0D6CF83E080930F01BB24B3948091A6
:103770000F018B1508F450C031E062E471E0B3161C
:1037800009F445C082E0B8123DC0809182048150A6
:10379000990B389EF001399EF00D1124EF56FE4F23
:1037A00080816AE371E0882391F162E371E0813006
:1037B00071F165E271E0823051F12B2D2150330B14
:1037C000229EB001239E700D1124685F7F4FCD842F
:1037D000DE848091810492E0E92EF12C01E010E07A
:1037E00020E230E08B1106C08091840441E250E079
:1037F000811102C050E040E08EE390E00E94A60EEE
:10380000B394B5CF23E0B212D8CF60E271E0CE011D
:103810000D960E946818D1CFBB24B39480910F01FC
:103820008B1508F45AC131E0B31247C0809182046D
:103830008150990B389EF001399EF00D1124EF56FE
:10384000FE4F80816AE171E0882309F4F5C465E1E7
:1038500071E0813009F4F0C461E171E0823009F473
:10386000EBC420918104CD84DE848B2D90E02B115C
:1038700022C120918404222309F41DC12091FD035B
:103880000197289EB001299E700D1124685F7F4F1B
:10389000E2E0EE2EF12C02E010E0211105C02091B3
:1038A000F903222309F402C12AE130E041E050E0AB
:1038B00083E690E00E94A60E9DC082E0B812A4C4E8
:1038C000809182048150990B389EF001399EF00D51
:1038D0001124EF56FE4F808181119AC06681CE017E
:1038E00001960E94AE18BE016F5F7F4FCE01079612
:1038F0000E9436190B851C850F5F1F4FB801CE0142
:1039000007960E940D18882309F476C02F81388508
:103910008B859C856FE071E0820F931F0E94F631CA
:103920001C870B87BE01695F7F4FCE010D960E94F9
:103930001F19CE0107960E940518CE0101960E941C
:103940000518809182048150990B389EF001399EB0
:10395000F00D1124EF56FE4FE181F0E0EE0FFF1F56
:10396000EE5AFD4F2081318137FF4BC0C201B901B2
:103970000E94EB32CE0107960E94E718BE01635FFA
:103980007F4FCE0101960E943619BE01695F7F4FBD
:10399000CE0101960E943518BC01CE010D960E9401
:1039A0001F19CE0101960E940518CE0107960E94AC
:1039B0000518809182048150990B389EF001399E40
:1039C000F00D1124EF56FE4F8081823009F049CF6F
:1039D00080918104823071F480918404882351F0B5
:1039E0002BE030E04BE050E06BE070E084E790E0EB
:1039F0000E94040AB39412CFCE0107960E94F317D7
:103A000091CF88E1829FB001839F700D1124B2CFC6
:103A1000813079F6E181F0E0EE0FFF1FEE5AFD4FA5
:103A20008081918118161906D4F46DE071E0CE0101
:103A30000D960E946818809182048150990B389EDF
:103A4000F001399EF00D1124EF56FE4FE181F0E0B8
:103A5000EE0FFF1FEE5AFD4F608171818BCF97FFF4
:103A6000A8CF6BE071E0CE010D960E94681880919E
:103A700082048150990B389EF001399EF00D11247B
:103A8000EF56FE4FE181F0E0EE0FFF1FEE5AFD4FC3
:103A90006081718177FF6ECF7195619571096ACFF1
:103AA000848163E071E08111DCCEC6C32AE130E09D
:103AB00041E250E0FDCE0197289EB001299E700D95
:103AC0001124685F7F4F52E0E52EF12C02E010E0F8
:103AD0002AE130E050E040E0EBCE8091820481505A
:103AE000990B389EF001399EF00D1124EF56FE4FD0
:103AF000808163EF70E0882341F067EE70E08130F1
:103B000021F0823031F46FED70E0CE010D960E940D
:103B1000681880918404CD84DE8481110EC0809168
:103B2000F90381110EC032E0E32EF12C01E010E028
:103B300027E330E040E450E00DC080918104811122
:103B4000F2CF43E0E42EF12C10E000E027E330E078
:103B500041E650E069E270E08DE190E00E94A60E3F
:103B6000809182048150990B389EF001399EF00DAE
:103B70001124EF56FE4F8081811149C0E181F0E0B0
:103B8000EE0FFF1FEE5AFD4F808191816DED70E0C9
:103B90001816190614F06BED70E0CE010D960E9418
:103BA0006818809182048150990B389EF001399EEB
:103BB000F00D1124EF56FE4FE181F0E0EE0FFF1FF4
:103BC000EE5AFD4F6081718177FF03C07195619559
:103BD0007109CE0107960E94E718BE01635F7F4F0F
:103BE000CE0101960E943619BE01695F7F4FCE015A
:103BF00001960E943518BC01CE010D960E941F1936
:103C0000CE0101960E940518CE0107962BC0813087
:103C100009F049C06781CE0101960E94AE18BE012D
:103C20006F5F7F4FCE0107960E9436190B851C856A
:103C30000E5F1F4FB801CE0107960E940D1881112B
:103C400025C0CE0107960E94F317BE01695F7F4F22
:103C5000CE010D960E941F19CE0107960E940518ED
:103C6000CE0101960E94051884E591E00E94920B16
:103C700080918404CD84DE84811145C08091F90354
:103C800081114EC013E0E12EF12C06CD2F81388535
:103C90008B859C8560EB72E0820F931F0E940B3531
:103CA0001C870B87D2CF8230F9F680858830B0F43C
:103CB00069ED70E0CE010D960E9468188091820433
:103CC0008150990B389EF001399EF00D1124EF566A
:103CD000FE4F608570E06F5F7F4F7BCF67ED70E0D8
:103CE000CE010D960E946818809182048150990B34
:103CF000389EF001399EF00D1124EF56FE4F60857D
:103D00006750770B66CF809181048111BBCF809182
:103D1000FD03811105C08091F903882309F4F3C0E4
:103D200083E0E82EF12C10E000E027E330E041E4EE
:103D300050E06CE170E08DE190E00E94A60E00E0A2
:103D400020E830E045E350E070E060E086E696E091
:103D50000E9459098CEC93E00E94920B65ED70E093
:103D6000CE010D960E94681880918204CD84DE8475
:103D70008111D3C080918404B2E0EB2EF12C10E0CD
:103D800000E02AE030E0811106C08091F90341E6AD
:103D900050E0882311F041E450E06DE370E086E0EC
:103DA00090E00E94A60EE2E18E2E912CAA24A3940C
:103DB000B12CB501CE0101960E94E718BE016F5FDC
:103DC0007F4FCE010D960E94BA17CE0101960E9438
:103DD000051880918204CD84DE848A151B0409F0C5
:103DE000A6C08091840472E0E72EF12C10E000E080
:103DF0002AE030E0811106C08091F90341E650E0ED
:103E0000882311F041E450E06DE370E0C4010E94AA
:103E1000A60E2FEFA21AB20A3CE0830E911C87E097
:103E2000A816B10431F680918C04811112C08091E2
:103E3000FC03811186C063ED70E0CE010D960E94F7
:103E400068184D855E856DE370E089E790E00E941B
:103E5000301080918504882399F180E00E94B0039E
:103E60001092CF0620E230E04DE550E06DE070E0CA
:103E700082E190E00E94040A2EE130E040E650E04A
:103E800060E170E082E190E00E94040A81E00E941B
:103E9000B00368E670E0CE010D960E946818CD84EC
:103EA000DE848CE0E82EF12C0CE010E020E430E021
:103EB00049E750E060E270E080E490E00E94A60EE6
:103EC000CE010D960E94051886E696E00E945419D0
:103ED000811150CA62960FB6F894DEBF0FBECDBFF7
:103EE000DF91CF911F910F91FF90EF90DF90CF90D6
:103EF000BF90AF909F908F907F906F905F904F900A
:103F00003F902F90089503E0E02EF12C10E000E0A8
:103F100027E330E041E650E00CCFA2E0EA2EF12C9E
:103F200010E000E02CE030E040E450E036CF62E00A
:103F3000E62EF12C10E000E02CE030E040E450E010
:103F400063CF61ED70E0CE010D960E9468184D853B
:103F50005E856DE370E08AE790E079CF813009F00B
:103F6000D7C08CEC93E00E94920B80918204815028
:103F7000990B389EF001399EF00D1124EF56FE4F3B
:103F80008085A82EB12C883008F0A9C067EC70E0BD
:103F9000CE010D960E946818B5016F5F7F4FCE016C
:103FA00007960E94E718BE01635F7F4FCE0101961E
:103FB0000E943619BE01695F7F4FCE0101960E94B3
:103FC0003518BC01CE010D960E941F19CE01019635
:103FD0000E940518CE0107960E940518CD84DE8444
:103FE00042E0E42EF12C10E000E020E830E041E473
:103FF00050E065E070E080E490E00E94A60E53E19E
:10400000A52EB12CE0917F04F0918004E00FF11F08
:10401000808143EB52E0811102C045EB52E068E140
:1040200070E0C5010E9430100F5F1F4F2CE0A20E00
:10403000B11C0830110531F703E110E038E0A32E80
:10404000B12CE0917F04F0918004EA0DFB1D80818A
:1040500043EB52E0811102C045EB52E068E270E0B0
:10406000C8010E9430103FEFA31AB30A045F1F4F2C
:104070000337110531F78091FE03811113C0809140
:10408000E703282F30E08830A0F52CE0829FC001A4
:1040900011242BE030E04BE050E060E170E040960E
:1040A0000E94380A8091FE03882309F4D2CE63EB84
:1040B00070E0CE010D960E946818CD84DE8422E067
:1040C000E22EF12C10E000E022E330E041E650E087
:1040D0006EE370E080E490E00E94A60EBACE6DEB35
:1040E00070E0CE010D960E946818B5016750710905
:1040F00056CF285031094CE0429FC001439F900D9C
:1041000011242BE030E04BE050E060E270E0C7CFDC
:10411000823009F09ECE6AEA70E0CE010D960E94D0
:1041200068182D853E85709269066092680645E0A4
:1041300050E068E070E086E696E00E94550E00913F
:104140004106109142067092690660926806C801A5
:104150000E94B50C70926906609268066AE770E08A
:10416000681B790B980145E050E086E696E00E94D6
:10417000550E00E020E830E048E050E070E060E0FC
:1041800086E696E00E94590983E080930F01B12CE6
:1041900080910F018B1508F45CCE31E0B31659F114
:1041A000B31610F182E0B81649F123E0B21649F1D6
:1041B000B29CB00111246D5E7F4FCD84DE8480916E
:1041C000810493E0E92EF12C02E010E020E730E0DA
:1041D00040E250E08B1511F050E040E088E090E0C4
:1041E0000E94A60EB394D4CF69E970E0CE010D967B
:1041F0000E946818DDCF6BE870E0F8CF6BE770E0E5
:10420000F5CF6DE670E0F2CF33E0B3122ACB8091A8
:1042100082048150990B389EF001399EF00D1124D3
:10422000EF56FE4F828181113BCC84816FEF70E0AD
:10423000811102C067E071E0CE010D960E946818FE
:1042400010CB85ED8093BC008091A6039091A703CD
:10425000A091A803B091A9030796A11DB11D23E069
:10426000B695A795979587952A95D1F72091BC008B
:1042700024FD03C01092A40308954091A603509119
:10428000A7036091A8037091A903452B462B472BE8
:1042900069F30097A105B10541F02AE22A95F1F7EB
:1042A00000C00197A109B109E1CF8091A5030C9449
:1042B0008B114F925F926F927F928F929F92AF92EB
:1042C000BF92CF92DF92EF92FF920F931F93CF9303
:1042D000DF938091FC03882309F44AC28091040390
:1042E00090910503892B09F020C1BDEE8B2EB2E021
:1042F0009B2EC1E9D1E0ECEDF2E080E0C82E81E038
:10430000D82E69EF72E0C6019E01BB24B394D4019C
:104310004D915D914D01D9011196EC90F12CEE0C6F
:10432000FF1CD701AE5ABD4FED90FC904E155F05B6
:1043300049F0E080F1804E155F0521F0DC01BC9270
:1043400051834083275F3F4F329601966815790568
:10435000F1F6909003039110B2C151E9E52E51E0BE
:10436000F52EAA24A394B12C4424439474E0572E30
:10437000612C712CF70184816091DC037091DD0365
:10438000833049F0828130E020E08330D9F46091BD
:10439000DE037091DF03072E000C880B990B6F5F13
:1043A0007F4F8F4F9F4F44E0660F771F881F991FE5
:1043B0004A95D1F7A30192010E9451322850310948
:1043C00041095109F7014085C901840F911D483009
:1043D00008F021C1883091050CF059C197FF20C128
:1043E00001E811E0D7018C91823079F4E091E0038B
:1043F000E00FF12FF11D8081882339F061E0F50194
:10440000E55BFD4F80810E941104BFEFAB1ABB0A30
:10441000E9E0EE0EF11CF7E0AF16B10409F0AACF07
:1044200081E0890D80930303843008F058C18091A6
:10443000060390910703892B99F40E94D114E8E0B8
:10444000F3E0D6018D916D01882321F01182108255
:1044500011971C923296B6E0CB16B1E0DB0689F7D5
:1044600008E013E098EE892E93E0992EAA24A394F5
:10447000B12C3AE0432E512C612C712C8A81209171
:10448000DE03823009F020E09C81923009F06CC19B
:104490008091DC03280F30E0AAE0B0E00E94DC321B
:1044A0002FEF33E040E050E00E9451322550CF80A2
:1044B0002C0DC12C253630F4C22EEAE0E21710F4A0
:1044C0008AE0C82E2881D8018D919C9121110EC1BE
:1044D0002E812817190639F461E0F501E55BFD4FDF
:1044E00080810E941104F80180819181D4012D9175
:1044F0003D914D018217930708F00EC101969183FB
:104500008083FFEFAF1ABF0A29960E5F1F4F87E027
:10451000A816B10409F0B2CF61E083E00E94110453
:1045200068EF86E994E00E9455058091040390911C
:1045300005030196909305038093040320918C0456
:1045400021111EC02091F9023091FA0282179307BF
:10455000D8F1109205031092040380910603909104
:1045600007038731910508F0DAC00196909307039D
:10457000809306038091F403882331F10E943F1455
:1045800080918C04813009F0CFC080918B04813000
:10459000D9F42091F9023091FA02809104039091AC
:1045A00005038217930780F080910603909107031B
:1045B0008731910548F41092050310920403019687
:1045C0009093070380930603809104039091050361
:1045D0008837910508F4CCC0CCE4D2E002E512E0C3
:1045E00060E089910E9411040C171D07C9F760E073
:1045F00083E0DF91CF911F910F91FF90EF90DF90BB
:10460000CF90BF90AF909F908F907F906F905F9072
:104610004F900C94110488309105E4F1409714F503
:10462000240F09F4DDCE213001F1223009F12330CD
:1046300011F1243019F1253021F1263029F12730EC
:1046400031F1283039F1293041F12A3049F12B304C
:1046500051F12C3059F12D3061F12E3069F12F30AC
:1046600009F0C0CE0FEF13E0BDCE01E711E0BACEE6
:1046700001E611E0B7CE01E511E0B4CE01E411E0AE
:10468000B1CE01E311E0AECE01E211E0ABCE01E12B
:1046900011E0A8CE0FE614E0A5CE0FE514E0A2CEFF
:1046A0000FE414E09FCE0FE314E09CCE0FE214E081
:1046B00099CE0FE114E096CE0FE014E093CE84E0A3
:1046C000891508F0ADCE109203038091E0038F307E
:1046D00050F48F5F8093E0031092E103A8CE81E055
:1046E0008093E103A4CE1092E003F6CF213009F0CD
:1046F000FACE892B09F0F7CE0E949E31D12CF12CF5
:10470000E12CA30192010E9451326C157D058E05AA
:104710009F050CF0E1CEE7CE11821082F2CE10920E
:1047200007031092060326CF823009F04DCF809107
:10473000E802882309F448CF10920503109204037D
:1047400080910603909107038731910540F401960B
:1047500090930703809306031092E80235CF1092DE
:10476000070310920603F8CF823009F0A0CE93CE53
:10477000DF91CF911F910F91FF90EF90DF90CF903D
:10478000BF90AF909F908F907F906F905F904F9071
:1047900008951F920F920FB60F9211242F933F93FB
:1047A0008F939F93AF93BF9380918E0490918F04CA
:1047B000A0919004B091910430918D0423E0230FD7
:1047C0002D3758F50196A11DB11D20938D048093BE
:1047D0008E0490938F04A0939004B09391048091E1
:1047E000920490919304A0919404B0919504019641
:1047F000A11DB11D8093920490939304A0939404FF
:10480000B0939504BF91AF919F918F913F912F915C
:104810000F900FBE0F901F90189526E8230F029659
:10482000A11DB11DD2CF1F920F920FB60F9211246E
:104830002F933F934F935F936F937F938F939F93A8
:10484000AF93BF93EF93FF93E0910801F0910901BB
:104850000995FF91EF91BF91AF919F918F917F91BA
:104860006F915F914F913F912F910F900FBE0F90DD
:104870001F9018951F920F920FB60F9211242F932D
:104880003F934F935F936F937F938F939F93AF93D8
:10489000BF93EF93FF93E0910601F0910701099513
:1048A000FF91EF91BF91AF919F918F917F916F9108
:1048B0005F914F913F912F910F900FBE0F901F90DE
:1048C00018951F920F920FB60F9211242F933F93BA
:1048D0004F935F936F937F938F939F93AF93BF9308
:1048E000EF93FF9386E994E00E943305FF91EF91E7
:1048F000BF91AF919F918F917F916F915F914F91F8
:104900003F912F910F900FBE0F901F9018951F92FF
:104910000F920FB60F9211242F933F934F935F93F3
:104920006F937F938F939F93AF93BF93EF93FF9377
:10493000CF93DF931F92CDB7DEB781E08983E091FB
:104940003305F0913405309761F0A091A604B09141
:10495000A7046C91A091AC04B091AD048C91099521
:10496000898389818823E1F0E091A604F091A7046E
:104970008081E091AC04F091AD0482FD25C090816E
:104980008091AF048F5F8F732091B004821741F044
:10499000E091AF04F0E0EA56FB4F958F8093AF04AF
:1049A0000F90DF91CF91FF91EF91BF91AF919F91C8
:1049B0008F917F916F915F914F913F912F910F90C8
:1049C0000FBE0F901F9018958081EACF1F920F9213
:1049D0000FB60F9211242F933F934F935F936F93D2
:1049E0007F938F939F93AF93BF93EF93FF938091A8
:1049F000D5039091D6038093B2008091D803909113
:104A0000D903A091DA03B091DB030196A11DB11D7A
:104A10008093D8039093D903A093DA03B093DB0378
:104A20008091D8039091D903A091DA03B091DB0370
:104A30004091D1035091D2036091D3037091D4037C
:104A400084179507A607B70710F18091D703811146
:104A50001EC081E08093D7038091D8039091D90341
:104A6000A091DA03B091DB03841B950BA60BB70B67
:104A70008093D8039093D903A093DA03B093DB0318
:104A8000E091CF03F091D00309951092D703FF91E5
:104A9000EF91BF91AF919F918F917F916F915F91B6
:104AA0004F913F912F910F900FBE0F901F9018952F
:104AB0001F920F920FB60F9211242F933F934F9393
:104AC0005F936F937F938F939F93AF93BF93EF9376
:104AD000FF938091B900887F803609F44AC0F0F5D1
:104AE000883209F4A7C018F5803109F49BC0B8F4E6
:104AF000882309F4F9C0883009F494C0FF91EF913C
:104B0000BF91AF919F918F917F916F915F914F91E5
:104B10003F912F910F900FBE0F901F9018958831E5
:104B200009F488C0803251F78093A20314C0803406
:104B300009F49DC040F48033B9F38833F9F68093CB
:104B4000A20385ECB0C0803509F485C0883509F42E
:104B500096C0883499F60E942121D0CF883909F473
:104B60008CC038F5883729F050F4883611F080373A
:104B700029F683E08093A4031092770357C0883806
:104B800009F47BC0803919F0803809F0B7CF8091E3
:104B90007703803208F071C0E091770381E08E0FD7
:104BA000809377038091BB00F0E0E95AFC4F80834B
:104BB0003DC0803B39F0E0F4803A09F479C0883A8E
:104BC00009F09CCF84E08093A403109256031092C6
:104BD0005503E0917A03F0917B0309958091550389
:104BE00081110FC081E0809355031092350309C0F5
:104BF000803C09F4A6CF883C09F4A3CF883B09F098
:104C00007DCFE091560381E08E0F80935603F0E054
:104C1000EB5CFC4F80818093BB00909156038091A8
:104C2000550329C080917F038093BB0085EC80935E
:104C3000BC0064CF9091A1038091A003981758F510
:104C4000E091A10381E08E0F8093A103F0E0E05892
:104C5000FC4F8081E9CFE091A10381E08E0F80932A
:104C6000A1038091BB00F0E0E058FC4F808390915D
:104C7000A1038091A0039817C8F285E8D8CFE091EE
:104C8000A10381E08E0F8093A1038091BB00F0E02F
:104C9000E058FC4F80838091A30381115CCF81E0B9
:104CA00080937E0384EA8093BC001092A40326CFF5
:104CB00085EC8093BC001092A4038091770380322E
:104CC00030F4E0917703F0E0E95AFC4F10826091F4
:104CD000770370E0E0917803F091790387E593E042
:104CE0000995109277030ACF1092A20334CFCF9385
:104CF000109299041092980488EE93E0A0E0B0E03E
:104D000080939A0490939B04A0939C04B0939D0479
:104D10002EE732E0309397042093960425EC30E0A0
:104D20003093A3042093A20424EC30E03093A50434
:104D30002093A40420EC30E03093A7042093A60431
:104D400021EC30E03093A9042093A80422EC30E059
:104D50003093AB042093AA0426EC30E03093AD04EA
:104D60002093AC041092AF041092B0041092B104DE
:104D70001092B20410923405109233051092380547
:104D8000109237058093390590933A05A0933B051F
:104D9000B0933C0580E992E0909336058093350509
:104DA00010926506109264068EE193E09093F306EC
:104DB0008093F2061092F5061092F4061092F70610
:104DC0001092F60610927E0682EA92E090936306B5
:104DD00080936206109267061092660610927B0618
:104DE0001092720610927306109274061092750655
:104DF0008FEF80937C0680938006E4E8F6E08AE9F2
:104E000096E0CFEFC1938E179F07E1F780E496E01D
:104E100090936B0680936A0685E397E090936D0606
:104E200080936C0683E092E190936F0680936E0608
:104E30008EEA90E1909371068093700630E020E056
:104E400040E069E086E696E00E9440061092C106C6
:104E50001092C00688E293E090939B0680939A0696
:104E600081E495E090939F0680939E0682E0809374
:104E7000A0061092A1061092CF061092EF06109293
:104E8000EB0681E08093F0068093F1068AEA92E0D7
:104E900090939D0680939C0686E696E00E94750896
:104EA0001092B9061092B8061092BD061092BC0678
:104EB0008FEF9FEF9093BB068093BA069093BF0647
:104EC0008093BE06E0919C06F0919D060280F381DE
:104ED000E02D86E696E0099587E993E09093C30676
:104EE0008093C2061092D20683E180938F0682E1FE
:104EF00080939006C093910681E190E090934806DC
:104F00008093470684E090E090934A068093490698
:104F100083E090E090934C0680934B0662E081E141
:104F20000E943F0462E084E00E943F0480914706B3
:104F30000E94E803C82F809149060E94E803880F69
:104F4000991F8C2B80934D0610924E0610924F069F
:104F5000109250061092510610925206109253066B
:104F6000109254061092550610925606109257064B
:104F7000109258061092590610924206109241065D
:104F8000109244061092430610924606109245066F
:104F900050E040E062EB72E081E496E0CF910C9447
:104FA0008D18CF93DF9300D000D000D0CDB7DEB7FF
:104FB000789484B5826084BD84B5816084BD85B5F4
:104FC000826085BD85B5816085BD80916E00816000
:104FD00080936E00109281008091810082608093A6
:104FE00081008091810081608093810080918000A8
:104FF0008160809380008091B10084608093B100D3
:105000008091B00081608093B00080917A008460CC
:1050100080937A0080917A00826080937A008091F8
:105020007A00816080937A0080917A008068809312
:105030007A001092C10061E875E081E496E00E9478
:105040006818E091A604F091A70482E08083E091C3
:10505000A204F091A3041082E091A404F091A504AD
:105060008FE380831092AE04E091AA04F091AB0428
:1050700086E08083E091A804F091A904808180619A
:105080008083E091A804F091A904808188608083E6
:10509000E091A804F091A904808180688083E09168
:1050A000A804F091A90480818F7D80838FB7F89444
:1050B00022E835E130933405209333058FBF62E059
:1050C0008EE00E943F0462E085E00E943F0462E0BF
:1050D0008CE00E943F0462E082E00E943F0483EA89
:1050E00093E19093070180930601809169008C7F82
:1050F000826080936900E89A0CE412E022E5E22ED7
:1051000022E0F22E61E0F80181918F010E943F04BC
:10511000E016F106B9F761E083E00E943F048FEFEB
:1051200093E00E943B32843409F0D1C160E171E028
:1051300090E080E00E94B0176EE071E081E090E0C6
:105140000E94B01764EF73E082E090E00E94B01715
:105150006CE874E083E090E00E94B01791E9E92EDA
:1051600091E0F92E04E010E0C8010E943B32F70103
:1051700081937F010F5F1F4F0A331105A9F761E883
:1051800071E08AE390E00E948A1761E771E08AE4A7
:1051900090E00E948A1761E671E08AE590E00E9443
:1051A0008A1761E571E08AE690E00E948A1761E45F
:1051B00071E08AE790E00E948A1761E371E08AE873
:1051C00090E00E948A1761E271E08AE990E00E9413
:1051D0008A1761E171E08AEA90E00E948A176FE61F
:1051E00074E08AEB90E00E948A176FE574E08AEC25
:1051F00090E00E948A176FE474E08AED90E00E94CC
:105200008A176FE374E08AEE90E00E948A176FE2DB
:1052100074E08AEF90E00E948A176FE174E08AE000
:1052200091E00E948A176FE074E08AE191E00E94A9
:105230008A176FEF73E08AE291E00E948A176CE0B0
:1052400071E08AE391E00E9476176AE071E08CE3F6
:1052500091E00E9476176BEF73E08EE391E00E947D
:105260006C176BE874E08FE391E00E94B0176AEF6F
:1052700073E080E491E00E946C17E0916A06F0917F
:105280006B0630E020E040E06AE086E696E00995B3
:1052900086E696E00E947E1986E696E00E94541902
:1052A0008111FACF60E086E696E00E943D10E09121
:1052B0006A06F0916B0630E020E040E06BE086E6A5
:1052C00096E009950E9473130E9490190E94D114D0
:1052D0000E943F140E947E1381E090E0A0E0B0E0C5
:1052E0008093D1039093D203A093D303B093D403BC
:1052F00089E591E29093D0038093CF038091700071
:105300008E7F809370008091B0008C7F8093B0007E
:105310008091B100877F8093B1008091B6008F7D2E
:105320008093B600809170008D7F80937000809193
:10533000B10084608093B1008091B1008C7F809334
:10534000B10087EE90E09093D6038093D50310923E
:10535000D8031092D9031092DA031092DB03109253
:10536000D7038091D5039091D6038093B2008091AA
:105370007000816080937000CC24CA9403E0D02E2A
:10538000E12CF12C8FE1282E84E0382E80918C04C2
:10539000813031F480918B04813011F40E943F14EC
:1053A0008EE00E94E803892B09F099C080918A045D
:1053B000811195C081E080938A040E94A7046093C4
:1053C0008604709387048093880490938904809165
:1053D00047060E94E803182F809149060E94E803BF
:1053E000880F991F182B80914D06181709F4C7C113
:1053F00080914D0640914E0650914F0660915006A7
:1054000070915106F4E08F02C0011124212F012E6A
:10541000000C330B822B932BFC01E45CFD4F80814D
:10542000082E000C990BAA0BBB0B840F951FA61F0F
:10543000B71F80934E0690934F06A0935006B093EB
:10544000510610934D0680914B0690914C06823088
:10545000910509F491C18330910509F49AC201972D
:1054600009F08DC1133009F08AC180914E069091E8
:105470004F06A0915006B091510672E0B595A795E0
:10548000979587957A95D1F7809352069093530616
:10549000A0935406B093550680915A0690915B06EE
:1054A000A0915C06B0915D0680935E0690935F06C6
:1054B000A0936006B09361060E94A70460935A0609
:1054C00070935B0680935C0690935D0658C10E94C2
:1054D000A81664E48FEF93E00E944332CECE8EE0B4
:1054E0000E94E803892B09F472CF80918A048823F3
:1054F00009F46DCF10928A040E94A70420918504BC
:10550000222329F0109285040E94901960CF009107
:105510008604109187042091880430918904DC016D
:10552000CB01801B910BA20BB30B8D32F1E09F07D7
:10553000A105B10508F0FAC080918304909184041C
:10554000911106C0811198C081E080938404DCCF62
:10555000209182042150330B99E0929FF001939F98
:10556000F00D1124EF56FE4F9081923009F07BC070
:1055700090918104923009F076C081117DC08085C0
:10558000811107C081E891E09093800480937F04AB
:1055900030C0813019F481E791E0F6CF823019F400
:1055A00081E691E0F1CF833019F481E591E0ECCF11
:1055B00011E4412E11E0512E843039F1B1E36B2E0C
:1055C000B1E07B2E853061F141E251E0863089F116
:1055D00061E171E08730E9F1883019F48FE694E0F9
:1055E000D3CF893061F4EFE5F4E0F0938004E093E9
:1055F0007F0481E0809383041092FE0385CF8A307C
:1056000049F4AFE44A2EA4E05A2E5092800440920E
:105610007F04EFCF8B3049F4FFE36F2EF4E07F2E51
:105620007092800460927F04E4CF8C3039F44FE2B2
:1056300054E05093800440937F04DBCF8D3029F4F5
:105640003092800420927F04D4CF8E3039F46FE002
:1056500074E07093800460937F04CBCF8F3049F661
:105660008FEF93E091CF811107C08091FD0391E00E
:1056700089278093FD0348CF813049F49091FE0340
:105680009111BACF8093FC038093FE033DCF82300B
:1056900009F03ACF80918104811116C085E10E9402
:1056A000700490930D0180930C0184E10E947004BA
:1056B00090930B0180930A010E94A81681E08093C9
:1056C00085040E94901920CF813051F49091FB0302
:1056D00089278093FB030E94A8160E94731314CF9E
:1056E000823059F48091FA0311E081278093FA0304
:1056F0000E94A81610938504E4CF833009F004CFEC
:1057000083E490E09A838983BE016F5F7F4F8FEFC0
:1057100093E00E94361688E198E00FB6F894A895B9
:10572000809360000FBE90936000FFCF2091F9033B
:10573000211118C08091FD03882319F01092FD03F8
:10574000E3CE80918304882319F010928304DCCE89
:1057500080918404882309F4D7CE10928404109297
:1057600081044ACF813D9740A105B10508F4CCCE14
:1057700082E080938304C8CE112309F476CE809012
:10578000520690905306A0905406B0905506A4017E
:1057900000915606109157062091580630915906EF
:1057A0008091520690915306A0915406B0915506EF
:1057B00080179107A207B3070CF0FDC08091520635
:1057C00090915306A0915406B091550680935606C9
:1057D00090935706A0935806B09359062FEF3FEFCA
:1057E0008091F7039091F8034817590709F44EC0C8
:1057F000881999094091FA03442319F091958195EC
:10580000910940905A0650905B0660905C0670903B
:105810005D064B825C826D827E8240915E06509175
:105820005F066091600670916106E091F503F0916A
:10583000F603E217F30761F0441A550A660A770A7D
:10584000B301A201483C51056105710508F480E0EF
:105850003093F6032093F5032091830421117AC33A
:10586000209184042111E9C03091F9033111F2C073
:1058700090918204890F853608F4D8C01092820472
:105880000E9490199092F8038092F70385E00E949D
:10589000E803892B29F48091E603882309F47EC369
:1058A00085E00E94E803892B09F096C38CE00E94F2
:1058B000E803892B29F48091F903882309F494C320
:1058C0008CE00E94E803892B09F0D2C385E10E9495
:1058D000700480900C0190900D018816990608F0D4
:1058E00009C4B12CA12C85E10E9470049C01990F80
:1058F000440B550B281939094A095B09AFEFB1E090
:105900000E947032A7019601281939094A095B09DA
:105910000E9451323E5F4F4F5F4F3093DF03209321
:10592000DE0384E10E94700480900C0190900D01D0
:105930008816990608F005C4B12CA12C84E10E94B8
:1059400070049C01990F440B550B281939094A0919
:105950005B09AFEFB1E00E947032A70196012819F0
:1059600039094A095B090E9451323E5F4F4F5F4F30
:105970003093DD032093DC0380E090E0892B09F471
:1059800005CD0E941F05882309F400CD0E94000068
:10599000FDCC112319F0133009F0F1CE80914E06A1
:1059A00090914F06A0915006B0915106B595A795DC
:1059B0009795879569CD00915606109157062091CD
:1059C0005806309159068091520690915306A09145
:1059D0005406B0915506081719072A073B079CF48F
:1059E0008091520690915306A0915406B0915506AD
:1059F0008093560690935706A0935806B093590685
:105A000021E030E0EDCE8091520690915306A091B6
:105A10005406B09155068093560690935706A0936E
:105A20005806B093590630E020E0DACE873018F4FB
:105A30008093820425CF86E0FBCF30918104311121
:105A40004BC03091FD03311105C03091F903332370
:105A500009F442C030918204311115C030918C0498
:105A6000311111C090911001890F893C40F088ECF0
:105A7000809310010E94A8160E943F1401CF843128
:105A8000B8F784E1F5CF211127C03091F903311126
:105A900030C03091F903311196C03091F9033323AE
:105AA00009F4EECE40918204442309F4D1C0415060
:105AB000550B39E0349FF001359FF00D1124EF565E
:105AC000FE4F3081323009F0C3C09085890F853692
:105AD00008F4B8C010865CC030918104311167C0F1
