:100000000C9421040C945D240C9436240C94490423
:100010000C94A8280C940F280C9449040C944904BF
:100020000C9449040C9449040C9449040C9428261B
:100030000C9449040C9449040C9449040C9449040C
:100040000C94EC230C9449040C94C9250C94A3251E
:100050000C9449040C9449040C9449040C944904EC
:100060000C9484240C9449044C4F4144494E472E2F
:100070002E2E2E0000300018000C0009000680040F
:100080002004C00360030003A0024002E0018001DD
:100090002001C000600030002000180010000C009B
:1000A000080006000400455241534500524553459F
:1000B00054004C4F4144005341564500524F544167
:1000C0005445204449535000454E434F4445522027
:1000D0004449520050554C5345204F555400534FFE
:1000E00055524345005253540052554E0054454D0D
:1000F000504F004241434B20544F204D41494E0048
:100100007800464143544F525920524553455400BC
:1001100044454C004241434B20544F204D41494EF1
:10012000007800524553455420414C4C00525354E2
:10013000004C4F41442046524F4D20534C4F5400E9
:100140005341564520544F20534C4F540042414395
:100150004B20544F204D41494E007800524F54419E
:100160005445440044454641554C5400444953507D
:100170000052455645525345440044454641554C6E
:1001800054004449520031205050514E2050554C9B
:1001900053450034205050514E2050554C5345008B
:1001A0003234205050514E2050554C53450050553C
:1001B0004C5345204F4646004F555400435620327D
:1001C0000043562031004E4F4E45005253540043D9
:1001D0005620320043562031004E4F4E45005255B6
:1001E0004E004D4944490031205050514E003220BC
:1001F0005050514E0034205050514E003234205057
:1002000050514E00434C4F434B00494E540045580B
:10021000540042504D0045585400800040002000DA
:10022000180010000C000B000A000900080007006D
:10023000060005000400030002000100FEFFFDFFB0
:10024000FCFFFAFFF8FFF4FFF0FFE8FF435632200F
:100250004D4F4400435631204D4F44005357494EB3
:1002600047004F4646534554004455545900505298
:100270004F424142494C495459004D4F4400535755
:10028000494E47004F464653455400445554592063
:100290004359434C450050524F424142494C495406
:1002A0005900434C4F434B204D4F44004E4F4E4559
:1002B00000435632004356310025004F4646005356
:1002C000484946542048495400250050554C534550
:1002D0002057494454480025004849542043484188
:1002E0004E43450025004D554C5449504C5900781B
:1002F00000444956494445002F00340002020303DC
:10030000020304050500000500050000910000013E
:10031000982004805C2509AD745452B952492806CE
:10032000AADC54192907AA5C624A0A2B079BE5D26A
:100330004A002C059154042D058B66062E05895420
:10034000022F06A4EC631B3008ACEC54349302314A
:1003500007EBEC92AC063209AC6C364A2A8F0033BC
:1003600009AC6C364A1A8D043408AC6CA21CBA0075
:100370003509AC6C86DE6824003609ACEC545E317D
:1003800029003708AC6C468E75043809ACEC544C27
:100390002A26053909ACEC544C3B29003A069955FC
:1003A00052004108ACEC541C53064209AC6C561C7C
:1003B000298E044309ACEC54D43129004408AC6CB8
:1003C000563447024508AC6C861E7A044608AC6C6D
:1003D000865E39034709ACEC544E3329004808AC1B
:1003E0006CA21C53064906A95486004A08ACEC6B63
:1003F0009914004B09AC6CA24A3295014C07AC6CC5
:10040000727B044D09AD74F25A49EB004E09AD748C
:10041000F25449EE004F08ACEC543493025009AC4E
:100420006C561C2967005108ACEC54B4620A52089F
:10043000AC6C561CA9195309ACEC46461A8D0454F1
:1004400007AB64566C015508AC6CA2332900560901
:10045000AD74B24E65CA11570AAD74B24A2AA92EBC
:10046000005809AC6CA24C2ACA00590AAD7472AA91
:1004700033CA28025A07AB64662A077008ADF456DF
:10048000B6D3027107ADF48EAF057208AB64A21A41
:100490002A027406AD74FE237709ADF456A5464EC4
:1004A0000B78069B64520700000004FFFF00000069
:1004B0000000003C007C00FC00FC03FC0FFC0FFC77
:1004C00003FC007C003C000000000000000000383D
:1004D0000E380E380E380E380E380E380E380E38EC
:1004E0000E380E380E000000000000240027002AFD
:1004F0000000000000250028002B00000000002361
:100500000026002900040404040404040402020276
:100510000202020303030303030102040810204044
:1005200080010204081020010204081020000000CD
:1005300008000201000003040700000000000000A2
:10054000001D000404040503010610180000170034
:100550000000013F000002E125270F3B96B1A546B0
:100560004C34428C1812939029426A08519A8C227A
:100570005286C8881164C4181A61ACC4B821002F0F
:100580000CBABABDC948D167E3C601301F7CFB1D58
:10059000434A54103A665787D0883022C48418449E
:1005A000A78CD9EC1009258ACC0031147ABDA5613D
:1005B000A40A993933628C9071F3FF284506321BE7
:1005C0007CFB1D536854103A666CE40C8999C1C6D3
:1005D0005439822367F9E08101331C7CFB1D536889
:1005E00054103A666CE44072B4B392E42C8D1D2230
:1005F000A10695190034207CFB2D2183868C2132A5
:1006000084CC904123088D183562D48851C6ECEC17
:10061000018B95F301351A7CFB0D155B8C9C2F0823
:100620002959316AE8C8591A3B44420D2A33003629
:100630001B7D1B9E5369560C3B67745E9859C282A2
:10064000D439BB3B45624DAA330037137CFB85157B
:100650000F52CE87E4E870CA8123E71D0038207C62
:10066000FB1D536854103A66D9211244C8203A85BC
:1006700086080942C7ECEC100935A8CC00391A7C71
:10068000FB1D536854103A666787482C519372BE1D
:100690001844420D2A330041167D1BA672A7D25082
:1006A000326AC8A811E3ECDD83EFEC770342247DC6
:1006B0001B86446A968C22316CC4B011C3460C1B55
:1006C000318AC4924D46911876CE9E3D08C162098A
:1006D0000043177D1B9E53699610426674FE4F8936
:1006E0008D2044628D222400441B7D1B86446A9623
:1006F0008C1A326CC4B011E3EC7F766CC428124BB8
:10070000D4240245127CFB850F52CE4B44188D9C9D
:100710005F3E78600046107CFB850F52CE9769B231
:100720001939FF1200490773DB843F484C0D7BDB0E
:100730008581F3FF3F7CF060004E247D1B0681E63F
:10074000CC1D3B860A55A24426C69818636488913E
:10075000216646981961282BCCAE3337004F167DA1
:100760001B9E5369968C1A31CEFEBF1B316AC89A04
:1007700054670052318E3B06456B980C23316EC492
:10078000B811E3468C1B316EC43012A388305194EB
:100790006AC8B031A3C6109AD598514486911837CB
:1007A00062DCC10153228E3B9E6389969022316E9A
:1007B000C4B81163C7529A2C5BB283C78E35680EDA
:1007C000151126ABD000540D7D1B860F520D9DFFD9
:1007D000FF150055117CFB8561F6FF9F8D18344491
:1007E0000D2A330056167FF98591F6FFCB11E3866B
:1007F00090224315097227CB0E0358297E3B868130
:10080000068F91183684101922A4860C4367D024D1
:10081000519206CD211B328A08194244868D2076DA
:10082000D0C2017814CABA8541868E9040638A94FA
:100830001924530CB2680000000004FFFF00000000
:10084000CC2811241FBECFEFD8E0DEBFCDBF11E012
:10085000A0E0B1E0E6ECF3E702C005900D92AA3DFE
:10086000B107D9F726E0AAEDB1E001C01D92A83486
:10087000B207E1F714E0C1E2D4E004C02197FE0121
:100880000E94C537C032D107C9F70E94CA2A0C940A
:10089000E1390C940000662329F06A3019F0862FA4
:1008A00090E008958FEF9FEF0895AF92BF92CF929F
:1008B000DF92EF92FF920F93CF93DF93EC01DA0177
:1008C0007901942F9770E1E0F0E09F01092E01C0BB
:1008D000220F0A94EAF7522F6E018AE8C80ED11C43
:1008E000F601808140E0823018F4422F813049F1D6
:1008F0005D01F8EFAF22E8ADF9AD28813981D9016A
:1009000050968C918A9D90018B9D300D1124620F21
:10091000731FDF01A60FB71F01111AC0EA0EFB1EDD
:100920008C91842B85278D93AE15BF05C9F7DF9178
:10093000CF910F91FF90EF90DF90CF90BF90AF904D
:10094000089550E0D5CF440F550FE114F10479F329
:100950003C91342B35273C939F5F9770E1E0EE1A72
:10096000F1089111F0CF2CAD3DADA20FB31FF601F0
:100970008081823028F4813009F051E041E0E5CFF8
:1009800051E0E3CF80E0089590E080E00895109278
:10099000D9031092DA031092DB031092DC03109259
:1009A000DD031092DE031092DF031092E003109239
:1009B000E1031092E4031092E7031092E80310920F
:1009C000E9031092EA031092EF031092F0031092E1
:1009D000F1031092F2031092EB031092EC031092C9
:1009E000ED031092EE0310920D0410920C0420916E
:1009F000090430910A0480E090910B04891760F497
:100A000094E0899FF0011124E20FF31F10821182FC
:100A1000128213828F5FF0CF08951092CC03109250
:100A2000CB03109203041092040410920504109258
:100A300006040E94C704E091D303F091D4033097D9
:100A400009F009940895BC01F894EBECF3E0958764
:100A5000848722853385C9010E94B137708F678BE7
:100A6000C90168E170E00E94B137738F628F78949A
:100A70000895089580931E0508959B01DC01189642
:100A8000ED91FC9141E067E10994833081F028F415
:100A9000813099F08230A9F008958730A9F088302C
:100AA000C9F08430B1F4809180008F7D03C08091C3
:100AB00080008F7780938000089584B58F7784BD00
:100AC000089584B58F7DFBCF8091B0008F778093A0
:100AD000B00008958091B0008F7DF9CFCF93DF9360
:100AE000282F30E0F901E35DFA4F8491F901E75EC8
:100AF000FA4FD491F901EB5FFA4FC491CC23A1F0E6
:100B000081110E944505EC2FF0E0EE0FFF1FE5502C
:100B1000FB4FA591B491EC91ED2381E090E009F4B5
:100B200080E0DF91CF91089580E090E0FACF1F93AD
:100B3000CF93DF93282F30E0F901E35DFA4F8491E2
:100B4000F901E75EFA4FD491F901EB5FFA4FC491D6
:100B5000CC23A9F0162F81110E944505EC2FF0E05F
:100B6000EE0FFF1FEF50FB4FA591B4918FB7F89494
:100B7000EC91111108C0D095DE23DC938FBFDF917B
:100B8000CF911F910895DE2BF8CFCF93DF9390E0A4
:100B9000FC01E75EFA4F24918B5F9A4FFC01849130
:100BA0008823C9F090E0880F991FFC01E951FB4FA1
:100BB000A591B491FC01EF50FB4FC591D491611107
:100BC0000DC09FB7F8948C91209582238C938881D7
:100BD000282328839FBFDF91CF910895623051F47D
:100BE0009FB7F8943C91822F809583238C93E88162
:100BF0002E2BEFCF8FB7F894EC912E2B2C938FBF29
:100C0000EACF3FB7F8948091C4029091C502A091B9
:100C1000C602B091C70226B5A89B05C02F3F19F0A8
:100C20000196A11DB11D3FBFBA2FA92F982F88276C
:100C3000BC01CD01620F711D811D911D42E0660F47
:100C4000771F881F991F4A95D1F708958F929F9219
:100C5000AF92BF92CF92DF92EF92FF926B017C0135
:100C60000E9401064B015C01C114D104E104F104AE
:100C7000B9F00E940106681979098A099B09683E42
:100C800073408105910580F321E0C21AD108E10883
:100C9000F10888EE880E83E0981EA11CB11CE4CFF9
:100CA000FF90EF90DF90CF90BF90AF909F908F908C
:100CB00008952FB7F8946091C0027091C10280919D
:100CC000C2029091C3022FBF08950E94C7040E94E0
:100CD0005906609303047093040480930504909371
:100CE0000604E091D103F091D203309709F0099501
:100CF0008091070490910804892B39F482E090E0F8
:100D00009093CC038093CB03089581E090E0F8CFDB
:100D10000F931F93CF93DF93EC010091CB031091BE
:100D2000CC030E940D05809126059091270505971B
:100D300049F48FB7F89429E335E03093CA03209340
:100D4000C9038FBFD0932705C0932605C230D105B4
:100D5000B9F170F4209731F1C130D10541F1012B87
:100D600009F447C0DF91CF911F910F910C94650654
:100D7000C430D105B9F168F1259789F781E090E099
:100D8000909308048093070488E190E00E94230573
:100D90008FB7F8942CE23DE13093CA032093C90346
:100DA0008FBFDDCF1092080410920704D8CFD093E4
:100DB0000804C093070488E190E00E942305CFCF88
:100DC00081E090E0909308048093070484E090E031
:100DD000F4CF81E090E0909308048093070482E0D0
:100DE00090E0EBCF81E090E09093080480930704BB
:100DF000E4CFDF91CF911F910F9108950895089549
:100E0000AF92BF92CF92DF92EF92FF920F931F9318
:100E1000CF93DF936C017B018B01040F151FEB0156
:100E20005E01AE18BF08C017D10759F06991D6010D
:100E3000ED91FC910190F081E02DC6010995892B7F
:100E400079F7C501DF91CF911F910F91FF90EF903E
:100E5000DF90CF90BF90AF90089520917102260F40
:100E60003327331F21323105ECF420919702FC0126
:100E700090E080E0243069F082E00895A091710252
:100E80002191AC01415B5D4FA40FB52FB11D2C9397
:100E90000196861798F380917102680F6093710232
:100EA00080E0089581E008951092970281E0809398
:100EB00099021092980261E082E10E94970561E038
:100EC00083E10E949705E9EBF0E080818E7F8083CB
:100ED00080818D7F808388E48093B80085E480934F
:100EE000BC000895CF93DF9391E090934E02882346
:100EF000B9F0C091B800D091BA008091BC008A7B53
:100F00008093BC0060E082E10E94970560E083E18D
:100F10000E9497050E945407D093BA00C093B8006E
:100F2000DF91CF910895089508950895E0914602C4
:100F300080914502E81730F4F0E0EB5DFD4F8081D1
:100F400090E008958FEF9FEF089590914602809171
:100F500045022FEF3FEF981748F4E92FF0E0EB5DE3
:100F6000FD4F208130E09F5F90934602C9010895B4
:100F70008091450290914602891B990B0895CF926A
:100F8000DF92EF92FF920F931F93CF93DF937C0139
:100F9000CB018A0120912402222389F0EB016B010D
:100FA000C40ED51ECC15DD0569F06991D701ED9110
:100FB000FC910190F081E02DC7010995F3CF642FDA
:100FC0000E942D07C801DF91CF911F910F91FF90D3
:100FD000EF90DF90CF900895CF93DF931F92CDB71E
:100FE000DEB76983209124022223F9F02091470281
:100FF000203258F021E030E0FC013383228390E07E
:1010000080E00F90DF91CF91089580914802E82F02
:10101000F0E0EC5FFD4F998190838F5F80934802F1
:101020008093470281E090E0ECCF61E0CE01019631
:101030000E942D07F7CFFC01538D448D252F30E002
:10104000842F90E0821B930B541710F0CF960895D5
:1010500001970895FC01918D828D981761F0A28D02
:10106000AE0FBF2FB11D5D968C91928D9F5F9F73C8
:10107000928F90E008958FEF9FEF0895FC01918D7E
:10108000828D981731F0828DE80FF11D858D90E0EB
:1010900008958FEF9FEF0895FC01918D228D892F88
:1010A00090E0805C9F4F821B91098F739927089570
:1010B0008CE293E00E944C0821E0892B09F420E0A7
:1010C000822F089580E090E0892B29F00E94580833
:1010D00081110C9400000895FC01A48DA80FB92F74
:1010E000B11DA35ABF4F2C91848D90E001968F7350
:1010F0009927848FA689B7892C93A089B1898C916F
:10110000837080648C93938D848D981306C00288BD
:10111000F389E02D80818F7D80830895EF92FF9287
:101120000F931F93CF93DF93EC0181E0888F9B8D0A
:101130008C8D98131AC0E889F989808185FF15C0C4
:101140009FB7F894EE89FF896083E889F9898081E7
:101150008370806480839FBF81E090E0DF91CF91B6
:101160001F910F91FF90EF900895F62E0B8D10E0D8
:101170000F5F1F4F0F731127E02E8C8D8E110CC047
:101180000FB607FCFACFE889F989808185FFF5CF92
:10119000CE010E946C08F1CFEB8DEC0FFD2FF11DFD
:1011A000E35AFF4FF0829FB7F8940B8FEA89FB89CF
:1011B00080818062CFCFCF93DF93EC01888D88232D
:1011C000B9F0AA89BB89E889F9898C9185FD03C0AA
:1011D000808186FD0DC00FB607FCF7CF8C9185FF8F
:1011E000F2CF808185FFEDCFCE010E946C08E9CF60
:1011F000DF91CF910895DC011A96ED91FC9130E0DA
:1012000020E00994DC011696ED91FC9130E020E09D
:1012100040E069E10994DC011696ED91FC9130E023
:1012200020E040E068E109949A01DC011696ED9116
:10123000FC91462F67E10994EF92FF920F931F9361
:10124000CF93DF931F92CDB7DEB77C018B01D8011E
:101250006C91673129F150F46531A0F40F90DF9162
:10126000CF911F910F91FF90EF9008956A3118F17F
:101270006E3FA1F7F8014181498369E2C7010E94ED
:10128000FB080BC0F80141814983D7011696ED9107
:10129000FC9130E020E0C70109950E5F1F4FD7CFCA
:1012A000F80181818983AE014F5F5F4F61E0C70123
:1012B0000E941409F2CF0F5F1F4FD7011696ED91D0
:1012C000FC9130E020E040E0C7010995C0CF462FF7
:1012D000DC011696ED91FC9130E020E066E1099486
:1012E000462FDC011696ED91FC9130E020E065E19F
:1012F0000994EF92FF920F931F93CF93DF93EC012A
:10130000042F79016D3009F446C050F46B30C9F1F7
:10131000693009F49FC06A3009F465C080E046C0B6
:101320006E3009F452C06F3099F70E940B09F70133
:101330001381110F110F110F6C89160F60E4CE018C
:101340000E947009612F62956F706061CE010E94EA
:101350007009612F6F70CE010E946709F7016481E7
:10136000606BCE010E946709F70140815181628163
:10137000660F660F660FCE010E9414090150A1F797
:101380002EC061E371E0442311F06CE271E0CE0104
:101390000E941C090AC0411110C065E271E00E9460
:1013A0001C09E881F98182898C8B81E0DF91CF91E2
:1013B0001F910F91FF90EF9008956EE171E00E94F0
:1013C0001C09E881F9818389EFCF0E940B0961E84C
:1013D000CE010E947009602FCE010E946709CE01E4
:1013E0000E940209E2CFEA85FB8530E020E040E080
:1013F00068E2CE010995EE81FF8130E020E040E017
:1014000064E1CE01099541E06BE4CE010E94FB0846
:10141000E881F981448169E2CE010E94FB0840E045
:101420006BE4CE010E94FB08E881F981448169E206
:10143000CE010E94FB0841E06BE4CE010E94FB0854
:10144000E881F981458169E2CE010E94FB0866E3EB
:1014500071E09DCF8BE691E0998388831C8AA5CFAC
:10146000DC011896ED91FC9130E020E040E069E16C
:101470000994DC011896ED91FC9130E020E040E009
:1014800068E10994CF93DF931F92CDB7DEB76983EC
:10149000BE016F5F7F4F0E943D050F90DF91CF919E
:1014A0000895EF92FF921F93CF93DF93EC01162FD5
:1014B0007A010E94390A60E4CE010E94420AE8855E
:1014C000F9859701412F67E1CE010995CE01DF91A2
:1014D000CF911F91FF90EF900C94300AEF92FF9202
:1014E0001F93CF93DF93EC01142F7901663181F1C3
:1014F00038F4643109F44BC0653179F080E022C0E2
:101500006831C9F150F16931C9F78091030288232C
:1015100091F1CE010E94300A2EC0809103028823EF
:1015200019F0CE010E94300ACE010E94390A60E013
:10153000CE010E94420A612FCE010E94420A81E040
:1015400080930302DF91CF911F91FF90EF90089558
:10155000642F0E94420A81E0F5CF80910302882324
:1015600019F0CE010E94300AA701193138F4612F19
:10157000CE010E94510A10920302EDCF68E1CE0124
:101580000E94510A185188E1E80EF11CEDCF8E89B6
:101590008F3F11F488E78E8BE885F9859701412FFD
:1015A00064E1CE01DF91CF911F91FF90EF900994FC
:1015B0000F93FC01E85BFF4F0190F081E02DDF010C
:1015C000A41BB50BAD01FC01EA5BFF4F0190F0815C
:1015D000E02DDF01A61BB70BBD01011113C0415067
:1015E0005109621B730BFC01E05CFF4F0190F0811D
:1015F000E02D4E1B5F0BDC01D496ED91FC9109951B
:101600000F910895013079F761507109421B530B16
:10161000EACFCF93DF93FC01A081B18182AD90E04E
:101620009C0143E0220F331F4A95E1F737AF26AF05
:1016300050962C91509748E0249F9001112435AF8B
:1016400024AF23AD30E0B90153E0660F771F5A9500
:10165000E1F7EF01C05CDF4F7983688351964C91CD
:101660005197E901C80FD91F50E04C175D0718F4D6
:10167000CA01821B930BEF01CE5BDF4F7983688336
:10168000229623E0880F991F2A95E1F7860F971F6E
:1016900099838883229654968D919C91559799832E
:1016A0008883E85BFF4F56968D919C919183808350
:1016B000DF91CF9108950F931F93FC01E25BFF4FE1
:1016C0000190F081E02DDC01A05BBF4F0D90BC913B
:1016D000A02D4A175B0740F4E017F10748F0041704
:1016E000150730F080E019C0E017F107C0F3FACF1A
:1016F000FC01E65BFF4F40815181845B9F4FFC0101
:10170000808191816817790758F481E04217530767
:1017100020F081E02617370728F71F910F910895D1
:1017200042175307B0F3DECF2F923F924F925F9252
:101730006F927F928F929F92AF92BF92CF92DF92E1
:10174000EF92FF920F931F93CF93DF93CDB7DEB746
:1017500028970FB6F894DEBF0FBECDBF98878F8352
:10176000865B9F4F9A838983FC0111821082EF81EF
:10177000F885EA5BFF4F208031802F813885245B1C
:101780003F4F3C832B83F90131822082EF80F88424
:10179000FEE4EF0EF11CF70111821082EF81F88553
:1017A000E85BFF4F40805180EF81F885EC5BFF4F95
:1017B000208131814216530630F0C201821B930B07
:1017C000F70191838083EF81F885EE5BFF4F2081E5
:1017D0003181421A530A2F813885205B3F4F3E8367
:1017E0002D83F90151824082EF81F885E85AFF4F3D
:1017F00060807180EF81F885EC5AFF4FA080B18046
:10180000EF81F885EA5AFF4FC080D180EF81F885DB
:10181000EE5AFF4F8080918083019501A601B401AB
:101820008F8198850E945B0B2F8138852C573F4F05
:1018300038872F8381111BC0F901108228960FB6BB
:10184000F894DEBF0FBECDBFDF91CF911F910F91F6
:10185000FF90EF90DF90CF90BF90AF909F908F90D0
:101860007F906F905F904F903F902F90089581E010
:10187000EF81F88580838114910421F0E981FA8158
:1018800091828082A214B30420F4EB81FC81B182A6
:10189000A082F701808191818C159D0510F4D18281
:1018A000C0826414750450F6ED81FE8171826082FD
:1018B000C5CF0F93CF93DF93E02FDC01AC57BF4F21
:1018C000FC91FF2309F460C02115310509F45CC0C7
:1018D0002230310538F0023009F04AC06F5F7F4F87
:1018E000621B730B0E2F0170E0FD52C0FC01E25B26
:1018F000FF4F0190F081E02D4E175F0708F444C0C0
:10190000FC01E05BFF4F0190F081E02D4E175F0777
:10191000D8F5FC01E45BFF4F0190F081E02DDC0184
:10192000A65BBF4F0D90BC91A02D260F371F261729
:10193000370738F56E177F0718F59F0121503109D9
:10194000A217B30708F56A177B0708F4BD012E1725
:101950003F0708F4F901E61BF70BEC01AEA9BFA99C
:1019600014960D90BC91A02D9F01FD0109950CC00E
:10197000033009F0B7CF4F5F5F4F421B530BB2CF1D
:10198000BD016E177F07E0F2DF91CF910F910895AF
:10199000FC01E65BFF4F0190F081E02D6E177F07A1
:1019A00098F3FC01E45BFF4F0190F081E02D6E178E
:1019B0007F0750F7FC01E05BFF4F0190F081E02DC5
:1019C000DC01A25BBF4F0D90BC91A02D240F351FF1
:1019D00024173507A8F44E175F0788F49F0121509C
:1019E0003109A217B30780F64A175B0708F4AD0167
:1019F0002E173F0708F4F901E41BF50BAECFAD013C
:101A00004E175F0708F6EDCF0F932091E204309157
:101A1000E30462177307F0F02091E4043091E504C9
:101A200062177307B8F42091DE043091DF04821747
:101A3000930780F02091E0043091E104821793072E
:101A400048F4AB01BC0100E021E030E084E994E01F
:101A50000E94590C0F9108955F926F927F928F921E
:101A60009F92AF92BF92CF92DF92EF92FF920F932D
:101A70001F93CF93DF93EC017B018A016C01C41AA1
:101A8000D50A4817590718F06A01C81AD90A2E153D
:101A90003F0560F44701821A930AC814D90448F13B
:101AA0000C171D0708F459C0512C18C049018E1895
:101AB0009F08C814D90408F05EC09C2D8D2D6401C8
:101AC000892E982E902F812F8901292F382F9C2F16
:101AD0008D2FE701E92EF82E552453943601769484
:101AE0006794E216F30608F442C0AA24AA94BA2C1A
:101AF00021C09C2D8D2D6401892E982E9E2D8F2D19
:101B00007801092F182F9C2F8D2FE901292F382FAD
:101B1000E3CFB701CE01552011F0BE01C7010E94ED
:101B2000040D6818790877FE04C0EA0CFB1C6C0CE5
:101B30007D1C21960C171D0760F7DF91CF911F9137
:101B40000F91FF90EF90DF90CF90BF90AF909F905C
:101B50008F907F906F905F90089536017694679490
:101B6000902F812F8E01C92FD82F7901512CAA24B3
:101B7000A394B12CDFCF0C171D0708F095CF3601C9
:101B800076946794902F812F8E01C92FD82F7901D9
:101B9000512CABCFAF92BF92CF92DF92EF92FF92D8
:101BA0000F931F93CF93DF936C01EB015A017B01DD
:101BB000E20EF31E9C01240F351F8701AB01BC010F
:101BC00084E994E00E945B0B882361F000E09501BA
:101BD000AE01B60184E994E00E94590C2196EC16FE
:101BE000FD06A1F7DF91CF911F910F91FF90EF902C
:101BF000DF90CF90BF90AF900895213069F038F01A
:101C0000223079F0840F911D47FD9A950895860F33
:101C1000911D67FD9A950895841B910947FD939541
:101C20000895861B910967FD93950895213069F009
:101C300038F0223079F0861B910967FD939508955D
:101C4000840F911D47FD9A950895860F911D67FD9C
:101C50009A950895841B910947FD939508953F92A5
:101C60004F925F926F927F928F929F92AF92BF92AC
:101C7000CF92DF92EF92FF920F931F93CF93DF9358
:101C80007C01162F442EEC01C25ADF4F5E806F801C
:101C90006C018AE8C80ED11C78847518312E711633
:101CA00008F4372C8C809D800E85202F462D652DC5
:101CB0008A819B810E94FD0D5C01202F462D652DA0
:101CC000C4010E94160EAC01442079F08C85F60107
:101CD0008083232D30E0B501C7010E94590C1715F0
:101CE00048F017196394512CD7CF8B858111F7CF0A
:101CF0008D85EDCF150D1E836F82DF91CF911F91E2
:101D00000F91FF90EF90DF90CF90BF90AF909F909A
:101D10008F907F906F905F904F903F900895DC017F
:101D20001A964C911A97ED91FC911197249130E0FD
:101D3000042E02C0359527950A94E2F7842F860F6A
:101D4000883068F031961196FC93EE93E49198E018
:101D5000941B01C0EE0F9A95EAF72E2B88501A9625
:101D60008C938FEF9FEF01C0880F6A95EAF78095FB
:101D7000822308950F931F93CF93DF938C01EC017F
:101D8000C25ADF4F798368831A86FC01EF58FF4FF0
:101D90006081CE010E948F0E8887F801EE58FF4FB8
:101DA0006081CE010E948F0E8987F801E657FF4FB0
:101DB00090819C8781E0911180E08D87DF91CF91A8
:101DC0001F910F910895CF93C62F0E948F0EC1507F
:101DD00021E030E001C0220FCA95EAF7821BCF91C3
:101DE0000895FC01E60FF11D849190E0982F88275B
:101DF0003196E4918E0F911D0895CF93DF9320913A
:101E0000EE043091EF042817390709F490C0EC0173
:101E10009093EF048093EE04FC018491809301057C
:101E20003196E491E0930205FE013296E491E0934D
:101E30000305FE013396E491E0930405FE01349618
:101E4000E491E0930505FE013596E491E0930605E3
:101E5000FE013696E491E0930705FE013796E49182
:101E6000E0930805FE013896E491E0930905FE0130
:101E70003996E491E0930A05FE013A96E491E093E5
:101E80000B05FE013B96E491E0930C05FE013C96A8
:101E9000E491E0930D05FE013D96E491E0930E057B
:101EA000FE013E96E491E0930F05FE013F96E4911A
:101EB000E0931005FE017096E491E093110561E155
:101EC000CE010E94F10E909313058093120563E1F9
:101ED000CE010E94F10E909315058093140565E1E3
:101EE000CE010E94F10E9093170580931605809104
:101EF000EE049091EF04892BD1F080910E05809330
:101F00001A0540910F0540931B05909119059923DF
:101F100071F0913079F490911005891714F4909331
:101F20001A0580911105841714F480931B05DF9125
:101F3000CF91089530910B0520910D05082E000CCE
:101F4000990B622F022E000C770B630F711D37FD6A
:101F50007A95861797071CF4320F30931A052417C9
:101F600034F720931B05E3CFEF92FF920F931F935B
:101F7000CF93DF93FC01E65AFF4F20813181295E28
:101F80003F4F6F3F710509F048F561367105D8F094
:101F900080589F4FFC0180819181280F391FC90112
:101FA0000196FC014491442309F447C0F90144918E
:101FB0004617170671F40196DF91CF911F910F918B
:101FC000FF90EF9008956134710548F382589F4F58
:101FD000E1CFFC018491280F311DE1CF8B01FC0181
:101FE000EE57FF4FC081D181C20FD31F7E0160E049
:101FF000C7010E94F10EC80FD91F62E0C7010E94FD
:10200000F10EF4E0EF0EF11C8017910780F3FE0152
:10201000849190E0982F88273196E4918E2B009739
:1020200061F00817190719F4CE010396C5CFFE0118
:102030003296E491CE0FD11DEACF90E080E0BCCF84
:10204000CF92DF92FF920F931F93CF93DF93109263
:10205000FA041092AC046C0180ECF82E10E000E061
:10206000D0E0C0E0F60161916F01E0919604F0913B
:10207000970484E994E009958F3F980789F18E3F92
:102080002FEF920779F3BC0184E994E00E94B40F2A
:10209000009721F1BC0184E994E00E94BA0E60919E
:1020A000070582EF94E00E94E30E80931C05609187
:1020B000080582EF94E00E94E30E6091090582EF2B
:1020C00094E00E94E30E082F880F110B80ECF812A9
:1020D00002C0F0901C05C00FD11FC4CF80E0F3CF29
:1020E0002091FA04222399F080911C05022E000C05
:1020F000330B280F311D87FD3A95C20FD31FC01B2C
:10210000D10B1F1424F4CF0DD11DF7FCDA95CE01AD
:10211000DF91CF911F910F91FF90DF90CF900895A5
:102120008F929F92AF92BF92CF92DF92EF92FF92E7
:102130000F931F93CF93DF93EC017B018A01690119
:10214000FC01E459FF4F8081813009F46FC008F42D
:1021500062C0823009F475C0833009F47DC0FE018D
:10216000E05AFF4FF182E082329611830083B6017C
:10217000CE010E94B40F009709F4FFC07E012EE546
:10218000E20EF11CBC01CE010E94BA0EFE01E9591B
:10219000FF4FB0803C966081C7010E94E30E882EFD
:1021A000FE01EC58FF4F6081C7010E94E30E082F2B
:1021B000FE01EB58FF4F6081C7010E94E30EA82E7D
:1021C000F701908419140CF090C016850B0D019541
:1021D000212F402F682D828193810E94FD0D6C017B
:1021E000F70193838283212F402F682D848195816D
:1021F0000E94160EAC01F70195838483113009F417
:1022000084C0A8F1123009F491C0133009F4A4C0BD
:102210008C01960136C0FE01E45AFF4F0190F08117
:10222000E02DCE010995080F191F99CFFE01E45A40
:10223000FF4F0190F081E02DCE010995E81AF90ACF
:102240008ECFFE01E45AFF4F0190F081E02DCE01C8
:102250000995081B190B83CFFE01E45AFF4F01902B
:10226000F081E02DCE010995E80EF91E78CF960198
:10227000290D311D97FC3A958C010B0D111DB7FCF2
:102280001A95B601CE010E945B0B882371F1F7010C
:10229000168217828E0101591F4F6E01F0E7CF0E93
:1022A000D11CF8016081C7010E948F0E882EF601B3
:1022B0006081C7010E948F0E982E40E0682DCE01EC
:1022C0000E942F0E41E0692DCE010E942F0E61E089
:1022D000C7010E948F0E8111F0CFF70187818B1506
:1022E00004F3C657DF4F848588838A2DAA0C990B87
:1022F000DF91CF911F910F91FF90EF90DF90CF90E2
:10230000BF90AF909F908F90089581E090E08B19DF
:102310009109B7FC939596012F5F3F4F8A01090DF4
:10232000111D97FC1A95C80ED91EABCF81E090E025
:10233000BC016919710997FC739596012F5F3F4F96
:102340008B199109B7FC93958A010F5F1F4F480FB6
:10235000591FC60ED71E95CF96012B0D311DB7FC08
:102360003A9581E090E08919910997FC93958A014B
:102370000F5F1F4F480F591F84CF90E080E0B8CF08
:10238000CF92DF92EF92FF920F931F93CF93DF9341
:10239000EC018B011092AC047A01D12CC12CF70115
:1023A00061917F01E0919604F091970484E994E0B3
:1023B00009958F3F980719F18E3F2FEF920779F318
:1023C0009C01A801BE0184E994E00E949010209134
:1023D0000005213059F038F0223059F0233061F0F7
:1023E000C80ED91EDCCFC80FD91FFACF080F191F8E
:1023F000F7CFC81BD90BF4CF081B190BF1CFC601BF
:10240000DF91CF911F910F91FF90EF90DF90CF90D0
:102410000895CF93DF93EC016BAFEEA9FFA9019074
:10242000F081E02D0995EEA9FFA90280F381E02D4E
:10243000CE01DF91CF910994AF92BF92CF92DF92FC
:10244000EF92FF920F931F93CF93DF9300D000D0B2
:102450001F92CDB7DEB78C01DC01DA96AC90DA972B
:10246000DB96EC90DB97ED91FC91B188FE2CD12CA2
:10247000C12CD801ED91FC9111978089D8962D91AE
:102480003C911C82FD828B83B8E08B9FC00111249C
:102490008C9DA0018D9D500D9C9D500D1124240FED
:1024A000351F3A832983D8011496ED91FC919E0142
:1024B0002F5F3F4F41E06FE0C8010995F3948F2DE6
:1024C0008E198A1528F4BFEFCB1ADB0AFB1488F2A9
:1024D0000F900F900F900F900F90DF91CF911F9161
:1024E0000F91FF90EF90DF90CF90BF90AF90089545
:1024F000CF92DF92EF92FF920F931F93CF93DF93D0
:10250000EC01962F683109F44BC0B901993130F4D0
:102510009431C9F0973189F080E006C0993109F40F
:1025200061C09032C9F781E0DF91CF911F910F9187
:10253000FF90EF90DF90CF90089550E080E293E01D
:102540000E94BF07F0CF8C859D85AE85BF85892B06
:102550008A2B8B2B71F4E881F981A585B0E020EA04
:1025600036E841E050E00E9479366C877D878E879F
:102570009F871092460210924502109248021092D4
:1025800047020E94540783E997E09093700280937A
:102590006F0284E997E09093740280937302C3CF33
:1025A0002C853D854E855F8560E074E284EF90E088
:1025B0000E94C3362051310941095109569547956A
:1025C000379527952093B8008E8990E0959587954B
:1025D00091E090932402809302021092480210929C
:1025E0004702A1CFD0914702D13208F093C0C091E9
:1025F00002020E9401066B017C0180919702811109
:1026000064C082E08093970281E0809399028FEF0B
:10261000809396021092BB02D093BA02A4E0B2E07B
:10262000EAE9F2E080E0D8137CC01092BC0280910D
:10263000BC02CC0FC82BC093BC02809198028130A1
:1026400009F073C0109298020E9401066B017C0190
:102650008091BC028093BB0080914A0290914B0212
:10266000A0914C02B0914D02892B8A2B8B2B99F0B3
:102670000E94010600914A0210914B0220914C02E7
:1026800030914D026C197D098E099F0906171707B5
:1026900028073907D8F18091BC0083FDD9CF85EC9C
:1026A0008093BC000E9401066B017C01809197021F
:1026B0008230E9F1809196028F3F61F1809196021C
:1026C000803241F18091960225C080914A0290911A
:1026D0004B02A0914C02B0914D02892B8A2B8B2B7F
:1026E00009F48BCF0E94010600914A0210914B021F
:1026F00020914C0230914D026C197D098E099F0981
:10270000061717072807390708F077CF8091490285
:102710000E947207109248021092470210922402FF
:1027200002CF9D9191938F5F7ECF85EEB9CF80913F
:102730004A0290914B02A0914C02B0914D02892B1C
:102740008A2B8B2B09F4B2CF0E94010600914A021A
:1027500010914B0220914C0230914D026C197D0971
:102760008E099F09061717072807390708F09ECF1B
:10277000CDCF0F931F93CF93DF938C01C62F642F80
:10278000CC32E8F4CA3208F041C0C83271F1C93223
:1027900009F442C080E0C034D0F1CF73F801EC0FEF
:1027A000F11D868D8F3F91F1C031E0F00E946E05E2
:1027B00021E0892B09F420E0F801218F27C0CD32D8
:1027C00089F140F384EB8C0F823020F7CF73C00F78
:1027D000D12FD11D8E8D411133C061E00E94C505FE
:1027E00060E08E8D0E94970511C0025E1F4FD0E001
:1027F000F80181918F018F3F31F061E0D03108F015
:1028000062E00E94C505DF5FD63191F781E0DF917C
:10281000CF911F910F91089570E090E080E00E94A9
:102820002606F4CF85E090E0433010F082E090E09F
:10283000880F991F880F991F05970197F1F7E6CF29
:1028400062E00E94C505E2CFCF92DF92EF92FF9245
:102850000E94253520E034E244E759E40E94F43632
:102860009B01AC0160E070E080E89FE30E94F436D9
:102870006B017C01AC019B0160E074E284E79BE4A6
:102880000E94F4360E946D376F3F2FEF720781056B
:10289000910508F47CC020E030E040E051E4C7013D
:1028A000B6010E9486359B01AC0160E074E284E7CA
:1028B0009BE40E94F4360E946D376F3F2FEF720742
:1028C0008105910508F465C020E030E040E852E45D
:1028D000C701B6010E9486359B01AC0160E074E23D
:1028E00084E79BE40E94F4360E946D376F3F2FEF20
:1028F00072078105910508F44EC020E030E040E801
:1029000053E4C701B6010E9486359B01AC0160E02B
:1029100074E284E79BE40E94F4360E946D376F3FB7
:102920002FEF720781059105C0F120E030E040E80B
:1029300054E4C701B6010E9486359B01AC0160E0FA
:1029400074E284E79BE40E94F4360E946D376F3F87
:102950002FEF720781059105A8F425E0F8941092F5
:1029600081006150710970938900609388008091A3
:10297000810088608093810080918100282B2093C2
:1029800081007894FF90EF90DF90CF90089521E040
:10299000E5CF22E0E3CF23E0E1CF24E0DFCFCF9209
:1029A000DF92EF92FF9220910704309108042130CA
:1029B0003105D1F16B017C0120E030E040E85FE3BC
:1029C0000E94203587FD30C020E030E048EC53E421
:1029D000C701B6010E949C37181634F1F894C092D2
:1029E000FF03D0920004E0920104F0920204789474
:1029F0006091D5037091D60390E080E00E94253568
:102A00009B01AC0160EC71EE84E69CE40E94F4361C
:102A1000A70196010E94F4360E946D37FF90EF9057
:102A2000DF90CF900C942414FF90EF90DF90CF9024
:102A300008956CEF8CE293E00C948E0868EF8CE2C2
:102A400093E00C948E08CF92DF92EF92FF920F9357
:102A50001F93CF93DF93EC0188810E946E058C0158
:102A60000E945906CA80DB80EC80FD80AB01BC016E
:102A70004C195D096E097F090115110561F4898101
:102A8000813031F491E04B3051056105710508F456
:102A900090E080E00EC001301105D1F789818111ED
:102AA000F7CF81E04B3051056105710508F480E0F6
:102AB00090E01F821E829923B1F081E090E09F8315
:102AC0008E830E9459066B017C01CA82DB82EC82F4
:102AD000FD820983DF91CF911F910F91FF90EF90BD
:102AE000DF90CF900895882381F30E9459062EEE3F
:102AF000C20E22E0D21EE11CF11C6C157D058E0574
:102B00009F0550F482E090E09F838E83E885F985ED
:102B10003097B9F20995D5CF83E090E09F838E83FB
:102B2000EA85FB85F5CF0F931F93CF938C01C62FBA
:102B300062E08C2F0E94C505F801C0838C2F0E9493
:102B40006E05F8018183CF911F910F910895CF9267
:102B5000DF92EF92FF92CF93DF93EC0189819A810C
:102B60009C838B8388818E3008F08E5087708064C0
:102B700080937C0080917A00806480937A008091B9
:102B80007A0086FDFCCFA0917800B0917900CF80CB
:102B9000D8840D2C000CEE08FF0829853A85032EF9
:102BA000000C440B550B2C193D094E095F090E947E
:102BB00084362FEF33E040E050E00E945A36DA01CD
:102BC000C9018C0D9D1DAE1DBF1D092E000CAA0B49
:102BD000BB0B4D815E81052E000C660B770B841BB1
:102BE000950BA60BB70B81152EEF92072FEFA207BF
:102BF000B207DCF0813022E09207A105B10524F094
:102C000080E092E0A0E0B0E09A8389832B852223C4
:102C100029F09195819591099A838983DF91CF91CC
:102C2000FF90EF90DF90CF90089580E09EEFECCF83
:102C3000CF92DF92EF92FF920F931F93CF93DF9388
:102C40006C01EB017B01E40EF51E10E000E0CE15F7
:102C5000DF0561F06991D601ED91FC910190F08161
:102C6000E02DC6010995080F191FF1CFC801DF91AA
:102C7000CF911F910F91FF90EF90DF90CF9008952B
:102C8000CF92DF92EF92FF920F931F93CF93DF9338
:102C9000EC016C0124E0C20ED11CFC01E057FF4F97
:102CA0000190F081E02DC60109958E3FEFEF9E0760
:102CB000D8F48E010C561F4FF801408151817E01DE
:102CC000F2E9EF0EF11CF701608171819C01C601F0
:102CD0000E949010C059DF4F28812130C1F078F058
:102CE0002230B9F02330E9F081E090E0DF91CF911C
:102CF0001F910F91FF90EF90DF90CF900895F70113
:102D000020813181820F931F91838083EDCFF80161
:102D1000F7CFF70120813181281B390B31832083C4
:102D2000E3CFF801F7CF90E080E00895BC01990F60
:102D3000880B990B0E9427350C94CF148091C10504
:102D40009091C2050E94961680913C0690913D0696
:102D50000E9488068091410680936405E091980462
:102D6000F091990430E020E0409142066DE084E962
:102D700094E00994CF92DF92EF92FF928091070442
:102D800090910804019749F58091090490910A04F3
:102D900020910B04E22FF0E0E150F04CEE0FFF1F0A
:102DA000EE0FFF1FE80FF91F40815181628173818F
:102DB000452B462B472B89F0FC0130E060E070E0AA
:102DC000CB012317E1F0C190D190E190F1906C0D0F
:102DD0007D1D8E1D9F1D3F5FF4CFC090FF03D090DF
:102DE0000004E0900104F0900204C701B6010E94C3
:102DF0006637CB01FF90EF90DF90CF90089561157B
:102E000071058105910549F330E050E040E00E94F2
:102E1000C336A091D703B091D8030E9484360E9494
:102E200025359B01AC0160EC71EE84E69CE40E94C8
:102E3000F4366B017C0120E030E040E85FE30E9463
:102E4000203587FD11C020E030E048EC53E4C70195
:102E5000B6010E949C37181644F6C12CD12C88EC80
:102E6000E82E83E4F82EC1CFC12CD12C90E8E92EB6
:102E70009FE3F92EBACFCF93DF93CDE2D5E060E0A8
:102E800088810E9497051982279685E0C735D80763
:102E9000B1F7DF91CF910895FC01493151052CF430
:102EA0001616170674F06FEF7FEF90819B01290FC4
:102EB000311D37FD0CC02417350734F041504083D5
:102EC000089561E070E0F1CF492F460FF8CF40E060
:102ED000F6CF0F931F93CF9347E050E0BC0187E3F9
:102EE00096E00E944C17109235060CEB15E0C1E0FD
:102EF000F801C0830E945906F801618372838383BD
:102F00009483C0934306CF911F910F9108958091B0
:102F10008C050E946E05892BF9F48091370681118A
:102F20000CC0E1ECF5E091E08685892786877396F1
:102F300086E0E333F807C1F708958150990B23E148
:102F4000289FF001299FF00D1124ED53FA4F84853D
:102F500091E08927848708958091CB039091CC03D9
:102F6000892B41F40E9465060E943B1781E0809303
:102F7000430608950E940D05F7CF8F929F92AF925E
:102F8000BF92CF92DF92EF92FF920F931F938091A7
:102F90003C0690913D06009711F0059791F40E9430
:102FA0003B170E94C70481E0809343061F910F9155
:102FB000FF90EF90DF90CF90BF90AF909F908F9059
:102FC00008958091070490910804019761F7F8949F
:102FD0008091CB039091CC038130910521F0029731
:102FE00099F07894E0CF82E090E09093CC038093C6
:102FF000CB030E9401066093EB037093EC03809374
:10300000ED039093EE03EDCF0E940106AB01BC01EE
:103010008091EB039091EC03A091ED03B091EE034E
:10302000481759076A077B0708F46FC08A019B019C
:10303000081B190B2A0B3B0BD901C8018093F7031E
:103040009093F803A093F903B093FA034093EB0332
:103050005093EC036093ED037093EE034091EF0304
:103060005091F0036091F1037091F2034F5F5F4F55
:103070006F4F7F4F4093EF035093F0036093F10342
:103080007093F20320910C0430910D042F5F3F4F99
:1030900030930D0420930C0440910B044217130647
:1030A00009F020F410920D0410920C0420910C04ED
:1030B00030910D04220F331F220F331FE0910904BA
:1030C000F0910A04E20FF31F80839183A283B383FC
:1030D0008091EF039091F003A091F103B091F2037E
:1030E0002091F7033091F8034091F9035091FA03CE
:1030F0000197A105B10591F42093F3033093F403F4
:103100004093F5035093F6036CCF80959095A0956E
:10311000B095840F951FA61FB71F90CF8090F30323
:103120009090F403A090F503B090F603A4E2B0E011
:103130000E9479366B017C01ACEDB0E0A5019401F1
:103140000E947936C60ED71EE81EF91ECD2CDE2C45
:10315000EF2CFF24C092F303D092F403E092F50326
:10316000F092F6033ECF24E030E044E050E064E02B
:1031700070E088E390E00C94CA0D8F929F92AF921A
:10318000BF92CF92DF92EF92FF920F931F93CF9354
:10319000DF935C017B018AEF92E00E94FD0EC091FB
:1031A0003506670121E0C21AD108CC151D0409F0CB
:1031B000B3C0C33008F0C2E03EE0C39FE001112479
:1031C0004E0182E0880E911C80914006882309F40C
:1031D000ABC02FE030E04FE350E0B40181E490E079
:1031E0000E94CA0D81E00E943A0530E020E043E0F1
:1031F00050E070E060E090E080E00E942C0D23E061
:1032000030E050E040E070E060E090E080E00E945C
:103210002C0D30E020E04DE350E070E060E080E411
:1032200090E00E942C0D23E030E040E450E070E09C
:1032300060E080E490E00E942C0D2EE230E040E45B
:1032400050E061E370E080E490E00E942C0D21E307
:1032500030E04DE350E061E370E080E490E00E94F4
:103260002C0D21E330E043E050E061E370E090E0BA
:1032700080E00E942C0D2EE230E050E040E061E35F
:1032800070E090E080E00E942C0D82E00E943A0500
:1032900020913506822F90E0C816D90609F081C02A
:1032A000F3E0EF1AF10826E02E9DC0012F9D900D4E
:1032B0001124A80EB91ECDE0D0E00BE414E08CE799
:1032C000C82ED12CF501E080F18010939704009373
:1032D0009604C7010E94201010939704009396044F
:1032E000A701BE019601281B390BC9010E94C0111C
:1032F00036E0A30EB11C2E96C733D10519F7DF9126
:10330000CF911F910F91FF90EF90DF90CF90BF90E2
:10331000AF909F908F900895C11103C0D0E0C0E09E
:103320004FCFCEE0D0E04CCF8E010F5E1F4F20E894
:1033300030E0A40161E470E084E994E00E945B0B5A
:10334000882309F4A5CF00E02FE330E0A40161E475
:1033500070E084E994E00E94590C4E01E3E08E0E87
:10336000911C01E02DE030E0A40161E470E084E90B
:1033700094E00E94590C2DE030E0A4016FE770E06A
:1033800084E994E00E94590CAE01405F5F4F00E079
:103390002FE330E061E470E084E994E00E94590C8E
:1033A00077CFF12CE12C222309F47DCF7C0121E0A1
:1033B000E21AF10878CFEF92FF920F931F93CF9309
:1033C000DF93EC017B01CA010E94FD0E0BE414E0C7
:1033D0001093970400939604CE010E94201010933E
:1033E00097040093960497FD01969595879591957E
:1033F00081959109AE01B7018096DF91CF911F9120
:103400000F91FF90EF900C94C0118F929F92AF920A
:10341000BF92CF92DF92EF92FF92CF93DF93EC01B6
:10342000ED81F0E0EE0FFF1FEC58FF4FC590D490F8
:10343000F12CE12C8F8134E6832E912CA12CB12C20
:10344000A5019401281B310941095109C701B601A1
:103450000E94A13721E030E0683C710581059105AB
:1034600024F0A50194010E945A363E872D87888555
:1034700094E6892E912CA12CB12CA5019401281B36
:10348000310941095109C701B6010E94A137A501BF
:1034900094010E945A36388B2F878985833308F12F
:1034A0008253990B092E000CAA0BBB0BA5019401AA
:1034B000281B390B4A0B5B0BC701B6010E94A137D1
:1034C000A50194010E945A363A8B298BDF91CF9146
:1034D000FF90EF90DF90CF90BF90AF909F908F9034
:1034E00008951A8A198AF2CFAF92BF92DF92EF92B3
:1034F000FF920F931F93CF93DF938C01EC0188E72A
:1035000090E089939993580184E7A80EB11C80E15B
:10351000D82E94E6E92E22E3F22ED882E982FA82AE
:103520001B82FC82DD82EE82FF821886F9861A8673
:103530001B86CE010E94051A6396CA15DB0569F742
:103540001882F801EB58FF4F1082319610823196A5
:103550001082319610823196108231961082319607
:1035600011821082329683E090E0918380833296BC
:1035700010823196108231961082319681E08083DC
:10358000DF91CF911F910F91FF90EF90DF90BF904F
:10359000AF9008952F923F924F925F927F928F92B9
:1035A0009F92AF92BF92CF92DF92EF92FF920F93D2
:1035B0001F93CF93DF93EC01762E590147018A8543
:1035C000312C212C861324C0052E000C660B770BA2
:1035D0009A01AB013E5F4F4F5F4FB701FF0C880B65
:1035E000990B6801012E000CEE08FF086C197D098B
:1035F0008E099F090E94A13720E034E040E050E0AE
:103600000E945A3619012A012C0C3D1C4E1C5F1CCD
:103610008B8530E020E0871121C06801110FEE0892
:10362000FF089501BB0C440B550B3E5F4F4F5F4F9E
:10363000092C000CAA08BB08C501B4016C197D094E
:103640008E099F090E94A13720E034E040E050E05D
:103650000E945A362C0D3D1D4E1D5F1DC101820F6B
:10366000931FDF91CF911F910F91FF90EF90DF900B
:10367000CF90BF90AF909F908F907F905F904F9032
:103680003F902F900895FC018285811106C081E052
:103690009385911103C080E0089581E008950F9310
:1036A0001F93CF938C01C0E077FD06C0643671058F
:1036B00014F063E670E0C62FF801C383C8010E94CE
:1036C000431B811108C0F801C087C801CF911F9129
:1036D0000F910C94051ACF911F910F9108950F939C
:1036E0001F93CF938C01C1E01616170634F464368D
:1036F000710514F063E670E0C62FF801C283C801BB
:103700000E94431B811108C0F801C783C801CF91F3
:103710001F910F910C94051ACF911F910F9108954D
:103720000F931F93CF938C01C0E077FD06C06536E1
:10373000710514F064E670E0C62FF801C183C8017A
:103740000E94431B811108C0F801C683C801CF91B4
:103750001F910F910C94051ACF911F910F9108950D
:103760000F931F93CF938C01C0E077FD06C06931A2
:10377000710514F068E170E0C62FF801C083C8013C
:103780000E94431B811108C0F801C583C801CF9175
:103790001F910F910C94051ACF911F910F910895CD
:1037A000CF93DF93EC0160E08D810E9497051E822C
:1037B000DF91CF910895CF92DF92EF92FF920F9316
:1037C0001F93CF93DF931F92CDB7DEB78C0180910B
:1037D0008C050E946E05892B69F4C8010E94691747
:1037E0000F90DF91CF911F910F91FF90EF90DF909D
:1037F000CF900895809137069091400691110CC0AA
:103800004BE050E0882311F047E050E0B80185E339
:1038100096E00E944C1728C0E0913506811174C0D3
:10382000EB3010F5F0E0E95EF34E0C94C537221C46
:10383000501C381C441C631C7B1C7B1C811C811C81
:103840007B1C7B1C8091070490910804019761F018
:103850000E94BA16800F911F0E9496160E94BA16F7
:103860009093C2058093C10581E080934306B8CF51
:1038700043E050E0B80186E396E00E944C17809147
:10388000360680933A06F0CF43E050E0B80186E375
:1038900096E00E944C178091360680933B06E4CF59
:1038A00080913C06898346E050E0B801CE01019644
:1038B0000E944C17898190E090933D0680933C06CE
:1038C0000E948806D1CF80913E06898344E050E073
:1038D000B801CE0101960E944C17898190E0909327
:1038E0003F0680933E06892B09F0BECF82E595E026
:1038F0000E94D01BB9CF42E050E0B80186E396E0C9
:1039000088CF4BE050E0F9CF8150990B43E1489FBD
:103910009001499F300D1124A9014D535A4F7A014E
:10392000E73008F0A1CFF0E0E856F34E0C94C5372D
:103930009F1CAF1CBF1CCF1CDF1C0B1D191D23E1DE
:10394000289FF001299FF00D1124EF53FA4F628157
:10395000600F712F711DCA010E94B01B85CF23E13A
:10396000289FF001299FF00D1124EF53FA4F638136
:10397000600F712F711DCA010E94901B75CF23E14A
:10398000289FF001299FF00D1124EF53FA4F648115
:10399000600F712F711DCA010E946F1B65CF23E15B
:1039A000289FF001299FF00D1124EF53FA4F6581F4
:1039B000600F712F711DCA010E944F1B55CF23E16B
:1039C000289FF001299FF00D1124EF53FA4F6681D3
:1039D000060F111D02331105E4F00036110514F035
:1039E0000FE510E043E1489F9001499F300D1124FD
:1039F000C9018F539A4F6C01FC010683C7010E94D5
:103A0000431B811131CFF6010387C7010E94051ABC
:103A10002BCF02E3E7CFFA018285898346E050E0AD
:103A2000B801CE0101960E944C178981F701828767
:103A30001BCFFA018385898346E050E0B801CE01AF
:103A400001960E944C178981F70183870DCF6AEF99
:103A50008CE293E00C948E088C3F28F48A3F88F423
:103A6000883F21F008958C3F41F00895E091BD0218
:103A7000F091BE02309749F009940E940D050C9414
:103A800019150E9465060C94271D08958F929F9228
:103A9000AF92BF920F931F93CF93DF93CDB7DEB753
:103AA000A1970FB6F894DEBF0FBECDBF19A242306A
:103AB00008F44AE08E010F5D1F4F842E912CB12C2B
:103AC000A12CA50194010E94C336E62FB901CA01B9
:103AD000EA3044F5E05DD801EE938D01232B242BD1
:103AE000252B79F790E080E0109769F0FD010190B7
:103AF0000020E9F73197AF014A1B5B0BBD0180E95C
:103B000094E00E941816A1960FB6F894DEBF0FBE7F
:103B1000CDBFDF91CF911F910F91BF90AF909F903C
:103B20008F900895E95CD7CFDF92EF92FF920F93C9
:103B30001F93CF93DF932091C1053091C20530933D
:103B4000F5022093F402909135069093F60290913D
:103B500037069093F70290913C069093F80290916B
:103B60003E069093F90290913A069093FA02909152
:103B70003B069093FB02E1ECF5E0A4EFB2E092810A
:103B800018969C931897938119969C9319979481F2
:103B90001A969C931A9795811B969C931B979485D4
:103BA0001C969C931C9795851D969C931D977396C8
:103BB000169696E0E333F90711F704EF12E0C2E23C
:103BC000D0E0C45FD240ECE28E9FC00DD11D112425
:103BD000F801D1908F017E01EE0EFF1EC7010E94F9
:103BE0004436D81621F06D2DC7010E944C36F3E003
:103BF00000321F0769F7DF91CF911F910F91FF905E
:103C0000EF90DF900895EF92FF920F931F93CF9361
:103C1000DF937C018C01D0E0C0E0CE010E944436ED
:103C2000F80181938F012196C332D105B1F7C70105
:103C3000DF91CF911F910F91FF90EF900895DF9248
:103C4000EF92FF920F931F93CF93DF93CDB7DEB721
:103C5000C65AD1090FB6F894DEBF0FBECDBFF89497
:103C6000CE0101960E94741A89819A819093C205AF
:103C70008093C105E6968FADE69780933506E8966A
:103C80008FADE89780933706EE968EAD9FADEE9799
:103C900090933D0680933C06C258DF4F88819981FE
:103CA000CE57D04090933F0680933E06EB968FAD63
:103CB000EB9780933A06EC968FADEC9780933B069A
:103CC00003EC15E080E1D82E94E6E92E22E3F22EF3
:103CD000F801D082E182F2821382F482D582E682F8
:103CE000F7821086F18612861386C8010E94051A93
:103CF0000D5E1F4FF6E005331F0751F7CE018C57BD
:103D00009F4F0E94031ECC55DF4F8881C45AD0407C
:103D100080933906CB55DF4F8881C55AD0408093B8
:103D20004106CA55DF4F8881C65AD040809342066B
:103D30001092BC057894CA55DF4F0FB6F894DEBFD9
:103D40000FBECDBFDF91CF911F910F91FF90EF90EC
:103D5000DF900895EF92FF920F931F93CF93DF931D
:103D6000C8ECD2E07E0103E210E0085C12409CE265
:103D7000899F000D111D1124C8018E0D9F1D0E94E9
:103D80004436F70181937F01F4EFEF16F2E0FF066E
:103D900099F78091C8029091C9029093C2058093CF
:103DA000C1058091CA02809335068091CB02809331
:103DB00037068091CC0290E090933D0680933C06BC
:103DC0008091CD0290E090933F0680933E068091D3
:103DD000CE0280933A068091CF0280933B0603EC9B
:103DE00015E0688570E0C8010E94B01B698570E02D
:103DF000C8010E94901B6A8570E0C8010E946F1B79
:103E00006B8570E0C8010E944F1B8C85F80182878A
:103E10008D85838726960D5E1F4FF2E0CC3EDF072F
:103E200001F7DF91CF911F910F91FF90EF900895CF
:103E3000DF92EF92FF920F931F93CF93DF93CDB753
:103E4000DEB7A3970FB6F894DEBF0FBECDBF6AE80A
:103E500071E0CE0101960E94DA3963E871E0CE018B
:103E600041960E94DA398091390689A380914106F2
:103E70008AA3809142068BA3CE0101967C0110E0BB
:103E800000E0F701D1907F01C8010E944436D816A6
:103E900021F06D2DC8010E944C360F5F1F4F033279
:103EA000110579F7A3960FB6F894DEBF0FBECDBF0C
:103EB000DF91CF911F910F91FF90EF90DF900895C8
:103EC000CF93DF93F894D0E0C0E060E0CE010E9491
:103ED0004C362196C11584E0D807B9F70E94181F07
:103EE0000E941F1EC0E0C09339068C2F0E94941DB3
:103EF000CF5FCA30C1F7809139068B3018F48AE061
:103F00000E94941D7894DF91CF9108950F931F9391
:103F1000CF93DF938C01EB01FC01808191810097AD
:103F2000E1F06881798161157105A9F042815381C1
:103F30002C813D814217530770F00E94DA398C8141
:103F40009D81F801958384831D821C82DF91CF912E
:103F50001F910F9108950E947B3888819981F80103
:103F6000918380838A819B81938382838C819D81CD
:103F700095838483198218821B821A82E5CFCF939E
:103F8000DF93EC0188819981009711F00E947B38C2
:103F9000198218821D821C821B821A82DF91CF91A6
:103FA0000895FC0180819181009711F00C947B3879
:103FB00008950F931F93CF93DF93EC01888199812C
:103FC000009759F02A813B812617370730F081E0AE
:103FD000DF91CF911F910F9108958B016F5F7F4FFC
:103FE0000E940439009759F0998388831B830A83C0
:103FF0002C813D81232B59F7FC011082E8CF80E012
:10400000E7CFEF92FF920F931F93CF93DF93EC01D3
:104010007B01CB010E94E2340097A9F00C811D8145
:10402000080F191FB801CE010E94D91F882399F0EB
:10403000288139818C819D81B701820F931F0E9455
:10404000DB341D830C83CE01DF91CF911F910F9143
:10405000FF90EF900895CE010E94BF1FF4CFEF9222
:10406000FF920F931F93CF93DF936115710541F476
:1040700080E0DF91CF911F910F91FF90EF90089515
:1040800041155105B1F07B01EC010C811D81040F3C
:10409000151FB8010E94D91F882351F32881398147
:1040A0008C819D81B701820F931F0E94DA391D8395
:1040B0000C8381E0DECFEF92FF920F931F93CF939B
:1040C000DF93EC018B01CB010E94E2347C01BC0147
:1040D000CE010E94D91F81110BC0CE010E94BF1FCB
:1040E000CE01DF91CF911F910F91FF90EF90089536
:1040F000FD82EC82B801888199810E94DB34F0CF87
:10410000FC011182108213821282158214820C9497
:104110005B20EF92FF920F931F93CF93DF93EC01FD
:104120007B018A01BA010E94D91F81110BC0CE0107
:104130000E94BF1FCE01DF91CF911F910F91FF9081
:10414000EF9008951D830C83B701888199810E94A7
:10415000DA39F0CFEF92FF920F931F93CF93DF9353
:10416000CDB7DEB762970FB6F894DEBF0FBECDBFF6
:104170008C01CB01F8011182108213821282158208
:1041800014824AE09E012F5F3F4F7901B9010E94DE
:10419000EB34F70101900020E9F73197AF014E1998
:1041A0005F09B701C8010E94892062960FB6F89492
:1041B000DEBF0FBECDBFDF91CF911F910F91FF905A
:1041C000EF900895CF93DF93EC01FB0186179707DB
:1041D00049F0608171816115710541F0448155811B
:1041E0000E948920CE01DF91CF9108950E94BF1FC8
:1041F000F9CFFC011182108213821282158214827F
:104200000C94E220FC01118210821382128215822A
:104210001482FB0101900020E9F73197AF01461BA2
:10422000570B0C94892085ED8093BC0080914A0245
:1042300090914B02A0914C02B0914D020796A11DA6
:10424000B11D23E0B695A795979587952A95D1F747
:104250002091BC0024FD03C0109297020895409164
:104260004A0250914B0260914C0270914D02452BD5
:10427000462B472B69F30097A105B10541F02AE2CF
:104280002A95F1F700C00197A109B109E1CF80910A
:1042900049020C947207FC01A081B18150962C91C7
:1042A00082AD38E0839FC0011124289FA001299F7F
:1042B000500D112470E060E080AD91AD0C94CA39CE
:1042C0001F93CF93DF93EC010E941C121BAD8AADAC
:1042D000180FE881F9818189181768F0EC81FD8158
:1042E00030E020E040E060E1CE01099580E0DF9120
:1042F000CF911F910895FE01E557FF4F80818823DC
:1043000019F0CE010E944B21612FCE010E940912AB
:1043100081E0EDCFCF93DF93EC01FC01E557FF4F38
:104320008081882319F0CE010E944B2160E0CE01EC
:10433000DF91CF910C9409120F931F93CF93DF93CA
:1043400000D000D000D0CDB7DEB784E994E00E9461
:104350008A210BE414E068E670E0CE0101960E9429
:1043600080208AEF92E00E94FD0E10939704009344
:1043700096048AE891E00E9420101093970400931D
:10438000960497FD0196959587954AE851E064E17A
:1043900070E040960E94C011109397040093960419
:1043A00083E891E00E9420101093970400939604F4
:1043B00097FD01969595879543E851E060E270E09E
:1043C00040960E94C01189819A81109397040093AE
:1043D00096040E94201049815A81109397040093FB
:1043E000960497FD0196959587956CE270E04A9644
:1043F0000E94C011CE0101960E94D11F84E994E071
:104400000E9460218111A7CF26960FB6F894DEBFD7
:104410000FBECDBFDF91CF911F910F910895CF9324
:1044200080914006882309F475C080913706811178
:1044300062C080913506853009F076C081E09091A8
:104440003606913009F080E0809341068093640540
:1044500080913506873069F4809136068A3048F4B9
:1044600080933906F894809139068B3008F472C035
:10447000789480913506883021F5C0913606CA308F
:1044800060F5C0933906F8948C2F0E94AA1EC09341
:10449000390681E08093BC0578940E94BA16209179
:1044A000C1053091C2058217930719F0C9010E9416
:1044B00096168091CB039091CC03892B11F40E9426
:1044C0009E1680913506893041F48091360681111F
:1044D00004C00E941F1E0E949E16809135068A30DD
:1044E00051F480913606811106C00E949C210E94E1
:1044F000601F0E949E1681E08093BC050E945906B1
:104500006093BD057093BE058093BF059093C00571
:10451000109236068091400691E0892780934006EC
:1045200090934306CF910895863009F091CF41E0F2
:1045300080913606813009F040E040934206E091D8
:104540009804F091990430E020E06DE084E994E073
:1045500009957ECF0E94941D0E94181F1092BC05E1
:1045600087CF2F923F924F925F926F927F928F925E
:104570009F92AF92BF92CF92DF92EF92FF920F93F2
:104580001F93CF93DF9300D000D000D01F92CDB700
:10459000DEB76B017C0123EC35E03F832E8308E21C
:1045A00015E01982AE81BF811C968C91882321F081
:1045B000C8010E94D01B85C0AE81BF811596EC91C9
:1045C0001597F0E0EE0FFF1FEC58FF4F4590549009
:1045D00051968D909C90712C612C8114910451F016
:1045E000C701B601A30192010E94C33620FD02C09B
:1045F000912C812CB12CA12CF801868181113FC016
:10460000AE81BF811F968D919C91A7019601280FC5
:10461000391F411D511DCA01B901680D791D8A1D3F
:104620009B1DA30192010E94C336672B682B692B47
:1046300031F5AE81BF8116968C91282F30E050E085
:1046400040E02A833B834C835D830E94833424E6CD
:1046500030E040E050E00E945A362A813B814C8194
:104660005D8126173707480759074CF061E0D801EC
:1046700015968C910E94970581E0F8018683AE81A2
:10468000BF811D962D913C911E971F968D919C91F7
:10469000B0E0A0E0820F931FA11DB11DBC01CD01B0
:1046A0006C0D7D1D8E1D9F1D680D791D8A1D9B1D26
:1046B000A30192010E94C336672B682B692B09F472
:1046C00077CF8E819F810E94431B81118983EE8168
:1046D000FF817396FF83EE83095F1F4F25E336E06A
:1046E0002E173F0709F05ECF80913E0690913F065E
:1046F0000097C1F18230910551F08330910509F4A2
:1047000054C0019739F440E1242E312C03C053E109
:10471000252E312CF101EE0FFF1FEC58FF4F859035
:104720009490412C512C3201439434E0831691042F
:1047300028F0240156944794712C612CB12CA12CA3
:10474000C701B601A50194010E94C336672B682BEF
:10475000692B79F561E0809157050E94970581E00A
:104760008093580580914006811106C080914306D0
:104770003980382A3092430627960FB6F894DEBF68
:104780000FBECDBFDF91CF911F910F91FF90EF90A2
:10479000DF90CF90BF90AF909F908F907F906F9061
:1047A0005F904F903F902F90089538E1232E312C49
:1047B000B1CFC301B2016C0D7D1D8E1D9F1DA501E2
:1047C00094010E94C336672B682B692B59F682E54A
:1047D00095E00E94D01BC6CF1F920F920FB60F928A
:1047E00011242F933F938F939F93AF93BF93809107
:1047F000C0029091C102A091C202B091C302309157
:10480000BF0223E0230F2D3758F50196A11DB11DDE
:104810002093BF028093C0029093C102A093C20272
:10482000B093C3028091C4029091C502A091C602C8
:10483000B091C7020196A11DB11D8093C40290934F
:10484000C502A093C602B093C702BF91AF919F91DA
:104850008F913F912F910F900FBE0F901F90189541
:1048600026E8230F0296A11DB11DD2CF1F920F92F1
:104870000FB60F9211242F933F934F935F936F9333
:104880007F938F939F93AF93BF93EF93FF93E091A9
:104890000201F09103010995FF91EF91BF91AF9152
:1048A0009F918F917F916F915F914F913F912F9148
:1048B0000F900FBE0F901F9018951F920F920FB67A
:1048C0000F9211242F933F934F935F936F937F9396
:1048D0008F939F93AF93BF93EF93FF93E09100016A
:1048E000F09101010995FF91EF91BF91AF919F91D7
:1048F0008F917F916F915F914F913F912F910F9089
:104900000FBE0F901F9018951F920F920FB60F9227
:1049100011242F933F934F935F936F937F938F93C4
:104920009F93AF93BF93EF93FF938091B900887FDC
:10493000803609F44AC0F0F5883209F4A7C018F5AA
:10494000803109F49BC0B8F4882309F4F9C0883099
:1049500009F494C0FF91EF91BF91AF919F918F9116
:104960007F916F915F914F913F912F910F900FBE6B
:104970000F901F901895883109F488C0803251F744
:104980008093960214C0803409F49DC040F48033B3
:10499000B9F38833F9F68093960285ECB0C0803580
:1049A00009F485C0883509F496C0883499F60E94C8
:1049B0001321D0CF883909F48CC038F5883729F015
:1049C00050F4883611F0803729F683E080939702FF
:1049D0001092950257C0883809F47BC0803919F0CD
:1049E000803809F0B7CF80919502803208F071C00D
:1049F000E091950281E08E0F809395028091BB003B
:104A0000F0E0EB58FD4F80833DC0803B39F0E0F48F
:104A1000803A09F479C0883A09F09CCF84E0809309
:104A200097021092720210927102E0916F02F0915F
:104A3000700209958091710281110FC081E080930D
:104A4000710210924F0209C0803C09F4A6CF883C45
:104A500009F4A3CF883B09F07DCFE091720281E099
:104A60008E0F80937202F0E0E15BFD4F80818093B6
:104A7000BB00909172028091710229C08091BC02AA
:104A80008093BB0085EC8093BC0064CF9091BB0207
:104A90008091BA02981758F5E091BB0281E08E0F21
:104AA0008093BB02F0E0E656FD4F8081E9CFE091B4
:104AB000BB0281E08E0F8093BB028091BB00F0E0CF
:104AC000E656FD4F80839091BB028091BA02981701
:104AD000C8F285E8D8CFE091BB0281E08E0F8093C9
:104AE000BB028091BB00F0E0E656FD4F80838091D1
:104AF000990281115CCF81E08093980284EA8093CF
:104B0000BC001092970226CF85EC8093BC001092D7
:104B1000970280919502803230F4E0919502F0E0A6
:104B2000EB58FD4F10826091950270E0E0917302A6
:104B3000F091740285E792E00995109295020ACFF0
:104B40001092960234CF1F920F920FB60F9211243B
:104B50002F933F934F935F936F937F938F939F9385
:104B6000AF93BF93EF93FF938CE293E00E946C08A6
:104B7000FF91EF91BF91AF919F918F917F916F9135
:104B80005F914F913F912F910F900FBE0F901F900B
:104B900018951F920F920FB60F9211242F933F93E7
:104BA0004F935F936F937F938F939F93AF93BF9335
:104BB000EF93FF93CF93DF931F92CDB7DEB781E0E2
:104BC0008983E091C903F091CA03309761F0A09105
:104BD0003C03B0913D036C91A0914203B09143031B
:104BE0008C910995898389818823E1F0E0913C03C8
:104BF000F0913D038081E0914203F091430382FDF7
:104C000025C09081809145038F5F8F73209146036B
:104C1000821741F0E0914503F0E0E45DFC4F958F91
:104C2000809345030F90DF91CF91FF91EF91BF915A
:104C3000AF919F918F917F916F915F914F913F9134
:104C40002F910F900FBE0F901F9018958081EACF83
:104C50001F920F920FB60F9211248F929F92AF92D4
:104C6000BF92CF92DF92EF92FF920F931F932F93F9
:104C70003F934F935F936F937F938F939F93AF93E4
:104C8000BF93EF93FF930E9459066093FE017093C8
:104C9000FF0180930002909301028091CB039091D9
:104CA000CC03029709F072C1C090E203D090E303F5
:104CB0008091E1038C151D0411F41092E1038091A1
:104CC000E103811106C180910704909108040197C6
:104CD00009F0ECC04091DD035091DE036091DF03E9
:104CE0007091E0038091EF039091F003A091F103A4
:104CF000B091F203481759076A077B0780F080914B
:104D0000EF039091F003A091F103B091F2030196AB
:104D1000A11DB11D84179507A607B70720F520919F
:104D2000EF033091F0034091F1035091F20320938F
:104D3000DD033093DE034093DF035093E003F12C57
:104D4000E12CC701B6010E94A1376093D90370938B
:104D5000DA038093DB039093DC03A70196010E94A2
:104D6000C3366093E103C090F303D090F403E09066
:104D7000F503F090F6030E9401060091EB031091F9
:104D8000EC032091ED033091EE0360177107820769
:104D9000930708F416C1601B710B820B930B609391
:104DA000FB037093FC038093FD039093FE0300913B
:104DB000EF031091F0032091F1033091F203809002
:104DC000DD039090DE03A090DF03B090E0030815B0
:104DD00019052A053B0508F4FDC044E0660F771F5E
:104DE000881F991F4A95D1F7672F782F892F992708
:104DF000C61AD70AE80AF90AA091D703B091D803D6
:104E0000A70196010E9484360E9425359B01AC01C2
:104E100060EC71EE84E69CE40E94F4366B017C0148
:104E200020E030E040E85FE30E94203587FDF0C0DD
:104E300020E030E048EC53E4C701B6010E949C3703
:104E4000181634F4C12CD12C98ECE92E93E4F92EE9
:104E5000A70196016091FF03709100048091010405
:104E6000909102040E942035882301F1C092FF0333
:104E7000D0920004E0920104F09202046091D50304
:104E80007091D60390E080E00E9425359B01AC0133
:104E900060EC71EE84E69CE40E94F436A701960172
:104EA0000E94F4360E946D370E9424148091DD0325
:104EB0009091DE03A091DF03B091E0030196A11D64
:104EC000B11D8093DD039093DE03A093DF03B093C5
:104ED000E0038091E1038F5F8093E103E091CF03D2
:104EE000F091D003309781F12091E4038091E503A4
:104EF0009091E6032817190611F41092E4038091AB
:104F0000E40381111CC06091E7037091E803809174
:104F1000E9039091EA0309958091E7039091E803F2
:104F2000A091E903B091EA030196A11DB11D809300
:104F3000E7039093E803A093E903B093EA03809119
:104F4000E4038F5F8093E403E091CD03F091CE03FF
:104F50003097E1F06091D9037091DA038091DB031F
:104F60009091DC0309958091D9039091DA03A09187
:104F7000DB03B091DC030196A11DB11D8093D90321
:104F80009093DA03A093DB03B093DC03FF91EF91DE
:104F9000BF91AF919F918F917F916F915F914F9151
:104FA0003F912F911F910F91FF90EF90DF90CF9045
:104FB000BF90AF909F908F900F900FBE0F901F905B
:104FC00018950095109520953095600F711F821FE0
:104FD000931FE5CE6C157D058E059F0508F00CCF5F
:104FE000A7019601261B370B480B590BDA01C901A3
:104FF00024E0880F991FAA1FBB1F2A95D1F7892F7C
:105000009A2FAB2FBB27C80ED91EEA1EFB1EF4CE6B
:10501000C12CD12C80E8E82E8FE3F82E19CF1F92F7
:105020000F920FB60F9211240F931F932F933F935C
:105030004F935F936F937F938F939F93AF93BF93A0
:10504000CF93DF93EF93FF93C0910E04D0910F04A1
:10505000209709F45BC08C850E946E05182F8E8501
:105060000E946E05880F991F812B9A89891709F470
:105070004DC0EA890B891C892D893E8994E0E9029B
:10508000F0011124482F082E000C550BE42BF52BB2
:10509000E25FFE4F9081492F990F550B660B770BFE
:1050A000400F511F621F731F4B8B5C8B6D8B7E8B70
:1050B0008A8B288939892230310531F12330310535
:1050C000D1F12130310511F5833001F58B899C89AF
:1050D000AD89BE8932E0B595A795979587953A95A4
:1050E000D1F78F8B988FA98FBA8F8F8D98A1A9A197
:1050F000BAA18BA39CA3ADA3BEA30E9459066F8F38
:1051000078A389A39AA302C0882301F3FF91EF91AA
:10511000DF91CF91BF91AF919F918F917F916F91CF
:105120005F914F913F912F911F910F910F900FBE63
:105130000F901F901895882311F0833039F78B89D1
:105140009C89AD89BE89B595A79597958795C9CF57
:105150001F920F920FB60F9211242F933F934F93EC
:105160005F936F937F938F939F93AF93BF93EF93CF
:10517000FF930E940F28FF91EF91BF91AF919F91F4
:105180008F917F916F915F914F913F912F910F90F0
:105190000FBE0F901F901895CF93DF9310922303AB
:1051A0001092220388EE93E0A0E0B0E08093240305
:1051B00090932503A0932603B09327032AE931E0B7
:1051C000309321032093200310922F0310922E037B
:1051D0008093300390933103A0933203B093330351
:1051E0008CEA91E090932D0380932C0385EC90E062
:1051F000909339038093380384EC90E090933B03C1
:1052000080933A0380EC90E090933D0380933C03BD
:1052100081EC90E090933F0380933E0382EC90E01A
:10522000909341038093400386EC90E09093430376
:105230008093420310924503109246031092470355
:10524000109248031092CA031092C90380E690E0BE
:105250009093D6038093D503C8E1D0E0D093D803D0
:10526000C093D70310920A041092090480E090E0E2
:10527000A0EFB2E48093FF0390930004A093010495
:10528000B0930204109203041092040410920504D7
:10529000109206041092F7031092F8031092F9038B
:1052A0001092FA031092FB031092FC031092FD037C
:1052B0001092FE031092CC031092CB0310920804BC
:1052C000109207040E94C7041092CE031092CD03DF
:1052D0001092D0031092CF031092D2031092D103F8
:1052E0001092D4031092D3032091D5033091D603AA
:1052F0006091D7037091D803C9010E94B1377093B0
:10530000E3036093E203C901BE010E94B1377093C9
:10531000E6036093E50310929304109292048BE4E9
:1053200094E090932105809320051092230510921C
:10533000220510922505109224051092AC048EEBE4
:1053400091E09093910480939004109295041092B0
:1053500094041092A9041092A0041092A104109237
:10536000A2041092A3048FEF8093AA048093AE044A
:10537000E2EBF4E088EC94E0DFEFD1938E179F0727
:10538000E1F789E799E090939904809398048EE679
:105390009AE090939B0480939A0488E792E190931B
:1053A0009D0480939C0489EB93E190939F048093E8
:1053B0009E0430E020E040E069E084E994E00E944F
:1053C00079091092EF041092EE0485E594E0909331
:1053D000C9048093C80480E194E09093CD04809345
:1053E000CC04C1E0C093CE041092CF041092FD040F
:1053F00010921D0510921905C0931E05C0931F053C
:1054000086EC91E09093CB048093CA0484E994E005
:105410000E94090B1092E7041092E6041092EB042C
:105420001092EA048FEF9FEF9093E9048093E804D1
:105430009093ED048093EC04E091CA04F091CB04C6
:105440000280F381E02D84E994E0099584EC94E0F6
:105450009093F1048093F0041092000583E180930F
:10546000BD0482E18093BE04D093BF04109227054F
:10547000109226051092640581E190E090936605F4
:105480008093650584E090E09093680580936705BC
:1054900081E090E090936A058093690562E081E184
:1054A0000E94C50562E084E00E94C5058091650503
:1054B0000E946E05D82F809167050E946E05880FA7
:1054C000991F8D2B80936B0510926C0510926D05C2
:1054D00010926E0510926F05109270051092710572
:1054E0001092720510927305109274051092750552
:1054F0001092760510927705C0938105109287056A
:10550000109286056EE080E895E00E94931589E58B
:1055100095E090930F0480930E04C0938D05109234
:10552000930510929205C093990510929F051092D1
:105530009E051092AA051092A9052AEC3DEF309322
:10554000AC052093AB0580E092E09093AE0580938C
:10555000AD051092AF051092B6051092B5053093C7
:10556000B8052093B7059093BA058093B9051092BA
:10557000BB0581EC95E00E94741A1092BC05109254
:10558000BD051092BE051092BF051092C005DF91B7
:10559000CF910895CF93DF93CDB7DEB7C956D10928
:1055A0000FB6F894DEBF0FBECDBF789484B582608D
:1055B00084BD84B5816084BD85B5826085BD85B5B7
:1055C000816085BD80916E00816080936E00109235
:1055D00081008091810082608093810080918100B0
:1055E0008160809381008091800081608093800041
:1055F0008091B10084608093B1008091B00081609F
:105600008093B00080917A00846080937A008091CA
:105610007A00826080937A0080917A008160809322
:105620007A0080917A00806880937A001092C1009D
:10563000E0913C03F0913D0382E08083E0913803E8
:10564000F09139031082E0913A03F0913B038FE32C
:10565000808310924403E0914003F091410386E07F
:105660008083E0913E03F0913F03808180618083DD
:10567000E0913E03F0913F03808188608083E09158
:105680003E03F0913F03808180688083E0913E0378
:10569000F0913F0380818F7D8083809109049091F8
:1056A0000A04892B59F481E080930B0484E090E094
:1056B0000E94DF3790930A0480930904F8941092B3
:1056C000800010928100109285001092840081EC7D
:1056D00092EA90938900809388008091810088608D
:1056E000809381008091810082608093810080910D
:1056F0006F00826080936F0078946091FF037091D7
:10570000000480910104909102040E94CF14109231
:10571000080410920704F89480E690E09093D60372
:105720008093D5036091D7037091D8030E94B1375D
:105730007093E3036093E20384E090E09093E603C8
:105740008093E503789460E070E080EF92E40E943B
:10575000CF1487E29DE19093D2038093D10389E136
:1057600095E19093D4038093D3038EE195E19093D8
:10577000D0038093CF030E9465066CE08CE895E02F
:105780000E94931565E088E995E00E94931560E01A
:1057900085E10E94C50585E18093A40560E084E170
:1057A0000E94C50584E18093B00580916800866001
:1057B0008093680080916D00806180936D0080917E
:1057C0006C00886080936C0061E087E00E94C505F2
:1057D00087E080932D0515E010932C0561E088E0AB
:1057E0000E94C50588E0809334051093330561E07D
:1057F0008AE00E94C5058AE080933B0510933A0534
:1058000061E086E00E94C50586E080934205109322
:10581000410561E089E00E94C50589E08093490562
:105820001093480561E08BE00E94C5058BE08093F2
:10583000500510934F0561E083E00E94C50583E0A9
:105840008093570510935605E0919804F0919904C0
:1058500030E020E040E06AE084E994E0099584E9E2
:1058600094E00E948A2184E994E00E9460218111E1
:10587000FACF60E084E994E00E940912E091980474
:10588000F091990430E020E040E06BE084E994E09E
:1058900009950E949C2160ED77E080E090E00E94F5
:1058A0002606F894CE0101960E94031E6AE871E074
:1058B000CE0101960E94D1398C0163E871E0CE01DE
:1058C00041960E94D139012B09F009C1892B09F0B9
:1058D00006C1CE0101960E94031E89A1809339065C
:1058E0008AA1809341068BA1809342068AE00E94A0
:1058F000AA1E78940E949E1681EB92E29093CE03AA
:105900008093CD038DEB97E19093BE028093BD020F
:1059100090930101809300018091690083608093DE
:105920006900E89A8FE092E290935A0580935905B6
:105930008BED9BE190935E0580935D0589E697E191
:1059400090935C0580935B0587E897E19093A105B0
:105950008093A005A7961FAE1EAEA7978CE895E092
:105960000E94231588E995E00E9423150091700597
:105970001091710520917205309173058091610538
:10598000909162058017910709F4B5C040917805A0
:105990005091790560917A0570917B05C0907C05E6
:1059A000D0907D05E0907E05F0907F054C195D0953
:1059B0006E097F09F801E81BF90BCF01F093600530
:1059C000E0935F0510936205009361054031510536
:1059D0006105710508F086C09F01220F331F820FF9
:1059E000931F9093600580935F05809164058823E1
:1059F00059F080915F05909160059195819591098D
:105A00009093600580935F0500915F05109160059C
:105A1000809180050E946E057C0180E895E00E94DF
:105A20002315EF2809F06AC0012B09F46EC081E04C
:105A300080936305E0915B05F0915C05309729F058
:105A400080915F0590916005099580918605909100
:105A50008705029729F480916305811110926305EF
:105A600084EA95E00E94A71580EB95E00E94A715B7
:105A700008E215E0A7964EAD5FADA79746305105F9
:105A80000CF057C0F80186818823E1F00E94590686
:105A9000F801C080D180E280F380AB01BC014C19D9
:105AA0005D096E097F09848190E0B0E0A0E04817AD
:105AB00059076A077B0730F060E085810E949705EF
:105AC000F8011682A7964EAD5FADA7974F5F5F4F67
:105AD000A7965FAF4EAFA797095F1F4FCBCF0E942E
