:100000000C9408050C9430050C9430050C943005C4
:100010000C94101D0C94771C0C9430050C94300536
:100020000C9430050C9430050C9430050C94901A07
:100030000C9430050C9430050C9430050C9430056C
:100040000C94C1190C9430050C94311A0C940B1AB1
:100050000C9430050C9430050C9430050C9430054C
:100060000C94341D0C94300514FFFFFF14FFFFFFA8
:1000700014FFFFFF14FFFFFFFFFFFFFF32FFFFFF33
:10008000FFFFFFFF32FFFFFFFFFF3CFFFFFF3CFFD3
:10009000FFFF3CFFFFFF3CFF0AFFC8FF0AFFC8FF4E
:1000A0000AFFC8FF0AFFC8FFFFFFFFFF1EFFFFC8D0
:1000B000FFFFFFFF1EFFFFC89650285096502850A4
:1000C00096502850965028500AFFB4FFFFB496FF70
:1000D0000AFFB4C8FFB496FFFFC8FFC814C8FF9654
:1000E000FFC8FFC814C8FF963C9614965096149605
:1000F0003C9614965096149605B496C805B496C8C6
:1001000005B496C805B496C8FFC8C8FF14C8C8B4DB
:10011000FFC8C8FF14C8C8B4143C0A3C143C0A3CCD
:10012000143C0A3C143C0A3C14FFFFFFFFFF64FF31
:10013000FFFFFFFFFFFFFFFFFFFFFFFF32FFFFFF9C
:10014000FFFFFFFF32FFFFFF3CFF96FF3CFF96FFE4
:100150003CFF96FF3CFF96FF0AFF96FFFFB450C896
:10016000FF96FFC8FFFF96FFFFFFC8FF1EFFFF9629
:10017000FFFFB4FF1EFFC8B4287850782878507865
:1001800028785078287850780AC8FF96FFC850FF22
:100190000AC8FF96FFC850C8FF96C8B414C8966432
:1001A000FF96C8B414C896643296966432969664E4
:1001B000329696643296966405967896B464327850
:1001C00096509664C8506496C8B496C81496B464A1
:1001D000B478649614647850143228321432283279
:1001E000143228321432283214FFFFFFFFFFFFFFC2
:1001F00064FFFFFFFFFFFFFFFFFFFFFF3CFFFFFF6D
:10020000FFFFFFFF3CFFFFFF50FFFFFF50FFFFFF1F
:1002100050FFFFFF50FFFFFF0AFFFF96FFFFFFC8E1
:1002200050FF96FFFFFFFFC8FFFFFFFF28FFFFFF04
:10023000FFFFFFFF28FFC8FF3296329632963296B4
:1002400032963296329632960AFF96C8FFFF96C8CB
:1002500032FF64FFFFC896FFFFFFC8FF1EFFC8966E
:10026000FFFFC8FF1EC8FF961EC850961EC85096B6
:100270001EC850961EC8509605C89650C8B49678A9
:10028000289650C896B47864FFFFC8FF14C8FF963C
:10029000FFFFB4FF1496B46414141414141414144B
:1002A000141414141414141414FFFFFF14FFFFFF8C
:1002B00014FFFFFF14FFFFFFFFFFFF3CFFFF3CFFAA
:1002C000FFFFFF3CFFFF3CFFFFFF96FFFFFF96FF96
:1002D000FFFF96FFFFFF96FF0AFFC8FF0AFFC8FF58
:1002E0000AFFC8FF0AFFC8FFFFFFFF1EFFFF1EC86F
:1002F000FFFFFF1EFFFF1EC864C832C864C832C8B3
:1003000064C832C864C832C80AFF96C80AFF96C8D3
:100310000AFF96C80AFF96C8FFC8FF14C8FF1496C4
:10032000FFC8FF14C8FF14963296649632966496FE
:10033000329664963296649605C8967805C8967883
:1003400005C8967805C89678FFB4C814B4C8147860
:10035000FFB4C814B4C814501E5028501E50285062
:100360001E5028501E502850000000002400270076
:100370002A0000000000250028002B0000000000DB
:1003800023002600290004040404040404040202D7
:100390000202020203030303030301020408102004
:1003A000408001020408102001020408102000000F
:1003B0000008000201000003040700000000000024
:1003C0000000BF0002020303030404050700FF0648
:1003D000FF0600010A0216062F200500BD012106B6
:1003E000B1B1192922075BB7495600230A2DB1ABD9
:1003F00086AA86AA0024092DB15BF54E690125085D
:1004000034B1C9B1770026092CB18B2956310527A3
:100410000599B719280772B153CD00290872B1891F
:10042000A952002A076BB149D56A2B0A2DB1CD28F4
:100430000E9951042C075BAF5325002D060CB519FE
:10044000012E0652B119012F0724B38F6D00300819
:1004500073B1AB5C1500310773B14BB2353209345F
:10046000B15331C77204330A34B119396924930284
:10047000340A34B18DAA1A312700350A34B1197AF9
:1004800023991400360A34B1537945991400370A78
:1004900034B11939E6982300380A34B15331A92808
:1004A0009302390A34B15351A69D14003A076AB138
:1004B0001971043B0833AFB3912A013C076BB14D6E
:1004C00075013D081CB319198D003E076BB1C95564
:1004D000093F0973B16BA60C1300400934B15351A5
:1004E000DD4801410934B153518E2903420A34B128
:1004F0005971A4284702430934B153519749014423
:100500000934B159D1391200450934B1197AE53CA1
:1005100002460834B1197AE51A470934B15351A794
:100520009906480834B189724C33490773B159B1FF
:10053000354A0834B16FCBA4004B0A34B1892A493B
:1005400099CA004C0734B1C9DD234D0934B189E3A0
:100550008866004E0834B1896BA9334F0934B15312
:10056000D1991400500A34B159518E943300510A74
:100570003CAF53D15C49A300520934B159518ED4D8
:100580000C530A34B1533165542605540773B159DD
:10059000B10B550834B1899E4901560934B189CE51
:1005A000241500570934B189E6386200580A34B17D
:1005B000893249156500590873B1495659015A09DC
:1005C00034B11939B647005B0773B119B1395C0909
:1005D00024B3C928A38C025D0773B199CD115E05C0
:1005E00053B96B5F060CB11901600652B9890161FC
:1005F0000824B11B51A902620A34B1C979453912E4
:1006000000630623B19B59640834B1AF4694696511
:100610000824B153696405660934B1ADCA99230051
:1006200067092CAF1B31A98C06680834B1C979451C
:1006300033690873B1CB4856036A097BAFCDB05418
:1006400015006B0934B1C95592A90C6C0773B191AF
:100650005D036D0824B1496948196E0724B159D169
:100660000C6F0824B15351260570092CAF59518ED7
:10067000940171082CAF1B51A61D720824B1595169
:100680006700730824B11B1A0D05740934B1CB71CE
:10069000E68C04750724B189661A760763B149565A
:1006A00005770724B189721C780824B18949AA18F2
:1006B00079092CAF89329525007A0824B119B11C2B
:1006C000017B0873B14D49D6017C05B1B1397D0973
:1006D00073B1C951C514017E0714B94B2A01A00595
:1006E00000BD01A106B1B14923A20934AF8D233564
:1006F0006702A3082CB155715602A40A2DB1C9692D
:10070000A6B87200A50973B149AA5A3101A606A973
:10071000B15102A7087BAF9BAA920BA8064BBB491D
:1007200001A90B3DAF5B59A5A9924E0BAA061BB7B9
:100730005B49AB071DB38BB201AC0614B31939ADDD
:10074000054BB519AE0B3DAF5B79A439755A00AFB7
:10075000060CBB1901B0065BB7EB02B10B35B1CD8E
:10076000280E99511C02B20662B55106B30662B555
:100770001969B40652B95300B5082CAF89E6481977
:10078000B60834B11B6AF503B70652B51901B806AD
:1007900052AF5300B90763B54B320DBA061BB7EB26
:1007A00002BB081DB389A54C00BC093CAFC9CDA84C
:1007B0007600BD093CAFC92D1DB300BE0A3CAF9108
:1007C0003AAAA87600BF0973B1CB30C55401C0095D
:1007D00034B153518E2903C10934B153518E2903C9
:1007E000C20934B153518E2903C30934B153518E18
:1007F0002903C40A34B18949C5316500C50934B13A
:10080000932A8E2903C60934B11BA91AAA25C70A3F
:100810003CAF535197494600C80934B1197AE53CB9
:1008200002C90934B1197AE53C02CA0934B1197A0E
:10083000E53C02CB0934B1197AE53C02CC0773B12F
:1008400059B135CD0773B159B135CE0773B159B12F
:1008500035CF0773B159B135D00934B19969758D68
:1008600004D10834B14973A933D20934B153D199B1
:100870001400D30934B153D1991400D40934B153BD
:10088000D1991400D50934B153D1991400D60A3442
:10089000B1894945332900D70824B18949AA18D814
:1008A0000934B11BE9484702D90834B1899E49018E
:1008B000DA0834B1899E4901DB0834B1899E4901C7
:1008C000DC0A34B1891945332900DD0873B1495672
:1008D0005901DE0A34B1C92B8E943300DF0934B1DB
:1008E0005351955602E00A34B1CB288EA85401E149
:1008F0000934B1AD4754AA00E20934B1ADD2884AF7
:1009000015E30A34B14B2A8EA85401E40934B1AB83
:10091000E1884A15E50934B1937244A50AE6082432
:10092000B11B69C501E7086BAF9B592500E80A3484
:10093000B1CB28AA34B202E90934B1AD551A590134
:10094000EA0A34B18B29AA34B202EB0A34B149194C
:10095000AB34B202EC0873B1C9495603ED0773B169
:100960002B6535EE0773B1AB6635EF0873B14959A6
:100970005603F00A34B1CBC88A322900F10934B1E8
:100980004B2AAD6806F20A34B1CB28AA289302F3A9
:100990000934B1AD55944901F40A34B1D35845999D
:1009A0001400F50A34B14B2AAA289302F60A34B18E
:1009B000ABA18A322900F7092CB1D37064A800F8E2
:1009C0000924B11B69A49100F90934B1CBA834D32F
:1009D00000FA0734B16D9A69FB0834B1D3309A69D3
:1009E000FC0934B1AB5134D300FD093CAF6DCA549E
:1009F0009600FE0A34AFC92BCA913200FF0A3CAF01
:100A0000AB5194A92C0100000004FFFF0000531E0D
:100A100011241FBECFEFD8E0DEBFCDBF11E0A0E0B4
:100A2000B1E0EEE6F3E502C005900D92A83FB107F4
:100A3000D9F725E0A8EFB1E001C01D92AB39B207AC
:100A4000E1F715E0C8E0D5E004C02197FE010E945F
:100A50008328C730D107C9F70E9447200C94B529D5
:100A60000C940000662329F06A3019F0862F90E07C
:100A700008958FEF9FEF0895AF92BF92CF92DF92CC
:100A8000EF92FF920F93CF93DF93EC01DA0179019C
:100A9000942F9770E1E0F0E09F01092E01C0220F32
:100AA0000A94EAF7522F6E018AE8C80ED11CF601AB
:100AB000808140E0823018F4422F813049F15D019D
:100AC000F8EFAF22E8ADF9AD28813981D901509610
:100AD0008C918A9D90018B9D300D1124620F731FA4
:100AE000DF01A60FB71F01111AC0EA0EFB1E8C9181
:100AF000842B85278D93AE15BF05C9F7DF91CF9164
:100B00000F91FF90EF90DF90CF90BF90AF9008953E
:100B100050E0D5CF440F550FE114F10479F33C9127
:100B2000342B35273C939F5F9770E1E0EE1AF10874
:100B30009111F0CF2CAD3DADA20FB31FF601808116
:100B4000823028F4813009F051E041E0E5CF51E0F6
:100B5000E3CF80E0089590E080E008951092A8032C
:100B60001092A9031092AA031092AB031092AC0347
:100B70001092AD031092AE031092AF031092B00327
:100B80001092B3031092B6031092B7031092B803F9
:100B90001092B9031092BE031092BF031092C003CB
:100BA0001092C1031092BA031092BB031092BC03BF
:100BB0001092BD031092DC031092DB032091D80346
:100BC0003091D90380E09091DA03891760F494E0C2
:100BD000899FF0011124E20FF31F1082118212820B
:100BE00013828F5FF0CF089510929B0310929A03A7
:100BF0001092D2031092D3031092D4031092D50313
:100C00000E94AE05E091A203F091A303309709F092
:100C1000099408958093ED0408959B01DC011896D2
:100C2000ED91FC9141E067E10994833081F028F473
:100C3000813099F08230A9F008958730A9F088308A
:100C4000C9F08430B1F4809180008F7D03C0809121
:100C500080008F7780938000089584B58F7784BD5E
:100C6000089584B58F7DFBCF8091B0008F778093FE
:100C7000B00008958091B0008F7DF9CFCF93DF93BE
:100C8000282F30E0F901E255FC4F8491F901E65636
:100C9000FC4FD491F901EA57FC4FC491CC23A1F049
:100CA00081110E941506EC2FF0E0EE0FFF1FE458B3
:100CB000FC4FA591B491EC91ED2381E090E009F413
:100CC00080E0DF91CF91089580E090E0FACF1F930C
:100CD000CF93DF93282F30E0F901E255FC4F849148
:100CE000F901E656FC4FD491F901EA57FC4FC49143
:100CF000CC23A9F0162F81110E941506EC2FF0E0ED
:100D0000EE0FFF1FEE58FC4FA591B4918FB7F894EA
:100D1000EC91111108C0D095DE23DC938FBFDF91D9
:100D2000CF911F910895DE2BF8CFCF93DF9390E002
:100D3000FC01E656FC4F24918A579C4FFC0184919C
:100D40008823C9F090E0880F991FFC01E859FC4FF7
:100D5000A591B491FC01EE58FC4FC591D49161115D
:100D60000DC09FB7F8948C91209582238C93888135
:100D7000282328839FBFDF91CF910895623051F4DB
:100D80009FB7F8943C91822F809583238C93E881C0
:100D90002E2BEFCF8FB7F894EC912E2B2C938FBF87
:100DA000EACF3FB7F8948091F7029091F802A091B2
:100DB000F902B091FA0226B5A89B05C02F3F19F0A1
:100DC0000196A11DB11D3FBFBA2FA92F982F8827CB
:100DD000BC01CD01620F711D811D911D42E0660FA6
:100DE000771F881F991F4A95D1F708952FB7F89458
:100DF0006091F3027091F4028091F5029091F602F5
:100E00002FBF08950E94AE050E94F6066093D2039C
:100E10007093D3038093D4039093D503E091A00300
:100E2000F091A103309709F009958091D603909134
:100E3000D703892B39F482E090E090939B03809351
:100E40009A03089581E090E0F8CF80911E0291E02E
:100E5000892780931E0290930A0108952091E2024F
:100E60003091E30240911E02411113C0280F391F37
:100E70002630310514F025E030E037FF02C030E0C5
:100E800020E03093E3022093E20281E080930A01A4
:100E9000089543E0880F991F4A95E1F72230310504
:100EA00009F45EC0A8F42115310581F12130310526
:100EB00009F441C081E08093ED020E94F606609340
:100EC000E9027093EA028093EB029093EC02DDCF8B
:100ED0002430310509F46EC008F457C025303105BF
:100EE00049F72091020130910301280F391F2F3F4C
:100EF000310519F014F02FEF30E037FF02C030E079
:100F000020E03093030120930201D4CF209104010B
:100F100030910501280F391F2F3F310519F014F0CA
:100F20002FEF30E037FF02C030E020E030930501C2
:100F300020930401BFCF2091060130910701280FB3
:100F4000391F2F3F310519F014F02FEF30E037FF34
:100F500002C030E020E03093070120930601AACFC1
:100F60002091080130910901280F391F2F3F3105C9
:100F700019F014F02FEF30E037FF02C030E020E02E
:100F8000309309012093080195CF2091E002309120
:100F9000E102280F391F2F3F310519F014F02FEF10
:100FA00030E037FF02C030E020E03093E1022093D0
:100FB000E00280CF2091DE023091DF02280F391F3E
:100FC0002F3F310519F014F02FEF30E037FF02C04A
:100FD00030E020E03093DF022093DE026BCF0895F3
:100FE000AF92BF92CF92DF92EF92FF920F931F9337
:100FF000CF93DF936C017B018B01040F151FEB0175
:101000005E01AE18BF08C017D10759F06991D6012B
:10101000ED91FC910190F081E02DC6010995892B9D
:1010200079F7C501DF91CF911F910F91FF90EF905C
:10103000DF90CF90BF90AF900895FC01538D448D09
:10104000252F30E0842F90E0821B930B541710F073
:10105000CF96089501970895FC01918D828D981780
:1010600061F0A28DAE0FBF2FB11D5D968C91928D58
:101070009F5F9F73928F90E008958FEF9FEF089589
:10108000FC01918D828D981731F0828DE80FF11D52
:10109000858D90E008958FEF9FEF0895FC01918D6D
:1010A000228D892F90E0805C9F4F821B91098F7366
:1010B000992708958BEF92E00E944E0821E0892B3A
:1010C00009F420E0822F089580E090E0892B29F038
:1010D0000E945A0881110C9400000895FC01A48D0F
:1010E000A80FB92FB11DA35ABF4F2C91848D90E04A
:1010F00001968F739927848FA689B7892C93A0892D
:10110000B1898C91837080648C93938D848D9813B6
:1011100006C00288F389E02D80818F7D8083089549
:10112000EF92FF920F931F93CF93DF93EC0181E037
:10113000888F9B8D8C8D98131AC0E889F9898081DE
:1011400085FF15C09FB7F894EE89FF896083E88911
:10115000F98980818370806480839FBF81E090E003
:10116000DF91CF911F910F91FF90EF900895F62E90
:101170000B8D10E00F5F1F4F0F731127E02E8C8D2A
:101180008E110CC00FB607FCFACFE889F98980816F
:1011900085FFF5CFCE010E946E08F1CFEB8DEC0FED
:1011A000FD2FF11DE35AFF4FF0829FB7F8940B8F8C
:1011B000EA89FB8980818062CFCFCF93DF93EC01F6
:1011C000888D8823B9F0AA89BB89E889F9898C912F
:1011D00085FD03C0808186FD0DC00FB607FCF7CFEB
:1011E0008C9185FFF2CF808185FFEDCFCE010E94EB
:1011F0006E08E9CFDF91CF910895DC011A96ED9149
:10120000FC9130E020E00994DC011696ED91FC9110
:1012100030E020E040E069E10994DC011696ED91B0
:10122000FC9130E020E040E068E109949A01DC01A3
:101230001696ED91FC91462F67E10994EF92FF928B
:101240000F931F93CF93DF931F92CDB7DEB77C012F
:101250008B01D8016C91673129F150F46531A0F40C
:101260000F90DF91CF911F910F91FF90EF90089514
:101270006A3118F16E3FA1F7F8014181498369E2B3
:10128000C7010E94FD080BC0F80141814983D701C5
:101290001696ED91FC9130E020E0C70109950E5FB4
:1012A0001F4FD7CFF80181818983AE014F5F5F4F18
:1012B00061E0C7010E941609F2CF0F5F1F4FD701EF
:1012C0001696ED91FC9130E020E040E0C7010995D1
:1012D000C0CF462FDC011696ED91FC9130E020E066
:1012E00066E10994462FDC011696ED91FC9130E001
:1012F00020E065E10994EF92FF920F931F93CF9343
:10130000DF93EC01042F79016D3009F446C050F4ED
:101310006B30C9F1693009F49FC06A3009F465C0C7
:1013200080E046C06E3009F452C06F3099F70E94D9
:101330000D09F7011381110F110F110F6C89160F91
:1013400060E4CE010E947209612F62956F70606146
:10135000CE010E947209612F6F70CE010E9469094F
:10136000F7016481606BCE010E946909F701408139
:1013700051816281660F660F660FCE010E941609C9
:101380000150A1F72EC064E371E0442311F06FE235
:1013900071E0CE010E941E090AC0411110C068E22E
:1013A00071E00E941E09E881F98182898C8B81E0BD
:1013B000DF91CF911F910F91FF90EF90089561E21F
:1013C00071E00E941E09E881F9818389EFCF0E94B4
:1013D0000D0961E8CE010E947209602FCE010E94C2
:1013E0006909CE010E940409E2CFEA85FB8530E05D
:1013F00020E040E068E2CE010995EE81FF8130E017
:1014000020E040E064E1CE01099541E06BE4CE01CB
:101410000E94FD08E881F981448169E2CE010E94C1
:10142000FD0840E06BE4CE010E94FD08E881F981EF
:10143000448169E2CE010E94FD0841E06BE4CE01E7
:101440000E94FD08E881F981458169E2CE010E9490
:10145000FD0869E371E09DCF8EE691E09983888372
:101460001C8AA5CFDC011896ED91FC9130E020E0BC
:1014700040E069E10994DC011896ED91FC9130E0BF
:1014800020E040E068E10994CF93DF931F92CDB74D
:10149000DEB76983BE016F5F7F4F0E940D060F901C
:1014A000DF91CF910895EF92FF921F93CF93DF9337
:1014B000EC01162F7A010E943B0A60E4CE010E94E3
:1014C000440AE885F9859701412F67E1CE01099526
:1014D000CE01DF91CF911F91FF90EF900C94320AD3
:1014E000EF92FF921F93CF93DF93EC01142F7901BA
:1014F000663181F138F4643109F44BC0653179F01B
:1015000080E022C06831C9F150F16931C9F780919A
:10151000DD02882391F1CE010E94320A2EC0809113
:10152000DD02882319F0CE010E94320ACE010E940A
:101530003B0A60E0CE010E94440A612FCE010E9466
:10154000440A81E08093DD02DF91CF911F91FF90EB
:10155000EF900895642F0E94440A81E0F5CF8091B6
:10156000DD02882319F0CE010E94320AA701193149
:1015700038F4612FCE010E94530A1092DD02EDCFA4
:1015800068E1CE010E94530A185188E1E80EF11C6F
:10159000EDCF8E898F3F11F488E78E8BE885F98532
:1015A0009701412F64E1CE01DF91CF911F91FF9010
:1015B000EF9009940F93FC01E85BFF4F0190F081DD
:1015C000E02DDF01A41BB50BAD01FC01EA5BFF4F71
:1015D0000190F081E02DDF01A61BB70BBD010111C9
:1015E00013C041505109621B730BFC01E05CFF4FBB
:1015F0000190F081E02D4E1B5F0BDC01D496ED9144
:10160000FC9109950F910895013079F761507109A6
:10161000421B530BEACFCF93DF93FC01A081B18132
:1016200082AD90E09C0143E0220F331F4A95E1F721
:1016300037AF26AF50962C91509748E0249F9001E9
:10164000112435AF24AF23AD30E0B90153E0660F6C
:10165000771F5A95E1F7EF01C05CDF4F798368830C
:1016600051964C915197E901C80FD91F50E04C1782
:101670005D0718F4CA01821B930BEF01CE5BDF4FAD
:1016800079836883229623E0880F991F2A95E1F7D2
:10169000860F971F99838883229654968D919C91EB
:1016A000559799838883E85BFF4F56968D919C915F
:1016B00091838083DF91CF9108950F931F93FC0155
:1016C000E25BFF4F0190F081E02DDC01A05BBF4F9A
:1016D0000D90BC91A02D4A175B0740F4E017F1076D
:1016E00048F00417150730F080E019C0E017F10743
:1016F000C0F3FACFFC01E65BFF4F40815181845B70
:101700009F4FFC01808191816817790758F481E02F
:101710004217530720F081E02617370728F71F915B
:101720000F91089542175307B0F3DECF2F923F92E7
:101730004F925F926F927F928F929F92AF92BF92E1
:10174000CF92DF92EF92FF920F931F93CF93DF938D
:10175000CDB7DEB728970FB6F894DEBF0FBECDBF6A
:1017600098878F83865B9F4F9A838983FC011182C0
:101770001082EF81F885EA5BFF4F208031802F8156
:101780003885245B3F4F3C832B83F90131822082D3
:10179000EF80F884FEE4EF0EF11CF7011182108255
:1017A000EF81F885E85BFF4F40805180EF81F8853D
:1017B000EC5BFF4F208131814216530630F0C201AD
:1017C000821B930BF70191838083EF81F885EE5B99
:1017D000FF4F20813181421A530A2F813885205BC7
:1017E0003F4F3E832D83F90151824082EF81F8857E
:1017F000E85AFF4F60807180EF81F885EC5AFF4F07
:10180000A080B180EF81F885EA5AFF4FC080D18077
:10181000EF81F885EE5AFF4F80809180830195011A
:10182000A601B4018F8198850E945D0B2F813885B8
:101830002C573F4F38872F8381111BC0F90110822D
:1018400028960FB6F894DEBF0FBECDBFDF91CF91C3
:101850001F910F91FF90EF90DF90CF90BF90AF90CE
:101860009F908F907F906F905F904F903F902F90C0
:10187000089581E0EF81F88580838114910421F03F
:10188000E981FA8191828082A214B30420F4EB8171
:10189000FC81B182A082F701808191818C159D0528
:1018A00010F4D182C0826414750450F6ED81FE817B
:1018B00071826082C5CF0F93CF93DF93E02FDC015D
:1018C000AC57BF4FFC91FF2309F460C021153105CF
:1018D00009F45CC02230310538F0023009F04AC00A
:1018E0006F5F7F4F621B730B0E2F0170E0FD52C0C4
:1018F000FC01E25BFF4F0190F081E02D4E175F0786
:1019000008F444C0FC01E05BFF4F0190F081E02D42
:101910004E175F07D8F5FC01E45BFF4F0190F081A3
:10192000E02DDC01A65BBF4F0D90BC91A02D260FD2
:10193000371F2617370738F56E177F0718F59F01F1
:1019400021503109A217B30708F56A177B0708F47D
:10195000BD012E173F0708F4F901E61BF70BEC0158
:10196000AEA9BFA914960D90BC91A02D9F01FD01B9
:1019700009950CC0033009F0B7CF4F5F5F4F421B92
:10198000530BB2CFBD016E177F07E0F2DF91CF910D
:101990000F910895FC01E65BFF4F0190F081E02D6F
:1019A0006E177F0798F3FC01E45BFF4F0190F08115
:1019B000E02D6E177F0750F7FC01E05BFF4F0190B1
:1019C000F081E02DDC01A25BBF4F0D90BC91A02DFA
:1019D000240F351F24173507A8F44E175F0788F426
:1019E0009F0121503109A217B30780F64A175B0700
:1019F00008F4AD012E173F0708F4F901E41BF50BBD
:101A0000AECFAD014E175F0708F6EDCFAF92BF9294
:101A1000CF92DF92EF92FF920F931F93CF93DF93BA
:101A20006C01EB015A017B01E20EF31E9C01240FB5
:101A3000351F8701AB01BC0183E694E00E945D0B7A
:101A4000882361F000E09501AE01B60183E694E0E1
:101A50000E945B0C2196EC16FD06A1F7DF91CF9159
:101A60001F910F91FF90EF90DF90CF90BF90AF90BC
:101A70000895213069F038F0223079F0840F911DFB
:101A800047FD9A950895860F911D67FD9A950895D3
:101A9000841B910947FD93950895861B910967FD65
:101AA00093950895213069F038F0223079F0861B43
:101AB000910967FD93950895840F911D47FD9A95AF
:101AC0000895860F911D67FD9A950895841B9109CD
:101AD00047FD939508953F924F925F926F927F9248
:101AE0008F929F92AF92BF92CF92DF92EF92FF922E
:101AF0000F931F93CF93DF937C01162F442EEC019D
:101B0000C25ADF4F5E806F806C018AE8C80ED11C1C
:101B100078847518312E711608F4372C8C809D80CE
:101B20000E85202F462D652D8A819B810E94390DBF
:101B30005C01202F462D652DC4010E94520DAC0181
:101B4000442079F08C85F6018083232D30E0B501A7
:101B5000C7010E945B0C171548F017196394512CAC
:101B6000D7CF8B858111F7CF8D85EDCF150D1E83D6
:101B70006F82DF91CF911F910F91FF90EF90DF90D7
:101B8000CF90BF90AF909F908F907F906F905F901D
:101B90004F903F900895DC011A964C911A97ED9161
:101BA000FC911197249130E0042E02C035952795C1
:101BB0000A94E2F7842F860F883068F031961196E8
:101BC000FC93EE93E49198E0941B01C0EE0F9A957C
:101BD000EAF72E2B88501A968C938FEF9FEF01C057
:101BE000880F6A95EAF7809582230895FC01E60F35
:101BF000F11D849190E0982F88273196E4918E0F03
:101C0000911D0895CF93DF93EC016BAFEEA9FFA96F
:101C10000190F081E02D0995EEA9FFA90280F381E2
:101C2000E02DCE01DF91CF910994AF92BF92CF9278
:101C3000DF92EF92FF920F931F93CF93DF9300D029
:101C400000D01F92CDB7DEB78C01DC01DA96AC90E4
:101C5000DA97DB96EC90DB97ED91FC91B188FE2C46
:101C6000D12CC12CD801ED91FC9111978089D89687
:101C70002D913C911C82FD828B83B8E08B9FC0012B
:101C800011248C9DA0018D9D500D9C9D500D112403
:101C9000240F351F3A832983D8011496ED91FC91C6
:101CA0009E012F5F3F4F41E06FE0C8010995F3941B
:101CB0008F2D8E198A1528F4BFEFCB1ADB0AFB147F
:101CC00088F20F900F900F900F900F90DF91CF91AF
:101CD0001F910F91FF90EF90DF90CF90BF90AF904A
:101CE0000895089508958F929F92AF92BF92CF92D8
:101CF000DF92EF92FF92CF93DF937C01C62F6C327D
:101D0000B0F46A32E8F5683249F1693209F444C046
:101D100080E0C034B0F1CF73F701EC0FF11D868D78
:101D20008F3F71F1C03108F06DC0642F14C06D3267
:101D300009F456C068F384EB860F823048F7CF73FE
:101D4000CE0DDF2DD11D8E8D411158C061E00E9456
:101D5000950660E08E8D0E94670612C02EE1E20EAD
:101D6000F11CD0E0F70181917F018F3F31F061E0FC
:101D7000D03108F062E00E949506DF5FD63191F71E
:101D800081E0DF91CF91FF90EF90DF90CF90BF90F7
:101D9000AF909F908F900895C42ED12CF12CE12C00
:101DA0000E94D1064B015C01C114D104E104F1048D
:101DB00039F30E94D106681979098A099B09683E9E
:101DC00073408105910580F3F1E0CF1AD108E10855
:101DD000F10828EE820E23E0921EA11CB11CE4CF74
:101DE00085E090E0433010F082E090E0880F991F8A
:101DF000880F991F05970197F1F7C2CF62E00E9403
:101E00009506BECF0E943E0621E0892B09F420E012
:101E1000F701218FB5CFCF92DF92EF92FF920E9410
:101E2000202720E034E244E759E40E9478269B0111
:101E3000AC0160E070E080E89FE30E9478266B01CF
:101E40007C01AC019B0160E074E284E79BE40E94AA
:101E500078260E94F1266F3F2FEF720781059105CA
:101E600008F47CC020E030E040E051E4C701B60156
:101E70000E94D7279B01AC0160E074E284E79BE4F9
:101E80000E9478260E94F1266F3F2FEF720781058E
:101E9000910508F465C020E030E040E852E4C70155
:101EA000B6010E94D7279B01AC0160E074E284E791
:101EB0009BE40E9478260E94F1266F3F2FEF720765
:101EC0008105910508F44EC020E030E040E853E47D
:101ED000C701B6010E94D7279B01AC0160E074E204
:101EE00084E79BE40E9478260E94F1266F3F2FEF43
:101EF000720781059105C0F120E030E040E854E42C
:101F0000C701B6010E94D7279B01AC0160E074E2D3
:101F100084E79BE40E9478260E94F1266F3F2FEF12
:101F2000720781059105A8F425E0F89410928100CC
:101F300061507109709389006093880080918100DD
:101F400088608093810080918100282B20938100FC
:101F50007894FF90EF90DF90CF90089521E0E5CF47
:101F600022E0E3CF23E0E1CF24E0DFCF68EF8BEF87
:101F700092E00C949008CF92DF92EF92FF920F9331
:101F80001F93CF93DF93EC0188810E943E068C0162
:101F90000E94F606CA80DB80EC80FD80AB01BC01AC
:101FA0004C195D096E097F090115110561F48981DC
:101FB000813031F491E04B3051056105710508F431
:101FC00090E080E00EC001301105D1F789818111C8
:101FD000F7CF81E04B3051056105710508F480E0D1
:101FE00090E01F821E829923B1F081E090E09F83F0
:101FF0008E830E94F6066B017C01CA82DB82EC8232
:10200000FD820983DF91CF911F910F91FF90EF9097
:10201000DF90CF900895882381F30E94F6062EEE7C
:10202000C20E22E0D21EE11CF11C6C157D058E054E
:102030009F0550F482E090E09F838E83E885F985C8
:102040003097B9F20995D5CF83E090E09F838E83D6
:10205000EA85FB85F5CF0F931F93CF938C01C62F95
:1020600062E08C2F0E949506F801C0838C2F0E949D
:102070003E06F8018183CF911F910F910895CF9271
:10208000DF92EF92FF92CF93DF93EC0189819A81E7
:102090009C838B8388818E3008F08E50877080649B
:1020A00080937C0080917A00806480937A00809194
:1020B0007A0086FDFCCFA0917800B0917900CF80A6
:1020C000D8840D2C000CEE08FF0829853A85032ED4
:1020D000000C440B550B2C193D094E095F090E9459
:1020E0003A262FEF33E040E050E00E941026DA015C
:1020F000C9018C0D9D1DAE1DBF1D092E000CAA0B24
:10210000BB0B4D815E81052E000C660B770B841B8B
:10211000950BA60BB70B81152EEF92072FEFA20799
:10212000B207DCF0813022E09207A105B10524F06E
:1021300080E092E0A0E0B0E09A8389832B8522239F
:1021400029F09195819591099A838983DF91CF91A7
:10215000FF90EF90DF90CF90089580E09EEFECCF5E
:10216000CF92DF92EF92FF920F931F93CF93DF9363
:102170006C01EB017B01E40EF51E10E000E0CE15D2
:10218000DF0561F06991D601ED91FC910190F0813C
:10219000E02DC6010995080F191FF1CFC801DF9185
:1021A000CF911F910F91FF90EF90DF90CF90089506
:1021B0002F923F924F925F926F927F928F929F9257
:1021C000AF92BF92CF92DF92EF92FF920F931F9345
:1021D000CF93DF93CDB7DEB728970FB6F894DEBF65
:1021E0000FBECDBF7C016C0124E0C20ED11CFC01EE
:1021F000E057FF4F0190F081E02DC60109958C0159
:102200008E3F9F4F08F061C0370184E9680E711C52
:10221000F3010190F081E02DFD83EC835701F2E999
:10222000AF0EB11CF50180809180970120593F4F7E
:102230003B832A83F9018081813009F470C008F45E
:102240005FC0823009F476C0833009F482C0F701A0
:10225000EC59FF4F9182808232962C813D813183EF
:10226000208338978081918147969D838C830F3F8F
:10227000110511F008F020C1B6960136110530F4B1
:102280000134110558F0F701EE57FF4F808191811D
:102290002C813D81280F391F3D832C838C819D81AA
:1022A0000196FC01249121115FC090E080E0EA8159
:1022B000FB812081213009F4C1C108F4B7C122306B
:1022C00009F4BEC1233009F4C3C181E090E028962F
:1022D0000FB6F894DEBF0FBECDBFDF91CF911F9137
:1022E0000F91FF90EF90DF90CF90BF90AF909F90B5
:1022F0008F907F906F905F904F903F902F900895B8
:10230000F701E05AFF4F0190F081E02DC6010995D9
:102310002C813D81280F391F3D832C8398CFF701F5
:10232000E05AFF4F0190F081E02DC6010995881A0F
:10233000990A8DCFF701E05AFF4F0190F081E02D0F
:10234000C6010995EC81FD81E81BF90BFD83EC8347
:102350007ECFF701E05AFF4F0190F081E02DC601DA
:102360000995880E991E73CFEC81FD812491201769
:10237000110609F09AC0CF010296009709F495CF93
:10238000F701EE59FF4FF887EF8391838083128620
:10239000739660818F8198850E94CB0DEF81F885BF
:1023A0008087F701EA58FF4F60818F8198850E94EE
:1023B000CB0D582EEF81F8858187970122573F4F2B
:1023C0003D832C83F9019081EF81F885948781E02A
:1023D000911180E0EF81F8858587F701E958FF4F7B
:1023E0008080682D8F8198850E94CB0D382EF70153
:1023F000E858FF4F2080622D8F8198850E94CB0D79
:10240000982EF701E758FF4F1081612F8F81988533
:102410000E94CB0D9FEF910F01E010E0980101C0E9
:10242000220F9A95EAF7821B8E83EF81F88540840C
:1024300014140CF0C4C08A94C80101C0880F8A9497
:10244000EAF7381AF685F983950C2A94C80101C079
:10245000880F2A94EAF7282E29182F2F422D632D52
:10246000EF81F885828193810E94390D4C01EF81C3
:10247000F885938382832981422D632D8481958100
:102480000E94520DEF81F88595838483F981F130A4
:1024900009F49AC008F44EC0F23009F4A4C0F33035
:1024A00009F4B5C0BC0194014FC0FC0184912C819A
:1024B0003D81280F311DF0CEF701EA57FF4F808193
:1024C0009181EC81FD81E80FF91FFD83EC834F01C1
:1024D00060E0C4010E94F60D2C813D81280F391F58
:1024E0003D832C8362E0C4010E94F60D34E0830E2C
:1024F000911C8017910760F3EC81FD81849190E03D
:10250000982F88273196E4918E2B009709F4CDCE31
:102510000817190721F48C819D8103962ECFEC8139
:10252000FD813296E4912C813D812E0F311D3D833A
:102530002C83E2CF9401240D311D47FC3A95BC0158
:10254000650D711D57FC7A958B01AC01B401C60174
:102550000E945D0B882399F1EF81F885168217821E
:102560004701F3E78F0E911C24E7E20EF11CF40102
:1025700060818F8198850E94CB0D082FF7016081C3
:102580008F8198850E94CB0D182F40E0602FC601E7
:102590000E946B0D41E0612FC6010E946B0D61E04E
:1025A0008F8198850E94CB0D8111EFCFEF81F88547
:1025B00087818515E4F28485EC81FD818083FE812D
:1025C0008F2FFF0F990B73CE0519110957FC139527
:1025D00094012F5F3F4FBC01640D711D47FC7A953C
:1025E000800E911EB1CFA8014419510947FC5395A3
:1025F00094012F5F3F4F0519110957FC1395BC013A
:102600006F5F7F4F800F911F840E951E9DCF9401A9
:10261000250D311D57FC3A950419110947FC1395F6
:10262000BC016F5F7F4F800F911F8ECFF50120811E
:102630003181820F931F9183808347CEF301F7CFBF
:10264000F50120813181281B390B318320833DCE58
:10265000F301F7CF089520916002260F3327331F2F
:1026600021323105ECF42091B302FC0190E080E0CE
:10267000243069F082E00895A09160022191AC01BC
:10268000405C5D4FA40FB52FB11D2C9301968617AA
:1026900098F380916002680F6093600280E0089573
:1026A00081E008951092B30281E08093B20210920B
:1026B0008D0261E082E10E94670661E083E10E9491
:1026C0006706E9EBF0E080818E7F808380818D7FDB
:1026D000808388E48093B80085E48093BC000895EB
:1026E000CF93DF9391E090933F028823B9F0C0919C
:1026F000B800D091BA008091BC008A7B8093BC0066
:1027000060E082E10E94670660E083E10E94670664
:102710000E945213D093BA00C093B800DF91CF91BA
:1027200008950895E0918C0280918B02E81730F4AF
:10273000F0E0E15EFD4F808190E008958FEF9FEF24
:10274000089590918C0280918B022FEF3FEF9817A4
:1027500048F4E92FF0E0E15EFD4F208130E09F5F1B
:1027600090938C02C901089580918B0290918C0204
:10277000891B990B0895CF92DF92EF92FF920F93EE
:102780001F93CF93DF937C01CB018A012091B90283
:10279000222389F0EB016B01C40ED51ECC15DD059B
:1027A00069F06991D701ED91FC910190F081E02DE4
:1027B000C7010995F3CF642F0E942B13C801DF9145
:1027C000CF911F910F91FF90EF90DF90CF900895E0
:1027D000CF92DF92EF92FF920F931F93CF93DF93ED
:1027E000EC01962F683109F44BC0B901993130F4EE
:1027F0009431C9F0973189F080E006C0993109F42D
:1028000061C09032C9F781E0DF91CF911F910F91A4
:10281000FF90EF90DF90CF90089550E08BE895E027
:102820000E94BB13F0CF8C859D85AE85BF85892B1B
:102830008A2B8B2B71F4E881F981A585B0E020EA21
:1028400036E841E050E00E942F266C877D878E8716
:102850009F8710928C0210928B021092BA021092F3
:10286000DC020E94521381E79EE090938A028093DB
:10287000890282E79EE09093880280938702C3CF0B
:102880002C853D854E855F8560E074E284EF90E0A5
:102890000E94422620513109410951095695479518
:1028A000379527952093B8008E8990E09595879568
:1028B00091E09093B9028093DB021092BA021092D9
:1028C000DC02A1CFD091DC02D13208F093C0C091DC
:1028D000DB020E94D1066B017C018091B302811161
:1028E00064C082E08093B30281E08093B2028FEFF4
:1028F0008093B1021092B002D093AF02ABEBB2E082
:10290000EFE8F2E080E0D8137CC010928E02809154
:102910008E02CC0FC82BC0938E0280918D02813025
:1029200009F073C010928D020E94D1066B017C01E8
:1029300080918E028093BB008091B5029091B60287
:10294000A091B702B091B802892B8A2B8B2B99F0FA
:102950000E94D1060091B5021091B6022091B702F3
:102960003091B8026C197D098E099F090617170767
:1029700028073907D8F18091BC0083FDD9CF85ECB9
:102980008093BC000E94D1066B017C018091B30250
:102990008230E9F18091B1028F3F61F18091B10203
:1029A000803241F18091B10225C08091B5029091B1
:1029B000B602A091B702B091B802892B8A2B8B2B5B
:1029C00009F48BCF0E94D1060091B5021091B60296
:1029D0002091B7023091B8026C197D098E099F09C8
:1029E000061717072807390708F077CF8091B40238
:1029F0000E9470131092BA021092DC021092B90277
:102A000002CF9D9191938F5F7ECF85EEB9CF80915C
:102A1000B5029091B602A091B702B091B802892B8D
:102A20008A2B8B2B09F4B2CF0E94D1060091B502FC
:102A30001091B6022091B7023091B8026C197D094D
:102A40008E099F09061717072807390708F09ECF38
:102A5000CDCFCF93DF931F92CDB7DEB7698320919F
:102A6000B9022223F9F02091DC02203258F021E053
:102A700030E0FC013383228390E080E00F90DF910F
:102A8000CF9108958091BA02E82FF0E0E554FD4F10
:102A9000998190838F5F8093BA028093DC0281E0FA
:102AA00090E0ECCF61E0CE0101960E942B13F7CFAE
:102AB00090E080E00895CF93DF938091E402882333
:102AC000C9F00E94F405CCEFD4E060E088810E9458
:102AD00067061982279685E0C632D807B1F780913C
:102AE000E40291E089278093E40290930A01DF9148
:102AF000CF9108950E940207F2CF209100013091FA
:102B00000101C9019695879596958795A90163E07E
:102B1000569547956A95E1F784278227A90175E0C4
:102B2000569547957A95E1F78427817036952795D4
:102B3000482F50E05527469557954427242B352B91
:102B4000309301012093000108952F923F924F92FC
:102B50005F926F927F928F929F92AF92BF92CF922D
:102B6000DF92EF92FF920F931F93CF93DF93CDB736
:102B7000DEB72B970FB6F894DEBF0FBECDBF28E1AE
:102B800030E040E050E00E9442266C307105810543
:102B9000910571F52CEF34E03A83298306E215E0C4
:102BA00060E0E981FA8180810E946706E981FA810B
:102BB00011823796FA83E9830E171F0789F72B9640
:102BC0000FB6F894DEBF0FBECDBFDF91CF911F913E
:102BD0000F91FF90EF90DF90CF90BF90AF909F90BC
:102BE0008F907F906F905F904F903F902F900895BF
:102BF000672B682B692B19F72091F0023091F102B5
:102C00004091DE025091DF0237FF02C02F5F3F4F3D
:102C100035952795240F351F90E080E037FD1CC0C7
:102C20002091F0023091F10237FF02C02F5F3F4F39
:102C300035952795240F351F8FEF90E02F3F3105F5
:102C400009F054F48091F0029091F10297FD019601
:102C500095958795840F951F2091EE023091EF0294
:102C60004091E0025091E10237FF02C02F5F3F4FD9
:102C700035952795240F351F512C412C37FD1EC04B
:102C80002091EE023091EF0237FF02C02F5F3F4FDD
:102C900035952795240F351F2F3F310511F00CF086
:102CA00040C14090EE025090EF0257FE03C0FFEF8C
:102CB0004F1A5F0A55944794440E551E65E570E01F
:102CC0000E9454287C836B83182F110F180FCB019F
:102CD0006330710514F082E090E02CE0289FA001A1
:102CE000299F500D11245A834983445F5F4F5887B1
:102CF0004F83B201052C000C880B990B07E0660F7F
:102D0000771F881F991F0A95D1F72FEF30E040E019
:102D100050E00E94102649015A018FE5E82E84E018
:102D2000F82E64E071E07E836D838B819C81039734
:102D30000CF01FEFE12FF0E0FC83EB83D12CC12CD2
:102D4000809102019091030160901C0270901D021D
:102D500065E570E00E945428982F990F890F633021
:102D600071051CF08FEF62E070E0AB01440F551F5E
:102D7000640F751F29813A812C0D3D1DAB01420F57
:102D8000531FE4E0440F551FEA95E1F7460D571D28
:102D900048595F4FFA01F491F9874F8158854C0DDE
:102DA0005D1DDA01A60FB71FF4E0AA0FBB1FFA954D
:102DB000E1F7A60DB71DA859BF4FFD01A4916D5FA6
:102DC0007F4F260F371FB4E0220F331FBA95E1F76C
:102DD000260D371D28593F4FF9012491FA01E60FBE
:102DE000F71F14E0EE0FFF1F1A95E1F7E60DF71D30
:102DF000E859FF4FE4913985A31BBB0B4B815C81E4
:102E0000A49F8001A59F100DB49F100D1124310FB8
:102E10003987E21BFF0BBA01E69FA001E79F500D27
:102E2000F69F500D1124250F231B330B829FA00109
:102E3000839F500D11243984350EED81FE8101915F
:102E40001191FE83ED831414150484F528E030E01D
:102E50003B872A87212C0E947D15220C282A4A852F
:102E60005B85415051095B874A87452BA1F70E943A
:102E70007D158987A22DB0E0A50194010E942F261F
:102E80002FEF30E040E050E00E9410266985662375
:102E900009F44BC0020F131F0F3F110519F014F076
:102EA0000FEF10E017FF02C010E000E0832D90E06C
:102EB0009B878A8780179107F4F461E0F701E35656
:102EC000FF4F80810E94670633243394F701E25656
:102ED000FF4F3082EA85FB85FC96E017F1075CF432
:102EE00061E0F701EE54FF4F80810E946706F70111
:102EF000ED54FF4F3082FFEFCF1ADF0A27E0E20EDA
:102F0000F11C33E0C316D10409F01ACFC3010196B6
:102F100060E170E00E94542890931D0280931C028F
:102F20004ECE44244A94512CC9CE021B130BB4CF6D
:102F30006CEF8BEF92E00C9490086AEF8BEF92E0CD
:102F40000C9490088A3F60F08C3F30F08C3F41F445
:102F50000E94F4050C9498170E9402070C949D1788
:102F600008958F929F92AF92BF920F931F93CF932A
:102F7000DF93CDB7DEB7A1970FB6F894DEBF0FBED3
:102F8000CDBF19A2423008F44AE08E010F5D1F4FF9
:102F9000842E912CB12CA12CA50194010E944226D3
:102FA000E62FB901CA01EA3044F5E05DD801EE939D
:102FB0008D01232B242B252B79F790E080E01097AF
:102FC00069F0FD0101900020E9F73197AF014A1B3C
:102FD0005B0BBD018FE594E00E94B010A1960FB687
:102FE000F894DEBF0FBECDBFDF91CF911F910F913F
:102FF000BF90AF909F908F900895E95CD7CFFC0170
:1030000001900020E9F73197AF01481B590BBC0133
:103010008FE594E00C94B010CF92DF92EF92FF9284
:10302000CF93DF936C01990FEE08FF08F7FE19C0EC
:103030006DE28FE594E00E94D810EC0166277727B7
:10304000CB016C197D098E099F094AE00E94B117D6
:103050008C0F9D1FDF91CF91FF90EF90DF90CF906D
:1030600008954AE0C701B601DF91CF91FF90EF903C
:10307000DF90CF900C94B1174F925F926F927F9236
:10308000AF92BF92CF92DF92EF92FF920F931F9376
:10309000CF93DF937C018B015A01D22E81E00E94F5
:1030A0000A061092F2041092F104F092F404E092F5
:1030B000F304E7012897DD2009F49DC08CEB91E033
:1030C0000E94FF1780911E02882361F02AE030E001
:1030D0004AE150E0BE0186E090E00E94060D80E0EB
:1030E0000E940A0686E090E09093F2048093F10437
:1030F000F092F404E092F304C8010E94FF1781E00B
:103100000E940A062CE330E0D5010E9468282FEFC8
:1031100030E040E050E00E94102629018E01085F57
:103120001F4F2EE530E0AE0162E270E083E694E0EE
:103130000E945D0B882369F100E02CE330E0AE01D2
:1031400062E270E083E694E00E945B0C01E026E01E
:1031500030E06E018FEFC81AD80AA60162E270E073
:1031600083E694E00E945B0C26E030E0A6016DE56A
:1031700070E083E694E00E945B0C00E02CE330E01A
:10318000AE01495F5F4F62E270E083E694E00E9427
:103190005B0C28E030E0A201BE0182E290E00E94D8
:1031A000060D82E690E09093F2048093F104F09291
:1031B000F404E092F30424E630E0D5010E9468288C
:1031C0002FEF30E040E050E00E941026C9010E943D
:1031D0000C1880EC91E0DF91CF911F910F91FF903F
:1031E000EF90DF90CF90BF90AF907F906F905F9007
:1031F0004F900C94FF178EEB91E00E94FF1772CF57
:10320000FF920F931F93CF93DF93EC018B01FB0190
:10321000F0800E94FA25F81621F06F2DCE010E9451
:103220000226F801F1802196CE010E94FA25F816B7
:1032300021F06F2DCE010E940226C801DF91CF91AF
:103240001F910F91FF9008950F931F93CF93DF93DA
:103250008C01EB010E94FA258883C80101960E9427
:10326000FA258983CE01DF91CF911F910F910895A7
:10327000FC01A081B18150962C9182AD38E0839FF2
:10328000C0011124289FA001299F500D112470E036
:1032900060E080AD91AD0C94AE291F93CF93DF9386
:1032A000EC010E94150E1BAD8AAD180FE881F98163
:1032B0008189181768F0EC81FD8130E020E040E062
:1032C00060E1CE01099580E0DF91CF911F910895D3
:1032D000FE01E557FF4F8081882319F0CE010E943F
:1032E0003819612FCE010E94020E81E0EDCFCF93FD
:1032F000DF93EC01FC01E557FF4F8081882319F033
:10330000CE010E94381960E0CE01DF91CF910C947C
:10331000020E85ED8093BC008091B5029091B602BB
:10332000A091B702B091B8020796A11DB11D23E08C
:10333000B695A795979587952A95D1F72091BC00CA
:1033400024FD03C01092B30208954091B50250913C
:10335000B6026091B7027091B802452B462B472BFD
:1033600069F30097A105B10541F02AE22A95F1F72A
:1033700000C00197A109B109E1CF8091B4020C947A
:1033800070131F920F920FB60F9211242F933F9339
:103390008F939F93AF93BF938091F3029091F40228
:1033A000A091F502B091F6023091F20223E0230FD2
:1033B0002D3758F50196A11DB11D2093F20280937F
:1033C000F3029093F402A093F502B093F602809179
:1033D000F7029091F802A091F902B091FA020196D9
:1033E000A11DB11D8093F7029093F802A093F902FA
:1033F000B093FA02BF91AF919F918F913F912F911E
:103400000F900FBE0F901F90189526E8230F02967D
:10341000A11DB11DD2CF1F920F920FB60F92112492
:103420002F933F934F935F936F937F938F939F93CC
:10343000AF93BF93EF93FF938BEF92E00E946E08E0
:10344000FF91EF91BF91AF919F918F917F916F917C
:103450005F914F913F912F910F900FBE0F901F9052
:1034600018951F920F920FB60F9211242F933F932E
:103470004F935F936F937F938F939F93AF93BF937C
:10348000EF93FF93CF93DF931F92CDB7DEB781E029
:103490008983E0919803F0919903309761F0A091AE
:1034A0000B03B0910C036C91A0911103B091120326
:1034B0008C910995898389818823E1F0E0910B0340
:1034C000F0910C038081E0911103F091120382FDD1
:1034D00025C09081809114038F5F8F732091150315
:1034E000821741F0E0911403F0E0E550FD4F958F15
:1034F000809314030F90DF91CF91FF91EF91BF91D3
:10350000AF919F918F917F916F915F914F913F917B
:103510002F910F900FBE0F901F9018958081EACFCA
:103520001F920F920FB60F9211248F929F92AF921B
:10353000BF92CF92DF92EF92FF920F931F932F9340
:103540003F934F935F936F937F938F939F93AF932B
:10355000BF93EF93FF930E94F606609383027093EC
:103560008402809385029093860280919A039091C1
:103570009B03029709F072C1C090B103D090B203CF
:103580008091B0038C151D0411F41092B00380914A
:10359000B003811106C18091D6039091D7030197A2
:1035A00009F0ECC04091AC035091AD036091AE03C3
:1035B0007091AF038091BE039091BF03A091C003AF
:1035C000B091C103481759076A077B0780F08091C3
:1035D000BE039091BF03A091C003B091C1030196B7
:1035E000A11DB11D84179507A607B70720F52091E7
:1035F000BE033091BF034091C0035091C10320939B
:10360000AC033093AD034093AE035093AF03F12C62
:10361000E12CC701B6010E9444286093A80370936F
:10362000A9038093AA039093AB03A70196010E947C
:1036300042266093B003C090C203D090C303E090D1
:10364000C403F090C5030E94D1060091BA03109103
:10365000BB032091BC033091BD0360177107820743
:10366000930708F416C1601B710B820B930B6093D8
:10367000CA037093CB038093CC039093CD03009146
:10368000BE031091BF032091C0033091C10380900D
:10369000AC039090AD03A090AE03B090AF030815BB
:1036A00019052A053B0508F4FDC044E0660F771FA5
:1036B000881F991F4A95D1F7672F782F892F99274F
:1036C000C61AD70AE80AF90AA091A603B091A7037F
:1036D000A70196010E943A260E9420279B01AC0177
:1036E00060EC71EE84E69CE40E9478266B017C011C
:1036F00020E030E040E85FE30E94732687FDF0C0E1
:1037000020E030E048EC53E4C701B6010E94D22724
:10371000181634F4C12CD12C98ECE92E93E4F92E30
:10372000A70196016091CE037091CF038091D003E1
:103730009091D1030E947326882301F1C092CE0399
:10374000D092CF03E092D003F092D1036091A40312
:103750007091A50390E080E00E9420279B01AC01BE
:1037600060EC71EE84E69CE40E947826A701960145
:103770000E9478260E94F1260E940B0F8091AC03D4
:103780009091AD03A091AE03B091AF030196A11D3E
:10379000B11D8093AC039093AD03A093AE03B0939F
:1037A000AF038091B0038F5F8093B003E0919E03DD
:1037B000F0919F03309781F12091B3038091B4037E
:1037C0009091B5032817190611F41092B303809154
:1037D000B30381111CC06091B6037091B70380914F
:1037E000B8039091B90309958091B6039091B703FE
:1037F000A091B803B091B9030196A11DB11D8093AA
:10380000B6039093B703A093B803B093B903809124
:10381000B3038F5F8093B303E0919C03F0919D030A
:103820003097E1F06091A8037091A9038091AA03F9
:103830009091AB0309958091A8039091A903A09161
:10384000AA03B091AB030196A11DB11D8093A803FB
:103850009093A903A093AA03B093AB03FF91EF91B8
:10386000BF91AF919F918F917F916F915F914F9198
:103870003F912F911F910F91FF90EF90DF90CF908C
:10388000BF90AF909F908F900F900FBE0F901F90A2
:1038900018950095109520953095600F711F821F27
:1038A000931FE5CE6C157D058E059F0508F00CCFA6
:1038B000A7019601261B370B480B590BDA01C901EA
:1038C00024E0880F991FAA1FBB1F2A95D1F7892FC3
:1038D0009A2FAB2FBB27C80ED91EEA1EFB1EF4CEB3
:1038E000C12CD12C80E8E82E8FE3F82E19CF1F923F
:1038F0000F920FB60F9211240F931F932F933F93A4
:103900004F935F936F937F938F939F93AF93BF93E7
:10391000CF93DF93EF93FF93C091DD03D091DE034C
:10392000209709F45BC08C850E943E06182F8E8577
:103930000E943E06880F991F812B9A89891709F4E6
:103940004DC0EA890B891C892D893E8994E0E902E2
:10395000F0011124482F082E000C550BE42BF52BF9
:10396000EF5EFE4F9081492F990F550B660B770B39
:10397000400F511F621F731F4B8B5C8B6D8B7E8BB7
:103980008A8B288939892230310531F1233031057C
:10399000D1F12130310511F5833001F58B899C89F6
:1039A000AD89BE8932E0B595A795979587953A95EB
:1039B000D1F78F8B988FA98FBA8F8F8D98A1A9A1DE
:1039C000BAA18BA39CA3ADA3BEA30E94F6066F8FE2
:1039D00078A389A39AA302C0882301F3FF91EF91F2
:1039E000DF91CF91BF91AF919F918F917F916F9117
:1039F0005F914F913F912F911F910F910F900FBEAB
:103A00000F901F901895882311F0833039F78B8918
:103A10009C89AD89BE89B595A79597958795C9CF9E
:103A20001F920F920FB60F9211242F933F934F9333
:103A30005F936F937F938F939F93AF93BF93EF9316
:103A4000FF930E94771CFF91EF91BF91AF919F91DF
:103A50008F917F916F915F914F913F912F910F9037
:103A60000FBE0F901F9018951F920F920FB60F92D6
:103A700011242F933F934F935F936F937F938F9373
:103A80009F93AF93BF93EF93FF938091B900887F8B
:103A9000803609F44AC0F0F5883209F4A7C018F559
:103AA000803109F49BC0B8F4882309F4F9C0883048
:103AB00009F494C0FF91EF91BF91AF919F918F91C5
:103AC0007F916F915F914F913F912F910F900FBE1A
:103AD0000F901F901895883109F488C0803251F7F3
:103AE0008093B10214C0803409F49DC040F4803347
:103AF000B9F38833F9F68093B10285ECB0C0803514
:103B000009F485C0883509F496C0883499F60E9476
:103B10008919D0CF883909F48CC038F5883729F055
:103B200050F4883611F0803729F683E08093B30291
:103B30001092820257C0883809F47BC0803919F08E
:103B4000803809F0B7CF80918202803208F071C0CE
:103B5000E091820281E08E0F809382028091BB000F
:103B6000F0E0EE59FD4F80833DC0803B39F0E0F43A
:103B7000803A09F479C0883A09F09CCF84E08093B8
:103B8000B3021092610210926002E0918902F091FA
:103B90008A0209958091600281110FC081E08093B3
:103BA00060021092400209C0803C09F4A6CF883C14
:103BB00009F4A3CF883B09F07DCFE091610281E059
:103BC0008E0F80936102F0E0E05CFD4F8081809376
:103BD000BB00909161028091600229C080918E02A9
:103BE0008093BB0085EC8093BC0064CF9091B002C1
:103BF0008091AF02981758F5E091B00281E08E0FE6
:103C00008093B002F0E0E157FD4F8081E9CFE09171
:103C1000B00281E08E0F8093B0028091BB00F0E093
:103C2000E157FD4F80839091B0028091AF029817C9
:103C3000C8F285E8D8CFE091B00281E08E0F809382
:103C4000B0028091BB00F0E0E157FD4F808380918E
:103C5000B20281115CCF81E080938D0284EA80936F
:103C6000BC001092B30226CF85EC8093BC0010926A
:103C7000B30280918202803230F4E0918202F0E05F
:103C8000EE59FD4F10826091820270E0E091870250
:103C9000F091880282E692E00995109282020ACFA2
:103CA0001092B10234CFCF93DF931092FE021092A4
:103CB000FD0288EE93E0A0E0B0E08093FF029093D5
:103CC0000003A0930103B09302038AE891E090936C
:103CD000FC028093FB0285EC90E0909308038093B4
:103CE000070384EC90E090930A038093090380EC2F
:103CF00090E090930C0380930B0381EC90E0909301
:103D00000E0380930D0382EC90E090931003809358
:103D10000F0386EC90E090931203809311031092AE
:103D200014031092150310921603109217031092A9
:103D300099031092980380E690E09093A5038093F6
:103D4000A403C8E1D0E0D093A703C093A6031092C8
:103D5000D9031092D80380E090E0A0EFB2E4809302
:103D6000CE039093CF03A093D003B093D1031092CE
:103D7000D2031092D3031092D4031092D503109261
:103D8000C6031092C7031092C8031092C903109281
:103D9000CA031092CB031092CC031092CD03109261
:103DA0009B0310929A031092D7031092D6030E949D
:103DB000AE0510929D0310929C0310929F031092E7
:103DC0009E031092A1031092A0031092A3031092DD
:103DD000A2032091A4033091A5036091A6037091E2
:103DE000A703C9010E9454287093B2036093B103E2
:103DF000C901BE010E9454287093B5036093B403B7
:103E0000109262041092610482E395E09093F004B2
:103E10008093EF041092F2041092F1041092F404D3
:103E20001092F30410927B048CE991E0909360046B
:103E300080935F04109264041092630410927804DB
:103E400010926F0410927004109271041092720418
:103E50008FEF8093790480937D04E1E8F4E087E9B3
:103E600094E0DFEFD1938E179F07E1F78BE799E09E
:103E7000909368048093670480E79AE090936A04C3
:103E80008093690488EE93E190936C0480936B04B3
:103E900083E79EE090936E0480936D0430E020E011
:103EA00040E069E083E694E00E947B091092BE0442
:103EB0001092BD048CE395E090939804809397044E
:103EC0008FED93E090939C0480939B04C1E0C0939A
:103ED0009D0410929E041092CC041092EC04109257
:103EE000E804C093ED04C093EE0484EA91E090935B
:103EF0009A048093990483E694E00E940B0B10923D
:103F0000B6041092B5041092BA041092B9048FEF5F
:103F10009FEF9093B8048093B7049093BC04809370
:103F2000BB04E0919904F0919A040280F381E02DA2
:103F300083E694E009958BEA95E09093C004809322
:103F4000BF041092CF0483E180938C0482E18093BC
:103F50008D04D0938E041092F6041092F504109202
:103F6000330581E190E0909335058093340584E03A
:103F700090E0909337058093360581E090E0909330
:103F800039058093380562E081E10E94950662E080
:103F900084E00E949506809134050E943E06D82F49
:103FA000809136050E943E06880F991F8D2B8093C5
:103FB0003A0510923B0510923C0510923D05109277
:103FC0003E0510923F051092400510924105109257
:103FD0004205109243051092440510924505109237
:103FE0004605C093500510925605109255056EE097
:103FF0008FE495E00E942B1088E295E09093DE0319
:104000008093DD03C0935C051092620510926105F8
:10401000C093680510926E0510926D051092790597
:10402000109278052AEC3DEF30937B0520937A05BA
:1040300080E092E090937D0580937C0510927E0550
:10404000109285051092840530938705209386058C
:10405000909389058093880510928A0510928E05A9
:1040600010928D0588EE93E0A0E0B0E080938F057C
:1040700090939005A0939105B09392058EEA91E0FC
:1040800090938C0580938B05DF91CF910895789460
:1040900084B5826084BD84B5816084BD85B582604D
:1040A00085BD85B5816085BD80916E0081608093FE
:1040B0006E00109281008091810082608093810067
:1040C0008091810081608093810080918000816077
:1040D000809380008091B10084608093B1008091D2
:1040E000B00081608093B00080917A0084608093FA
:1040F0007A0080917A00826080937A0080917A00C1
:10410000816080937A0080917A00806880937A0041
:104110001092C100E0910B03F0910C0382E08083C8
:10412000E0910703F09108031082E0910903F091F8
:104130000A038FE3808310921303E0910F03F09141
:10414000100386E08083E0910D03F0910E038081DF
:1041500080618083E0910D03F0910E03808188607F
:104160008083E0910D03F0910E038081806880834D
:10417000E0910D03F0910E0380818F7D808380910B
:10418000D8039091D903892B59F481E08093DA0305
:1041900084E090E00E9489289093D9038093D8030B
:1041A000F894109280001092810010928500109275
:1041B000840081EC92EA909389008093880080913A
:1041C000810088608093810080918100826080936B
:1041D000810080916F00826080936F007894C0901E
:1041E000CE03D090CF03E090D003F090D103809124
:1041F000D6039091D7030197B1F120E030E040E879
:104200005FE3C701B6010E94732687FD2CC020E042
:1042100030E048EC53E4C701B6010E94D2271816DB
:1042200014F1F894C092CE03D092CF03E092D00361
:10423000F092D10378946091A4037091A50390E06B
:1042400080E00E9420279B01AC0160EC71EE84E6C7
:104250009CE40E947826A70196010E9478260E947D
:10426000F1260E940B0F1092D7031092D603F894F8
:1042700080E690E09093A5038093A4036091A60349
:104280007091A7030E9454287093B2036093B10306
:1042900084E090E09093B5038093B4037894809188
:1042A000D6039091D703019741F1F89480E090E014
:1042B000A0EFB2E48093CE039093CF03A093D003FA
:1042C000B093D10378946091A4037091A50390E01A
:1042D00080E00E9420279B01AC0160EC71EE84E637
:1042E0009CE40E94782620E030E040EF52E40E94F7
:1042F00078260E94F1260E940B0F8DE997E190939A
:10430000A1038093A00388E997E19093A30380938E
:10431000A20386EB9FE090939F0380939E030E94ED
:1043200002076CE08BE595E00E942B1065E087E6C4
:1043300095E00E942B1060E085E10E94950685E1E2
:104340008093730560E084E10E94950684E1809388
:104350007F058091680086608093680080916D0081
:10436000806180936D0080916C00886080936C0008
:1043700061E087E00E94950687E08093FC04C5E039
:10438000C093FB0461E088E00E94950688E080937A
:104390000305C093020561E08AE00E9495068AE069
:1043A00080930A05C093090561E086E00E949506A6
:1043B00086E080931105C093100561E089E00E94BA
:1043C000950689E080931805C093170561E08BE09E
:1043D0000E9495068BE080931F05C0931E0561E047
:1043E00083E00E94950683E080932605C09325050F
:1043F000E0916704F091680430E020E040E06AE07A
:1044000083E694E0099583E694E00E94771983E6B9
:1044100094E00E944D198111FACF60E083E694E0A8
:104420000E94020EE0916704F091680430E020E001
:1044300040E06BE083E694E0099590E080E00E9424
:10444000FA258C3A21F564E071E081E090E00E9469
:10445000241966E071E083E090E00E94241968E08E
:1044600071E085E090E00E9424196EED72E087E033
:1044700090E00E94241962E071E089E090E00E94DF
:10448000241960EE72E08BE090E00E9424198BE525
:1044900095E19093700580936F0585E297E0909386
:1044A0002905809328058EE297E090932D0580934F
:1044B0002C0585EA95E190939D0380939C03809160
:1044C000D6039091D703019741F1F89480E090E0F2
:1044D000A0EFB2E48093CE039093CF03A093D003D8
:1044E000B093D10378946091A4037091A50390E0F8
:1044F00080E00E9420279B01AC0160EC71EE84E615
:104500009CE40E94782620E030E040EF52E40E94D4
:1045100078260E94F1260E940B0FC0919A03D09139
:104520009B030E94F4058091F5049091F604059791
:1045300049F48FB7F8942FEE37E030939903209326
:1045400098038FBF1092F6041092F5041092D703CF
:104550001092D603CD2B11F00E9402078CE08093BD
:10456000B800F12CE12CE7EFAE2EE4E0BE2EF2EC29
:104570008F2EF3E09F2E8BE595E00E94BB0F87E620
:1045800095E00E94BB0F40913F055091400560911E
:10459000410570914205209130053091310510E0C0
:1045A00000E02417350709F441C080914705909138
:1045B0004805A0914905B0914A0540904B0550909F
:1045C0004C0560904D0570904E0584199509A6091B
:1045D000B709FA01E21BF30BF0932F05E0932E05C8
:1045E000509331054093300580319105A105B10507
:1045F00008F074C09F01220F331F2E0F3F1F30930E
:104600002F0520932E0580913305882359F0809142
:104610002E0590912F0591958195910990932F05E5
:1046200080932E0500912E0510912F0580914F0546
:104630000E943E06EC018FE495E00E94BB0FCD2B5B
:1046400009F059C0012B09F45DC081E08093320567
:10465000E0912A05F0912B05309729F080912E05E5
:1046600090912F05099580915505909156050297D7
:1046700029F48091320581111092320583E795E08B
:104680000E943F108FE795E00E943F10E50126E071
:10469000E216F1040CF04AC08E818823D1F00E940A
:1046A000F606088119812A813B81AB01BC01401BC0
:1046B000510B620B730B8C8190E0B0E0A0E04817C7
:1046C00059076A077B0728F060E08D810E94670622
:1046D0001E828FEFE81AF80A2796D9CF8097A10596
:1046E000B10508F090CFCF01880F991F90932F0547
:1046F00080932E0588CF012B29F0E0912C05F091B5
:104700002D05AACF8091550590915605029709F085
:10471000B5CF809132058111ACCFE0912805F091A1
:104720002905309709F4A5CF09959DCF809174058F
:10473000909175059093F1028093F002809180052D
:10474000909181059093EF028093EE028091ED02AB
:10475000882309F444C00E94F6060091E9021091F2
:10476000EA022091EB023091EC02601B710B820B8C
:10477000930B693873418105910588F190E080E0E1
:104780000E94FA258C3A29F06CEA90E080E00E94C1
:10479000022664E071E081E090E00E94001966E08A
:1047A00071E083E090E00E94001968E071E085E02C
:1047B00090E00E9400196EED72E087E090E00E94A8
:1047C000001962E071E089E090E00E94001960EE5B
:1047D00072E08BE090E00E9400191092ED0280914F
:1047E0000A01882309F4F9C10E94F6060091E50246
:1047F0001091E6022091E7023091E802601B710BF4
:10480000820B930B6F3171058105910508F4E5C1A9
:1048100010920A010E94F6066093E5027093E60288
:104820008093E7029093E80283E694E00E94771970
:104830004BEC242E43E0342E57E0C52ED12CF1E072
:10484000F093CC0481E00E940A068091BD0490910F
:10485000BE04825C934009F494C09092BE0480929E
:10486000BD04E2ECF3E084918093D004E3ECF3E048
:1048700084918093D104E4ECF3E084918093D2049A
:10488000E5ECF3E084918093D304E6ECF3E08491CB
:104890008093D404E7ECF3E084918093D504E8ECB2
:1048A000F3E084918093D604E9ECF3E08491809363
:1048B000D704EAECF3E084918093D804F101849169
:1048C0008093D904ECECF3E084918093DA04EDEC6E
:1048D000F3E0E491E093DB04EEECF3E0E491E093A9
:1048E000DC04EFECF3E0E491E093DD04E0EDF3E0D1
:1048F000E491E093DE04E1EDF3E0E491E093DF0482
:10490000E2EDF3E0E491E093E00461E182EC93E016
:104910000E94F60D9093E2048093E10463E182EC3F
:1049200093E00E94F60D9093E4048093E30465E124
:1049300082EC93E00E94F60D9093E6048093E504E8
:104940008091BD049091BE04892BD9F08091DD0443
:104950008093E9046091DE046093EA049091E80496
:10496000992379F0913009F05CC09091DF048917A8
:1049700014F49093E9048091E004861714F4809372
:10498000EA041092F2041092F104D092F404C0925E
:10499000F3048091E402882309F45EC082EC91E084
:1049A0000E94FF1787E390E09093F2048093F10454
:1049B000D092F404C092F30485ED91E00E94FF17B9
:1049C0008091D6039091D703019709F048C0809158
:1049D000D8039091D9032091DA03E22FF0E0E1505F
:1049E000F04CEE0FFF1FEE0FFF1FE80FF91F408185
:1049F000518162817381452B462B472B81F1FC014C
:104A000030E060E070E0CB01231709F482C04190F0
:104A1000519061907190640D751D861D971D3F5FCB
:104A2000F3CF5091DA044091DC04082E000C990B6E
:104A3000242F042E000C330B250F311D57FD3A9502
:104A4000821793071CF4540F5093E90446170CF097
:104A500098CF4093EA0495CF8BEC91E0A1CF4090A2
:104A6000CE035090CF036090D0037090D103C30168
:104A7000B2010E94EA26CB010E940C1800E020E857
:104A800030E04AE050E070E060E083E694E00E94AD
:104A90005B0CC091E202D091E302C230D1050CF46C
:104AA00076C0C430D10514F0C3E0D0E0229704E111
:104AB00010E021E08091E2029091E3028C179D07C3
:104AC00009F020E04091E0025091E10269EE71E0CE
:104AD000C330D10509F471C008F05CC040910601F3
:104AE000509107016FED71E0C130D10509F465C047
:104AF000409108015091090164EE71E0C230D10586
:104B000009F45BC040910401509105016AED71E028
:104B100054C0611571058105910509F4A0CF30E0FD
:104B200050E040E00E944226A091A603B091A70366
:104B30000E943A260E9420279B01AC0160EC71EE96
:104B400084E69CE40E9478262B013C0120E030E0C2
:104B500040E85FE30E94732687FD12C020E030E04A
:104B600048EC53E4C301B2010E94D22718160CF09E
:104B70007ECF412C512C98EC692E93E4792E77CF7F
:104B8000412C512C80E8682E8FE3782E70CFD0E036
:104B9000C0E08DCF4091DE025091DF026EEE71E0F9
:104BA000C430D10551F0409102015091030163EFEF
:104BB00071E0C530D10509F0A5CFC8010E943C18AD
:104BC0002196075F1F4F0134110509F072CF83E66C
:104BD00094E00E944D19811132CE80E090E0892B43
:104BE00009F4C9CC0E945A08882309F4C4CC0E9455
:104BF0000000C1CCF999FECF92BD81BDF89A9927EA
:104C000080B50895262FF999FECF1FBA92BD81BDB8
:104C100020BD0FB6F894FA9AF99A0FBE019608953E
:104C2000052E97FB1EF400940E94272657FD07D0FF
:104C30000E94422607FC03D04EF40C942726509580
:104C40004095309521953F4F4F4F5F4F0895909578
:104C50008095709561957F4F8F4F9F4F08950E946B
:104C60006426A59F900DB49F900DA49F800D911D6B
:104C700011240895B7FF0C942F260E942F26821B23
:104C8000930B0895A1E21A2EAA1BBB1BFD010DC0B8
:104C9000AA1FBB1FEE1FFF1FA217B307E407F507EC
:104CA00020F0A21BB30BE40BF50B661F771F881FC8
:104CB000991F1A9469F760957095809590959B015E
:104CC000AC01BD01CF010895A29FB001B39FC00107
:104CD000A39F700D811D1124911DB29F700D811D28
:104CE0001124911D08950E945D2708F481E0089524
:104CF0000E948C260C9498270E94912758F00E94BD
:104D00008A2740F029F45F3F29F00C948127511144
:104D10000C94CC270C9487270E94A92768F3992329
:104D2000B1F3552391F3951B550BBB27AA276217A7
:104D30007307840738F09F5F5F4F220F331F441FB4
:104D4000AA1FA9F335D00E2E3AF0E0E832D09150E8
:104D50005040E695001CCAF72BD0FE2F29D0660FD5
:104D6000771F881FBB1F261737074807AB07B0E818
:104D700009F0BB0B802DBF01FF2793585F4F3AF01E
:104D80009E3F510578F00C9481270C94CC275F3F0F
:104D9000E4F3983ED4F3869577956795B795F795A4
:104DA0009F5FC9F7880F911D9695879597F908958C
:104DB000E1E0660F771F881FBB1F62177307840728
:104DC000BA0720F0621B730B840BBA0BEE1F88F737
:104DD000E09508950E94F1266894B1110C94CC27B7
:104DE00008950E94B12788F09F5798F0B92F99270E
:104DF000B751B0F0E1F0660F771F881F991F1AF0C6
:104E0000BA95C9F714C0B13091F00E94CB27B1E038
:104E100008950C94CB27672F782F8827B85F39F037
:104E2000B93FCCF3869577956795B395D9F73EF45E
:104E300090958095709561957F4F8F4F9F4F089506
:104E4000E89409C097FB3EF4909580957095619524
:104E50007F4F8F4F9F4F9923A9F0F92F96E9BB27DA
:104E60009395F695879577956795B795F111F8CF56
:104E7000FAF4BB0F11F460FF1BC06F5F7F4F8F4FC1
:104E80009F4F16C0882311F096E911C0772321F0B7
:104E90009EE8872F762F05C0662371F096E8862F4F
:104EA00070E060E02AF09A95660F771F881FDAF7A6
:104EB000880F9695879597F90895990F0008550FD3
:104EC000AA0BE0E8FEEF16161706E807F907C0F090
:104ED00012161306E407F50798F0621B730B840B98
:104EE000950B39F40A2661F0232B242B252B21F472
:104EF00008950A2609F4A140A6958FEF811D811D12
:104F0000089597F99F6780E870E060E008959FEF4B
:104F100080EC089500240A94161617061806090650
:104F2000089500240A94121613061406050608951F
:104F3000092E0394000C11F4882352F0BB0F40F4A7
:104F4000BF2B11F460FF04C06F5F7F4F8F4F9F4FE7
:104F5000089557FD9058440F551F59F05F3F71F069
:104F60004795880F97FB991F61F09F3F79F08795D0
:104F70000895121613061406551FF2CF4695F1DF59
:104F800008C0161617061806991FF1CF86957105E9
:104F9000610508940895E894BB2766277727CB011D
:104FA00097F908950E945D2708F48FEF08950E94F5
:104FB000EA270C9498270E948A2738F00E949127AC
:104FC00020F0952311F00C9481270C94872711244D
:104FD0000C94CC270E94A92770F3959FC1F3950FDD
:104FE00050E0551F629FF001729FBB27F00DB11D6D
:104FF000639FAA27F00DB11DAA1F649F6627B00DFD
:10500000A11D661F829F2227B00DA11D621F739FE5
:10501000B00DA11D621F839FA00D611D221F749FF3
:105020003327A00D611D231F849F600D211D822F3A
:10503000762F6A2F11249F5750409AF0F1F0882361
:105040004AF0EE0FFF1FBB1F661F771F881F91508E
:105050005040A9F79E3F510580F00C9481270C9495
:10506000CC275F3FE4F3983ED4F386957795679518
:10507000B795F795E7959F5FC1F7FE2B880F911DB8
:105080009695879597F90895DB018F939F930E94DA
:105090002F26BF91AF91A29F800D911DA39F900DD0
:1050A000B29F900D1124089597FB072E16F40094DB
:1050B00007D077FD09D00E946F2807FC05D03EF489
:1050C000909581959F4F0895709561957F4F0895B4
:1050D0000E946426B7FF0895821B930B0895AA1BB4
:1050E000BB1B51E107C0AA1FBB1FA617B70710F0D3
:1050F000A61BB70B881F991F5A95A9F78095909505
:10510000BC01CD010895EE0FFF1F0590F491E02D35
:1051100009940F931F93CF93DF938230910510F47E
:1051200082E090E0E0919905F0919A0530E020E06E
:10513000B0E0A0E0309799F42115310509F44AC098
:10514000281B390B24303105D8F58A819B816115E4
:10515000710589F1FB0193838283FE0111C04081B7
:1051600051810281138148175907E0F04817590708
:1051700099F4109761F012960C93129713961C9362
:105180003296CF01DF91CF911F910F910895009337
:10519000990510939A05F4CF2115310551F0421766
:1051A000530738F0A901DB019A01BD01DF01F801C5
:1051B000C1CFEF01F9CF90939A0580939905CDCF98
:1051C000FE01E20FF31F819391932250310939833D
:1051D0002883D7CF2091970530919805232B41F450
:1051E00020910D0130910E01309398052093970581
:1051F00020910B0130910C012115310541F42DB79F
:105200003EB740910F0150911001241B350BE091E6
:105210009705F0919805E217F307A0F42E1B3F0BBA
:105220002817390778F0AC014E5F5F4F2417350718
:1052300048F04E0F5F1F5093980540939705819358
:1052400091939FCFF0E0E0E09CCFCF93DF93009766
:10525000E9F0FC01329713821282A0919905B09176
:105260009A05ED0130E020E01097A1F42081318112
:10527000820F931F209197053091980528173907C1
:1052800009F061C0F0939805E0939705DF91CF9105
:105290000895EA01CE17DF07E8F54A815B819E0198
:1052A00041155105B1F7E901FB83EA834991599111
:1052B000C40FD51FEC17FD0761F480819181029620
:1052C000840F951FE90199838883828193819B8351
:1052D0008A83F0E0E0E012968D919C9113970097FD
:1052E000B9F52D913C911197CD010296820F931F34
:1052F00020919705309198052817390739F630978E
:1053000051F510929A0510929905B0939805A093C3
:105310009705BCCFD383C28340815181840F951FF1
:10532000C817D90761F44E5F5F4F88819981480F94
:10533000591F518340838A819B81938382832115E6
:10534000310509F0B0CFF0939A05E09399059ECF0F
:10535000FD01DC01C0CF13821282D7CFDC0101C076
:0E5360006D9341505040E0F70895F894FFCF50
:10536E00E1AC7F008000800080000100009B058082
:10537E000000FF0100010000FFFF0000010001FF1F
:10538E00001815A015C019FF1815A115C819FF187A
:10539E0015AE19FF1815AF19FF1815AE15D51680D5
:1053AE0015A8163F15D316001540158D1614152089
:1053BE00160015A115C815DA1612158116CF15D9B6
:1053CE0016F115DB1640152E15A415A619FF0001B2
:1053DE00140A6464323200127A000004289610080F
:1053EE00000080004000000000009008F0071D083B
:1053FE00DD084E082C08400800000000D810B01040
:10540E0058152A130B0B960BDA0A0000000029150B
:10541E00BB1358159113B413A11392133E00200021
:10542E0025005B3E5D20504C4159005B7C7C5D202D
:10543E00504155530042504D3A004B49434B005397
:10544E004E41520048484154004348414F004D419F
:08545E005058004D4150590067
:00000001FF
