:100000000C94B8040C94B3220C948C220C94E0044D
:100010000C94DF250C9446250C94E0040C94E00429
:100020000C94E0040C94E0040C94E0040C945F2322
:100030000C94E0040C94E0040C94E0040C94E004B0
:100040000C9442220C94E0040C9400230C94DA22C9
:100050000C94E0040C94E0040C94E0040C94E00490
:100060000C9403260C94E00450554C5345204F55F6
:1000700054004356322044455354004356312044E3
:100080004553540054454D504F00534F555243452E
:10009000004D41502059004D4150205800434841E7
:1000A0004F53004848415400534E415245004B497C
:1000B000434B0014FFFFFF14FFFFFF14FFFFFF146B
:1000C000FFFFFFFFFFFFFF32FFFFFFFFFFFFFF32DA
:1000D000FFFFFFFFFF3CFFFFFF3CFFFFFF3CFFFF79
:1000E000FF3CFF0AFFC8FF0AFFC8FF0AFFC8FF0A5C
:1000F000FFC8FFFFFFFFFF1EFFFFC8FFFFFFFF1E40
:10010000FFFFC89650285096502850965028509679
:100110005028500AFFB4FFFFB496FF0AFFB4C8FF8F
:10012000B496FFFFC8FFC814C8FF96FFC8FFC814E5
:10013000C8FF963C961496509614963C961496508A
:1001400096149605B496C805B496C805B496C80525
:10015000B496C8FFC8C8FF14C8C8B4FFC8C8FF1405
:10016000C8C8B4143C0A3C143C0A3C143C0A3C1475
:100170003C0A3C14FFFFFFFFFF64FFFFFFFFFFFF90
:10018000FFFFFFFFFFFFFF32FFFFFFFFFFFFFF3219
:10019000FFFFFF3CFF96FF3CFF96FF3CFF96FF3CB6
:1001A000FF96FF0AFF96FFFFB450C8FF96FFC8FFF7
:1001B000FF96FFFFFFC8FF1EFFFF96FFFFB4FF1E65
:1001C000FFC8B42878507828785078287850782854
:1001D0007850780AC8FF96FFC850FF0AC8FF96FFFC
:1001E000C850C8FF96C8B414C89664FF96C8B41423
:1001F000C8966432969664329696643296966432C5
:1002000096966405967896B464327896509664C84B
:10021000506496C8B496C81496B464B478649614BE
:1002200064785014322832143228321432283214AE
:1002300032283214FFFFFFFFFFFFFF64FFFFFFFFC5
:10024000FFFFFFFFFFFFFF3CFFFFFFFFFFFFFF3C44
:10025000FFFFFF50FFFFFF50FFFFFF50FFFFFF506A
:10026000FFFFFF0AFFFF96FFFFFFC850FF96FFFF4B
:10027000FFFFC8FFFFFFFF28FFFFFFFFFFFFFF2873
:10028000FFC8FF32963296329632963296329632C6
:100290009632960AFF96C8FFFF96C832FF64FFFFAA
:1002A000C896FFFFFFC8FF1EFFC896FFFFC8FF1ECE
:1002B000C8FF961EC850961EC850961EC850961E5F
:1002C000C8509605C89650C8B49678289650C896D7
:1002D000B47864FFFFC8FF14C8FF96FFFFB4FF1493
:1002E00096B464141414141414141414141414145C
:1002F00014141414FFFFFF14FFFFFF14FFFFFF147B
:10030000FFFFFFFFFFFF3CFFFF3CFFFFFFFF3CFF46
:10031000FF3CFFFFFF96FFFFFF96FFFFFF96FFFFEB
:10032000FF96FF0AFFC8FF0AFFC8FF0AFFC8FF0ABF
:10033000FFC8FFFFFFFF1EFFFF1EC8FFFFFF1EFFDE
:10034000FF1EC864C832C864C832C864C832C864F2
:10035000C832C80AFF96C80AFF96C80AFF96C80A9C
:10036000FF96C8FFC8FF14C8FF1496FFC8FF14C843
:10037000FF1496329664963296649632966496325C
:1003800096649605C8967805C8967805C896780547
:10039000C89678FFB4C814B4C81478FFB4C814B4AD
:1003A000C814501E5028501E5028501E5028501E51
:1003B0005028508A0084007B007200680050505121
:1003C0004E00310034003234004F4646004356326E
:1003D000004356310042504D00455854004D4944A9
:1003E00049004558540031205050514E0045585452
:1003F0000032205050514E00455854003420505087
:10040000514E00455854003234205050514E004552
:10041000585400434C4F434B00494E5400AE00A883
:1004200000A3009D00970091003400020203030224
:100430000304050500000500050000910000019877
:100440002004805C2509AD745452B952492806AA8B
:10045000DC54192907AA5C624A0A2B079BE5D24A99
:10046000002C059154042D058B66062E0589540237
:100470002F06A4EC631B3008ACEC54349302310714
:10048000EBEC92AC063209AC6C364A2A8F00330989
:10049000AC6C364A1A8D043408AC6CA21CBA003518
:1004A00009AC6C86DE6824003609ACEC545E312958
:1004B000003708AC6C468E75043809ACEC544C2AF5
:1004C00026053909ACEC544C3B29003A06995552A3
:1004D000004108ACEC541C53064209AC6C561C2974
:1004E0008E044309ACEC54D43129004408AC6C565A
:1004F0003447024508AC6C861E7A044608AC6C860C
:100500005E39034709ACEC544E3329004808AC6C03
:10051000A21C53064906A95486004A08ACEC6B9904
:1005200014004B09AC6CA24A3295014C07AC6C72BA
:100530007B044D09AD74F25A49EB004E09AD74F2DB
:100540005449EE004F08ACEC543493025009AC6CA3
:10055000561C2967005108ACEC54B4620A5208AC2E
:100560006C561CA9195309ACEC46461A8D04540765
:10057000AB64566C015508AC6CA23329005609AD2A
:1005800074B24E65CA11570AAD74B24A2AA92E0038
:100590005809AC6CA24C2ACA00590AAD7472AA332D
:1005A000CA28025A07AB64662A077008ADF456B62B
:1005B000D3027107ADF48EAF057208AB64A21A2A9C
:1005C000027406AD74FE237709ADF456A5464E0BB2
:1005D00078069B64520700000004FFFF0000000043
:1005E00000003C007C00FC00FC03FC0FFC0FFC0343
:1005F000FC007C003C000000000000000000380E01
:10060000380E380E380E380E380E380E380E380EBA
:10061000380E380E000000000000240027002A00D9
:1006200000000000250028002B000000000023002F
:100630002600290004040404040404040202020243
:100640000202030303030303010204081020408095
:100650000102040810200102040810200000000814
:100660000002010000030407000000000000000079
:100670001D00040404050301061018000017000003
:1006800000013F000002E125270F3B96B1A5464C33
:1006900034428C1812939029426A08519A8C225243
:1006A00086C8881164C4181A61ACC4B821002F0C24
:1006B000BABABDC948D167E3C601301F7CFB1D43F0
:1006C0004A54103A665787D0883022C4841844A709
:1006D0008CD9EC1009258ACC0031147ABDA561A40F
:1006E0000A993933628C9071F3FF284506321B7CDE
:1006F000FB1D536854103A666CE40C8999C1C654CA
:1007000039822367F9E08101331C7CFB1D53685457
:10071000103A666CE44072B4B392E42C8D1D22A1B1
:100720000695190034207CFB2D2183868C21328490
:10073000CC904123088D183562D48851C6ECEC0169
:100740008B95F301351A7CFB0D155B8C9C2F0829CA
:1007500059316AE8C8591A3B44420D2A3300361B06
:100760007D1B9E5369560C3B67745E9859C282D4B8
:1007700039BB3B45624DAA330037137CFB85150F0F
:1007800052CE87E4E870CA8123E71D0038207CFB45
:100790001D536854103A66D9211244C8203A858600
:1007A000080942C7ECEC100935A8CC00391A7CFBCB
:1007B0001D536854103A666787482C519372BE18CF
:1007C00044420D2A330041167D1BA672A7D2503237
:1007D0006AC8A811E3ECDD83EFEC770342247D1BAC
:1007E00086446A968C22316CC4B011C3460C1B310E
:1007F0008AC4924D46911876CE9E3D08C16209008A
:1008000043177D1B9E53699610426674FE4F898D77
:100810002044628D222400441B7D1B86446A968CF2
:100820001A326CC4B011E3EC7F766CC428124BD43E
:10083000240245127CFB850F52CE4B44188D9C5FE1
:100840003E78600046107CFB850F52CE9769B21946
:1008500039FF1200490773DB843F484C0D7BDB8571
:1008600081F3FF3F7CF060004E247D1B0681E6CCC7
:100870001D3B860A55A24426C698186364889121B8
:100880006646981961282BCCAE3337004F167D1B76
:100890009E5369968C1A31CEFEBF1B316AC89A549A
:1008A000670052318E3B06456B980C23316EC4B8FD
:1008B00011E3468C1B316EC43012A3883051946A08
:1008C000C8B031A3C6109AD59851448691183762A2
:1008D000DCC10153228E3B9E6389969022316EC407
:1008E000B81163C7529A2C5BB283C78E35680E1558
:1008F0001126ABD000540D7D1B860F520D9DFFFFBE
:10090000150055117CFB8561F6FF9F8D1834440D51
:100910002A330056167FF98591F6FFCB11E38690B6
:10092000224315097227CB0E0358297E3B86810688
:100930008F91183684101922A4860C4367D0245155
:100940009206CD211B328A08194244868D2076D02A
:10095000C2017814CABA8541868E9040638A941980
:1009600024530CB2680000000004FFFF000022279F
:1009700011241FBECFEFD8E0DEBFCDBF12E0A0E054
:10098000B1E0E6ECF8E602C005900D92AC34B10798
:10099000D9F725E0ACE4B2E001C01D92A63FB20752
:1009A000E1F714E0C8EBD4E004C02197FE010E94F7
:1009B0001D33C73BD107C9F70E9416290C94613437
:1009C0000C940000662329F06A3019F0862F90E01D
:1009D00008958FEF9FEF0895AF92BF92CF92DF926D
:1009E000EF92FF920F93CF93DF93EC01DA0179013D
:1009F000942F9770E1E0F0E09F01092E01C0220FD3
:100A00000A94EAF7522F6E018AE8C80ED11CF6014B
:100A1000808140E0823018F4422F813049F15D013D
:100A2000F8EFAF22E8ADF9AD28813981D9015096B0
:100A30008C918A9D90018B9D300D1124620F731F44
:100A4000DF01A60FB71F01111AC0EA0EFB1E8C9121
:100A5000842B85278D93AE15BF05C9F7DF91CF9104
:100A60000F91FF90EF90DF90CF90BF90AF900895DF
:100A700050E0D5CF440F550FE114F10479F33C91C8
:100A8000342B35273C939F5F9770E1E0EE1AF10815
:100A90009111F0CF2CAD3DADA20FB31FF6018081B7
:100AA000823028F4813009F051E041E0E5CF51E097
:100AB000E3CF80E0089590E080E00895CF92DF9248
:100AC000EF92FF928091310490913204019749F5A1
:100AD000809133049091340420913504E22FF0E0AA
:100AE000E150F04CEE0FFF1FEE0FFF1FE80FF91F54
:100AF0004081518162817381452B462B472B89F0C0
:100B0000FC0130E060E070E0CB012317C9F0C19038
:100B1000D190E190F1906C0D7D1D8E1D9F1D3F5F6A
:100B2000F4CFC0902904D0902A04E0902B04F090D8
:100B30002C04C701B601FF90EF90DF90CF9008958D
:100B4000611571058105910561F330E050E040E0E9
:100B50000E94DC30A0910104B09102040E94D430C4
:100B60000E94BA319B01AC0160EC71EE84E69CE41A
:100B70000E9412316B017C0120E030E040E85FE32D
:100B80000E940D3187FD11C020E030E048EC53E4B5
:100B9000C701B6010E946C3218165CF6C12CD12C2C
:100BA00088ECE82E83E4F82EC4CFC12CD12C90E839
:100BB000E92E9FE3F92EBDCF109203041092040496
:100BC0001092050410920604109207041092080473
:100BD0001092090410920A0410920B0410920E0451
:100BE0001092110410921204109213041092140423
:100BF0001092190410921A0410921B0410921C04F3
:100C000010921504109216041092170410921804F2
:100C1000109237041092360420913304309134043A
:100C200080E090913504891760F494E0899FF00189
:100C30001124E20FF31F10821182128213828F5F40
:100C4000F0CF08951092F6031092F50310922D0440
:100C500010922E0410922F04109230040E94DC0592
:100C6000E091FD03F091FE03309709F00994089597
:100C7000BC01F894E5EFF3E09587848722853385FE
:100C8000C9010E94EE32708F678BC90168E170E084
:100C90000E94EE32738F628F789408950895809346
:100CA000480508959B01DC011896ED91FC9141E007
:100CB00067E10994833081F028F4813099F0823023
:100CC000A9F008958730A9F08830C9F08430B1F4D4
:100CD000809180008F7D03C0809180008F7780930A
:100CE0008000089584B58F7784BD089584B58F7D85
:100CF000FBCF8091B0008F778093B00008958091F2
:100D0000B0008F7DF9CFCF93DF93282F30E0F9012A
:100D1000E45AF94F8491F901E85BF94FD491F90154
:100D2000EC5CF94FC491CC23A1F081110E945A06CA
:100D3000EC2FF0E0EE0FFF1FE65DF94FA591B491A7
:100D4000EC91ED2381E090E009F480E0DF91CF9118
:100D5000089580E090E0FACF1F93CF93DF93282F80
:100D600030E0F901E45AF94F8491F901E85BF94F59
:100D7000D491F901EC5CF94FC491CC23A9F0162F62
:100D800081110E945A06EC2FF0E0EE0FFF1FE05E8B
:100D9000F94FA591B4918FB7F894EC91111108C057
:100DA000D095DE23DC938FBFDF91CF911F91089503
:100DB000DE2BF8CFCF93DF9390E0FC01E85BF94F97
:100DC00024918C5C994FFC0184918823C9F090E0B8
:100DD000880F991FFC01EA5EF94FA591B491FC01BF
:100DE000E05EF94FC591D49161110DC09FB7F894A1
:100DF0008C91209582238C938881282328839FBF00
:100E0000DF91CF910895623051F49FB7F8943C91EF
:100E1000822F809583238C93E8812E2BEFCF8FB781
:100E2000F894EC912E2B2C938FBFEACF3FB7F89418
:100E30008091520390915303A0915403B0915503B4
:100E400026B5A89B05C02F3F19F00196A11DB11D25
:100E50003FBFBA2FA92F982F8827BC01CD01620F61
:100E6000711D811D911D42E0660F771F881F991F1C
:100E70004A95D1F708952FB7F89460914E03709179
:100E80004F0380915003909151032FBF08950E940A
:100E9000DC050E943B0760932D0470932E04809321
:100EA0002F0490933004E091FB03F091FC03309702
:100EB00009F009958091310490913204892B39F41D
:100EC00082E090E09093F6038093F503089581E02B
:100ED00090E0F8CF0F931F93CF93DF93EC01009135
:100EE000F5031091F6030E9422068091500590911F
:100EF0005105059749F48FB7F8942EE436E0309306
:100F0000F4032093F3038FBFD0935105C093500592
:100F1000C330D10509F43EC090F4C130D10541F190
:100F2000229779F11092320410923104012B09F4C6
:100F300041C0DF91CF911F910F910C944707C430AE
:100F4000D10589F1259771F781E090E09093320403
:100F50008093310488E190E00E9438068FB7F894BE
:100F600027E130E23093F4032093F3038FBFDECF09
:100F7000D0933204C093310488E190E00E94380697
:100F8000D5CF81E090E0909332048093310484E0E7
:100F900090E0F4CF81E090E09093320480933104AC
:100FA00082E090E0EBCF81E090E090933204809378
:100FB0003104E4CFDF91CF911F910F91089580917B
:100FC000480391E08927809348039093480108954E
:100FD00020914B0130914C01820F931F97FF0AC063
:100FE00010924C0110924B011092480381E08093C3
:100FF000480108959C018630910514F025E030E009
:1010000030934C0120934B01892B71F3215031090E
:101010003093380320933703E7CF0895AF92BF9200
:10102000CF92DF92EF92FF920F931F93CF93DF93B4
:101030006C017B018B01040F151FEB015E01AE18E3
:10104000BF08C017D10759F06991D601ED91FC9105
:101050000190F081E02DC6010995892B79F7C50132
:10106000DF91CF911F910F91FF90EF90DF90CF9084
:10107000BF90AF900895FC01538D448D252F30E033
:10108000842F90E0821B930B541710F0CF96089595
:1010900001970895FC01918D828D981761F0A28DC2
:1010A000AE0FBF2FB11D5D968C91928D9F5F9F7388
:1010B000928F90E008958FEF9FEF0895FC01918D3E
:1010C000828D981731F0828DE80FF11D858D90E0AB
:1010D00008958FEF9FEF0895FC01918D228D892F48
:1010E00090E0805C9F4F821B91098F739927089530
:1010F00086E593E00E946C0821E0892B09F420E04A
:10110000822F089580E090E0892B29F00E947808D2
:1011100081110C9400000895FC01A48DA80FB92F33
:10112000B11DA35ABF4F2C91848D90E001968F730F
:101130009927848FA689B7892C93A089B1898C912E
:10114000837080648C93938D848D981306C002887D
:10115000F389E02D80818F7D80830895EF92FF9247
:101160000F931F93CF93DF93EC0181E0888F9B8DCA
:101170008C8D98131AC0E889F989808185FF15C084
:101180009FB7F894EE89FF896083E889F9898081A7
:101190008370806480839FBF81E090E0DF91CF9176
:1011A0001F910F91FF90EF900895F62E0B8D10E098
:1011B0000F5F1F4F0F731127E02E8C8D8E110CC007
:1011C0000FB607FCFACFE889F989808185FFF5CF52
:1011D000CE010E948C08F1CFEB8DEC0FFD2FF11D9D
:1011E000E35AFF4FF0829FB7F8940B8FEA89FB898F
:1011F00080818062CFCFCF93DF93EC01888D8823ED
:10120000B9F0AA89BB89E889F9898C9185FD03C069
:10121000808186FD0DC00FB607FCF7CF8C9185FF4E
:10122000F2CF808185FFEDCFCE010E948C08E9CFFF
:10123000DF91CF910895DC011A96ED91FC9130E099
:1012400020E00994DC011696ED91FC9130E020E05D
:1012500040E069E10994DC011696ED91FC9130E0E3
:1012600020E040E068E109949A01DC011696ED91D6
:10127000FC91462F67E10994EF92FF920F931F9321
:10128000CF93DF931F92CDB7DEB77C018B01D801DE
:101290006C91673129F150F46531A0F40F90DF9122
:1012A000CF911F910F91FF90EF9008956A3118F13F
:1012B0006E3FA1F7F8014181498369E2C7010E94AD
:1012C0001B090BC0F80141814983D7011696ED91A6
:1012D000FC9130E020E0C70109950E5F1F4FD7CF8A
:1012E000F80181818983AE014F5F5F4F61E0C701E3
:1012F0000E943409F2CF0F5F1F4FD7011696ED9170
:10130000FC9130E020E040E0C7010995C0CF462FB6
:10131000DC011696ED91FC9130E020E066E1099445
:10132000462FDC011696ED91FC9130E020E065E15E
:101330000994EF92FF920F931F93CF93DF93EC01E9
:10134000042F79016D3009F446C050F46B30C9F1B7
:10135000693009F49FC06A3009F465C080E046C076
:101360006E3009F452C06F3099F70E942B09F701D3
:101370001381110F110F110F6C89160F60E4CE014C
:101380000E949009612F62956F706061CE010E948A
:101390009009612F6F70CE010E948709F701648167
:1013A000606BCE010E948709F70140815181628103
:1013B000660F660F660FCE010E9434090150A1F737
:1013C0002EC066E771E0442311F061E771E0CE01C1
:1013D0000E943C090AC0411110C06AE671E00E94F7
:1013E0003C09E881F98182898C8B81E0DF91CF9182
:1013F0001F910F91FF90EF90089563E671E00E94B6
:101400003C09E881F9818389EFCF0E942B0961E8CB
:10141000CE010E949009602FCE010E948709CE0163
:101420000E942209E2CFEA85FB8530E020E040E01F
:1014300068E2CE010995EE81FF8130E020E040E0D6
:1014400064E1CE01099541E06BE4CE010E941B09E5
:10145000E881F981448169E2CE010E941B0940E0E4
:101460006BE4CE010E941B09E881F981448169E2A5
:10147000CE010E941B0941E06BE4CE010E941B09D2
:10148000E881F981458169E2CE010E941B096BE781
:1014900071E09DCF80EB91E0998388831C8AA5CF72
:1014A000DC011896ED91FC9130E020E040E069E12C
:1014B0000994DC011896ED91FC9130E020E040E0C9
:1014C00068E10994CF93DF931F92CDB7DEB76983AC
:1014D000BE016F5F7F4F0E9452060F90DF91CF9148
:1014E0000895EF92FF921F93CF93DF93EC01162F95
:1014F0007A010E94590A60E4CE010E94620AE885DE
:10150000F9859701412F67E1CE010995CE01DF9161
:10151000CF911F91FF90EF900C94500AEF92FF92A1
:101520001F93CF93DF93EC01142F7901663181F182
:1015300038F4643109F44BC0653179F080E022C0A1
:101540006831C9F150F16931C9F7809130038823BE
:1015500091F1CE010E94500A2EC080913003882361
:1015600019F0CE010E94500ACE010E94590A60E093
:10157000CE010E94620A612FCE010E94620A81E0C0
:1015800080933003DF91CF911F91FF90EF900895EA
:10159000642F0E94620A81E0F5CF80913003882396
:1015A00019F0CE010E94500AA701193138F4612FB9
:1015B000CE010E94710A10923003EDCF68E1CE0196
:1015C0000E94710A185188E1E80EF11CEDCF8E8956
:1015D0008F3F11F488E78E8BE885F9859701412FBD
:1015E00064E1CE01DF91CF911F91FF90EF900994BC
:1015F0000F93FC01E85BFF4F0190F081E02DDF01CC
:10160000A41BB50BAD01FC01EA5BFF4F0190F0811B
:10161000E02DDF01A61BB70BBD01011113C0415026
:101620005109621B730BFC01E05CFF4F0190F081DC
:10163000E02D4E1B5F0BDC01D496ED91FC910995DA
:101640000F910895013079F761507109421B530BD6
:10165000EACFCF93DF93FC01A081B18182AD90E00E
:101660009C0143E0220F331F4A95E1F737AF26AFC5
:1016700050962C91509748E0249F9001112435AF4B
:1016800024AF23AD30E0B90153E0660F771F5A95C0
:10169000E1F7EF01C05CDF4F7983688351964C918D
:1016A0005197E901C80FD91F50E04C175D0718F496
:1016B000CA01821B930BEF01CE5BDF4F79836883F6
:1016C000229623E0880F991F2A95E1F7860F971F2E
:1016D00099838883229654968D919C9155979983EE
:1016E0008883E85BFF4F56968D919C919183808310
:1016F000DF91CF9108950F931F93FC01E25BFF4FA1
:101700000190F081E02DDC01A05BBF4F0D90BC91FA
:10171000A02D4A175B0740F4E017F10748F00417C3
:10172000150730F080E019C0E017F107C0F3FACFD9
:10173000FC01E65BFF4F40815181845B9F4FFC01C0
:10174000808191816817790758F481E04217530727
:1017500020F081E02617370728F71F910F91089591
:1017600042175307B0F3DECF2F923F924F925F9212
:101770006F927F928F929F92AF92BF92CF92DF92A1
:10178000EF92FF920F931F93CF93DF93CDB7DEB706
:1017900028970FB6F894DEBF0FBECDBF98878F8312
:1017A000865B9F4F9A838983FC0111821082EF81AF
:1017B000F885EA5BFF4F208031802F813885245BDC
:1017C0003F4F3C832B83F90131822082EF80F884E4
:1017D000FEE4EF0EF11CF70111821082EF81F88513
:1017E000E85BFF4F40805180EF81F885EC5BFF4F55
:1017F000208131814216530630F0C201821B930BC7
:10180000F70191838083EF81F885EE5BFF4F2081A4
:101810003181421A530A2F813885205B3F4F3E8326
:101820002D83F90151824082EF81F885E85AFF4FFC
:1018300060807180EF81F885EC5AFF4FA080B18005
:10184000EF81F885EA5AFF4FC080D180EF81F8859B
:10185000EE5AFF4F8080918083019501A601B4016B
:101860008F8198850E947B0B2F8138852C573F4FA5
:1018700038872F8381111BC0F901108228960FB67B
:10188000F894DEBF0FBECDBFDF91CF911F910F91B6
:10189000FF90EF90DF90CF90BF90AF909F908F9090
:1018A0007F906F905F904F903F902F90089581E0D0
:1018B000EF81F88580838114910421F0E981FA8118
:1018C00091828082A214B30420F4EB81FC81B18266
:1018D000A082F701808191818C159D0510F4D18241
:1018E000C0826414750450F6ED81FE8171826082BD
:1018F000C5CF0F93CF93DF93E02FDC01AC57BF4FE1
:10190000FC91FF2309F460C02115310509F45CC086
:101910002230310538F0023009F04AC06F5F7F4F46
:10192000621B730B0E2F0170E0FD52C0FC01E25BE5
:10193000FF4F0190F081E02D4E175F0708F444C07F
:10194000FC01E05BFF4F0190F081E02D4E175F0737
:10195000D8F5FC01E45BFF4F0190F081E02DDC0144
:10196000A65BBF4F0D90BC91A02D260F371F2617E9
:10197000370738F56E177F0718F59F012150310999
:10198000A217B30708F56A177B0708F4BD012E17E5
:101990003F0708F4F901E61BF70BEC01AEA9BFA95C
:1019A00014960D90BC91A02D9F01FD0109950CC0CE
:1019B000033009F0B7CF4F5F5F4F421B530BB2CFDD
:1019C000BD016E177F07E0F2DF91CF910F9108956F
:1019D000FC01E65BFF4F0190F081E02D6E177F0761
:1019E00098F3FC01E45BFF4F0190F081E02D6E174E
:1019F0007F0750F7FC01E05BFF4F0190F081E02D85
:101A0000DC01A25BBF4F0D90BC91A02D240F351FB0
:101A100024173507A8F44E175F0788F49F0121505B
:101A20003109A217B30780F64A175B0708F4AD0126
:101A30002E173F0708F4F901E41BF50BAECFAD01FB
:101A40004E175F0708F6EDCF0F9320910C053091EC
:101A50000D0562177307F0F020910E0530910F0508
:101A600062177307B8F420910805309109058217B1
:101A7000930780F020910A0530910B058217930798
:101A800048F4AB01BC0100E021E030E08EEB94E0D3
:101A90000E94790C0F9108955F926F927F928F92BE
:101AA0009F92AF92BF92CF92DF92EF92FF920F93ED
:101AB0001F93CF93DF93EC017B018A016C01C41A61
:101AC000D50A4817590718F06A01C81AD90A2E15FD
:101AD0003F0560F44701821A930AC814D90448F1FB
:101AE0000C171D0708F459C0512C18C049018E1855
:101AF0009F08C814D90408F05EC09C2D8D2D640188
:101B0000892E982E902F812F8901292F382F9C2FD5
:101B10008D2FE701E92EF82E552453943601769443
:101B20006794E216F30608F442C0AA24AA94BA2CD9
:101B300021C09C2D8D2D6401892E982E9E2D8F2DD8
:101B40007801092F182F9C2F8D2FE901292F382F6D
:101B5000E3CFB701CE01552011F0BE01C7010E94AD
:101B6000240D6818790877FE04C0EA0CFB1C6C0C85
:101B70007D1C21960C171D0760F7DF91CF911F91F7
:101B80000F91FF90EF90DF90CF90BF90AF909F901C
:101B90008F907F906F905F90089536017694679450
:101BA000902F812F8E01C92FD82F7901512CAA2473
:101BB000A394B12CDFCF0C171D0708F095CF360189
:101BC00076946794902F812F8E01C92FD82F790199
:101BD000512CABCFAF92BF92CF92DF92EF92FF9298
:101BE0000F931F93CF93DF936C01EB015A017B019D
:101BF000E20EF31E9C01240F351F8701AB01BC01CF
:101C00008EEB94E00E947B0B882361F000E095014D
:101C1000AE01B6018EEB94E00E94790C2196EC1691
:101C2000FD06A1F7DF91CF911F910F91FF90EF90EB
:101C3000DF90CF90BF90AF900895213069F038F0D9
:101C4000223079F0840F911D47FD9A950895860FF3
:101C5000911D67FD9A950895841B910947FD939501
:101C60000895861B910967FD93950895213069F0C9
:101C700038F0223079F0861B910967FD939508951D
:101C8000840F911D47FD9A950895860F911D67FD5C
:101C90009A950895841B910947FD939508953F9265
:101CA0004F925F926F927F928F929F92AF92BF926C
:101CB000CF92DF92EF92FF920F931F93CF93DF9318
:101CC0007C01162F442EEC01C25ADF4F5E806F80DC
:101CD0006C018AE8C80ED11C78847518312E7116F3
:101CE00008F4372C8C809D800E85202F462D652D85
:101CF0008A819B810E941D0E5C01202F462D652D3F
:101D0000C4010E94360EAC01442079F08C85F601A6
:101D10008083232D30E0B501C7010E94790C17158F
:101D200048F017196394512CD7CF8B858111F7CFC9
:101D30008D85EDCF150D1E836F82DF91CF911F91A1
:101D40000F91FF90EF90DF90CF90BF90AF909F905A
:101D50008F907F906F905F904F903F900895DC013F
:101D60001A964C911A97ED91FC911197249130E0BD
:101D7000042E02C0359527950A94E2F7842F860F2A
:101D8000883068F031961196FC93EE93E49198E0D8
:101D9000941B01C0EE0F9A95EAF72E2B88501A96E5
:101DA0008C938FEF9FEF01C0880F6A95EAF78095BB
:101DB000822308950F931F93CF93DF938C01EC013F
:101DC000C25ADF4F798368831A86FC01EF58FF4FB0
:101DD0006081CE010E94AF0E8887F801EE58FF4F58
:101DE0006081CE010E94AF0E8987F801E657FF4F50
:101DF00090819C8781E0911180E08D87DF91CF9168
:101E00001F910F910895CF93C62F0E94AF0EC1501E
:101E100021E030E001C0220FCA95EAF7821BCF9182
:101E20000895FC01E60FF11D849190E0982F88271A
:101E30003196E4918E0F911D0895CF93DF932091F9
:101E40001805309119052817390709F490C0EC01DD
:101E50009093190580931805FC01849180932B05BC
:101E60003196E491E0932C05FE013296E491E093E3
:101E70002D05FE013396E491E0932E05FE01349684
:101E8000E491E0932F05FE013596E491E09330054F
:101E9000FE013696E491E0933105FE013796E49118
:101EA000E0933205FE013896E491E0933305FE019C
:101EB0003996E491E0933405FE013A96E491E0937B
:101EC0003505FE013B96E491E0933605FE013C9614
:101ED000E491E0933705FE013D96E491E0933805E7
:101EE000FE013E96E491E0933905FE013F96E491B0
:101EF000E0933A05FE017096E491E0933B0561E1C1
:101F0000CE010E94110F90933D0580933C0563E143
:101F1000CE010E94110F90933F0580933E0565E12D
:101F2000CE010E94110F909341058093400580914E
:101F3000180590911905892BD1F08091380580936F
:101F400044054091390540934505909143059923F7
:101F500071F0913079F490913A05891714F49093C7
:101F6000440580913B05841714F480934505DF9167
:101F7000CF9108953091350520913705082E000C3A
:101F8000990B622F022E000C770B630F711D37FD2A
:101F90007A95861797071CF4320F3093440524175F
:101FA00034F720934505E3CFEF92FF920F931F93F1
:101FB000CF93DF93FC01E65AFF4F20813181295EE8
:101FC0003F4F6F3F710509F048F561367105D8F054
:101FD00080589F4FFC0180819181280F391FC901D2
:101FE0000196FC014491442309F447C0F90144914E
:101FF0004617170671F40196DF91CF911F910F914B
:10200000FF90EF9008956134710548F382589F4F17
:10201000E1CFFC018491280F311DE1CF8B01FC0140
:10202000EE57FF4FC081D181C20FD31F7E0160E008
:10203000C7010E94110FC80FD91F62E0C7010E949B
:10204000110FF4E0EF0EF11C8017910780F3FE01F1
:10205000849190E0982F88273196E4918E2B0097F9
:1020600061F00817190719F4CE010396C5CFFE01D8
:102070003296E491CE0FD11DEACF90E080E0BCCF44
:10208000CF92DF92FF920F931F93CF93DF93109223
:1020900024051092D6046C0180ECF82E10E000E0CC
:1020A000D0E0C0E0F60161916F01E091C004F091D1
:1020B000C1048EEB94E009958F3F980789F18E3F1C
:1020C0002FEF920779F3BC018EEB94E00E94D40FBE
:1020D000009721F1BC018EEB94E00E94DA0E609132
:1020E00031058CE195E00E94030F809346056091D5
:1020F00032058CE195E00E94030F609133058CE17D
:1021000095E00E94030F082F880F110B80ECF81246
:1021100002C0F0904605C00FD11FC4CF80E0F3CFBE
:1021200020912405222399F080914605022E000C6F
:10213000330B280F311D87FD3A95C20FD31FC01BEB
:10214000D10B1F1424F4CF0DD11DF7FCDA95CE016D
:10215000DF91CF911F910F91FF90DF90CF90089565
:102160008F929F92AF92BF92CF92DF92EF92FF92A7
:102170000F931F93CF93DF93EC017B018A016901D9
:10218000FC01E459FF4F8081813009F46FC008F4ED
:1021900062C0823009F475C0833009F47DC0FE014D
:1021A000E05AFF4FF182E082329611830083B6013C
:1021B000CE010E94D40F009709F4FFC07E012EE5E6
:1021C000E20EF11CBC01CE010E94DA0EFE01E959BB
:1021D000FF4FB0803C966081C7010E94030F882E9C
:1021E000FE01EC58FF4F6081C7010E94030F082FCA
:1021F000FE01EB58FF4F6081C7010E94030FA82E1C
:10220000F701908419140CF090C016850B0D019500
:10221000212F402F682D828193810E941D0E6C0119
:10222000F70193838283212F402F682D848195812C
:102230000E94360EAC01F70195838483113009F4B6
:1022400084C0A8F1123009F491C0133009F4A4C07D
:102250008C01960136C0FE01E45AFF4F0190F081D7
:10226000E02DCE010995080F191F99CFFE01E45A00
:10227000FF4F0190F081E02DCE010995E81AF90A8F
:102280008ECFFE01E45AFF4F0190F081E02DCE0188
:102290000995081B190B83CFFE01E45AFF4F0190EB
:1022A000F081E02DCE010995E80EF91E78CF960158
:1022B000290D311D97FC3A958C010B0D111DB7FCB2
:1022C0001A95B601CE010E947B0B882371F1F701AC
:1022D000168217828E0101591F4F6E01F0E7CF0E53
:1022E000D11CF8016081C7010E94AF0E882EF60153
:1022F0006081C7010E94AF0E982E40E0682DCE018C
:102300000E944F0E41E0692DCE010E944F0E61E008
:10231000C7010E94AF0E8111F0CFF70187818B15A5
:1023200004F3C657DF4F848588838A2DAA0C990B46
:10233000DF91CF911F910F91FF90EF90DF90CF90A1
:10234000BF90AF909F908F90089581E090E08B199F
:102350009109B7FC939596012F5F3F4F8A01090DB4
:10236000111D97FC1A95C80ED91EABCF81E090E0E5
:10237000BC016919710997FC739596012F5F3F4F56
:102380008B199109B7FC93958A010F5F1F4F480F76
:10239000591FC60ED71E95CF96012B0D311DB7FCC8
:1023A0003A9581E090E08919910997FC93958A010B
:1023B0000F5F1F4F480F591F84CF90E080E0B8CFC8
:1023C000CF92DF92EF92FF920F931F93CF93DF9301
:1023D000EC018B011092D6047A01D12CC12CF701AB
:1023E00061917F01E091C004F091C1048EEB94E013
:1023F00009958F3F980719F18E3F2FEF920779F3D8
:102400009C01A801BE018EEB94E00E94B0102091C7
:102410002A05213059F038F0223059F0233061F08C
:10242000C80ED91EDCCFC80FD91FFACF080F191F4D
:10243000F7CFC81BD90BF4CF081B190BF1CFC6017E
:10244000DF91CF911F910F91FF90EF90DF90CF9090
:102450000895CF93DF93EC016BAFEEA9FFA9019034
:10246000F081E02D0995EEA9FFA90280F381E02D0E
:10247000CE01DF91CF910994AF92BF92CF92DF92BC
:10248000EF92FF920F931F93CF93DF9300D000D072
:102490001F92CDB7DEB78C01DC01DA96AC90DA97EB
:1024A000DB96EC90DB97ED91FC91B188FE2CD12C62
:1024B000C12CD801ED91FC9111978089D8962D916E
:1024C0003C911C82FD828B83B8E08B9FC00111245C
:1024D0008C9DA0018D9D500D9C9D500D1124240FAD
:1024E000351F3A832983D8011496ED91FC919E0102
:1024F0002F5F3F4F41E06FE0C8010995F3948F2DA6
:102500008E198A1528F4BFEFCB1ADB0AFB1488F268
:102510000F900F900F900F900F90DF91CF911F9120
:102520000F91FF90EF90DF90CF90BF90AF90089504
:10253000089508958F929F92AF92BF92CF92DF92AB
:10254000EF92FF92CF93DF937C01C62F6C32B0F4F1
:102550006A32E8F5683249F1693209F444C080E032
:10256000C034B0F1CF73F701EC0FF11D868D8F3FB2
:1025700071F1C03108F06DC0642F14C06D3209F4E0
:1025800056C068F384EB860F823048F7CF73CE0DC8
:10259000DF2DD11D8E8D411158C061E00E94DA06F9
:1025A00060E08E8D0E94AC0612C02EE1E20EF11C9E
:1025B000D0E0F70181917F018F3F31F061E0D031B0
:1025C00008F062E00E94DA06DF5FD63191F781E021
:1025D000DF91CF91FF90EF90DF90CF90BF90AF90C1
:1025E0009F908F900895C42ED12CF12CE12C0E9445
:1025F00016074B015C01C114D104E104F10439F365
:102600000E941607681979098A099B09683E734078
:102610008105910580F3F1E0CF1AD108E108F108B6
:1026200028EE820E23E0921EA11CB11CE4CF85E0AF
:1026300090E0433010F082E090E0880F991F880FFF
:10264000991F05970197F1F7C2CF62E00E94DA0661
:10265000BECF0E94830621E0892B09F420E0F70118
:10266000218FB5CFCF92DF92EF92FF920E94BA31C5
:1026700020E034E244E759E40E9412319B01AC01AE
:1026800060E070E080E89FE30E9412316B017C0102
:10269000AC019B0160E074E284E79BE40E9412318C
:1026A0000E948B316F3F2FEF72078105910508F46F
:1026B0007CC020E030E040E051E4C701B6010E9458
:1026C00071329B01AC0160E074E284E79BE40E94FC
:1026D00012310E948B316F3F2FEF720781059105F8
:1026E00008F465C020E030E040E852E4C701B601DC
:1026F0000E9471329B01AC0160E074E284E79BE4CC
:102700000E9412310E948B316F3F2FEF72078105BB
:10271000910508F44EC020E030E040E853E4C701E2
:10272000B6010E9471329B01AC0160E074E284E763
:102730009BE40E9412310E948B316F3F2FEF720792
:1027400081059105C0F120E030E040E854E4C70184
:10275000B6010E9471329B01AC0160E074E284E733
:102760009BE40E9412310E948B316F3F2FEF720762
:1027700081059105A8F425E0F8941092810061503C
:10278000710970938900609388008091810088604E
:102790008093810080918100282B20938100789480
:1027A000FF90EF90DF90CF90089521E0E5CF22E0F9
:1027B000E3CF23E0E1CF24E0DFCFCF92DF92EF92AF
:1027C000FF92209131043091320421303105D1F152
:1027D0006B017C0120E030E040E85FE30E940D31B6
:1027E00087FD30C020E030E048EC53E4C701B6017B
:1027F0000E946C32181634F1F894C0922904D092D9
:102800002A04E0922B04F0922C0478946091FF0348
:102810007091000490E080E00E94BA319B01AC010D
:1028200060EC71EE84E69CE40E941231A7019601EF
:102830000E9412310E948B31FF90EF90DF90CF9079
:102840000C943213FF90EF90DF90CF9008956AEFD1
:1028500086E593E00C94AE0868EF86E593E00C946F
:10286000AE08CF92DF92EF92FF920F931F93CF9318
:10287000DF93EC0188810E9483068C010E943B0754
:10288000CA80DB80EC80FD80AB01BC014C195D0986
:102890006E097F090115110561F48981813031F4D8
:1028A00091E04B3051056105710508F490E080E03E
:1028B0000EC001301105D1F789818111F7CF81E078
:1028C0004B3051056105710508F480E090E01F82EE
:1028D0001E829923B1F081E090E09F838E830E9455
:1028E0003B076B017C01CA82DB82EC82FD8209839B
:1028F000DF91CF911F910F91FF90EF90DF90CF90DC
:102900000895882381F30E943B072EEEC20E22E039
:10291000D21EE11CF11C6C157D058E059F0550F43F
:1029200082E090E09F838E83E885F9853097B9F245
:102930000995D5CF83E090E09F838E83EA85FB8560
:10294000F5CF0F931F93CF938C01C62F62E08C2F8E
:102950000E94DA06F801C0838C2F0E948306F801DA
:102960008183CF911F910F910895CF92DF92EF92C3
:10297000FF92CF93DF93EC0189819A819C838B83B3
:1029800088818E3008F08E508770806480937C0040
:1029900080917A00806480937A0080917A0086FD2D
:1029A000FCCFA0917800B0917900CF80D8840D2C15
:1029B000000CEE08FF0829853A85032E000C440B15
:1029C000550B2C193D094E095F090E94D4302FEF99
:1029D00033E040E050E00E94AA30DA01C9018C0DDA
:1029E0009D1DAE1DBF1D092E000CAA0BBB0B4D81FA
:1029F0005E81052E000C660B770B841B950BA60BD6
:102A0000B70B81152EEF92072FEFA207B207DCF06C
:102A1000813022E09207A105B10524F080E092E028
:102A2000A0E0B0E09A8389832B85222329F0919539
:102A3000819591099A838983DF91CF91FF90EF90DF
:102A4000DF90CF90089580E09EEFECCFCF92DF92A1
:102A5000EF92FF920F931F93CF93DF936C01EB01E3
:102A60007B01E40EF51E10E000E0CE15DF0561F0FD
:102A70006991D601ED91FC910190F081E02DC601A4
:102A80000995080F191FF1CFC801DF91CF911F9150
:102A90000F91FF90EF90DF90CF900895CF92DF924B
:102AA000EF92FF920F931F93CF93DF93EC016C0192
:102AB00024E0C20ED11CFC01E057FF4F0190F081D1
:102AC000E02DC60109958E3FEFEF9E07D8F48E01E9
:102AD0000C561F4FF801408151817E01F2E9EF0E43
:102AE000F11CF701608171819C01C6010E94B01048
:102AF000C059DF4F28812130C1F078F02230B9F081
:102B00002330E9F081E090E0DF91CF911F910F91A8
:102B1000FF90EF90DF90CF900895F70120813181F1
:102B2000820F931F91838083EDCFF801F7CFF701D8
:102B300020813181281B390B31832083E3CFF801B9
:102B4000F7CF08952091B302260F3327331F213288
:102B50003105ECF420910603FC0190E080E0243084
:102B600069F082E00895A091B3022191AC014D5625
:102B70005D4FA40FB52FB11D2C930196861798F3C6
:102B80008091B302680F6093B30280E0089581E002
:102B900008951092060381E0809305031092E002ED
:102BA00061E082E10E94AC0661E083E10E94AC0634
:102BB000E9EBF0E080818E7F808380818D7F808350
:102BC00088E48093B80085E48093BC000895CF9397
:102BD000DF9391E0909392028823B9F0C091B800FE
:102BE000D091BA008091BC008A7B8093BC0060E0E9
:102BF00082E10E94AC0660E083E10E94AC060E9484
:102C0000C915D093BA00C093B800DF91CF91089551
:102C10000895E091DF028091DE02E81730F4F0E0E1
:102C2000EE58FD4F808190E008958FEF9FEF08955B
:102C30009091DF028091DE022FEF3FEF981748F46A
:102C4000E92FF0E0EE58FD4F208130E09F5F909338
:102C5000DF02C90108958091DE029091DF02891B95
:102C6000990B0895CF92DF92EF92FF920F931F93EB
:102C7000CF93DF937C01CB018A0120910C032223A7
:102C800089F0EB016B01C40ED51ECC15DD0569F092
:102C90006991D701ED91FC910190F081E02DC70180
:102CA0000995F3CF642F0E94A215C801DF91CF913F
:102CB0001F910F91FF90EF90DF90CF900895CF92EA
:102CC000DF92EF92FF920F931F93CF93DF93EC016C
:102CD000962F683109F44BC0B901993130F4943121
:102CE000C9F0973189F080E006C0993109F461C0DC
:102CF0009032C9F781E0DF91CF911F910F91FF9042
:102D0000EF90DF90CF90089550E086EE95E00E941E
:102D10003216F0CF8C859D85AE85BF85892B8A2B99
:102D20008B2B71F4E881F981A585B0E020EA36E8C3
:102D300041E050E00E94C9306C877D878E879F8775
:102D40001092DF021092DE0210920D0310922F03F8
:102D50000E94C91588E992E19093DD028093DC021C
:102D600089E992E19093DB028093DA02C3CF2C854C
:102D70003D854E855F8560E074E284EF90E00E94BF
:102D8000DC30205131094109510956954795379555
:102D900027952093B8008E8990E09595879591E0CE
:102DA00090930C0380932E0310920D0310922F0327
:102DB000A1CFD0912F03D13208F093C0C0912E0340
:102DC0000E9416076B017C0180910603811164C08B
:102DD00082E08093060381E0809305038FEF809368
:102DE000040310920303D0930203AEE0B3E0E2EEDB
:102DF000F2E080E0D8137CC01092E1028091E10201
:102E0000CC0FC82BC093E1028091E002813009F021
:102E100073C01092E0020E9416076B017C01809142
:102E2000E1028093BB008091080390910903A09177
:102E30000A03B0910B03892B8A2B8B2B99F00E94EC
:102E40001607009108031091090320910A0330919D
:102E50000B036C197D098E099F09061717072807B0
:102E60003907D8F18091BC0083FDD9CF85EC8093E0
:102E7000BC000E9416076B017C0180910603823022
:102E8000E9F1809104038F3F61F180910403803266
:102E900041F18091040325C08091080390910903BA
:102EA000A0910A03B0910B03892B8A2B8B2B09F479
:102EB0008BCF0E94160700910803109109032091FF
:102EC0000A0330910B036C197D098E099F090617BF
:102ED00017072807390708F077CF809107030E946A
:102EE000E71510920D0310922F0310920C0302CFDE
:102EF0009D9191938F5F7ECF85EEB9CF809108032E
:102F000090910903A0910A03B0910B03892B8A2B9E
:102F10008B2B09F4B2CF0E94160700910803109181
:102F2000090320910A0330910B036C197D098E0966
:102F30009F09061717072807390708F09ECFCDCF3E
:102F4000CF93DF931F92CDB7DEB7698320910C0337
:102F50002223F9F020912F03203258F021E030E0B5
:102F6000FC013383228390E080E00F90DF91CF91CA
:102F7000089580910D03E82FF0E0E25FFC4F998106
:102F800090838F5F80930D0380932F0381E090E007
:102F9000ECCF61E0CE0101960E94A215F7CF90E040
:102FA00080E00895EF92FF920F931F93CF93DF93EA
:102FB000EC017B01CA010E941D0F02EE14E0109388
:102FC000C1040093C004CE010E9440101093C104BC
:102FD0000093C00497FD01969595879591958195ED
:102FE0009109AE01B7018096DF91CF911F910F91AA
:102FF000FF90EF900C94E0118091000190910101FD
:103000009C013695322F2227379527952827392777
:10301000C901892F9927869528273927922F882734
:103020008227932790930101809300010895CF9305
:10303000DF93EC0160E08D810E94AC061E82DF917F
:10304000CF9108958091F5039091F603892B11F1AA
:103050000E94220682E595E00E94171889E595E016
:103060000E94171880E695E00E94171887E695E001
:103070000E9417188EE695E00E94171885E795E0E4
:103080000E9417188CE795E00E94171881E0809342
:10309000480108950E944707F9CF82E595E00E9414
:1030A000171889E595E00E94171880E695E00E94C0
:1030B000171887E695E00E9417188EE695E00E94A3
:1030C000171885E795E00E9417188CE795E00E9495
:1030D00017180E94DC05109271021092700281E0B4
:1030E000809348010895CF93DF9320914B01309155
:1030F0004C0140914803411130C012161306CCF424
:103100002091460330914703820F931F863091052B
:1031100014F085E090E097FF02C090E080E090938B
:1031200047038093460381E080934801DF91CF916C
:1031300008952091350330913603820F931F853017
:10314000910514F084E090E097FF02C090E080E0E9
:103150009093360380933503E6CFEC0112161306E5
:103160000CF0C6C023E0880F991F2A95E1F7409123
:1031700037035091380320914603309147032230A2
:10318000310509F46AC0A8F421153105A1F12130F7
:10319000310509F449C081E0809341030E943B0757
:1031A00060933D0370933E0380933F0390934003ED
:1031B000BACF2430310509F482C008F467C0253045
:1031C000310549F72CE0249FF001259FF00D1124D3
:1031D000E65FFE4FC085D185C80FD91FCF3FD1050F
:1031E00019F014F0CFEFD0E0D7FF02C0D0E0C0E07C
:1031F000D187C087D0CF2CE0249FF001259FF00D10
:103200001124E65FFE4FC081D181C80FD91FCF3F87
:10321000D10519F014F0CFEFD0E0D7FF02C0D0E015
:10322000C0E0D183C083B7CF2CE0249FF001259F5D
:10323000F00D1124E65FFE4FC281D381C80FD91F64
:10324000CF3FD10519F014F0CFEFD0E0D7FF02C087
:10325000D0E0C0E0D383C2839ECF2CE0249FF00156
:10326000259FF00D1124E65FFE4FC481D581C80F64
:10327000D91FCF3FD10519F014F0CFEFD0E0D7FF21
:1032800002C0D0E0C0E0D583C48385CF2CE0249F6A
:10329000F001259FF00D1124E65FFE4FC285D38516
:1032A000C80FD91FCF3FD10519F014F0CFEFD0E0F0
:1032B000D7FF02C0D0E0C0E0D387C2876CCF2CE03C
:1032C000249FF001259FF00D1124E65FFE4FC6817B
:1032D000D781C80FD91FCF3FD10519F014F0CFEF18
:1032E000D0E0D7FF02C0D0E0C0E0D783C68353CF81
:1032F00080913503909136038230910509F45AC0CC
:10330000E0F4009709F440C0019709F044CF8091A0
:10331000310490913204019709F43DCF0E945E057B
:103320000E9484316C0F7D1F072E000C880B990BB7
:103330000E94BC310E94DD132ECF8330910509F429
:103340004DC0049709F027CF8091080190910901A1
:10335000C80FD91F3C2F2D2FC430D10514F033E0F6
:1033600020E0832F922F97FF02C090E080E090939F
:103370000901809308011C161D060CF40CCF8CE784
:1033800095E00E94171807CF809133039091340382
:103390008C0F9D1F8630910514F085E090E097FF1B
:1033A00002C090E080E090933403809333030E9446
:1033B0006A07F1CE8091490190914A01C80FD91F47
:1033C000C830D10514F0C7E0D0E0D7FF02C0D0E08C
:1033D000C0E0D0934A01C0934901DDCE80914601FF
:1033E00090914701C80FD91FC830D10514F0C7E02C
:1033F000D0E0D7FF02C0D0E0C0E0D0934701C09337
:103400004601C9CE2F923F924F925F926F927F9268
:103410008F929F92AF92BF92CF92DF92EF92FF92E4
:103420000F931F93CF93DF93CDB7DEB764970FB69B
:10343000F894DEBF0FBECDBF6B017C0128E130E008
:1034400040E050E00E94DC304B015C012CE0821631
:103450009104A104B104C1F482E595E00E9417181B
:1034600089E595E00E94171880E695E00E941718FC
:1034700087E695E00E9417188EE695E00E941718DF
:1034800085E795E00E941718809108019091090145
:10349000009709F108E110E08230910531F004E075
:1034A00010E0039711F000E610E0C701B6019801A3
:1034B000012E000C440B550B0E94DC30672B682B4F
:1034C000692B09F01BC161E0809181050E94AC0667
:1034D00081E08093820589288A288B2809F06AC4B4
:1034E0000091490110914A0170E060E00730110538
:1034F00021F460914B0370914C03A0904601B09071
:10350000470187E0A816B10409F070C4809149030F
:1035100090914A03680F791F072E000C880B990BB6
:10352000B2E0660F771F881F991FBA95D1F730E078
:1035300020E06130EEEF7E07EFEF8E079E0774F01C
:1035400024E030E06115FAE07F078105910534F44D
:1035500020E032E040E050E00E94AA308091020179
:103560009091030182179307C1F0809137039091E6
:10357000380330930301209302012817390769F0BB
:1035800030933803209337032F5F3F4F30934C0124
:1035900020934B0181E08093480180913703909103
:1035A00038032CE0289FF001299FF00D1124E65FDD
:1035B000FE4FE680F780C084D1842284338460810A
:1035C00071817A836983428153815C834B83248137
:1035D00035813E832D830330110509F43BC108F08A
:1035E0009DC00130110509F4CFC00230110509F466
:1035F000FEC023E0A216B10409F46FC208F0C9C1ED
:1036000081E0A816B10409F4FCC192E0A916B10446
:1036100009F42DC2C7018A5A9109982F990F980F62
:103620009D87C70185559109982F990F980F9C8701
:103630008E2D880F8E0D8B87C6018A5A9109982F7F
:10364000990F980F988BC60185559109982F990F5E
:10365000980F9F878C2D880F8C0D8E87B101032CBE
:10366000000C880B990B17E0660F771F881F991FB6
:103670001A95D1F72FEF30E040E050E00E94AA30D9
:10368000298B3A8B4B8B5C8B0AEB402E04E0502E3F
:10369000CE0101969A878987712C612C80907002E7
:1036A00090907102AB8530E020E095E5E916F104D9
:1036B0007CF0AC8521E030E0EAEAEE16F10444F05B
:1036C000AFEFFFEFEF16F10409F0AD8522E030E037
:1036D0001E8590E080E065E5C616D1040CF4A2C218
:1036E0008AEAC816D1040CF49AC21FEF9FEFC916DC
:1036F000D10409F0188982E090E094C2C801959540
:1037000087958C0D9D1DB8010E94EE32892B09F022
:10371000E2CE8CE795E00E941718DDCE053011054A
:1037200009F4F7C008F4C9C00630110509F061CFEB
:1037300080914B0390914C0397FD03969595879547
:10374000959587958C0D9D1D97FD1CC180914B0310
:1037500090914C0397FD0396959587959595879540
:103760008C0D9D1D8F3F910511F00CF00EC18091C5
:103770004B0390914C0397FD0396959587959595EE
:103780008795C80ED91E35CF80914B0390914C037D
:1037900097FD03969595879595958795860F971F25
:1037A00097FD1FC080914B0390914C0397FD0396AA
:1037B0009595879595958795860F971F8F3F9105CE
:1037C00009F094F480914B0390914C0397FD03967C
:1037D0009595879595958795860F971F9A838983E9
:1037E00008CF90E080E0FACF8FEF90E0F7CF8091A4
:1037F0004B0390914C0397FD03969595879595956E
:103800008795840F951F97FD1FC080914B03909162
:103810004C0397FD03969595879595958795840F0D
:10382000951F8F3F910509F094F480914B0390917F
:103830004C0397FD03969595879595958795840FED
:10384000951F9C838B83D5CE90E080E0FACF8FEFDD
:1038500090E0F7CF80914B0390914C0397FD039636
:103860009595879595958795820F931F97FD1FC016
:1038700080914B0390914C0397FD03969595879506
:1038800095958795820F931F8F3F910509F094F4CA
:1038900080914B0390914C0397FD039695958795E6
:1038A00095958795820F931F9E838D83A2CE90E07E
:1038B00080E0FACF8FEF90E0F7CF80914B039091AB
:1038C0004C0397FD03969595879595958795820D61
:1038D000931D97FD49C080914B0390914C0397FD38
:1038E00003969595879595958795820D931D8F3FA6
:1038F000910511F00CF03BC080914B0390914C036B
:1039000097FD03969595879595958795280E391E71
:1039100070CE80914B0390914C0397FD0396959543
:103920008795959587958E0D9F1D97FD24C0809155
:103930004B0390914C0397FD03969595879595952C
:1039400087958E0D9F1D8F3F910509F0BCF48091E6
:103950004B0390914C0397FD03969595879595950C
:103960008795E80EF91E45CE312C212C42CE22241B
:103970002A94312C3ECEF12CE12C3BCEEE24EA945D
:10398000F12C37CED12CC12C34CECC24CA94D12CDE
:1039900030CEE5E0AE16B10409F401C108F4D3C09D
:1039A00026E0A216B10409F035CE8091490390912A
:1039B0004A0397FD039695958795959587958C0D68
:1039C0009D1D97FD25C18091490390914A0397FD64
:1039D000039695958795959587958C0D9D1D8F3FA1
:1039E000910511F00CF017C18091490390914A03A1
:1039F00097FD03969595879595958795C80ED91E41
:103A000009CE49815A818091490390914A0397FDDB
:103A100003969595879595958795840F951F97FDA6
:103A200023C02091490330914A0337FF02C02D5F24
:103A30003F4F3595279535952795240F351F8FEFE7
:103A400090E02F3F310509F064F480914903909193
:103A50004A0397FD03969595879595958795840FCD
:103A6000951F9A838983D6CD90E080E0FACF4B8171
:103A70005C818091490390914A0397FD0396959547
:103A8000879595958795840F951F97FD23C0209165
:103A9000490330914A0337FF02C02D5F3F4F3595F0
:103AA000279535952795240F351F8FEF90E02F3FF1
:103AB000310509F064F48091490390914A0397FD20
:103AC00003969595879595958795840F951F9C836B
:103AD0008B83A0CD90E080E0FACF4D815E81809114
:103AE000490390914A0397FD03969595879595957F
:103AF0008795840F951F97FD23C02091490330912E
:103B00004A0337FF02C02D5F3F4F35952795359506
:103B10002795240F351F8FEF90E02F3F310509F0D7
:103B200064F48091490390914A0397FD039695951B
:103B3000879595958795840F951F9E838D836ACD74
:103B400090E080E0FACF8091490390914A0397FD7D
:103B500003969595879595958795820D931D97FD6D
:103B600049C08091490390914A0397FD039695952A
:103B7000879595958795820D931D8F3F910511F03F
:103B80000CF03BC08091490390914A0397FD039646
:103B90009595879595958795280E391E3BCD8091F3
:103BA000490390914A0397FD0396959587959595BE
:103BB00087958E0D9F1D97FD24C08091490390919C
:103BC0004A0397FD039695958795959587958E0D54
:103BD0009F1D8F3F910509F0BCF48091490390919E
:103BE0004A0397FD03969595879595958795E80ED9
:103BF000F91E10CD312C212C0DCD22242A94312CEC
:103C000009CDF12CE12C06CDEE24EA94F12C02CD65
:103C1000D12CC12CFFCCCC24CA94D12CFBCC1F8539
:103C200081E090E0FC01EE0FFF1F8E0F9F1FECE084
:103C3000E29FA001E39F500D11249A01260D371D2C
:103C4000FC01E20FF31F64E0EE0FFF1F6A95E1F73E
:103C5000E80DF91DED54FF4F0491445F5F4F460D91
:103C6000571DBC01640F751FE4E0660F771FEA95CE
:103C7000E1F7680D791D6D547F4FFB016491039648
:103C8000280F391FF4E0220F331FFA95E1F7280DB2
:103C9000391D2D543F4FF9012491FC01E40FF51F0C
:103CA000B4E0EE0FFF1FBA95E1F7E80DF91DED54F2
:103CB000FF4FE491B0E0601B770B6A9F50016B9F50
:103CC000B00C7A9FB00C11240B0DE21BFF0BEA9F86
:103CD000A001EB9F500DFA9F500D1124250F201BC2
:103CE000330B129FC001139F900D1124090FE9851A
:103CF000FA85A190B190FA87E9871214130434F57C
:103D00000E94FC1798878F830E94FC17182FAF81A1
:103D1000B885BB2729893A894B895C890E94C930BB
:103D20002FEF30E040E050E00E94AA3010FF5BC06F
:103D3000A20EB31EFFEFAF16B10421F01CF0AA24AF
:103D4000AA94B12CB7FE02C0B12CA12C10E00A1528
:103D50001B05DCF461E0F201E356FF4F80810E9415
:103D6000AC06F201E256FF4F21E02083045C1F4FB6
:103D70000A151B0554F461E0749680810E94AC061C
:103D8000F201ED54FF4F61E060838FEF681A780A0B
:103D900097E0490E511CE3E06E16710409F07ECCE9
:103DA000C401019660E170E00E94EE3290937102CE
:103DB0008093700264960FB6F894DEBF0FBECDBF3D
:103DC000DF91CF911F910F91FF90EF90DF90CF90F7
:103DD000BF90AF909F908F907F906F905F904F902B
:103DE0003F902F900895A21AB30AA4CF073011056F
:103DF00009F492CB8FEF9FEF909303018093020120
:103E0000CCCB8F929F92AF92BF92CF92DF92EF92E4
:103E1000FF920F931F938091330390913403009787
:103E200011F0059769F582E595E00E94171889E57C
:103E300095E00E94171880E695E00E94171887E623
:103E400095E00E9417188EE695E00E94171885E706
:103E500095E00E9417188CE795E00E9417180E94C1
:103E6000DC0510927102109270021F910F91FF9069
:103E7000EF90DF90CF90BF90AF909F908F9008957C
:103E80008091310490913204019779F7F8948091F0
:103E9000F5039091F6038130910521F0029799F096
:103EA0007894E3CF82E090E09093F6038093F5035B
:103EB0000E941607609315047093160480931704EC
:103EC00090931804EDCF0E941607AB01BC018091BE
:103ED000150490911604A0911704B0911804481786
:103EE00059076A077B0708F46FC08A019B01081B0A
:103EF000190B2A0B3B0BD901C80180932104909325
:103F00002204A0932304B0932404409315045093F7
:103F1000160460931704709318044091190450918B
:103F20001A0460911B0470911C044F5F5F4F6F4F28
:103F30007F4F4093190450931A0460931B047093AD
:103F40001C0420913604309137042F5F3F4F30938B
:103F5000370420933604409135044217130609F0C4
:103F600020F41092370410923604209136043091D8
:103F70003704220F331F220F331FE0913304F091D7
:103F80003404E20FF31F80839183A283B383809173
:103F9000190490911A04A0911B04B0911C04209163
:103FA000210430912204409123045091240401976C
:103FB000A105B10591F420931D0430931E04409394
:103FC0001F04509320046CCF80959095A095B095D8
:103FD000840F951FA61FB71F90CF80901D0490904F
:103FE0001E04A0901F04B0902004A4E2B0E00E9440
:103FF000C9306B017C01ACEDB0E0A50194010E94D9
:10400000C930C60ED71EE81EF91ECD2CDE2CEF2CB3
:10401000FF24C0921D04D0921E04E0921F04F0926F
:1040200020043ECF6CEF86E593E00C94AE088C3F05
:1040300028F48A3F88F4883F21F008958C3F41F0AE
:104040000895E0913103F0913203309749F00994DB
:104050000E9422060C9412200E9447070C942714F9
:1040600008954F925F926F927F928F929F92AF923C
:10407000BF92CF92DF92EF92FF920F931F93CF9355
:10408000DF93CDB7DEB760970FB6F894DEBF0FBEF3
:10409000CDBF2C014B017A0189E294E00E941D0FF3
:1040A000340121E0621A71084CE1C42ED12C6E1447
:1040B0007F0441F0D12CC12C1E141F041CF43EE0DF
:1040C000C32ED12C81E00E944F06560132E0A30E90
:1040D000B11C80914803882309F4B0C02FE030E080
:1040E0004FE350E0B50181E490E00E94EA0D81E0E9
:1040F0000E944F0630E020E043E050E070E060E0D6
:1041000090E080E00E944C0D23E030E050E040E081
:1041100070E060E090E080E00E944C0D30E020E034
:104120004DE350E070E060E080E490E00E944C0DD0
:1041300023E030E040E450E070E060E080E490E0B4
:104140000E944C0D2EE230E040E450E061E370E06C
:1041500080E490E00E944C0D21E330E04DE350E01C
:1041600061E370E080E490E00E944C0D21E330E0D8
:1041700043E050E061E370E090E080E00E944C0D8D
:104180002EE230E050E040E061E370E090E080E05B
:104190000E944C0D82E00E944F066E147F0409F0CD
:1041A0008AC0740123E0E21AF108EE0CFF1C4E0CE9
:1041B0005F1C0DE010E092EEE92E94E0F92E2CE762
:1041C000C22ED12CF20165917491CE0101960E940C
:1041D0005830F092C104E092C004CE0101960E94D2
:1041E0004010F092C104E092C004AE014F5F5F4FF7
:1041F000B8019601281B390BC9010E94E01132E079
:10420000430E511C025F1F4F07331105D9F660960C
:104210000FB6F894DEBF0FBECDBFDF91CF911F91D7
:104220000F91FF90EF90DF90CF90BF90AF909F9055
:104230008F907F906F905F904F90089586010F5EF2
:104240001F4F20E830E0A50161E470E08EEB94E0C0
:104250000E947B0B882309F49DCF00E02FE330E020
:10426000A50161E470E08EEB94E00E94790C5601A8
:1042700083E0A80EB11C01E02DE030E0A50161E46F
:1042800070E08EEB94E00E94790C2DE030E0A50107
:104290006FE770E08EEB94E00E94790CA601405F1E
:1042A0005F4F00E02FE330E061E470E08EEB94E0DC
:1042B0000E94790C6FCF1E141F0424F431E0E31A1E
:1042C000F10873CFF12CE12C70CF0F931F93CF9394
:1042D000DF938C01EB010E9494308883C801019622
:1042E0000E9494308983CE01DF91CF911F910F916D
:1042F0000895FC01A081B18150962C9182AD38E0E7
:10430000839FC0011124289FA001299F500D1124D3
:1043100070E060E080AD91AD0C9448341F93CF9372
:10432000DF93EC010E943C121BAD8AAD180FE881AF
:10433000F9818189181768F0EC81FD8130E020E077
:1043400040E060E1CE01099580E0DF91CF911F91BF
:104350000895FE01E557FF4F8081882319F0CE01B3
:104360000E947921612FCE010E94291281E0EDCFB8
:10437000CF93DF93EC01FC01E557FF4F8081882349
:1043800019F0CE010E94792160E0CE01DF91CF913A
:104390000C94291285ED8093BC00809108039091C4
:1043A0000903A0910A03B0910B030796A11DB11D4B
:1043B00023E0B695A795979587952A95D1F72091F3
:1043C000BC0024FD03C01092060308954091080329
:1043D0005091090360910A0370910B03452B462B02
:1043E000472B69F30097A105B10541F02AE22A9510
:1043F000F1F700C00197A109B109E1CF809107034E
:104400000C94E715FF920F931F93CF93DF93EC016A
:10441000F62E08811981C8010E949430F81621F007
:104420006F2DC8010E949C30CE01DF91CF911F916A
:104430000F91FF900895EF92FF920F931F93CF93E8
:10444000DF9300D0CDB7DEB78C017B019A838983DF
:10445000FB016081CE0101960E9402220F5F1F4F77
:104460001A830983F7016181CE0101960E9402221D
:10447000C7010F900F90DF91CF911F910F91FF9087
:10448000EF9008951F920F920FB60F9211242F9361
:104490003F938F939F93AF93BF9380914E039091DF
:1044A0004F03A0915003B091510330914D0323E08D
:1044B000230F2D3758F50196A11DB11D20934D03F3
:1044C00080934E0390934F03A0935003B0935103F6
:1044D0008091520390915303A0915403B0915503DE
:1044E0000196A11DB11D8093520390935303A09395
:1044F0005403B0935503BF91AF919F918F913F911A
:104500002F910F900FBE0F901F90189526E8230F44
:104510000296A11DB11DD2CF1F920F920FB60F921E
:1045200011242F933F934F935F936F937F938F93B8
:104530009F93AF93BF93EF93FF93E0910601F091A8
:1045400007010995FF91EF91BF91AF919F918F91D5
:104550007F916F915F914F913F912F910F900FBE7F
:104560000F901F9018951F920F920FB60F92112463
:104570002F933F934F935F936F937F938F939F936B
:10458000AF93BF93EF93FF93E0910401F091050186
:104590000995FF91EF91BF91AF919F918F917F917D
:1045A0006F915F914F913F912F910F900FBE0F90A0
:1045B0001F9018951F920F920FB60F9211242F93F0
:1045C0003F934F935F936F937F938F939F93AF939B
:1045D000BF93EF93FF9386E593E00E948C08FF91D1
:1045E000EF91BF91AF919F918F917F916F915F916B
:1045F0004F913F912F910F900FBE0F901F901895E4
:104600001F920F920FB60F9211242F933F934F9347
:104610005F936F937F938F939F93AF93BF93EF932A
:10462000FF93CF93DF931F92CDB7DEB781E08983ED
:10463000E091F303F091F403309761F0A0916603E9
:10464000B09167036C91A0916C03B0916D038C9154
:104650000995898389818823E1F0E0916603F091CF
:1046600067038081E0916C03F0916D0382FD25C0AA
:10467000908180916F038F5F8F73209170038217F9
:1046800041F0E0916F03F0E0EA5AFC4F958F809380
:104690006F030F90DF91CF91FF91EF91BF91AF9199
:1046A0009F918F917F916F915F914F913F912F914A
:1046B0000F900FBE0F901F9018958081EACF1F9228
:1046C0000F920FB60F9211248F929F92AF92BF92CA
:1046D000CF92DF92EF92FF920F931F932F933F930E
:1046E0004F935F936F937F938F939F93AF93BF93FA
:1046F000EF93FF930E943B076093D6027093D7021B
:104700008093D8029093D9028091F5039091F6039B
:10471000029709F072C1C0900C04D0900D048091F2
:104720000B048C151D0411F410920B0480910B04E2
:10473000811106C18091310490913204019709F0F2
:10474000ECC04091070450910804609109047091F5
:104750000A048091190490911A04A0911B04B0914D
:104760001C04481759076A077B0780F080911904D9
:1047700090911A04A0911B04B0911C040196A11DF4
:10478000B11D84179507A607B70720F520911904D6
:1047900030911A0440911B0450911C04209307048B
:1047A000309308044093090450930A04F12CE12C3F
:1047B000C701B6010E94DE326093030470930404C3
:1047C0008093050490930604A70196010E94DC30B3
:1047D00060930B04C0901D04D0901E04E0901F0451
:1047E000F09020040E941607009115041091160401
:1047F00020911704309118046017710782079307FE
:1048000008F416C1601B710B820B930B6093250497
:104810007093260480932704909328040091190430
:1048200010911A0420911B0430911C0480900704FD
:1048300090900804A0900904B0900A040815190586
:104840002A053B0508F4FDC044E0660F771F881F6A
:10485000991F4A95D1F7672F782F892F9927C61A64
:10486000D70AE80AF90AA0910104B0910204A7014D
:1048700096010E94D4300E94BA319B01AC0160ECD9
:1048800071EE84E69CE40E9412316B017C0120E011
:1048900030E040E85FE30E940D3187FDF0C020E08A
:1048A00030E048EC53E4C701B6010E946C321816A0
:1048B00034F4C12CD12C98ECE92E93E4F92EA70105
:1048C00096016091290470912A0480912B049091A3
:1048D0002C040E940D31882301F1C0922904D0924A
:1048E0002A04E0922B04F0922C046091FF03709153
:1048F000000490E080E00E94BA319B01AC0160ECC2
:1049000071EE84E69CE40E941231A70196010E9498
:1049100012310E948B310E943213809107049091D2
:104920000804A0910904B0910A040196A11DB11DCB
:104930008093070490930804A0930904B0930A0499
:1049400080910B048F5F80930B04E091F903F09149
:10495000FA03309781F120910E0480910F04909119
:1049600010042817190611F410920E0480910E04F9
:1049700081111CC060911104709112048091130484
:104980009091140409958091110490911204A091C2
:104990001304B09114040196A11DB11D809311045C
:1049A00090931204A0931304B093140480910E0406
:1049B0008F5F80930E04E091F703F091F803309736
:1049C000E1F06091030470910404809105049091DA
:1049D000060409958091030490910404A0910504B4
:1049E000B09106040196A11DB11D8093030490931C
:1049F0000404A0930504B0930604FF91EF91BF91C6
:104A0000AF919F918F917F916F915F914F913F9166
:104A10002F911F910F91FF90EF90DF90CF90BF905B
:104A2000AF909F908F900F900FBE0F901F90189592
:104A30000095109520953095600F711F821F931F70
:104A4000E5CE6C157D058E059F0508F00CCFA701FE
:104A50009601261B370B480B590BDA01C90124E0DC
:104A6000880F991FAA1FBB1F2A95D1F7892F9A2F4C
:104A7000AB2FBB27C80ED91EEA1EFB1EF4CEC12CDD
:104A8000D12C80E8E82E8FE3F82E19CF1F920F92D9
:104A90000FB60F9211240F931F932F933F934F93B1
:104AA0005F936F937F938F939F93AF93BF93CF93B6
:104AB000DF93EF93FF93C0913804D091390420978E
:104AC00009F45BC08C850E948306182F8E850E9496
:104AD0008306880F991F812B9A89891709F44DC085
:104AE000EA890B891C892D893E8994E0E902F0014D
:104AF0001124482F082E000C550BE42BF52BED5AF2
:104B0000FE4F9081492F990F550B660B770B400F85
:104B1000511F621F731F4B8B5C8B6D8B7E8B8A8B3F
:104B2000288939892230310531F123303105D1F11D
:104B30002130310511F5833001F58B899C89AD89D0
:104B4000BE8932E0B595A795979587953A95D1F7A7
:104B50008F8B988FA98FBA8F8F8D98A1A9A1BAA199
:104B60008BA39CA3ADA3BEA30E943B076F8F78A32A
:104B700089A39AA302C0882301F3FF91EF91DF91EB
:104B8000CF91BF91AF919F918F917F916F915F91E5
:104B90004F913F912F911F910F910F900FBE0F904A
:104BA0001F901895882311F0833039F78B899C89E1
:104BB000AD89BE89B595A79597958795C9CF1F9261
:104BC0000F920FB60F9211242F933F934F935F9341
:104BD0006F937F938F939F93AF93BF93EF93FF93C5
:104BE0000E944625FF91EF91BF91AF919F918F91C8
:104BF0007F916F915F914F913F912F910F900FBED9
:104C00000F901F9018951F920F920FB60F921124BC
:104C10002F933F934F935F936F937F938F939F93C4
:104C2000AF93BF93EF93FF938091B900887F803655
:104C300009F44AC0F0F5883209F4A7C018F58031AC
:104C400009F49BC0B8F4882309F4F9C0883009F44A
:104C500094C0FF91EF91BF91AF919F918F917F9100
:104C60006F915F914F913F912F910F900FBE0F90D9
:104C70001F901895883109F488C0803251F78093CD
:104C8000040314C0803409F49DC040F48033B9F3A8
:104C90008833F9F68093040385ECB0C0803509F4BD
:104CA00085C0883509F496C0883499F60E94CA21D7
:104CB000D0CF883909F48CC038F5883729F050F402
:104CC000883611F0803729F683E08093060310922E
:104CD000D50257C0883809F47BC0803919F0803874
:104CE00009F0B7CF8091D502803208F071C0E09111
:104CF000D50281E08E0F8093D5028091BB00F0E059
:104D0000EB54FD4F80833DC0803B39F0E0F4803AA6
:104D100009F479C0883A09F09CCF84E080930603B7
:104D20001092B4021092B302E091DC02F091DD0225
:104D300009958091B30281110FC081E08093B30285
:104D40001092930209C0803C09F4A6CF883C09F474
:104D5000A3CF883B09F07DCFE091B40281E08E0FB4
:104D60008093B402F0E0ED56FD4F80818093BB004C
:104D70009091B4028091B30229C08091E1028093A6
:104D8000BB0085EC8093BC0064CF909103038091BD
:104D90000203981758F5E091030381E08E0F80938A
:104DA0000303F0E0EE51FD4F8081E9CFE091030372
:104DB00081E08E0F809303038091BB00F0E0EE5101
:104DC000FD4F808390910303809102039817C8F2EE
:104DD00085E8D8CFE091030381E08E0F8093030331
:104DE0008091BB00F0E0EE51FD4F80838091050380
:104DF00081115CCF81E08093E00284EA8093BC0063
:104E00001092060326CF85EC8093BC001092060317
:104E10008091D502803230F4E091D502F0E0EB547D
:104E2000FD4F10826091D50270E0E091DA02F091BE
:104E3000DB0285EB92E009951092D5020ACF109221
:104E4000040334CFCF93DF93109259031092580389
:104E500088EE93E0A0E0B0E080935A0390935B0368
:104E6000A0935C03B0935D038CED91E090935703A6
:104E70008093560385EC90E09093630380936203E4
:104E800084EC90E0909365038093640380EC90E061
:104E9000909367038093660381EC90E0909369039D
:104EA0008093680382EC90E090936B0380936A0395
:104EB00086EC90E090936D0380936C0310926F03E7
:104EC0001092700310927103109272031092F40307
:104ED0001092F30380E690E0909300048093FF0328
:104EE000C8E1D0E0D0930204C093010410923404CE
:104EF0001092330480E090E0A0EFB2E480932904A4
:104F000090932A04A0932B04B0932C0410922D04A8
:104F100010922E0410922F0410923004109221044B
:104F2000109222041092230410922404109225045B
:104F30001092260410922704109228041092F6036F
:104F40001092F50310923204109231040E94DC0595
:104F50001092F8031092F7031092FA031092F903DB
:104F60001092FC031092FB031092FE031092FD03BB
:104F70002091FF03309100046091010470910204BC
:104F8000C9010E94EE3270930D0460930C04C901B4
:104F9000BE010E94EE327093100460930F041092D1
:104FA000BD041092BC0482EE94E090934B05809374
:104FB0004A0510924D0510924C0510924F05109223
:104FC0004E051092D6048EEE91E09093BB04809330
:104FD000BA041092BF041092BE041092D30410922F
:104FE000CA041092CB041092CC041092CD048FEF1F
:104FF0008093D4048093D804ECEDF4E082EF94E045
:10500000DFEFD1938E179F07E1F789E999E090933D
:10501000C3048093C2048EE89AE09093C504809301
:10502000C4048FE596E19093C7048093C6048AE98F
:1050300092E19093C9048093C80430E020E040E0FE
:1050400069E08EEB94E00E94990910921905109284
:1050500018058CEE94E09093F3048093F2048AE3B5
:1050600094E09093F7048093F604C1E0C093F804B1
:105070001092F904109227051092470510924305EB
:10508000C0934805C093490586EF91E09093F504DD
:105090008093F4048EEB94E00E94290B109211058A
:1050A0001092100510921505109214058FEF9FEFC6
:1050B000909313058093120590931705809316051E
:1050C000E091F404F091F5040280F381E02D8EEB81
:1050D00094E009958BE595E090931B0580931A0564
:1050E00010922A0583E18093E70482E18093E8042B
:1050F000D093E904109251051092500510928E053C
:1051000081E190E09093900580938F0584E090E09A
:10511000909392058093910581E090E0909394059F
:105120008093930562E081E10E94DA0662E084E008
:105130000E94DA0680918F050E948306D82F809105
:1051400091050E948306880F991F8D2B80939505EA
:105150001092960510929705109298051092990555
:1051600010929A0510929B0510929C0510929D0535
:1051700010929E0510929F051092A0051092A10515
:10518000C093AB051092B1051092B0056EE08AEAAB
:1051900095E00E94A11483E895E0909339048093F0
:1051A0003804C093B7051092BD051092BC05C0939A
:1051B000C3051092C9051092C8051092D40510922B
:1051C000D3052AEC3DEF3093D6052093D50580E03A
:1051D00092E09093D8058093D7051092D90510924C
:1051E000E0051092DF053093E2052093E1059093EE
:1051F000E4058093E3051092E5051092E90510920D
:10520000E80588EE93E0A0E0B0E08093EA05909393
:10521000EB05A093EC05B093ED0580E092E0909350
:10522000E7058093E605DF91CF910895CF93DF9353
:10523000CDB7DEB7E1970FB6F894DEBF0FBECDBF96
:10524000789484B5826084BD84B5816084BD85B561
:10525000826085BD85B5816085BD80916E0081606D
:1052600080936E0010928100809181008260809313
:105270008100809181008160809381008091800015
:105280008160809380008091B10084608093B10040
:105290008091B00081608093B00080917A0084603A
:1052A00080937A0080917A00826080937A00809166
:1052B0007A00816080937A0080917A008068809380
:1052C0007A001092C100E0916603F091670382E0DA
:1052D0008083E0916203F09163031082E0916403A4
:1052E000F09165038FE3808310926E03E0916A036F
:1052F000F0916B0386E08083E0916803F09169038D
:10530000808180618083E0916803F09169038081EE
:1053100088608083E0916803F091690380818068F0
:105320008083E0916803F091690380818F7D8083A1
:105330008091330490913404892B59F481E0809357
:10534000350484E090E00E942333909334048093EA
:105350003304F8941092800010928100109285001E
:105360001092840081EC92EA9093890080938800E7
:1053700080918100886080938100809181008260AB
:105380008093810080916F00826080936F00789499
:105390006091290470912A0480912B0490912C042F
:1053A0000E94DD131092320410923104F89480E6CA
:1053B00090E0909300048093FF036091010470914A
:1053C00002040E94EE3270930D0460930C0484E09A
:1053D00090E09093100480930F04789460E070E064
:1053E00080EF92E40E94DD1387E294E19093FC0346
:1053F0008093FB0382E190E29093FE038093FD0390
:105400008CE294E19093FA038093F9030E9447079A
:105410006CE086EB95E00E94A11465E082EC95E0DB
:105420000E94A11460E085E10E94DA0685E1809384
:10543000CE0560E084E10E94DA0684E18093DA051B
:105440008091680086608093680080916D00806123
:1054500080936D0080916C00886080936C0061E0A7
:1054600087E00E94DA0687E08093570515E01093E5
:10547000560561E088E00E94DA0688E080935E05C8
:1054800010935D0561E08AE00E94DA068AE080936D
:1054900065051093640561E086E00E94DA0686E007
:1054A00080936C0510936B0561E089E00E94DA0639
:1054B00089E0809373051093720561E08BE00E9490
:1054C000DA068BE080937A051093790561E083E03A
:1054D0000E94DA0683E08093810510938005E091B5
:1054E000C204F091C30430E020E040E06AE08EEBBB
:1054F00094E009958EEB94E00E94B8218EEB94E045
:105500000E948E218111FACF60E08EEB94E00E9420
:105510002912E091C204F091C30430E020E040E0A1
:105520006BE08EEB94E0099590E080E00E9494306F
:105530008F3AE9F469E471E081E090E00E9465212E
:1055400066E471E083E090E00E9465216AE0E62E67
:1055500061E0F62E05E010E0C8010E949430F701EA
:1055600081937F010F5F1F4F01341105A9F782E27C
:1055700098E19093CB058093CA058DE498E19093D0
:10558000BF058093BE058FED97E0909384058093CF
:10559000830583E798E1909388058093870588EEDB
:1055A00097E0909386058093850582E09AE1909339
:1055B000F8038093F70381E09FE190933203809397
:1055C0003103909305018093040180916900836009
:1055D00080936900E89A60E070E080EF92E40E94B6
:1055E000DD1390E080E00E946A078CE08093B800B1
:1055F0001AA619A6412C512C32014A9486EB95E04B
:105600000E94311482EC95E00E94311400919A05B9
:1056100010919B0520919C0530919D0580918B05F3
:1056200090918C05F12CE12C8017910709F442C070
:105630004091A2055091A3056091A4057091A50524
:10564000C090A605D090A705E090A805F090A90508
:105650004C195D096E097F09F801E81BF90BCF01B0
:10566000F0938A05E093890510938C0500938B05D0
:10567000403151056105710508F080C09F01220F7E
:10568000331F820F931F90938A0580938905809121
:105690008E05882359F08091890590918A0591950E
:1056A0008195910990938A0580938905E0908905F9
:1056B000F0908A058091AA050E9483068C018AEAEF
:1056C00095E00E943114012B09F061C0EF2809F424
:1056D00065C081E080938D05E0918505F091860598
:1056E000309729F08091890590918A0509958091DC
:1056F000B0059091B105029729F480918D05811133
:1057000010928D058EEC95E00E94B5148AED95E01F
:105710000E94B51492E5E92E95E0F92E29A53AA547
:10572000263031050CF04EC0F70186818823E1F068
:105730000E943B07F7010081118122813381AB0177
:10574000BC01401B510B620B730B848190E0B0E0F5
:10575000A0E0481759076A077B0730F060E08581B1
:105760000E94AC06F701168229A53AA52F5F3F4F8C
:105770003AA729A737E0E30EF11CD0CF40325105FC
:105780006105710508F083CF880F991F7CCFEF2842
:1057900029F0E0918705F0918805A2CF8091B005AE
:1057A0009091B105029709F0ADCF80918D058111DF
:1057B000A4CFE0918305F0918405309709F49DCF43
:1057C000099595CF2091CF053091D0058091DB05CB
:1057D0009091DC05F89430934C0320934B03909305
:1057E0004A038093490378948091480381114EC005
:1057F00080914B0190914C01181619060CF046C08F
:1058000020914603309147032F5F3F4F809149011C
:1058100090914A012817390709F0ECC040914B03D9
:1058200050914C038091440390914503481B590BC0
:10583000141615060CF0D2C040914B0350914C0346
:10584000481B590B443051050CF0D1C080914601E2
:10585000909147012817390709F0E1C020914903C9
:1058600030914A038091420390914303281B390BE6
:10587000121613060CF0C7C02091490330914A0359
:10588000281B390B243031050CF0C6C08091410330
:105890008823E9F10E943B0700913D0310913E03EC
:1058A00020913F0330914003601B710B820B930BDF
:1058B000693873418105910550F11A8219826FEAA6
:1058C000CE0101960E94022269E471E081E090E03D
:1058D0000E941B2266E471E083E090E00E941B229C
:1058E0000AE011E085E0E82EF12CFA82E982F80165
:1058F00061918F01CE0101960E940222FFEFEF1A03
:10590000FF0A21E4E216F10481F71092410380912D
:105910004801882309F494C30E943B07009139038E
:1059200010913A0320913B0330913C03601B710BB3
:10593000820B930B6F3171058105910508F480C3CB
:10594000109248010E943B076093390370933A0319
:1059500080933B0390933C038EEB94E00E94B8212C
:10596000AE014D5E5F4F5AA349A3CE0103969CA39F
:105970008BA391E09093270582E00E944F061A8A3C
:10598000198AE9A1FAA12EE011922A95E9F71A8263
:105990001982EBA1FCA12EE011922A95E9F78091E2
:1059A0004B0190914C01181619060CF010C2209171
:1059B000370330913803809146039091470382303A
:1059C000910509F462C1A0F5009709F445C0813042
:1059D000910509F44FC1B0E0A0E048C040914B03ED
:1059E00050914C03841B950B04970CF42FCF81E04E
:1059F0008093480180914B0390914C039093450311
:105A00008093440323CF2091490330914A03821BA2
:105A1000930B04970CF43ACF81E080934801809176
:105A2000490390914A0390934303809342032ECFFE
:105A30008430910509F43FC108F432C185309105E5
:105A400051F64CE0429FF001439FF00D1124E65FB8
:105A5000FE4FA085B1850AC04CE0429FF001439FF4
:105A6000F00D1124E65FFE4FA081B1812091480323
:105A7000211137C0AC014F5F5F4F20914901309138
:105A80004A014217530771F420914B0330914C03A4
:105A900037FF02C02D5F3F4F3595279535952795E8
:105AA000A20FB31F209146013091470142175307BF
:105AB00071F42091490330914A0337FF02C02D5FF2
:105AC0003F4F3595279535952795A20FB31FAF3FCB
:105AD000B10519F014F0AFEFB0E0B7FF02C0B0E0CD
