:100000000C9480040C94A8040C94A8040C94A804E8
:100010000C941F250C9486240C94A8040C94A8041A
:100020000C94A8040C94A8040C94A8040C949F228B
:100030000C94A8040C94A8040C94A8040C94A80490
:100040000C94D0210C94A8040C9440220C941A22F5
:100050000C94A8040C94A8040C94A8040C94A80470
:100060000C9443250C94A80414FFFFFF14FFFFFF1A
:1000700014FFFFFF14FFFFFFFFFFFFFF32FFFFFF33
:10008000FFFFFFFF32FFFFFFFFFF3CFFFFFF3CFFD3
:10009000FFFF3CFFFFFF3CFF0AFFC8FF0AFFC8FF4E
:1000A0000AFFC8FF0AFFC8FFFFFFFFFF1EFFFFC8D0
:1000B000FFFFFFFF1EFFFFC89650285096502850A4
:1000C00096502850965028500AFFB4FFFFB496FF70
:1000D0000AFFB4C8FFB496FFFFC8FFC814C8FF9654
:1000E000FFC8FFC814C8FF963C9614965096149605
:1000F0003C9614965096149605B496C805B496C8C6
:1001000005B496C805B496C8FFC8C8FF14C8C8B4DB
:10011000FFC8C8FF14C8C8B4143C0A3C143C0A3CCD
:10012000143C0A3C143C0A3C14FFFFFFFFFF64FF31
:10013000FFFFFFFFFFFFFFFFFFFFFFFF32FFFFFF9C
:10014000FFFFFFFF32FFFFFF3CFF96FF3CFF96FFE4
:100150003CFF96FF3CFF96FF0AFF96FFFFB450C896
:10016000FF96FFC8FFFF96FFFFFFC8FF1EFFFF9629
:10017000FFFFB4FF1EFFC8B4287850782878507865
:1001800028785078287850780AC8FF96FFC850FF22
:100190000AC8FF96FFC850C8FF96C8B414C8966432
:1001A000FF96C8B414C896643296966432969664E4
:1001B000329696643296966405967896B464327850
:1001C00096509664C8506496C8B496C81496B464A1
:1001D000B478649614647850143228321432283279
:1001E000143228321432283214FFFFFFFFFFFFFFC2
:1001F00064FFFFFFFFFFFFFFFFFFFFFF3CFFFFFF6D
:10020000FFFFFFFF3CFFFFFF50FFFFFF50FFFFFF1F
:1002100050FFFFFF50FFFFFF0AFFFF96FFFFFFC8E1
:1002200050FF96FFFFFFFFC8FFFFFFFF28FFFFFF04
:10023000FFFFFFFF28FFC8FF3296329632963296B4
:1002400032963296329632960AFF96C8FFFF96C8CB
:1002500032FF64FFFFC896FFFFFFC8FF1EFFC8966E
:10026000FFFFC8FF1EC8FF961EC850961EC85096B6
:100270001EC850961EC8509605C89650C8B49678A9
:10028000289650C896B47864FFFFC8FF14C8FF963C
:10029000FFFFB4FF1496B46414141414141414144B
:1002A000141414141414141414FFFFFF14FFFFFF8C
:1002B00014FFFFFF14FFFFFFFFFFFF3CFFFF3CFFAA
:1002C000FFFFFF3CFFFF3CFFFFFF96FFFFFF96FF96
:1002D000FFFF96FFFFFF96FF0AFFC8FF0AFFC8FF58
:1002E0000AFFC8FF0AFFC8FFFFFFFF1EFFFF1EC86F
:1002F000FFFFFF1EFFFF1EC864C832C864C832C8B3
:1003000064C832C864C832C80AFF96C80AFF96C8D3
:100310000AFF96C80AFF96C8FFC8FF14C8FF1496C4
:10032000FFC8FF14C8FF14963296649632966496FE
:10033000329664963296649605C8967805C8967883
:1003400005C8967805C89678FFB4C814B4C8147860
:10035000FFB4C814B4C814501E5028501E50285062
:100360001E5028501E50285043563200435631002C
:1003700042504D00455854004D4944490045585499
:100380000031205050514E004558540032205050FA
:10039000514E004558540034205050514E0045589D
:1003A00054003234205050514E0045585400434CB4
:1003B0004F434B00494E5400340002020303020332
:1003C00004050500000500050000910000019820CB
:1003D00004805C2509AD745452B952492806AADC40
:1003E00054192907AA5C624A0A2B079BE5D24A00E6
:1003F0002C059154042D058B66062E058954022F79
:1004000006A4EC631B3008ACEC543493023107EBC8
:10041000EC92AC063209AC6C364A2A8F003309AC38
:100420006C364A1A8D043408AC6CA21CBA0035092B
:10043000AC6C86DE6824003609ACEC545E312900D1
:100440003708AC6C468E75043809ACEC544C2A263F
:10045000053909ACEC544C3B29003A069955520039
:100460004108ACEC541C53064209AC6C561C298E56
:10047000044309ACEC54D43129004408AC6C563424
:1004800047024508AC6C861E7A044608AC6C865E52
:1004900039034709ACEC544E3329004808AC6CA230
:1004A0001C53064906A95486004A08ACEC6B991403
:1004B000004B09AC6CA24A3295014C07AC6C727BC4
:1004C000044D09AD74F25A49EB004E09AD74F25473
:1004D00049EE004F08ACEC543493025009AC6C5612
:1004E0001C2967005108ACEC54B4620A5208AC6C89
:1004F000561CA9195309ACEC46461A8D045407AB97
:1005000064566C015508AC6CA23329005609AD74D1
:10051000B24E65CA11570AAD74B24A2AA92E0058C4
:1005200009AC6CA24C2ACA00590AAD7472AA33CA2B
:1005300028025A07AB64662A077008ADF456B6D392
:10054000027107ADF48EAF057208AB64A21A2A02DD
:100550007406AD74FE237709ADF456A5464E0B78AC
:10056000069B64520700000004FFFF00000000002B
:10057000003C007C00FC00FC03FC0FFC0FFC03FCB7
:10058000007C003C000000000000000000380E3835
:100590000E380E380E380E380E380E380E380E382B
:1005A0000E380E000000000000240027002A000082
:1005B000000000250028002B00000000002300267A
:1005C00000290004040404040404040202020202D8
:1005D0000203030303030301020408102040800107
:1005E0000204081020010204081020000000080086
:1005F0000201000003040700000000000000001DCD
:100600000004040405030106101800001700000090
:10061000013F000002E125270F3B96B1A5464C346F
:10062000428C1812939029426A08519A8C22528661
:10063000C8881164C4181A61ACC4B821002F0CBA60
:10064000BABDC948D167E3C601301F7CFB1D434AD0
:1006500054103A665787D0883022C4841844A78C37
:10066000D9EC1009258ACC0031147ABDA561A40A01
:10067000993933628C9071F3FF284506321B7CFB5D
:100680001D536854103A666CE40C8999C1C65439FC
:10069000822367F9E08101331C7CFB1D53685410F1
:1006A0003A666CE44072B4B392E42C8D1D22A1062C
:1006B00095190034207CFB2D2183868C213284CC3B
:1006C000904123088D183562D48851C6ECEC018B1B
:1006D00095F301351A7CFB0D155B8C9C2F0829596D
:1006E000316AE8C8591A3B44420D2A3300361B7D53
:1006F0001B9E5369560C3B67745E9859C282D4396D
:10070000BB3B45624DAA330037137CFB85150F5266
:10071000CE87E4E870CA8123E71D0038207CFB1DEA
:10072000536854103A66D9211244C8203A85860885
:100730000942C7ECEC100935A8CC00391A7CFB1D26
:10074000536854103A666787482C519372BE184418
:10075000420D2A330041167D1BA672A7D250326A81
:10076000C8A811E3ECDD83EFEC770342247D1B8600
:10077000446A968C22316CC4B011C3460C1B318A7A
:10078000C4924D46911876CE9E3D08C16209004341
:10079000177D1B9E53699610426674FE4F898D200B
:1007A00044628D222400441B7D1B86446A968C1A69
:1007B000326CC4B011E3EC7F766CC428124BD424A5
:1007C0000245127CFB850F52CE4B44188D9C5F3E38
:1007D00078600046107CFB850F52CE9769B21939BC
:1007E000FF1200490773DB843F484C0D7BDB85819A
:1007F000F3FF3F7CF060004E247D1B0681E6CC1D9C
:100800003B860A55A24426C69818636488912166DF
:1008100046981961282BCCAE3337004F167D1B9EAE
:100820005369968C1A31CEFEBF1B316AC89A546741
:100830000052318E3B06456B980C23316EC4B811C3
:10084000E3468C1B316EC43012A3883051946AC8C1
:10085000B031A3C6109AD59851448691183762DCFE
:10086000C10153228E3B9E6389969022316EC4B89B
:100870001163C7529A2C5BB283C78E35680E15116F
:1008800026ABD000540D7D1B860F520D9DFFFF152A
:100890000055117CFB8561F6FF9F8D1834440D2AAD
:1008A000330056167FF98591F6FFCB11E38690222F
:1008B0004315097227CB0E0358297E3B8681068F8C
:1008C00091183684101922A4860C4367D0245192C3
:1008D00006CD211B328A08194244868D2076D0C26B
:1008E000017814CABA8541868E9040638A9419248F
:1008F000530CB2680000000004FFFF0000006226F5
:1009000011241FBECFEFD8E0DEBFCDBF12E0A0E0C4
:10091000B1E0E8E4F9E602C005900D92A437B10712
:10092000D9F726E0A4E7B2E001C01D92A831B207D2
:10093000E1F714E0C0E8D4E004C02197FE010E9472
:10094000A332CF37D107C9F70E9456280C94A2349E
:100950000C940000662329F06A3019F0862F90E08D
:1009600008958FEF9FEF0895AF92BF92CF92DF92DD
:10097000EF92FF920F93CF93DF93EC01DA017901AD
:10098000942F9770E1E0F0E09F01092E01C0220F43
:100990000A94EAF7522F6E018AE8C80ED11CF601BC
:1009A000808140E0823018F4422F813049F15D01AE
:1009B000F8EFAF22E8ADF9AD28813981D901509621
:1009C0008C918A9D90018B9D300D1124620F731FB5
:1009D000DF01A60FB71F01111AC0EA0EFB1E8C9192
:1009E000842B85278D93AE15BF05C9F7DF91CF9175
:1009F0000F91FF90EF90DF90CF90BF90AF90089550
:100A000050E0D5CF440F550FE114F10479F33C9138
:100A1000342B35273C939F5F9770E1E0EE1AF10885
:100A20009111F0CF2CAD3DADA20FB31FF601808127
:100A3000823028F4813009F051E041E0E5CF51E007
:100A4000E3CF80E0089590E080E0089510922504BF
:100A50001092260410922704109228041092290460
:100A600010922A0410922B0410922C0410922D0440
:100A70001092300410923304109234041092350412
:100A80001092360410923B0410923C0410923D04E4
:100A900010923E04109237041092380410923904D8
:100AA00010923A041092590410925804209155045F
:100AB0003091560480E090915704891760F494E0D7
:100AC000899FF0011124E20FF31F1082118212821C
:100AD00013828F5FF0CF08951092180410921704BC
:100AE00010924F041092500410925104109252042C
:100AF0000E942605E0911F04F0912004309709F030
:100B000009940895BC01F894E7E1F4E0958784879F
:100B100022853385C9010E947432708F678BC901A9
:100B200068E170E00E947432738F628F7894089548
:100B3000089580936A0508959B01DC011896ED9154
:100B4000FC9141E067E10994833081F028F4813021
:100B500099F08230A9F008958730A9F08830C9F063
:100B60008430B1F4809180008F7D03C0809180003B
:100B70008F7780938000089584B58F7784BD089522
:100B800084B58F7DFBCF8091B0008F778093B000CC
:100B900008958091B0008F7DF9CFCF93DF93282FF8
:100BA00030E0F901E551FA4F8491F901E952FA4F29
:100BB000D491F901ED53FA4FC491CC23A1F08111E6
:100BC0000E94A405EC2FF0E0EE0FFF1FE754FA4F50
:100BD000A591B491EC91ED2381E090E009F480E0DF
:100BE000DF91CF91089580E090E0FACF1F93CF93EB
:100BF000DF93282F30E0F901E551FA4F8491F90194
:100C0000E952FA4FD491F901ED53FA4FC491CC2334
:100C1000A9F0162F81110E94A405EC2FF0E0EE0F31
:100C2000FF1FE155FA4FA591B4918FB7F894EC915D
:100C3000111108C0D095DE23DC938FBFDF91CF91D7
:100C40001F910895DE2BF8CFCF93DF9390E0FC0146
:100C5000E952FA4F24918D539A4FFC0184918823D5
:100C6000C9F090E0880F991FFC01EB55FA4FA59150
:100C7000B491FC01E155FA4FC591D49161110DC0B9
:100C80009FB7F8948C91209582238C938881282398
:100C900028839FBFDF91CF910895623051F49FB7B1
:100CA000F8943C91822F809583238C93E8812E2B9E
:100CB000EFCF8FB7F894EC912E2B2C938FBFEACF08
:100CC0003FB7F8948091740390917503A0917603D7
:100CD000B091770326B5A89B05C02F3F19F0019668
:100CE000A11DB11D3FBFBA2FA92F982F8827BC0186
:100CF000CD01620F711D811D911D42E0660F771FAE
:100D0000881F991F4A95D1F708952FB7F8946091DD
:100D100070037091710380917203909173032FBFE0
:100D200008950E9426050E94850660934F047093E3
:100D300050048093510490935204E0911D04F0916B
:100D40001E04309709F00995809153049091540442
:100D5000892B39F482E090E0909318048093170473
:100D6000089581E090E0F8CF0F931F93CF93DF9326
:100D7000EC0100911704109118040E946C058091F9
:100D8000720590917305059749F48FB7F89428E997
:100D900035E030931604209315048FBFD09373056C
:100DA000C0937205C330D10509F43EC090F4C13040
:100DB000D10541F1229779F1109254041092530415
:100DC000012B09F441C0DF91CF911F910F910C9439
:100DD0009106C430D10589F1259771F781E090E043
:100DE000909354048093530488E190E00E9482051C
:100DF0008FB7F89424E73FE130931604209315044D
:100E00008FBFDECFD0935404C093530488E190E0A9
:100E10000E948205D5CF81E090E0909354048093A6
:100E2000530484E090E0F4CF81E090E09093540488
:100E30008093530482E090E0EBCF81E090E09093C8
:100E4000540480935304E4CFDF91CF911F910F910D
:100E5000089580919A0291E0892780939A02909355
:100E6000440108952091420130914301820F931F64
:100E700097FF0AC0109243011092420110929A0209
:100E800081E08093440108959C018630910514F01F
:100E900025E030E03093430120934201892B71F328
:100EA000215031093093610320936003E7CF089507
:100EB000AF92BF92CF92DF92EF92FF920F931F9368
:100EC000CF93DF936C017B018B01040F151FEB01A6
:100ED0005E01AE18BF08C017D10759F06991D6015D
:100EE000ED91FC910190F081E02DC6010995892BCF
:100EF00079F7C501DF91CF911F910F91FF90EF908E
:100F0000DF90CF90BF90AF900895FC01538D448D3A
:100F1000252F30E0842F90E0821B930B541710F0A4
:100F2000CF96089501970895FC01918D828D9817B1
:100F300061F0A28DAE0FBF2FB11D5D968C91928D89
:100F40009F5F9F73928F90E008958FEF9FEF0895BA
:100F5000FC01918D828D981731F0828DE80FF11D83
:100F6000858D90E008958FEF9FEF0895FC01918D9E
:100F7000228D892F90E0805C9F4F821B91098F7397
:100F80009927089588E793E00E94B60721E0892B0E
:100F900009F420E0822F089580E090E0892B29F069
:100FA0000E94C20781110C9400000895FC01A48DD9
:100FB000A80FB92FB11DA35ABF4F2C91848D90E07B
:100FC00001968F739927848FA689B7892C93A0895E
:100FD000B1898C91837080648C93938D848D9813E8
:100FE00006C00288F389E02D80818F7D808308957B
:100FF000EF92FF920F931F93CF93DF93EC0181E069
:10100000888F9B8D8C8D98131AC0E889F98980810F
:1010100085FF15C09FB7F894EE89FF896083E88942
:10102000F98980818370806480839FBF81E090E034
:10103000DF91CF911F910F91FF90EF900895F62EC1
:101040000B8D10E00F5F1F4F0F731127E02E8C8D5B
:101050008E110CC00FB607FCFACFE889F9898081A0
:1010600085FFF5CFCE010E94D607F1CFEB8DEC0FB7
:10107000FD2FF11DE35AFF4FF0829FB7F8940B8FBD
:10108000EA89FB8980818062CFCFCF93DF93EC0127
:10109000888D8823B9F0AA89BB89E889F9898C9160
:1010A00085FD03C0808186FD0DC00FB607FCF7CF1C
:1010B0008C9185FFF2CF808185FFEDCFCE010E941C
:1010C000D607E9CFDF91CF910895DC011A96ED9113
:1010D000FC9130E020E00994DC011696ED91FC9142
:1010E00030E020E040E069E10994DC011696ED91E2
:1010F000FC9130E020E040E068E109949A01DC01D5
:101100001696ED91FC91462F67E10994EF92FF92BC
:101110000F931F93CF93DF931F92CDB7DEB77C0160
:101120008B01D8016C91673129F150F46531A0F43D
:101130000F90DF91CF911F910F91FF90EF90089545
:101140006A3118F16E3FA1F7F8014181498369E2E4
:10115000C7010E9465080BC0F80141814983D7018E
:101160001696ED91FC9130E020E0C70109950E5FE5
:101170001F4FD7CFF80181818983AE014F5F5F4F49
:1011800061E0C7010E947E08F2CF0F5F1F4FD701B9
:101190001696ED91FC9130E020E040E0C701099502
:1011A000C0CF462FDC011696ED91FC9130E020E097
:1011B00066E10994462FDC011696ED91FC9130E032
:1011C00020E065E10994EF92FF920F931F93CF9374
:1011D000DF93EC01042F79016D3009F446C050F41F
:1011E0006B30C9F1693009F49FC06A3009F465C0F9
:1011F00080E046C06E3009F452C06F3099F70E940B
:101200007508F7011381110F110F110F6C89160F5B
:1012100060E4CE010E94DA08612F62956F70606110
:10122000CE010E94DA08612F6F70CE010E94D108B2
:10123000F7016481606BCE010E94D108F701408103
:1012400051816281660F660F660FCE010E947E0893
:101250000150A1F72EC06EE671E0442311F069E65B
:1012600071E0CE010E9486080AC0411110C062E6FA
:1012700071E00E948608E881F98182898C8B81E087
:10128000DF91CF911F910F91FF90EF9008956BE543
:1012900071E00E948608E881F9818389EFCF0E947E
:1012A000750861E8CE010E94DA08602FCE010E9425
:1012B000D108CE010E946C08E2CFEA85FB8530E0C0
:1012C00020E040E068E2CE010995EE81FF8130E048
:1012D00020E040E064E1CE01099541E06BE4CE01FD
:1012E0000E946508E881F981448169E2CE010E948B
:1012F000650840E06BE4CE010E946508E881F98151
:10130000448169E2CE010E94650841E06BE4CE01B0
:101310000E946508E881F981458169E2CE010E9459
:10132000650863E771E09DCF88EA91E0998388833F
:101330001C8AA5CFDC011896ED91FC9130E020E0ED
:1013400040E069E10994DC011896ED91FC9130E0F0
:1013500020E040E068E10994CF93DF931F92CDB77E
:10136000DEB76983BE016F5F7F4F0E949C050F90BF
:10137000DF91CF910895EF92FF921F93CF93DF9368
:10138000EC01162F7A010E94A30960E4CE010E94AD
:10139000AC09E885F9859701412F67E1CE010995F0
:1013A000CE01DF91CF911F91FF90EF900C949A099D
:1013B000EF92FF921F93CF93DF93EC01142F7901EB
:1013C000663181F138F4643109F44BC0653179F04C
:1013D00080E022C06831C9F150F16931C9F78091CC
:1013E0005903882391F1CE010E949A092EC0809161
:1013F0005903882319F0CE010E949A09CE010E9458
:10140000A30960E0CE010E94AC09612FCE010E94C9
:10141000AC0981E080935903DF91CF911F91FF9038
:10142000EF900895642F0E94AC0981E0F5CF809180
:101430005903882319F0CE010E949A09A701193196
:1014400038F4612FCE010E94BB0910925903EDCFF1
:1014500068E1CE010E94BB09185188E1E80EF11C39
:10146000EDCF8E898F3F11F488E78E8BE885F98563
:101470009701412F64E1CE01DF91CF911F91FF9041
:10148000EF9009940F93FC01E85BFF4F0190F0810E
:10149000E02DDF01A41BB50BAD01FC01EA5BFF4FA2
:1014A0000190F081E02DDF01A61BB70BBD010111FA
:1014B00013C041505109621B730BFC01E05CFF4FEC
:1014C0000190F081E02D4E1B5F0BDC01D496ED9175
:1014D000FC9109950F910895013079F761507109D8
:1014E000421B530BEACFCF93DF93FC01A081B18164
:1014F00082AD90E09C0143E0220F331F4A95E1F753
:1015000037AF26AF50962C91509748E0249F90011A
:10151000112435AF24AF23AD30E0B90153E0660F9D
:10152000771F5A95E1F7EF01C05CDF4F798368833D
:1015300051964C915197E901C80FD91F50E04C17B3
:101540005D0718F4CA01821B930BEF01CE5BDF4FDE
:1015500079836883229623E0880F991F2A95E1F703
:10156000860F971F99838883229654968D919C911C
:10157000559799838883E85BFF4F56968D919C9190
:1015800091838083DF91CF9108950F931F93FC0186
:10159000E25BFF4F0190F081E02DDC01A05BBF4FCB
:1015A0000D90BC91A02D4A175B0740F4E017F1079E
:1015B00048F00417150730F080E019C0E017F10774
:1015C000C0F3FACFFC01E65BFF4F40815181845BA1
:1015D0009F4FFC01808191816817790758F481E061
:1015E0004217530720F081E02617370728F71F918D
:1015F0000F91089542175307B0F3DECF2F923F9219
:101600004F925F926F927F928F929F92AF92BF9212
:10161000CF92DF92EF92FF920F931F93CF93DF93BE
:10162000CDB7DEB728970FB6F894DEBF0FBECDBF9B
:1016300098878F83865B9F4F9A838983FC011182F1
:101640001082EF81F885EA5BFF4F208031802F8187
:101650003885245B3F4F3C832B83F9013182208204
:10166000EF80F884FEE4EF0EF11CF7011182108286
:10167000EF81F885E85BFF4F40805180EF81F8856E
:10168000EC5BFF4F208131814216530630F0C201DE
:10169000821B930BF70191838083EF81F885EE5BCA
:1016A000FF4F20813181421A530A2F813885205BF8
:1016B0003F4F3E832D83F90151824082EF81F885AF
:1016C000E85AFF4F60807180EF81F885EC5AFF4F38
:1016D000A080B180EF81F885EA5AFF4FC080D180A9
:1016E000EF81F885EE5AFF4F80809180830195014C
:1016F000A601B4018F8198850E94C50A2F81388583
:101700002C573F4F38872F8381111BC0F90110825E
:1017100028960FB6F894DEBF0FBECDBFDF91CF91F4
:101720001F910F91FF90EF90DF90CF90BF90AF90FF
:101730009F908F907F906F905F904F903F902F90F1
:10174000089581E0EF81F88580838114910421F070
:10175000E981FA8191828082A214B30420F4EB81A2
:10176000FC81B182A082F701808191818C159D0559
:1017700010F4D182C0826414750450F6ED81FE81AC
:1017800071826082C5CF0F93CF93DF93E02FDC018E
:10179000AC57BF4FFC91FF2309F460C02115310500
:1017A00009F45CC02230310538F0023009F04AC03B
:1017B0006F5F7F4F621B730B0E2F0170E0FD52C0F5
:1017C000FC01E25BFF4F0190F081E02D4E175F07B7
:1017D00008F444C0FC01E05BFF4F0190F081E02D74
:1017E0004E175F07D8F5FC01E45BFF4F0190F081D5
:1017F000E02DDC01A65BBF4F0D90BC91A02D260F04
:10180000371F2617370738F56E177F0718F59F0122
:1018100021503109A217B30708F56A177B0708F4AE
:10182000BD012E173F0708F4F901E61BF70BEC0189
:10183000AEA9BFA914960D90BC91A02D9F01FD01EA
:1018400009950CC0033009F0B7CF4F5F5F4F421BC3
:10185000530BB2CFBD016E177F07E0F2DF91CF913E
:101860000F910895FC01E65BFF4F0190F081E02DA0
:101870006E177F0798F3FC01E45BFF4F0190F08146
:10188000E02D6E177F0750F7FC01E05BFF4F0190E2
:10189000F081E02DDC01A25BBF4F0D90BC91A02D2B
:1018A000240F351F24173507A8F44E175F0788F457
:1018B0009F0121503109A217B30780F64A175B0731
:1018C00008F4AD012E173F0708F4F901E41BF50BEE
:1018D000AECFAD014E175F0708F6EDCF0F93209105
:1018E0002E0530912F0562177307F0F02091300517
:1018F0003091310562177307B8F420912A053091B1
:101900002B058217930780F020912C0530912D052F
:101910008217930748F4AB01BC0100E021E030E0FE
:1019200080EE94E00E94C30B0F9108955F926F9236
:101930007F928F929F92AF92BF92CF92DF92EF925F
:10194000FF920F931F93CF93DF93EC017B018A01EA
:101950006C01C41AD50A4817590718F06A01C81A49
:10196000D90A2E153F0560F44701821A930AC8145C
:10197000D90448F10C171D0708F459C0512C18C0A0
:1019800049018E189F08C814D90408F05EC09C2D28
:101990008D2D6401892E982E902F812F8901292F5A
:1019A000382F9C2F8D2FE701E92EF82E55245394C4
:1019B000360176946794E216F30608F442C0AA242E
:1019C000AA94BA2C21C09C2D8D2D6401892E982EAD
:1019D0009E2D8F2D7801092F182F9C2F8D2FE90117
:1019E000292F382FE3CFB701CE01552011F0BE01CA
:1019F000C7010E946E0C6818790877FE04C0EA0CD3
:101A0000FB1C6C0C7D1C21960C171D0760F7DF91E9
:101A1000CF911F910F91FF90EF90DF90CF90BF90EB
:101A2000AF909F908F907F906F905F900895360158
:101A300076946794902F812F8E01C92FD82F79012A
:101A4000512CAA24A394B12CDFCF0C171D0708F04A
:101A500095CF360176946794902F812F8E01C92FF0
:101A6000D82F7901512CABCF213069F038F02230DA
:101A700079F0840F911D47FD9A950895860F911D69
:101A800067FD9A950895841B910947FD93950895E4
:101A9000861B910967FD93950895213069F038F010
:101AA000223079F0861B910967FD93950895840F84
:101AB000911D47FD9A950895860F911D67FD9A9592
:101AC0000895841B910947FD939508953F924F9285
:101AD0005F926F927F928F929F92AF92BF92CF92BE
:101AE000DF92EF92FF920F931F93CF93DF937C01CE
:101AF000162F442EEC01C25ADF4F5E806F806C01BE
:101B00008AE8C80ED11C78847518312E711608F435
:101B1000372C8C809D800E85202F462D652D8A8147
:101B20009B810E94340D5C01202F462D652DC40140
:101B30000E944D0DAC01442079F08C85F601808324
:101B4000232D30E0B501C7010E94C30B171548F0E3
:101B500017196394512CD7CF8B858111F7CF8D85C1
:101B6000EDCF150D1E836F82DF91CF911F910F91E5
:101B7000FF90EF90DF90CF90BF90AF909F908F90AD
:101B80007F906F905F904F903F900895DC011A9680
:101B90004C911A97ED91FC911197249130E0042E0D
:101BA00002C0359527950A94E2F7842F860F883076
:101BB00068F031961196FC93EE93E49198E0941BB3
:101BC00001C0EE0F9A95EAF72E2B88501A968C9347
:101BD0008FEF9FEF01C0880F6A95EAF78095822307
:101BE00008950F931F93CF93DF938C01EC01C25A9A
:101BF000DF4F798368831A86FC01EF58FF4F6081BD
:101C0000CE010E94C60D8887F801EE58FF4F608113
:101C1000CE010E94C60D8987F801E657FF4F9081DB
:101C20009C8781E0911180E08D87DF91CF911F919A
:101C30000F910895CF93C62F0E94C60DC15021E089
:101C400030E001C0220FCA95EAF7821BCF910895B8
:101C5000FC01E60FF11D849190E0982F88273196C2
:101C6000E4918E0F911D0895CF93DF9320913A0553
:101C700030913B052817390709F490C0EC01909387
:101C80003B0580933A05FC01849180934D05319684
:101C9000E491E0934E05FE013296E491E0934F0506
:101CA000FE013396E491E0935005FE013496E491F1
:101CB000E0935105FE013596E491E0935205FE0153
:101CC0003696E491E0935305FE013796E491E09354
:101CD0005405FE013896E491E0935505FE013996CE
:101CE000E491E0935605FE013A96E491E09357059E
:101CF000FE013B96E491E0935805FE013C96E49189
:101D0000E0935905FE013D96E491E0935A05FE01EA
:101D10003E96E491E0935B05FE013F96E491E093EB
:101D20005C05FE017096E491E0935D0561E1CE01F2
:101D30000E94280E90935F0580935E0563E1CE01BB
:101D40000E94280E909361058093600565E1CE01A5
:101D50000E94280E909363058093620580913A0556
:101D600090913B05892BD1F080915A0580936605AF
:101D700040915B054093670590916505992371F04B
:101D8000913079F490915C05891714F4909366056D
:101D900080915D05841714F480936705DF91CF91DE
:101DA00008953091570520915905082E000C990B84
:101DB000622F022E000C770B630F711D37FD7A9591
:101DC000861797071CF4320F30936605241734F7F3
:101DD00020936705E3CFEF92FF920F931F93CF936A
:101DE000DF93FC01E65AFF4F20813181295E3F4F8E
:101DF0006F3F710509F048F561367105D8F08058DC
:101E00009F4FFC0180819181280F391FC9010196E4
:101E1000FC014491442309F447C0F9014491461759
:101E2000170671F40196DF91CF911F910F91FF90EA
:101E3000EF9008956134710548F382589F4FE1CFC8
:101E4000FC018491280F311DE1CF8B01FC01EE577D
:101E5000FF4FC081D181C20FD31F7E0160E0C70157
:101E60000E94280EC80FD91F62E0C7010E94280EE9
:101E7000F4E0EF0EF11C8017910780F3FE018491CE
:101E800090E0982F88273196E4918E2B009761F08F
:101E90000817190719F4CE010396C5CFFE01329633
:101EA000E491CE0FD11DEACF90E080E0BCCFCF927D
:101EB000DF92FF920F931F93CF93DF93109246050B
:101EC0001092F8046C0180ECF82E10E000E0D0E0F5
:101ED000C0E0F60161916F01E091E204F091E3044A
:101EE00080EE94E009958F3F980789F18E3F2FEFA0
:101EF000920779F3BC0180EE94E00E94EB0E00970C
:101F000021F1BC0180EE94E00E94F10D6091530537
:101F10008EE395E00E941A0E809368056091540547
:101F20008EE395E00E941A0E609155058EE395E0D0
:101F30000E941A0E082F880F110B80ECF81202C0B5
:101F4000F0906805C00FD11FC4CF80E0F3CF20917F
:101F50004605222399F080916805022E000C330B70
:101F6000280F311D87FD3A95C20FD31FC01BD10B1F
:101F70001F1424F4CF0DD11DF7FCDA95CE01DF91AB
:101F8000CF911F910F91FF90DF90CF9008958F9286
:101F90009F92AF92BF92CF92DF92EF92FF920F93F8
:101FA0001F93CF93DF93EC017B018A016901FC0150
:101FB000E459FF4F8081813009F46FC008F462C09A
:101FC000823009F475C0833009F47DC0FE01E05A07
:101FD000FF4FF182E082329611830083B601CE0179
:101FE0000E94EB0E009709F4FFC07E012EE5E20E81
:101FF000F11CBC01CE010E94F10DFE01E959FF4F19
:10200000B0803C966081C7010E941A0E882EFE01A6
:10201000EC58FF4F6081C7010E941A0E082FFE0185
:10202000EB58FF4F6081C7010E941A0EA82EF701DE
:10203000908419140CF090C016850B0D0195212F7A
:10204000402F682D828193810E94340D6C01F7012D
:1020500093838283212F402F682D848195810E9454
:102060004D0DAC01F70195838483113009F484C0D0
:10207000A8F1123009F491C0133009F4A4C08C0106
:10208000960136C0FE01E45AFF4F0190F081E02D29
:10209000CE010995080F191F99CFFE01E45AFF4F91
:1020A0000190F081E02DCE010995E81AF90A8ECF52
:1020B000FE01E45AFF4F0190F081E02DCE01099519
:1020C000081B190B83CFFE01E45AFF4F0190F081EA
:1020D000E02DCE010995E80EF91E78CF9601290D65
:1020E000311D97FC3A958C010B0D111DB7FC1A950B
:1020F000B601CE010E94C50A882371F1F70116824C
:1021000017828E0101591F4F6E01F0E7CF0ED11CCF
:10211000F8016081C7010E94C60D882EF60160811A
:10212000C7010E94C60D982E40E0682DCE010E9486
:10213000660D41E0692DCE010E94660D61E0C70188
:102140000E94C60D8111F0CFF70187818B1504F332
:10215000C657DF4F848588838A2DAA0C990BDF919F
:10216000CF911F910F91FF90EF90DF90CF90BF9094
:10217000AF909F908F90089581E090E08B19910926
:10218000B7FC939596012F5F3F4F8A01090D111DF2
:1021900097FC1A95C80ED91EABCF81E090E0BC0128
:1021A0006919710997FC739596012F5F3F4F8B1941
:1021B0009109B7FC93958A010F5F1F4F480F591F74
:1021C000C60ED71E95CF96012B0D311DB7FC3A9543
:1021D00081E090E08919910997FC93958A010F5F3E
:1021E0001F4F480F591F84CF90E080E0B8CFCF92A7
:1021F000DF92EF92FF920F931F93CF93DF93EC0147
:102200008B011092F8047A01D12CC12CF701619155
:102210007F01E091E204F091E30480EE94E00995FF
:102220008F3F980719F18E3F2FEF920779F39C01AA
:10223000A801BE0180EE94E00E94C70F20914C05DA
:10224000213059F038F0223059F0233061F0C80EB7
:10225000D91EDCCFC80FD91FFACF080F191FF7CF2F
:10226000C81BD90BF4CF081B190BF1CFC601DF91A6
:10227000CF911F910F91FF90EF90DF90CF90089535
:10228000CF93DF93EC016BAFEEA9FFA90190F08132
:10229000E02D0995EEA9FFA90280F381E02DCE0182
:1022A000DF91CF910994AF92BF92CF92DF92EF92DC
:1022B000FF920F931F93CF93DF9300D000D01F9214
:1022C000CDB7DEB78C01DC01DA96AC90DA97DB96FD
:1022D000EC90DB97ED91FC91B188FE2CD12CC12CB8
:1022E000D801ED91FC9111978089D8962D913C9160
:1022F0001C82FD828B83B8E08B9FC00111248C9DD2
:10230000A0018D9D500D9C9D500D1124240F351F53
:102310003A832983D8011496ED91FC919E012F5F99
:102320003F4F41E06FE0C8010995F3948F2D8E195E
:102330008A1528F4BFEFCB1ADB0AFB1488F20F9042
:102340000F900F900F900F90DF91CF911F910F91F1
:10235000FF90EF90DF90CF90BF90AF9008950895D9
:1023600008958F929F92AF92BF92CF92DF92EF9299
:10237000FF92CF93DF937C01C62F6C32B0F46A32A8
:10238000E8F5683249F1693209F444C080E0C034AC
:10239000B0F1CF73F701EC0FF11D868D8F3F71F116
:1023A000C03108F06DC0642F14C06D3209F456C0FE
:1023B00068F384EB860F823048F7CF73CE0DDF2DA4
:1023C000D11D8E8D411158C061E00E94240660E04D
:1023D0008E8D0E94F60512C02EE1E20EF11CD0E0B7
:1023E000F70181917F018F3F31F061E0D03108F03A
:1023F00062E00E942406DF5FD63191F781E0DF9131
:10240000CF91FF90EF90DF90CF90BF90AF909F90D3
:102410008F900895C42ED12CF12CE12C0E946006DF
:102420004B015C01C114D104E104F10439F30E94B1
:102430006006681979098A099B09683E734081051D
:10244000910580F3F1E0CF1AD108E108F10828EEF8
:10245000820E23E0921EA11CB11CE4CF85E090E027
:10246000433010F082E090E0880F991F880F991F89
:1024700005970197F1F7C2CF62E00E942406BECF14
:102480000E94CD0521E0892B09F420E0F701218F7E
:10249000B5CFCF92DF92EF92FF920E94E82F20E01B
:1024A00034E244E759E40E94B7319B01AC0160E09B
:1024B00070E080E89FE30E94B7316B017C01AC01C2
:1024C0009B0160E074E284E79BE40E94B7310E94C4
:1024D00030326F3F2FEF72078105910508F47CC001
:1024E00020E030E040E051E4C701B6010E944930ED
:1024F0009B01AC0160E074E284E79BE40E94B73189
:102500000E9430326F3F2FEF72078105910508F46A
:1025100065C020E030E040E852E4C701B6010E9407
:1025200049309B01AC0160E074E284E79BE40E94C7
:10253000B7310E9430326F3F2FEF7207810591054E
:1025400008F44EC020E030E040E853E4C701B60193
:102550000E9449309B01AC0160E074E284E79BE497
:102560000E94B7310E9430326F3F2FEF7207810512
:102570009105C0F120E030E040E854E4C701B60125
:102580000E9449309B01AC0160E074E284E79BE467
:102590000E94B7310E9430326F3F2FEF72078105E2
:1025A0009105A8F425E0F89410928100615071091A
:1025B0007093890060938800809181008860809387
:1025C000810080918100282B209381007894FF90D6
:1025D000EF90DF90CF90089521E0E5CF22E0E3CFA8
:1025E00023E0E1CF24E0DFCFCF92DF92EF92FF92A2
:1025F000209153043091540421303105D1F16B0105
:102600007C0120E030E040E85FE30E94E32F87FD9B
:1026100030C020E030E048EC53E4C701B6010E942E
:102620005F32181634F1F894C0924B04D0924C04E7
:10263000E0924D04F0924E047894609121047091E0
:10264000220490E080E00E94E82F9B01AC0160EC46
:1026500071EE84E69CE40E94B731A70196010E94C6
:10266000B7310E943032FF90EF90DF90CF900C9402
:102670004912FF90EF90DF90CF9008956CEF88E7BC
:1026800093E00C94F80768EF88E793E00C94F80760
:10269000CF92DF92EF92FF920F931F93CF93DF932E
:1026A000EC0188810E94CD058C010E948506CA80BC
:1026B000DB80EC80FD80AB01BC014C195D096E092B
:1026C0007F090115110561F48981813031F491E0B0
:1026D0004B3051056105710508F490E080E00EC0B3
:1026E00001301105D1F789818111F7CF81E04B309D
:1026F00051056105710508F480E090E01F821E829B
:102700009923B1F081E090E09F838E830E9485063B
:102710006B017C01CA82DB82EC82FD820983DF913E
:10272000CF911F910F91FF90EF90DF90CF90089580
:10273000882381F30E9485062EEEC20E22E0D21E6F
:10274000E11CF11C6C157D058E059F0550F482E09F
:1027500090E09F838E83E885F9853097B9F20995DB
:10276000D5CF83E090E09F838E83EA85FB85F5CF0C
:102770000F931F93CF938C01C62F62E08C2F0E9482
:102780002406F801C0838C2F0E94CD05F8018183B7
:10279000CF911F910F910895CF92DF92EF92FF9208
:1027A000CF93DF93EC0189819A819C838B8388810D
:1027B0008E3008F08E508770806480937C0080910A
:1027C0007A00806480937A0080917A0086FDFCCF45
:1027D000A0917800B0917900CF80D8840D2C000CA6
:1027E000EE08FF0829853A85032E000C440B550B93
:1027F0002C193D094E095F090E9447312FEF33E044
:1028000040E050E00E941D31DA01C9018C0D9D1D90
:10281000AE1DBF1D092E000CAA0BBB0B4D815E81A6
:10282000052E000C660B770B841B950BA60BB70BC4
:1028300081152EEF92072FEFA207B207DCF081304F
:1028400022E09207A105B10524F080E092E0A0E02B
:10285000B0E09A8389832B85222329F09195819575
:1028600091099A838983DF91CF91FF90EF90DF9058
:10287000CF90089580E09EEFECCFCF92DF92EF9261
:10288000FF920F931F93CF93DF936C01EB017B01BA
:10289000E40EF51E10E000E0CE15DF0561F0699151
:1028A000D601ED91FC910190F081E02DC6010995D2
:1028B000080F191FF1CFC801DF91CF911F910F9120
:1028C000FF90EF90DF90CF900895CF92DF92EF923C
:1028D000FF920F931F93CF93DF93EC016C0124E0E1
:1028E000C20ED11CFC01E057FF4F0190F081E02D9A
:1028F000C60109958E3FEFEF9E07D8F48E010C5666
:102900001F4FF801408151817E01F2E9EF0EF11C69
:10291000F701608171819C01C6010E94C70FC059F7
:10292000DF4F28812130C1F078F02230B9F0233018
:10293000E9F081E090E0DF91CF911F910F91FF903E
:10294000EF90DF90CF900895F70120813181820FC1
:10295000931F91838083EDCFF801F7CFF70120819A
:102960003181281B390B31832083E3CFF801F7CF66
:102970002091DC02260F3327331F21323105ECF47E
:1029800020912F03FC0190E080E0243069F082E088
:102990000895A091DC022191AC0144545D4FA40F35
:1029A000B52FB11D2C930196861798F38091DC0208
:1029B000680F6093DC0280E0089581E00895109232
:1029C0002F0381E080932E031092090361E082E1DE
:1029D0000E94F60561E083E10E94F605E9EBF0E074
:1029E00080818E7F808380818D7F808388E4809347
:1029F000B80085E48093BC000895CF93DF9391E005
:102A00009093BB028823B9F0C091B800D091BA006E
:102A10008091BC008A7B8093BC0060E082E10E94D0
:102A2000F60560E083E10E94F6050E94DF14D09372
:102A3000BA00C093B800DF91CF9108950895E09156
:102A4000080380910703E81730F4F0E0E556FD4FE6
:102A5000808190E008958FEF9FEF08959091080393
:102A6000809107032FEF3FEF981748F4E92FF0E02C
:102A7000E556FD4F208130E09F5F90930803C90128
:102A800008958091070390910803891B990B08957D
:102A9000CF92DF92EF92FF920F931F93CF93DF932A
:102AA0007C01CB018A0120913503222389F0EB01BF
:102AB0006B01C40ED51ECC15DD0569F06991D701F7
:102AC000ED91FC910190F081E02DC7010995F3CFC4
:102AD000642F0E94B814C801DF91CF911F910F910C
:102AE000FF90EF90DF90CF900895CF92DF92EF921A
:102AF000FF920F931F93CF93DF93EC01962F6831D2
:102B000009F44BC0B901993130F49431C9F09731CF
:102B100089F080E006C0993109F461C09032C9F7AC
:102B200081E0DF91CF911F910F91FF90EF90DF90A7
:102B3000CF90089550E088E096E00E944815F0CFCD
:102B40008C859D85AE85BF85892B8A2B8B2B71F457
:102B5000E881F981A585B0E020EA36E841E050E05F
:102B60000E943C316C877D878E879F871092080377
:102B70001092070310923603109258030E94DF143C
:102B80008FEA91E1909306038093050380EB91E136
:102B90009093040380930303C3CF2C853D854E851A
:102BA0005F8560E074E284EF90E00E9486312051FE
:102BB0003109410951095695479537952795209335
:102BC000B8008E8990E09595879591E090933503B4
:102BD000809357031092360310925803A1CFD091DF
:102BE0005803D13208F093C0C09157030E94600689
:102BF0006B017C0180912F03811164C082E080937E
:102C00002F0381E080932E038FEF80932D0310928A
:102C10002C03D0932B03A7E3B3E0EBE0F3E080E0D9
:102C2000D8137CC010920A0380910A03CC0FC82BE2
:102C3000C0930A0380910903813009F073C0109298
:102C400009030E9460066B017C0180910A03809356
:102C5000BB008091310390913203A0913303B09176
:102C60003403892B8A2B8B2B99F00E9460060091EC
:102C700031031091320320913303309134036C19E6
:102C80007D098E099F090617170728073907D8F10C
:102C90008091BC0083FDD9CF85EC8093BC000E945D
:102CA00060066B017C0180912F038230E9F18091F5
:102CB0002D038F3F61F180912D03803241F180918E
:102CC0002D0325C08091310390913203A0913303ED
:102CD000B0913403892B8A2B8B2B09F48BCF0E9464
:102CE000600600913103109132032091330330913B
:102CF00034036C197D098E099F09061717072807E9
:102D0000390708F077CF809130030E94FD141092AC
:102D10003603109258031092350302CF9D91919380
:102D20008F5F7ECF85EEB9CF8091310390913203D2
:102D3000A0913303B0913403892B8A2B8B2B09F498
:102D4000B2CF0E94600600913103109132032091AE
:102D50003303309134036C197D098E099F090617DE
:102D600017072807390708F09ECFCDCFCF93DF9301
:102D70001F92CDB7DEB76983209135032223F9F086
:102D800020915803203258F021E030E0FC013383D9
:102D9000228390E080E00F90DF91CF9108958091A1
:102DA0003603E82FF0E0E95CFC4F998190838F5F58
:102DB000809336038093580381E090E0ECCF61E08C
:102DC000CE0101960E94B814F7CF90E080E00895FC
:102DD000CF92DF92EF92FF9280915304909154042E
:102DE000019749F58091550490915604209157041C
:102DF000E22FF0E0E150F04CEE0FFF1FEE0FFF1F4F
:102E0000E80FF91F4081518162817381452B462B68
:102E1000472B89F0FC0130E060E070E0CB01231724
:102E2000E1F0C190D190E190F1906C0D7D1D8E1D6F
:102E30009F1D3F5FF4CFC0904B04D0904C04E090B6
:102E40004D04F0904E04C701B6010E942932CB0117
:102E5000FF90EF90DF90CF90089561157105810587
:102E6000910549F330E050E040E00E948631A091A6
:102E70002304B09124040E9447310E94E82F9B0153
:102E8000AC0160EC71EE84E69CE40E94B7316B010A
:102E90007C0120E030E040E85FE30E94E32F87FD03
:102EA00011C020E030E048EC53E4C701B6010E94B5
:102EB0005F32181644F6C12CD12C88ECE82E83E43E
:102EC000F82EC1CFC12CD12C90E8E92E9FE3F92E2A
:102ED000BACF4F925F926F927F928F929F92AF92F2
:102EE000BF92CF92DF92EF92FF920F931F93CF93F7
:102EF000DF932C014B01EA0188EB93E00E94340E32
:102F0000340121E0621A71082CE1E22EF12C6C16DA
:102F10007D0641F0F12CE12C1C161D061CF49EE0F0
:102F2000E92EF12C81E00E949905670132E0C30E81
:102F3000D11C570181E1A80EB11C80919A02850134
:102F400020E830E0A60161E470E0882309F4AFC016
:102F500080EE94E00E94C50A882381F000E02FE310
:102F600030E0A60161E470E080EE94E00E94C30BC3
:102F7000EFEFCE1ADE0AAC14BD0481F781E00E94A7
:102F8000990530E020E043E050E070E060E090E040
:102F900080E00E94960C23E030E050E040E070E0DA
:102FA00060E090E080E00E94960C30E020E04DE38D
:102FB00050E070E060E080E490E00E94960C23E036
:102FC00030E040E450E070E060E080E490E00E9497
:102FD000960C2EE230E040E450E061E370E080E4E3
:102FE00090E00E94960C21E330E04DE350E061E375
:102FF00070E080E490E00E94960C21E330E043E032
:1030000050E061E370E090E080E00E94960C2EE2D8
:1030100030E050E040E061E370E090E080E00E944A
:10302000960C82E00E9499056C167D0609F074C02A
:10303000E401239726E02C9FC0012D9F900D1124C1
:10304000480E591ECDE0D0E00AEA14E08CE7C82E05
:10305000D12CF201E080F1801093E3040093E204AC
:10306000C7010E94570F1093E3040093E204A701E5
:10307000BE019601281B390BC9010E94F71036E0EA
:10308000430E511C2E96C733D10519F7DF91CF910E
:103090001F910F91FF90EF90DF90CF90BF90AF9076
:1030A0009F908F907F906F905F904F90089580EEEB
:1030B00094E00E94C50A882309F4B3CF00E02FE30F
:1030C00030E0A60161E470E080EE94E00E94C30B62
:1030D0006701F3E0CF0ED11C01E02DE030E0A60146
:1030E00061E470E080EE94E00E94C30B2DE030E0DC
:1030F000A6016FE770E080EE94E00E94C30BA70189
:10310000405F5F4F00E02FE330E061E470E080EE6D
:1031100094E00E94C30B85CF1C161D0614F4219762
:1031200089CFD0E0C0E086CFEF92FF920F931F933C
:10313000CF93DF93EC017B01CA010E94340E0AEAAF
:1031400014E01093E3040093E204CE010E94570FB1
:103150001093E3040093E20497FD019695958795FB
:10316000919581959109AE01B7018096DF91CF913C
:103170001F910F91FF90EF900C94F710CF93DF9376
:10318000209142013091430140919A02411130C097
:1031900012161306CCF420915E0330915F03820F68
:1031A000931F8630910514F085E090E097FF02C0F0
:1031B00090E080E090935F0380935E0381E08093D2
:1031C0004401DF91CF91089520915C0330915D031C
:1031D000820F931F8430910514F083E090E097FFF5
:1031E00002C090E080E090935D0380935C03E6CFA3
:1031F000EC01121613060CF0C6C023E0880F991FCD
:103200002A95E1F7409160035091610320915E039C
:1032100030915F032230310509F46AC0A8F421150A
:103220003105A1F12130310509F449C081E08093D5
:103230006A030E9485066093660370936703809318
:10324000680390936903BACF2430310509F482C032
:1032500008F467C02530310549F72CE0249FF001C0
:10326000259FF00D1124EA5FFE4F60857185860F62
:10327000971F8F3F910519F014F08FEF90E097FFA3
:1032800002C090E080E091878087D0CF2CE0249F1F
:10329000F001259FF00D1124EA5FFE4F60817181DE
:1032A000860F971F8F3F910519F014F08FEF90E074
:1032B00097FF02C090E080E091838083B7CF2CE03D
:1032C000249FF001259FF00D1124EA5FFE4F6281DB
:1032D0007381860F971F8F3F910519F014F08FEFC0
:1032E00090E097FF02C090E080E0938382839ECFBE
:1032F0002CE0249FF001259FF00D1124EA5FFE4F82
:1033000064817581860F971F8F3F910519F014F026
:103310008FEF90E097FF02C090E080E09583848378
:1033200085CF2CE0249FF001259FF00D1124EA5F4A
:10333000FE4F62857385860F971F8F3F910519F0A9
:1033400014F08FEF90E097FF02C090E080E0938749
:1033500082876CCF2CE0249FF001259FF00D112473
:10336000EA5FFE4F66817781860F971F8F3F910539
:1033700019F014F08FEF90E097FF02C090E080E02A
:103380009783868353CF20915C0330915D03213076
:10339000310599F1E0F02230310509F442C02330C3
:1033A000310509F043CF80910201909103018C0F08
:1033B0009D1F8830910514F087E090E097FF02C0D0
:1033C00090E080E090930301809302012FCF8091E1
:1033D0005A0390915B038C0F9D1F8630910514F06A
:1033E00085E090E097FF02C090E080E090935B035F
:1033F00080935A030E94B40619CF80915304909190
:103400005404019709F412CF0E94E8168C0F9D1FF7
:10341000BC01990F880B990B0E94EA2F0E94F412AD
:1034200005CF80910401909105018C0F9D1F88307C
:10343000910514F087E090E097FF02C090E080E0F3
:103440009093050180930401F1CECF93DF93809197
:10345000170490911804892BA1F00E946C05C9E70C
:10346000D5E060E088810E94F6051982279685E004
:10347000C33AD807B1F781E080934401DF91CF913F
:1034800008950E949106F7CF20910001309101012B
:10349000C9019695879596958795A90163E05695FC
:1034A00047956A95E1F784278227A90175E056952B
:1034B00047957A95E1F78427817036952795482FAF
:1034C00050E05527469557954427242B352B3093AC
:1034D00001012093000108952F923F924F925F9235
:1034E0006F927F928F929F92AF92BF92CF92DF9214
:1034F000EF92FF920F931F93CF93DF93CDB7DEB779
:103500006A970FB6F894DEBF0FBECDBF28E130E05A
:1035100040E050E00E9486316C30710581059105D4
:1035200059F509E715E0B3EAEB2EB5E0FB2E60E0B4
:10353000F80180810E94F605F8011182095F1F4F92
:10354000E016F106A1F76A960FB6F894DEBF0FBE3B
:10355000CDBFDF91CF911F910F91FF90EF90DF9042
:10356000CF90BF90AF909F908F907F906F905F9023
:103570004F903F902F900895672B682B692B19F778
:10358000E0900401F090050170E060E0F7E0EF16D4
:10359000F10421F460916D0370916E0300910201BA
:1035A000109103010730110509F093C480916B035A
:1035B00090916C03680F791F072E000C880B990BF4
:1035C000A2E0660F771F881F991FAA95D1F7613077
:1035D0002EEF72072FEF820792070CF4B2C161152C
:1035E0003AE07307810591050CF0AEC120E032E0AE
:1035F00040E050E00E941D31809160039091610392
:103600008217930769F030936103209360032F5F63
:103610003F4F309343012093420181E08093440166
:1036200080916003909161032CE0289FA001299F65
:10363000500D11244A5F5E4FFA01868197812085E3
:10364000318522843384A081B181BA83A983C28069
:10365000D380DC82CB82648175817E836D83F3E0CD
:10366000EF16F10409F423C208F071C151E0E51628
:10367000F10409F4AAC162E0E616F10409F4DEC11E
:103680000330110509F472C308F0C0C201301105FE
:1036900009F4F8C20230110509F42EC3E5E5F0E0A3
:1036A000BF010E9474324B01482FC901BF010E9423
:1036B00074325B01442E440C440E582E550C580EA7
:1036C000CB016330710514F082E090E08C01000FB3
:1036D000111F080F191FC40133E08316910414F061
:1036E00082E090E02CE0289F7001299FF00C1124CB
:1036F00037014CE0640E711C680153E0C50ED11C0B
:10370000B101032C000C880B990B27E0660F771F83
:10371000881F991F2A95D1F72FEF30E040E050E045
:103720000E941D312F8B388F498F5A8F6CED74E0BA
:1037300078876F83CE0101969C878B87C8018E0D99
:103740009F1DFC0134E0EE0FFF1F3A95E1F7FE8B61
:10375000ED8B060D171D980144E0220F331F4A958B
:10376000E1F73C8B2B8BEC0CFD1CA70164E0440FB4
:10377000551F6A95E1F75A8B498BC60CD71CB601C9
:10378000E4E0660F771FEA95E1F7788B6F8773E0C7
:103790008716910414F044244A94842D90E09A876B
:1037A0008987852D93E0A916B1040CF08FEFE82FDF
:1037B000F0E0FE87ED87D12CC12C412C512C320139
:1037C0004A9480909802909099020D891E890C0D60
:1037D0001D1D080D191D08591F4FF8010491EB8993
:1037E000FC89EC0DFD1DE80DF91DE859FF4F949182
:1037F000E989FA89EC0DFD1DE80DF91DE859FF4F27
:103800008491EF85F889EC0DFD1DE80DF91DE8594F
:10381000FF4F2491492F401B550BFA0169857A858A
:10382000E69FA001E79F500DF69F500D1124050F54
:10383000281B330B269FA001279F500D369F500D4C
:103840001124850F801B990BED85FE858E9F9001BD
:103850008F9F300D9E9F300D1124B02EB30EEB853F
:10386000FC85E190F190FC87EB871214130454F56A
:1038700008E010E0A12C0E94441AAA0CA82A0150CA
:103880001109C9F70E94441A182FAA2DB0E02F89F8
:10389000388D498D5A8D0E943C31A30192010E94BE
:1038A0001D31112309F412C3E20EF31EFFEFEF16D0
:1038B000F10421F01CF0EE24EA94F12CF7FE02C092
:1038C000F12CE12C0B2D10E00E151F050CF561E01D
:1038D000EF81F885E356FF4F80810E94F605BB24F7
:1038E000B394EF81F885E256FF4FB082045C1F4F1E
:1038F0000E151F056CF461E0EF81F885EE54FF4F63
:1039000080810E94F605EF81F885ED54FF4FB0826B
:103910002F813885295F3F4F38872F8330E1C30ED1
:10392000D11C40E3C416D10409F04BCFC401019669
:1039300060E170E00E947432909399028093980243
:1039400002CE30E020E058CE24E030E055CE75E0E5
:10395000E716F10409F416C108F4E2C0F6E0EF1628
:10396000F10409F08DCE40916D0350916E0357FF25
:1039700002C04D5F5F4F5595479555954795420F4E
:10398000531F57FD3DC140916D0350916E0357FF8A
:1039900002C04D5F5F4F5595479555954795420F2E
:1039A000531F4F3F510511F00CF02DC140916D0395
:1039B00050916E0357FF02C04D5F5F4F559547957D
:1039C00055954795240F351F5BCE40916D0350915F
:1039D0006E0357FF02C04D5F5F4F55954795559554
:1039E00047954A0F5B1F57FD23C040916D035091CF
:1039F0006E0357FF02C04D5F5F4F55954795559534
:103A000047954A0F5B1F4F3F510509F0A4F44091C1
:103A10006D0350916E0357FF02C04D5F5F4F559588
:103A20004795559547954A0F5B1F5A83498328CE82
:103A300050E040E0FACF4FEF50E0F7CF40916D03F8
:103A400050916E0357FF02C04D5F5F4F55954795EC
:103A5000559547954C0D5D1D57FD23C040916D0355
:103A600050916E0357FF02C04D5F5F4F55954795CC
:103A7000559547954C0D5D1D4F3F510509F0A4F438
:103A800040916D0350916E0357FF02C04D5F5F4F31
:103A900055954795559547954C0D5D1D5C834B831A
:103AA000EFCD50E040E0FACF4FEF50E0F7CF40913C
:103AB0006D0350916E0357FF02C04D5F5F4F5595E8
:103AC000479555954795460F571F57FD23C0409181
:103AD0006D0350916E0357FF02C04D5F5F4F5595C8
:103AE000479555954795460F571F4F3F510509F08C
:103AF000A4F440916D0350916E0357FF02C04D5FD7
:103B00005F4F5595479555954795460F571F5E83CF
:103B10004D83B6CD50E040E0FACF4FEF50E0F7CF05
:103B200040916D0350916E0357FF02C04D5F5F4F90
:103B30005595479555954795420D531D57FD53C0D3
:103B400040916D0350916E0357FF02C04D5F5F4F70
:103B50005595479555954795420D531D4F3F510536
:103B600011F00CF043C040916D0350916E0357FF6C
:103B700002C04D5F5F4F5595479555954795240E6B
:103B8000351E7ECD40916D0350916E0357FF02C0EC
:103B90004D5F5F4F5595479555954795480F591F70
:103BA00057FD28C040916D0350916E0357FF02C02E
:103BB0004D5F5F4F5595479555954795480F591F50
:103BC0004F3F510509F0CCF440916D0350916E03C5
:103BD00057FF02C04D5F5F4F5595479555954795E7
:103BE000840F951F4DCD312C212C4ACD22242A94AF
:103BF000312C46CD90E080E043CD8FEF90E040CD7A
:103C000030E020E03DCD2FEF30E03ACD053011051A
:103C100009F418C108F4E4C00630110509F03ECDDE
:103C200040916B0350916C0357FF02C04D5F5F4F93
:103C30005595479555954795420F531F57FD40C1E0
:103C400040916B0350916C0357FF02C04D5F5F4F73
:103C50005595479555954795420F531F4F3F510531
:103C600011F00CF030C140916B0350916C0357FF81
:103C700002C04D5F5F4F5595479555954795240F69
:103C8000351F0CCDE981FA8140916B0350916C0393
:103C900057FF02C04D5F5F4F559547955595479526
:103CA0004E0F5F1F57FD25C060916B0370916C0331
:103CB00077FF02C06D5F7F4F759567957595679526
:103CC0006E0F7F1F4FEF50E06F3F710509F074F4E6
:103CD00040916B0350916C0357FF02C04D5F5F4FE3
:103CE00055954795559547954E0F5F1F5A834983C4
:103CF000D5CC50E040E0FACFEB81FC8140916B03E2
:103D000050916C0357FF02C04D5F5F4F559547952B
:103D1000559547954E0F5F1F57FD25C060916B036A
:103D200070916C0377FF02C06D5F7F4F759567954B
:103D3000759567956E0F7F1F4FEF50E06F3F7105D0
:103D400009F074F440916B0350916C0357FF02C06B
:103D50004D5F5F4F55954795559547954E0F5F1FA2
:103D60005C834B839BCC50E040E0FACFED81FE8139
:103D700040916B0350916C0357FF02C04D5F5F4F42
:103D800055954795559547954E0F5F1F57FD25C093
:103D900060916B0370916C0377FF02C06D5F7F4F82
:103DA00075956795759567956E0F7F1F4FEF50E07E
:103DB0006F3F710509F074F440916B0350916C03EF
:103DC00057FF02C04D5F5F4F5595479555954795F5
:103DD0004E0F5F1F5E834D8361CC50E040E0FACF11
:103DE00040916B0350916C0357FF02C04D5F5F4FD2
:103DF0005595479555954795420D531D57FD53C011
:103E000040916B0350916C0357FF02C04D5F5F4FB1
:103E10005595479555954795420D531D4F3F510573
:103E200011F00CF043C040916B0350916C0357FFAD
:103E300002C04D5F5F4F5595479555954795240EA8
:103E4000351E2CCC40916B0350916C0357FF02C080
:103E50004D5F5F4F5595479555954795480F591FAD
:103E600057FD28C040916B0350916C0357FF02C06F
:103E70004D5F5F4F5595479555954795480F591F8D
:103E80004F3F510509F0CCF440916B0350916C0306
:103E900057FF02C04D5F5F4F559547955595479524
:103EA000840F951FFBCB312C212CF8CB22242A9494
:103EB000312CF4CB90E080E0F1CB8FEF90E0EECBB3
:103EC00030E020E0EBCB2FEF30E0E8CBE21AF30A52
:103ED000EDCC57E0E516F10409F0A2CB6DCB6AEF0B
:103EE00088E793E00C94F8078A3F60F08C3F30F04D
:103EF0008C3F41F40E946C050C943E130E94910685
:103F00000C946F1F08950F931F93CF93DF938C0131
:103F1000EB010E9407318883C80101960E94073196
:103F20008983CE01DF91CF911F910F9108950F9357
:103F30001F93CF93DF938C01EB01FC018081918172
:103F40000097E1F06881798161157105A9F04281DE
:103F500053812C813D814217530770F00E949B349E
:103F60008C819D81F801958384831D821C82DF9161
:103F7000CF911F910F9108950E94453388819981B7
:103F8000F801918380838A819B81938382838C81D2
:103F90009D8195838483198218821B821A82E5CFC2
:103FA000CF93DF93EC0188819981009711F00E94F3
:103FB0004533198218821D821C821B821A82DF916E
:103FC000CF910895FC0180819181009711F00C94AC
:103FD000453308950F931F93CF93DF93EC018881AE
:103FE0009981009759F02A813B812617370730F0D5
:103FF00081E0DF91CF911F910F9108958B016F5F49
:104000007F4F0E94CE33009759F0998388831B839A
:104010000A832C813D81232B59F7FC011082E8CFC4
:1040200080E0E7CF0F931F93CF93DF93EC010C81D8
:104030001D810F5F1F4FB8010E94EA1F882391F076
:10404000288139818C819D8166E072E0820F931F07
:104050000E949B341D830C83CE01DF91CF911F9171
:104060000F910895CE010E94D01FF6CFEF92FF92DC
:104070000F931F93CF93DF93EC018B01CB010E9431
:10408000742F7C01BC01CE010E94EA1F81110BC07C
:10409000CE010E94D01FCE01DF91CF911F910F91D1
:1040A000FF90EF900895FD82EC82B801888199819C
:1040B0000E946D2FF0CFEF92FF920F931F93CF933B
:1040C000DF93EC017B018A01BA010E94EA1F811192
:1040D0000BC0CE010E94D01FCE01DF91CF911F9166
:1040E0000F91FF90EF9008951D830C83B701888195
:1040F00099810E949B34F0CFFB0101900020E9F7E9
:104100003197AF01461B570B0C945B200F931F9305
:10411000CF93DF93CDB7DEB762970FB6F894DEBFCB
:104120000FBECDBF8C01CB01F8011182108213822A
:104130001282158214824AE0BE016F5F7F4F0E9497
:104140007D2FBE016F5F7F4FC8010E947C20629669
:104150000FB6F894DEBF0FBECDBFDF91CF911F9198
:104160000F9108950F931F93CF93DF93CDB7DEB7D1
:10417000A2970FB6F894DEBF0FBECDBF8C01CB0166
:10418000BA01F80111821082138212821582148200
:104190002AE0AE014F5F5F4F0E94882FBE016F5F24
:1041A0007F4FC8010E947C20A2960FB6F894DEBF14
:1041B0000FBECDBFDF91CF911F910F910895CF9387
:1041C000DF93EC01FB018617970749F0608171814D
:1041D0006115710541F0448155810E945B20CE013B
:1041E000DF91CF9108950E94D01FF9CFFC01118279
:1041F00010821382128215821482FB01019000202A
:10420000E9F73197AF01461B570B0C945B20FC017B
:10421000A081B18150962C9182AD38E0839FC0017E
:104220001124289FA001299F500D112470E060E007
:1042300080AD91AD0C9494341F93CF93DF93EC0138
:104240000E9453111BAD8AAD180FE881F981818955
:10425000181768F0EC81FD8130E020E040E060E17B
:10426000CE01099580E0DF91CF911F910895FE0165
:10427000E557FF4F8081882319F0CE010E94072166
:10428000612FCE010E94401181E0EDCFCF93DF93EB
:10429000EC01FC01E557FF4F8081882319F0CE0126
:1042A0000E94072160E0CE01DF91CF910C94401174
:1042B00085ED8093BC008091310390913203A091F1
:1042C0003303B09134030796A11DB11D23E0B695C9
:1042D000A795979587952A95D1F72091BC0024FD45
:1042E00003C010922F03089540913103509132037F
:1042F0006091330370913403452B462B472B69F3B0
:104300000097A105B10541F02AE22A95F1F700C016
:104310000197A109B109E1CF809130030C94FD14FC
:10432000FF920F931F93CF93DF93EC01F62E08813A
:104330001981C8010E940731F81621F06F2DC801BC
:104340000E940F31CE01DF91CF911F910F91FF900D
:104350000895EF92FF920F931F93CF93DF9300D0B6
:10436000CDB7DEB78C017B019A838983FB01608125
:10437000CE0101960E9490210F5F1F4F1A8309837F
:10438000F7016181CE0101960E949021C7010F9033
:104390000F90DF91CF911F910F91FF90EF900895B3
:1043A0001F920F920FB60F9211242F933F938F936A
:1043B0009F93AF93BF938091700390917103A091ED
:1043C0007203B091730330916F0323E0230F2D37F5
:1043D00058F50196A11DB11D20936F0380937003C2
:1043E00090937103A0937203B0937303809174034D
:1043F00090917503A0917603B09177030196A11D6A
:10440000B11D8093740390937503A0937603B093CA
:104410007703BF91AF919F918F913F912F910F9013
:104420000FBE0F901F90189526E8230F0296A11D2E
:10443000B11DD2CF1F920F920FB60F9211242F935E
:104440003F934F935F936F937F938F939F93AF931C
:10445000BF93EF93FF9388E793E00E94D607FF9105
:10446000EF91BF91AF919F918F917F916F915F91EC
:104470004F913F912F910F900FBE0F901F90189565
:104480001F920F920FB60F9211242F933F934F93C9
:104490005F936F937F938F939F93AF93BF93EF93AC
:1044A000FF93CF93DF931F92CDB7DEB781E089836F
:1044B000E0911504F0911604309761F0A091880303
:1044C000B09189036C91A0918E03B0918F038C9170
:1044D0000995898389818823E1F0E0918803F0912F
:1044E00089038081E0918E03F0918F0382FD25C0C6
:1044F0009081809191038F5F8F7320919203821737
:1045000041F0E0919103F0E0E858FC4F958F8093E3
:1045100091030F90DF91CF91FF91EF91BF91AF91F8
:104520009F918F917F916F915F914F913F912F91CB
:104530000F900FBE0F901F9018958081EACF1F92A9
:104540000F920FB60F9211248F929F92AF92BF924B
:10455000CF92DF92EF92FF920F931F932F933F938F
:104560004F935F936F937F938F939F93AF93BF937B
:10457000EF93FF930E9485066093FF027093000300
:104580008093010390930203809117049091180483
:10459000029709F072C1C0902E04D0902F04809130
:1045A0002D048C151D0411F410922D0480912D04FE
:1045B000811106C18091530490915404019709F030
:1045C000ECC04091290450912A0460912B04709111
:1045D0002C0480913B0490913C04A0913D04B09147
:1045E0003E04481759076A077B0780F080913B0417
:1045F00090913C04A0913D04B0913E040196A11D10
:10460000B11D84179507A607B70720F520913B0435
:1046100030913C0440913D0450913E042093290484
:1046200030932A0440932B0450932C04F12CE12C5A
:10463000C701B6010E94643260932504709326047A
:104640008093270490932804A70196010E94863145
:1046500060932D04C0903F04D0904004E09041044A
:10466000F09042040E9460060091370410913804D3
:104670002091390430913A0460177107820793073B
:1046800008F416C1601B710B820B930B60934704F7
:10469000709348048093490490934A0400913B042A
:1046A00010913C0420913D0430913E0480902904F7
:1046B00090902A04A0902B04B0902C0408151905A2
:1046C0002A053B0508F4FDC044E0660F771F881FEC
:1046D000991F4A95D1F7672F782F892F9927C61AE6
:1046E000D70AE80AF90AA0912304B0912404A7018B
:1046F00096010E9447310E94E82F9B01AC0160ECBB
:1047000071EE84E69CE40E94B7316B017C0120E0ED
:1047100030E040E85FE30E94E32F87FDF0C020E037
:1047200030E048EC53E4C701B6010E945F3218162E
:1047300034F4C12CD12C98ECE92E93E4F92EA70186
:10474000960160914B0470914C0480914D049091BE
:104750004E040E94E32F882301F1C0924B04D092B3
:104760004C04E0924D04F0924E046091210470914B
:10477000220490E080E00E94E82F9B01AC0160ECF5
:1047800071EE84E69CE40E94B731A70196010E9475
:10479000B7310E9430320E944912809129049091D1
:1047A0002A04A0912B04B0912C040196A11DB11DE7
:1047B0008093290490932A04A0932B04B0932C0493
:1047C00080912D048F5F80932D04E0911B04F09164
:1047D0001C04309781F12091300480913104909134
:1047E00032042817190611F4109230048091300415
:1047F00081111CC0609133047091340480913504A0
:104800009091360409958091330490913404A091DD
:104810003504B09136040196A11DB11D8093330477
:1048200090933404A0933504B093360480913004FF
:104830008F5F80933004E0911904F0911A0430974F
:10484000E1F06091250470912604809127049091F5
:10485000280409958091250490912604A0912704AD
:10486000B09128040196A11DB11D80932504909359
:104870002604A0932704B0932804FF91EF91BF91E1
:10488000AF919F918F917F916F915F914F913F91E8
:104890002F911F910F91FF90EF90DF90CF90BF90DD
:1048A000AF909F908F900F900FBE0F901F90189514
:1048B0000095109520953095600F711F821F931FF2
:1048C000E5CE6C157D058E059F0508F00CCFA70180
:1048D0009601261B370B480B590BDA01C90124E05E
:1048E000880F991FAA1FBB1F2A95D1F7892F9A2FCE
:1048F000AB2FBB27C80ED91EEA1EFB1EF4CEC12C5F
:10490000D12C80E8E82E8FE3F82E19CF1F920F925A
:104910000FB60F9211240F931F932F933F934F9332
:104920005F936F937F938F939F93AF93BF93CF9337
:10493000DF93EF93FF93C0915A04D0915B042097CB
:1049400009F45BC08C850E94CD05182F8E850E94CE
:10495000CD05880F991F812B9A89891709F44DC0BD
:10496000EA890B891C892D893E8994E0E902F001CE
:104970001124482F082E000C550BE42BF52BE55B7A
:10498000FE4F9081492F990F550B660B770B400F07
:10499000511F621F731F4B8B5C8B6D8B7E8B8A8BC1
:1049A000288939892230310531F123303105D1F19F
:1049B0002130310511F5833001F58B899C89AD8952
:1049C000BE8932E0B595A795979587953A95D1F729
:1049D0008F8B988FA98FBA8F8F8D98A1A9A1BAA11B
:1049E0008BA39CA3ADA3BEA30E9485066F8F78A363
:1049F00089A39AA302C0882301F3FF91EF91DF916D
:104A0000CF91BF91AF919F918F917F916F915F9166
:104A10004F913F912F911F910F910F900FBE0F90CB
:104A20001F901895882311F0833039F78B899C8962
:104A3000AD89BE89B595A79597958795C9CF1F92E2
:104A40000F920FB60F9211242F933F934F935F93C2
:104A50006F937F938F939F93AF93BF93EF93FF9346
:104A60000E948624FF91EF91BF91AF919F918F910A
:104A70007F916F915F914F913F912F910F900FBE5A
:104A80000F901F9018951F920F920FB60F9211243E
:104A90002F933F934F935F936F937F938F939F9346
:104AA000AF93BF93EF93FF938091B900887F8036D7
:104AB00009F44AC0F0F5883209F4A7C018F580312E
:104AC00009F49BC0B8F4882309F4F9C0883009F4CC
:104AD00094C0FF91EF91BF91AF919F918F917F9182
:104AE0006F915F914F913F912F910F900FBE0F905B
:104AF0001F901895883109F488C0803251F780934F
:104B00002D0314C0803409F49DC040F48033B9F300
:104B10008833F9F680932D0385ECB0C0803509F415
:104B200085C0883509F496C0883499F60E945821CA
:104B3000D0CF883909F48CC038F5883729F050F483
:104B4000883611F0803729F683E080932F03109286
:104B5000FE0257C0883809F47BC0803919F08038CC
:104B600009F0B7CF8091FE02803208F071C0E09169
:104B7000FE0281E08E0F8093FE028091BB00F0E088
:104B8000E252FD4F80833DC0803B39F0E0F4803A33
:104B900009F479C0883A09F09CCF84E080932F0310
:104BA0001092DD021092DC02E0910503F091060301
:104BB00009958091DC0281110FC081E08093DC02B5
:104BC0001092BC0209C0803C09F4A6CF883C09F4CD
:104BD000A3CF883B09F07DCFE091DD0281E08E0F0D
:104BE0008093DD02F0E0E454FD4F80818093BB00B0
:104BF0009091DD028091DC0229C080910A038093AC
:104C0000BB0085EC8093BC0064CF90912C03809115
:104C10002B03981758F5E0912C0381E08E0F8093B9
:104C20002C03F0E0E55FFC4F8081E9CFE0912C039D
:104C300081E08E0F80932C038091BB00F0E0E55F54
:104C4000FC4F808390912C0380912B039817C8F21E
:104C500085E8D8CFE0912C0381E08E0F80932C0360
:104C60008091BB00F0E0E55FFC4F808380912E03D4
:104C700081115CCF81E08093090384EA8093BC00BA
:104C800010922F0326CF85EC8093BC0010922F0347
:104C90008091FE02803230F4E091FE02F0E0E252B8
:104CA000FD4F10826091FE0270E0E0910303F091ED
:104CB00004038EED92E009951092FE020ACF109245
:104CC0002D0334CFCF93DF9310927B0310927A039E
:104CD00088EE93E0A0E0B0E080937C0390937D03A6
:104CE000A0937E03B0937F0384ED91E090937903CA
:104CF0008093780385EC90E0909385038093840300
:104D000084EC90E0909387038093860380EC90E09E
:104D1000909389038093880381EC90E090938B03B8
:104D200080938A0382EC90E090938D0380938C03B0
:104D300086EC90E090938F0380938E031092910302
:104D400010929203109293031092940310921604FF
:104D50001092150480E690E0909322048093210441
:104D6000C8E1D0E0D0932404C093230410925604E9
:104D70001092550480E090E0A0EFB2E480934B04E1
:104D800090934C04A0934D04B0934E0410924F04A2
:104D90001092500410925104109252041092430445
:104DA0001092440410924504109246041092470455
:104DB000109248041092490410924A041092180468
:104DC0001092170410925404109253040E94260566
:104DD00010921A041092190410921C0410921B04D1
:104DE00010921E0410921D041092200410921F04B1
:104DF00020912104309122046091230470912404B5
:104E0000C9010E94743270932F0460932E04C9016B
:104E1000BE010E9474327093320460933104109288
:104E2000DF041092DE048AEA94E090936D0580938B
:104E30006C0510926F0510926E051092710510921C
:104E400070051092F80486EE91E09093DD04809353
:104E5000DC041092E1041092E0041092F504109228
:104E6000EC041092ED041092EE041092EF048FEF18
:104E70008093F6048093FA04EEEFF4E084E195E089
:104E8000DFEFD1938E179F07E1F783EE98E09093C1
:104E9000E5048093E40488ED99E09093E70480931F
:104EA000E60485E795E19093E9048093E80481EBBB
:104EB00091E19093EB048093EA0430E020E040E03D
:104EC00069E080EE94E00E94E30810923B051092A6
:104ED0003A0584EB94E090931505809314058CE5D6
:104EE00094E09093190580931805C1E0C0931A05CA
:104EF00010921B05109249051092690510926505E4
:104F0000C0936A05C0936B058EEE91E090931705F0
:104F10008093160580EE94E00E94730A1092330588
:104F20001092320510923705109236058FEF9FEFE1
:104F30009093350580933405909339058093380517
:104F4000E0911605F09117050280F381E02D80EEC7
:104F500094E0099583E295E090933D0580933C05AC
:104F600010924C0583E18093090582E180930A0544
:104F7000D0930B0510927305109272051092B00534
:104F800081E190E09093B2058093B10584E090E0D8
:104F90009093B4058093B30581E090E09093B605BB
:104FA0008093B50562E081E10E94240662E084E01E
:104FB0000E9424068091B1050E94CD05D82F8091D2
:104FC000B3050E94CD05880F991F8D2B8093B705DF
:104FD0001092B8051092B9051092BA051092BB054F
:104FE0001092BC051092BD051092BE051092BF052F
:104FF0001092C0051092C1051092C2051092C3050F
:10500000C093CD051092D3051092D2056EE08CECC2
:1050100095E00E94B81385EA95E090935B04809335
:105020005A04C093D9051092DF051092DE05C09393
:10503000E5051092EB051092EA051092F605109224
:10504000F5052AEC3DEF3093F8052093F70580E055
:1050500092E09093FA058093F9051092FB05109267
:1050600002061092010630930406209303069093E3
:105070000606809305061092070610920B06109202
:105080000A0688EE93E0A0E0B0E080930C069093CF
:105090000D06A0930E06B0930F0688EF91E0909353
:1050A000090680930806DF91CF910895CF93DF938F
:1050B000CDB7DEB7C554D1090FB6F894DEBF0FBE29
:1050C000CDBF789484B5826084BD84B5816084BD91
:1050D00085B5826085BD85B5816085BD80916E0096
:1050E000816080936E0010928100809181008260C7
:1050F0008093810080918100816080938100809104
:1051000080008160809380008091B10084608093F2
:10511000B1008091B00081608093B00080917A00EE
:10512000846080937A0080917A00826080937A0014
:1051300080917A00816080937A0080917A00806803
:1051400080937A001092C100E0918803F091890366
:1051500082E08083E0918403F09185031082E091E6
:105160008603F09187038FE3808310929003E09190
:105170008C03F0918D0386E08083E0918A03F091A7
:105180008B03808180618083E0918A03F0918B039F
:10519000808188608083E0918A03F0918B03808115
:1051A00080688083E0918A03F0918B0380818F7DFA
:1051B00080838091550490915604892B59F481E0A5
:1051C0008093570484E090E00E94A93290935604A3
:1051D00080935504F89410928000109281001092F0
:1051E00085001092840081EC92EA9093890080936C
:1051F0008800809181008860809381008091810087
:1052000082608093810080916F00826080936F0044
:10521000789460914B0470914C0480914D0490916E
:105220004E040E94F4121092540410925304F89405
:1052300080E690E0909322048093210460912304FF
:10524000709124040E94743270932F0460932E0492
:1052500084E090E09093320480933104789460E08D
:1052600070E080EF92E40E94F4128FE69FE1909349
:105270001E0480931D048EE393E190932004809399
:105280001F0483E493E190931C0480931B040E9409
:1052900091066CE088ED95E00E94B81365E084EE1D
:1052A00095E00E94B81360E085E10E94240685E144
:1052B0008093F00560E084E10E94240684E18093FD
:1052C000FC058091680086608093680080916D0085
:1052D000806180936D0080916C00886080936C0089
:1052E00061E087E00E94240687E08093790515E05D
:1052F0001093780561E088E00E94240688E080939E
:10530000800510937F0561E08AE00E9424068AE010
:10531000809387051093860561E086E00E9424064D
:1053200086E080938E0510938D0561E089E00E94F0
:10533000240689E0809395051093940561E08BE045
:105340000E9424068BE080939C0510939B0561E0EE
:1053500083E00E94240683E08093A3051093A205B6
:10536000E091E404F091E50430E020E040E06AE000
:1053700080EE94E0099580EE94E00E94462180EE54
:1053800094E00E941C218111FACF60E080EE94E04D
:105390000E944011E091E404F091E50430E020E047
:1053A00040E06BE080EE94E0099590E080E00E94A0
:1053B00007318F3AE9F464E071E081E090E00E9407
:1053C000831F62E071E083E090E00E94831F86E02B
:1053D000E82E81E0F82E05E010E0C8010E940731B8
:1053E000F70181937F010F5F1F4F01341105A9F76A
:1053F00085E29AE19093ED058093EC0589E297E0D0
:105400009093A6058093A5058EEB98E19093AA054D
:105410008093A90582E397E09093A8058093A70560
:105420008CE69AE190931A048093190460E070E08E
:1054300080EF92E40E94F41290E080E00E94B406B3
:105440008CE08093B8001EAE1DAE212C312C2101C2
:105450002A949E012F5F3F4F790188ED95E00E94CD
:10546000481384EE95E00E9448130091BC0510910A
:10547000BD052091BE053091BF058091AD0590918D
:10548000AE05D12CC12C8017910709F442C0409180
:10549000C4055091C5056091C6057091C7058090FF
:1054A000C8059090C905A090CA05B090CB054819D1
:1054B00059096A097B09F801E81BF90BCF01F09340
:1054C000AC05E093AB051093AE050093AD054031FC
:1054D00051056105710508F080C09F01220F331F3F
:1054E000820F931F9093AC058093AB058091B0051C
:1054F000882359F08091AB059091AC0591958195E9
:1055000091099093AC058093AB05C090AB05D0900A
:10551000AC058091CC050E94CD058C018CEC95E00A
:105520000E944813012B09F061C0CD2809F465C021
:1055300081E08093AF05E091A705F091A805309731
:1055400029F08091AB059091AC0509958091D20529
:105550009091D305029729F48091AF0581111092A3
:10556000AF0580EF95E00E94CC138CEF95E00E9490
:10557000CC13A4E7CA2EA5E0DA2E2DAD3EAD263021
:1055800031050CF04EC0F60186818823E1F00E94BF
:105590008506F6010081118122813381AB01BC01B6
:1055A000401B510B620B730B848190E0B0E0A0E0D4
:1055B000481759076A077B0730F060E085810E9431
:1055C000F605F60116822DAD3EAD2F5F3F4F3EAF83
:1055D0002DAF37E0C30ED11CD0CF4032510561054D
:1055E000710508F083CF880F991F7CCFCD2829F053
:1055F000E091A905F091AA05A2CF8091D2059091E2
:10560000D305029709F0ADCF8091AF058111A4CFEA
:10561000E091A505F091A605309709F49DCF099575
:1056200095CF8091F1059091F20590936E03809350
:105630006D038091FD059091FE0590936C0380931E
:105640006B0380916A038823D9F10E94850600913B
:105650006603109167032091680330916903601B12
:10566000710B820B930B693873418105910540F1F1
:105670001A8219826FEAC7010E94902164E071E0EA
:1056800081E090E00E94A92162E071E083E090E077
:105690000E94A92106E011E0F5E0CF2ED12CDA829C
:1056A000C982F80161918F01C7010E949021FFEF2B
:1056B000CF1ADF0A21E4C216D10489F710926A03D7
:1056C00080914401882309F4D3C30E948506009188
:1056D0006203109163032091640330916503601BA2
:1056E000710B820B930B6F3171058105910508F4E5
:1056F000BFC3109244010E948506609362037093B9
:105700006303809364039093650380EE94E00E94AA
:10571000462131E03093490582E00E94990567E017
:1057200072E0CE01C1960E94F62067E072E0CE01E1
:105730008B960E94F62080914201909143011816A9
:1057400019060CF045C220916003309161038091ED
:105750005E0390915F038230910509F4B5C108F0B2
:1057600022C1009709F440C1019709F477C14FEFB6
:1057700055E06AE170E089A99AA90E94941848EB63
:1057800053E068E270E08BA59CA50E94941868E342
:1057900072E0C7010E94F6206DE372E0CE01079629
:1057A0000E94F62063E472E0CE010D960E94F6207E
:1057B00066E272E0CE0143960E94F6206CE272E04F
:1057C000CE0149960E94F62062E372E0CE014F9628
:1057D0000E94F62040915E0350915F0366E070E006
:1057E000C7010E9469178E010B5D1F4F06501109FA
:1057F000C8010E94E21FE016F106C1F7CE018B96A8
:105800000E94E21FCE01C1960E94E21F81E00E9429
:10581000990500E02EE730E042E350E061E070E0FF
:1058200080EE94E00E94C30B01E02EE030E042E302
:1058300050E06FE770E080EE94E00E94C30B912C83
:10584000812CB12CA12C77E1C72ED12C45E0A416D8
:10585000B10419F065E1C62ED12C81E00E949905B2
:1058600080914201909143018A159B0509F09CC2E9
:1058700000E410E094012C0D3D1D42E350E0B40122
:1058800080EE94E00E94C50A882391F052E3652ED1
:10589000712C00E09601A301B40180EE94E00E9417
:1058A000C30B5FEF651A750A80E46816710489F707
:1058B00082E00E949905D594C794A114B10409F01F
:1058C000E4C291E0909369058091170490911804C7
:1058D000892B09F074C2E9E8F5E0FCAFEBAFA60153
:1058E0004750510921965FAF4EAF2197C6010796E9
:1058F00024969FAF8EAF249700E410E09C0142E312
:1059000050E021966EAD7FAD219780EE94E00E942D
:10591000C50A882309F49BC232E3C32ED12CF601B9
:1059200031962696FFAFEEAF26978F0124962EADC7
:105930003FAD2497A60121966EAD7FAD219780EEF5
:1059400094E00E94C50A882309F473C2F0916A05A5
:105950002296FFAF229721966EAC7FAC21972BAD9C
:105960003CAD38AF2FAB4EE050E05AAF49AF11E03D
:10597000EFA9F8AD8491812330E020E0EFA9F8ADE4
:1059800081113CC29491912309F41EC28091690552
:10599000811145C281E022964FAD2297411180E0EE
:1059A00080936A0533C28430910509F4F9C008F484
:1059B000C1C0059709F0DBCE8CE0829FF001839F88
:1059C000F00D1124EA5FFE4F60857185C7010E94CA
:1059D0008620B701CE01C1960E94971FC7010E9481
:1059E000E21F62E372E035C08CE0829FF001839F8A
:1059F000F00D1124EA5FFE4FA081B18124E630E072
:105A00000E948832A20191010E941D31BA01A901B0
:105A1000CE0185960E94B2201A8219821C821B82B6
:105A20001E821D82BE016B5D7F4FC7010E94DF2079
:105A3000C7010E941220BC01CE01C1960E94DF2046
:105A4000C7010E94E21FCE0185960E94E21F68E016
:105A500072E0CE018B960E947C2089CE8CE0829FE2
:105A6000F001839FF00D1124EA5FFE4FA281B38104
:105A700024E630E00E948832A20191010E941D318B
:105A8000BA01A901CE0185960E94B2201A8219821C
:105A90001C821B821E821D82BE016B5D7F4FC7016F
:105AA0000E94DF20C7010E941220BC01CE01C196D6
:105AB0000E94DF20C7010E94E21FCE0185960E944E
:105AC000E21F62E172E0C5CF8CE0829FF001839F0C
:105AD000F00D1124EA5FFE4FA481B58124E630E089
